{
  "contractName": "KittyMarketPlace",
  "abi": [
    {
      "anonymous": false,
      "inputs": [
        {
          "indexed": false,
          "internalType": "address",
          "name": "owner",
          "type": "address"
        },
        {
          "indexed": false,
          "internalType": "address",
          "name": "approved",
          "type": "address"
        },
        {
          "indexed": false,
          "internalType": "uint256",
          "name": "tokenId",
          "type": "uint256"
        }
      ],
      "name": "Approval",
      "type": "event"
    },
    {
      "anonymous": false,
      "inputs": [
        {
          "indexed": false,
          "internalType": "address",
          "name": "owner",
          "type": "address"
        },
        {
          "indexed": false,
          "internalType": "uint256",
          "name": "kittyId",
          "type": "uint256"
        },
        {
          "indexed": false,
          "internalType": "uint256",
          "name": "mumId",
          "type": "uint256"
        },
        {
          "indexed": false,
          "internalType": "uint256",
          "name": "dadId",
          "type": "uint256"
        },
        {
          "indexed": false,
          "internalType": "uint256",
          "name": "genes",
          "type": "uint256"
        }
      ],
      "name": "Birth",
      "type": "event"
    },
    {
      "anonymous": false,
      "inputs": [
        {
          "indexed": false,
          "internalType": "string",
          "name": "TxType",
          "type": "string"
        },
        {
          "indexed": false,
          "internalType": "address",
          "name": "owner",
          "type": "address"
        },
        {
          "indexed": false,
          "internalType": "uint256",
          "name": "tokenId",
          "type": "uint256"
        }
      ],
      "name": "MarketTransaction",
      "type": "event"
    },
    {
      "anonymous": false,
      "inputs": [
        {
          "indexed": false,
          "internalType": "address",
          "name": "from",
          "type": "address"
        },
        {
          "indexed": false,
          "internalType": "address",
          "name": "to",
          "type": "address"
        },
        {
          "indexed": false,
          "internalType": "uint256",
          "name": "tokenId",
          "type": "uint256"
        }
      ],
      "name": "Transfer",
      "type": "event"
    },
    {
      "inputs": [
        {
          "internalType": "address",
          "name": "_to",
          "type": "address"
        },
        {
          "internalType": "uint256",
          "name": "_tokenId",
          "type": "uint256"
        }
      ],
      "name": "approve",
      "outputs": [],
      "stateMutability": "nonpayable",
      "type": "function"
    },
    {
      "inputs": [
        {
          "internalType": "address",
          "name": "_owner",
          "type": "address"
        }
      ],
      "name": "balanceOf",
      "outputs": [
        {
          "internalType": "uint256",
          "name": "count",
          "type": "uint256"
        }
      ],
      "stateMutability": "view",
      "type": "function"
    },
    {
      "inputs": [
        {
          "internalType": "uint256",
          "name": "",
          "type": "uint256"
        }
      ],
      "name": "kittyIndexToApproved",
      "outputs": [
        {
          "internalType": "address",
          "name": "",
          "type": "address"
        }
      ],
      "stateMutability": "view",
      "type": "function"
    },
    {
      "inputs": [
        {
          "internalType": "uint256",
          "name": "",
          "type": "uint256"
        }
      ],
      "name": "kittyIndexToOwner",
      "outputs": [
        {
          "internalType": "address",
          "name": "",
          "type": "address"
        }
      ],
      "stateMutability": "view",
      "type": "function"
    },
    {
      "inputs": [],
      "name": "name",
      "outputs": [
        {
          "internalType": "string",
          "name": "",
          "type": "string"
        }
      ],
      "stateMutability": "view",
      "type": "function"
    },
    {
      "inputs": [
        {
          "internalType": "uint256",
          "name": "_tokenId",
          "type": "uint256"
        }
      ],
      "name": "ownerOf",
      "outputs": [
        {
          "internalType": "address",
          "name": "owner",
          "type": "address"
        }
      ],
      "stateMutability": "view",
      "type": "function"
    },
    {
      "inputs": [
        {
          "internalType": "bytes4",
          "name": "_interfaceID",
          "type": "bytes4"
        }
      ],
      "name": "supportsInterface",
      "outputs": [
        {
          "internalType": "bool",
          "name": "",
          "type": "bool"
        }
      ],
      "stateMutability": "pure",
      "type": "function"
    },
    {
      "inputs": [],
      "name": "symbol",
      "outputs": [
        {
          "internalType": "string",
          "name": "",
          "type": "string"
        }
      ],
      "stateMutability": "view",
      "type": "function"
    },
    {
      "inputs": [
        {
          "internalType": "address",
          "name": "_owner",
          "type": "address"
        }
      ],
      "name": "tokensOfOwner",
      "outputs": [
        {
          "internalType": "uint256[]",
          "name": "ownerTokens",
          "type": "uint256[]"
        }
      ],
      "stateMutability": "view",
      "type": "function"
    },
    {
      "inputs": [],
      "name": "totalSupply",
      "outputs": [
        {
          "internalType": "uint256",
          "name": "",
          "type": "uint256"
        }
      ],
      "stateMutability": "view",
      "type": "function"
    },
    {
      "inputs": [
        {
          "internalType": "address",
          "name": "_to",
          "type": "address"
        },
        {
          "internalType": "uint256",
          "name": "_tokenId",
          "type": "uint256"
        }
      ],
      "name": "transfer",
      "outputs": [],
      "stateMutability": "nonpayable",
      "type": "function"
    },
    {
      "inputs": [
        {
          "internalType": "address",
          "name": "_from",
          "type": "address"
        },
        {
          "internalType": "address",
          "name": "_to",
          "type": "address"
        },
        {
          "internalType": "uint256",
          "name": "_tokenId",
          "type": "uint256"
        }
      ],
      "name": "transferFrom",
      "outputs": [],
      "stateMutability": "nonpayable",
      "type": "function"
    },
    {
      "inputs": [
        {
          "internalType": "uint256",
          "name": "_tokenId",
          "type": "uint256"
        }
      ],
      "name": "getOffer",
      "outputs": [
        {
          "internalType": "address",
          "name": "seller",
          "type": "address"
        },
        {
          "internalType": "uint256",
          "name": "price",
          "type": "uint256"
        },
        {
          "internalType": "uint256",
          "name": "tokenId",
          "type": "uint256"
        }
      ],
      "stateMutability": "view",
      "type": "function"
    },
    {
      "inputs": [],
      "name": "getAllTokenOnSale",
      "outputs": [
        {
          "internalType": "uint256[]",
          "name": "listOfToken",
          "type": "uint256[]"
        }
      ],
      "stateMutability": "view",
      "type": "function"
    },
    {
      "inputs": [
        {
          "internalType": "uint256",
          "name": "_price",
          "type": "uint256"
        },
        {
          "internalType": "uint256",
          "name": "_tokenId",
          "type": "uint256"
        }
      ],
      "name": "setOffer",
      "outputs": [],
      "stateMutability": "nonpayable",
      "type": "function"
    },
    {
      "inputs": [
        {
          "internalType": "uint256",
          "name": "_tokenId",
          "type": "uint256"
        }
      ],
      "name": "removeOffer",
      "outputs": [],
      "stateMutability": "nonpayable",
      "type": "function"
    },
    {
      "inputs": [
        {
          "internalType": "uint256",
          "name": "_tokenId",
          "type": "uint256"
        }
      ],
      "name": "buyKitty",
      "outputs": [],
      "stateMutability": "payable",
      "type": "function"
    }
  ],
  "bytecode": "0x608060405234801561001057600080fd5b506120a2806100206000396000f3fe6080604052600436106100fe5760003560e01c80636352211e1161009557806395a0f9c71161006457806395a0f9c71461036f57806395d89b4114610398578063a45f4bfc146103c3578063a9059cbb14610400578063ae5310f614610429576100fe565b80636352211e1461028f57806370a08231146102cc5780638462151c14610309578063941b055b14610346576100fe565b806323b872dd116100d157806323b872dd146101bf5780634579268a146101e8578063481af3d31461022757806349b3709f14610264576100fe565b806301ffc9a71461010357806306fdde0314610140578063095ea7b31461016b57806318160ddd14610194575b600080fd5b34801561010f57600080fd5b5061012a60048036038101906101259190611733565b610445565b6040516101379190611a7b565b60405180910390f35b34801561014c57600080fd5b50610155610649565b6040516101629190611a96565b60405180910390f35b34801561017757600080fd5b50610192600480360381019061018d91906116f3565b610682565b005b3480156101a057600080fd5b506101a96106de565b6040516101b69190611c0c565b60405180910390f35b3480156101cb57600080fd5b506101e660048036038101906101e191906116a0565b6106f7565b005b3480156101f457600080fd5b5061020f600480360381019061020a9190611760565b610767565b60405161021e93929190611a22565b60405180910390f35b34801561023357600080fd5b5061024e60048036038101906102499190611760565b6107bf565b60405161025b91906119d0565b60405180910390f35b34801561027057600080fd5b506102796107f2565b6040516102869190611a59565b60405180910390f35b34801561029b57600080fd5b506102b660048036038101906102b19190611760565b610941565b6040516102c391906119d0565b60405180910390f35b3480156102d857600080fd5b506102f360048036038101906102ee9190611673565b6109b8565b6040516103009190611c0c565b60405180910390f35b34801561031557600080fd5b50610330600480360381019061032b9190611673565b610a01565b60405161033d9190611a59565b60405180910390f35b34801561035257600080fd5b5061036d6004803603810190610368919061178d565b610b8a565b005b34801561037b57600080fd5b5061039660048036038101906103919190611760565b610dd3565b005b3480156103a457600080fd5b506103ad61101c565b6040516103ba9190611a96565b60405180910390f35b3480156103cf57600080fd5b506103ea60048036038101906103e59190611760565b611055565b6040516103f791906119d0565b60405180910390f35b34801561040c57600080fd5b50610427600480360381019061042291906116f3565b611088565b005b610443600480360381019061043e9190611760565b6110e4565b005b60007f01ffc9a7a5cef8baa21ed3c5c0d7e23accb804b619e9333b597f47a0d84076e27bffffffffffffffffffffffffffffffffffffffffffffffffffffffff1916827bffffffffffffffffffffffffffffffffffffffffffffffffffffffff1916148061064257507f0560ff44c470b66135b184f41c47840de0a42f8d70ee772ca647210e9eb3c8fd7f8462151cfcc0f257319f78db464014651918f3905b3d4bdab48d3f4618c542c17f23b872dd7302113369cda2901243429419bec145408fa8b352b3dd92b66c680b7fa9059cbb2ab09eb219583f4a59a5d0623ade346d962bcd4e46b11da047c9049b7f095ea7b334ae44009aa867bfb386f5c3b4b443ac6f0ee573fa91c4608fbadfba7f6352211e6566aa027e75ac9dbf2423197fbd9b82b9d981a3ab367d355866aa1c7f70a08231b98ef4ca268c9cc3f6b4590e4bfec28280db06bb5d45e689f2a360be7f18160ddd7f15c72528c2f94fd8dfe3c8d5aa26e2c50c7d81f4bc7bee8d4b79327f95d89b41e2f5f391a79ec54e9d87c79d6e777c63e32c28da95b4e9e4a79250ec7f06fdde0383f15d582d1a74511486c9ddf862a882fb7904b3d9fe9b8b8e58a7961818181818181818187bffffffffffffffffffffffffffffffffffffffffffffffffffffffff1916827bffffffffffffffffffffffffffffffffffffffffffffffffffffffff1916145b9050919050565b6040518060400160405280600b81526020017f4976616e4b69747469657300000000000000000000000000000000000000000081525081565b61068c3382611313565b61069557600080fd5b61069f818361137f565b7f8c5be1e5ebec7d5bd14f71427d1e84f3dd0314c0f7b2291e5b200ac8c7c3b9253383836040516106d2939291906119eb565b60405180910390a15050565b600060016000805490506106f29190611c7c565b905090565b600073ffffffffffffffffffffffffffffffffffffffff168273ffffffffffffffffffffffffffffffffffffffff16141561073157600080fd5b61073b33826113d5565b61074457600080fd5b61074e8382611313565b61075757600080fd5b610762838383611441565b505050565b6000806000806005600086815260200190815260200160002090508060000160009054906101000a900473ffffffffffffffffffffffffffffffffffffffff1681600101548260020154935093509350509193909250565b60036020528060005260406000206000915054906101000a900473ffffffffffffffffffffffffffffffffffffffff1681565b606060006004805490509050600081141561085957600067ffffffffffffffff81111561082257610821611e28565b5b6040519080825280602002602001820160405280156108505781602001602082028036833780820191505090505b5091505061093e565b60008167ffffffffffffffff81111561087557610874611e28565b5b6040519080825280602002602001820160405280156108a35781602001602082028036833780820191505090505b50905060005b82811015610937576000600482815481106108c7576108c6611df9565b5b9060005260206000209060030201600101541461092457600481815481106108f2576108f1611df9565b5b90600052602060002090600302016002015482828151811061091757610916611df9565b5b6020026020010181815250505b808061092f90611d81565b9150506108a9565b8193505050505b90565b60006001600083815260200190815260200160002060009054906101000a900473ffffffffffffffffffffffffffffffffffffffff169050600073ffffffffffffffffffffffffffffffffffffffff168173ffffffffffffffffffffffffffffffffffffffff1614156109b357600080fd5b919050565b6000600260008373ffffffffffffffffffffffffffffffffffffffff1673ffffffffffffffffffffffffffffffffffffffff168152602001908152602001600020549050919050565b60606000610a0e836109b8565b90506000811415610a6b57600067ffffffffffffffff811115610a3457610a33611e28565b5b604051908082528060200260200182016040528015610a625781602001602082028036833780820191505090505b50915050610b85565b60008167ffffffffffffffff811115610a8757610a86611e28565b5b604051908082528060200260200182016040528015610ab55781602001602082028036833780820191505090505b5090506000610ac26106de565b9050600080600190505b828111610b7c578673ffffffffffffffffffffffffffffffffffffffff166001600083815260200190815260200160002060009054906101000a900473ffffffffffffffffffffffffffffffffffffffff1673ffffffffffffffffffffffffffffffffffffffff161415610b695780848381518110610b4e57610b4d611df9565b5b6020026020010181815250508180610b6590611d81565b9250505b8080610b7490611d81565b915050610acc565b83955050505050505b919050565b661ff973cafa80008211610bd3576040517f08c379a0000000000000000000000000000000000000000000000000000000008152600401610bca90611af8565b60405180910390fd5b6000600560008381526020019081526020016000206001015414610c2c576040517f08c379a0000000000000000000000000000000000000000000000000000000008152600401610c2390611b18565b60405180910390fd5b610c363082610682565b600060405180606001604052803373ffffffffffffffffffffffffffffffffffffffff168152602001848152602001838152509050806005600084815260200190815260200160002060008201518160000160006101000a81548173ffffffffffffffffffffffffffffffffffffffff021916908373ffffffffffffffffffffffffffffffffffffffff1602179055506020820151816001015560408201518160020155905050600481908060018154018082558091505060019003906000526020600020906003020160009091909190915060008201518160000160006101000a81548173ffffffffffffffffffffffffffffffffffffffff021916908373ffffffffffffffffffffffffffffffffffffffff1602179055506020820151816001015560408201518160020155505060006001600480549050610d7a9190611c7c565b90508060066000858152602001908152602001600020819055507fd99e4fad9ad6313b1feb588fa8e605e3a9873172f2024330c35dd2b4041a43863384604051610dc5929190611b38565b60405180910390a150505050565b610ddd3382611313565b610e1c576040517f08c379a0000000000000000000000000000000000000000000000000000000008152600401610e1390611ab8565b60405180910390fd5b6000600560008381526020019081526020016000206040518060600160405290816000820160009054906101000a900473ffffffffffffffffffffffffffffffffffffffff1673ffffffffffffffffffffffffffffffffffffffff1673ffffffffffffffffffffffffffffffffffffffff1681526020016001820154815260200160028201548152505090503373ffffffffffffffffffffffffffffffffffffffff16816000015173ffffffffffffffffffffffffffffffffffffffff1614610f1a576040517f08c379a0000000000000000000000000000000000000000000000000000000008152600401610f1190611ad8565b60405180910390fd5b6004600660008481526020019081526020016000205481548110610f4157610f40611df9565b5b9060005260206000209060030201600080820160006101000a81549073ffffffffffffffffffffffffffffffffffffffff021916905560018201600090556002820160009055505060056000838152602001908152602001600020600080820160006101000a81549073ffffffffffffffffffffffffffffffffffffffff0219169055600182016000905560028201600090555050610fdf826115e8565b7fd99e4fad9ad6313b1feb588fa8e605e3a9873172f2024330c35dd2b4041a43863383604051611010929190611bb0565b60405180910390a15050565b6040518060400160405280600281526020017f434b00000000000000000000000000000000000000000000000000000000000081525081565b60016020528060005260406000206000915054906101000a900473ffffffffffffffffffffffffffffffffffffffff1681565b600073ffffffffffffffffffffffffffffffffffffffff168273ffffffffffffffffffffffffffffffffffffffff1614156110c257600080fd5b6110cc3382611313565b6110d557600080fd5b6110e0338383611441565b5050565b6000600560008381526020019081526020016000206040518060600160405290816000820160009054906101000a900473ffffffffffffffffffffffffffffffffffffffff1673ffffffffffffffffffffffffffffffffffffffff1673ffffffffffffffffffffffffffffffffffffffff168152602001600182015481526020016002820154815250509050806020015134146111b6576040517f08c379a00000000000000000000000000000000000000000000000000000000081526004016111ad90611bec565b60405180910390fd5b60046006600084815260200190815260200160002054815481106111dd576111dc611df9565b5b9060005260206000209060030201600080820160006101000a81549073ffffffffffffffffffffffffffffffffffffffff021916905560018201600090556002820160009055505060056000838152602001908152602001600020600080820160006101000a81549073ffffffffffffffffffffffffffffffffffffffff021916905560018201600090556002820160009055505061127c823361137f565b61128b816000015133846106f7565b806000015173ffffffffffffffffffffffffffffffffffffffff166108fc349081150290604051600060405180830381858888f193505050501580156112d5573d6000803e3d6000fd5b507fd99e4fad9ad6313b1feb588fa8e605e3a9873172f2024330c35dd2b4041a43863383604051611307929190611b74565b60405180910390a15050565b60008273ffffffffffffffffffffffffffffffffffffffff166001600084815260200190815260200160002060009054906101000a900473ffffffffffffffffffffffffffffffffffffffff1673ffffffffffffffffffffffffffffffffffffffff1614905092915050565b806003600084815260200190815260200160002060006101000a81548173ffffffffffffffffffffffffffffffffffffffff021916908373ffffffffffffffffffffffffffffffffffffffff1602179055505050565b60008273ffffffffffffffffffffffffffffffffffffffff166003600084815260200190815260200160002060009054906101000a900473ffffffffffffffffffffffffffffffffffffffff1673ffffffffffffffffffffffffffffffffffffffff1614905092915050565b600260008373ffffffffffffffffffffffffffffffffffffffff1673ffffffffffffffffffffffffffffffffffffffff168152602001908152602001600020600081548092919061149190611d81565b9190505550816001600083815260200190815260200160002060006101000a81548173ffffffffffffffffffffffffffffffffffffffff021916908373ffffffffffffffffffffffffffffffffffffffff160217905550600073ffffffffffffffffffffffffffffffffffffffff168373ffffffffffffffffffffffffffffffffffffffff16146115a857600260008473ffffffffffffffffffffffffffffffffffffffff1673ffffffffffffffffffffffffffffffffffffffff168152602001908152602001600020600081548092919061156c90611d57565b91905055506003600082815260200190815260200160002060006101000a81549073ffffffffffffffffffffffffffffffffffffffff02191690555b7fddf252ad1be2c89b69c2b068fc378daa952ba7f163c4a11628f55a4df523b3ef8383836040516115db939291906119eb565b60405180910390a1505050565b6115f23382611313565b6115fb57600080fd5b6003600082815260200190815260200160002060006101000a81549073ffffffffffffffffffffffffffffffffffffffff021916905550565b60008135905061164381612027565b92915050565b6000813590506116588161203e565b92915050565b60008135905061166d81612055565b92915050565b60006020828403121561168957611688611e57565b5b600061169784828501611634565b91505092915050565b6000806000606084860312156116b9576116b8611e57565b5b60006116c786828701611634565b93505060206116d886828701611634565b92505060406116e98682870161165e565b9150509250925092565b6000806040838503121561170a57611709611e57565b5b600061171885828601611634565b92505060206117298582860161165e565b9150509250929050565b60006020828403121561174957611748611e57565b5b600061175784828501611649565b91505092915050565b60006020828403121561177657611775611e57565b5b60006117848482850161165e565b91505092915050565b600080604083850312156117a4576117a3611e57565b5b60006117b28582860161165e565b92505060206117c38582860161165e565b9150509250929050565b60006117d983836119b2565b60208301905092915050565b6117ee81611cb0565b82525050565b60006117ff82611c37565b6118098185611c5a565b935061181483611c27565b8060005b8381101561184557815161182c88826117cd565b975061183783611c4d565b925050600181019050611818565b5085935050505092915050565b61185b81611cc2565b82525050565b600061186c82611c42565b6118768185611c6b565b9350611886818560208601611d24565b61188f81611e5c565b840191505092915050565b60006118a7601e83611c6b565b91506118b282611e6d565b602082019050919050565b60006118ca603883611c6b565b91506118d582611e96565b604082019050919050565b60006118ed602583611c6b565b91506118f882611ee5565b604082019050919050565b6000611910602583611c6b565b915061191b82611f34565b604082019050919050565b6000611933600c83611c6b565b915061193e82611f83565b602082019050919050565b6000611956600383611c6b565b915061196182611fac565b602082019050919050565b6000611979600c83611c6b565b915061198482611fd5565b602082019050919050565b600061199c601883611c6b565b91506119a782611ffe565b602082019050919050565b6119bb81611d1a565b82525050565b6119ca81611d1a565b82525050565b60006020820190506119e560008301846117e5565b92915050565b6000606082019050611a0060008301866117e5565b611a0d60208301856117e5565b611a1a60408301846119c1565b949350505050565b6000606082019050611a3760008301866117e5565b611a4460208301856119c1565b611a5160408301846119c1565b949350505050565b60006020820190508181036000830152611a7381846117f4565b905092915050565b6000602082019050611a906000830184611852565b92915050565b60006020820190508181036000830152611ab08184611861565b905092915050565b60006020820190508181036000830152611ad18161189a565b9050919050565b60006020820190508181036000830152611af1816118bd565b9050919050565b60006020820190508181036000830152611b11816118e0565b9050919050565b60006020820190508181036000830152611b3181611903565b9050919050565b60006060820190508181036000830152611b5181611926565b9050611b6060208301856117e5565b611b6d60408301846119c1565b9392505050565b60006060820190508181036000830152611b8d81611949565b9050611b9c60208301856117e5565b611ba960408301846119c1565b9392505050565b60006060820190508181036000830152611bc98161196c565b9050611bd860208301856117e5565b611be560408301846119c1565b9392505050565b60006020820190508181036000830152611c058161198f565b9050919050565b6000602082019050611c2160008301846119c1565b92915050565b6000819050602082019050919050565b600081519050919050565b600081519050919050565b6000602082019050919050565b600082825260208201905092915050565b600082825260208201905092915050565b6000611c8782611d1a565b9150611c9283611d1a565b925082821015611ca557611ca4611dca565b5b828203905092915050565b6000611cbb82611cfa565b9050919050565b60008115159050919050565b60007fffffffff0000000000000000000000000000000000000000000000000000000082169050919050565b600073ffffffffffffffffffffffffffffffffffffffff82169050919050565b6000819050919050565b60005b83811015611d42578082015181840152602081019050611d27565b83811115611d51576000848401525b50505050565b6000611d6282611d1a565b91506000821415611d7657611d75611dca565b5b600182039050919050565b6000611d8c82611d1a565b91507fffffffffffffffffffffffffffffffffffffffffffffffffffffffffffffffff821415611dbf57611dbe611dca565b5b600182019050919050565b7f4e487b7100000000000000000000000000000000000000000000000000000000600052601160045260246000fd5b7f4e487b7100000000000000000000000000000000000000000000000000000000600052603260045260246000fd5b7f4e487b7100000000000000000000000000000000000000000000000000000000600052604160045260246000fd5b600080fd5b6000601f19601f8301169050919050565b7f546865207573657220646f65736e2774206f776e2074686520746f6b656e0000600082015250565b7f596f752073686f756c64206f776e20746865206b6974747920746f206265206160008201527f626c6520746f2072656d6f76652074686973206f666665720000000000000000602082015250565b7f4361742070726963652073686f756c642062652067726561746572207468616e60008201527f20302e3031000000000000000000000000000000000000000000000000000000602082015250565b7f596f752063616e27742073656c6c207477696365207468652073616d65206f6660008201527f6665727320000000000000000000000000000000000000000000000000000000602082015250565b7f437265617465206f666665720000000000000000000000000000000000000000600082015250565b7f4275790000000000000000000000000000000000000000000000000000000000600082015250565b7f52656d6f7665206f666665720000000000000000000000000000000000000000600082015250565b7f546865207072696365206973206e6f7420636f72726563740000000000000000600082015250565b61203081611cb0565b811461203b57600080fd5b50565b61204781611cce565b811461205257600080fd5b50565b61205e81611d1a565b811461206957600080fd5b5056fea2646970667358221220e1de1959799b9e80f7fa4279e981ec8a365ef52f7e844bd89e09a65b9c50154564736f6c63430008070033",
  "immutableReferences": {},
  "source": "// SPDX-License-Identifier: MIT\r\nimport \"./KittyOwnership.sol\";\r\n\r\npragma solidity ^0.8.0;\r\n\r\ncontract KittyMarketPlace is KittyOwnership {\r\n\r\n  struct Offer {\r\n    address payable seller;\r\n    uint256 price;\r\n    uint256 tokenId;\r\n  }\r\n\r\n  Offer[] offers;\r\n\r\n  mapping (uint256 => Offer) tokenIdToOffer;\r\n  mapping (uint256 => uint256) tokenIdToOfferId;\r\n\r\n\r\n  event MarketTransaction(string TxType, address owner, uint256 tokenId);\r\n\r\n  function getOffer(uint256 _tokenId)\r\n      public\r\n      view\r\n      returns\r\n  (\r\n      address seller,\r\n      uint256 price,\r\n      uint256 tokenId\r\n\r\n  ) {\r\n      Offer storage offer = tokenIdToOffer[_tokenId];\r\n      return (\r\n          offer.seller,\r\n          offer.price,\r\n          offer.tokenId\r\n      );\r\n  }\r\n\r\n\r\n  function getAllTokenOnSale() public view returns(uint256[] memory listOfToken){\r\n    uint256 totalOffers = offers.length;\r\n    \r\n    if (totalOffers == 0) {\r\n        return new uint256[](0);\r\n    } else {\r\n  \r\n      uint256[] memory resultOfToken = new uint256[](totalOffers);\r\n\r\n      uint256 offerId;\r\n  \r\n      for (offerId = 0; offerId < totalOffers; offerId++) {\r\n        if(offers[offerId].price != 0){\r\n          resultOfToken[offerId] = offers[offerId].tokenId;\r\n        }\r\n      }\r\n      return resultOfToken;\r\n    }\r\n  }\r\n\r\n  function setOffer(uint256 _price, uint256 _tokenId)\r\n    public\r\n  {\r\n    /*\r\n    *   We give the contract the ability to transfer kitties\r\n    *   As the kitties will be in the market place we need to be able to transfert them\r\n    *   We are checking if the user is owning the kitty inside the approve function\r\n    */\r\n    require(_price > 0.009 ether, \"Cat price should be greater than 0.01\");\r\n    require(tokenIdToOffer[_tokenId].price == 0, \"You can't sell twice the same offers \");\r\n\r\n    approve(address(this), _tokenId);\r\n\r\n    Offer memory _offer = Offer({\r\n      seller: (payable(msg.sender)),\r\n      price: _price,\r\n      tokenId: _tokenId\r\n    });\r\n\r\n    tokenIdToOffer[_tokenId] = _offer;\r\n\r\n    offers.push(_offer);\r\n\r\n    uint256 index = offers.length - 1;\r\n\r\n    tokenIdToOfferId[_tokenId] = index;\r\n\r\n    emit MarketTransaction(\"Create offer\", msg.sender, _tokenId);\r\n  }\r\n\r\n  function removeOffer(uint256 _tokenId)\r\n    public\r\n  {\r\n    require(_owns(msg.sender, _tokenId), \"The user doesn't own the token\");\r\n\r\n    Offer memory offer = tokenIdToOffer[_tokenId];\r\n\r\n    require(offer.seller == msg.sender, \"You should own the kitty to be able to remove this offer\");\r\n\r\n    /* we delete the offer info */\r\n    delete offers[tokenIdToOfferId[_tokenId]];\r\n\r\n    /* Remove the offer in the mapping*/\r\n    delete tokenIdToOffer[_tokenId];\r\n\r\n\r\n    _deleteApproval(_tokenId);\r\n\r\n    emit MarketTransaction(\"Remove offer\", msg.sender, _tokenId);\r\n  }\r\n\r\n  function buyKitty(uint256 _tokenId)\r\n    public\r\n    payable\r\n  {\r\n    Offer memory offer = tokenIdToOffer[_tokenId];\r\n    require(msg.value == offer.price, \"The price is not correct\");\r\n\r\n    /* we delete the offer info */\r\n    delete offers[tokenIdToOfferId[_tokenId]];\r\n\r\n    /* Remove the offer in the mapping*/\r\n    delete tokenIdToOffer[_tokenId];\r\n\r\n    /* TMP REMOVE THIS*/\r\n    _approve(_tokenId, msg.sender);\r\n\r\n\r\n    transferFrom(offer.seller, msg.sender, _tokenId);\r\n\r\n    offer.seller.transfer(msg.value);\r\n    emit MarketTransaction(\"Buy\", msg.sender, _tokenId);\r\n  }\r\n}",
  "sourcePath": "C:\\Users\\benX\\Documents\\ethereum_course_advanced\\myCryptoKitties_master\\contracts\\KittyMarketPlace.sol",
  "compiler": {
    "name": "solc",
    "version": "0.8.7+commit.e28d00a7.Emscripten.clang"
  },
  "schemaVersion": "3.4.2",
  "updatedAt": "2021-08-15T21:36:28.744Z",
  "devdoc": {
    "kind": "dev",
    "methods": {},
    "version": 1
  },
  "userdoc": {
    "kind": "user",
    "methods": {},
    "version": 1
  }
}