{
  "contractName": "KittyCore",
  "abi": [
    {
      "inputs": [],
      "stateMutability": "nonpayable",
      "type": "constructor"
    },
    {
      "anonymous": false,
      "inputs": [
        {
          "indexed": false,
          "internalType": "address",
          "name": "owner",
          "type": "address"
        },
        {
          "indexed": false,
          "internalType": "address",
          "name": "approved",
          "type": "address"
        },
        {
          "indexed": false,
          "internalType": "uint256",
          "name": "tokenId",
          "type": "uint256"
        }
      ],
      "name": "Approval",
      "type": "event"
    },
    {
      "anonymous": false,
      "inputs": [
        {
          "indexed": false,
          "internalType": "address",
          "name": "owner",
          "type": "address"
        },
        {
          "indexed": false,
          "internalType": "uint256",
          "name": "kittyId",
          "type": "uint256"
        },
        {
          "indexed": false,
          "internalType": "uint256",
          "name": "mumId",
          "type": "uint256"
        },
        {
          "indexed": false,
          "internalType": "uint256",
          "name": "dadId",
          "type": "uint256"
        },
        {
          "indexed": false,
          "internalType": "uint256",
          "name": "genes",
          "type": "uint256"
        }
      ],
      "name": "Birth",
      "type": "event"
    },
    {
      "anonymous": false,
      "inputs": [
        {
          "indexed": false,
          "internalType": "string",
          "name": "TxType",
          "type": "string"
        },
        {
          "indexed": false,
          "internalType": "address",
          "name": "owner",
          "type": "address"
        },
        {
          "indexed": false,
          "internalType": "uint256",
          "name": "tokenId",
          "type": "uint256"
        }
      ],
      "name": "MarketTransaction",
      "type": "event"
    },
    {
      "anonymous": false,
      "inputs": [
        {
          "indexed": false,
          "internalType": "address",
          "name": "from",
          "type": "address"
        },
        {
          "indexed": false,
          "internalType": "address",
          "name": "to",
          "type": "address"
        },
        {
          "indexed": false,
          "internalType": "uint256",
          "name": "tokenId",
          "type": "uint256"
        }
      ],
      "name": "Transfer",
      "type": "event"
    },
    {
      "inputs": [],
      "name": "CREATION_LIMIT_GEN0",
      "outputs": [
        {
          "internalType": "uint256",
          "name": "",
          "type": "uint256"
        }
      ],
      "stateMutability": "view",
      "type": "function"
    },
    {
      "inputs": [
        {
          "internalType": "address",
          "name": "_to",
          "type": "address"
        },
        {
          "internalType": "uint256",
          "name": "_tokenId",
          "type": "uint256"
        }
      ],
      "name": "approve",
      "outputs": [],
      "stateMutability": "nonpayable",
      "type": "function"
    },
    {
      "inputs": [
        {
          "internalType": "address",
          "name": "_owner",
          "type": "address"
        }
      ],
      "name": "balanceOf",
      "outputs": [
        {
          "internalType": "uint256",
          "name": "count",
          "type": "uint256"
        }
      ],
      "stateMutability": "view",
      "type": "function"
    },
    {
      "inputs": [
        {
          "internalType": "uint256",
          "name": "_tokenId",
          "type": "uint256"
        }
      ],
      "name": "buyKitty",
      "outputs": [],
      "stateMutability": "payable",
      "type": "function"
    },
    {
      "inputs": [],
      "name": "gen0Counter",
      "outputs": [
        {
          "internalType": "uint256",
          "name": "",
          "type": "uint256"
        }
      ],
      "stateMutability": "view",
      "type": "function"
    },
    {
      "inputs": [],
      "name": "getAllTokenOnSale",
      "outputs": [
        {
          "internalType": "uint256[]",
          "name": "listOfToken",
          "type": "uint256[]"
        }
      ],
      "stateMutability": "view",
      "type": "function"
    },
    {
      "inputs": [
        {
          "internalType": "uint256",
          "name": "_tokenId",
          "type": "uint256"
        }
      ],
      "name": "getOffer",
      "outputs": [
        {
          "internalType": "address",
          "name": "seller",
          "type": "address"
        },
        {
          "internalType": "uint256",
          "name": "price",
          "type": "uint256"
        },
        {
          "internalType": "uint256",
          "name": "tokenId",
          "type": "uint256"
        }
      ],
      "stateMutability": "view",
      "type": "function"
    },
    {
      "inputs": [
        {
          "internalType": "uint256",
          "name": "",
          "type": "uint256"
        }
      ],
      "name": "kittyIndexToApproved",
      "outputs": [
        {
          "internalType": "address",
          "name": "",
          "type": "address"
        }
      ],
      "stateMutability": "view",
      "type": "function"
    },
    {
      "inputs": [
        {
          "internalType": "uint256",
          "name": "",
          "type": "uint256"
        }
      ],
      "name": "kittyIndexToOwner",
      "outputs": [
        {
          "internalType": "address",
          "name": "",
          "type": "address"
        }
      ],
      "stateMutability": "view",
      "type": "function"
    },
    {
      "inputs": [],
      "name": "name",
      "outputs": [
        {
          "internalType": "string",
          "name": "",
          "type": "string"
        }
      ],
      "stateMutability": "view",
      "type": "function"
    },
    {
      "inputs": [],
      "name": "owner",
      "outputs": [
        {
          "internalType": "address",
          "name": "",
          "type": "address"
        }
      ],
      "stateMutability": "view",
      "type": "function"
    },
    {
      "inputs": [
        {
          "internalType": "uint256",
          "name": "_tokenId",
          "type": "uint256"
        }
      ],
      "name": "ownerOf",
      "outputs": [
        {
          "internalType": "address",
          "name": "owner",
          "type": "address"
        }
      ],
      "stateMutability": "view",
      "type": "function"
    },
    {
      "inputs": [
        {
          "internalType": "uint256",
          "name": "_tokenId",
          "type": "uint256"
        }
      ],
      "name": "removeOffer",
      "outputs": [],
      "stateMutability": "nonpayable",
      "type": "function"
    },
    {
      "inputs": [
        {
          "internalType": "uint256",
          "name": "_price",
          "type": "uint256"
        },
        {
          "internalType": "uint256",
          "name": "_tokenId",
          "type": "uint256"
        }
      ],
      "name": "setOffer",
      "outputs": [],
      "stateMutability": "nonpayable",
      "type": "function"
    },
    {
      "inputs": [
        {
          "internalType": "bytes4",
          "name": "_interfaceID",
          "type": "bytes4"
        }
      ],
      "name": "supportsInterface",
      "outputs": [
        {
          "internalType": "bool",
          "name": "",
          "type": "bool"
        }
      ],
      "stateMutability": "pure",
      "type": "function"
    },
    {
      "inputs": [],
      "name": "symbol",
      "outputs": [
        {
          "internalType": "string",
          "name": "",
          "type": "string"
        }
      ],
      "stateMutability": "view",
      "type": "function"
    },
    {
      "inputs": [
        {
          "internalType": "address",
          "name": "_owner",
          "type": "address"
        }
      ],
      "name": "tokensOfOwner",
      "outputs": [
        {
          "internalType": "uint256[]",
          "name": "ownerTokens",
          "type": "uint256[]"
        }
      ],
      "stateMutability": "view",
      "type": "function"
    },
    {
      "inputs": [],
      "name": "totalSupply",
      "outputs": [
        {
          "internalType": "uint256",
          "name": "",
          "type": "uint256"
        }
      ],
      "stateMutability": "view",
      "type": "function"
    },
    {
      "inputs": [
        {
          "internalType": "address",
          "name": "_to",
          "type": "address"
        },
        {
          "internalType": "uint256",
          "name": "_tokenId",
          "type": "uint256"
        }
      ],
      "name": "transfer",
      "outputs": [],
      "stateMutability": "nonpayable",
      "type": "function"
    },
    {
      "inputs": [
        {
          "internalType": "address",
          "name": "_from",
          "type": "address"
        },
        {
          "internalType": "address",
          "name": "_to",
          "type": "address"
        },
        {
          "internalType": "uint256",
          "name": "_tokenId",
          "type": "uint256"
        }
      ],
      "name": "transferFrom",
      "outputs": [],
      "stateMutability": "nonpayable",
      "type": "function"
    },
    {
      "inputs": [
        {
          "internalType": "address",
          "name": "newOwner",
          "type": "address"
        }
      ],
      "name": "transferOwnership",
      "outputs": [],
      "stateMutability": "nonpayable",
      "type": "function"
    },
    {
      "inputs": [
        {
          "internalType": "uint256",
          "name": "_dadId",
          "type": "uint256"
        },
        {
          "internalType": "uint256",
          "name": "_mumId",
          "type": "uint256"
        }
      ],
      "name": "Breeding",
      "outputs": [],
      "stateMutability": "nonpayable",
      "type": "function"
    },
    {
      "inputs": [
        {
          "internalType": "uint256",
          "name": "_genes",
          "type": "uint256"
        }
      ],
      "name": "createKittyGen0",
      "outputs": [],
      "stateMutability": "nonpayable",
      "type": "function"
    },
    {
      "inputs": [
        {
          "internalType": "uint256",
          "name": "_id",
          "type": "uint256"
        }
      ],
      "name": "getKitty",
      "outputs": [
        {
          "internalType": "uint256",
          "name": "genes",
          "type": "uint256"
        },
        {
          "internalType": "uint256",
          "name": "birthTime",
          "type": "uint256"
        },
        {
          "internalType": "uint256",
          "name": "mumId",
          "type": "uint256"
        },
        {
          "internalType": "uint256",
          "name": "dadId",
          "type": "uint256"
        },
        {
          "internalType": "uint256",
          "name": "generation",
          "type": "uint256"
        }
      ],
      "stateMutability": "view",
      "type": "function"
    }
  ],
  "bytecode": "0x60806040523480156200001157600080fd5b50336000806101000a81548173ffffffffffffffffffffffffffffffffffffffff021916908373ffffffffffffffffffffffffffffffffffffffff1602179055506200006a60008060008060006200007160201b60201c565b50620005c3565b6000806040518060a001604052808581526020014267ffffffffffffffff1681526020018863ffffffff1681526020018763ffffffff1681526020018661ffff16815250905060018190806001815401808255809150506001900390600052602060002090600202016000909190919091506000820151816000015560208201518160010160006101000a81548167ffffffffffffffff021916908367ffffffffffffffff16021790555060408201518160010160086101000a81548163ffffffff021916908363ffffffff160217905550606082015181600101600c6101000a81548163ffffffff021916908363ffffffff16021790555060808201518160010160106101000a81548161ffff021916908361ffff1602179055505050600060018080549050620001a491906200049e565b90508063ffffffff168114620001b957600080fd5b7f0a5311bd2a6608f08a180df2ee7c5946819a649b204b554bb8e39825b2c50ad58482846040015163ffffffff16856060015163ffffffff1686600001516040516200020a95949392919062000441565b60405180910390a162000226600085836200023460201b60201c565b809250505095945050505050565b600360008373ffffffffffffffffffffffffffffffffffffffff1673ffffffffffffffffffffffffffffffffffffffff1681526020019081526020016000206000815480929190620002869062000546565b9190505550816002600083815260200190815260200160002060006101000a81548173ffffffffffffffffffffffffffffffffffffffff021916908373ffffffffffffffffffffffffffffffffffffffff160217905550600073ffffffffffffffffffffffffffffffffffffffff168373ffffffffffffffffffffffffffffffffffffffff1614620003a057600360008473ffffffffffffffffffffffffffffffffffffffff1673ffffffffffffffffffffffffffffffffffffffff1681526020019081526020016000206000815480929190620003649062000517565b91905055506004600082815260200190815260200160002060006101000a81549073ffffffffffffffffffffffffffffffffffffffff02191690555b7fddf252ad1be2c89b69c2b068fc378daa952ba7f163c4a11628f55a4df523b3ef838383604051620003d59392919062000404565b60405180910390a1505050565b620003ed81620004d9565b82525050565b620003fe816200050d565b82525050565b60006060820190506200041b6000830186620003e2565b6200042a6020830185620003e2565b620004396040830184620003f3565b949350505050565b600060a082019050620004586000830188620003e2565b620004676020830187620003f3565b620004766040830186620003f3565b620004856060830185620003f3565b620004946080830184620003f3565b9695505050505050565b6000620004ab826200050d565b9150620004b8836200050d565b925082821015620004ce57620004cd62000594565b5b828203905092915050565b6000620004e682620004ed565b9050919050565b600073ffffffffffffffffffffffffffffffffffffffff82169050919050565b6000819050919050565b600062000524826200050d565b915060008214156200053b576200053a62000594565b5b600182039050919050565b600062000553826200050d565b91507fffffffffffffffffffffffffffffffffffffffffffffffffffffffffffffffff82141562000589576200058862000594565b5b600182019050919050565b7f4e487b7100000000000000000000000000000000000000000000000000000000600052601160045260246000fd5b612cbe80620005d36000396000f3fe60806040526004361061014b5760003560e01c8063941b055b116100b6578063b48343301161006f578063b4834330146104bd578063b921a400146104e8578063d5a776ca14610511578063e98b7f4d1461053a578063ef5e94aa1461057b578063f2fde38b146105a65761014b565b8063941b055b146103be57806395a0f9c7146103e757806395d89b4114610410578063a45f4bfc1461043b578063a9059cbb14610478578063ae5310f6146104a15761014b565b8063481af3d311610108578063481af3d31461027457806349b3709f146102b15780636352211e146102dc57806370a08231146103195780638462151c146103565780638da5cb5b146103935761014b565b806301ffc9a71461015057806306fdde031461018d578063095ea7b3146101b857806318160ddd146101e157806323b872dd1461020c5780634579268a14610235575b600080fd5b34801561015c57600080fd5b5061017760048036038101906101729190612052565b6105cf565b6040516101849190612433565b60405180910390f35b34801561019957600080fd5b506101a26107d3565b6040516101af919061244e565b60405180910390f35b3480156101c457600080fd5b506101df60048036038101906101da9190612012565b61080c565b005b3480156101ed57600080fd5b506101f6610868565b6040516102039190612604565b60405180910390f35b34801561021857600080fd5b50610233600480360381019061022e9190611fbf565b610880565b005b34801561024157600080fd5b5061025c6004803603810190610257919061207f565b6108f0565b60405161026b93929190612387565b60405180910390f35b34801561028057600080fd5b5061029b6004803603810190610296919061207f565b610948565b6040516102a89190612335565b60405180910390f35b3480156102bd57600080fd5b506102c661097b565b6040516102d39190612411565b60405180910390f35b3480156102e857600080fd5b5061030360048036038101906102fe919061207f565b610aca565b6040516103109190612335565b60405180910390f35b34801561032557600080fd5b50610340600480360381019061033b9190611f92565b610b41565b60405161034d9190612604565b60405180910390f35b34801561036257600080fd5b5061037d60048036038101906103789190611f92565b610b8a565b60405161038a9190612411565b60405180910390f35b34801561039f57600080fd5b506103a8610d13565b6040516103b59190612335565b60405180910390f35b3480156103ca57600080fd5b506103e560048036038101906103e091906120ac565b610d37565b005b3480156103f357600080fd5b5061040e6004803603810190610409919061207f565b610f80565b005b34801561041c57600080fd5b506104256111c9565b604051610432919061244e565b60405180910390f35b34801561044757600080fd5b50610462600480360381019061045d919061207f565b611202565b60405161046f9190612335565b60405180910390f35b34801561048457600080fd5b5061049f600480360381019061049a9190612012565b611235565b005b6104bb60048036038101906104b6919061207f565b611291565b005b3480156104c957600080fd5b506104d26114c0565b6040516104df9190612604565b60405180910390f35b3480156104f457600080fd5b5061050f600480360381019061050a91906120ac565b6114c5565b005b34801561051d57600080fd5b506105386004803603810190610533919061207f565b6117c0565b005b34801561054657600080fd5b50610561600480360381019061055c919061207f565b611868565b60405161057295949392919061261f565b60405180910390f35b34801561058757600080fd5b50610590611983565b60405161059d9190612604565b60405180910390f35b3480156105b257600080fd5b506105cd60048036038101906105c89190611f92565b611989565b005b60007f01ffc9a7a5cef8baa21ed3c5c0d7e23accb804b619e9333b597f47a0d84076e27bffffffffffffffffffffffffffffffffffffffffffffffffffffffff1916827bffffffffffffffffffffffffffffffffffffffffffffffffffffffff191614806107cc57507f0560ff44c470b66135b184f41c47840de0a42f8d70ee772ca647210e9eb3c8fd7f8462151cfcc0f257319f78db464014651918f3905b3d4bdab48d3f4618c542c17f23b872dd7302113369cda2901243429419bec145408fa8b352b3dd92b66c680b7fa9059cbb2ab09eb219583f4a59a5d0623ade346d962bcd4e46b11da047c9049b7f095ea7b334ae44009aa867bfb386f5c3b4b443ac6f0ee573fa91c4608fbadfba7f6352211e6566aa027e75ac9dbf2423197fbd9b82b9d981a3ab367d355866aa1c7f70a08231b98ef4ca268c9cc3f6b4590e4bfec28280db06bb5d45e689f2a360be7f18160ddd7f15c72528c2f94fd8dfe3c8d5aa26e2c50c7d81f4bc7bee8d4b79327f95d89b41e2f5f391a79ec54e9d87c79d6e777c63e32c28da95b4e9e4a79250ec7f06fdde0383f15d582d1a74511486c9ddf862a882fb7904b3d9fe9b8b8e58a7961818181818181818187bffffffffffffffffffffffffffffffffffffffffffffffffffffffff1916827bffffffffffffffffffffffffffffffffffffffffffffffffffffffff1916145b9050919050565b6040518060400160405280600b81526020017f4976616e4b69747469657300000000000000000000000000000000000000000081525081565b6108163382611a59565b61081f57600080fd5b6108298183611ac5565b7f8c5be1e5ebec7d5bd14f71427d1e84f3dd0314c0f7b2291e5b200ac8c7c3b92533838360405161085c93929190612350565b60405180910390a15050565b60006001808054905061087b91906127a8565b905090565b600073ffffffffffffffffffffffffffffffffffffffff168273ffffffffffffffffffffffffffffffffffffffff1614156108ba57600080fd5b6108c43382611b1b565b6108cd57600080fd5b6108d78382611a59565b6108e057600080fd5b6108eb838383611b87565b505050565b6000806000806006600086815260200190815260200160002090508060000160009054906101000a900473ffffffffffffffffffffffffffffffffffffffff1681600101548260020154935093509350509193909250565b60046020528060005260406000206000915054906101000a900473ffffffffffffffffffffffffffffffffffffffff1681565b60606000600580549050905060008114156109e257600067ffffffffffffffff8111156109ab576109aa6129f2565b5b6040519080825280602002602001820160405280156109d95781602001602082028036833780820191505090505b50915050610ac7565b60008167ffffffffffffffff8111156109fe576109fd6129f2565b5b604051908082528060200260200182016040528015610a2c5781602001602082028036833780820191505090505b50905060005b82811015610ac057600060058281548110610a5057610a4f6129c3565b5b90600052602060002090600302016001015414610aad5760058181548110610a7b57610a7a6129c3565b5b906000526020600020906003020160020154828281518110610aa057610a9f6129c3565b5b6020026020010181815250505b8080610ab8906128ba565b915050610a32565b8193505050505b90565b60006002600083815260200190815260200160002060009054906101000a900473ffffffffffffffffffffffffffffffffffffffff169050600073ffffffffffffffffffffffffffffffffffffffff168173ffffffffffffffffffffffffffffffffffffffff161415610b3c57600080fd5b919050565b6000600360008373ffffffffffffffffffffffffffffffffffffffff1673ffffffffffffffffffffffffffffffffffffffff168152602001908152602001600020549050919050565b60606000610b9783610b41565b90506000811415610bf457600067ffffffffffffffff811115610bbd57610bbc6129f2565b5b604051908082528060200260200182016040528015610beb5781602001602082028036833780820191505090505b50915050610d0e565b60008167ffffffffffffffff811115610c1057610c0f6129f2565b5b604051908082528060200260200182016040528015610c3e5781602001602082028036833780820191505090505b5090506000610c4b610868565b9050600080600190505b828111610d05578673ffffffffffffffffffffffffffffffffffffffff166002600083815260200190815260200160002060009054906101000a900473ffffffffffffffffffffffffffffffffffffffff1673ffffffffffffffffffffffffffffffffffffffff161415610cf25780848381518110610cd757610cd66129c3565b5b6020026020010181815250508180610cee906128ba565b9250505b8080610cfd906128ba565b915050610c55565b83955050505050505b919050565b60008054906101000a900473ffffffffffffffffffffffffffffffffffffffff1681565b661ff973cafa80008211610d80576040517f08c379a0000000000000000000000000000000000000000000000000000000008152600401610d77906124b0565b60405180910390fd5b6000600660008381526020019081526020016000206001015414610dd9576040517f08c379a0000000000000000000000000000000000000000000000000000000008152600401610dd0906124d0565b60405180910390fd5b610de3308261080c565b600060405180606001604052803373ffffffffffffffffffffffffffffffffffffffff168152602001848152602001838152509050806006600084815260200190815260200160002060008201518160000160006101000a81548173ffffffffffffffffffffffffffffffffffffffff021916908373ffffffffffffffffffffffffffffffffffffffff1602179055506020820151816001015560408201518160020155905050600581908060018154018082558091505060019003906000526020600020906003020160009091909190915060008201518160000160006101000a81548173ffffffffffffffffffffffffffffffffffffffff021916908373ffffffffffffffffffffffffffffffffffffffff1602179055506020820151816001015560408201518160020155505060006001600580549050610f2791906127a8565b90508060076000858152602001908152602001600020819055507fd99e4fad9ad6313b1feb588fa8e605e3a9873172f2024330c35dd2b4041a43863384604051610f729291906124f0565b60405180910390a150505050565b610f8a3382611a59565b610fc9576040517f08c379a0000000000000000000000000000000000000000000000000000000008152600401610fc090612470565b60405180910390fd5b6000600660008381526020019081526020016000206040518060600160405290816000820160009054906101000a900473ffffffffffffffffffffffffffffffffffffffff1673ffffffffffffffffffffffffffffffffffffffff1673ffffffffffffffffffffffffffffffffffffffff1681526020016001820154815260200160028201548152505090503373ffffffffffffffffffffffffffffffffffffffff16816000015173ffffffffffffffffffffffffffffffffffffffff16146110c7576040517f08c379a00000000000000000000000000000000000000000000000000000000081526004016110be90612490565b60405180910390fd5b60056007600084815260200190815260200160002054815481106110ee576110ed6129c3565b5b9060005260206000209060030201600080820160006101000a81549073ffffffffffffffffffffffffffffffffffffffff021916905560018201600090556002820160009055505060066000838152602001908152602001600020600080820160006101000a81549073ffffffffffffffffffffffffffffffffffffffff021916905560018201600090556002820160009055505061118c82611d2e565b7fd99e4fad9ad6313b1feb588fa8e605e3a9873172f2024330c35dd2b4041a438633836040516111bd929190612568565b60405180910390a15050565b6040518060400160405280600281526020017f434b00000000000000000000000000000000000000000000000000000000000081525081565b60026020528060005260406000206000915054906101000a900473ffffffffffffffffffffffffffffffffffffffff1681565b600073ffffffffffffffffffffffffffffffffffffffff168273ffffffffffffffffffffffffffffffffffffffff16141561126f57600080fd5b6112793382611a59565b61128257600080fd5b61128d338383611b87565b5050565b6000600660008381526020019081526020016000206040518060600160405290816000820160009054906101000a900473ffffffffffffffffffffffffffffffffffffffff1673ffffffffffffffffffffffffffffffffffffffff1673ffffffffffffffffffffffffffffffffffffffff16815260200160018201548152602001600282015481525050905080602001513414611363576040517f08c379a000000000000000000000000000000000000000000000000000000000815260040161135a906125c4565b60405180910390fd5b600560076000848152602001908152602001600020548154811061138a576113896129c3565b5b9060005260206000209060030201600080820160006101000a81549073ffffffffffffffffffffffffffffffffffffffff021916905560018201600090556002820160009055505060066000838152602001908152602001600020600080820160006101000a81549073ffffffffffffffffffffffffffffffffffffffff02191690556001820160009055600282016000905550506114298233611ac5565b61143881600001513384610880565b806000015173ffffffffffffffffffffffffffffffffffffffff166108fc349081150290604051600060405180830381858888f19350505050158015611482573d6000803e3d6000fd5b507fd99e4fad9ad6313b1feb588fa8e605e3a9873172f2024330c35dd2b4041a438633836040516114b492919061252c565b60405180910390a15050565b600a81565b6114cf3383611a59565b61150e576040517f08c379a000000000000000000000000000000000000000000000000000000000815260040161150590612470565b60405180910390fd5b6115183382611a59565b611557576040517f08c379a000000000000000000000000000000000000000000000000000000000815260040161154e90612470565b60405180910390fd5b8181141561159a576040517f08c379a0000000000000000000000000000000000000000000000000000000008152600401611591906125a4565b60405180910390fd5b6000806115a684611868565b945050505091506000806115b985611868565b9450505050915060006115ca611f30565b600060079050600060ff426115df9190612903565b90506000600190505b6080811161169c576000818360ff16161461162e5760648761160a9190612903565b60ff168484600881106116205761161f6129c3565b5b60200201818152505061165b565b60648961163b9190612903565b60ff16848460088110611651576116506129c3565b5b6020020181815250505b606487611668919061271d565b9650606489611677919061271d565b985060018361168691906127a8565b9250600281611695919061274e565b90506115e8565b60006007836116ab9190612934565b90506063836116ba9190612934565b60ff16858260ff16600881106116d3576116d26129c3565b5b602002018181525050600091505b600882101561173a578482600881106116fd576116fc6129c3565b5b60200201518661170d91906126c7565b95506007821461172757606486611724919061274e565b95505b8180611732906128ba565b9250506116e1565b6000878a10156117675760018861175191906126c7565b9050600281611760919061271d565b90506117a3565b878a11156117925760018a61177c91906126c7565b905060028161178b919061271d565b90506117a2565b60018861179f91906126c7565b90505b5b6117b08c8e838a33611d7a565b5050505050505050505050505050565b60008054906101000a900473ffffffffffffffffffffffffffffffffffffffff1673ffffffffffffffffffffffffffffffffffffffff163373ffffffffffffffffffffffffffffffffffffffff161461181857600080fd5b600a6008541061182757600080fd5b6008600081548092919061183a906128ba565b9190505550600061185060008060008533611d7a565b90506118646702c68af0bb14000082610d37565b5050565b60008060008060008060018781548110611885576118846129c3565b5b9060005260206000209060020201905060008160010160009054906101000a900467ffffffffffffffff1667ffffffffffffffff16116118fa576040517f08c379a00000000000000000000000000000000000000000000000000000000081526004016118f1906125e4565b60405180910390fd5b8060010160009054906101000a900467ffffffffffffffff1667ffffffffffffffff1694508060010160089054906101000a900463ffffffff1663ffffffff16935080600101600c9054906101000a900463ffffffff1663ffffffff1692508060010160109054906101000a900461ffff1661ffff169150806000015495505091939590929450565b60085481565b60008054906101000a900473ffffffffffffffffffffffffffffffffffffffff1673ffffffffffffffffffffffffffffffffffffffff163373ffffffffffffffffffffffffffffffffffffffff16146119e157600080fd5b600073ffffffffffffffffffffffffffffffffffffffff168173ffffffffffffffffffffffffffffffffffffffff1614611a5657806000806101000a81548173ffffffffffffffffffffffffffffffffffffffff021916908373ffffffffffffffffffffffffffffffffffffffff1602179055505b50565b60008273ffffffffffffffffffffffffffffffffffffffff166002600084815260200190815260200160002060009054906101000a900473ffffffffffffffffffffffffffffffffffffffff1673ffffffffffffffffffffffffffffffffffffffff1614905092915050565b806004600084815260200190815260200160002060006101000a81548173ffffffffffffffffffffffffffffffffffffffff021916908373ffffffffffffffffffffffffffffffffffffffff1602179055505050565b60008273ffffffffffffffffffffffffffffffffffffffff166004600084815260200190815260200160002060009054906101000a900473ffffffffffffffffffffffffffffffffffffffff1673ffffffffffffffffffffffffffffffffffffffff1614905092915050565b600360008373ffffffffffffffffffffffffffffffffffffffff1673ffffffffffffffffffffffffffffffffffffffff1681526020019081526020016000206000815480929190611bd7906128ba565b9190505550816002600083815260200190815260200160002060006101000a81548173ffffffffffffffffffffffffffffffffffffffff021916908373ffffffffffffffffffffffffffffffffffffffff160217905550600073ffffffffffffffffffffffffffffffffffffffff168373ffffffffffffffffffffffffffffffffffffffff1614611cee57600360008473ffffffffffffffffffffffffffffffffffffffff1673ffffffffffffffffffffffffffffffffffffffff1681526020019081526020016000206000815480929190611cb290612890565b91905055506004600082815260200190815260200160002060006101000a81549073ffffffffffffffffffffffffffffffffffffffff02191690555b7fddf252ad1be2c89b69c2b068fc378daa952ba7f163c4a11628f55a4df523b3ef838383604051611d2193929190612350565b60405180910390a1505050565b611d383382611a59565b611d4157600080fd5b6004600082815260200190815260200160002060006101000a81549073ffffffffffffffffffffffffffffffffffffffff021916905550565b6000806040518060a001604052808581526020014267ffffffffffffffff1681526020018863ffffffff1681526020018763ffffffff1681526020018661ffff16815250905060018190806001815401808255809150506001900390600052602060002090600202016000909190919091506000820151816000015560208201518160010160006101000a81548167ffffffffffffffff021916908367ffffffffffffffff16021790555060408201518160010160086101000a81548163ffffffff021916908363ffffffff160217905550606082015181600101600c6101000a81548163ffffffff021916908363ffffffff16021790555060808201518160010160106101000a81548161ffff021916908361ffff1602179055505050600060018080549050611eab91906127a8565b90508063ffffffff168114611ebf57600080fd5b7f0a5311bd2a6608f08a180df2ee7c5946819a649b204b554bb8e39825b2c50ad58482846040015163ffffffff16856060015163ffffffff168660000151604051611f0e9594939291906123be565b60405180910390a1611f2260008583611b87565b809250505095945050505050565b604051806101000160405280600890602082028036833780820191505090505090565b600081359050611f6281612c43565b92915050565b600081359050611f7781612c5a565b92915050565b600081359050611f8c81612c71565b92915050565b600060208284031215611fa857611fa7612a21565b5b6000611fb684828501611f53565b91505092915050565b600080600060608486031215611fd857611fd7612a21565b5b6000611fe686828701611f53565b9350506020611ff786828701611f53565b925050604061200886828701611f7d565b9150509250925092565b6000806040838503121561202957612028612a21565b5b600061203785828601611f53565b925050602061204885828601611f7d565b9150509250929050565b60006020828403121561206857612067612a21565b5b600061207684828501611f68565b91505092915050565b60006020828403121561209557612094612a21565b5b60006120a384828501611f7d565b91505092915050565b600080604083850312156120c3576120c2612a21565b5b60006120d185828601611f7d565b92505060206120e285828601611f7d565b9150509250929050565b60006120f88383612317565b60208301905092915050565b61210d816127dc565b82525050565b600061211e82612682565b61212881856126a5565b935061213383612672565b8060005b8381101561216457815161214b88826120ec565b975061215683612698565b925050600181019050612137565b5085935050505092915050565b61217a816127ee565b82525050565b600061218b8261268d565b61219581856126b6565b93506121a581856020860161285d565b6121ae81612a26565b840191505092915050565b60006121c6601e836126b6565b91506121d182612a37565b602082019050919050565b60006121e96038836126b6565b91506121f482612a60565b604082019050919050565b600061220c6025836126b6565b915061221782612aaf565b604082019050919050565b600061222f6025836126b6565b915061223a82612afe565b604082019050919050565b6000612252600c836126b6565b915061225d82612b4d565b602082019050919050565b60006122756003836126b6565b915061228082612b76565b602082019050919050565b6000612298600c836126b6565b91506122a382612b9f565b602082019050919050565b60006122bb601f836126b6565b91506122c682612bc8565b602082019050919050565b60006122de6018836126b6565b91506122e982612bf1565b602082019050919050565b60006123016017836126b6565b915061230c82612c1a565b602082019050919050565b61232081612846565b82525050565b61232f81612846565b82525050565b600060208201905061234a6000830184612104565b92915050565b60006060820190506123656000830186612104565b6123726020830185612104565b61237f6040830184612326565b949350505050565b600060608201905061239c6000830186612104565b6123a96020830185612326565b6123b66040830184612326565b949350505050565b600060a0820190506123d36000830188612104565b6123e06020830187612326565b6123ed6040830186612326565b6123fa6060830185612326565b6124076080830184612326565b9695505050505050565b6000602082019050818103600083015261242b8184612113565b905092915050565b60006020820190506124486000830184612171565b92915050565b600060208201905081810360008301526124688184612180565b905092915050565b60006020820190508181036000830152612489816121b9565b9050919050565b600060208201905081810360008301526124a9816121dc565b9050919050565b600060208201905081810360008301526124c9816121ff565b9050919050565b600060208201905081810360008301526124e981612222565b9050919050565b6000606082019050818103600083015261250981612245565b90506125186020830185612104565b6125256040830184612326565b9392505050565b6000606082019050818103600083015261254581612268565b90506125546020830185612104565b6125616040830184612326565b9392505050565b600060608201905081810360008301526125818161228b565b90506125906020830185612104565b61259d6040830184612326565b9392505050565b600060208201905081810360008301526125bd816122ae565b9050919050565b600060208201905081810360008301526125dd816122d1565b9050919050565b600060208201905081810360008301526125fd816122f4565b9050919050565b60006020820190506126196000830184612326565b92915050565b600060a0820190506126346000830188612326565b6126416020830187612326565b61264e6040830186612326565b61265b6060830185612326565b6126686080830184612326565b9695505050505050565b6000819050602082019050919050565b600081519050919050565b600081519050919050565b6000602082019050919050565b600082825260208201905092915050565b600082825260208201905092915050565b60006126d282612846565b91506126dd83612846565b9250827fffffffffffffffffffffffffffffffffffffffffffffffffffffffffffffffff0382111561271257612711612965565b5b828201905092915050565b600061272882612846565b915061273383612846565b92508261274357612742612994565b5b828204905092915050565b600061275982612846565b915061276483612846565b9250817fffffffffffffffffffffffffffffffffffffffffffffffffffffffffffffffff048311821515161561279d5761279c612965565b5b828202905092915050565b60006127b382612846565b91506127be83612846565b9250828210156127d1576127d0612965565b5b828203905092915050565b60006127e782612826565b9050919050565b60008115159050919050565b60007fffffffff0000000000000000000000000000000000000000000000000000000082169050919050565b600073ffffffffffffffffffffffffffffffffffffffff82169050919050565b6000819050919050565b600060ff82169050919050565b60005b8381101561287b578082015181840152602081019050612860565b8381111561288a576000848401525b50505050565b600061289b82612846565b915060008214156128af576128ae612965565b5b600182039050919050565b60006128c582612846565b91507fffffffffffffffffffffffffffffffffffffffffffffffffffffffffffffffff8214156128f8576128f7612965565b5b600182019050919050565b600061290e82612846565b915061291983612846565b92508261292957612928612994565b5b828206905092915050565b600061293f82612850565b915061294a83612850565b92508261295a57612959612994565b5b828206905092915050565b7f4e487b7100000000000000000000000000000000000000000000000000000000600052601160045260246000fd5b7f4e487b7100000000000000000000000000000000000000000000000000000000600052601260045260246000fd5b7f4e487b7100000000000000000000000000000000000000000000000000000000600052603260045260246000fd5b7f4e487b7100000000000000000000000000000000000000000000000000000000600052604160045260246000fd5b600080fd5b6000601f19601f8301169050919050565b7f546865207573657220646f65736e2774206f776e2074686520746f6b656e0000600082015250565b7f596f752073686f756c64206f776e20746865206b6974747920746f206265206160008201527f626c6520746f2072656d6f76652074686973206f666665720000000000000000602082015250565b7f4361742070726963652073686f756c642062652067726561746572207468616e60008201527f20302e3031000000000000000000000000000000000000000000000000000000602082015250565b7f596f752063616e27742073656c6c207477696365207468652073616d65206f6660008201527f6665727320000000000000000000000000000000000000000000000000000000602082015250565b7f437265617465206f666665720000000000000000000000000000000000000000600082015250565b7f4275790000000000000000000000000000000000000000000000000000000000600082015250565b7f52656d6f7665206f666665720000000000000000000000000000000000000000600082015250565b7f546865206361742063616e277420726570726f647563652068696d73656c6600600082015250565b7f546865207072696365206973206e6f7420636f72726563740000000000000000600082015250565b7f746865206b6974747920646f65736e2774206578697374000000000000000000600082015250565b612c4c816127dc565b8114612c5757600080fd5b50565b612c63816127fa565b8114612c6e57600080fd5b50565b612c7a81612846565b8114612c8557600080fd5b5056fea2646970667358221220db9b062da353a3b74b27f8361da8f15ab37c73d024879d0963991faa41e8a2f264736f6c63430008070033",
  "immutableReferences": {},
  "source": "// SPDX-License-Identifier: MIT\r\nimport \"./utils/Ownable.sol\";\r\nimport \"./KittyMarketPlace.sol\";\r\n\r\npragma solidity ^0.8.0;\r\n\r\ncontract KittyCore is Ownable, KittyMarketPlace {\r\n\r\n  uint256 public constant CREATION_LIMIT_GEN0 = 10;\r\n\r\n  // Counts the number of cats the contract owner has created.\r\n  uint256 public gen0Counter;\r\n\r\n  constructor() {\r\n    // We are creating the first kitty at index 0  \r\n    _createKitty(0, 0, 0, uint256(0), address(0));\r\n  }\r\n\r\n/*\r\n*       we get a \r\n*\r\n*       Basic binary operation\r\n*\r\n*       >>> '{0:08b}'.format(255 & 1)\r\n*       '00000001'\r\n*       >>> '{0:08b}'.format(255 & 2)\r\n*       '00000010'\r\n*       >>> '{0:08b}'.format(255 & 4)\r\n*       '00000100'\r\n*       >>> '{0:08b}'.format(255 & 8)\r\n*       '00001000'\r\n*       >>> '{0:08b}'.format(255 & 16)\r\n*       '00010000'\r\n*       >>> '{0:08b}'.format(255 & 32)\r\n*       '00100000'\r\n*       >>> '{0:08b}'.format(255 & 64)\r\n*       '01000000'\r\n*       >>> '{0:08b}'.format(255 & 128)\r\n*       '10000000'\r\n*\r\n*       So we use a mask on our random number to check if we will use the mumID or the dadId\r\n*\r\n*       For example 205 is 11001101 in binary So\r\n*       mum - mum - dad -dad -mum - mum - dad - mum\r\n*\r\n*/\r\n  function Breeding(uint256 _dadId, uint256 _mumId) public {\r\n      require(_owns(msg.sender, _dadId), \"The user doesn't own the token\");\r\n      require(_owns(msg.sender, _mumId), \"The user doesn't own the token\");\r\n\r\n      require(_mumId != _dadId, \"The cat can't reproduce himself\");\r\n\r\n      ( uint256 Dadgenes,,,,uint256 DadGeneration ) = getKitty(_dadId);\r\n\r\n      ( uint256 Mumgenes,,,,uint256 MumGeneration ) = getKitty(_mumId);\r\n\r\n      uint256 geneKid;\r\n      uint256 [8] memory geneArray;\r\n      uint256 index = 7;\r\n      uint8 random = uint8(block.timestamp % 255);\r\n      uint256 i = 0;\r\n      \r\n      for(i = 1; i <= 128; i=i*2){\r\n\r\n          /* We are */\r\n          if(random & i != 0){\r\n              geneArray[index] = uint8(Mumgenes % 100);\r\n          } else {\r\n              geneArray[index] = uint8(Dadgenes % 100);\r\n          }\r\n          Mumgenes /= 100;\r\n          Dadgenes /= 100;\r\n        index -= 1;\r\n      }\r\n     \r\n      /* Add a random parameter in a random place */\r\n      uint8 newGeneIndex =  random % 7;\r\n      geneArray[newGeneIndex] = random % 99;\r\n\r\n      /* We reverse the DNa in the right order */\r\n      for (i = 0 ; i < 8; i++ ){\r\n        geneKid += geneArray[i];\r\n        if(i != 7){\r\n            geneKid *= 100;\r\n        }\r\n      }\r\n\r\n      uint256 kidGen = 0;\r\n      if (DadGeneration < MumGeneration){\r\n        kidGen = MumGeneration + 1;\r\n        kidGen /= 2;\r\n      } else if (DadGeneration > MumGeneration){\r\n        kidGen = DadGeneration + 1;\r\n        kidGen /= 2;\r\n      } else{\r\n        kidGen = MumGeneration + 1;\r\n      }\r\n\r\n      _createKitty(_mumId, _dadId, kidGen, geneKid, msg.sender);\r\n  }\r\n\r\n\r\n  function createKittyGen0(uint256 _genes) public onlyOwner {\r\n    require(gen0Counter < CREATION_LIMIT_GEN0);\r\n\r\n    gen0Counter++;\r\n\r\n    // Gen0 have no owners they are owned by the contract\r\n    uint256 tokenId = _createKitty(0, 0, 0, _genes, msg.sender);\r\n    setOffer(0.2 ether, tokenId);\r\n  }\r\n\r\n  function getKitty(uint256 _id)\r\n    public\r\n    view\r\n    returns (\r\n    uint256 genes,\r\n    uint256 birthTime,\r\n    uint256 mumId,\r\n    uint256 dadId,\r\n    uint256 generation\r\n  ) {\r\n    Kitty storage kitty = kitties[_id];\r\n\r\n    require(kitty.birthTime > 0, \"the kitty doesn't exist\");\r\n\r\n    birthTime = uint256(kitty.birthTime);\r\n    mumId = uint256(kitty.mumId);\r\n    dadId = uint256(kitty.dadId);\r\n    generation = uint256(kitty.generation);\r\n    genes = kitty.genes;\r\n  }\r\n}",
  "sourcePath": "C:\\Users\\benX\\Documents\\ethereum_course_advanced\\myCryptoKitties_master\\contracts\\kittyCore.sol",
  "compiler": {
    "name": "solc",
    "version": "0.8.7+commit.e28d00a7.Emscripten.clang"
  },
  "schemaVersion": "3.4.2",
  "updatedAt": "2021-08-16T21:27:03.029Z",
  "devdoc": {
    "kind": "dev",
    "methods": {
      "transferOwnership(address)": {
        "details": "Allows the current owner to transfer control of the contract to a newOwner.",
        "params": {
          "newOwner": "The address to transfer ownership to."
        }
      }
    },
    "version": 1
  },
  "userdoc": {
    "kind": "user",
    "methods": {},
    "version": 1
  }
}