{
  "contractName": "KittyMarketPlace",
  "abi": [
    {
      "anonymous": false,
      "inputs": [
        {
          "indexed": true,
          "internalType": "address",
          "name": "owner",
          "type": "address"
        },
        {
          "indexed": true,
          "internalType": "address",
          "name": "approved",
          "type": "address"
        },
        {
          "indexed": true,
          "internalType": "uint256",
          "name": "tokenId",
          "type": "uint256"
        }
      ],
      "name": "Approval",
      "type": "event"
    },
    {
      "anonymous": false,
      "inputs": [
        {
          "indexed": true,
          "internalType": "address",
          "name": "owner",
          "type": "address"
        },
        {
          "indexed": true,
          "internalType": "address",
          "name": "operator",
          "type": "address"
        },
        {
          "indexed": false,
          "internalType": "bool",
          "name": "approved",
          "type": "bool"
        }
      ],
      "name": "ApprovalForAll",
      "type": "event"
    },
    {
      "anonymous": false,
      "inputs": [
        {
          "indexed": false,
          "internalType": "address",
          "name": "owner",
          "type": "address"
        },
        {
          "indexed": false,
          "internalType": "uint256",
          "name": "newKittenId",
          "type": "uint256"
        },
        {
          "indexed": false,
          "internalType": "uint256",
          "name": "mumId",
          "type": "uint256"
        },
        {
          "indexed": false,
          "internalType": "uint256",
          "name": "dadId",
          "type": "uint256"
        },
        {
          "indexed": false,
          "internalType": "uint256",
          "name": "genes",
          "type": "uint256"
        }
      ],
      "name": "Birth",
      "type": "event"
    },
    {
      "anonymous": false,
      "inputs": [
        {
          "indexed": false,
          "internalType": "string",
          "name": "TxType",
          "type": "string"
        },
        {
          "indexed": false,
          "internalType": "address",
          "name": "owner",
          "type": "address"
        },
        {
          "indexed": false,
          "internalType": "uint256",
          "name": "tokenId",
          "type": "uint256"
        }
      ],
      "name": "MarketTransaction",
      "type": "event"
    },
    {
      "anonymous": false,
      "inputs": [
        {
          "indexed": true,
          "internalType": "address",
          "name": "previousOwner",
          "type": "address"
        },
        {
          "indexed": true,
          "internalType": "address",
          "name": "newOwner",
          "type": "address"
        }
      ],
      "name": "OwnershipTransferred",
      "type": "event"
    },
    {
      "anonymous": false,
      "inputs": [
        {
          "indexed": true,
          "internalType": "address",
          "name": "from",
          "type": "address"
        },
        {
          "indexed": true,
          "internalType": "address",
          "name": "to",
          "type": "address"
        },
        {
          "indexed": true,
          "internalType": "uint256",
          "name": "tokenId",
          "type": "uint256"
        }
      ],
      "name": "Transfer",
      "type": "event"
    },
    {
      "inputs": [],
      "name": "CREATION_LIMIT_GEN0",
      "outputs": [
        {
          "internalType": "uint256",
          "name": "",
          "type": "uint256"
        }
      ],
      "stateMutability": "view",
      "type": "function"
    },
    {
      "inputs": [
        {
          "internalType": "uint256",
          "name": "_mumId",
          "type": "uint256"
        },
        {
          "internalType": "uint256",
          "name": "_dadId",
          "type": "uint256"
        },
        {
          "internalType": "uint256",
          "name": "_generation",
          "type": "uint256"
        },
        {
          "internalType": "uint256",
          "name": "_genes",
          "type": "uint256"
        },
        {
          "internalType": "address",
          "name": "owner",
          "type": "address"
        }
      ],
      "name": "_createKitty",
      "outputs": [
        {
          "internalType": "uint256",
          "name": "",
          "type": "uint256"
        }
      ],
      "stateMutability": "nonpayable",
      "type": "function"
    },
    {
      "inputs": [
        {
          "internalType": "address",
          "name": "_approved",
          "type": "address"
        },
        {
          "internalType": "uint256",
          "name": "_tokenId",
          "type": "uint256"
        }
      ],
      "name": "approve",
      "outputs": [],
      "stateMutability": "nonpayable",
      "type": "function"
    },
    {
      "inputs": [
        {
          "internalType": "address",
          "name": "owner",
          "type": "address"
        }
      ],
      "name": "balanceOf",
      "outputs": [
        {
          "internalType": "uint256",
          "name": "balance",
          "type": "uint256"
        }
      ],
      "stateMutability": "view",
      "type": "function"
    },
    {
      "inputs": [
        {
          "internalType": "uint256",
          "name": "_dadId",
          "type": "uint256"
        },
        {
          "internalType": "uint256",
          "name": "_mumId",
          "type": "uint256"
        }
      ],
      "name": "breed",
      "outputs": [
        {
          "internalType": "uint256",
          "name": "",
          "type": "uint256"
        }
      ],
      "stateMutability": "nonpayable",
      "type": "function"
    },
    {
      "inputs": [
        {
          "internalType": "uint256",
          "name": "_genes",
          "type": "uint256"
        }
      ],
      "name": "createKittyGen0",
      "outputs": [
        {
          "internalType": "uint256",
          "name": "",
          "type": "uint256"
        }
      ],
      "stateMutability": "nonpayable",
      "type": "function"
    },
    {
      "inputs": [],
      "name": "gen0Counter",
      "outputs": [
        {
          "internalType": "uint256",
          "name": "",
          "type": "uint256"
        }
      ],
      "stateMutability": "view",
      "type": "function"
    },
    {
      "inputs": [
        {
          "internalType": "address",
          "name": "owner",
          "type": "address"
        }
      ],
      "name": "getAllCatsFor",
      "outputs": [
        {
          "internalType": "uint256[]",
          "name": "",
          "type": "uint256[]"
        }
      ],
      "stateMutability": "view",
      "type": "function"
    },
    {
      "inputs": [
        {
          "internalType": "address",
          "name": "user",
          "type": "address"
        }
      ],
      "name": "getAllTokensForUser",
      "outputs": [
        {
          "internalType": "uint256[]",
          "name": "",
          "type": "uint256[]"
        }
      ],
      "stateMutability": "view",
      "type": "function"
    },
    {
      "inputs": [
        {
          "internalType": "uint256",
          "name": "_tokenId",
          "type": "uint256"
        }
      ],
      "name": "getApproved",
      "outputs": [
        {
          "internalType": "address",
          "name": "",
          "type": "address"
        }
      ],
      "stateMutability": "view",
      "type": "function"
    },
    {
      "inputs": [
        {
          "internalType": "uint256",
          "name": "_id",
          "type": "uint256"
        }
      ],
      "name": "getKittyFilip",
      "outputs": [
        {
          "internalType": "uint256",
          "name": "birthTime",
          "type": "uint256"
        },
        {
          "internalType": "uint256",
          "name": "mumId",
          "type": "uint256"
        },
        {
          "internalType": "uint256",
          "name": "dadId",
          "type": "uint256"
        },
        {
          "internalType": "uint256",
          "name": "generation",
          "type": "uint256"
        },
        {
          "internalType": "uint256",
          "name": "genes",
          "type": "uint256"
        }
      ],
      "stateMutability": "view",
      "type": "function"
    },
    {
      "inputs": [
        {
          "internalType": "address",
          "name": "_owner",
          "type": "address"
        },
        {
          "internalType": "address",
          "name": "_operator",
          "type": "address"
        }
      ],
      "name": "isApprovedForAll",
      "outputs": [
        {
          "internalType": "bool",
          "name": "",
          "type": "bool"
        }
      ],
      "stateMutability": "view",
      "type": "function"
    },
    {
      "inputs": [
        {
          "internalType": "uint256",
          "name": "",
          "type": "uint256"
        }
      ],
      "name": "kittyIndexToApproved",
      "outputs": [
        {
          "internalType": "address",
          "name": "",
          "type": "address"
        }
      ],
      "stateMutability": "view",
      "type": "function"
    },
    {
      "inputs": [
        {
          "internalType": "uint256",
          "name": "",
          "type": "uint256"
        }
      ],
      "name": "kittyIndexToOwner",
      "outputs": [
        {
          "internalType": "address",
          "name": "",
          "type": "address"
        }
      ],
      "stateMutability": "view",
      "type": "function"
    },
    {
      "inputs": [
        {
          "internalType": "uint256",
          "name": "tokenId",
          "type": "uint256"
        }
      ],
      "name": "myGetKitty",
      "outputs": [
        {
          "internalType": "uint256",
          "name": "birthTime",
          "type": "uint256"
        },
        {
          "internalType": "uint256",
          "name": "mumId",
          "type": "uint256"
        },
        {
          "internalType": "uint256",
          "name": "dadId",
          "type": "uint256"
        },
        {
          "internalType": "uint256",
          "name": "generation",
          "type": "uint256"
        },
        {
          "internalType": "uint256",
          "name": "genes",
          "type": "uint256"
        }
      ],
      "stateMutability": "view",
      "type": "function"
    },
    {
      "inputs": [],
      "name": "name",
      "outputs": [
        {
          "internalType": "string",
          "name": "tokenName",
          "type": "string"
        }
      ],
      "stateMutability": "pure",
      "type": "function"
    },
    {
      "inputs": [],
      "name": "owner",
      "outputs": [
        {
          "internalType": "address",
          "name": "",
          "type": "address"
        }
      ],
      "stateMutability": "view",
      "type": "function"
    },
    {
      "inputs": [
        {
          "internalType": "uint256",
          "name": "tokenId",
          "type": "uint256"
        }
      ],
      "name": "ownerOf",
      "outputs": [
        {
          "internalType": "address",
          "name": "owner",
          "type": "address"
        }
      ],
      "stateMutability": "view",
      "type": "function"
    },
    {
      "inputs": [],
      "name": "renounceOwnership",
      "outputs": [],
      "stateMutability": "nonpayable",
      "type": "function"
    },
    {
      "inputs": [
        {
          "internalType": "address",
          "name": "_from",
          "type": "address"
        },
        {
          "internalType": "address",
          "name": "_to",
          "type": "address"
        },
        {
          "internalType": "uint256",
          "name": "_tokenId",
          "type": "uint256"
        }
      ],
      "name": "safeTransferFrom",
      "outputs": [],
      "stateMutability": "nonpayable",
      "type": "function"
    },
    {
      "inputs": [
        {
          "internalType": "address",
          "name": "_from",
          "type": "address"
        },
        {
          "internalType": "address",
          "name": "_to",
          "type": "address"
        },
        {
          "internalType": "uint256",
          "name": "_tokenId",
          "type": "uint256"
        },
        {
          "internalType": "bytes",
          "name": "data",
          "type": "bytes"
        }
      ],
      "name": "safeTransferFrom",
      "outputs": [],
      "stateMutability": "nonpayable",
      "type": "function"
    },
    {
      "inputs": [
        {
          "internalType": "address",
          "name": "_operator",
          "type": "address"
        },
        {
          "internalType": "bool",
          "name": "_approved",
          "type": "bool"
        }
      ],
      "name": "setApprovalForAll",
      "outputs": [],
      "stateMutability": "nonpayable",
      "type": "function"
    },
    {
      "inputs": [
        {
          "internalType": "bytes4",
          "name": "_interfaceId",
          "type": "bytes4"
        }
      ],
      "name": "supportsInterface",
      "outputs": [
        {
          "internalType": "bool",
          "name": "",
          "type": "bool"
        }
      ],
      "stateMutability": "pure",
      "type": "function"
    },
    {
      "inputs": [],
      "name": "symbol",
      "outputs": [
        {
          "internalType": "string",
          "name": "tokenSymbol",
          "type": "string"
        }
      ],
      "stateMutability": "pure",
      "type": "function"
    },
    {
      "inputs": [
        {
          "internalType": "address",
          "name": "_owner",
          "type": "address"
        }
      ],
      "name": "tokensOfOwner",
      "outputs": [
        {
          "internalType": "uint256[]",
          "name": "ownerTokens",
          "type": "uint256[]"
        }
      ],
      "stateMutability": "view",
      "type": "function"
    },
    {
      "inputs": [],
      "name": "totalSupply",
      "outputs": [
        {
          "internalType": "uint256",
          "name": "total",
          "type": "uint256"
        }
      ],
      "stateMutability": "view",
      "type": "function"
    },
    {
      "inputs": [
        {
          "internalType": "address",
          "name": "to",
          "type": "address"
        },
        {
          "internalType": "uint256",
          "name": "tokenId",
          "type": "uint256"
        }
      ],
      "name": "transfer",
      "outputs": [],
      "stateMutability": "nonpayable",
      "type": "function"
    },
    {
      "inputs": [
        {
          "internalType": "address",
          "name": "_from",
          "type": "address"
        },
        {
          "internalType": "address",
          "name": "_to",
          "type": "address"
        },
        {
          "internalType": "uint256",
          "name": "_tokenId",
          "type": "uint256"
        }
      ],
      "name": "transferFrom",
      "outputs": [],
      "stateMutability": "nonpayable",
      "type": "function"
    },
    {
      "inputs": [
        {
          "internalType": "address",
          "name": "newOwner",
          "type": "address"
        }
      ],
      "name": "transferOwnership",
      "outputs": [],
      "stateMutability": "nonpayable",
      "type": "function"
    },
    {
      "inputs": [
        {
          "internalType": "uint256",
          "name": "_tokenId",
          "type": "uint256"
        }
      ],
      "name": "getOffer",
      "outputs": [
        {
          "internalType": "address",
          "name": "seller",
          "type": "address"
        },
        {
          "internalType": "uint256",
          "name": "price",
          "type": "uint256"
        },
        {
          "internalType": "uint256",
          "name": "tokenId",
          "type": "uint256"
        }
      ],
      "stateMutability": "view",
      "type": "function"
    },
    {
      "inputs": [],
      "name": "getAllTokenOnSale",
      "outputs": [
        {
          "internalType": "uint256[]",
          "name": "listOfOffers",
          "type": "uint256[]"
        }
      ],
      "stateMutability": "view",
      "type": "function"
    },
    {
      "inputs": [
        {
          "internalType": "uint256",
          "name": "_price",
          "type": "uint256"
        },
        {
          "internalType": "uint256",
          "name": "_tokenId",
          "type": "uint256"
        }
      ],
      "name": "setOffer",
      "outputs": [],
      "stateMutability": "nonpayable",
      "type": "function"
    },
    {
      "inputs": [
        {
          "internalType": "uint256",
          "name": "_tokenId",
          "type": "uint256"
        }
      ],
      "name": "removeOffer",
      "outputs": [],
      "stateMutability": "nonpayable",
      "type": "function"
    },
    {
      "inputs": [
        {
          "internalType": "uint256",
          "name": "_tokenId",
          "type": "uint256"
        }
      ],
      "name": "buyKitty",
      "outputs": [],
      "stateMutability": "payable",
      "type": "function"
    }
  ],
  "bytecode": "0x608060405260006008553480156200001657600080fd5b50620000376200002b6200003d60201b60201c565b6200004560201b60201c565b62000109565b600033905090565b60008060009054906101000a900473ffffffffffffffffffffffffffffffffffffffff169050816000806101000a81548173ffffffffffffffffffffffffffffffffffffffff021916908373ffffffffffffffffffffffffffffffffffffffff1602179055508173ffffffffffffffffffffffffffffffffffffffff168173ffffffffffffffffffffffffffffffffffffffff167f8be0079c531659141344cd1fd0a4f28419497f9722a3daafe3b4186f6b6457e060405160405180910390a35050565b61441c80620001196000396000f3fe6080604052600436106101f95760003560e01c80638462151c1161010d578063a9059cbb116100a0578063d5a776ca1161006f578063d5a776ca1461079e578063d9ecad7b146107db578063e985e9c514610818578063ef5e94aa14610855578063f2fde38b14610880576101f9565b8063a9059cbb14610705578063ae5310f61461072e578063b48343301461074a578063b88d4fde14610775576101f9565b806395d89b41116100dc57806395d89b4114610633578063a090cb771461065e578063a22cb4651461069f578063a45f4bfc146106c8576101f9565b80638462151c146105795780638da5cb5b146105b6578063941b055b146105e157806395a0f9c71461060a576101f9565b806342842e0e116101905780635a64aafa1161015f5780635a64aafa1461046e5780636352211e146104ab57806370a08231146104e8578063715018a61461052557806382de8fe91461053c576101f9565b806342842e0e1461039e5780634579268a146103c7578063481af3d31461040657806349b3709f14610443576101f9565b80630dd1c2e8116101cc5780630dd1c2e8146102cc57806318160ddd1461030d57806323b872dd14610338578063338a63a414610361576101f9565b806301ffc9a7146101fe57806306fdde031461023b578063081812fc14610266578063095ea7b3146102a3575b600080fd5b34801561020a57600080fd5b50610225600480360381019061022091906130fe565b6108a9565b6040516102329190613756565b60405180910390f35b34801561024757600080fd5b50610250610949565b60405161025d9190613771565b60405180910390f35b34801561027257600080fd5b5061028d60048036038101906102889190613158565b610986565b60405161029a9190613643565b60405180910390f35b3480156102af57600080fd5b506102ca60048036038101906102c591906130be565b610a0a565b005b3480156102d857600080fd5b506102f360048036038101906102ee9190613158565b610a86565b604051610304959493929190613aa2565b60405180910390f35b34801561031957600080fd5b50610322610b3c565b60405161032f9190613a87565b60405180910390f35b34801561034457600080fd5b5061035f600480360381019061035a9190612fa3565b610b49565b005b34801561036d57600080fd5b50610388600480360381019061038391906131c5565b610cb3565b6040516103959190613a87565b60405180910390f35b3480156103aa57600080fd5b506103c560048036038101906103c09190612fa3565b610e40565b005b3480156103d357600080fd5b506103ee60048036038101906103e99190613158565b610e50565b6040516103fd939291906136aa565b60405180910390f35b34801561041257600080fd5b5061042d60048036038101906104289190613158565b610eb7565b60405161043a9190613643565b60405180910390f35b34801561044f57600080fd5b50610458610eea565b6040516104659190613734565b60405180910390f35b34801561047a57600080fd5b5061049560048036038101906104909190612f36565b611039565b6040516104a29190613734565b60405180910390f35b3480156104b757600080fd5b506104d260048036038101906104cd9190613158565b6110d0565b6040516104df9190613643565b60405180910390f35b3480156104f457600080fd5b5061050f600480360381019061050a9190612f36565b611182565b60405161051c9190613a87565b60405180910390f35b34801561053157600080fd5b5061053a6111cb565b005b34801561054857600080fd5b50610563600480360381019061055e9190612f36565b611253565b6040516105709190613734565b60405180910390f35b34801561058557600080fd5b506105a0600480360381019061059b9190612f36565b6113ad565b6040516105ad9190613734565b60405180910390f35b3480156105c257600080fd5b506105cb611536565b6040516105d89190613643565b60405180910390f35b3480156105ed57600080fd5b5061060860048036038101906106039190613185565b61155f565b005b34801561061657600080fd5b50610631600480360381019061062c9190613158565b6117a8565b005b34801561063f57600080fd5b506106486119f1565b6040516106559190613771565b60405180910390f35b34801561066a57600080fd5b5061068560048036038101906106809190613158565b611a2e565b604051610696959493929190613aa2565b60405180910390f35b3480156106ab57600080fd5b506106c660048036038101906106c1919061307e565b611ae4565b005b3480156106d457600080fd5b506106ef60048036038101906106ea9190613158565b611c50565b6040516106fc9190613643565b60405180910390f35b34801561071157600080fd5b5061072c600480360381019061072791906130be565b611c83565b005b61074860048036038101906107439190613158565b611d84565b005b34801561075657600080fd5b5061075f611f85565b60405161076c9190613a87565b60405180910390f35b34801561078157600080fd5b5061079c60048036038101906107979190612ff6565b611f8a565b005b3480156107aa57600080fd5b506107c560048036038101906107c09190613158565b6120f8565b6040516107d29190613a87565b60405180910390f35b3480156107e757600080fd5b5061080260048036038101906107fd9190613185565b6121ea565b60405161080f9190613a87565b60405180910390f35b34801561082457600080fd5b5061083f600480360381019061083a9190612f63565b612306565b60405161084c9190613756565b60405180910390f35b34801561086157600080fd5b5061086a61239a565b6040516108779190613a87565b60405180910390f35b34801561088c57600080fd5b506108a760048036038101906108a29190612f36565b6123a0565b005b60006380ac58cd60e01b7bffffffffffffffffffffffffffffffffffffffffffffffffffffffff1916827bffffffffffffffffffffffffffffffffffffffffffffffffffffffff1916148061094257506301ffc9a760e01b7bffffffffffffffffffffffffffffffffffffffffffffffffffffffff1916827bffffffffffffffffffffffffffffffffffffffffffffffffffffffff1916145b9050919050565b60606040518060400160405280600e81526020017f4d792043727970746f2043617473000000000000000000000000000000000000815250905090565b600060098054905082106109cf576040517f08c379a00000000000000000000000000000000000000000000000000000000081526004016109c6906138b3565b60405180910390fd5b6003600083815260200190815260200160002060009054906101000a900473ffffffffffffffffffffffffffffffffffffffff169050919050565b610a143382612498565b610a1d57600080fd5b610a278183612504565b808273ffffffffffffffffffffffffffffffffffffffff163373ffffffffffffffffffffffffffffffffffffffff167f8c5be1e5ebec7d5bd14f71427d1e84f3dd0314c0f7b2291e5b200ac8c7c3b92560405160405180910390a45050565b60008060008060008060098781548110610aa357610aa2613e29565b5b906000526020600020906002020190508060000160009054906101000a900467ffffffffffffffff1667ffffffffffffffff1695508060000160089054906101000a900463ffffffff1663ffffffff16945080600001600c9054906101000a900463ffffffff1663ffffffff1693508060000160109054906101000a900461ffff1661ffff169250806001015491505091939590929450565b6000600980549050905090565b600073ffffffffffffffffffffffffffffffffffffffff168273ffffffffffffffffffffffffffffffffffffffff161415610bb9576040517f08c379a0000000000000000000000000000000000000000000000000000000008152600401610bb0906137d3565b60405180910390fd5b6009805490508110610c00576040517f08c379a0000000000000000000000000000000000000000000000000000000008152600401610bf7906138b3565b60405180910390fd5b610c0a8382612498565b610c49576040517f08c379a0000000000000000000000000000000000000000000000000000000008152600401610c4090613a27565b60405180910390fd5b8273ffffffffffffffffffffffffffffffffffffffff163373ffffffffffffffffffffffffffffffffffffffff161480610c895750610c888333612306565b5b80610c9a5750610c99338261255a565b5b610ca357600080fd5b610cae8383836125c6565b505050565b6000806040518060a001604052804267ffffffffffffffff1681526020018863ffffffff1681526020018763ffffffff1681526020018661ffff168152602001858152509050600981908060018154018082558091505060019003906000526020600020906002020160009091909190915060008201518160000160006101000a81548167ffffffffffffffff021916908367ffffffffffffffff16021790555060208201518160000160086101000a81548163ffffffff021916908363ffffffff160217905550604082015181600001600c6101000a81548163ffffffff021916908363ffffffff16021790555060608201518160000160106101000a81548161ffff021916908361ffff16021790555060808201518160010155505060006001600980549050610de59190613c47565b90507f0a5311bd2a6608f08a180df2ee7c5946819a649b204b554bb8e39825b2c50ad584828a8a89604051610e1e9594939291906136e1565b60405180910390a1610e32600085836125c6565b809250505095945050505050565b610e4b838383610e40565b505050565b600080600080600c8581548110610e6a57610e69613e29565b5b906000526020600020906003020190508060000160009054906101000a900473ffffffffffffffffffffffffffffffffffffffff1681600101548260020154935093509350509193909250565b60036020528060005260406000206000915054906101000a900473ffffffffffffffffffffffffffffffffffffffff1681565b60606000600c8054905090506000811415610f5157600067ffffffffffffffff811115610f1a57610f19613e58565b5b604051908082528060200260200182016040528015610f485781602001602082028036833780820191505090505b50915050611036565b60008167ffffffffffffffff811115610f6d57610f6c613e58565b5b604051908082528060200260200182016040528015610f9b5781602001602082028036833780820191505090505b50905060005b8281101561102f576000600c8281548110610fbf57610fbe613e29565b5b9060005260206000209060030201600101541461101c57600c8181548110610fea57610fe9613e29565b5b90600052602060002090600302016002015482828151811061100f5761100e613e29565b5b6020026020010181815250505b808061102790613d22565b915050610fa1565b8193505050505b90565b6060600560008373ffffffffffffffffffffffffffffffffffffffff1673ffffffffffffffffffffffffffffffffffffffff1681526020019081526020016000208054806020026020016040519081016040528092919081815260200182805480156110c457602002820191906000526020600020905b8154815260200190600101908083116110b0575b50505050509050919050565b6000806001600084815260200190815260200160002060009054906101000a900473ffffffffffffffffffffffffffffffffffffffff169050600073ffffffffffffffffffffffffffffffffffffffff168173ffffffffffffffffffffffffffffffffffffffff161415611179576040517f08c379a0000000000000000000000000000000000000000000000000000000008152600401611170906138d3565b60405180910390fd5b80915050919050565b6000600260008373ffffffffffffffffffffffffffffffffffffffff1673ffffffffffffffffffffffffffffffffffffffff168152602001908152602001600020549050919050565b6111d3612801565b73ffffffffffffffffffffffffffffffffffffffff166111f1611536565b73ffffffffffffffffffffffffffffffffffffffff1614611247576040517f08c379a000000000000000000000000000000000000000000000000000000000815260040161123e9061396b565b60405180910390fd5b6112516000612809565b565b6060600061126083611182565b905060008114156112bd57600067ffffffffffffffff81111561128657611285613e58565b5b6040519080825280602002602001820160405280156112b45781602001602082028036833780820191505090505b509150506113a8565b60008167ffffffffffffffff8111156112d9576112d8613e58565b5b6040519080825280602002602001820160405280156113075781602001602082028036833780820191505090505b50905060006008549050600080600090505b8281101561139f578673ffffffffffffffffffffffffffffffffffffffff16611341826110d0565b73ffffffffffffffffffffffffffffffffffffffff16141561138c578084838151811061137157611370613e29565b5b602002602001018181525050818061138890613d22565b9250505b808061139790613d22565b915050611319565b83955050505050505b919050565b606060006113ba83611182565b9050600081141561141757600067ffffffffffffffff8111156113e0576113df613e58565b5b60405190808252806020026020018201604052801561140e5781602001602082028036833780820191505090505b50915050611531565b60008167ffffffffffffffff81111561143357611432613e58565b5b6040519080825280602002602001820160405280156114615781602001602082028036833780820191505090505b509050600061146e610b3c565b9050600080600190505b828111611528578673ffffffffffffffffffffffffffffffffffffffff166001600083815260200190815260200160002060009054906101000a900473ffffffffffffffffffffffffffffffffffffffff1673ffffffffffffffffffffffffffffffffffffffff16141561151557808483815181106114fa576114f9613e29565b5b602002602001018181525050818061151190613d22565b9250505b808061152090613d22565b915050611478565b83955050505050505b919050565b60008060009054906101000a900473ffffffffffffffffffffffffffffffffffffffff16905090565b661ff973cafa800082116115a8576040517f08c379a000000000000000000000000000000000000000000000000000000000815260040161159f90613813565b60405180910390fd5b6000600a60008381526020019081526020016000206001015414611601576040517f08c379a00000000000000000000000000000000000000000000000000000000081526004016115f890613a07565b60405180910390fd5b61160b3082610a0a565b600060405180606001604052803373ffffffffffffffffffffffffffffffffffffffff16815260200184815260200183815250905080600a600084815260200190815260200160002060008201518160000160006101000a81548173ffffffffffffffffffffffffffffffffffffffff021916908373ffffffffffffffffffffffffffffffffffffffff1602179055506020820151816001015560408201518160020155905050600c81908060018154018082558091505060019003906000526020600020906003020160009091909190915060008201518160000160006101000a81548173ffffffffffffffffffffffffffffffffffffffff021916908373ffffffffffffffffffffffffffffffffffffffff1602179055506020820151816001015560408201518160020155505060006001600c8054905061174f9190613c47565b905080600b6000858152602001908152602001600020819055507fd99e4fad9ad6313b1feb588fa8e605e3a9873172f2024330c35dd2b4041a4386338460405161179a9291906138f3565b60405180910390a150505050565b6117b23382612498565b6117f1576040517f08c379a00000000000000000000000000000000000000000000000000000000081526004016117e8906139e7565b60405180910390fd5b6000600a60008381526020019081526020016000206040518060600160405290816000820160009054906101000a900473ffffffffffffffffffffffffffffffffffffffff1673ffffffffffffffffffffffffffffffffffffffff1673ffffffffffffffffffffffffffffffffffffffff1681526020016001820154815260200160028201548152505090503373ffffffffffffffffffffffffffffffffffffffff16816000015173ffffffffffffffffffffffffffffffffffffffff16146118ef576040517f08c379a00000000000000000000000000000000000000000000000000000000081526004016118e690613a47565b60405180910390fd5b600c600b6000848152602001908152602001600020548154811061191657611915613e29565b5b9060005260206000209060030201600080820160006101000a81549073ffffffffffffffffffffffffffffffffffffffff0219169055600182016000905560028201600090555050600a6000838152602001908152602001600020600080820160006101000a81549073ffffffffffffffffffffffffffffffffffffffff02191690556001820160009055600282016000905550506119b4826128cd565b7fd99e4fad9ad6313b1feb588fa8e605e3a9873172f2024330c35dd2b4041a438633836040516119e592919061398b565b60405180910390a15050565b60606040518060400160405280600481526020017f4d43524300000000000000000000000000000000000000000000000000000000815250905090565b60008060008060008060098781548110611a4b57611a4a613e29565b5b906000526020600020906002020190508060000160009054906101000a900467ffffffffffffffff1667ffffffffffffffff168160000160089054906101000a900463ffffffff1663ffffffff1682600001600c9054906101000a900463ffffffff1663ffffffff168360000160109054906101000a900461ffff1661ffff168460010154955095509550955095505091939590929450565b3373ffffffffffffffffffffffffffffffffffffffff168273ffffffffffffffffffffffffffffffffffffffff161415611b53576040517f08c379a0000000000000000000000000000000000000000000000000000000008152600401611b4a90613a67565b60405180910390fd5b80600460003373ffffffffffffffffffffffffffffffffffffffff1673ffffffffffffffffffffffffffffffffffffffff16815260200190815260200160002060008473ffffffffffffffffffffffffffffffffffffffff1673ffffffffffffffffffffffffffffffffffffffff16815260200190815260200160002060006101000a81548160ff0219169083151502179055508173ffffffffffffffffffffffffffffffffffffffff163373ffffffffffffffffffffffffffffffffffffffff167f17307eab39ab6107e8899845ad3d59bd9653f200f220920489ca2b5937696c3183604051611c449190613756565b60405180910390a35050565b60016020528060005260406000206000915054906101000a900473ffffffffffffffffffffffffffffffffffffffff1681565b600073ffffffffffffffffffffffffffffffffffffffff168273ffffffffffffffffffffffffffffffffffffffff161415611cf3576040517f08c379a0000000000000000000000000000000000000000000000000000000008152600401611cea90613833565b60405180910390fd5b3073ffffffffffffffffffffffffffffffffffffffff168273ffffffffffffffffffffffffffffffffffffffff161415611d62576040517f08c379a0000000000000000000000000000000000000000000000000000000008152600401611d59906137b3565b60405180910390fd5b611d6c3382612498565b611d7557600080fd5b611d803383836125c6565b5050565b6000600a60008381526020019081526020016000206040518060600160405290816000820160009054906101000a900473ffffffffffffffffffffffffffffffffffffffff1673ffffffffffffffffffffffffffffffffffffffff1673ffffffffffffffffffffffffffffffffffffffff16815260200160018201548152602001600282015481525050905080602001513414611e2057600080fd5b6000600c8054905011611e3257600080fd5b600c600b60008481526020019081526020016000205481548110611e5957611e58613e29565b5b9060005260206000209060030201600080820160006101000a81549073ffffffffffffffffffffffffffffffffffffffff0219169055600182016000905560028201600090555050600a6000838152602001908152602001600020600080820160006101000a81549073ffffffffffffffffffffffffffffffffffffffff0219169055600182016000905560028201600090555050611efd81600001513384610b49565b806000015173ffffffffffffffffffffffffffffffffffffffff166108fc349081150290604051600060405180830381858888f19350505050158015611f47573d6000803e3d6000fd5b507fd99e4fad9ad6313b1feb588fa8e605e3a9873172f2024330c35dd2b4041a43863383604051611f7992919061392f565b60405180910390a15050565b600a81565b600073ffffffffffffffffffffffffffffffffffffffff168473ffffffffffffffffffffffffffffffffffffffff161415611ffa576040517f08c379a0000000000000000000000000000000000000000000000000000000008152600401611ff1906139c7565b60405180910390fd5b6009805490508310612041576040517f08c379a000000000000000000000000000000000000000000000000000000000815260040161203890613873565b60405180910390fd5b61204b8584612498565b61208a576040517f08c379a000000000000000000000000000000000000000000000000000000000815260040161208190613853565b60405180910390fd5b8473ffffffffffffffffffffffffffffffffffffffff163373ffffffffffffffffffffffffffffffffffffffff1614806120ca57506120c98585612306565b5b806120db57506120da338461255a565b5b6120e457600080fd5b6120f18585858585612919565b5050505050565b6000612102612801565b73ffffffffffffffffffffffffffffffffffffffff16612120611536565b73ffffffffffffffffffffffffffffffffffffffff1614612176576040517f08c379a000000000000000000000000000000000000000000000000000000000815260040161216d9061396b565b60405180910390fd5b600a60065411156121bc576040517f08c379a00000000000000000000000000000000000000000000000000000000081526004016121b3906137f3565b60405180910390fd5b600660008154809291906121cf90613d22565b91905055506121e360008060008533610cb3565b9050919050565b60006121f63384612498565b801561220857506122073383612498565b5b612247576040517f08c379a000000000000000000000000000000000000000000000000000000000815260040161223e90613893565b60405180910390fd5b60008061225385611a2e565b9450505050915060008061226686611a2e565b945050505091506122778483612984565b6007819055506000818410156122aa576001826122949190613b66565b90506002816122a39190613bbc565b90506122e6565b818411156122d5576001846122bf9190613b66565b90506002816122ce9190613bbc565b90506122e5565b6001846122e29190613b66565b90505b5b6122f587898360075433610cb3565b506007549550505050505092915050565b6000600460008473ffffffffffffffffffffffffffffffffffffffff1673ffffffffffffffffffffffffffffffffffffffff16815260200190815260200160002060008373ffffffffffffffffffffffffffffffffffffffff1673ffffffffffffffffffffffffffffffffffffffff16815260200190815260200160002060009054906101000a900460ff16905092915050565b60065481565b6123a8612801565b73ffffffffffffffffffffffffffffffffffffffff166123c6611536565b73ffffffffffffffffffffffffffffffffffffffff161461241c576040517f08c379a00000000000000000000000000000000000000000000000000000000081526004016124139061396b565b60405180910390fd5b600073ffffffffffffffffffffffffffffffffffffffff168173ffffffffffffffffffffffffffffffffffffffff16141561248c576040517f08c379a000000000000000000000000000000000000000000000000000000000815260040161248390613793565b60405180910390fd5b61249581612809565b50565b60008273ffffffffffffffffffffffffffffffffffffffff166001600084815260200190815260200160002060009054906101000a900473ffffffffffffffffffffffffffffffffffffffff1673ffffffffffffffffffffffffffffffffffffffff1614905092915050565b806003600084815260200190815260200160002060006101000a81548173ffffffffffffffffffffffffffffffffffffffff021916908373ffffffffffffffffffffffffffffffffffffffff1602179055505050565b60008273ffffffffffffffffffffffffffffffffffffffff166003600084815260200190815260200160002060009054906101000a900473ffffffffffffffffffffffffffffffffffffffff1673ffffffffffffffffffffffffffffffffffffffff1614905092915050565b6001600260008473ffffffffffffffffffffffffffffffffffffffff1673ffffffffffffffffffffffffffffffffffffffff16815260200190815260200160002060008282546126169190613b66565b92505081905550816001600083815260200190815260200160002060006101000a81548173ffffffffffffffffffffffffffffffffffffffff021916908373ffffffffffffffffffffffffffffffffffffffff160217905550600560008373ffffffffffffffffffffffffffffffffffffffff1673ffffffffffffffffffffffffffffffffffffffff168152602001908152602001600020819080600181540180825580915050600190039060005260206000200160009091909190915055600073ffffffffffffffffffffffffffffffffffffffff168373ffffffffffffffffffffffffffffffffffffffff16146127a1576001600260008573ffffffffffffffffffffffffffffffffffffffff1673ffffffffffffffffffffffffffffffffffffffff16815260200190815260200160002060008282546127599190613c47565b9250508190555061276a8382612ad8565b6001600082815260200190815260200160002060006101000a81549073ffffffffffffffffffffffffffffffffffffffff02191690555b808273ffffffffffffffffffffffffffffffffffffffff163373ffffffffffffffffffffffffffffffffffffffff167fddf252ad1be2c89b69c2b068fc378daa952ba7f163c4a11628f55a4df523b3ef60405160405180910390a4505050565b600033905090565b60008060009054906101000a900473ffffffffffffffffffffffffffffffffffffffff169050816000806101000a81548173ffffffffffffffffffffffffffffffffffffffff021916908373ffffffffffffffffffffffffffffffffffffffff1602179055508173ffffffffffffffffffffffffffffffffffffffff168173ffffffffffffffffffffffffffffffffffffffff167f8be0079c531659141344cd1fd0a4f28419497f9722a3daafe3b4186f6b6457e060405160405180910390a35050565b6128d73382612498565b6128e057600080fd5b6003600082815260200190815260200160002060006101000a81549073ffffffffffffffffffffffffffffffffffffffff021916905550565b6129248585856125c6565b61297485858585858080601f016020809104026020016040519081016040528093929190818152602001838380828437600081840152601f19601f82011690508083019250505050505050612d21565b61297d57600080fd5b5050505050565b600061298e612e54565b600060ff4261299d9190613d6b565b905060008060079050600191505b60808211612a5f576000828460ff1616146129f1576064866129cd9190613d6b565b60ff168482600881106129e3576129e2613e29565b5b602002018181525050612a1e565b6064876129fe9190613d6b565b60ff16848260088110612a1457612a13613e29565b5b6020020181815250505b606486612a2b9190613bbc565b9550606486612a3a9190613bbc565b9550600181612a499190613c47565b9050600282612a589190613bed565b91506129ab565b600091505b6008821015612ac957838260088110612a8057612a7f613e29565b5b6020020151600754612a929190613b66565b60078190555060078214612ab6576064600754612aaf9190613bed565b6007819055505b8180612ac190613d22565b925050612a64565b60075494505050505092915050565b6000600560008473ffffffffffffffffffffffffffffffffffffffff1673ffffffffffffffffffffffffffffffffffffffff1681526020019081526020016000206001600560008673ffffffffffffffffffffffffffffffffffffffff1673ffffffffffffffffffffffffffffffffffffffff16815260200190815260200160002080549050612b689190613c47565b81548110612b7957612b78613e29565b5b9060005260206000200154905060005b6001600560008673ffffffffffffffffffffffffffffffffffffffff1673ffffffffffffffffffffffffffffffffffffffff16815260200190815260200160002080549050612bd89190613c47565b811015612d1b5782600560008673ffffffffffffffffffffffffffffffffffffffff1673ffffffffffffffffffffffffffffffffffffffff1681526020019081526020016000208281548110612c3157612c30613e29565b5b90600052602060002001541415612d085781600560008673ffffffffffffffffffffffffffffffffffffffff1673ffffffffffffffffffffffffffffffffffffffff1681526020019081526020016000208281548110612c9457612c93613e29565b5b9060005260206000200181905550600560008573ffffffffffffffffffffffffffffffffffffffff1673ffffffffffffffffffffffffffffffffffffffff168152602001908152602001600020805480612cf157612cf0613dfa565b5b600190038181906000526020600020016000905590555b8080612d1390613d22565b915050612b89565b50505050565b6000612d2c84612e3b565b612d395760019050612e33565b60008473ffffffffffffffffffffffffffffffffffffffff1663150b7a02338887876040518563ffffffff1660e01b8152600401612d7a949392919061365e565b602060405180830381600087803b158015612d9457600080fd5b505af1158015612da8573d6000803e3d6000fd5b505050506040513d601f19601f82011682018060405250810190612dcc919061312b565b90507f150b7a023d4804d13e8c85fb27262cb750cf6ba9f9dd3bb30d90f482ceeb4b1f7bffffffffffffffffffffffffffffffffffffffffffffffffffffffff1916817bffffffffffffffffffffffffffffffffffffffffffffffffffffffff1916149150505b949350505050565b600080823b905060008163ffffffff1611915050919050565b604051806101000160405280600890602082028036833780820191505090505090565b600081359050612e868161438a565b92915050565b600081359050612e9b816143a1565b92915050565b600081359050612eb0816143b8565b92915050565b600081519050612ec5816143b8565b92915050565b60008083601f840112612ee157612ee0613e8c565b5b8235905067ffffffffffffffff811115612efe57612efd613e87565b5b602083019150836001820283011115612f1a57612f19613e91565b5b9250929050565b600081359050612f30816143cf565b92915050565b600060208284031215612f4c57612f4b613e9b565b5b6000612f5a84828501612e77565b91505092915050565b60008060408385031215612f7a57612f79613e9b565b5b6000612f8885828601612e77565b9250506020612f9985828601612e77565b9150509250929050565b600080600060608486031215612fbc57612fbb613e9b565b5b6000612fca86828701612e77565b9350506020612fdb86828701612e77565b9250506040612fec86828701612f21565b9150509250925092565b60008060008060006080868803121561301257613011613e9b565b5b600061302088828901612e77565b955050602061303188828901612e77565b945050604061304288828901612f21565b935050606086013567ffffffffffffffff81111561306357613062613e96565b5b61306f88828901612ecb565b92509250509295509295909350565b6000806040838503121561309557613094613e9b565b5b60006130a385828601612e77565b92505060206130b485828601612e8c565b9150509250929050565b600080604083850312156130d5576130d4613e9b565b5b60006130e385828601612e77565b92505060206130f485828601612f21565b9150509250929050565b60006020828403121561311457613113613e9b565b5b600061312284828501612ea1565b91505092915050565b60006020828403121561314157613140613e9b565b5b600061314f84828501612eb6565b91505092915050565b60006020828403121561316e5761316d613e9b565b5b600061317c84828501612f21565b91505092915050565b6000806040838503121561319c5761319b613e9b565b5b60006131aa85828601612f21565b92505060206131bb85828601612f21565b9150509250929050565b600080600080600060a086880312156131e1576131e0613e9b565b5b60006131ef88828901612f21565b955050602061320088828901612f21565b945050604061321188828901612f21565b935050606061322288828901612f21565b925050608061323388828901612e77565b9150509295509295909350565b600061324c8383613625565b60208301905092915050565b61326181613c7b565b82525050565b600061327282613b05565b61327c8185613b33565b935061328783613af5565b8060005b838110156132b857815161329f8882613240565b97506132aa83613b26565b92505060018101905061328b565b5085935050505092915050565b6132ce81613c8d565b82525050565b60006132df82613b10565b6132e98185613b44565b93506132f9818560208601613cef565b61330281613ea0565b840191505092915050565b600061331882613b1b565b6133228185613b55565b9350613332818560208601613cef565b61333b81613ea0565b840191505092915050565b6000613353602683613b55565b915061335e82613eb1565b604082019050919050565b6000613376601c83613b55565b915061338182613f00565b602082019050919050565b6000613399602083613b55565b91506133a482613f29565b602082019050919050565b60006133bc602e83613b55565b91506133c782613f52565b604082019050919050565b60006133df602583613b55565b91506133ea82613fa1565b604082019050919050565b6000613402602483613b55565b915061340d82613ff0565b604082019050919050565b6000613425602583613b55565b91506134308261403f565b604082019050919050565b6000613448601483613b55565b91506134538261408e565b602082019050919050565b600061346b602a83613b55565b9150613476826140b7565b604082019050919050565b600061348e601083613b55565b915061349982614106565b602082019050919050565b60006134b1602983613b55565b91506134bc8261412f565b604082019050919050565b60006134d4600c83613b55565b91506134df8261417e565b602082019050919050565b60006134f7600383613b55565b9150613502826141a7565b602082019050919050565b600061351a602083613b55565b9150613525826141d0565b602082019050919050565b600061353d600c83613b55565b9150613548826141f9565b602082019050919050565b6000613560601d83613b55565b915061356b82614222565b602082019050919050565b6000613583601c83613b55565b915061358e8261424b565b602082019050919050565b60006135a6602483613b55565b91506135b182614274565b604082019050919050565b60006135c9601383613b55565b91506135d4826142c3565b602082019050919050565b60006135ec603f83613b55565b91506135f7826142ec565b604082019050919050565b600061360f603083613b55565b915061361a8261433b565b604082019050919050565b61362e81613ce5565b82525050565b61363d81613ce5565b82525050565b60006020820190506136586000830184613258565b92915050565b60006080820190506136736000830187613258565b6136806020830186613258565b61368d6040830185613634565b818103606083015261369f81846132d4565b905095945050505050565b60006060820190506136bf6000830186613258565b6136cc6020830185613634565b6136d96040830184613634565b949350505050565b600060a0820190506136f66000830188613258565b6137036020830187613634565b6137106040830186613634565b61371d6060830185613634565b61372a6080830184613634565b9695505050505050565b6000602082019050818103600083015261374e8184613267565b905092915050565b600060208201905061376b60008301846132c5565b92915050565b6000602082019050818103600083015261378b818461330d565b905092915050565b600060208201905081810360008301526137ac81613346565b9050919050565b600060208201905081810360008301526137cc81613369565b9050919050565b600060208201905081810360008301526137ec8161338c565b9050919050565b6000602082019050818103600083015261380c816133af565b9050919050565b6000602082019050818103600083015261382c816133d2565b9050919050565b6000602082019050818103600083015261384c816133f5565b9050919050565b6000602082019050818103600083015261386c81613418565b9050919050565b6000602082019050818103600083015261388c8161343b565b9050919050565b600060208201905081810360008301526138ac8161345e565b9050919050565b600060208201905081810360008301526138cc81613481565b9050919050565b600060208201905081810360008301526138ec816134a4565b9050919050565b6000606082019050818103600083015261390c816134c7565b905061391b6020830185613258565b6139286040830184613634565b9392505050565b60006060820190508181036000830152613948816134ea565b90506139576020830185613258565b6139646040830184613634565b9392505050565b600060208201905081810360008301526139848161350d565b9050919050565b600060608201905081810360008301526139a481613530565b90506139b36020830185613258565b6139c06040830184613634565b9392505050565b600060208201905081810360008301526139e081613553565b9050919050565b60006020820190508181036000830152613a0081613576565b9050919050565b60006020820190508181036000830152613a2081613599565b9050919050565b60006020820190508181036000830152613a40816135bc565b9050919050565b60006020820190508181036000830152613a60816135df565b9050919050565b60006020820190508181036000830152613a8081613602565b9050919050565b6000602082019050613a9c6000830184613634565b92915050565b600060a082019050613ab76000830188613634565b613ac46020830187613634565b613ad16040830186613634565b613ade6060830185613634565b613aeb6080830184613634565b9695505050505050565b6000819050602082019050919050565b600081519050919050565b600081519050919050565b600081519050919050565b6000602082019050919050565b600082825260208201905092915050565b600082825260208201905092915050565b600082825260208201905092915050565b6000613b7182613ce5565b9150613b7c83613ce5565b9250827fffffffffffffffffffffffffffffffffffffffffffffffffffffffffffffffff03821115613bb157613bb0613d9c565b5b828201905092915050565b6000613bc782613ce5565b9150613bd283613ce5565b925082613be257613be1613dcb565b5b828204905092915050565b6000613bf882613ce5565b9150613c0383613ce5565b9250817fffffffffffffffffffffffffffffffffffffffffffffffffffffffffffffffff0483118215151615613c3c57613c3b613d9c565b5b828202905092915050565b6000613c5282613ce5565b9150613c5d83613ce5565b925082821015613c7057613c6f613d9c565b5b828203905092915050565b6000613c8682613cc5565b9050919050565b60008115159050919050565b60007fffffffff0000000000000000000000000000000000000000000000000000000082169050919050565b600073ffffffffffffffffffffffffffffffffffffffff82169050919050565b6000819050919050565b60005b83811015613d0d578082015181840152602081019050613cf2565b83811115613d1c576000848401525b50505050565b6000613d2d82613ce5565b91507fffffffffffffffffffffffffffffffffffffffffffffffffffffffffffffffff821415613d6057613d5f613d9c565b5b600182019050919050565b6000613d7682613ce5565b9150613d8183613ce5565b925082613d9157613d90613dcb565b5b828206905092915050565b7f4e487b7100000000000000000000000000000000000000000000000000000000600052601160045260246000fd5b7f4e487b7100000000000000000000000000000000000000000000000000000000600052601260045260246000fd5b7f4e487b7100000000000000000000000000000000000000000000000000000000600052603160045260246000fd5b7f4e487b7100000000000000000000000000000000000000000000000000000000600052603260045260246000fd5b7f4e487b7100000000000000000000000000000000000000000000000000000000600052604160045260246000fd5b600080fd5b600080fd5b600080fd5b600080fd5b600080fd5b6000601f19601f8301169050919050565b7f4f776e61626c653a206e6577206f776e657220697320746865207a65726f206160008201527f6464726573730000000000000000000000000000000000000000000000000000602082015250565b7f7472616e7366657220746f20746865207a65726f206164647265737300000000600082015250565b7f546f2061646472657373206973206e6f742061207a65726f2061646472657373600082015250565b7f47656e20302073686f756c64206265206c657373207468616e2063726561746960008201527f6f6e206c696d69742067656e2030000000000000000000000000000000000000602082015250565b7f4361742070726963652073686f756c642062652067726561746572207468616e60008201527f20302e3031000000000000000000000000000000000000000000000000000000602082015250565b7f4552433732313a207472616e7366657220746f20746865207a65726f2061646460008201527f7265737300000000000000000000000000000000000000000000000000000000602082015250565b7f4e6f7420612076616c6964204e46542c206e6f7420746865206f776e6572206f60008201527f66204e4654000000000000000000000000000000000000000000000000000000602082015250565b7f546f6b656e20646f6573206e6f74206578697374000000000000000000000000600082015250565b7f596f75206d75737420626520746865206f776e6572206f6620626f7468206f6660008201527f20796f7572206361747300000000000000000000000000000000000000000000602082015250565b7f546f6b656e206d75737420657869737400000000000000000000000000000000600082015250565b7f4552433732313a206f776e657220717565727920666f72206e6f6e657869737460008201527f656e7420746f6b656e0000000000000000000000000000000000000000000000602082015250565b7f437265617465206f666665720000000000000000000000000000000000000000600082015250565b7f4275790000000000000000000000000000000000000000000000000000000000600082015250565b7f4f776e61626c653a2063616c6c6572206973206e6f7420746865206f776e6572600082015250565b7f52656d6f7665206f666665720000000000000000000000000000000000000000600082015250565b7f4d757374207472616e7366657220746f207a65726f2061646472657373000000600082015250565b7f5573657220646f6573206e6f74206f776e207468697320746f6b656e00000000600082015250565b7f596f752063616e27742073656c6c207477696365207468652073616d65206f6660008201527f6665727300000000000000000000000000000000000000000000000000000000602082015250565b7f46726f6d206f776e732074686520746f6b656e00000000000000000000000000600082015250565b7f54686973206173736574206d757374206265206f776e6564206279207468652060008201527f73656c6c657220696e206f7264657220746f2072656d6f7665206f6666657200602082015250565b7f4552433732313a20617070726f766520746f2063616c6c65722c20796f75206160008201527f7265206e6f7420746865206f776e657200000000000000000000000000000000602082015250565b61439381613c7b565b811461439e57600080fd5b50565b6143aa81613c8d565b81146143b557600080fd5b50565b6143c181613c99565b81146143cc57600080fd5b50565b6143d881613ce5565b81146143e357600080fd5b5056fea2646970667358221220b597367e03f9c77724db13c98a1b4b2ff672e107eb3613838cb6dbd8f2df687464736f6c63430008070033",
  "immutableReferences": {},
  "source": "// SPDX-License-Identifier: MIT\r\npragma solidity ^0.8.0;\r\n\r\n//import \"@openzeppelin/contracts/access/Ownable.sol\";\r\nimport \"./kittiesContract.sol\";\r\n\r\ncontract KittyMarketPlace is myKittiesContract {\r\n\r\n  struct Offer {\r\n    address payable seller;\r\n    uint256 price;\r\n    uint256 tokenId;\r\n  }\r\n\r\n  mapping(uint256 => Offer) tokenIdToOffer;\r\n  mapping(uint256 => uint256) tokenIdToOfferId;\r\n\r\n  event MarketTransaction(string TxType, address owner, uint256 tokenId);\r\n\r\n\r\n  Offer[] offers;\r\n\r\n/*\r\n  function setKittyContract(address _kittyContractAddress) external onlyOwner() {\r\n\r\n  }\r\n  */\r\n\r\n   function getOffer(uint256 _tokenId) external view returns (address seller, uint256 price, uint256 tokenId) {\r\n     Offer storage returnOffers = offers[_tokenId];\r\n     return (returnOffers.seller, returnOffers.price, returnOffers.tokenId);\r\n     \r\n   }\r\n\r\n   function getAllTokenOnSale() external view returns(uint256[] memory listOfOffers) {\r\n     uint256 totalOffers = offers.length;\r\n\r\n     if (totalOffers == 0) {\r\n       return new uint256[](0);\r\n     } \r\n     else {\r\n       uint256[] memory resultOfToken = new uint256[](totalOffers);\r\n\r\n       uint256 offerId; \r\n\r\n       for(offerId = 0; offerId < totalOffers; offerId++) {\r\n         if(offers[offerId].price != 0) { // if - offers array, [offer id] -> price does not equal 0, then result of token Id array [offerId] equals offers array [offerId] -> tokenId\r\n         resultOfToken[offerId] = offers[offerId].tokenId;\r\n         }\r\n       }\r\n       return resultOfToken;\r\n\r\n     }\r\n   }\r\n\r\n   /*\r\n    *   We give the contract the ability to transfer kitties\r\n    *   As the kitties will be in the market place we need to be able to transfert them\r\n    *   We are checking if the user is owning the kitty inside the approve function\r\n    */\r\n\r\n   function setOffer(uint256 _price, uint256 _tokenId) public {\r\n     require(_price > 0.009 ether, \"Cat price should be greater than 0.01\" );\r\n     require(tokenIdToOffer[_tokenId].price == 0, \"You can't sell twice the same offers\");\r\n\r\n     approve(address(this), _tokenId);\r\n\r\n     Offer memory _offer = Offer({\r\n       seller: (payable(msg.sender)),\r\n       price: _price,\r\n       tokenId: _tokenId\r\n     });\r\n\r\n     tokenIdToOffer[_tokenId] = _offer;\r\n\r\n     offers.push(_offer);\r\n\r\n     uint256 index = offers.length -1;\r\n\r\n     tokenIdToOfferId[_tokenId] = index;\r\n\r\n     emit MarketTransaction(\"Create offer\", msg.sender, _tokenId);\r\n\r\n   }\r\n\r\n\r\n   function removeOffer(uint256 _tokenId) external {\r\n     require(_owns(msg.sender, _tokenId), \"User does not own this token\");\r\n\r\n     Offer memory offer = tokenIdToOffer[_tokenId];\r\n\r\n     require(offer.seller == msg.sender, \"This asset must be owned by the seller in order to remove offer\");\r\n\r\n     /* we delete the offer info */\r\n     delete offers[tokenIdToOfferId[_tokenId]];\r\n\r\n     /* Remove the offer in the mapping*/\r\n     delete tokenIdToOffer[_tokenId];\r\n\r\n     _deleteApproval(_tokenId);\r\n\r\n      emit MarketTransaction(\"Remove offer\", msg.sender, _tokenId);\r\n      \r\n   }\r\n\r\n\r\n    function buyKitty(uint256 _tokenId) public payable {\r\n      Offer memory offer = tokenIdToOffer[_tokenId];\r\n      require(msg.value == offer.price);\r\n      require(offers.length > 0);\r\n\r\n      /* we delete the offer info */\r\n      delete offers[tokenIdToOfferId[_tokenId]];\r\n\r\n      /* Remove the offer in the mapping*/\r\n      delete tokenIdToOffer[_tokenId];\r\n      \r\n      //_approve(_tokenId, msg.sender);\r\n      transferFrom(offer.seller, msg.sender, _tokenId);\r\n\r\n      offer.seller.transfer(msg.value);\r\n\r\n      emit MarketTransaction(\"Buy\", msg.sender, _tokenId);\r\n\r\n    }\r\n\r\n}",
  "sourcePath": "C:\\Users\\benX\\Documents\\ethereum_course_advanced\\myCryptoKitties_master\\contracts\\KittyMarketPlace.sol",
  "compiler": {
    "name": "solc",
    "version": "0.8.7+commit.e28d00a7.Emscripten.clang"
  },
  "schemaVersion": "3.4.2",
  "updatedAt": "2021-08-19T02:45:49.078Z",
  "devdoc": {
    "kind": "dev",
    "methods": {
      "owner()": {
        "details": "Returns the address of the current owner."
      },
      "renounceOwnership()": {
        "details": "Leaves the contract without owner. It will not be possible to call `onlyOwner` functions anymore. Can only be called by the current owner. NOTE: Renouncing ownership will leave the contract without an owner, thereby removing any functionality that is only available to the owner."
      },
      "transferOwnership(address)": {
        "details": "Transfers ownership of the contract to a new account (`newOwner`). Can only be called by the current owner."
      }
    },
    "version": 1
  },
  "userdoc": {
    "kind": "user",
    "methods": {},
    "version": 1
  }
}