{
  "contractName": "KittyOwnership",
  "abi": [
    {
      "anonymous": false,
      "inputs": [
        {
          "indexed": false,
          "internalType": "address",
          "name": "owner",
          "type": "address"
        },
        {
          "indexed": false,
          "internalType": "address",
          "name": "approved",
          "type": "address"
        },
        {
          "indexed": false,
          "internalType": "uint256",
          "name": "tokenId",
          "type": "uint256"
        }
      ],
      "name": "Approval",
      "type": "event"
    },
    {
      "anonymous": false,
      "inputs": [
        {
          "indexed": false,
          "internalType": "address",
          "name": "owner",
          "type": "address"
        },
        {
          "indexed": false,
          "internalType": "uint256",
          "name": "kittyId",
          "type": "uint256"
        },
        {
          "indexed": false,
          "internalType": "uint256",
          "name": "mumId",
          "type": "uint256"
        },
        {
          "indexed": false,
          "internalType": "uint256",
          "name": "dadId",
          "type": "uint256"
        },
        {
          "indexed": false,
          "internalType": "uint256",
          "name": "genes",
          "type": "uint256"
        }
      ],
      "name": "Birth",
      "type": "event"
    },
    {
      "anonymous": false,
      "inputs": [
        {
          "indexed": false,
          "internalType": "address",
          "name": "from",
          "type": "address"
        },
        {
          "indexed": false,
          "internalType": "address",
          "name": "to",
          "type": "address"
        },
        {
          "indexed": false,
          "internalType": "uint256",
          "name": "tokenId",
          "type": "uint256"
        }
      ],
      "name": "Transfer",
      "type": "event"
    },
    {
      "inputs": [
        {
          "internalType": "uint256",
          "name": "",
          "type": "uint256"
        }
      ],
      "name": "kittyIndexToApproved",
      "outputs": [
        {
          "internalType": "address",
          "name": "",
          "type": "address"
        }
      ],
      "stateMutability": "view",
      "type": "function"
    },
    {
      "inputs": [
        {
          "internalType": "uint256",
          "name": "",
          "type": "uint256"
        }
      ],
      "name": "kittyIndexToOwner",
      "outputs": [
        {
          "internalType": "address",
          "name": "",
          "type": "address"
        }
      ],
      "stateMutability": "view",
      "type": "function"
    },
    {
      "inputs": [],
      "name": "name",
      "outputs": [
        {
          "internalType": "string",
          "name": "",
          "type": "string"
        }
      ],
      "stateMutability": "view",
      "type": "function"
    },
    {
      "inputs": [],
      "name": "symbol",
      "outputs": [
        {
          "internalType": "string",
          "name": "",
          "type": "string"
        }
      ],
      "stateMutability": "view",
      "type": "function"
    },
    {
      "inputs": [
        {
          "internalType": "bytes4",
          "name": "_interfaceID",
          "type": "bytes4"
        }
      ],
      "name": "supportsInterface",
      "outputs": [
        {
          "internalType": "bool",
          "name": "",
          "type": "bool"
        }
      ],
      "stateMutability": "pure",
      "type": "function"
    },
    {
      "inputs": [],
      "name": "totalSupply",
      "outputs": [
        {
          "internalType": "uint256",
          "name": "",
          "type": "uint256"
        }
      ],
      "stateMutability": "view",
      "type": "function"
    },
    {
      "inputs": [
        {
          "internalType": "address",
          "name": "_owner",
          "type": "address"
        }
      ],
      "name": "balanceOf",
      "outputs": [
        {
          "internalType": "uint256",
          "name": "count",
          "type": "uint256"
        }
      ],
      "stateMutability": "view",
      "type": "function"
    },
    {
      "inputs": [
        {
          "internalType": "uint256",
          "name": "_tokenId",
          "type": "uint256"
        }
      ],
      "name": "ownerOf",
      "outputs": [
        {
          "internalType": "address",
          "name": "owner",
          "type": "address"
        }
      ],
      "stateMutability": "view",
      "type": "function"
    },
    {
      "inputs": [
        {
          "internalType": "address",
          "name": "_to",
          "type": "address"
        },
        {
          "internalType": "uint256",
          "name": "_tokenId",
          "type": "uint256"
        }
      ],
      "name": "approve",
      "outputs": [],
      "stateMutability": "nonpayable",
      "type": "function"
    },
    {
      "inputs": [
        {
          "internalType": "address",
          "name": "_to",
          "type": "address"
        },
        {
          "internalType": "uint256",
          "name": "_tokenId",
          "type": "uint256"
        }
      ],
      "name": "transfer",
      "outputs": [],
      "stateMutability": "nonpayable",
      "type": "function"
    },
    {
      "inputs": [
        {
          "internalType": "address",
          "name": "_from",
          "type": "address"
        },
        {
          "internalType": "address",
          "name": "_to",
          "type": "address"
        },
        {
          "internalType": "uint256",
          "name": "_tokenId",
          "type": "uint256"
        }
      ],
      "name": "transferFrom",
      "outputs": [],
      "stateMutability": "nonpayable",
      "type": "function"
    },
    {
      "inputs": [
        {
          "internalType": "address",
          "name": "_owner",
          "type": "address"
        }
      ],
      "name": "tokensOfOwner",
      "outputs": [
        {
          "internalType": "uint256[]",
          "name": "ownerTokens",
          "type": "uint256[]"
        }
      ],
      "stateMutability": "view",
      "type": "function"
    }
  ],
  "bytecode": "0x608060405234801561001057600080fd5b50611193806100206000396000f3fe608060405234801561001057600080fd5b50600436106100b45760003560e01c80636352211e116100715780636352211e1461018d57806370a08231146101bd5780638462151c146101ed57806395d89b411461021d578063a45f4bfc1461023b578063a9059cbb1461026b576100b4565b806301ffc9a7146100b957806306fdde03146100e9578063095ea7b31461010757806318160ddd1461012357806323b872dd14610141578063481af3d31461015d575b600080fd5b6100d360048036038101906100ce9190610cc1565b610287565b6040516100e09190610e7a565b60405180910390f35b6100f161048b565b6040516100fe9190610e95565b60405180910390f35b610121600480360381019061011c9190610c81565b6104c4565b005b61012b610520565b6040516101389190610eb7565b60405180910390f35b61015b60048036038101906101569190610c2e565b610539565b005b61017760048036038101906101729190610cee565b6105a9565b6040516101849190610e06565b60405180910390f35b6101a760048036038101906101a29190610cee565b6105dc565b6040516101b49190610e06565b60405180910390f35b6101d760048036038101906101d29190610c01565b610653565b6040516101e49190610eb7565b60405180910390f35b61020760048036038101906102029190610c01565b61069c565b6040516102149190610e58565b60405180910390f35b610225610825565b6040516102329190610e95565b60405180910390f35b61025560048036038101906102509190610cee565b61085e565b6040516102629190610e06565b60405180910390f35b61028560048036038101906102809190610c81565b610891565b005b60007f01ffc9a7a5cef8baa21ed3c5c0d7e23accb804b619e9333b597f47a0d84076e27bffffffffffffffffffffffffffffffffffffffffffffffffffffffff1916827bffffffffffffffffffffffffffffffffffffffffffffffffffffffff1916148061048457507f0560ff44c470b66135b184f41c47840de0a42f8d70ee772ca647210e9eb3c8fd7f8462151cfcc0f257319f78db464014651918f3905b3d4bdab48d3f4618c542c17f23b872dd7302113369cda2901243429419bec145408fa8b352b3dd92b66c680b7fa9059cbb2ab09eb219583f4a59a5d0623ade346d962bcd4e46b11da047c9049b7f095ea7b334ae44009aa867bfb386f5c3b4b443ac6f0ee573fa91c4608fbadfba7f6352211e6566aa027e75ac9dbf2423197fbd9b82b9d981a3ab367d355866aa1c7f70a08231b98ef4ca268c9cc3f6b4590e4bfec28280db06bb5d45e689f2a360be7f18160ddd7f15c72528c2f94fd8dfe3c8d5aa26e2c50c7d81f4bc7bee8d4b79327f95d89b41e2f5f391a79ec54e9d87c79d6e777c63e32c28da95b4e9e4a79250ec7f06fdde0383f15d582d1a74511486c9ddf862a882fb7904b3d9fe9b8b8e58a7961818181818181818187bffffffffffffffffffffffffffffffffffffffffffffffffffffffff1916827bffffffffffffffffffffffffffffffffffffffffffffffffffffffff1916145b9050919050565b6040518060400160405280600b81526020017f4976616e4b69747469657300000000000000000000000000000000000000000081525081565b6104ce33826108ed565b6104d757600080fd5b6104e18183610959565b7f8c5be1e5ebec7d5bd14f71427d1e84f3dd0314c0f7b2291e5b200ac8c7c3b92533838360405161051493929190610e21565b60405180910390a15050565b600060016000805490506105349190610f27565b905090565b600073ffffffffffffffffffffffffffffffffffffffff168273ffffffffffffffffffffffffffffffffffffffff16141561057357600080fd5b61057d33826109af565b61058657600080fd5b61059083826108ed565b61059957600080fd5b6105a4838383610a1b565b505050565b60036020528060005260406000206000915054906101000a900473ffffffffffffffffffffffffffffffffffffffff1681565b60006001600083815260200190815260200160002060009054906101000a900473ffffffffffffffffffffffffffffffffffffffff169050600073ffffffffffffffffffffffffffffffffffffffff168173ffffffffffffffffffffffffffffffffffffffff16141561064e57600080fd5b919050565b6000600260008373ffffffffffffffffffffffffffffffffffffffff1673ffffffffffffffffffffffffffffffffffffffff168152602001908152602001600020549050919050565b606060006106a983610653565b9050600081141561070657600067ffffffffffffffff8111156106cf576106ce6110d3565b5b6040519080825280602002602001820160405280156106fd5781602001602082028036833780820191505090505b50915050610820565b60008167ffffffffffffffff811115610722576107216110d3565b5b6040519080825280602002602001820160405280156107505781602001602082028036833780820191505090505b509050600061075d610520565b9050600080600190505b828111610817578673ffffffffffffffffffffffffffffffffffffffff166001600083815260200190815260200160002060009054906101000a900473ffffffffffffffffffffffffffffffffffffffff1673ffffffffffffffffffffffffffffffffffffffff16141561080457808483815181106107e9576107e86110a4565b5b60200260200101818152505081806108009061102c565b9250505b808061080f9061102c565b915050610767565b83955050505050505b919050565b6040518060400160405280600281526020017f434b00000000000000000000000000000000000000000000000000000000000081525081565b60016020528060005260406000206000915054906101000a900473ffffffffffffffffffffffffffffffffffffffff1681565b600073ffffffffffffffffffffffffffffffffffffffff168273ffffffffffffffffffffffffffffffffffffffff1614156108cb57600080fd5b6108d533826108ed565b6108de57600080fd5b6108e9338383610a1b565b5050565b60008273ffffffffffffffffffffffffffffffffffffffff166001600084815260200190815260200160002060009054906101000a900473ffffffffffffffffffffffffffffffffffffffff1673ffffffffffffffffffffffffffffffffffffffff1614905092915050565b806003600084815260200190815260200160002060006101000a81548173ffffffffffffffffffffffffffffffffffffffff021916908373ffffffffffffffffffffffffffffffffffffffff1602179055505050565b60008273ffffffffffffffffffffffffffffffffffffffff166003600084815260200190815260200160002060009054906101000a900473ffffffffffffffffffffffffffffffffffffffff1673ffffffffffffffffffffffffffffffffffffffff1614905092915050565b600260008373ffffffffffffffffffffffffffffffffffffffff1673ffffffffffffffffffffffffffffffffffffffff1681526020019081526020016000206000815480929190610a6b9061102c565b9190505550816001600083815260200190815260200160002060006101000a81548173ffffffffffffffffffffffffffffffffffffffff021916908373ffffffffffffffffffffffffffffffffffffffff160217905550600073ffffffffffffffffffffffffffffffffffffffff168373ffffffffffffffffffffffffffffffffffffffff1614610b8257600260008473ffffffffffffffffffffffffffffffffffffffff1673ffffffffffffffffffffffffffffffffffffffff1681526020019081526020016000206000815480929190610b4690611002565b91905055506003600082815260200190815260200160002060006101000a81549073ffffffffffffffffffffffffffffffffffffffff02191690555b7fddf252ad1be2c89b69c2b068fc378daa952ba7f163c4a11628f55a4df523b3ef838383604051610bb593929190610e21565b60405180910390a1505050565b600081359050610bd181611118565b92915050565b600081359050610be68161112f565b92915050565b600081359050610bfb81611146565b92915050565b600060208284031215610c1757610c16611102565b5b6000610c2584828501610bc2565b91505092915050565b600080600060608486031215610c4757610c46611102565b5b6000610c5586828701610bc2565b9350506020610c6686828701610bc2565b9250506040610c7786828701610bec565b9150509250925092565b60008060408385031215610c9857610c97611102565b5b6000610ca685828601610bc2565b9250506020610cb785828601610bec565b9150509250929050565b600060208284031215610cd757610cd6611102565b5b6000610ce584828501610bd7565b91505092915050565b600060208284031215610d0457610d03611102565b5b6000610d1284828501610bec565b91505092915050565b6000610d278383610de8565b60208301905092915050565b610d3c81610f5b565b82525050565b6000610d4d82610ee2565b610d578185610f05565b9350610d6283610ed2565b8060005b83811015610d93578151610d7a8882610d1b565b9750610d8583610ef8565b925050600181019050610d66565b5085935050505092915050565b610da981610f6d565b82525050565b6000610dba82610eed565b610dc48185610f16565b9350610dd4818560208601610fcf565b610ddd81611107565b840191505092915050565b610df181610fc5565b82525050565b610e0081610fc5565b82525050565b6000602082019050610e1b6000830184610d33565b92915050565b6000606082019050610e366000830186610d33565b610e436020830185610d33565b610e506040830184610df7565b949350505050565b60006020820190508181036000830152610e728184610d42565b905092915050565b6000602082019050610e8f6000830184610da0565b92915050565b60006020820190508181036000830152610eaf8184610daf565b905092915050565b6000602082019050610ecc6000830184610df7565b92915050565b6000819050602082019050919050565b600081519050919050565b600081519050919050565b6000602082019050919050565b600082825260208201905092915050565b600082825260208201905092915050565b6000610f3282610fc5565b9150610f3d83610fc5565b925082821015610f5057610f4f611075565b5b828203905092915050565b6000610f6682610fa5565b9050919050565b60008115159050919050565b60007fffffffff0000000000000000000000000000000000000000000000000000000082169050919050565b600073ffffffffffffffffffffffffffffffffffffffff82169050919050565b6000819050919050565b60005b83811015610fed578082015181840152602081019050610fd2565b83811115610ffc576000848401525b50505050565b600061100d82610fc5565b9150600082141561102157611020611075565b5b600182039050919050565b600061103782610fc5565b91507fffffffffffffffffffffffffffffffffffffffffffffffffffffffffffffffff82141561106a57611069611075565b5b600182019050919050565b7f4e487b7100000000000000000000000000000000000000000000000000000000600052601160045260246000fd5b7f4e487b7100000000000000000000000000000000000000000000000000000000600052603260045260246000fd5b7f4e487b7100000000000000000000000000000000000000000000000000000000600052604160045260246000fd5b600080fd5b6000601f19601f8301169050919050565b61112181610f5b565b811461112c57600080fd5b50565b61113881610f79565b811461114357600080fd5b50565b61114f81610fc5565b811461115a57600080fd5b5056fea2646970667358221220df570b406e739b4f0d8fcb89121bc3552d6dfdbbd5c626d4c7f4876c9b2b802664736f6c63430008070033",
  "immutableReferences": {},
  "source": "// SPDX-License-Identifier: MIT\r\npragma solidity ^0.8.0;\r\n\r\nimport \"./KittyFactory.sol\";\r\n\r\ncontract KittyOwnership is KittyFactory{\r\n\r\n  string public constant name = \"IvanKitties\";\r\n  string public constant symbol = \"CK\";\r\n\r\n  //event Transfer(address from, address to, uint256 tokenId);\r\n  event Approval(address owner, address approved, uint256 tokenId);\r\n\r\n  /*\r\n  *    We use the modulo of each function to set the interfaceId\r\n  */\r\n  bytes4 constant InterfaceSignature_ERC165 =\r\n      bytes4(keccak256('supportsInterface(bytes4)'));\r\n\r\n  bytes4 constant InterfaceSignature_ERC721 =\r\n      bytes4(keccak256('name()')) ^\r\n      bytes4(keccak256('symbol()')) ^\r\n      bytes4(keccak256('totalSupply()')) ^\r\n      bytes4(keccak256('balanceOf(address)')) ^\r\n      bytes4(keccak256('ownerOf(uint256)')) ^\r\n      bytes4(keccak256('approve(address,uint256)')) ^\r\n      bytes4(keccak256('transfer(address,uint256)')) ^\r\n      bytes4(keccak256('transferFrom(address,address,uint256)')) ^\r\n      bytes4(keccak256('tokensOfOwner(address)')) ^\r\n      bytes4(keccak256('tokenMetadata(uint256,string)'));\r\n\r\n  function supportsInterface(bytes4 _interfaceID) external pure returns (bool)\r\n  {\r\n      return ((_interfaceID == InterfaceSignature_ERC165) || (_interfaceID == InterfaceSignature_ERC721));\r\n  }\r\n\r\n  function _owns(address _claimant, uint256 _tokenId) internal view returns (bool) {\r\n      return kittyIndexToOwner[_tokenId] == _claimant;\r\n  }\r\n\r\n  function _approvedFor(address _claimant, uint256 _tokenId) internal view returns (bool) {\r\n      return kittyIndexToApproved[_tokenId] == _claimant;\r\n  }\r\n\r\n  function _approve(uint256 _tokenId, address _approved) internal {\r\n      kittyIndexToApproved[_tokenId] = _approved;\r\n  }\r\n\r\n  function _deleteApproval(uint256 _tokenId) internal {\r\n      require(_owns(msg.sender, _tokenId));\r\n      delete kittyIndexToApproved[_tokenId];\r\n  }\r\n\r\n\r\n  /*\r\n  *   Function required by the erc 721 interface\r\n  */\r\n\r\n  function totalSupply() public view returns (uint) {\r\n      return kitties.length - 1;\r\n  }\r\n\r\n  function balanceOf(address _owner) public view returns (uint256 count) {\r\n      return ownershipTokenCount[_owner];\r\n  }\r\n\r\n  function ownerOf(uint256 _tokenId)\r\n      external\r\n      view\r\n      returns (address owner)\r\n  {\r\n      owner = kittyIndexToOwner[_tokenId];\r\n\r\n      require(owner != address(0));\r\n  }\r\n\r\n  function approve(\r\n      address _to,\r\n      uint256 _tokenId\r\n  )\r\n      public\r\n  {\r\n      require(_owns(msg.sender, _tokenId));\r\n\r\n      _approve(_tokenId, _to);\r\n      emit Approval(msg.sender, _to, _tokenId);\r\n  }\r\n\r\n  function transfer(\r\n      address _to,\r\n      uint256 _tokenId\r\n  )\r\n      public\r\n  {\r\n      require(_to != address(0));\r\n      require(_owns(msg.sender, _tokenId));\r\n\r\n      _transfer(msg.sender, _to, _tokenId);\r\n  }\r\n\r\n  function transferFrom(\r\n      address _from,\r\n      address _to,\r\n      uint256 _tokenId\r\n  )\r\n      public\r\n  {\r\n      require(_to != address(0));\r\n      require(_approvedFor(msg.sender, _tokenId));\r\n      require(_owns(_from, _tokenId));\r\n\r\n      _transfer(_from, _to, _tokenId);\r\n  }\r\n\r\n  function tokensOfOwner(address _owner) public view returns(uint256[] memory ownerTokens) {\r\n    uint256 tokenCount = balanceOf(_owner);\r\n\r\n    if (tokenCount == 0) {\r\n        return new uint256[](0);\r\n    } else {\r\n        uint256[] memory result = new uint256[](tokenCount);\r\n        uint256 totalCats = totalSupply();\r\n        uint256 resultIndex = 0;\r\n\r\n        uint256 catId;\r\n\r\n        for (catId = 1; catId <= totalCats; catId++) {\r\n            if (kittyIndexToOwner[catId] == _owner) {\r\n                result[resultIndex] = catId;\r\n                resultIndex++;\r\n            }\r\n        }\r\n\r\n        return result;\r\n    }\r\n  }\r\n}",
  "sourcePath": "C:\\Users\\benX\\Documents\\ethereum_course_advanced\\myCryptoKitties_master\\contracts\\KittyOwnership.sol",
  "compiler": {
    "name": "solc",
    "version": "0.8.7+commit.e28d00a7.Emscripten.clang"
  },
  "schemaVersion": "3.4.2",
  "updatedAt": "2021-08-16T21:27:02.990Z",
  "devdoc": {
    "kind": "dev",
    "methods": {},
    "version": 1
  },
  "userdoc": {
    "kind": "user",
    "methods": {},
    "version": 1
  }
}