{
  "contractName": "KittyMarketPlace",
  "abi": [
    {
      "inputs": [
        {
          "internalType": "address",
          "name": "_kittyContractAddress",
          "type": "address"
        }
      ],
      "stateMutability": "nonpayable",
      "type": "constructor"
    },
    {
      "anonymous": false,
      "inputs": [
        {
          "indexed": true,
          "internalType": "address",
          "name": "owner",
          "type": "address"
        },
        {
          "indexed": true,
          "internalType": "address",
          "name": "approved",
          "type": "address"
        },
        {
          "indexed": true,
          "internalType": "uint256",
          "name": "tokenId",
          "type": "uint256"
        }
      ],
      "name": "Approval",
      "type": "event"
    },
    {
      "anonymous": false,
      "inputs": [
        {
          "indexed": true,
          "internalType": "address",
          "name": "owner",
          "type": "address"
        },
        {
          "indexed": true,
          "internalType": "address",
          "name": "operator",
          "type": "address"
        },
        {
          "indexed": false,
          "internalType": "bool",
          "name": "approved",
          "type": "bool"
        }
      ],
      "name": "ApprovalForAll",
      "type": "event"
    },
    {
      "anonymous": false,
      "inputs": [
        {
          "indexed": false,
          "internalType": "address",
          "name": "owner",
          "type": "address"
        },
        {
          "indexed": false,
          "internalType": "uint256",
          "name": "newKittenId",
          "type": "uint256"
        },
        {
          "indexed": false,
          "internalType": "uint256",
          "name": "mumId",
          "type": "uint256"
        },
        {
          "indexed": false,
          "internalType": "uint256",
          "name": "dadId",
          "type": "uint256"
        },
        {
          "indexed": false,
          "internalType": "uint256",
          "name": "genes",
          "type": "uint256"
        }
      ],
      "name": "Birth",
      "type": "event"
    },
    {
      "anonymous": false,
      "inputs": [
        {
          "indexed": false,
          "internalType": "string",
          "name": "TxType",
          "type": "string"
        },
        {
          "indexed": false,
          "internalType": "address",
          "name": "owner",
          "type": "address"
        },
        {
          "indexed": false,
          "internalType": "uint256",
          "name": "tokenId",
          "type": "uint256"
        }
      ],
      "name": "MarketTransaction",
      "type": "event"
    },
    {
      "anonymous": false,
      "inputs": [
        {
          "indexed": true,
          "internalType": "address",
          "name": "previousOwner",
          "type": "address"
        },
        {
          "indexed": true,
          "internalType": "address",
          "name": "newOwner",
          "type": "address"
        }
      ],
      "name": "OwnershipTransferred",
      "type": "event"
    },
    {
      "anonymous": false,
      "inputs": [
        {
          "indexed": true,
          "internalType": "address",
          "name": "from",
          "type": "address"
        },
        {
          "indexed": true,
          "internalType": "address",
          "name": "to",
          "type": "address"
        },
        {
          "indexed": true,
          "internalType": "uint256",
          "name": "tokenId",
          "type": "uint256"
        }
      ],
      "name": "Transfer",
      "type": "event"
    },
    {
      "inputs": [],
      "name": "CREATION_LIMIT_GEN0",
      "outputs": [
        {
          "internalType": "uint256",
          "name": "",
          "type": "uint256"
        }
      ],
      "stateMutability": "view",
      "type": "function",
      "constant": true
    },
    {
      "inputs": [
        {
          "internalType": "uint256",
          "name": "_mumId",
          "type": "uint256"
        },
        {
          "internalType": "uint256",
          "name": "_dadId",
          "type": "uint256"
        },
        {
          "internalType": "uint256",
          "name": "_generation",
          "type": "uint256"
        },
        {
          "internalType": "uint256",
          "name": "_genes",
          "type": "uint256"
        },
        {
          "internalType": "address",
          "name": "owner",
          "type": "address"
        }
      ],
      "name": "_createKitty",
      "outputs": [
        {
          "internalType": "uint256",
          "name": "",
          "type": "uint256"
        }
      ],
      "stateMutability": "nonpayable",
      "type": "function"
    },
    {
      "inputs": [
        {
          "internalType": "address",
          "name": "_approved",
          "type": "address"
        },
        {
          "internalType": "uint256",
          "name": "_tokenId",
          "type": "uint256"
        }
      ],
      "name": "approve",
      "outputs": [],
      "stateMutability": "nonpayable",
      "type": "function"
    },
    {
      "inputs": [
        {
          "internalType": "address",
          "name": "owner",
          "type": "address"
        }
      ],
      "name": "balanceOf",
      "outputs": [
        {
          "internalType": "uint256",
          "name": "balance",
          "type": "uint256"
        }
      ],
      "stateMutability": "view",
      "type": "function",
      "constant": true
    },
    {
      "inputs": [
        {
          "internalType": "uint256",
          "name": "_dadId",
          "type": "uint256"
        },
        {
          "internalType": "uint256",
          "name": "_mumId",
          "type": "uint256"
        }
      ],
      "name": "breed",
      "outputs": [
        {
          "internalType": "uint256",
          "name": "",
          "type": "uint256"
        }
      ],
      "stateMutability": "nonpayable",
      "type": "function"
    },
    {
      "inputs": [
        {
          "internalType": "uint256",
          "name": "_genes",
          "type": "uint256"
        }
      ],
      "name": "createKittyGen0",
      "outputs": [
        {
          "internalType": "uint256",
          "name": "",
          "type": "uint256"
        }
      ],
      "stateMutability": "nonpayable",
      "type": "function"
    },
    {
      "inputs": [],
      "name": "gen0Counter",
      "outputs": [
        {
          "internalType": "uint256",
          "name": "",
          "type": "uint256"
        }
      ],
      "stateMutability": "view",
      "type": "function",
      "constant": true
    },
    {
      "inputs": [
        {
          "internalType": "address",
          "name": "owner",
          "type": "address"
        }
      ],
      "name": "getAllCatsFor",
      "outputs": [
        {
          "internalType": "uint256[]",
          "name": "",
          "type": "uint256[]"
        }
      ],
      "stateMutability": "view",
      "type": "function",
      "constant": true
    },
    {
      "inputs": [
        {
          "internalType": "address",
          "name": "user",
          "type": "address"
        }
      ],
      "name": "getAllTokensForUser",
      "outputs": [
        {
          "internalType": "uint256[]",
          "name": "",
          "type": "uint256[]"
        }
      ],
      "stateMutability": "view",
      "type": "function",
      "constant": true
    },
    {
      "inputs": [
        {
          "internalType": "uint256",
          "name": "_tokenId",
          "type": "uint256"
        }
      ],
      "name": "getApproved",
      "outputs": [
        {
          "internalType": "address",
          "name": "",
          "type": "address"
        }
      ],
      "stateMutability": "view",
      "type": "function",
      "constant": true
    },
    {
      "inputs": [
        {
          "internalType": "uint256",
          "name": "_id",
          "type": "uint256"
        }
      ],
      "name": "getKittyFilip",
      "outputs": [
        {
          "internalType": "uint256",
          "name": "birthTime",
          "type": "uint256"
        },
        {
          "internalType": "uint256",
          "name": "mumId",
          "type": "uint256"
        },
        {
          "internalType": "uint256",
          "name": "dadId",
          "type": "uint256"
        },
        {
          "internalType": "uint256",
          "name": "generation",
          "type": "uint256"
        },
        {
          "internalType": "uint256",
          "name": "genes",
          "type": "uint256"
        }
      ],
      "stateMutability": "view",
      "type": "function",
      "constant": true
    },
    {
      "inputs": [
        {
          "internalType": "address",
          "name": "_owner",
          "type": "address"
        },
        {
          "internalType": "address",
          "name": "_operator",
          "type": "address"
        }
      ],
      "name": "isApprovedForAll",
      "outputs": [
        {
          "internalType": "bool",
          "name": "",
          "type": "bool"
        }
      ],
      "stateMutability": "view",
      "type": "function",
      "constant": true
    },
    {
      "inputs": [
        {
          "internalType": "uint256",
          "name": "",
          "type": "uint256"
        }
      ],
      "name": "kittyIndexToApproved",
      "outputs": [
        {
          "internalType": "address",
          "name": "",
          "type": "address"
        }
      ],
      "stateMutability": "view",
      "type": "function",
      "constant": true
    },
    {
      "inputs": [
        {
          "internalType": "uint256",
          "name": "",
          "type": "uint256"
        }
      ],
      "name": "kittyIndexToOwner",
      "outputs": [
        {
          "internalType": "address",
          "name": "",
          "type": "address"
        }
      ],
      "stateMutability": "view",
      "type": "function",
      "constant": true
    },
    {
      "inputs": [
        {
          "internalType": "uint256",
          "name": "tokenId",
          "type": "uint256"
        }
      ],
      "name": "myGetKitty",
      "outputs": [
        {
          "internalType": "uint256",
          "name": "birthTime",
          "type": "uint256"
        },
        {
          "internalType": "uint256",
          "name": "mumId",
          "type": "uint256"
        },
        {
          "internalType": "uint256",
          "name": "dadId",
          "type": "uint256"
        },
        {
          "internalType": "uint256",
          "name": "generation",
          "type": "uint256"
        },
        {
          "internalType": "uint256",
          "name": "genes",
          "type": "uint256"
        }
      ],
      "stateMutability": "view",
      "type": "function",
      "constant": true
    },
    {
      "inputs": [],
      "name": "name",
      "outputs": [
        {
          "internalType": "string",
          "name": "tokenName",
          "type": "string"
        }
      ],
      "stateMutability": "pure",
      "type": "function",
      "constant": true
    },
    {
      "inputs": [],
      "name": "owner",
      "outputs": [
        {
          "internalType": "address",
          "name": "",
          "type": "address"
        }
      ],
      "stateMutability": "view",
      "type": "function",
      "constant": true
    },
    {
      "inputs": [
        {
          "internalType": "uint256",
          "name": "tokenId",
          "type": "uint256"
        }
      ],
      "name": "ownerOf",
      "outputs": [
        {
          "internalType": "address",
          "name": "owner",
          "type": "address"
        }
      ],
      "stateMutability": "view",
      "type": "function",
      "constant": true
    },
    {
      "inputs": [],
      "name": "renounceOwnership",
      "outputs": [],
      "stateMutability": "nonpayable",
      "type": "function"
    },
    {
      "inputs": [
        {
          "internalType": "address",
          "name": "_from",
          "type": "address"
        },
        {
          "internalType": "address",
          "name": "_to",
          "type": "address"
        },
        {
          "internalType": "uint256",
          "name": "_tokenId",
          "type": "uint256"
        }
      ],
      "name": "safeTransferFrom",
      "outputs": [],
      "stateMutability": "nonpayable",
      "type": "function"
    },
    {
      "inputs": [
        {
          "internalType": "address",
          "name": "_from",
          "type": "address"
        },
        {
          "internalType": "address",
          "name": "_to",
          "type": "address"
        },
        {
          "internalType": "uint256",
          "name": "_tokenId",
          "type": "uint256"
        },
        {
          "internalType": "bytes",
          "name": "data",
          "type": "bytes"
        }
      ],
      "name": "safeTransferFrom",
      "outputs": [],
      "stateMutability": "nonpayable",
      "type": "function"
    },
    {
      "inputs": [
        {
          "internalType": "address",
          "name": "_operator",
          "type": "address"
        },
        {
          "internalType": "bool",
          "name": "_approved",
          "type": "bool"
        }
      ],
      "name": "setApprovalForAll",
      "outputs": [],
      "stateMutability": "nonpayable",
      "type": "function"
    },
    {
      "inputs": [
        {
          "internalType": "bytes4",
          "name": "_interfaceId",
          "type": "bytes4"
        }
      ],
      "name": "supportsInterface",
      "outputs": [
        {
          "internalType": "bool",
          "name": "",
          "type": "bool"
        }
      ],
      "stateMutability": "pure",
      "type": "function",
      "constant": true
    },
    {
      "inputs": [],
      "name": "symbol",
      "outputs": [
        {
          "internalType": "string",
          "name": "tokenSymbol",
          "type": "string"
        }
      ],
      "stateMutability": "pure",
      "type": "function",
      "constant": true
    },
    {
      "inputs": [
        {
          "internalType": "address",
          "name": "_owner",
          "type": "address"
        }
      ],
      "name": "tokensOfOwner",
      "outputs": [
        {
          "internalType": "uint256[]",
          "name": "ownerTokens",
          "type": "uint256[]"
        }
      ],
      "stateMutability": "view",
      "type": "function",
      "constant": true
    },
    {
      "inputs": [],
      "name": "totalSupply",
      "outputs": [
        {
          "internalType": "uint256",
          "name": "total",
          "type": "uint256"
        }
      ],
      "stateMutability": "view",
      "type": "function",
      "constant": true
    },
    {
      "inputs": [
        {
          "internalType": "address",
          "name": "to",
          "type": "address"
        },
        {
          "internalType": "uint256",
          "name": "tokenId",
          "type": "uint256"
        }
      ],
      "name": "transfer",
      "outputs": [],
      "stateMutability": "nonpayable",
      "type": "function"
    },
    {
      "inputs": [
        {
          "internalType": "address",
          "name": "_from",
          "type": "address"
        },
        {
          "internalType": "address",
          "name": "_to",
          "type": "address"
        },
        {
          "internalType": "uint256",
          "name": "_tokenId",
          "type": "uint256"
        }
      ],
      "name": "transferFrom",
      "outputs": [],
      "stateMutability": "nonpayable",
      "type": "function"
    },
    {
      "inputs": [
        {
          "internalType": "address",
          "name": "newOwner",
          "type": "address"
        }
      ],
      "name": "transferOwnership",
      "outputs": [],
      "stateMutability": "nonpayable",
      "type": "function"
    },
    {
      "inputs": [
        {
          "internalType": "address",
          "name": "_kittyContractAddress",
          "type": "address"
        }
      ],
      "name": "setKittyContract",
      "outputs": [],
      "stateMutability": "nonpayable",
      "type": "function"
    },
    {
      "inputs": [
        {
          "internalType": "uint256",
          "name": "_tokenId",
          "type": "uint256"
        }
      ],
      "name": "getOffer",
      "outputs": [
        {
          "internalType": "address",
          "name": "seller",
          "type": "address"
        },
        {
          "internalType": "uint256",
          "name": "price",
          "type": "uint256"
        },
        {
          "internalType": "uint256",
          "name": "index",
          "type": "uint256"
        },
        {
          "internalType": "uint256",
          "name": "tokenId",
          "type": "uint256"
        },
        {
          "internalType": "bool",
          "name": "active",
          "type": "bool"
        }
      ],
      "stateMutability": "view",
      "type": "function",
      "constant": true
    },
    {
      "inputs": [],
      "name": "getAllTokenOnSale",
      "outputs": [
        {
          "internalType": "uint256[]",
          "name": "listOfOffers",
          "type": "uint256[]"
        }
      ],
      "stateMutability": "view",
      "type": "function",
      "constant": true
    },
    {
      "inputs": [
        {
          "internalType": "uint256",
          "name": "_price",
          "type": "uint256"
        },
        {
          "internalType": "uint256",
          "name": "_tokenId",
          "type": "uint256"
        }
      ],
      "name": "setOffer",
      "outputs": [],
      "stateMutability": "nonpayable",
      "type": "function"
    },
    {
      "inputs": [
        {
          "internalType": "uint256",
          "name": "_tokenId",
          "type": "uint256"
        }
      ],
      "name": "removeOffer",
      "outputs": [],
      "stateMutability": "nonpayable",
      "type": "function"
    },
    {
      "inputs": [
        {
          "internalType": "uint256",
          "name": "_tokenId",
          "type": "uint256"
        }
      ],
      "name": "buyKitty",
      "outputs": [],
      "stateMutability": "payable",
      "type": "function",
      "payable": true
    }
  ],
  "bytecode": "0x608060405260006009553480156200001657600080fd5b50604051620058383803806200583883398181016040528101906200003c9190620008ab565b6200005c620000506200008d60201b60201c565b6200009560201b60201c565b6200007460008060008060006200015960201b60201c565b506200008681620002f260201b60201c565b5062000baf565b600033905090565b60008060009054906101000a900473ffffffffffffffffffffffffffffffffffffffff169050816000806101000a81548173ffffffffffffffffffffffffffffffffffffffff021916908373ffffffffffffffffffffffffffffffffffffffff1602179055508173ffffffffffffffffffffffffffffffffffffffff168173ffffffffffffffffffffffffffffffffffffffff167f8be0079c531659141344cd1fd0a4f28419497f9722a3daafe3b4186f6b6457e060405160405180910390a35050565b6000806040518060a001604052804267ffffffffffffffff1681526020018863ffffffff1681526020018763ffffffff1681526020018661ffff168152602001858152509050600a81908060018154018082558091505060019003906000526020600020906002020160009091909190915060008201518160000160006101000a81548167ffffffffffffffff021916908367ffffffffffffffff16021790555060208201518160000160086101000a81548163ffffffff021916908363ffffffff160217905550604082015181600001600c6101000a81548163ffffffff021916908363ffffffff16021790555060608201518160000160106101000a81548161ffff021916908361ffff16021790555060808201518160010155505060006001600a805490506200028d919062000a13565b90507f0a5311bd2a6608f08a180df2ee7c5946819a649b204b554bb8e39825b2c50ad584828a8a89604051620002c895949392919062000926565b60405180910390a1620002e460008583620003c560201b60201c565b809250505095945050505050565b620003026200008d60201b60201c565b73ffffffffffffffffffffffffffffffffffffffff16620003286200060d60201b60201c565b73ffffffffffffffffffffffffffffffffffffffff161462000381576040517f08c379a0000000000000000000000000000000000000000000000000000000008152600401620003789062000983565b60405180910390fd5b80600b60006101000a81548173ffffffffffffffffffffffffffffffffffffffff021916908373ffffffffffffffffffffffffffffffffffffffff16021790555050565b6001600260008473ffffffffffffffffffffffffffffffffffffffff1673ffffffffffffffffffffffffffffffffffffffff1681526020019081526020016000206000828254620004179190620009b6565b92505081905550816001600083815260200190815260200160002060006101000a81548173ffffffffffffffffffffffffffffffffffffffff021916908373ffffffffffffffffffffffffffffffffffffffff160217905550600560008373ffffffffffffffffffffffffffffffffffffffff1673ffffffffffffffffffffffffffffffffffffffff168152602001908152602001600020819080600181540180825580915050600190039060005260206000200160009091909190915055600073ffffffffffffffffffffffffffffffffffffffff168373ffffffffffffffffffffffffffffffffffffffff1614620005ad576001600260008573ffffffffffffffffffffffffffffffffffffffff1673ffffffffffffffffffffffffffffffffffffffff16815260200190815260200160002060008282546200055d919062000a13565b925050819055506200057683826200063660201b60201c565b6001600082815260200190815260200160002060006101000a81549073ffffffffffffffffffffffffffffffffffffffff02191690555b808273ffffffffffffffffffffffffffffffffffffffff163373ffffffffffffffffffffffffffffffffffffffff167fddf252ad1be2c89b69c2b068fc378daa952ba7f163c4a11628f55a4df523b3ef60405160405180910390a4505050565b60008060009054906101000a900473ffffffffffffffffffffffffffffffffffffffff16905090565b6000600560008473ffffffffffffffffffffffffffffffffffffffff1673ffffffffffffffffffffffffffffffffffffffff1681526020019081526020016000206001600560008673ffffffffffffffffffffffffffffffffffffffff1673ffffffffffffffffffffffffffffffffffffffff16815260200190815260200160002080549050620006c8919062000a13565b81548110620006dc57620006db62000b38565b5b9060005260206000200154905060005b6001600560008673ffffffffffffffffffffffffffffffffffffffff1673ffffffffffffffffffffffffffffffffffffffff168152602001908152602001600020805490506200073d919062000a13565b8110156200088e5782600560008673ffffffffffffffffffffffffffffffffffffffff1673ffffffffffffffffffffffffffffffffffffffff16815260200190815260200160002082815481106200079a576200079962000b38565b5b90600052602060002001541415620008785781600560008673ffffffffffffffffffffffffffffffffffffffff1673ffffffffffffffffffffffffffffffffffffffff168152602001908152602001600020828154811062000801576200080062000b38565b5b9060005260206000200181905550600560008573ffffffffffffffffffffffffffffffffffffffff1673ffffffffffffffffffffffffffffffffffffffff16815260200190815260200160002080548062000861576200086062000b09565b5b600190038181906000526020600020016000905590555b8080620008859062000a8c565b915050620006ec565b50505050565b600081519050620008a58162000b95565b92915050565b600060208284031215620008c457620008c362000b67565b5b6000620008d48482850162000894565b91505092915050565b620008e88162000a4e565b82525050565b6000620008fd602083620009a5565b91506200090a8262000b6c565b602082019050919050565b620009208162000a82565b82525050565b600060a0820190506200093d6000830188620008dd565b6200094c602083018762000915565b6200095b604083018662000915565b6200096a606083018562000915565b62000979608083018462000915565b9695505050505050565b600060208201905081810360008301526200099e81620008ee565b9050919050565b600082825260208201905092915050565b6000620009c38262000a82565b9150620009d08362000a82565b9250827fffffffffffffffffffffffffffffffffffffffffffffffffffffffffffffffff0382111562000a085762000a0762000ada565b5b828201905092915050565b600062000a208262000a82565b915062000a2d8362000a82565b92508282101562000a435762000a4262000ada565b5b828203905092915050565b600062000a5b8262000a62565b9050919050565b600073ffffffffffffffffffffffffffffffffffffffff82169050919050565b6000819050919050565b600062000a998262000a82565b91507fffffffffffffffffffffffffffffffffffffffffffffffffffffffffffffffff82141562000acf5762000ace62000ada565b5b600182019050919050565b7f4e487b7100000000000000000000000000000000000000000000000000000000600052601160045260246000fd5b7f4e487b7100000000000000000000000000000000000000000000000000000000600052603160045260246000fd5b7f4e487b7100000000000000000000000000000000000000000000000000000000600052603260045260246000fd5b600080fd5b7f4f776e61626c653a2063616c6c6572206973206e6f7420746865206f776e6572600082015250565b62000ba08162000a4e565b811462000bac57600080fd5b50565b614c798062000bbf6000396000f3fe6080604052600436106102045760003560e01c806382de8fe911610118578063a9059cbb116100a0578063d5a776ca1161006f578063d5a776ca146107d4578063d9ecad7b14610811578063e985e9c51461084e578063ef5e94aa1461088b578063f2fde38b146108b657610204565b8063a9059cbb1461073b578063ae5310f614610764578063b483433014610780578063b88d4fde146107ab57610204565b806395a0f9c7116100e757806395a0f9c71461064057806395d89b4114610669578063a090cb7714610694578063a22cb465146106d5578063a45f4bfc146106fe57610204565b806382de8fe9146105725780638462151c146105af5780638da5cb5b146105ec578063941b055b1461061757610204565b806342842e0e1161019b5780635a64aafa1161016a5780635a64aafa1461047b57806362b7f94e146104b85780636352211e146104e157806370a082311461051e578063715018a61461055b57610204565b806342842e0e146103a95780634579268a146103d2578063481af3d31461041357806349b3709f1461045057610204565b80630dd1c2e8116101d75780630dd1c2e8146102d757806318160ddd1461031857806323b872dd14610343578063338a63a41461036c57610204565b806301ffc9a71461020957806306fdde0314610246578063081812fc14610271578063095ea7b3146102ae575b600080fd5b34801561021557600080fd5b50610230600480360381019061022b9190613686565b6108df565b60405161023d9190613df5565b60405180910390f35b34801561025257600080fd5b5061025b61097f565b6040516102689190613e10565b60405180910390f35b34801561027d57600080fd5b50610298600480360381019061029391906136e0565b6109bc565b6040516102a59190613c66565b60405180910390f35b3480156102ba57600080fd5b506102d560048036038101906102d09190613619565b610a40565b005b3480156102e357600080fd5b506102fe60048036038101906102f991906136e0565b610abc565b60405161030f9594939291906141c1565b60405180910390f35b34801561032457600080fd5b5061032d610b72565b60405161033a91906141a6565b60405180910390f35b34801561034f57600080fd5b5061036a600480360381019061036591906134fe565b610b7f565b005b34801561037857600080fd5b50610393600480360381019061038e919061374d565b610ce9565b6040516103a091906141a6565b60405180910390f35b3480156103b557600080fd5b506103d060048036038101906103cb91906134fe565b610e76565b005b3480156103de57600080fd5b506103f960048036038101906103f491906136e0565b610e86565b60405161040a959493929190613d2d565b60405180910390f35b34801561041f57600080fd5b5061043a600480360381019061043591906136e0565b610efe565b6040516104479190613c66565b60405180910390f35b34801561045c57600080fd5b50610465610f31565b6040516104729190613dd3565b60405180910390f35b34801561048757600080fd5b506104a2600480360381019061049d9190613464565b611092565b6040516104af9190613dd3565b60405180910390f35b3480156104c457600080fd5b506104df60048036038101906104da9190613464565b611129565b005b3480156104ed57600080fd5b50610508600480360381019061050391906136e0565b6111e9565b6040516105159190613c66565b60405180910390f35b34801561052a57600080fd5b5061054560048036038101906105409190613464565b61129b565b60405161055291906141a6565b60405180910390f35b34801561056757600080fd5b506105706112e4565b005b34801561057e57600080fd5b5061059960048036038101906105949190613464565b61136c565b6040516105a69190613dd3565b60405180910390f35b3480156105bb57600080fd5b506105d660048036038101906105d19190613464565b6114c6565b6040516105e39190613dd3565b60405180910390f35b3480156105f857600080fd5b5061060161164f565b60405161060e9190613c66565b60405180910390f35b34801561062357600080fd5b5061063e6004803603810190610639919061370d565b611678565b005b34801561064c57600080fd5b50610667600480360381019061066291906136e0565b611a36565b005b34801561067557600080fd5b5061067e611c8a565b60405161068b9190613e10565b60405180910390f35b3480156106a057600080fd5b506106bb60048036038101906106b691906136e0565b611cc7565b6040516106cc9594939291906141c1565b60405180910390f35b3480156106e157600080fd5b506106fc60048036038101906106f791906135d9565b611d7d565b005b34801561070a57600080fd5b50610725600480360381019061072091906136e0565b611ee9565b6040516107329190613c66565b60405180910390f35b34801561074757600080fd5b50610762600480360381019061075d9190613619565b611f1c565b005b61077e600480360381019061077991906136e0565b61201d565b005b34801561078c57600080fd5b506107956123a3565b6040516107a291906141a6565b60405180910390f35b3480156107b757600080fd5b506107d260048036038101906107cd9190613551565b6123a8565b005b3480156107e057600080fd5b506107fb60048036038101906107f691906136e0565b612516565b60405161080891906141a6565b60405180910390f35b34801561081d57600080fd5b506108386004803603810190610833919061370d565b612608565b60405161084591906141a6565b60405180910390f35b34801561085a57600080fd5b50610875600480360381019061087091906134be565b612724565b6040516108829190613df5565b60405180910390f35b34801561089757600080fd5b506108a06127b8565b6040516108ad91906141a6565b60405180910390f35b3480156108c257600080fd5b506108dd60048036038101906108d89190613464565b6127be565b005b60006380ac58cd60e01b7bffffffffffffffffffffffffffffffffffffffffffffffffffffffff1916827bffffffffffffffffffffffffffffffffffffffffffffffffffffffff1916148061097857506301ffc9a760e01b7bffffffffffffffffffffffffffffffffffffffffffffffffffffffff1916827bffffffffffffffffffffffffffffffffffffffffffffffffffffffff1916145b9050919050565b60606040518060400160405280600e81526020017f4d792043727970746f2043617473000000000000000000000000000000000000815250905090565b6000600a805490508210610a05576040517f08c379a00000000000000000000000000000000000000000000000000000000081526004016109fc90613f92565b60405180910390fd5b6003600083815260200190815260200160002060009054906101000a900473ffffffffffffffffffffffffffffffffffffffff169050919050565b610a4a33826128b6565b610a5357600080fd5b610a5d8183612922565b808273ffffffffffffffffffffffffffffffffffffffff163373ffffffffffffffffffffffffffffffffffffffff167f8c5be1e5ebec7d5bd14f71427d1e84f3dd0314c0f7b2291e5b200ac8c7c3b92560405160405180910390a45050565b600080600080600080600a8781548110610ad957610ad86145bc565b5b906000526020600020906002020190508060000160009054906101000a900467ffffffffffffffff1667ffffffffffffffff1695508060000160089054906101000a900463ffffffff1663ffffffff16945080600001600c9054906101000a900463ffffffff1663ffffffff1693508060000160109054906101000a900461ffff1661ffff169250806001015491505091939590929450565b6000600a80549050905090565b600073ffffffffffffffffffffffffffffffffffffffff168273ffffffffffffffffffffffffffffffffffffffff161415610bef576040517f08c379a0000000000000000000000000000000000000000000000000000000008152600401610be690613eb2565b60405180910390fd5b600a805490508110610c36576040517f08c379a0000000000000000000000000000000000000000000000000000000008152600401610c2d90613f92565b60405180910390fd5b610c4083826128b6565b610c7f576040517f08c379a0000000000000000000000000000000000000000000000000000000008152600401610c7690614146565b60405180910390fd5b8273ffffffffffffffffffffffffffffffffffffffff163373ffffffffffffffffffffffffffffffffffffffff161480610cbf5750610cbe8333612724565b5b80610cd05750610ccf3382612978565b5b610cd957600080fd5b610ce48383836129e4565b505050565b6000806040518060a001604052804267ffffffffffffffff1681526020018863ffffffff1681526020018763ffffffff1681526020018661ffff168152602001858152509050600a81908060018154018082558091505060019003906000526020600020906002020160009091909190915060008201518160000160006101000a81548167ffffffffffffffff021916908367ffffffffffffffff16021790555060208201518160000160086101000a81548163ffffffff021916908363ffffffff160217905550604082015181600001600c6101000a81548163ffffffff021916908363ffffffff16021790555060608201518160000160106101000a81548161ffff021916908361ffff16021790555060808201518160010155505060006001600a80549050610e1b9190614366565b90507f0a5311bd2a6608f08a180df2ee7c5946819a649b204b554bb8e39825b2c50ad584828a8a89604051610e54959493929190613d80565b60405180910390a1610e68600085836129e4565b809250505095945050505050565b610e81838383610e76565b505050565b600080600080600080600c600088815260200190815260200160002090508060000160009054906101000a900473ffffffffffffffffffffffffffffffffffffffff168160010154826002015483600301548460040160009054906101000a900460ff16955095509550955095505091939590929450565b60036020528060005260406000206000915054906101000a900473ffffffffffffffffffffffffffffffffffffffff1681565b60606000600e8054905090506000811415610f9857600067ffffffffffffffff811115610f6157610f606145eb565b5b604051908082528060200260200182016040528015610f8f5781602001602082028036833780820191505090505b5091505061108f565b60008167ffffffffffffffff811115610fb457610fb36145eb565b5b604051908082528060200260200182016040528015610fe25781602001602082028036833780820191505090505b50905060005b828110156110885760011515600e8281548110611008576110076145bc565b5b906000526020600020906005020160040160009054906101000a900460ff161515141561107557600e8181548110611043576110426145bc565b5b906000526020600020906005020160030154828281518110611068576110676145bc565b5b6020026020010181815250505b808061108090614484565b915050610fe8565b8193505050505b90565b6060600560008373ffffffffffffffffffffffffffffffffffffffff1673ffffffffffffffffffffffffffffffffffffffff16815260200190815260200160002080548060200260200160405190810160405280929190818152602001828054801561111d57602002820191906000526020600020905b815481526020019060010190808311611109575b50505050509050919050565b611131612c1f565b73ffffffffffffffffffffffffffffffffffffffff1661114f61164f565b73ffffffffffffffffffffffffffffffffffffffff16146111a5576040517f08c379a000000000000000000000000000000000000000000000000000000000815260040161119c9061406a565b60405180910390fd5b80600b60006101000a81548173ffffffffffffffffffffffffffffffffffffffff021916908373ffffffffffffffffffffffffffffffffffffffff16021790555050565b6000806001600084815260200190815260200160002060009054906101000a900473ffffffffffffffffffffffffffffffffffffffff169050600073ffffffffffffffffffffffffffffffffffffffff168173ffffffffffffffffffffffffffffffffffffffff161415611292576040517f08c379a000000000000000000000000000000000000000000000000000000000815260040161128990613fb2565b60405180910390fd5b80915050919050565b6000600260008373ffffffffffffffffffffffffffffffffffffffff1673ffffffffffffffffffffffffffffffffffffffff168152602001908152602001600020549050919050565b6112ec612c1f565b73ffffffffffffffffffffffffffffffffffffffff1661130a61164f565b73ffffffffffffffffffffffffffffffffffffffff1614611360576040517f08c379a00000000000000000000000000000000000000000000000000000000081526004016113579061406a565b60405180910390fd5b61136a6000612c27565b565b606060006113798361129b565b905060008114156113d657600067ffffffffffffffff81111561139f5761139e6145eb565b5b6040519080825280602002602001820160405280156113cd5781602001602082028036833780820191505090505b509150506114c1565b60008167ffffffffffffffff8111156113f2576113f16145eb565b5b6040519080825280602002602001820160405280156114205781602001602082028036833780820191505090505b50905060006009549050600080600090505b828110156114b8578673ffffffffffffffffffffffffffffffffffffffff1661145a826111e9565b73ffffffffffffffffffffffffffffffffffffffff1614156114a5578084838151811061148a576114896145bc565b5b60200260200101818152505081806114a190614484565b9250505b80806114b090614484565b915050611432565b83955050505050505b919050565b606060006114d38361129b565b9050600081141561153057600067ffffffffffffffff8111156114f9576114f86145eb565b5b6040519080825280602002602001820160405280156115275781602001602082028036833780820191505090505b5091505061164a565b60008167ffffffffffffffff81111561154c5761154b6145eb565b5b60405190808252806020026020018201604052801561157a5781602001602082028036833780820191505090505b5090506000611587610b72565b9050600080600190505b828111611641578673ffffffffffffffffffffffffffffffffffffffff166001600083815260200190815260200160002060009054906101000a900473ffffffffffffffffffffffffffffffffffffffff1673ffffffffffffffffffffffffffffffffffffffff16141561162e5780848381518110611613576116126145bc565b5b602002602001018181525050818061162a90614484565b9250505b808061163990614484565b915050611591565b83955050505050505b919050565b60008060009054906101000a900473ffffffffffffffffffffffffffffffffffffffff16905090565b661ff973cafa800082116116c1576040517f08c379a00000000000000000000000000000000000000000000000000000000081526004016116b890613ef2565b60405180910390fd5b60001515600c600083815260200190815260200160002060040160009054906101000a900460ff1615151461172b576040517f08c379a000000000000000000000000000000000000000000000000000000000815260040161172290614126565b60405180910390fd5b6117353382612ceb565b611774576040517f08c379a000000000000000000000000000000000000000000000000000000000815260040161176b906140e6565b60405180910390fd5b600b60009054906101000a900473ffffffffffffffffffffffffffffffffffffffff1673ffffffffffffffffffffffffffffffffffffffff1663e985e9c533306040518363ffffffff1660e01b81526004016117d1929190613cb8565b60206040518083038186803b1580156117e957600080fd5b505afa1580156117fd573d6000803e3d6000fd5b505050506040513d601f19601f820116820180604052508101906118219190613659565b611860576040517f08c379a000000000000000000000000000000000000000000000000000000000815260040161185790613e32565b60405180910390fd5b60006040518060a001604052803373ffffffffffffffffffffffffffffffffffffffff168152602001848152602001600e80549050815260200183815260200160011515815250905080600c600084815260200190815260200160002060008201518160000160006101000a81548173ffffffffffffffffffffffffffffffffffffffff021916908373ffffffffffffffffffffffffffffffffffffffff16021790555060208201518160010155604082015181600201556060820151816003015560808201518160040160006101000a81548160ff021916908315150217905550905050600e81908060018154018082558091505060019003906000526020600020906005020160009091909190915060008201518160000160006101000a81548173ffffffffffffffffffffffffffffffffffffffff021916908373ffffffffffffffffffffffffffffffffffffffff16021790555060208201518160010155604082015181600201556060820151816003015560808201518160040160006101000a81548160ff02191690831515021790555050507fd99e4fad9ad6313b1feb588fa8e605e3a9873172f2024330c35dd2b4041a43863383604051611a29929190613ff2565b60405180910390a1505050565b611a4033826128b6565b611a7f576040517f08c379a0000000000000000000000000000000000000000000000000000000008152600401611a7690614106565b60405180910390fd5b6000600c60008381526020019081526020016000206040518060a00160405290816000820160009054906101000a900473ffffffffffffffffffffffffffffffffffffffff1673ffffffffffffffffffffffffffffffffffffffff1673ffffffffffffffffffffffffffffffffffffffff1681526020016001820154815260200160028201548152602001600382015481526020016004820160009054906101000a900460ff16151515158152505090503373ffffffffffffffffffffffffffffffffffffffff16816000015173ffffffffffffffffffffffffffffffffffffffff1614611ba2576040517f08c379a0000000000000000000000000000000000000000000000000000000008152600401611b9990614166565b60405180910390fd5b600c6000838152602001908152602001600020600080820160006101000a81549073ffffffffffffffffffffffffffffffffffffffff02191690556001820160009055600282016000905560038201600090556004820160006101000a81549060ff021916905550506000600e826040015181548110611c2557611c246145bc565b5b906000526020600020906005020160040160006101000a81548160ff0219169083151502179055507fd99e4fad9ad6313b1feb588fa8e605e3a9873172f2024330c35dd2b4041a43863383604051611c7e92919061408a565b60405180910390a15050565b60606040518060400160405280600481526020017f4d43524300000000000000000000000000000000000000000000000000000000815250905090565b600080600080600080600a8781548110611ce457611ce36145bc565b5b906000526020600020906002020190508060000160009054906101000a900467ffffffffffffffff1667ffffffffffffffff168160000160089054906101000a900463ffffffff1663ffffffff1682600001600c9054906101000a900463ffffffff1663ffffffff168360000160109054906101000a900461ffff1661ffff168460010154955095509550955095505091939590929450565b3373ffffffffffffffffffffffffffffffffffffffff168273ffffffffffffffffffffffffffffffffffffffff161415611dec576040517f08c379a0000000000000000000000000000000000000000000000000000000008152600401611de390614186565b60405180910390fd5b80600460003373ffffffffffffffffffffffffffffffffffffffff1673ffffffffffffffffffffffffffffffffffffffff16815260200190815260200160002060008473ffffffffffffffffffffffffffffffffffffffff1673ffffffffffffffffffffffffffffffffffffffff16815260200190815260200160002060006101000a81548160ff0219169083151502179055508173ffffffffffffffffffffffffffffffffffffffff163373ffffffffffffffffffffffffffffffffffffffff167f17307eab39ab6107e8899845ad3d59bd9653f200f220920489ca2b5937696c3183604051611edd9190613df5565b60405180910390a35050565b60016020528060005260406000206000915054906101000a900473ffffffffffffffffffffffffffffffffffffffff1681565b600073ffffffffffffffffffffffffffffffffffffffff168273ffffffffffffffffffffffffffffffffffffffff161415611f8c576040517f08c379a0000000000000000000000000000000000000000000000000000000008152600401611f8390613f12565b60405180910390fd5b3073ffffffffffffffffffffffffffffffffffffffff168273ffffffffffffffffffffffffffffffffffffffff161415611ffb576040517f08c379a0000000000000000000000000000000000000000000000000000000008152600401611ff290613e92565b60405180910390fd5b61200533826128b6565b61200e57600080fd5b6120193383836129e4565b5050565b6000600c60008381526020019081526020016000206040518060a00160405290816000820160009054906101000a900473ffffffffffffffffffffffffffffffffffffffff1673ffffffffffffffffffffffffffffffffffffffff1673ffffffffffffffffffffffffffffffffffffffff1681526020016001820154815260200160028201548152602001600382015481526020016004820160009054906101000a900460ff161515151581525050905080602001513414612114576040517f08c379a000000000000000000000000000000000000000000000000000000000815260040161210b90613fd2565b60405180910390fd5b60011515600c600084815260200190815260200160002060040160009054906101000a900460ff1615151461217e576040517f08c379a000000000000000000000000000000000000000000000000000000000815260040161217590613e52565b60405180910390fd5b600c6000838152602001908152602001600020600080820160006101000a81549073ffffffffffffffffffffffffffffffffffffffff02191690556001820160009055600282016000905560038201600090556004820160006101000a81549060ff021916905550506000600e826040015181548110612201576122006145bc565b5b906000526020600020906005020160040160006101000a81548160ff02191690831515021790555060008160200151111561228657806000015173ffffffffffffffffffffffffffffffffffffffff166108fc82602001519081150290604051600060405180830381858888f19350505050158015612284573d6000803e3d6000fd5b505b600b60009054906101000a900473ffffffffffffffffffffffffffffffffffffffff1673ffffffffffffffffffffffffffffffffffffffff166323b872dd826000015133856040518463ffffffff1660e01b81526004016122e993929190613c81565b600060405180830381600087803b15801561230357600080fd5b505af1158015612317573d6000803e3d6000fd5b50505050806000015173ffffffffffffffffffffffffffffffffffffffff166108fc349081150290604051600060405180830381858888f19350505050158015612365573d6000803e3d6000fd5b507fd99e4fad9ad6313b1feb588fa8e605e3a9873172f2024330c35dd2b4041a4386338360405161239792919061402e565b60405180910390a15050565b600a81565b600073ffffffffffffffffffffffffffffffffffffffff168473ffffffffffffffffffffffffffffffffffffffff161415612418576040517f08c379a000000000000000000000000000000000000000000000000000000000815260040161240f906140c6565b60405180910390fd5b600a80549050831061245f576040517f08c379a000000000000000000000000000000000000000000000000000000000815260040161245690613f52565b60405180910390fd5b61246985846128b6565b6124a8576040517f08c379a000000000000000000000000000000000000000000000000000000000815260040161249f90613f32565b60405180910390fd5b8473ffffffffffffffffffffffffffffffffffffffff163373ffffffffffffffffffffffffffffffffffffffff1614806124e857506124e78585612724565b5b806124f957506124f83384612978565b5b61250257600080fd5b61250f8585858585612dce565b5050505050565b6000612520612c1f565b73ffffffffffffffffffffffffffffffffffffffff1661253e61164f565b73ffffffffffffffffffffffffffffffffffffffff1614612594576040517f08c379a000000000000000000000000000000000000000000000000000000000815260040161258b9061406a565b60405180910390fd5b600a60065411156125da576040517f08c379a00000000000000000000000000000000000000000000000000000000081526004016125d190613ed2565b60405180910390fd5b600660008154809291906125ed90614484565b919050555061260160008060008533610ce9565b9050919050565b600061261433846128b6565b8015612626575061262533836128b6565b5b612665576040517f08c379a000000000000000000000000000000000000000000000000000000000815260040161265c90613f72565b60405180910390fd5b60008061267185611cc7565b9450505050915060008061268486611cc7565b945050505091506126958483612e39565b6007819055506000818410156126c8576001826126b29190614285565b90506002816126c191906142db565b9050612704565b818411156126f3576001846126dd9190614285565b90506002816126ec91906142db565b9050612703565b6001846127009190614285565b90505b5b61271387898360075433610ce9565b506007549550505050505092915050565b6000600460008473ffffffffffffffffffffffffffffffffffffffff1673ffffffffffffffffffffffffffffffffffffffff16815260200190815260200160002060008373ffffffffffffffffffffffffffffffffffffffff1673ffffffffffffffffffffffffffffffffffffffff16815260200190815260200160002060009054906101000a900460ff16905092915050565b60065481565b6127c6612c1f565b73ffffffffffffffffffffffffffffffffffffffff166127e461164f565b73ffffffffffffffffffffffffffffffffffffffff161461283a576040517f08c379a00000000000000000000000000000000000000000000000000000000081526004016128319061406a565b60405180910390fd5b600073ffffffffffffffffffffffffffffffffffffffff168173ffffffffffffffffffffffffffffffffffffffff1614156128aa576040517f08c379a00000000000000000000000000000000000000000000000000000000081526004016128a190613e72565b60405180910390fd5b6128b381612c27565b50565b60008273ffffffffffffffffffffffffffffffffffffffff166001600084815260200190815260200160002060009054906101000a900473ffffffffffffffffffffffffffffffffffffffff1673ffffffffffffffffffffffffffffffffffffffff1614905092915050565b806003600084815260200190815260200160002060006101000a81548173ffffffffffffffffffffffffffffffffffffffff021916908373ffffffffffffffffffffffffffffffffffffffff1602179055505050565b60008273ffffffffffffffffffffffffffffffffffffffff166003600084815260200190815260200160002060009054906101000a900473ffffffffffffffffffffffffffffffffffffffff1673ffffffffffffffffffffffffffffffffffffffff1614905092915050565b6001600260008473ffffffffffffffffffffffffffffffffffffffff1673ffffffffffffffffffffffffffffffffffffffff1681526020019081526020016000206000828254612a349190614285565b92505081905550816001600083815260200190815260200160002060006101000a81548173ffffffffffffffffffffffffffffffffffffffff021916908373ffffffffffffffffffffffffffffffffffffffff160217905550600560008373ffffffffffffffffffffffffffffffffffffffff1673ffffffffffffffffffffffffffffffffffffffff168152602001908152602001600020819080600181540180825580915050600190039060005260206000200160009091909190915055600073ffffffffffffffffffffffffffffffffffffffff168373ffffffffffffffffffffffffffffffffffffffff1614612bbf576001600260008573ffffffffffffffffffffffffffffffffffffffff1673ffffffffffffffffffffffffffffffffffffffff1681526020019081526020016000206000828254612b779190614366565b92505081905550612b888382612fdc565b6001600082815260200190815260200160002060006101000a81549073ffffffffffffffffffffffffffffffffffffffff02191690555b808273ffffffffffffffffffffffffffffffffffffffff163373ffffffffffffffffffffffffffffffffffffffff167fddf252ad1be2c89b69c2b068fc378daa952ba7f163c4a11628f55a4df523b3ef60405160405180910390a4505050565b600033905090565b60008060009054906101000a900473ffffffffffffffffffffffffffffffffffffffff169050816000806101000a81548173ffffffffffffffffffffffffffffffffffffffff021916908373ffffffffffffffffffffffffffffffffffffffff1602179055508173ffffffffffffffffffffffffffffffffffffffff168173ffffffffffffffffffffffffffffffffffffffff167f8be0079c531659141344cd1fd0a4f28419497f9722a3daafe3b4186f6b6457e060405160405180910390a35050565b60008273ffffffffffffffffffffffffffffffffffffffff16600b60009054906101000a900473ffffffffffffffffffffffffffffffffffffffff1673ffffffffffffffffffffffffffffffffffffffff16636352211e846040518263ffffffff1660e01b8152600401612d5f91906141a6565b60206040518083038186803b158015612d7757600080fd5b505afa158015612d8b573d6000803e3d6000fd5b505050506040513d601f19601f82011682018060405250810190612daf9190613491565b73ffffffffffffffffffffffffffffffffffffffff1614905092915050565b612dd98585856129e4565b612e2985858585858080601f016020809104026020016040519081016040528093929190818152602001838380828437600081840152601f19601f82011690508083019250505050505050613225565b612e3257600080fd5b5050505050565b6000612e43613358565b600060ff42612e5291906144cd565b9050600060019050600060079050600191505b60808211612f22576000828460ff161614612eab57606486612e8791906144cd565b60ff16848260088110612e9d57612e9c6145bc565b5b602002018181525050612ed8565b606487612eb891906144cd565b60ff16848260088110612ece57612ecd6145bc565b5b6020020181815250505b606486612ee591906142db565b9550606487612ef491906142db565b965060808214612f0e57600181612f0b9190614366565b90505b600282612f1b919061430c565b9150612e65565b6000600784612f3191906144fe565b9050606384612f4091906144fe565b60ff16858260ff1660088110612f5957612f586145bc565b5b602002018181525050600092505b6008831015612fcc57848360088110612f8357612f826145bc565b5b6020020151600854612f959190614285565b60088190555060078314612fb9576064600854612fb2919061430c565b6008819055505b8280612fc490614484565b935050612f67565b6008549550505050505092915050565b6000600560008473ffffffffffffffffffffffffffffffffffffffff1673ffffffffffffffffffffffffffffffffffffffff1681526020019081526020016000206001600560008673ffffffffffffffffffffffffffffffffffffffff1673ffffffffffffffffffffffffffffffffffffffff1681526020019081526020016000208054905061306c9190614366565b8154811061307d5761307c6145bc565b5b9060005260206000200154905060005b6001600560008673ffffffffffffffffffffffffffffffffffffffff1673ffffffffffffffffffffffffffffffffffffffff168152602001908152602001600020805490506130dc9190614366565b81101561321f5782600560008673ffffffffffffffffffffffffffffffffffffffff1673ffffffffffffffffffffffffffffffffffffffff1681526020019081526020016000208281548110613135576131346145bc565b5b9060005260206000200154141561320c5781600560008673ffffffffffffffffffffffffffffffffffffffff1673ffffffffffffffffffffffffffffffffffffffff1681526020019081526020016000208281548110613198576131976145bc565b5b9060005260206000200181905550600560008573ffffffffffffffffffffffffffffffffffffffff1673ffffffffffffffffffffffffffffffffffffffff1681526020019081526020016000208054806131f5576131f461458d565b5b600190038181906000526020600020016000905590555b808061321790614484565b91505061308d565b50505050565b60006132308461333f565b61323d5760019050613337565b60008473ffffffffffffffffffffffffffffffffffffffff1663150b7a02338887876040518563ffffffff1660e01b815260040161327e9493929190613ce1565b602060405180830381600087803b15801561329857600080fd5b505af11580156132ac573d6000803e3d6000fd5b505050506040513d601f19601f820116820180604052508101906132d091906136b3565b90507f150b7a023d4804d13e8c85fb27262cb750cf6ba9f9dd3bb30d90f482ceeb4b1f7bffffffffffffffffffffffffffffffffffffffffffffffffffffffff1916817bffffffffffffffffffffffffffffffffffffffffffffffffffffffff1916149150505b949350505050565b600080823b905060008163ffffffff1611915050919050565b604051806101000160405280600890602082028036833780820191505090505090565b60008135905061338a81614be7565b92915050565b60008151905061339f81614be7565b92915050565b6000813590506133b481614bfe565b92915050565b6000815190506133c981614bfe565b92915050565b6000813590506133de81614c15565b92915050565b6000815190506133f381614c15565b92915050565b60008083601f84011261340f5761340e61461f565b5b8235905067ffffffffffffffff81111561342c5761342b61461a565b5b60208301915083600182028301111561344857613447614624565b5b9250929050565b60008135905061345e81614c2c565b92915050565b60006020828403121561347a5761347961462e565b5b60006134888482850161337b565b91505092915050565b6000602082840312156134a7576134a661462e565b5b60006134b584828501613390565b91505092915050565b600080604083850312156134d5576134d461462e565b5b60006134e38582860161337b565b92505060206134f48582860161337b565b9150509250929050565b6000806000606084860312156135175761351661462e565b5b60006135258682870161337b565b93505060206135368682870161337b565b92505060406135478682870161344f565b9150509250925092565b60008060008060006080868803121561356d5761356c61462e565b5b600061357b8882890161337b565b955050602061358c8882890161337b565b945050604061359d8882890161344f565b935050606086013567ffffffffffffffff8111156135be576135bd614629565b5b6135ca888289016133f9565b92509250509295509295909350565b600080604083850312156135f0576135ef61462e565b5b60006135fe8582860161337b565b925050602061360f858286016133a5565b9150509250929050565b600080604083850312156136305761362f61462e565b5b600061363e8582860161337b565b925050602061364f8582860161344f565b9150509250929050565b60006020828403121561366f5761366e61462e565b5b600061367d848285016133ba565b91505092915050565b60006020828403121561369c5761369b61462e565b5b60006136aa848285016133cf565b91505092915050565b6000602082840312156136c9576136c861462e565b5b60006136d7848285016133e4565b91505092915050565b6000602082840312156136f6576136f561462e565b5b60006137048482850161344f565b91505092915050565b600080604083850312156137245761372361462e565b5b60006137328582860161344f565b92505060206137438582860161344f565b9150509250929050565b600080600080600060a086880312156137695761376861462e565b5b60006137778882890161344f565b95505060206137888882890161344f565b94505060406137998882890161344f565b93505060606137aa8882890161344f565b92505060806137bb8882890161337b565b9150509295509295909350565b60006137d48383613c48565b60208301905092915050565b6137e98161441b565b82525050565b6137f88161439a565b82525050565b600061380982614224565b6138138185614252565b935061381e83614214565b8060005b8381101561384f57815161383688826137c8565b975061384183614245565b925050600181019050613822565b5085935050505092915050565b613865816143ac565b82525050565b60006138768261422f565b6138808185614263565b9350613890818560208601614451565b61389981614633565b840191505092915050565b60006138af8261423a565b6138b98185614274565b93506138c9818560208601614451565b6138d281614633565b840191505092915050565b60006138ea602c83614274565b91506138f582614644565b604082019050919050565b600061390d601783614274565b915061391882614693565b602082019050919050565b6000613930602683614274565b915061393b826146bc565b604082019050919050565b6000613953601c83614274565b915061395e8261470b565b602082019050919050565b6000613976602083614274565b915061398182614734565b602082019050919050565b6000613999602e83614274565b91506139a48261475d565b604082019050919050565b60006139bc602583614274565b91506139c7826147ac565b604082019050919050565b60006139df602483614274565b91506139ea826147fb565b604082019050919050565b6000613a02602583614274565b9150613a0d8261484a565b604082019050919050565b6000613a25601483614274565b9150613a3082614899565b602082019050919050565b6000613a48602a83614274565b9150613a53826148c2565b604082019050919050565b6000613a6b601083614274565b9150613a7682614911565b602082019050919050565b6000613a8e602983614274565b9150613a998261493a565b604082019050919050565b6000613ab1601483614274565b9150613abc82614989565b602082019050919050565b6000613ad4600c83614274565b9150613adf826149b2565b602082019050919050565b6000613af7600383614274565b9150613b02826149db565b602082019050919050565b6000613b1a602083614274565b9150613b2582614a04565b602082019050919050565b6000613b3d600c83614274565b9150613b4882614a2d565b602082019050919050565b6000613b60601d83614274565b9150613b6b82614a56565b602082019050919050565b6000613b83602083614274565b9150613b8e82614a7f565b602082019050919050565b6000613ba6601c83614274565b9150613bb182614aa8565b602082019050919050565b6000613bc9602483614274565b9150613bd482614ad1565b604082019050919050565b6000613bec601383614274565b9150613bf782614b20565b602082019050919050565b6000613c0f603f83614274565b9150613c1a82614b49565b604082019050919050565b6000613c32603083614274565b9150613c3d82614b98565b604082019050919050565b613c5181614404565b82525050565b613c6081614404565b82525050565b6000602082019050613c7b60008301846137ef565b92915050565b6000606082019050613c9660008301866137e0565b613ca360208301856137ef565b613cb06040830184613c57565b949350505050565b6000604082019050613ccd60008301856137ef565b613cda60208301846137ef565b9392505050565b6000608082019050613cf660008301876137ef565b613d0360208301866137ef565b613d106040830185613c57565b8181036060830152613d22818461386b565b905095945050505050565b600060a082019050613d4260008301886137ef565b613d4f6020830187613c57565b613d5c6040830186613c57565b613d696060830185613c57565b613d76608083018461385c565b9695505050505050565b600060a082019050613d9560008301886137ef565b613da26020830187613c57565b613daf6040830186613c57565b613dbc6060830185613c57565b613dc96080830184613c57565b9695505050505050565b60006020820190508181036000830152613ded81846137fe565b905092915050565b6000602082019050613e0a600083018461385c565b92915050565b60006020820190508181036000830152613e2a81846138a4565b905092915050565b60006020820190508181036000830152613e4b816138dd565b9050919050565b60006020820190508181036000830152613e6b81613900565b9050919050565b60006020820190508181036000830152613e8b81613923565b9050919050565b60006020820190508181036000830152613eab81613946565b9050919050565b60006020820190508181036000830152613ecb81613969565b9050919050565b60006020820190508181036000830152613eeb8161398c565b9050919050565b60006020820190508181036000830152613f0b816139af565b9050919050565b60006020820190508181036000830152613f2b816139d2565b9050919050565b60006020820190508181036000830152613f4b816139f5565b9050919050565b60006020820190508181036000830152613f6b81613a18565b9050919050565b60006020820190508181036000830152613f8b81613a3b565b9050919050565b60006020820190508181036000830152613fab81613a5e565b9050919050565b60006020820190508181036000830152613fcb81613a81565b9050919050565b60006020820190508181036000830152613feb81613aa4565b9050919050565b6000606082019050818103600083015261400b81613ac7565b905061401a60208301856137ef565b6140276040830184613c57565b9392505050565b6000606082019050818103600083015261404781613aea565b905061405660208301856137ef565b6140636040830184613c57565b9392505050565b6000602082019050818103600083015261408381613b0d565b9050919050565b600060608201905081810360008301526140a381613b30565b90506140b260208301856137ef565b6140bf6040830184613c57565b9392505050565b600060208201905081810360008301526140df81613b53565b9050919050565b600060208201905081810360008301526140ff81613b76565b9050919050565b6000602082019050818103600083015261411f81613b99565b9050919050565b6000602082019050818103600083015261413f81613bbc565b9050919050565b6000602082019050818103600083015261415f81613bdf565b9050919050565b6000602082019050818103600083015261417f81613c02565b9050919050565b6000602082019050818103600083015261419f81613c25565b9050919050565b60006020820190506141bb6000830184613c57565b92915050565b600060a0820190506141d66000830188613c57565b6141e36020830187613c57565b6141f06040830186613c57565b6141fd6060830185613c57565b61420a6080830184613c57565b9695505050505050565b6000819050602082019050919050565b600081519050919050565b600081519050919050565b600081519050919050565b6000602082019050919050565b600082825260208201905092915050565b600082825260208201905092915050565b600082825260208201905092915050565b600061429082614404565b915061429b83614404565b9250827fffffffffffffffffffffffffffffffffffffffffffffffffffffffffffffffff038211156142d0576142cf61452f565b5b828201905092915050565b60006142e682614404565b91506142f183614404565b9250826143015761430061455e565b5b828204905092915050565b600061431782614404565b915061432283614404565b9250817fffffffffffffffffffffffffffffffffffffffffffffffffffffffffffffffff048311821515161561435b5761435a61452f565b5b828202905092915050565b600061437182614404565b915061437c83614404565b92508282101561438f5761438e61452f565b5b828203905092915050565b60006143a5826143e4565b9050919050565b60008115159050919050565b60007fffffffff0000000000000000000000000000000000000000000000000000000082169050919050565b600073ffffffffffffffffffffffffffffffffffffffff82169050919050565b6000819050919050565b600060ff82169050919050565b60006144268261442d565b9050919050565b60006144388261443f565b9050919050565b600061444a826143e4565b9050919050565b60005b8381101561446f578082015181840152602081019050614454565b8381111561447e576000848401525b50505050565b600061448f82614404565b91507fffffffffffffffffffffffffffffffffffffffffffffffffffffffffffffffff8214156144c2576144c161452f565b5b600182019050919050565b60006144d882614404565b91506144e383614404565b9250826144f3576144f261455e565b5b828206905092915050565b60006145098261440e565b91506145148361440e565b9250826145245761452361455e565b5b828206905092915050565b7f4e487b7100000000000000000000000000000000000000000000000000000000600052601160045260246000fd5b7f4e487b7100000000000000000000000000000000000000000000000000000000600052601260045260246000fd5b7f4e487b7100000000000000000000000000000000000000000000000000000000600052603160045260246000fd5b7f4e487b7100000000000000000000000000000000000000000000000000000000600052603260045260246000fd5b7f4e487b7100000000000000000000000000000000000000000000000000000000600052604160045260246000fd5b600080fd5b600080fd5b600080fd5b600080fd5b600080fd5b6000601f19601f8301169050919050565b7f436f6e7472616374206e6565647320617070726f76616c20666f72206675747560008201527f7265207472616e73666572730000000000000000000000000000000000000000602082015250565b7f4e6f20616374697665206f726465722070726573656e74000000000000000000600082015250565b7f4f776e61626c653a206e6577206f776e657220697320746865207a65726f206160008201527f6464726573730000000000000000000000000000000000000000000000000000602082015250565b7f7472616e7366657220746f20746865207a65726f206164647265737300000000600082015250565b7f546f2061646472657373206973206e6f742061207a65726f2061646472657373600082015250565b7f47656e20302073686f756c64206265206c657373207468616e2063726561746960008201527f6f6e206c696d69742067656e2030000000000000000000000000000000000000602082015250565b7f4361742070726963652073686f756c642062652067726561746572207468616e60008201527f20302e3031000000000000000000000000000000000000000000000000000000602082015250565b7f4552433732313a207472616e7366657220746f20746865207a65726f2061646460008201527f7265737300000000000000000000000000000000000000000000000000000000602082015250565b7f4e6f7420612076616c6964204e46542c206e6f7420746865206f776e6572206f60008201527f66204e4654000000000000000000000000000000000000000000000000000000602082015250565b7f546f6b656e20646f6573206e6f74206578697374000000000000000000000000600082015250565b7f596f75206d75737420626520746865206f776e6572206f6620626f7468206f6660008201527f20796f7572206361747300000000000000000000000000000000000000000000602082015250565b7f546f6b656e206d75737420657869737400000000000000000000000000000000600082015250565b7f4552433732313a206f776e657220717565727920666f72206e6f6e657869737460008201527f656e7420746f6b656e0000000000000000000000000000000000000000000000602082015250565b7f54686520707269636520697320636f7272656374000000000000000000000000600082015250565b7f437265617465206f666665720000000000000000000000000000000000000000600082015250565b7f4275790000000000000000000000000000000000000000000000000000000000600082015250565b7f4f776e61626c653a2063616c6c6572206973206e6f7420746865206f776e6572600082015250565b7f52656d6f7665206f666665720000000000000000000000000000000000000000600082015250565b7f4d757374207472616e7366657220746f207a65726f2061646472657373000000600082015250565b7f596f7520617265206e6f7420746865206f776e65722074686174206b69747479600082015250565b7f5573657220646f6573206e6f74206f776e207468697320746f6b656e00000000600082015250565b7f596f752063616e27742073656c6c207477696365207468652073616d65206f6660008201527f6665727300000000000000000000000000000000000000000000000000000000602082015250565b7f46726f6d206f776e732074686520746f6b656e00000000000000000000000000600082015250565b7f54686973206173736574206d757374206265206f776e6564206279207468652060008201527f73656c6c657220696e206f7264657220746f2072656d6f7665206f6666657200602082015250565b7f4552433732313a20617070726f766520746f2063616c6c65722c20796f75206160008201527f7265206e6f7420746865206f776e657200000000000000000000000000000000602082015250565b614bf08161439a565b8114614bfb57600080fd5b50565b614c07816143ac565b8114614c1257600080fd5b50565b614c1e816143b8565b8114614c2957600080fd5b50565b614c3581614404565b8114614c4057600080fd5b5056fea2646970667358221220925ba95137110335357876f30c54a670f64922afe98fd16214f1a5fa1a08aa7b64736f6c63430008070033",
  "immutableReferences": {},
  "source": "// SPDX-License-Identifier: MIT\r\npragma solidity ^0.8.0;\r\n\r\n//import \"@openzeppelin/contracts/access/Ownable.sol\";\r\nimport \"./kittiesContract.sol\";\r\n\r\ncontract KittyMarketPlace is myKittiesContract {\r\n\r\n  myKittiesContract private _kittyContract;\r\n\r\n  struct Offer {\r\n    address payable seller;\r\n    uint256 price;\r\n    uint256 index;\r\n    uint256 tokenId;\r\n    bool active;\r\n  }\r\n\r\n  mapping(uint256 => Offer) tokenIdToOffer;\r\n  mapping(uint256 => uint256) tokenIdToOfferId;\r\n\r\n  event MarketTransaction(string TxType, address owner, uint256 tokenId);\r\n\r\n\r\n  Offer[] offers;\r\n\r\n\r\n  function setKittyContract(address _kittyContractAddress) public onlyOwner() { // External functions read from calldata, directly || Public functions copies array arguments to memory)\r\n    _kittyContract = myKittiesContract(_kittyContractAddress);\r\n\r\n  }\r\n\r\n  constructor(address _kittyContractAddress) {\r\n        setKittyContract(_kittyContractAddress) ;\r\n    }\r\n  \r\n\r\n   function getOffer(uint256 _tokenId) external view returns (address seller, uint256 price, uint256 index, uint256 tokenId, bool active) {\r\n     Offer storage returnOffers = tokenIdToOffer[_tokenId];\r\n     return (returnOffers.seller, returnOffers.price, returnOffers.index, returnOffers.tokenId, returnOffers.active);\r\n     \r\n   }\r\n\r\n   function getAllTokenOnSale() external view returns(uint256[] memory listOfOffers) {\r\n     // this array lets us loop through the array and find all of the tokens so we can then display them all on a web page\r\n     uint256 totalOffers = offers.length;\r\n\r\n     if (totalOffers == 0) {\r\n       return new uint256[](0);\r\n     } \r\n     else {\r\n       uint256[] memory resultOfToken = new uint256[](totalOffers);\r\n\r\n       uint256 offerId; \r\n\r\n       // cannot remove inactive orders from arrays so this is the best solution thus far\r\n\r\n       for(offerId = 0; offerId < totalOffers; offerId++) {\r\n         if(offers[offerId].active == true) { // if - offers array, [offer id] -> price is true, then result is resultOfToken [offerId] equals; offers array [offerId] of tokenId\r\n         resultOfToken[offerId] = offers[offerId].tokenId;\r\n         }\r\n       }\r\n       return resultOfToken;\r\n\r\n     }\r\n   }\r\n\r\n  /*\r\n  // my version\r\n   function _ownsKitty(address _address, uint256 _tokenId) internal returns (bool) {\r\n    kittyIndexToOwner[_tokenId] = _address;\r\n    return true;\r\n   }\r\n   */\r\n\r\n  // Filip's version\r\n  function _ownsKitty(address _address, uint256 _tokenId) internal view returns (bool) {\r\n    return (_kittyContract.ownerOf(_tokenId) == _address);\r\n  }\r\n\r\n\r\n   /*\r\n    *   We give the contract the ability to transfer kitties\r\n    *   As the kitties will be in the market place we need to be able to transfert them\r\n    *   We are checking if the user is owning the kitty inside the approve function\r\n    */\r\n\r\n   function setOffer(uint256 _price, uint256 _tokenId) public {\r\n     require(_price > 0.009 ether, \"Cat price should be greater than 0.01\" );\r\n     require(tokenIdToOffer[_tokenId].active == false, \"You can't sell twice the same offers\");\r\n     require (_ownsKitty(msg.sender, _tokenId), \"You are not the owner that kitty\");\r\n     // kitty contract needs to be approved for all\r\n     require(_kittyContract.isApprovedForAll(msg.sender, address(this)), \"Contract needs approval for future transfers\"); // Market Place needs to be approved as the operator\r\n\r\n     //approve(address(this), _tokenId); // from gitHub contract\r\n\r\n     Offer memory _offer = Offer({\r\n       seller: (payable(msg.sender)),\r\n       price: _price,\r\n       index: offers.length,\r\n       tokenId: _tokenId,\r\n       active: true\r\n     });\r\n\r\n    // we add new offer, this specific tokenId, to tokenIdToOffer mapping and it's pushed into the offer's array\r\n     tokenIdToOffer[_tokenId] = _offer;\r\n     offers.push(_offer);\r\n\r\n     // here, Filip created offers.length with the object's index parameter so we don't neet this function any more\r\n     //uint256 index = offers.length -1; \r\n     //tokenIdToOfferId[_tokenId] = index;\r\n\r\n     emit MarketTransaction(\"Create offer\", msg.sender, _tokenId);\r\n\r\n   }\r\n\r\n\r\n   function removeOffer(uint256 _tokenId) external {\r\n     require(_owns(msg.sender, _tokenId), \"User does not own this token\");\r\n\r\n     Offer memory offer = tokenIdToOffer[_tokenId];\r\n\r\n     require(offer.seller == msg.sender, \"This asset must be owned by the seller in order to remove offer\");\r\n\r\n    /* Remove the offer in the mapping*/\r\n     /* we set mapping to false */\r\n     // tutorial functions are different than final contract on github\r\n\r\n     //delete offers[tokenIdToOfferId[_tokenId]]; previous function\r\n     delete tokenIdToOffer[_tokenId]; //we delete tokenIdToOffer, then we set the offer in array to false\r\n     //offers[tokenIdToOfferId[_tokenId]].active == false; // mine, not sure if this works\r\n     //offers[tokenIdToOffer[_tokenId].index].active = false; // filip's functions\r\n     offers[offer.index].active = false; // cleaner from Filip\r\n\r\n     //_deleteApproval(_tokenId); filip did not use this in tutorial\r\n      emit MarketTransaction(\"Remove offer\", msg.sender, _tokenId);\r\n      \r\n   }\r\n\r\n\r\n    function buyKitty(uint256 _tokenId) public payable { // we input the offer, we get back the offer\r\n      Offer memory offer = tokenIdToOffer[_tokenId];\r\n      require(msg.value == offer.price, \"The price is correct\");\r\n      require(tokenIdToOffer[_tokenId].active == true, \"No active order present\");\r\n\r\n      /* Remove the offer in the mapping*/\r\n      \r\n      // Important: delete kitty from mapping BEFORE paying out; to prevent reentry attacks\r\n      delete tokenIdToOffer[_tokenId]; // we can delete from mapping but not from the array since it will alter the index positions\r\n\r\n      /* we set mapping to false */\r\n      offers[offer.index].active = false;\r\n\r\n      // This was in the video but not in final gitHub contract\r\n      // transfer funds to seller\r\n      // TO DO: make this pull logic instead of push\r\n      if(offer.price > 0) { // we send the funds to seller\r\n        offer.seller.transfer(offer.price);\r\n      }\r\n      \r\n      //* TMP REMOVE THIS*/\r\n      //_approve(_tokenId, msg.sender); \r\n\r\n      _kittyContract.transferFrom(offer.seller, msg.sender, _tokenId); // we send tokens to buyer: (seller, buyer, token)\r\n\r\n      offer.seller.transfer(msg.value);\r\n      emit MarketTransaction(\"Buy\", msg.sender, _tokenId);\r\n    }\r\n\r\n}",
  "sourcePath": "C:\\Users\\benX\\Documents\\ethereum_course_advanced\\myCryptoKitties_master\\contracts\\KittyMarketPlace.sol",
  "compiler": {
    "name": "solc",
    "version": "0.8.7+commit.e28d00a7.Emscripten.clang"
  },
  "schemaVersion": "3.4.2",
  "updatedAt": "2021-08-25T02:56:52.711Z",
  "networkType": "ethereum",
  "devdoc": {
    "kind": "dev",
    "methods": {
      "owner()": {
        "details": "Returns the address of the current owner."
      },
      "renounceOwnership()": {
        "details": "Leaves the contract without owner. It will not be possible to call `onlyOwner` functions anymore. Can only be called by the current owner. NOTE: Renouncing ownership will leave the contract without an owner, thereby removing any functionality that is only available to the owner."
      },
      "transferOwnership(address)": {
        "details": "Transfers ownership of the contract to a new account (`newOwner`). Can only be called by the current owner."
      }
    },
    "version": 1
  },
  "userdoc": {
    "kind": "user",
    "methods": {},
    "version": 1
  }
}