{
  "contractName": "KittyMarketPlace",
  "abi": [
    {
      "inputs": [
        {
          "internalType": "address",
          "name": "_kittyContractAddress",
          "type": "address"
        }
      ],
      "stateMutability": "nonpayable",
      "type": "constructor"
    },
    {
      "anonymous": false,
      "inputs": [
        {
          "indexed": true,
          "internalType": "address",
          "name": "owner",
          "type": "address"
        },
        {
          "indexed": true,
          "internalType": "address",
          "name": "approved",
          "type": "address"
        },
        {
          "indexed": true,
          "internalType": "uint256",
          "name": "tokenId",
          "type": "uint256"
        }
      ],
      "name": "Approval",
      "type": "event"
    },
    {
      "anonymous": false,
      "inputs": [
        {
          "indexed": true,
          "internalType": "address",
          "name": "owner",
          "type": "address"
        },
        {
          "indexed": true,
          "internalType": "address",
          "name": "operator",
          "type": "address"
        },
        {
          "indexed": false,
          "internalType": "bool",
          "name": "approved",
          "type": "bool"
        }
      ],
      "name": "ApprovalForAll",
      "type": "event"
    },
    {
      "anonymous": false,
      "inputs": [
        {
          "indexed": false,
          "internalType": "address",
          "name": "owner",
          "type": "address"
        },
        {
          "indexed": false,
          "internalType": "uint256",
          "name": "newKittenId",
          "type": "uint256"
        },
        {
          "indexed": false,
          "internalType": "uint256",
          "name": "mumId",
          "type": "uint256"
        },
        {
          "indexed": false,
          "internalType": "uint256",
          "name": "dadId",
          "type": "uint256"
        },
        {
          "indexed": false,
          "internalType": "uint256",
          "name": "genes",
          "type": "uint256"
        }
      ],
      "name": "Birth",
      "type": "event"
    },
    {
      "anonymous": false,
      "inputs": [
        {
          "indexed": false,
          "internalType": "string",
          "name": "TxType",
          "type": "string"
        },
        {
          "indexed": false,
          "internalType": "address",
          "name": "owner",
          "type": "address"
        },
        {
          "indexed": false,
          "internalType": "uint256",
          "name": "tokenId",
          "type": "uint256"
        }
      ],
      "name": "MarketTransaction",
      "type": "event"
    },
    {
      "anonymous": false,
      "inputs": [
        {
          "indexed": true,
          "internalType": "address",
          "name": "previousOwner",
          "type": "address"
        },
        {
          "indexed": true,
          "internalType": "address",
          "name": "newOwner",
          "type": "address"
        }
      ],
      "name": "OwnershipTransferred",
      "type": "event"
    },
    {
      "anonymous": false,
      "inputs": [
        {
          "indexed": true,
          "internalType": "address",
          "name": "from",
          "type": "address"
        },
        {
          "indexed": true,
          "internalType": "address",
          "name": "to",
          "type": "address"
        },
        {
          "indexed": true,
          "internalType": "uint256",
          "name": "tokenId",
          "type": "uint256"
        }
      ],
      "name": "Transfer",
      "type": "event"
    },
    {
      "inputs": [
        {
          "internalType": "uint256",
          "name": "_dadId",
          "type": "uint256"
        },
        {
          "internalType": "uint256",
          "name": "_mumId",
          "type": "uint256"
        }
      ],
      "name": "Breeding",
      "outputs": [
        {
          "internalType": "uint256",
          "name": "",
          "type": "uint256"
        }
      ],
      "stateMutability": "nonpayable",
      "type": "function"
    },
    {
      "inputs": [],
      "name": "CREATION_LIMIT_GEN0",
      "outputs": [
        {
          "internalType": "uint256",
          "name": "",
          "type": "uint256"
        }
      ],
      "stateMutability": "view",
      "type": "function",
      "constant": true
    },
    {
      "inputs": [
        {
          "internalType": "address",
          "name": "_approved",
          "type": "address"
        },
        {
          "internalType": "uint256",
          "name": "_tokenId",
          "type": "uint256"
        }
      ],
      "name": "approve",
      "outputs": [],
      "stateMutability": "nonpayable",
      "type": "function"
    },
    {
      "inputs": [
        {
          "internalType": "address",
          "name": "owner",
          "type": "address"
        }
      ],
      "name": "balanceOf",
      "outputs": [
        {
          "internalType": "uint256",
          "name": "balance",
          "type": "uint256"
        }
      ],
      "stateMutability": "view",
      "type": "function",
      "constant": true
    },
    {
      "inputs": [
        {
          "internalType": "uint256",
          "name": "_genes",
          "type": "uint256"
        }
      ],
      "name": "createKittyGen0",
      "outputs": [
        {
          "internalType": "uint256",
          "name": "",
          "type": "uint256"
        }
      ],
      "stateMutability": "nonpayable",
      "type": "function"
    },
    {
      "inputs": [],
      "name": "gen0Counter",
      "outputs": [
        {
          "internalType": "uint256",
          "name": "",
          "type": "uint256"
        }
      ],
      "stateMutability": "view",
      "type": "function",
      "constant": true
    },
    {
      "inputs": [
        {
          "internalType": "address",
          "name": "owner",
          "type": "address"
        }
      ],
      "name": "getAllCatsFor",
      "outputs": [
        {
          "internalType": "uint256[]",
          "name": "",
          "type": "uint256[]"
        }
      ],
      "stateMutability": "view",
      "type": "function",
      "constant": true
    },
    {
      "inputs": [
        {
          "internalType": "address",
          "name": "user",
          "type": "address"
        }
      ],
      "name": "getAllTokensForUser",
      "outputs": [
        {
          "internalType": "uint256[]",
          "name": "",
          "type": "uint256[]"
        }
      ],
      "stateMutability": "view",
      "type": "function",
      "constant": true
    },
    {
      "inputs": [
        {
          "internalType": "uint256",
          "name": "_tokenId",
          "type": "uint256"
        }
      ],
      "name": "getApproved",
      "outputs": [
        {
          "internalType": "address",
          "name": "",
          "type": "address"
        }
      ],
      "stateMutability": "view",
      "type": "function",
      "constant": true
    },
    {
      "inputs": [
        {
          "internalType": "uint256",
          "name": "_id",
          "type": "uint256"
        }
      ],
      "name": "getKitty",
      "outputs": [
        {
          "internalType": "uint256",
          "name": "genes",
          "type": "uint256"
        },
        {
          "internalType": "uint256",
          "name": "birthTime",
          "type": "uint256"
        },
        {
          "internalType": "uint256",
          "name": "mumId",
          "type": "uint256"
        },
        {
          "internalType": "uint256",
          "name": "dadId",
          "type": "uint256"
        },
        {
          "internalType": "uint256",
          "name": "generation",
          "type": "uint256"
        }
      ],
      "stateMutability": "view",
      "type": "function",
      "constant": true
    },
    {
      "inputs": [
        {
          "internalType": "address",
          "name": "_owner",
          "type": "address"
        },
        {
          "internalType": "address",
          "name": "_operator",
          "type": "address"
        }
      ],
      "name": "isApprovedForAll",
      "outputs": [
        {
          "internalType": "bool",
          "name": "",
          "type": "bool"
        }
      ],
      "stateMutability": "view",
      "type": "function",
      "constant": true
    },
    {
      "inputs": [
        {
          "internalType": "uint256",
          "name": "",
          "type": "uint256"
        }
      ],
      "name": "kittyIndexToApproved",
      "outputs": [
        {
          "internalType": "address",
          "name": "",
          "type": "address"
        }
      ],
      "stateMutability": "view",
      "type": "function",
      "constant": true
    },
    {
      "inputs": [
        {
          "internalType": "uint256",
          "name": "",
          "type": "uint256"
        }
      ],
      "name": "kittyIndexToOwner",
      "outputs": [
        {
          "internalType": "address",
          "name": "",
          "type": "address"
        }
      ],
      "stateMutability": "view",
      "type": "function",
      "constant": true
    },
    {
      "inputs": [
        {
          "internalType": "uint256",
          "name": "tokenId",
          "type": "uint256"
        }
      ],
      "name": "myGetKitty",
      "outputs": [
        {
          "internalType": "uint256",
          "name": "birthTime",
          "type": "uint256"
        },
        {
          "internalType": "uint256",
          "name": "mumId",
          "type": "uint256"
        },
        {
          "internalType": "uint256",
          "name": "dadId",
          "type": "uint256"
        },
        {
          "internalType": "uint256",
          "name": "generation",
          "type": "uint256"
        },
        {
          "internalType": "uint256",
          "name": "genes",
          "type": "uint256"
        }
      ],
      "stateMutability": "view",
      "type": "function",
      "constant": true
    },
    {
      "inputs": [],
      "name": "name",
      "outputs": [
        {
          "internalType": "string",
          "name": "tokenName",
          "type": "string"
        }
      ],
      "stateMutability": "pure",
      "type": "function",
      "constant": true
    },
    {
      "inputs": [],
      "name": "owner",
      "outputs": [
        {
          "internalType": "address",
          "name": "",
          "type": "address"
        }
      ],
      "stateMutability": "view",
      "type": "function",
      "constant": true
    },
    {
      "inputs": [
        {
          "internalType": "uint256",
          "name": "tokenId",
          "type": "uint256"
        }
      ],
      "name": "ownerOf",
      "outputs": [
        {
          "internalType": "address",
          "name": "owner",
          "type": "address"
        }
      ],
      "stateMutability": "view",
      "type": "function",
      "constant": true
    },
    {
      "inputs": [],
      "name": "renounceOwnership",
      "outputs": [],
      "stateMutability": "nonpayable",
      "type": "function"
    },
    {
      "inputs": [
        {
          "internalType": "address",
          "name": "_from",
          "type": "address"
        },
        {
          "internalType": "address",
          "name": "_to",
          "type": "address"
        },
        {
          "internalType": "uint256",
          "name": "_tokenId",
          "type": "uint256"
        }
      ],
      "name": "safeTransferFrom",
      "outputs": [],
      "stateMutability": "nonpayable",
      "type": "function"
    },
    {
      "inputs": [
        {
          "internalType": "address",
          "name": "_from",
          "type": "address"
        },
        {
          "internalType": "address",
          "name": "_to",
          "type": "address"
        },
        {
          "internalType": "uint256",
          "name": "_tokenId",
          "type": "uint256"
        },
        {
          "internalType": "bytes",
          "name": "data",
          "type": "bytes"
        }
      ],
      "name": "safeTransferFrom",
      "outputs": [],
      "stateMutability": "nonpayable",
      "type": "function"
    },
    {
      "inputs": [
        {
          "internalType": "address",
          "name": "_operator",
          "type": "address"
        },
        {
          "internalType": "bool",
          "name": "_approved",
          "type": "bool"
        }
      ],
      "name": "setApprovalForAll",
      "outputs": [],
      "stateMutability": "nonpayable",
      "type": "function"
    },
    {
      "inputs": [
        {
          "internalType": "bytes4",
          "name": "_interfaceId",
          "type": "bytes4"
        }
      ],
      "name": "supportsInterface",
      "outputs": [
        {
          "internalType": "bool",
          "name": "",
          "type": "bool"
        }
      ],
      "stateMutability": "pure",
      "type": "function",
      "constant": true
    },
    {
      "inputs": [],
      "name": "symbol",
      "outputs": [
        {
          "internalType": "string",
          "name": "tokenSymbol",
          "type": "string"
        }
      ],
      "stateMutability": "pure",
      "type": "function",
      "constant": true
    },
    {
      "inputs": [
        {
          "internalType": "address",
          "name": "_owner",
          "type": "address"
        }
      ],
      "name": "tokensOfOwner",
      "outputs": [
        {
          "internalType": "uint256[]",
          "name": "ownerTokens",
          "type": "uint256[]"
        }
      ],
      "stateMutability": "view",
      "type": "function",
      "constant": true
    },
    {
      "inputs": [],
      "name": "totalSupply",
      "outputs": [
        {
          "internalType": "uint256",
          "name": "total",
          "type": "uint256"
        }
      ],
      "stateMutability": "view",
      "type": "function",
      "constant": true
    },
    {
      "inputs": [
        {
          "internalType": "address",
          "name": "to",
          "type": "address"
        },
        {
          "internalType": "uint256",
          "name": "tokenId",
          "type": "uint256"
        }
      ],
      "name": "transfer",
      "outputs": [],
      "stateMutability": "nonpayable",
      "type": "function"
    },
    {
      "inputs": [
        {
          "internalType": "address",
          "name": "_from",
          "type": "address"
        },
        {
          "internalType": "address",
          "name": "_to",
          "type": "address"
        },
        {
          "internalType": "uint256",
          "name": "_tokenId",
          "type": "uint256"
        }
      ],
      "name": "transferFrom",
      "outputs": [],
      "stateMutability": "nonpayable",
      "type": "function"
    },
    {
      "inputs": [
        {
          "internalType": "address",
          "name": "newOwner",
          "type": "address"
        }
      ],
      "name": "transferOwnership",
      "outputs": [],
      "stateMutability": "nonpayable",
      "type": "function"
    },
    {
      "inputs": [
        {
          "internalType": "address",
          "name": "_kittyContractAddress",
          "type": "address"
        }
      ],
      "name": "setKittyContract",
      "outputs": [],
      "stateMutability": "nonpayable",
      "type": "function"
    },
    {
      "inputs": [
        {
          "internalType": "uint256",
          "name": "_tokenId",
          "type": "uint256"
        }
      ],
      "name": "getOffer",
      "outputs": [
        {
          "internalType": "address",
          "name": "seller",
          "type": "address"
        },
        {
          "internalType": "uint256",
          "name": "price",
          "type": "uint256"
        },
        {
          "internalType": "uint256",
          "name": "index",
          "type": "uint256"
        },
        {
          "internalType": "uint256",
          "name": "tokenId",
          "type": "uint256"
        },
        {
          "internalType": "bool",
          "name": "active",
          "type": "bool"
        }
      ],
      "stateMutability": "view",
      "type": "function",
      "constant": true
    },
    {
      "inputs": [],
      "name": "getAllTokenOnSale",
      "outputs": [
        {
          "internalType": "uint256[]",
          "name": "listOfOffers",
          "type": "uint256[]"
        }
      ],
      "stateMutability": "view",
      "type": "function",
      "constant": true
    },
    {
      "inputs": [
        {
          "internalType": "uint256",
          "name": "_price",
          "type": "uint256"
        },
        {
          "internalType": "uint256",
          "name": "_tokenId",
          "type": "uint256"
        }
      ],
      "name": "setOffer",
      "outputs": [],
      "stateMutability": "nonpayable",
      "type": "function"
    },
    {
      "inputs": [
        {
          "internalType": "uint256",
          "name": "_tokenId",
          "type": "uint256"
        }
      ],
      "name": "removeOffer",
      "outputs": [],
      "stateMutability": "nonpayable",
      "type": "function"
    },
    {
      "inputs": [
        {
          "internalType": "uint256",
          "name": "_tokenId",
          "type": "uint256"
        }
      ],
      "name": "buyKitty",
      "outputs": [],
      "stateMutability": "payable",
      "type": "function",
      "payable": true
    }
  ],
  "bytecode": "0x608060405260006007553480156200001657600080fd5b50604051620051363803806200513683398181016040528101906200003c919062000253565b6200005c620000506200007460201b60201c565b6200007c60201b60201c565b6200006d816200014060201b60201c565b506200035b565b600033905090565b60008060009054906101000a900473ffffffffffffffffffffffffffffffffffffffff169050816000806101000a81548173ffffffffffffffffffffffffffffffffffffffff021916908373ffffffffffffffffffffffffffffffffffffffff1602179055508173ffffffffffffffffffffffffffffffffffffffff168173ffffffffffffffffffffffffffffffffffffffff167f8be0079c531659141344cd1fd0a4f28419497f9722a3daafe3b4186f6b6457e060405160405180910390a35050565b620001506200007460201b60201c565b73ffffffffffffffffffffffffffffffffffffffff16620001766200021360201b60201c565b73ffffffffffffffffffffffffffffffffffffffff1614620001cf576040517f08c379a0000000000000000000000000000000000000000000000000000000008152600401620001c690620002ac565b60405180910390fd5b80600960006101000a81548173ffffffffffffffffffffffffffffffffffffffff021916908373ffffffffffffffffffffffffffffffffffffffff16021790555050565b60008060009054906101000a900473ffffffffffffffffffffffffffffffffffffffff16905090565b6000815190506200024d8162000341565b92915050565b6000602082840312156200026c576200026b62000313565b5b60006200027c848285016200023c565b91505092915050565b600062000294602083620002ce565b9150620002a18262000318565b602082019050919050565b60006020820190508181036000830152620002c78162000285565b9050919050565b600082825260208201905092915050565b6000620002ec82620002f3565b9050919050565b600073ffffffffffffffffffffffffffffffffffffffff82169050919050565b600080fd5b7f4f776e61626c653a2063616c6c6572206973206e6f7420746865206f776e6572600082015250565b6200034c81620002df565b81146200035857600080fd5b50565b614dcb806200036b6000396000f3fe6080604052600436106101f95760003560e01c80638da5cb5b1161010d578063ae5310f6116100a0578063d5a776ca1161006f578063d5a776ca14610788578063e985e9c5146107c5578063e98b7f4d14610802578063ef5e94aa14610843578063f2fde38b1461086e576101f9565b8063ae5310f6146106db578063b4834330146106f7578063b88d4fde14610722578063b921a4001461074b576101f9565b8063a090cb77116100dc578063a090cb771461060b578063a22cb4651461064c578063a45f4bfc14610675578063a9059cbb146106b2576101f9565b80638da5cb5b14610563578063941b055b1461058e57806395a0f9c7146105b757806395d89b41146105e0576101f9565b8063481af3d3116101905780636352211e1161015f5780636352211e1461045857806370a0823114610495578063715018a6146104d257806382de8fe9146104e95780638462151c14610526576101f9565b8063481af3d31461038a57806349b3709f146103c75780635a64aafa146103f257806362b7f94e1461042f576101f9565b806318160ddd116101cc57806318160ddd146102cc57806323b872dd146102f757806342842e0e146103205780634579268a14610349576101f9565b806301ffc9a7146101fe57806306fdde031461023b578063081812fc14610266578063095ea7b3146102a3575b600080fd5b34801561020a57600080fd5b506102256004803603810190610220919061370f565b610897565b6040516102329190613e6c565b60405180910390f35b34801561024757600080fd5b50610250610937565b60405161025d9190613e87565b60405180910390f35b34801561027257600080fd5b5061028d60048036038101906102889190613769565b610974565b60405161029a9190613cdd565b60405180910390f35b3480156102af57600080fd5b506102ca60048036038101906102c591906136a2565b6109f8565b005b3480156102d857600080fd5b506102e1610a74565b6040516102ee919061427d565b60405180910390f35b34801561030357600080fd5b5061031e60048036038101906103199190613587565b610a81565b005b34801561032c57600080fd5b5061034760048036038101906103429190613587565b610beb565b005b34801561035557600080fd5b50610370600480360381019061036b9190613769565b610bfb565b604051610381959493929190613da4565b60405180910390f35b34801561039657600080fd5b506103b160048036038101906103ac9190613769565b610c73565b6040516103be9190613cdd565b60405180910390f35b3480156103d357600080fd5b506103dc610ca6565b6040516103e99190613e4a565b60405180910390f35b3480156103fe57600080fd5b50610419600480360381019061041491906134ed565b610e07565b6040516104269190613e4a565b60405180910390f35b34801561043b57600080fd5b50610456600480360381019061045191906134ed565b610e9e565b005b34801561046457600080fd5b5061047f600480360381019061047a9190613769565b610f5e565b60405161048c9190613cdd565b60405180910390f35b3480156104a157600080fd5b506104bc60048036038101906104b791906134ed565b611010565b6040516104c9919061427d565b60405180910390f35b3480156104de57600080fd5b506104e7611059565b005b3480156104f557600080fd5b50610510600480360381019061050b91906134ed565b6110e1565b60405161051d9190613e4a565b60405180910390f35b34801561053257600080fd5b5061054d600480360381019061054891906134ed565b61123b565b60405161055a9190613e4a565b60405180910390f35b34801561056f57600080fd5b506105786113c4565b6040516105859190613cdd565b60405180910390f35b34801561059a57600080fd5b506105b560048036038101906105b09190613796565b6113ed565b005b3480156105c357600080fd5b506105de60048036038101906105d99190613769565b6117ab565b005b3480156105ec57600080fd5b506105f56119ff565b6040516106029190613e87565b60405180910390f35b34801561061757600080fd5b50610632600480360381019061062d9190613769565b611a3c565b604051610643959493929190614298565b60405180910390f35b34801561065857600080fd5b50610673600480360381019061066e9190613662565b611af2565b005b34801561068157600080fd5b5061069c60048036038101906106979190613769565b611c5e565b6040516106a99190613cdd565b60405180910390f35b3480156106be57600080fd5b506106d960048036038101906106d491906136a2565b611c91565b005b6106f560048036038101906106f09190613769565b611d92565b005b34801561070357600080fd5b5061070c612118565b604051610719919061427d565b60405180910390f35b34801561072e57600080fd5b50610749600480360381019061074491906135da565b61211d565b005b34801561075757600080fd5b50610772600480360381019061076d9190613796565b61228b565b60405161077f919061427d565b60405180910390f35b34801561079457600080fd5b506107af60048036038101906107aa9190613769565b612556565b6040516107bc919061427d565b60405180910390f35b3480156107d157600080fd5b506107ec60048036038101906107e79190613547565b612648565b6040516107f99190613e6c565b60405180910390f35b34801561080e57600080fd5b5061082960048036038101906108249190613769565b6126dc565b60405161083a959493929190614298565b60405180910390f35b34801561084f57600080fd5b506108586127f7565b604051610865919061427d565b60405180910390f35b34801561087a57600080fd5b50610895600480360381019061089091906134ed565b6127fd565b005b60006380ac58cd60e01b7bffffffffffffffffffffffffffffffffffffffffffffffffffffffff1916827bffffffffffffffffffffffffffffffffffffffffffffffffffffffff1916148061093057506301ffc9a760e01b7bffffffffffffffffffffffffffffffffffffffffffffffffffffffff1916827bffffffffffffffffffffffffffffffffffffffffffffffffffffffff1916145b9050919050565b60606040518060400160405280600e81526020017f4d792043727970746f2043617473000000000000000000000000000000000000815250905090565b600060088054905082106109bd576040517f08c379a00000000000000000000000000000000000000000000000000000000081526004016109b490614009565b60405180910390fd5b6003600083815260200190815260200160002060009054906101000a900473ffffffffffffffffffffffffffffffffffffffff169050919050565b610a0233826128f5565b610a0b57600080fd5b610a158183612961565b808273ffffffffffffffffffffffffffffffffffffffff163373ffffffffffffffffffffffffffffffffffffffff167f8c5be1e5ebec7d5bd14f71427d1e84f3dd0314c0f7b2291e5b200ac8c7c3b92560405160405180910390a45050565b6000600880549050905090565b600073ffffffffffffffffffffffffffffffffffffffff168273ffffffffffffffffffffffffffffffffffffffff161415610af1576040517f08c379a0000000000000000000000000000000000000000000000000000000008152600401610ae890613f29565b60405180910390fd5b6008805490508110610b38576040517f08c379a0000000000000000000000000000000000000000000000000000000008152600401610b2f90614009565b60405180910390fd5b610b4283826128f5565b610b81576040517f08c379a0000000000000000000000000000000000000000000000000000000008152600401610b78906141dd565b60405180910390fd5b8273ffffffffffffffffffffffffffffffffffffffff163373ffffffffffffffffffffffffffffffffffffffff161480610bc15750610bc08333612648565b5b80610bd25750610bd133826129b7565b5b610bdb57600080fd5b610be6838383612a23565b505050565b610bf6838383610beb565b505050565b600080600080600080600a600088815260200190815260200160002090508060000160009054906101000a900473ffffffffffffffffffffffffffffffffffffffff168160010154826002015483600301548460040160009054906101000a900460ff16955095509550955095505091939590929450565b60036020528060005260406000206000915054906101000a900473ffffffffffffffffffffffffffffffffffffffff1681565b60606000600c8054905090506000811415610d0d57600067ffffffffffffffff811115610cd657610cd56146c2565b5b604051908082528060200260200182016040528015610d045781602001602082028036833780820191505090505b50915050610e04565b60008167ffffffffffffffff811115610d2957610d286146c2565b5b604051908082528060200260200182016040528015610d575781602001602082028036833780820191505090505b50905060005b82811015610dfd5760011515600c8281548110610d7d57610d7c614693565b5b906000526020600020906005020160040160009054906101000a900460ff1615151415610dea57600c8181548110610db857610db7614693565b5b906000526020600020906005020160030154828281518110610ddd57610ddc614693565b5b6020026020010181815250505b8080610df59061455b565b915050610d5d565b8193505050505b90565b6060600560008373ffffffffffffffffffffffffffffffffffffffff1673ffffffffffffffffffffffffffffffffffffffff168152602001908152602001600020805480602002602001604051908101604052809291908181526020018280548015610e9257602002820191906000526020600020905b815481526020019060010190808311610e7e575b50505050509050919050565b610ea6612c5e565b73ffffffffffffffffffffffffffffffffffffffff16610ec46113c4565b73ffffffffffffffffffffffffffffffffffffffff1614610f1a576040517f08c379a0000000000000000000000000000000000000000000000000000000008152600401610f11906140e1565b60405180910390fd5b80600960006101000a81548173ffffffffffffffffffffffffffffffffffffffff021916908373ffffffffffffffffffffffffffffffffffffffff16021790555050565b6000806001600084815260200190815260200160002060009054906101000a900473ffffffffffffffffffffffffffffffffffffffff169050600073ffffffffffffffffffffffffffffffffffffffff168173ffffffffffffffffffffffffffffffffffffffff161415611007576040517f08c379a0000000000000000000000000000000000000000000000000000000008152600401610ffe90614029565b60405180910390fd5b80915050919050565b6000600260008373ffffffffffffffffffffffffffffffffffffffff1673ffffffffffffffffffffffffffffffffffffffff168152602001908152602001600020549050919050565b611061612c5e565b73ffffffffffffffffffffffffffffffffffffffff1661107f6113c4565b73ffffffffffffffffffffffffffffffffffffffff16146110d5576040517f08c379a00000000000000000000000000000000000000000000000000000000081526004016110cc906140e1565b60405180910390fd5b6110df6000612c66565b565b606060006110ee83611010565b9050600081141561114b57600067ffffffffffffffff811115611114576111136146c2565b5b6040519080825280602002602001820160405280156111425781602001602082028036833780820191505090505b50915050611236565b60008167ffffffffffffffff811115611167576111666146c2565b5b6040519080825280602002602001820160405280156111955781602001602082028036833780820191505090505b50905060006007549050600080600090505b8281101561122d578673ffffffffffffffffffffffffffffffffffffffff166111cf82610f5e565b73ffffffffffffffffffffffffffffffffffffffff16141561121a57808483815181106111ff576111fe614693565b5b60200260200101818152505081806112169061455b565b9250505b80806112259061455b565b9150506111a7565b83955050505050505b919050565b6060600061124883611010565b905060008114156112a557600067ffffffffffffffff81111561126e5761126d6146c2565b5b60405190808252806020026020018201604052801561129c5781602001602082028036833780820191505090505b509150506113bf565b60008167ffffffffffffffff8111156112c1576112c06146c2565b5b6040519080825280602002602001820160405280156112ef5781602001602082028036833780820191505090505b50905060006112fc610a74565b9050600080600190505b8281116113b6578673ffffffffffffffffffffffffffffffffffffffff166001600083815260200190815260200160002060009054906101000a900473ffffffffffffffffffffffffffffffffffffffff1673ffffffffffffffffffffffffffffffffffffffff1614156113a3578084838151811061138857611387614693565b5b602002602001018181525050818061139f9061455b565b9250505b80806113ae9061455b565b915050611306565b83955050505050505b919050565b60008060009054906101000a900473ffffffffffffffffffffffffffffffffffffffff16905090565b661ff973cafa80008211611436576040517f08c379a000000000000000000000000000000000000000000000000000000000815260040161142d90613f69565b60405180910390fd5b60001515600a600083815260200190815260200160002060040160009054906101000a900460ff161515146114a0576040517f08c379a0000000000000000000000000000000000000000000000000000000008152600401611497906141bd565b60405180910390fd5b6114aa3382612d2a565b6114e9576040517f08c379a00000000000000000000000000000000000000000000000000000000081526004016114e09061415d565b60405180910390fd5b600960009054906101000a900473ffffffffffffffffffffffffffffffffffffffff1673ffffffffffffffffffffffffffffffffffffffff1663e985e9c533306040518363ffffffff1660e01b8152600401611546929190613d2f565b60206040518083038186803b15801561155e57600080fd5b505afa158015611572573d6000803e3d6000fd5b505050506040513d601f19601f8201168201806040525081019061159691906136e2565b6115d5576040517f08c379a00000000000000000000000000000000000000000000000000000000081526004016115cc90613ea9565b60405180910390fd5b60006040518060a001604052803373ffffffffffffffffffffffffffffffffffffffff168152602001848152602001600c80549050815260200183815260200160011515815250905080600a600084815260200190815260200160002060008201518160000160006101000a81548173ffffffffffffffffffffffffffffffffffffffff021916908373ffffffffffffffffffffffffffffffffffffffff16021790555060208201518160010155604082015181600201556060820151816003015560808201518160040160006101000a81548160ff021916908315150217905550905050600c81908060018154018082558091505060019003906000526020600020906005020160009091909190915060008201518160000160006101000a81548173ffffffffffffffffffffffffffffffffffffffff021916908373ffffffffffffffffffffffffffffffffffffffff16021790555060208201518160010155604082015181600201556060820151816003015560808201518160040160006101000a81548160ff02191690831515021790555050507fd99e4fad9ad6313b1feb588fa8e605e3a9873172f2024330c35dd2b4041a4386338360405161179e929190614069565b60405180910390a1505050565b6117b533826128f5565b6117f4576040517f08c379a00000000000000000000000000000000000000000000000000000000081526004016117eb9061417d565b60405180910390fd5b6000600a60008381526020019081526020016000206040518060a00160405290816000820160009054906101000a900473ffffffffffffffffffffffffffffffffffffffff1673ffffffffffffffffffffffffffffffffffffffff1673ffffffffffffffffffffffffffffffffffffffff1681526020016001820154815260200160028201548152602001600382015481526020016004820160009054906101000a900460ff16151515158152505090503373ffffffffffffffffffffffffffffffffffffffff16816000015173ffffffffffffffffffffffffffffffffffffffff1614611917576040517f08c379a000000000000000000000000000000000000000000000000000000000815260040161190e9061421d565b60405180910390fd5b600a6000838152602001908152602001600020600080820160006101000a81549073ffffffffffffffffffffffffffffffffffffffff02191690556001820160009055600282016000905560038201600090556004820160006101000a81549060ff021916905550506000600c82604001518154811061199a57611999614693565b5b906000526020600020906005020160040160006101000a81548160ff0219169083151502179055507fd99e4fad9ad6313b1feb588fa8e605e3a9873172f2024330c35dd2b4041a438633836040516119f3929190614101565b60405180910390a15050565b60606040518060400160405280600481526020017f4d43524300000000000000000000000000000000000000000000000000000000815250905090565b60008060008060008060088781548110611a5957611a58614693565b5b906000526020600020906002020190508060010160009054906101000a900467ffffffffffffffff1667ffffffffffffffff168160010160089054906101000a900463ffffffff1663ffffffff1682600101600c9054906101000a900463ffffffff1663ffffffff168360010160109054906101000a900461ffff1661ffff168460000154955095509550955095505091939590929450565b3373ffffffffffffffffffffffffffffffffffffffff168273ffffffffffffffffffffffffffffffffffffffff161415611b61576040517f08c379a0000000000000000000000000000000000000000000000000000000008152600401611b589061423d565b60405180910390fd5b80600460003373ffffffffffffffffffffffffffffffffffffffff1673ffffffffffffffffffffffffffffffffffffffff16815260200190815260200160002060008473ffffffffffffffffffffffffffffffffffffffff1673ffffffffffffffffffffffffffffffffffffffff16815260200190815260200160002060006101000a81548160ff0219169083151502179055508173ffffffffffffffffffffffffffffffffffffffff163373ffffffffffffffffffffffffffffffffffffffff167f17307eab39ab6107e8899845ad3d59bd9653f200f220920489ca2b5937696c3183604051611c529190613e6c565b60405180910390a35050565b60016020528060005260406000206000915054906101000a900473ffffffffffffffffffffffffffffffffffffffff1681565b600073ffffffffffffffffffffffffffffffffffffffff168273ffffffffffffffffffffffffffffffffffffffff161415611d01576040517f08c379a0000000000000000000000000000000000000000000000000000000008152600401611cf890613f89565b60405180910390fd5b3073ffffffffffffffffffffffffffffffffffffffff168273ffffffffffffffffffffffffffffffffffffffff161415611d70576040517f08c379a0000000000000000000000000000000000000000000000000000000008152600401611d6790613f09565b60405180910390fd5b611d7a33826128f5565b611d8357600080fd5b611d8e338383612a23565b5050565b6000600a60008381526020019081526020016000206040518060a00160405290816000820160009054906101000a900473ffffffffffffffffffffffffffffffffffffffff1673ffffffffffffffffffffffffffffffffffffffff1673ffffffffffffffffffffffffffffffffffffffff1681526020016001820154815260200160028201548152602001600382015481526020016004820160009054906101000a900460ff161515151581525050905080602001513414611e89576040517f08c379a0000000000000000000000000000000000000000000000000000000008152600401611e8090614049565b60405180910390fd5b60011515600a600084815260200190815260200160002060040160009054906101000a900460ff16151514611ef3576040517f08c379a0000000000000000000000000000000000000000000000000000000008152600401611eea90613ec9565b60405180910390fd5b600a6000838152602001908152602001600020600080820160006101000a81549073ffffffffffffffffffffffffffffffffffffffff02191690556001820160009055600282016000905560038201600090556004820160006101000a81549060ff021916905550506000600c826040015181548110611f7657611f75614693565b5b906000526020600020906005020160040160006101000a81548160ff021916908315150217905550600081602001511115611ffb57806000015173ffffffffffffffffffffffffffffffffffffffff166108fc82602001519081150290604051600060405180830381858888f19350505050158015611ff9573d6000803e3d6000fd5b505b600960009054906101000a900473ffffffffffffffffffffffffffffffffffffffff1673ffffffffffffffffffffffffffffffffffffffff166323b872dd826000015133856040518463ffffffff1660e01b815260040161205e93929190613cf8565b600060405180830381600087803b15801561207857600080fd5b505af115801561208c573d6000803e3d6000fd5b50505050806000015173ffffffffffffffffffffffffffffffffffffffff166108fc349081150290604051600060405180830381858888f193505050501580156120da573d6000803e3d6000fd5b507fd99e4fad9ad6313b1feb588fa8e605e3a9873172f2024330c35dd2b4041a4386338360405161210c9291906140a5565b60405180910390a15050565b600a81565b600073ffffffffffffffffffffffffffffffffffffffff168473ffffffffffffffffffffffffffffffffffffffff16141561218d576040517f08c379a00000000000000000000000000000000000000000000000000000000081526004016121849061413d565b60405180910390fd5b60088054905083106121d4576040517f08c379a00000000000000000000000000000000000000000000000000000000081526004016121cb90613fc9565b60405180910390fd5b6121de85846128f5565b61221d576040517f08c379a000000000000000000000000000000000000000000000000000000000815260040161221490613fa9565b60405180910390fd5b8473ffffffffffffffffffffffffffffffffffffffff163373ffffffffffffffffffffffffffffffffffffffff16148061225d575061225c8585612648565b5b8061226e575061226d33846129b7565b5b61227757600080fd5b6122848585858585612e0d565b5050505050565b600061229733846128f5565b80156122a957506122a833836128f5565b5b6122e8576040517f08c379a00000000000000000000000000000000000000000000000000000000081526004016122df90613fe9565b60405180910390fd5b8282141561232b576040517f08c379a00000000000000000000000000000000000000000000000000000000081526004016123229061419d565b60405180910390fd5b600080612337856126dc565b9450505050915060008061234a866126dc565b94505050509150600061235b6133e1565b600060079050600060ff4261237091906145a4565b90506000600190505b6080811161242d576000818360ff1616146123bf5760648761239b91906145a4565b60ff168484600881106123b1576123b0614693565b5b6020020181815250506123ec565b6064896123cc91906145a4565b60ff168484600881106123e2576123e1614693565b5b6020020181815250505b6064876123f991906143b2565b965060648961240891906143b2565b9850600183612417919061443d565b925060028161242691906143e3565b9050612379565b600060078361243c91906145d5565b905060638361244b91906145d5565b60ff16858260ff166008811061246457612463614693565b5b602002018181525050600091505b60088210156124cb5784826008811061248e5761248d614693565b5b60200201518661249e919061435c565b9550600782146124b8576064866124b591906143e3565b95505b81806124c39061455b565b925050612472565b6000878a10156124f8576001886124e2919061435c565b90506002816124f191906143b2565b9050612534565b878a11156125235760018a61250d919061435c565b905060028161251c91906143b2565b9050612533565b60018a612530919061435c565b90505b5b6125418d8f838a33612e78565b50809b50505050505050505050505092915050565b6000612560612c5e565b73ffffffffffffffffffffffffffffffffffffffff1661257e6113c4565b73ffffffffffffffffffffffffffffffffffffffff16146125d4576040517f08c379a00000000000000000000000000000000000000000000000000000000081526004016125cb906140e1565b60405180910390fd5b600a600654111561261a576040517f08c379a000000000000000000000000000000000000000000000000000000000815260040161261190613f49565b60405180910390fd5b6006600081548092919061262d9061455b565b919050555061264160008060008533612e78565b9050919050565b6000600460008473ffffffffffffffffffffffffffffffffffffffff1673ffffffffffffffffffffffffffffffffffffffff16815260200190815260200160002060008373ffffffffffffffffffffffffffffffffffffffff1673ffffffffffffffffffffffffffffffffffffffff16815260200190815260200160002060009054906101000a900460ff16905092915050565b600080600080600080600887815481106126f9576126f8614693565b5b9060005260206000209060020201905060008160010160009054906101000a900467ffffffffffffffff1667ffffffffffffffff161161276e576040517f08c379a00000000000000000000000000000000000000000000000000000000081526004016127659061425d565b60405180910390fd5b8060010160009054906101000a900467ffffffffffffffff1667ffffffffffffffff1694508060010160089054906101000a900463ffffffff1663ffffffff16935080600101600c9054906101000a900463ffffffff1663ffffffff1692508060010160109054906101000a900461ffff1661ffff169150806000015495505091939590929450565b60065481565b612805612c5e565b73ffffffffffffffffffffffffffffffffffffffff166128236113c4565b73ffffffffffffffffffffffffffffffffffffffff1614612879576040517f08c379a0000000000000000000000000000000000000000000000000000000008152600401612870906140e1565b60405180910390fd5b600073ffffffffffffffffffffffffffffffffffffffff168173ffffffffffffffffffffffffffffffffffffffff1614156128e9576040517f08c379a00000000000000000000000000000000000000000000000000000000081526004016128e090613ee9565b60405180910390fd5b6128f281612c66565b50565b60008273ffffffffffffffffffffffffffffffffffffffff166001600084815260200190815260200160002060009054906101000a900473ffffffffffffffffffffffffffffffffffffffff1673ffffffffffffffffffffffffffffffffffffffff1614905092915050565b806003600084815260200190815260200160002060006101000a81548173ffffffffffffffffffffffffffffffffffffffff021916908373ffffffffffffffffffffffffffffffffffffffff1602179055505050565b60008273ffffffffffffffffffffffffffffffffffffffff166003600084815260200190815260200160002060009054906101000a900473ffffffffffffffffffffffffffffffffffffffff1673ffffffffffffffffffffffffffffffffffffffff1614905092915050565b6001600260008473ffffffffffffffffffffffffffffffffffffffff1673ffffffffffffffffffffffffffffffffffffffff1681526020019081526020016000206000828254612a73919061435c565b92505081905550816001600083815260200190815260200160002060006101000a81548173ffffffffffffffffffffffffffffffffffffffff021916908373ffffffffffffffffffffffffffffffffffffffff160217905550600560008373ffffffffffffffffffffffffffffffffffffffff1673ffffffffffffffffffffffffffffffffffffffff168152602001908152602001600020819080600181540180825580915050600190039060005260206000200160009091909190915055600073ffffffffffffffffffffffffffffffffffffffff168373ffffffffffffffffffffffffffffffffffffffff1614612bfe576001600260008573ffffffffffffffffffffffffffffffffffffffff1673ffffffffffffffffffffffffffffffffffffffff1681526020019081526020016000206000828254612bb6919061443d565b92505081905550612bc78382613065565b6001600082815260200190815260200160002060006101000a81549073ffffffffffffffffffffffffffffffffffffffff02191690555b808273ffffffffffffffffffffffffffffffffffffffff163373ffffffffffffffffffffffffffffffffffffffff167fddf252ad1be2c89b69c2b068fc378daa952ba7f163c4a11628f55a4df523b3ef60405160405180910390a4505050565b600033905090565b60008060009054906101000a900473ffffffffffffffffffffffffffffffffffffffff169050816000806101000a81548173ffffffffffffffffffffffffffffffffffffffff021916908373ffffffffffffffffffffffffffffffffffffffff1602179055508173ffffffffffffffffffffffffffffffffffffffff168173ffffffffffffffffffffffffffffffffffffffff167f8be0079c531659141344cd1fd0a4f28419497f9722a3daafe3b4186f6b6457e060405160405180910390a35050565b60008273ffffffffffffffffffffffffffffffffffffffff16600960009054906101000a900473ffffffffffffffffffffffffffffffffffffffff1673ffffffffffffffffffffffffffffffffffffffff16636352211e846040518263ffffffff1660e01b8152600401612d9e919061427d565b60206040518083038186803b158015612db657600080fd5b505afa158015612dca573d6000803e3d6000fd5b505050506040513d601f19601f82011682018060405250810190612dee919061351a565b73ffffffffffffffffffffffffffffffffffffffff1614905092915050565b612e18858585612a23565b612e6885858585858080601f016020809104026020016040519081016040528093929190818152602001838380828437600081840152601f19601f820116905080830192505050505050506132ae565b612e7157600080fd5b5050505050565b6000806040518060a001604052808581526020014267ffffffffffffffff1681526020018863ffffffff1681526020018763ffffffff1681526020018661ffff16815250905060088190806001815401808255809150506001900390600052602060002090600202016000909190919091506000820151816000015560208201518160010160006101000a81548167ffffffffffffffff021916908367ffffffffffffffff16021790555060408201518160010160086101000a81548163ffffffff021916908363ffffffff160217905550606082015181600101600c6101000a81548163ffffffff021916908363ffffffff16021790555060808201518160010160106101000a81548161ffff021916908361ffff160217905550505060006001600880549050612faa919061443d565b90508063ffffffff168114612ff4576040517f08c379a0000000000000000000000000000000000000000000000000000000008152600401612feb906141fd565b60405180910390fd5b7f0a5311bd2a6608f08a180df2ee7c5946819a649b204b554bb8e39825b2c50ad58482846040015163ffffffff16856060015163ffffffff168660000151604051613043959493929190613df7565b60405180910390a161305760008583612a23565b809250505095945050505050565b6000600560008473ffffffffffffffffffffffffffffffffffffffff1673ffffffffffffffffffffffffffffffffffffffff1681526020019081526020016000206001600560008673ffffffffffffffffffffffffffffffffffffffff1673ffffffffffffffffffffffffffffffffffffffff168152602001908152602001600020805490506130f5919061443d565b8154811061310657613105614693565b5b9060005260206000200154905060005b6001600560008673ffffffffffffffffffffffffffffffffffffffff1673ffffffffffffffffffffffffffffffffffffffff16815260200190815260200160002080549050613165919061443d565b8110156132a85782600560008673ffffffffffffffffffffffffffffffffffffffff1673ffffffffffffffffffffffffffffffffffffffff16815260200190815260200160002082815481106131be576131bd614693565b5b906000526020600020015414156132955781600560008673ffffffffffffffffffffffffffffffffffffffff1673ffffffffffffffffffffffffffffffffffffffff168152602001908152602001600020828154811061322157613220614693565b5b9060005260206000200181905550600560008573ffffffffffffffffffffffffffffffffffffffff1673ffffffffffffffffffffffffffffffffffffffff16815260200190815260200160002080548061327e5761327d614664565b5b600190038181906000526020600020016000905590555b80806132a09061455b565b915050613116565b50505050565b60006132b9846133c8565b6132c657600190506133c0565b60008473ffffffffffffffffffffffffffffffffffffffff1663150b7a02338887876040518563ffffffff1660e01b81526004016133079493929190613d58565b602060405180830381600087803b15801561332157600080fd5b505af1158015613335573d6000803e3d6000fd5b505050506040513d601f19601f82011682018060405250810190613359919061373c565b90507f150b7a023d4804d13e8c85fb27262cb750cf6ba9f9dd3bb30d90f482ceeb4b1f7bffffffffffffffffffffffffffffffffffffffffffffffffffffffff1916817bffffffffffffffffffffffffffffffffffffffffffffffffffffffff1916149150505b949350505050565b600080823b905060008163ffffffff1611915050919050565b604051806101000160405280600890602082028036833780820191505090505090565b60008135905061341381614d39565b92915050565b60008151905061342881614d39565b92915050565b60008135905061343d81614d50565b92915050565b60008151905061345281614d50565b92915050565b60008135905061346781614d67565b92915050565b60008151905061347c81614d67565b92915050565b60008083601f840112613498576134976146f6565b5b8235905067ffffffffffffffff8111156134b5576134b46146f1565b5b6020830191508360018202830111156134d1576134d06146fb565b5b9250929050565b6000813590506134e781614d7e565b92915050565b60006020828403121561350357613502614705565b5b600061351184828501613404565b91505092915050565b6000602082840312156135305761352f614705565b5b600061353e84828501613419565b91505092915050565b6000806040838503121561355e5761355d614705565b5b600061356c85828601613404565b925050602061357d85828601613404565b9150509250929050565b6000806000606084860312156135a05761359f614705565b5b60006135ae86828701613404565b93505060206135bf86828701613404565b92505060406135d0868287016134d8565b9150509250925092565b6000806000806000608086880312156135f6576135f5614705565b5b600061360488828901613404565b955050602061361588828901613404565b9450506040613626888289016134d8565b935050606086013567ffffffffffffffff81111561364757613646614700565b5b61365388828901613482565b92509250509295509295909350565b6000806040838503121561367957613678614705565b5b600061368785828601613404565b92505060206136988582860161342e565b9150509250929050565b600080604083850312156136b9576136b8614705565b5b60006136c785828601613404565b92505060206136d8858286016134d8565b9150509250929050565b6000602082840312156136f8576136f7614705565b5b600061370684828501613443565b91505092915050565b60006020828403121561372557613724614705565b5b600061373384828501613458565b91505092915050565b60006020828403121561375257613751614705565b5b60006137608482850161346d565b91505092915050565b60006020828403121561377f5761377e614705565b5b600061378d848285016134d8565b91505092915050565b600080604083850312156137ad576137ac614705565b5b60006137bb858286016134d8565b92505060206137cc858286016134d8565b9150509250929050565b60006137e28383613cbf565b60208301905092915050565b6137f7816144f2565b82525050565b61380681614471565b82525050565b6000613817826142fb565b6138218185614329565b935061382c836142eb565b8060005b8381101561385d57815161384488826137d6565b975061384f8361431c565b925050600181019050613830565b5085935050505092915050565b61387381614483565b82525050565b600061388482614306565b61388e818561433a565b935061389e818560208601614528565b6138a78161470a565b840191505092915050565b60006138bd82614311565b6138c7818561434b565b93506138d7818560208601614528565b6138e08161470a565b840191505092915050565b60006138f8602c8361434b565b91506139038261471b565b604082019050919050565b600061391b60178361434b565b91506139268261476a565b602082019050919050565b600061393e60268361434b565b915061394982614793565b604082019050919050565b6000613961601c8361434b565b915061396c826147e2565b602082019050919050565b600061398460208361434b565b915061398f8261480b565b602082019050919050565b60006139a7602e8361434b565b91506139b282614834565b604082019050919050565b60006139ca60258361434b565b91506139d582614883565b604082019050919050565b60006139ed60248361434b565b91506139f8826148d2565b604082019050919050565b6000613a1060258361434b565b9150613a1b82614921565b604082019050919050565b6000613a3360148361434b565b9150613a3e82614970565b602082019050919050565b6000613a56602a8361434b565b9150613a6182614999565b604082019050919050565b6000613a7960108361434b565b9150613a84826149e8565b602082019050919050565b6000613a9c60298361434b565b9150613aa782614a11565b604082019050919050565b6000613abf60148361434b565b9150613aca82614a60565b602082019050919050565b6000613ae2600c8361434b565b9150613aed82614a89565b602082019050919050565b6000613b0560038361434b565b9150613b1082614ab2565b602082019050919050565b6000613b2860208361434b565b9150613b3382614adb565b602082019050919050565b6000613b4b600c8361434b565b9150613b5682614b04565b602082019050919050565b6000613b6e601d8361434b565b9150613b7982614b2d565b602082019050919050565b6000613b9160208361434b565b9150613b9c82614b56565b602082019050919050565b6000613bb4601c8361434b565b9150613bbf82614b7f565b602082019050919050565b6000613bd7601f8361434b565b9150613be282614ba8565b602082019050919050565b6000613bfa60248361434b565b9150613c0582614bd1565b604082019050919050565b6000613c1d60138361434b565b9150613c2882614c20565b602082019050919050565b6000613c4060128361434b565b9150613c4b82614c49565b602082019050919050565b6000613c63603f8361434b565b9150613c6e82614c72565b604082019050919050565b6000613c8660308361434b565b9150613c9182614cc1565b604082019050919050565b6000613ca960178361434b565b9150613cb482614d10565b602082019050919050565b613cc8816144db565b82525050565b613cd7816144db565b82525050565b6000602082019050613cf260008301846137fd565b92915050565b6000606082019050613d0d60008301866137ee565b613d1a60208301856137fd565b613d276040830184613cce565b949350505050565b6000604082019050613d4460008301856137fd565b613d5160208301846137fd565b9392505050565b6000608082019050613d6d60008301876137fd565b613d7a60208301866137fd565b613d876040830185613cce565b8181036060830152613d998184613879565b905095945050505050565b600060a082019050613db960008301886137fd565b613dc66020830187613cce565b613dd36040830186613cce565b613de06060830185613cce565b613ded608083018461386a565b9695505050505050565b600060a082019050613e0c60008301886137fd565b613e196020830187613cce565b613e266040830186613cce565b613e336060830185613cce565b613e406080830184613cce565b9695505050505050565b60006020820190508181036000830152613e64818461380c565b905092915050565b6000602082019050613e81600083018461386a565b92915050565b60006020820190508181036000830152613ea181846138b2565b905092915050565b60006020820190508181036000830152613ec2816138eb565b9050919050565b60006020820190508181036000830152613ee28161390e565b9050919050565b60006020820190508181036000830152613f0281613931565b9050919050565b60006020820190508181036000830152613f2281613954565b9050919050565b60006020820190508181036000830152613f4281613977565b9050919050565b60006020820190508181036000830152613f628161399a565b9050919050565b60006020820190508181036000830152613f82816139bd565b9050919050565b60006020820190508181036000830152613fa2816139e0565b9050919050565b60006020820190508181036000830152613fc281613a03565b9050919050565b60006020820190508181036000830152613fe281613a26565b9050919050565b6000602082019050818103600083015261400281613a49565b9050919050565b6000602082019050818103600083015261402281613a6c565b9050919050565b6000602082019050818103600083015261404281613a8f565b9050919050565b6000602082019050818103600083015261406281613ab2565b9050919050565b6000606082019050818103600083015261408281613ad5565b905061409160208301856137fd565b61409e6040830184613cce565b9392505050565b600060608201905081810360008301526140be81613af8565b90506140cd60208301856137fd565b6140da6040830184613cce565b9392505050565b600060208201905081810360008301526140fa81613b1b565b9050919050565b6000606082019050818103600083015261411a81613b3e565b905061412960208301856137fd565b6141366040830184613cce565b9392505050565b6000602082019050818103600083015261415681613b61565b9050919050565b6000602082019050818103600083015261417681613b84565b9050919050565b6000602082019050818103600083015261419681613ba7565b9050919050565b600060208201905081810360008301526141b681613bca565b9050919050565b600060208201905081810360008301526141d681613bed565b9050919050565b600060208201905081810360008301526141f681613c10565b9050919050565b6000602082019050818103600083015261421681613c33565b9050919050565b6000602082019050818103600083015261423681613c56565b9050919050565b6000602082019050818103600083015261425681613c79565b9050919050565b6000602082019050818103600083015261427681613c9c565b9050919050565b60006020820190506142926000830184613cce565b92915050565b600060a0820190506142ad6000830188613cce565b6142ba6020830187613cce565b6142c76040830186613cce565b6142d46060830185613cce565b6142e16080830184613cce565b9695505050505050565b6000819050602082019050919050565b600081519050919050565b600081519050919050565b600081519050919050565b6000602082019050919050565b600082825260208201905092915050565b600082825260208201905092915050565b600082825260208201905092915050565b6000614367826144db565b9150614372836144db565b9250827fffffffffffffffffffffffffffffffffffffffffffffffffffffffffffffffff038211156143a7576143a6614606565b5b828201905092915050565b60006143bd826144db565b91506143c8836144db565b9250826143d8576143d7614635565b5b828204905092915050565b60006143ee826144db565b91506143f9836144db565b9250817fffffffffffffffffffffffffffffffffffffffffffffffffffffffffffffffff048311821515161561443257614431614606565b5b828202905092915050565b6000614448826144db565b9150614453836144db565b92508282101561446657614465614606565b5b828203905092915050565b600061447c826144bb565b9050919050565b60008115159050919050565b60007fffffffff0000000000000000000000000000000000000000000000000000000082169050919050565b600073ffffffffffffffffffffffffffffffffffffffff82169050919050565b6000819050919050565b600060ff82169050919050565b60006144fd82614504565b9050919050565b600061450f82614516565b9050919050565b6000614521826144bb565b9050919050565b60005b8381101561454657808201518184015260208101905061452b565b83811115614555576000848401525b50505050565b6000614566826144db565b91507fffffffffffffffffffffffffffffffffffffffffffffffffffffffffffffffff82141561459957614598614606565b5b600182019050919050565b60006145af826144db565b91506145ba836144db565b9250826145ca576145c9614635565b5b828206905092915050565b60006145e0826144e5565b91506145eb836144e5565b9250826145fb576145fa614635565b5b828206905092915050565b7f4e487b7100000000000000000000000000000000000000000000000000000000600052601160045260246000fd5b7f4e487b7100000000000000000000000000000000000000000000000000000000600052601260045260246000fd5b7f4e487b7100000000000000000000000000000000000000000000000000000000600052603160045260246000fd5b7f4e487b7100000000000000000000000000000000000000000000000000000000600052603260045260246000fd5b7f4e487b7100000000000000000000000000000000000000000000000000000000600052604160045260246000fd5b600080fd5b600080fd5b600080fd5b600080fd5b600080fd5b6000601f19601f8301169050919050565b7f436f6e7472616374206e6565647320617070726f76616c20666f72206675747560008201527f7265207472616e73666572730000000000000000000000000000000000000000602082015250565b7f4e6f20616374697665206f726465722070726573656e74000000000000000000600082015250565b7f4f776e61626c653a206e6577206f776e657220697320746865207a65726f206160008201527f6464726573730000000000000000000000000000000000000000000000000000602082015250565b7f7472616e7366657220746f20746865207a65726f206164647265737300000000600082015250565b7f546f2061646472657373206973206e6f742061207a65726f2061646472657373600082015250565b7f47656e20302073686f756c64206265206c657373207468616e2063726561746960008201527f6f6e206c696d69742067656e2030000000000000000000000000000000000000602082015250565b7f4361742070726963652073686f756c642062652067726561746572207468616e60008201527f20302e3031000000000000000000000000000000000000000000000000000000602082015250565b7f4552433732313a207472616e7366657220746f20746865207a65726f2061646460008201527f7265737300000000000000000000000000000000000000000000000000000000602082015250565b7f4e6f7420612076616c6964204e46542c206e6f7420746865206f776e6572206f60008201527f66204e4654000000000000000000000000000000000000000000000000000000602082015250565b7f546f6b656e20646f6573206e6f74206578697374000000000000000000000000600082015250565b7f596f75206d75737420626520746865206f776e6572206f6620626f7468206f6660008201527f20796f7572206361747300000000000000000000000000000000000000000000602082015250565b7f546f6b656e206d75737420657869737400000000000000000000000000000000600082015250565b7f4552433732313a206f776e657220717565727920666f72206e6f6e657869737460008201527f656e7420746f6b656e0000000000000000000000000000000000000000000000602082015250565b7f54686520707269636520697320636f7272656374000000000000000000000000600082015250565b7f437265617465206f666665720000000000000000000000000000000000000000600082015250565b7f4275790000000000000000000000000000000000000000000000000000000000600082015250565b7f4f776e61626c653a2063616c6c6572206973206e6f7420746865206f776e6572600082015250565b7f52656d6f7665206f666665720000000000000000000000000000000000000000600082015250565b7f4d757374207472616e7366657220746f207a65726f2061646472657373000000600082015250565b7f596f7520617265206e6f7420746865206f776e65722074686174206b69747479600082015250565b7f5573657220646f6573206e6f74206f776e207468697320746f6b656e00000000600082015250565b7f546865206361742063616e277420726570726f647563652068696d73656c6600600082015250565b7f596f752063616e27742073656c6c207477696365207468652073616d65206f6660008201527f6665727300000000000000000000000000000000000000000000000000000000602082015250565b7f46726f6d206f776e732074686520746f6b656e00000000000000000000000000600082015250565b7f342042696c6c696f6e2063617473206d61780000000000000000000000000000600082015250565b7f54686973206173736574206d757374206265206f776e6564206279207468652060008201527f73656c6c657220696e206f7264657220746f2072656d6f7665206f6666657200602082015250565b7f4552433732313a20617070726f766520746f2063616c6c65722c20796f75206160008201527f7265206e6f7420746865206f776e657200000000000000000000000000000000602082015250565b7f746865206b6974747920646f65736e2774206578697374000000000000000000600082015250565b614d4281614471565b8114614d4d57600080fd5b50565b614d5981614483565b8114614d6457600080fd5b50565b614d708161448f565b8114614d7b57600080fd5b50565b614d87816144db565b8114614d9257600080fd5b5056fea26469706673582212206a219436be2ed660526177d0fc9925fdb0745297e1abb13dd8e3af2ba13e004e64736f6c63430008070033",
  "immutableReferences": {},
  "source": "// SPDX-License-Identifier: MIT\r\npragma solidity ^0.8.0;\r\n\r\n//import \"@openzeppelin/contracts/access/Ownable.sol\";\r\nimport \"./kittiesContract.sol\";\r\n\r\ncontract KittyMarketPlace is myKittiesContract {\r\n\r\n  myKittiesContract private _kittyContract;\r\n\r\n  struct Offer {\r\n    address payable seller;\r\n    uint256 price;\r\n    uint256 index;\r\n    uint256 tokenId;\r\n    bool active;\r\n  }\r\n\r\n  mapping(uint256 => Offer) tokenIdToOffer;\r\n  mapping(uint256 => uint256) tokenIdToOfferId;\r\n\r\n  event MarketTransaction(string TxType, address owner, uint256 tokenId);\r\n\r\n\r\n  Offer[] offers;\r\n\r\n\r\n  function setKittyContract(address _kittyContractAddress) public onlyOwner() { // External functions read from calldata, directly || Public functions copies array arguments to memory)\r\n    _kittyContract = myKittiesContract(_kittyContractAddress);\r\n\r\n  }\r\n\r\n  constructor(address _kittyContractAddress) {\r\n        setKittyContract(_kittyContractAddress);\r\n    }\r\n  \r\n\r\n   function getOffer(uint256 _tokenId) external view returns (address seller, uint256 price, uint256 index, uint256 tokenId, bool active) {\r\n     Offer storage returnOffers = tokenIdToOffer[_tokenId];\r\n     return (returnOffers.seller, returnOffers.price, returnOffers.index, returnOffers.tokenId, returnOffers.active);\r\n     \r\n   }\r\n\r\n   function getAllTokenOnSale() external view returns(uint256[] memory listOfOffers) {\r\n     // this array lets us loop through the array and find all of the tokens so we can then display them all on a web page\r\n     uint256 totalOffers = offers.length;\r\n\r\n     if (totalOffers == 0) {\r\n       return new uint256[](0);\r\n     } \r\n     else {\r\n       uint256[] memory resultOfToken = new uint256[](totalOffers);\r\n\r\n       uint256 offerId; \r\n\r\n       // cannot remove inactive orders from arrays so this is the best solution thus far\r\n\r\n       for(offerId = 0; offerId < totalOffers; offerId++) {\r\n         if(offers[offerId].active == true) { // if - offers array, [offer id] -> price is true, then result is resultOfToken [offerId] equals; offers array [offerId] of tokenId\r\n         resultOfToken[offerId] = offers[offerId].tokenId;\r\n         }\r\n       }\r\n       return resultOfToken;\r\n\r\n     }\r\n   }\r\n\r\n  /*\r\n  // my version\r\n   function _ownsKitty(address _address, uint256 _tokenId) internal returns (bool) {\r\n    kittyIndexToOwner[_tokenId] = _address;\r\n    return true;\r\n   }\r\n   */\r\n\r\n  // Filip's version\r\n  function _ownsKitty(address _address, uint256 _tokenId) internal view returns (bool) {\r\n    return (_kittyContract.ownerOf(_tokenId) == _address);\r\n  }\r\n    \r\n   /*\r\n    *   We give the contract the ability to transfer kitties\r\n    *   As the kitties will be in the market place we need to be able to transfert them\r\n    *   We are checking if the user is owning the kitty inside the approve function\r\n    */\r\n    \r\n    /*\r\n    function createKittyGen0(uint256 _genes) public override onlyOwner returns(uint256 kitty) {\r\n      kitty = _createKitty(0, 0, 0, _genes, msg.sender);\r\n      //uint256 tokenId = kitty;\r\n      //setOffer(0.2 ether, tokenId);\r\n    }\r\n    */\r\n\r\n   function setOffer(uint256 _price, uint256 _tokenId) public {\r\n     require(_price > 0.009 ether, \"Cat price should be greater than 0.01\" );\r\n     require(tokenIdToOffer[_tokenId].active == false, \"You can't sell twice the same offers\");\r\n     require (_ownsKitty(msg.sender, _tokenId), \"You are not the owner that kitty\");\r\n     // kitty contract needs to be approved for all\r\n     require(_kittyContract.isApprovedForAll(msg.sender, address(this)), \"Contract needs approval for future transfers\"); // Market Place needs to be approved as the operator\r\n\r\n     //approve(address(this), _tokenId); // from gitHub contract\r\n\r\n     Offer memory _offer = Offer({\r\n       seller: (payable(msg.sender)),\r\n       price: _price,\r\n       index: offers.length,\r\n       tokenId: _tokenId,\r\n       active: true\r\n     });\r\n\r\n    // we add new offer, this specific tokenId, to tokenIdToOffer mapping and it's pushed into the offer's array\r\n     tokenIdToOffer[_tokenId] = _offer;\r\n     offers.push(_offer);\r\n\r\n     // here, Filip created offers.length with the object's index parameter so we don't neet this function any more\r\n     //uint256 index = offers.length -1; \r\n     //tokenIdToOfferId[_tokenId] = index;\r\n\r\n     emit MarketTransaction(\"Create offer\", msg.sender, _tokenId);\r\n\r\n   }\r\n\r\n\r\n   function removeOffer(uint256 _tokenId) external {\r\n     require(_owns(msg.sender, _tokenId), \"User does not own this token\");\r\n\r\n     Offer memory offer = tokenIdToOffer[_tokenId];\r\n\r\n     require(offer.seller == msg.sender, \"This asset must be owned by the seller in order to remove offer\");\r\n\r\n    /* Remove the offer in the mapping*/\r\n     /* we set mapping to false */\r\n     // tutorial functions are different than final contract on github\r\n\r\n     //delete offers[tokenIdToOfferId[_tokenId]]; previous function\r\n     delete tokenIdToOffer[_tokenId]; //we delete tokenIdToOffer, then we set the offer in array to false\r\n     //offers[tokenIdToOfferId[_tokenId]].active == false; // mine, not sure if this works\r\n     //offers[tokenIdToOffer[_tokenId].index].active = false; // filip's functions\r\n     offers[offer.index].active = false; // cleaner from Filip\r\n\r\n     //_deleteApproval(_tokenId); filip did not use this in tutorial\r\n      emit MarketTransaction(\"Remove offer\", msg.sender, _tokenId);\r\n      \r\n   }\r\n\r\n\r\n    function buyKitty(uint256 _tokenId) public payable { // we input the offer, we get back the offer\r\n      Offer memory offer = tokenIdToOffer[_tokenId];\r\n      require(msg.value == offer.price, \"The price is correct\");\r\n      require(tokenIdToOffer[_tokenId].active == true, \"No active order present\");\r\n\r\n      /* Remove the offer in the mapping*/\r\n      \r\n      // Important: delete kitty from mapping BEFORE paying out; to prevent reentry attacks\r\n      delete tokenIdToOffer[_tokenId]; // we can delete from mapping but not from the array since it will alter the index positions\r\n\r\n      /* we set mapping to false */\r\n      offers[offer.index].active = false;\r\n\r\n      // This was in the video but not in final gitHub contract\r\n      // transfer funds to seller\r\n      // TO DO: make this pull logic instead of push\r\n      if(offer.price > 0) { // we send the funds to seller\r\n        offer.seller.transfer(offer.price);\r\n      }\r\n      \r\n      //* TMP REMOVE THIS*/\r\n      //_approve(_tokenId, msg.sender); \r\n\r\n      _kittyContract.transferFrom(offer.seller, msg.sender, _tokenId); // we send tokens to buyer: (seller, buyer, token)\r\n\r\n      offer.seller.transfer(msg.value);\r\n      emit MarketTransaction(\"Buy\", msg.sender, _tokenId);\r\n    }\r\n\r\n}",
  "sourcePath": "C:\\Users\\benX\\Documents\\ethereum_course_advanced\\myCryptoKitties_master\\contracts\\KittyMarketPlace.sol",
  "compiler": {
    "name": "solc",
    "version": "0.8.7+commit.e28d00a7.Emscripten.clang"
  },
  "schemaVersion": "3.4.3",
  "updatedAt": "2021-08-31T02:46:38.236Z",
  "networkType": "ethereum",
  "devdoc": {
    "kind": "dev",
    "methods": {
      "owner()": {
        "details": "Returns the address of the current owner."
      },
      "renounceOwnership()": {
        "details": "Leaves the contract without owner. It will not be possible to call `onlyOwner` functions anymore. Can only be called by the current owner. NOTE: Renouncing ownership will leave the contract without an owner, thereby removing any functionality that is only available to the owner."
      },
      "transferOwnership(address)": {
        "details": "Transfers ownership of the contract to a new account (`newOwner`). Can only be called by the current owner."
      }
    },
    "version": 1
  },
  "userdoc": {
    "kind": "user",
    "methods": {},
    "version": 1
  }
}