{
  "contractName": "KittyFactory",
  "abi": [
    {
      "anonymous": false,
      "inputs": [
        {
          "indexed": false,
          "internalType": "address",
          "name": "owner",
          "type": "address"
        },
        {
          "indexed": false,
          "internalType": "uint256",
          "name": "kittyId",
          "type": "uint256"
        },
        {
          "indexed": false,
          "internalType": "uint256",
          "name": "mumId",
          "type": "uint256"
        },
        {
          "indexed": false,
          "internalType": "uint256",
          "name": "dadId",
          "type": "uint256"
        },
        {
          "indexed": false,
          "internalType": "uint256",
          "name": "genes",
          "type": "uint256"
        }
      ],
      "name": "Birth",
      "type": "event"
    },
    {
      "anonymous": false,
      "inputs": [
        {
          "indexed": false,
          "internalType": "address",
          "name": "from",
          "type": "address"
        },
        {
          "indexed": false,
          "internalType": "address",
          "name": "to",
          "type": "address"
        },
        {
          "indexed": false,
          "internalType": "uint256",
          "name": "tokenId",
          "type": "uint256"
        }
      ],
      "name": "Transfer",
      "type": "event"
    },
    {
      "inputs": [
        {
          "internalType": "uint256",
          "name": "",
          "type": "uint256"
        }
      ],
      "name": "kittyIndexToApproved",
      "outputs": [
        {
          "internalType": "address",
          "name": "",
          "type": "address"
        }
      ],
      "stateMutability": "view",
      "type": "function"
    },
    {
      "inputs": [
        {
          "internalType": "uint256",
          "name": "",
          "type": "uint256"
        }
      ],
      "name": "kittyIndexToOwner",
      "outputs": [
        {
          "internalType": "address",
          "name": "",
          "type": "address"
        }
      ],
      "stateMutability": "view",
      "type": "function"
    }
  ],
  "bytecode": "0x608060405234801561001057600080fd5b506101fb806100206000396000f3fe608060405234801561001057600080fd5b50600436106100365760003560e01c8063481af3d31461003b578063a45f4bfc1461006b575b600080fd5b61005560048036038101906100509190610116565b61009b565b6040516100629190610152565b60405180910390f35b61008560048036038101906100809190610116565b6100ce565b6040516100929190610152565b60405180910390f35b60036020528060005260406000206000915054906101000a900473ffffffffffffffffffffffffffffffffffffffff1681565b60016020528060005260406000206000915054906101000a900473ffffffffffffffffffffffffffffffffffffffff1681565b600081359050610110816101ae565b92915050565b60006020828403121561012c5761012b6101a9565b5b600061013a84828501610101565b91505092915050565b61014c8161016d565b82525050565b60006020820190506101676000830184610143565b92915050565b60006101788261017f565b9050919050565b600073ffffffffffffffffffffffffffffffffffffffff82169050919050565b6000819050919050565b600080fd5b6101b78161019f565b81146101c257600080fd5b5056fea2646970667358221220bc1d33880b0c5497a06c8a5483a313c36ec2eb8aa5127ccda0976a4d7a08738264736f6c63430008070033",
  "immutableReferences": {},
  "source": "// SPDX-License-Identifier: MIT\r\npragma solidity ^0.8.0;\r\n\r\ncontract KittyFactory {\r\n\r\n  /*\r\n  *   A new cat is born\r\n  */\r\n  event Birth(address owner, uint256 kittyId, uint256 mumId, uint256 dadId, uint256 genes);\r\n\r\n  /*\r\n  *   A cat has been transfer\r\n  */\r\n  event Transfer(address from, address to, uint256 tokenId);\r\n\r\n  /*\r\n  *   Here we will use the same structure as the original crypto kitties game\r\n  *   As it fits exactly into two bit words\r\n  */\r\n  struct Kitty {\r\n\r\n      uint256 genes;\r\n      uint64 birthTime;\r\n      uint32 mumId;\r\n      uint32 dadId;\r\n      uint16 generation;\r\n  }\r\n\r\n  Kitty[] kitties;\r\n\r\n  mapping (uint256 => address) public kittyIndexToOwner;\r\n  mapping (address => uint256) ownershipTokenCount;\r\n\r\n  // Add a list of approved kitties, that are allowed to be transfered\r\n  mapping (uint256 => address) public kittyIndexToApproved;\r\n\r\n  function _createKitty(\r\n      uint256 _mumId,\r\n      uint256 _dadId,\r\n      uint256 _generation,\r\n      uint256 _genes,\r\n      address _owner\r\n  )\r\n      internal\r\n      returns (uint)\r\n  {\r\n\r\n    Kitty memory _kitty = Kitty({\r\n        genes: _genes,\r\n        birthTime: uint64(block.timestamp),\r\n        mumId: uint32(_mumId),\r\n        dadId: uint32(_dadId),\r\n        generation: uint16(_generation)\r\n    });\r\n\r\n    kitties.push(_kitty);\r\n\r\n    uint256 newKittenId = kitties.length- 1;\r\n\r\n    // It's probably never going to happen, 4 billion cats is A LOT, but\r\n    // let's just be 100% sure we never let this happen.\r\n    require(newKittenId == uint256(uint32(newKittenId)));\r\n\r\n    // emit the birth event\r\n    emit Birth(\r\n        _owner,\r\n        newKittenId,\r\n        uint256(_kitty.mumId),\r\n        uint256(_kitty.dadId),\r\n        _kitty.genes\r\n    );\r\n\r\n    // This will assign ownership, and also emit the Transfer event as\r\n    // per ERC721 draft\r\n    _transfer(address(0), _owner, newKittenId);\r\n    return newKittenId;\r\n  }\r\n\r\n  function _transfer(address _from, address _to, uint256 _tokenId) internal {\r\n\r\n    // Since the number of kittens is capped to 2^32 we can't overflow this\r\n    ownershipTokenCount[_to]++;\r\n    // transfer ownership\r\n    kittyIndexToOwner[_tokenId] = _to;\r\n\r\n    if (_from != address(0)) {\r\n        ownershipTokenCount[_from]--;\r\n\r\n        delete kittyIndexToApproved[_tokenId];\r\n    }\r\n\r\n    // Emit the transfer event.\r\n    emit Transfer(_from, _to, _tokenId);\r\n  }\r\n}",
  "sourcePath": "C:\\Users\\benX\\Documents\\ethereum_course_advanced\\myCryptoKitties_master\\contracts\\KittyFactory.sol",
  "compiler": {
    "name": "solc",
    "version": "0.8.7+commit.e28d00a7.Emscripten.clang"
  },
  "schemaVersion": "3.4.2",
  "updatedAt": "2021-08-16T21:27:02.967Z",
  "devdoc": {
    "kind": "dev",
    "methods": {},
    "version": 1
  },
  "userdoc": {
    "kind": "user",
    "methods": {},
    "version": 1
  }
}