{
  "contractName": "KittyMarketPlace",
  "abi": [
    {
      "inputs": [
        {
          "internalType": "address",
          "name": "_kittyContractAddress",
          "type": "address"
        }
      ],
      "stateMutability": "nonpayable",
      "type": "constructor"
    },
    {
      "anonymous": false,
      "inputs": [
        {
          "indexed": true,
          "internalType": "address",
          "name": "owner",
          "type": "address"
        },
        {
          "indexed": true,
          "internalType": "address",
          "name": "approved",
          "type": "address"
        },
        {
          "indexed": true,
          "internalType": "uint256",
          "name": "tokenId",
          "type": "uint256"
        }
      ],
      "name": "Approval",
      "type": "event"
    },
    {
      "anonymous": false,
      "inputs": [
        {
          "indexed": true,
          "internalType": "address",
          "name": "owner",
          "type": "address"
        },
        {
          "indexed": true,
          "internalType": "address",
          "name": "operator",
          "type": "address"
        },
        {
          "indexed": false,
          "internalType": "bool",
          "name": "approved",
          "type": "bool"
        }
      ],
      "name": "ApprovalForAll",
      "type": "event"
    },
    {
      "anonymous": false,
      "inputs": [
        {
          "indexed": false,
          "internalType": "address",
          "name": "owner",
          "type": "address"
        },
        {
          "indexed": false,
          "internalType": "uint256",
          "name": "newKittenId",
          "type": "uint256"
        },
        {
          "indexed": false,
          "internalType": "uint256",
          "name": "mumId",
          "type": "uint256"
        },
        {
          "indexed": false,
          "internalType": "uint256",
          "name": "dadId",
          "type": "uint256"
        },
        {
          "indexed": false,
          "internalType": "uint256",
          "name": "genes",
          "type": "uint256"
        }
      ],
      "name": "Birth",
      "type": "event"
    },
    {
      "anonymous": false,
      "inputs": [
        {
          "indexed": false,
          "internalType": "string",
          "name": "TxType",
          "type": "string"
        },
        {
          "indexed": false,
          "internalType": "address",
          "name": "owner",
          "type": "address"
        },
        {
          "indexed": false,
          "internalType": "uint256",
          "name": "tokenId",
          "type": "uint256"
        }
      ],
      "name": "MarketTransaction",
      "type": "event"
    },
    {
      "anonymous": false,
      "inputs": [
        {
          "indexed": true,
          "internalType": "address",
          "name": "previousOwner",
          "type": "address"
        },
        {
          "indexed": true,
          "internalType": "address",
          "name": "newOwner",
          "type": "address"
        }
      ],
      "name": "OwnershipTransferred",
      "type": "event"
    },
    {
      "anonymous": false,
      "inputs": [
        {
          "indexed": true,
          "internalType": "address",
          "name": "from",
          "type": "address"
        },
        {
          "indexed": true,
          "internalType": "address",
          "name": "to",
          "type": "address"
        },
        {
          "indexed": true,
          "internalType": "uint256",
          "name": "tokenId",
          "type": "uint256"
        }
      ],
      "name": "Transfer",
      "type": "event"
    },
    {
      "inputs": [
        {
          "internalType": "uint256",
          "name": "_dadId",
          "type": "uint256"
        },
        {
          "internalType": "uint256",
          "name": "_mumId",
          "type": "uint256"
        }
      ],
      "name": "Breeding",
      "outputs": [
        {
          "internalType": "uint256",
          "name": "",
          "type": "uint256"
        }
      ],
      "stateMutability": "nonpayable",
      "type": "function"
    },
    {
      "inputs": [],
      "name": "CREATION_LIMIT_GEN0",
      "outputs": [
        {
          "internalType": "uint256",
          "name": "",
          "type": "uint256"
        }
      ],
      "stateMutability": "view",
      "type": "function",
      "constant": true
    },
    {
      "inputs": [
        {
          "internalType": "address",
          "name": "_approved",
          "type": "address"
        },
        {
          "internalType": "uint256",
          "name": "_tokenId",
          "type": "uint256"
        }
      ],
      "name": "approve",
      "outputs": [],
      "stateMutability": "nonpayable",
      "type": "function"
    },
    {
      "inputs": [
        {
          "internalType": "address",
          "name": "owner",
          "type": "address"
        }
      ],
      "name": "balanceOf",
      "outputs": [
        {
          "internalType": "uint256",
          "name": "balance",
          "type": "uint256"
        }
      ],
      "stateMutability": "view",
      "type": "function",
      "constant": true
    },
    {
      "inputs": [
        {
          "internalType": "uint256",
          "name": "_genes",
          "type": "uint256"
        }
      ],
      "name": "createKittyGen0",
      "outputs": [
        {
          "internalType": "uint256",
          "name": "",
          "type": "uint256"
        }
      ],
      "stateMutability": "nonpayable",
      "type": "function"
    },
    {
      "inputs": [],
      "name": "gen0Counter",
      "outputs": [
        {
          "internalType": "uint256",
          "name": "",
          "type": "uint256"
        }
      ],
      "stateMutability": "view",
      "type": "function",
      "constant": true
    },
    {
      "inputs": [
        {
          "internalType": "address",
          "name": "owner",
          "type": "address"
        }
      ],
      "name": "getAllCatsFor",
      "outputs": [
        {
          "internalType": "uint256[]",
          "name": "",
          "type": "uint256[]"
        }
      ],
      "stateMutability": "view",
      "type": "function",
      "constant": true
    },
    {
      "inputs": [
        {
          "internalType": "address",
          "name": "user",
          "type": "address"
        }
      ],
      "name": "getAllTokensForUser",
      "outputs": [
        {
          "internalType": "uint256[]",
          "name": "",
          "type": "uint256[]"
        }
      ],
      "stateMutability": "view",
      "type": "function",
      "constant": true
    },
    {
      "inputs": [
        {
          "internalType": "uint256",
          "name": "_tokenId",
          "type": "uint256"
        }
      ],
      "name": "getApproved",
      "outputs": [
        {
          "internalType": "address",
          "name": "",
          "type": "address"
        }
      ],
      "stateMutability": "view",
      "type": "function",
      "constant": true
    },
    {
      "inputs": [
        {
          "internalType": "uint256",
          "name": "_id",
          "type": "uint256"
        }
      ],
      "name": "getKitty",
      "outputs": [
        {
          "internalType": "uint256",
          "name": "genes",
          "type": "uint256"
        },
        {
          "internalType": "uint256",
          "name": "birthTime",
          "type": "uint256"
        },
        {
          "internalType": "uint256",
          "name": "mumId",
          "type": "uint256"
        },
        {
          "internalType": "uint256",
          "name": "dadId",
          "type": "uint256"
        },
        {
          "internalType": "uint256",
          "name": "generation",
          "type": "uint256"
        }
      ],
      "stateMutability": "view",
      "type": "function",
      "constant": true
    },
    {
      "inputs": [
        {
          "internalType": "address",
          "name": "_owner",
          "type": "address"
        },
        {
          "internalType": "address",
          "name": "_operator",
          "type": "address"
        }
      ],
      "name": "isApprovedForAll",
      "outputs": [
        {
          "internalType": "bool",
          "name": "",
          "type": "bool"
        }
      ],
      "stateMutability": "view",
      "type": "function",
      "constant": true
    },
    {
      "inputs": [
        {
          "internalType": "uint256",
          "name": "",
          "type": "uint256"
        }
      ],
      "name": "kittyIndexToApproved",
      "outputs": [
        {
          "internalType": "address",
          "name": "",
          "type": "address"
        }
      ],
      "stateMutability": "view",
      "type": "function",
      "constant": true
    },
    {
      "inputs": [
        {
          "internalType": "uint256",
          "name": "",
          "type": "uint256"
        }
      ],
      "name": "kittyIndexToOwner",
      "outputs": [
        {
          "internalType": "address",
          "name": "",
          "type": "address"
        }
      ],
      "stateMutability": "view",
      "type": "function",
      "constant": true
    },
    {
      "inputs": [],
      "name": "name",
      "outputs": [
        {
          "internalType": "string",
          "name": "tokenName",
          "type": "string"
        }
      ],
      "stateMutability": "pure",
      "type": "function",
      "constant": true
    },
    {
      "inputs": [],
      "name": "owner",
      "outputs": [
        {
          "internalType": "address",
          "name": "",
          "type": "address"
        }
      ],
      "stateMutability": "view",
      "type": "function",
      "constant": true
    },
    {
      "inputs": [
        {
          "internalType": "uint256",
          "name": "tokenId",
          "type": "uint256"
        }
      ],
      "name": "ownerOf",
      "outputs": [
        {
          "internalType": "address",
          "name": "owner",
          "type": "address"
        }
      ],
      "stateMutability": "view",
      "type": "function",
      "constant": true
    },
    {
      "inputs": [],
      "name": "renounceOwnership",
      "outputs": [],
      "stateMutability": "nonpayable",
      "type": "function"
    },
    {
      "inputs": [
        {
          "internalType": "address",
          "name": "_from",
          "type": "address"
        },
        {
          "internalType": "address",
          "name": "_to",
          "type": "address"
        },
        {
          "internalType": "uint256",
          "name": "_tokenId",
          "type": "uint256"
        }
      ],
      "name": "safeTransferFrom",
      "outputs": [],
      "stateMutability": "nonpayable",
      "type": "function"
    },
    {
      "inputs": [
        {
          "internalType": "address",
          "name": "_from",
          "type": "address"
        },
        {
          "internalType": "address",
          "name": "_to",
          "type": "address"
        },
        {
          "internalType": "uint256",
          "name": "_tokenId",
          "type": "uint256"
        },
        {
          "internalType": "bytes",
          "name": "data",
          "type": "bytes"
        }
      ],
      "name": "safeTransferFrom",
      "outputs": [],
      "stateMutability": "nonpayable",
      "type": "function"
    },
    {
      "inputs": [
        {
          "internalType": "address",
          "name": "_operator",
          "type": "address"
        },
        {
          "internalType": "bool",
          "name": "_approved",
          "type": "bool"
        }
      ],
      "name": "setApprovalForAll",
      "outputs": [],
      "stateMutability": "nonpayable",
      "type": "function"
    },
    {
      "inputs": [
        {
          "internalType": "bytes4",
          "name": "_interfaceId",
          "type": "bytes4"
        }
      ],
      "name": "supportsInterface",
      "outputs": [
        {
          "internalType": "bool",
          "name": "",
          "type": "bool"
        }
      ],
      "stateMutability": "pure",
      "type": "function",
      "constant": true
    },
    {
      "inputs": [],
      "name": "symbol",
      "outputs": [
        {
          "internalType": "string",
          "name": "tokenSymbol",
          "type": "string"
        }
      ],
      "stateMutability": "pure",
      "type": "function",
      "constant": true
    },
    {
      "inputs": [
        {
          "internalType": "address",
          "name": "_owner",
          "type": "address"
        }
      ],
      "name": "tokensOfOwner",
      "outputs": [
        {
          "internalType": "uint256[]",
          "name": "ownerTokens",
          "type": "uint256[]"
        }
      ],
      "stateMutability": "view",
      "type": "function",
      "constant": true
    },
    {
      "inputs": [],
      "name": "totalSupply",
      "outputs": [
        {
          "internalType": "uint256",
          "name": "total",
          "type": "uint256"
        }
      ],
      "stateMutability": "view",
      "type": "function",
      "constant": true
    },
    {
      "inputs": [
        {
          "internalType": "address",
          "name": "to",
          "type": "address"
        },
        {
          "internalType": "uint256",
          "name": "tokenId",
          "type": "uint256"
        }
      ],
      "name": "transfer",
      "outputs": [],
      "stateMutability": "nonpayable",
      "type": "function"
    },
    {
      "inputs": [
        {
          "internalType": "address",
          "name": "_from",
          "type": "address"
        },
        {
          "internalType": "address",
          "name": "_to",
          "type": "address"
        },
        {
          "internalType": "uint256",
          "name": "_tokenId",
          "type": "uint256"
        }
      ],
      "name": "transferFrom",
      "outputs": [],
      "stateMutability": "nonpayable",
      "type": "function"
    },
    {
      "inputs": [
        {
          "internalType": "address",
          "name": "newOwner",
          "type": "address"
        }
      ],
      "name": "transferOwnership",
      "outputs": [],
      "stateMutability": "nonpayable",
      "type": "function"
    },
    {
      "inputs": [
        {
          "internalType": "address",
          "name": "_kittyContractAddress",
          "type": "address"
        }
      ],
      "name": "setKittyContract",
      "outputs": [],
      "stateMutability": "nonpayable",
      "type": "function"
    },
    {
      "inputs": [
        {
          "internalType": "uint256",
          "name": "_tokenId",
          "type": "uint256"
        }
      ],
      "name": "getOffer",
      "outputs": [
        {
          "internalType": "address",
          "name": "seller",
          "type": "address"
        },
        {
          "internalType": "uint256",
          "name": "price",
          "type": "uint256"
        },
        {
          "internalType": "uint256",
          "name": "index",
          "type": "uint256"
        },
        {
          "internalType": "uint256",
          "name": "tokenId",
          "type": "uint256"
        },
        {
          "internalType": "bool",
          "name": "active",
          "type": "bool"
        }
      ],
      "stateMutability": "view",
      "type": "function",
      "constant": true
    },
    {
      "inputs": [],
      "name": "getAllTokenOnSale",
      "outputs": [
        {
          "internalType": "uint256[]",
          "name": "listOfOffers",
          "type": "uint256[]"
        }
      ],
      "stateMutability": "view",
      "type": "function",
      "constant": true
    },
    {
      "inputs": [
        {
          "internalType": "uint256",
          "name": "_price",
          "type": "uint256"
        },
        {
          "internalType": "uint256",
          "name": "_tokenId",
          "type": "uint256"
        }
      ],
      "name": "setOffer",
      "outputs": [],
      "stateMutability": "nonpayable",
      "type": "function"
    },
    {
      "inputs": [
        {
          "internalType": "uint256",
          "name": "_tokenId",
          "type": "uint256"
        }
      ],
      "name": "removeOffer",
      "outputs": [],
      "stateMutability": "nonpayable",
      "type": "function"
    },
    {
      "inputs": [
        {
          "internalType": "uint256",
          "name": "_tokenId",
          "type": "uint256"
        }
      ],
      "name": "buyKitty",
      "outputs": [],
      "stateMutability": "payable",
      "type": "function",
      "payable": true
    }
  ],
  "bytecode": "0x608060405260006007553480156200001657600080fd5b50604051620057df380380620057df83398181016040528101906200003c91906200090e565b6200005c620000506200008d60201b60201c565b6200009560201b60201c565b6200007460008060008060006200015960201b60201c565b5062000086816200035560201b60201c565b5062000c84565b600033905090565b60008060009054906101000a900473ffffffffffffffffffffffffffffffffffffffff169050816000806101000a81548173ffffffffffffffffffffffffffffffffffffffff021916908373ffffffffffffffffffffffffffffffffffffffff1602179055508173ffffffffffffffffffffffffffffffffffffffff168173ffffffffffffffffffffffffffffffffffffffff167f8be0079c531659141344cd1fd0a4f28419497f9722a3daafe3b4186f6b6457e060405160405180910390a35050565b6000806040518060a001604052808581526020014267ffffffffffffffff1681526020018863ffffffff1681526020018763ffffffff1681526020018661ffff16815250905060088190806001815401808255809150506001900390600052602060002090600202016000909190919091506000820151816000015560208201518160010160006101000a81548167ffffffffffffffff021916908367ffffffffffffffff16021790555060408201518160010160086101000a81548163ffffffff021916908363ffffffff160217905550606082015181600101600c6101000a81548163ffffffff021916908363ffffffff16021790555060808201518160010160106101000a81548161ffff021916908361ffff1602179055505050600060016008805490506200028d919062000abf565b90508063ffffffff168114620002da576040517f08c379a0000000000000000000000000000000000000000000000000000000008152600401620002d19062000a2f565b60405180910390fd5b7f0a5311bd2a6608f08a180df2ee7c5946819a649b204b554bb8e39825b2c50ad58482846040015163ffffffff16856060015163ffffffff1686600001516040516200032b959493929190620009b0565b60405180910390a162000347600085836200042860201b60201c565b809250505095945050505050565b620003656200008d60201b60201c565b73ffffffffffffffffffffffffffffffffffffffff166200038b6200067060201b60201c565b73ffffffffffffffffffffffffffffffffffffffff1614620003e4576040517f08c379a0000000000000000000000000000000000000000000000000000000008152600401620003db9062000a0d565b60405180910390fd5b80600960006101000a81548173ffffffffffffffffffffffffffffffffffffffff021916908373ffffffffffffffffffffffffffffffffffffffff16021790555050565b6001600260008473ffffffffffffffffffffffffffffffffffffffff1673ffffffffffffffffffffffffffffffffffffffff16815260200190815260200160002060008282546200047a919062000a62565b92505081905550816001600083815260200190815260200160002060006101000a81548173ffffffffffffffffffffffffffffffffffffffff021916908373ffffffffffffffffffffffffffffffffffffffff160217905550600560008373ffffffffffffffffffffffffffffffffffffffff1673ffffffffffffffffffffffffffffffffffffffff168152602001908152602001600020819080600181540180825580915050600190039060005260206000200160009091909190915055600073ffffffffffffffffffffffffffffffffffffffff168373ffffffffffffffffffffffffffffffffffffffff161462000610576001600260008573ffffffffffffffffffffffffffffffffffffffff1673ffffffffffffffffffffffffffffffffffffffff1681526020019081526020016000206000828254620005c0919062000abf565b92505081905550620005d983826200069960201b60201c565b6001600082815260200190815260200160002060006101000a81549073ffffffffffffffffffffffffffffffffffffffff02191690555b808273ffffffffffffffffffffffffffffffffffffffff163373ffffffffffffffffffffffffffffffffffffffff167fddf252ad1be2c89b69c2b068fc378daa952ba7f163c4a11628f55a4df523b3ef60405160405180910390a4505050565b60008060009054906101000a900473ffffffffffffffffffffffffffffffffffffffff16905090565b6000600560008473ffffffffffffffffffffffffffffffffffffffff1673ffffffffffffffffffffffffffffffffffffffff1681526020019081526020016000206001600560008673ffffffffffffffffffffffffffffffffffffffff1673ffffffffffffffffffffffffffffffffffffffff168152602001908152602001600020805490506200072b919062000abf565b815481106200073f576200073e62000be4565b5b9060005260206000200154905060005b6001600560008673ffffffffffffffffffffffffffffffffffffffff1673ffffffffffffffffffffffffffffffffffffffff16815260200190815260200160002080549050620007a0919062000abf565b811015620008f15782600560008673ffffffffffffffffffffffffffffffffffffffff1673ffffffffffffffffffffffffffffffffffffffff1681526020019081526020016000208281548110620007fd57620007fc62000be4565b5b90600052602060002001541415620008db5781600560008673ffffffffffffffffffffffffffffffffffffffff1673ffffffffffffffffffffffffffffffffffffffff168152602001908152602001600020828154811062000864576200086362000be4565b5b9060005260206000200181905550600560008573ffffffffffffffffffffffffffffffffffffffff1673ffffffffffffffffffffffffffffffffffffffff168152602001908152602001600020805480620008c457620008c362000bb5565b5b600190038181906000526020600020016000905590555b8080620008e89062000b38565b9150506200074f565b50505050565b600081519050620009088162000c6a565b92915050565b60006020828403121562000927576200092662000c13565b5b60006200093784828501620008f7565b91505092915050565b6200094b8162000afa565b82525050565b60006200096060208362000a51565b91506200096d8262000c18565b602082019050919050565b60006200098760128362000a51565b9150620009948262000c41565b602082019050919050565b620009aa8162000b2e565b82525050565b600060a082019050620009c7600083018862000940565b620009d660208301876200099f565b620009e560408301866200099f565b620009f460608301856200099f565b62000a0360808301846200099f565b9695505050505050565b6000602082019050818103600083015262000a288162000951565b9050919050565b6000602082019050818103600083015262000a4a8162000978565b9050919050565b600082825260208201905092915050565b600062000a6f8262000b2e565b915062000a7c8362000b2e565b9250827fffffffffffffffffffffffffffffffffffffffffffffffffffffffffffffffff0382111562000ab45762000ab362000b86565b5b828201905092915050565b600062000acc8262000b2e565b915062000ad98362000b2e565b92508282101562000aef5762000aee62000b86565b5b828203905092915050565b600062000b078262000b0e565b9050919050565b600073ffffffffffffffffffffffffffffffffffffffff82169050919050565b6000819050919050565b600062000b458262000b2e565b91507fffffffffffffffffffffffffffffffffffffffffffffffffffffffffffffffff82141562000b7b5762000b7a62000b86565b5b600182019050919050565b7f4e487b7100000000000000000000000000000000000000000000000000000000600052601160045260246000fd5b7f4e487b7100000000000000000000000000000000000000000000000000000000600052603160045260246000fd5b7f4e487b7100000000000000000000000000000000000000000000000000000000600052603260045260246000fd5b600080fd5b7f4f776e61626c653a2063616c6c6572206973206e6f7420746865206f776e6572600082015250565b7f342042696c6c696f6e2063617473206d61780000000000000000000000000000600082015250565b62000c758162000afa565b811462000c8157600080fd5b50565b614b4b8062000c946000396000f3fe6080604052600436106101ee5760003560e01c80638462151c1161010d578063ae5310f6116100a0578063d5a776ca1161006f578063d5a776ca1461073c578063e985e9c514610779578063e98b7f4d146107b6578063ef5e94aa146107f7578063f2fde38b14610822576101ee565b8063ae5310f61461068f578063b4834330146106ab578063b88d4fde146106d6578063b921a400146106ff576101ee565b806395d89b41116100dc57806395d89b41146105d5578063a22cb46514610600578063a45f4bfc14610629578063a9059cbb14610666576101ee565b80638462151c1461051b5780638da5cb5b14610558578063941b055b1461058357806395a0f9c7146105ac576101ee565b8063481af3d3116101855780636352211e116101545780636352211e1461044d57806370a082311461048a578063715018a6146104c757806382de8fe9146104de576101ee565b8063481af3d31461037f57806349b3709f146103bc5780635a64aafa146103e757806362b7f94e14610424576101ee565b806318160ddd116101c157806318160ddd146102c157806323b872dd146102ec57806342842e0e146103155780634579268a1461033e576101ee565b806301ffc9a7146101f357806306fdde0314610230578063081812fc1461025b578063095ea7b314610298575b600080fd5b3480156101ff57600080fd5b5061021a600480360381019061021591906134cd565b61084b565b6040516102279190613c2a565b60405180910390f35b34801561023c57600080fd5b506102456108eb565b6040516102529190613c45565b60405180910390f35b34801561026757600080fd5b50610282600480360381019061027d9190613527565b610928565b60405161028f9190613a9b565b60405180910390f35b3480156102a457600080fd5b506102bf60048036038101906102ba9190613460565b6109ac565b005b3480156102cd57600080fd5b506102d6610a28565b6040516102e3919061403b565b60405180910390f35b3480156102f857600080fd5b50610313600480360381019061030e9190613345565b610a35565b005b34801561032157600080fd5b5061033c60048036038101906103379190613345565b610b9f565b005b34801561034a57600080fd5b5061036560048036038101906103609190613527565b610baf565b604051610376959493929190613b62565b60405180910390f35b34801561038b57600080fd5b506103a660048036038101906103a19190613527565b610c27565b6040516103b39190613a9b565b60405180910390f35b3480156103c857600080fd5b506103d1610c5a565b6040516103de9190613c08565b60405180910390f35b3480156103f357600080fd5b5061040e600480360381019061040991906132ab565b610dbb565b60405161041b9190613c08565b60405180910390f35b34801561043057600080fd5b5061044b600480360381019061044691906132ab565b610e52565b005b34801561045957600080fd5b50610474600480360381019061046f9190613527565b610f12565b6040516104819190613a9b565b60405180910390f35b34801561049657600080fd5b506104b160048036038101906104ac91906132ab565b610fc4565b6040516104be919061403b565b60405180910390f35b3480156104d357600080fd5b506104dc61100d565b005b3480156104ea57600080fd5b50610505600480360381019061050091906132ab565b611095565b6040516105129190613c08565b60405180910390f35b34801561052757600080fd5b50610542600480360381019061053d91906132ab565b6111ef565b60405161054f9190613c08565b60405180910390f35b34801561056457600080fd5b5061056d611378565b60405161057a9190613a9b565b60405180910390f35b34801561058f57600080fd5b506105aa60048036038101906105a59190613554565b6113a1565b005b3480156105b857600080fd5b506105d360048036038101906105ce9190613527565b61175f565b005b3480156105e157600080fd5b506105ea6119b3565b6040516105f79190613c45565b60405180910390f35b34801561060c57600080fd5b5061062760048036038101906106229190613420565b6119f0565b005b34801561063557600080fd5b50610650600480360381019061064b9190613527565b611b5c565b60405161065d9190613a9b565b60405180910390f35b34801561067257600080fd5b5061068d60048036038101906106889190613460565b611b8f565b005b6106a960048036038101906106a49190613527565b611c90565b005b3480156106b757600080fd5b506106c0612016565b6040516106cd919061403b565b60405180910390f35b3480156106e257600080fd5b506106fd60048036038101906106f89190613398565b61201b565b005b34801561070b57600080fd5b5061072660048036038101906107219190613554565b612189565b604051610733919061403b565b60405180910390f35b34801561074857600080fd5b50610763600480360381019061075e9190613527565b6122e3565b604051610770919061403b565b60405180910390f35b34801561078557600080fd5b506107a0600480360381019061079b9190613305565b6123d5565b6040516107ad9190613c2a565b60405180910390f35b3480156107c257600080fd5b506107dd60048036038101906107d89190613527565b612469565b6040516107ee959493929190614056565b60405180910390f35b34801561080357600080fd5b5061080c612584565b604051610819919061403b565b60405180910390f35b34801561082e57600080fd5b50610849600480360381019061084491906132ab565b61258a565b005b60006380ac58cd60e01b7bffffffffffffffffffffffffffffffffffffffffffffffffffffffff1916827bffffffffffffffffffffffffffffffffffffffffffffffffffffffff191614806108e457506301ffc9a760e01b7bffffffffffffffffffffffffffffffffffffffffffffffffffffffff1916827bffffffffffffffffffffffffffffffffffffffffffffffffffffffff1916145b9050919050565b60606040518060400160405280600e81526020017f4d792043727970746f2043617473000000000000000000000000000000000000815250905090565b60006008805490508210610971576040517f08c379a000000000000000000000000000000000000000000000000000000000815260040161096890613dc7565b60405180910390fd5b6003600083815260200190815260200160002060009054906101000a900473ffffffffffffffffffffffffffffffffffffffff169050919050565b6109b63382612682565b6109bf57600080fd5b6109c981836126ee565b808273ffffffffffffffffffffffffffffffffffffffff163373ffffffffffffffffffffffffffffffffffffffff167f8c5be1e5ebec7d5bd14f71427d1e84f3dd0314c0f7b2291e5b200ac8c7c3b92560405160405180910390a45050565b6000600880549050905090565b600073ffffffffffffffffffffffffffffffffffffffff168273ffffffffffffffffffffffffffffffffffffffff161415610aa5576040517f08c379a0000000000000000000000000000000000000000000000000000000008152600401610a9c90613ce7565b60405180910390fd5b6008805490508110610aec576040517f08c379a0000000000000000000000000000000000000000000000000000000008152600401610ae390613dc7565b60405180910390fd5b610af68382612682565b610b35576040517f08c379a0000000000000000000000000000000000000000000000000000000008152600401610b2c90613f9b565b60405180910390fd5b8273ffffffffffffffffffffffffffffffffffffffff163373ffffffffffffffffffffffffffffffffffffffff161480610b755750610b7483336123d5565b5b80610b865750610b853382612744565b5b610b8f57600080fd5b610b9a8383836127b0565b505050565b610baa838383610b9f565b505050565b600080600080600080600a600088815260200190815260200160002090508060000160009054906101000a900473ffffffffffffffffffffffffffffffffffffffff168160010154826002015483600301548460040160009054906101000a900460ff16955095509550955095505091939590929450565b60036020528060005260406000206000915054906101000a900473ffffffffffffffffffffffffffffffffffffffff1681565b60606000600c8054905090506000811415610cc157600067ffffffffffffffff811115610c8a57610c89614442565b5b604051908082528060200260200182016040528015610cb85781602001602082028036833780820191505090505b50915050610db8565b60008167ffffffffffffffff811115610cdd57610cdc614442565b5b604051908082528060200260200182016040528015610d0b5781602001602082028036833780820191505090505b50905060005b82811015610db15760011515600c8281548110610d3157610d30614413565b5b906000526020600020906005020160040160009054906101000a900460ff1615151415610d9e57600c8181548110610d6c57610d6b614413565b5b906000526020600020906005020160030154828281518110610d9157610d90614413565b5b6020026020010181815250505b8080610da99061430c565b915050610d11565b8193505050505b90565b6060600560008373ffffffffffffffffffffffffffffffffffffffff1673ffffffffffffffffffffffffffffffffffffffff168152602001908152602001600020805480602002602001604051908101604052809291908181526020018280548015610e4657602002820191906000526020600020905b815481526020019060010190808311610e32575b50505050509050919050565b610e5a6129eb565b73ffffffffffffffffffffffffffffffffffffffff16610e78611378565b73ffffffffffffffffffffffffffffffffffffffff1614610ece576040517f08c379a0000000000000000000000000000000000000000000000000000000008152600401610ec590613e9f565b60405180910390fd5b80600960006101000a81548173ffffffffffffffffffffffffffffffffffffffff021916908373ffffffffffffffffffffffffffffffffffffffff16021790555050565b6000806001600084815260200190815260200160002060009054906101000a900473ffffffffffffffffffffffffffffffffffffffff169050600073ffffffffffffffffffffffffffffffffffffffff168173ffffffffffffffffffffffffffffffffffffffff161415610fbb576040517f08c379a0000000000000000000000000000000000000000000000000000000008152600401610fb290613de7565b60405180910390fd5b80915050919050565b6000600260008373ffffffffffffffffffffffffffffffffffffffff1673ffffffffffffffffffffffffffffffffffffffff168152602001908152602001600020549050919050565b6110156129eb565b73ffffffffffffffffffffffffffffffffffffffff16611033611378565b73ffffffffffffffffffffffffffffffffffffffff1614611089576040517f08c379a000000000000000000000000000000000000000000000000000000000815260040161108090613e9f565b60405180910390fd5b61109360006129f3565b565b606060006110a283610fc4565b905060008114156110ff57600067ffffffffffffffff8111156110c8576110c7614442565b5b6040519080825280602002602001820160405280156110f65781602001602082028036833780820191505090505b509150506111ea565b60008167ffffffffffffffff81111561111b5761111a614442565b5b6040519080825280602002602001820160405280156111495781602001602082028036833780820191505090505b50905060006007549050600080600090505b828110156111e1578673ffffffffffffffffffffffffffffffffffffffff1661118382610f12565b73ffffffffffffffffffffffffffffffffffffffff1614156111ce57808483815181106111b3576111b2614413565b5b60200260200101818152505081806111ca9061430c565b9250505b80806111d99061430c565b91505061115b565b83955050505050505b919050565b606060006111fc83610fc4565b9050600081141561125957600067ffffffffffffffff81111561122257611221614442565b5b6040519080825280602002602001820160405280156112505781602001602082028036833780820191505090505b50915050611373565b60008167ffffffffffffffff81111561127557611274614442565b5b6040519080825280602002602001820160405280156112a35781602001602082028036833780820191505090505b50905060006112b0610a28565b9050600080600190505b82811161136a578673ffffffffffffffffffffffffffffffffffffffff166001600083815260200190815260200160002060009054906101000a900473ffffffffffffffffffffffffffffffffffffffff1673ffffffffffffffffffffffffffffffffffffffff161415611357578084838151811061133c5761133b614413565b5b60200260200101818152505081806113539061430c565b9250505b80806113629061430c565b9150506112ba565b83955050505050505b919050565b60008060009054906101000a900473ffffffffffffffffffffffffffffffffffffffff16905090565b661ff973cafa800082116113ea576040517f08c379a00000000000000000000000000000000000000000000000000000000081526004016113e190613d27565b60405180910390fd5b60001515600a600083815260200190815260200160002060040160009054906101000a900460ff16151514611454576040517f08c379a000000000000000000000000000000000000000000000000000000000815260040161144b90613f7b565b60405180910390fd5b61145e3382612ab7565b61149d576040517f08c379a000000000000000000000000000000000000000000000000000000000815260040161149490613f1b565b60405180910390fd5b600960009054906101000a900473ffffffffffffffffffffffffffffffffffffffff1673ffffffffffffffffffffffffffffffffffffffff1663e985e9c533306040518363ffffffff1660e01b81526004016114fa929190613aed565b60206040518083038186803b15801561151257600080fd5b505afa158015611526573d6000803e3d6000fd5b505050506040513d601f19601f8201168201806040525081019061154a91906134a0565b611589576040517f08c379a000000000000000000000000000000000000000000000000000000000815260040161158090613c67565b60405180910390fd5b60006040518060a001604052803373ffffffffffffffffffffffffffffffffffffffff168152602001848152602001600c80549050815260200183815260200160011515815250905080600a600084815260200190815260200160002060008201518160000160006101000a81548173ffffffffffffffffffffffffffffffffffffffff021916908373ffffffffffffffffffffffffffffffffffffffff16021790555060208201518160010155604082015181600201556060820151816003015560808201518160040160006101000a81548160ff021916908315150217905550905050600c81908060018154018082558091505060019003906000526020600020906005020160009091909190915060008201518160000160006101000a81548173ffffffffffffffffffffffffffffffffffffffff021916908373ffffffffffffffffffffffffffffffffffffffff16021790555060208201518160010155604082015181600201556060820151816003015560808201518160040160006101000a81548160ff02191690831515021790555050507fd99e4fad9ad6313b1feb588fa8e605e3a9873172f2024330c35dd2b4041a43863383604051611752929190613e27565b60405180910390a1505050565b6117693382612682565b6117a8576040517f08c379a000000000000000000000000000000000000000000000000000000000815260040161179f90613f3b565b60405180910390fd5b6000600a60008381526020019081526020016000206040518060a00160405290816000820160009054906101000a900473ffffffffffffffffffffffffffffffffffffffff1673ffffffffffffffffffffffffffffffffffffffff1673ffffffffffffffffffffffffffffffffffffffff1681526020016001820154815260200160028201548152602001600382015481526020016004820160009054906101000a900460ff16151515158152505090503373ffffffffffffffffffffffffffffffffffffffff16816000015173ffffffffffffffffffffffffffffffffffffffff16146118cb576040517f08c379a00000000000000000000000000000000000000000000000000000000081526004016118c290613fdb565b60405180910390fd5b600a6000838152602001908152602001600020600080820160006101000a81549073ffffffffffffffffffffffffffffffffffffffff02191690556001820160009055600282016000905560038201600090556004820160006101000a81549060ff021916905550506000600c82604001518154811061194e5761194d614413565b5b906000526020600020906005020160040160006101000a81548160ff0219169083151502179055507fd99e4fad9ad6313b1feb588fa8e605e3a9873172f2024330c35dd2b4041a438633836040516119a7929190613ebf565b60405180910390a15050565b60606040518060400160405280600481526020017f4d43524300000000000000000000000000000000000000000000000000000000815250905090565b3373ffffffffffffffffffffffffffffffffffffffff168273ffffffffffffffffffffffffffffffffffffffff161415611a5f576040517f08c379a0000000000000000000000000000000000000000000000000000000008152600401611a5690613ffb565b60405180910390fd5b80600460003373ffffffffffffffffffffffffffffffffffffffff1673ffffffffffffffffffffffffffffffffffffffff16815260200190815260200160002060008473ffffffffffffffffffffffffffffffffffffffff1673ffffffffffffffffffffffffffffffffffffffff16815260200190815260200160002060006101000a81548160ff0219169083151502179055508173ffffffffffffffffffffffffffffffffffffffff163373ffffffffffffffffffffffffffffffffffffffff167f17307eab39ab6107e8899845ad3d59bd9653f200f220920489ca2b5937696c3183604051611b509190613c2a565b60405180910390a35050565b60016020528060005260406000206000915054906101000a900473ffffffffffffffffffffffffffffffffffffffff1681565b600073ffffffffffffffffffffffffffffffffffffffff168273ffffffffffffffffffffffffffffffffffffffff161415611bff576040517f08c379a0000000000000000000000000000000000000000000000000000000008152600401611bf690613d47565b60405180910390fd5b3073ffffffffffffffffffffffffffffffffffffffff168273ffffffffffffffffffffffffffffffffffffffff161415611c6e576040517f08c379a0000000000000000000000000000000000000000000000000000000008152600401611c6590613cc7565b60405180910390fd5b611c783382612682565b611c8157600080fd5b611c8c3383836127b0565b5050565b6000600a60008381526020019081526020016000206040518060a00160405290816000820160009054906101000a900473ffffffffffffffffffffffffffffffffffffffff1673ffffffffffffffffffffffffffffffffffffffff1673ffffffffffffffffffffffffffffffffffffffff1681526020016001820154815260200160028201548152602001600382015481526020016004820160009054906101000a900460ff161515151581525050905080602001513414611d87576040517f08c379a0000000000000000000000000000000000000000000000000000000008152600401611d7e90613e07565b60405180910390fd5b60011515600a600084815260200190815260200160002060040160009054906101000a900460ff16151514611df1576040517f08c379a0000000000000000000000000000000000000000000000000000000008152600401611de890613c87565b60405180910390fd5b600a6000838152602001908152602001600020600080820160006101000a81549073ffffffffffffffffffffffffffffffffffffffff02191690556001820160009055600282016000905560038201600090556004820160006101000a81549060ff021916905550506000600c826040015181548110611e7457611e73614413565b5b906000526020600020906005020160040160006101000a81548160ff021916908315150217905550600081602001511115611ef957806000015173ffffffffffffffffffffffffffffffffffffffff166108fc82602001519081150290604051600060405180830381858888f19350505050158015611ef7573d6000803e3d6000fd5b505b600960009054906101000a900473ffffffffffffffffffffffffffffffffffffffff1673ffffffffffffffffffffffffffffffffffffffff166323b872dd826000015133856040518463ffffffff1660e01b8152600401611f5c93929190613ab6565b600060405180830381600087803b158015611f7657600080fd5b505af1158015611f8a573d6000803e3d6000fd5b50505050806000015173ffffffffffffffffffffffffffffffffffffffff166108fc349081150290604051600060405180830381858888f19350505050158015611fd8573d6000803e3d6000fd5b507fd99e4fad9ad6313b1feb588fa8e605e3a9873172f2024330c35dd2b4041a4386338360405161200a929190613e63565b60405180910390a15050565b600a81565b600073ffffffffffffffffffffffffffffffffffffffff168473ffffffffffffffffffffffffffffffffffffffff16141561208b576040517f08c379a000000000000000000000000000000000000000000000000000000000815260040161208290613efb565b60405180910390fd5b60088054905083106120d2576040517f08c379a00000000000000000000000000000000000000000000000000000000081526004016120c990613d87565b60405180910390fd5b6120dc8584612682565b61211b576040517f08c379a000000000000000000000000000000000000000000000000000000000815260040161211290613d67565b60405180910390fd5b8473ffffffffffffffffffffffffffffffffffffffff163373ffffffffffffffffffffffffffffffffffffffff16148061215b575061215a85856123d5565b5b8061216c575061216b3384612744565b5b61217557600080fd5b6121828585858585612b9a565b5050505050565b60006121953384612682565b80156121a757506121a63383612682565b5b6121e6576040517f08c379a00000000000000000000000000000000000000000000000000000000081526004016121dd90613da7565b60405180910390fd5b82821415612229576040517f08c379a000000000000000000000000000000000000000000000000000000000815260040161222090613f5b565b60405180910390fd5b60008061223585612469565b9450505050915060008061224886612469565b94505050509150600061225b8584612c05565b905060008285101561228a57600183612274919061411a565b90506002816122839190614170565b90506122c6565b828511156122b55760018561229f919061411a565b90506002816122ae9190614170565b90506122c5565b6001836122c2919061411a565b90505b5b6122d3888a838533612c59565b5080965050505050505092915050565b60006122ed6129eb565b73ffffffffffffffffffffffffffffffffffffffff1661230b611378565b73ffffffffffffffffffffffffffffffffffffffff1614612361576040517f08c379a000000000000000000000000000000000000000000000000000000000815260040161235890613e9f565b60405180910390fd5b600a60065411156123a7576040517f08c379a000000000000000000000000000000000000000000000000000000000815260040161239e90613d07565b60405180910390fd5b600660008154809291906123ba9061430c565b91905055506123ce60008060008533612c59565b9050919050565b6000600460008473ffffffffffffffffffffffffffffffffffffffff1673ffffffffffffffffffffffffffffffffffffffff16815260200190815260200160002060008373ffffffffffffffffffffffffffffffffffffffff1673ffffffffffffffffffffffffffffffffffffffff16815260200190815260200160002060009054906101000a900460ff16905092915050565b6000806000806000806008878154811061248657612485614413565b5b9060005260206000209060020201905060008160010160009054906101000a900467ffffffffffffffff1667ffffffffffffffff16116124fb576040517f08c379a00000000000000000000000000000000000000000000000000000000081526004016124f29061401b565b60405180910390fd5b8060010160009054906101000a900467ffffffffffffffff1667ffffffffffffffff1694508060010160089054906101000a900463ffffffff1663ffffffff16935080600101600c9054906101000a900463ffffffff1663ffffffff1692508060010160109054906101000a900461ffff1661ffff169150806000015495505091939590929450565b60065481565b6125926129eb565b73ffffffffffffffffffffffffffffffffffffffff166125b0611378565b73ffffffffffffffffffffffffffffffffffffffff1614612606576040517f08c379a00000000000000000000000000000000000000000000000000000000081526004016125fd90613e9f565b60405180910390fd5b600073ffffffffffffffffffffffffffffffffffffffff168173ffffffffffffffffffffffffffffffffffffffff161415612676576040517f08c379a000000000000000000000000000000000000000000000000000000000815260040161266d90613ca7565b60405180910390fd5b61267f816129f3565b50565b60008273ffffffffffffffffffffffffffffffffffffffff166001600084815260200190815260200160002060009054906101000a900473ffffffffffffffffffffffffffffffffffffffff1673ffffffffffffffffffffffffffffffffffffffff1614905092915050565b806003600084815260200190815260200160002060006101000a81548173ffffffffffffffffffffffffffffffffffffffff021916908373ffffffffffffffffffffffffffffffffffffffff1602179055505050565b60008273ffffffffffffffffffffffffffffffffffffffff166003600084815260200190815260200160002060009054906101000a900473ffffffffffffffffffffffffffffffffffffffff1673ffffffffffffffffffffffffffffffffffffffff1614905092915050565b6001600260008473ffffffffffffffffffffffffffffffffffffffff1673ffffffffffffffffffffffffffffffffffffffff1681526020019081526020016000206000828254612800919061411a565b92505081905550816001600083815260200190815260200160002060006101000a81548173ffffffffffffffffffffffffffffffffffffffff021916908373ffffffffffffffffffffffffffffffffffffffff160217905550600560008373ffffffffffffffffffffffffffffffffffffffff1673ffffffffffffffffffffffffffffffffffffffff168152602001908152602001600020819080600181540180825580915050600190039060005260206000200160009091909190915055600073ffffffffffffffffffffffffffffffffffffffff168373ffffffffffffffffffffffffffffffffffffffff161461298b576001600260008573ffffffffffffffffffffffffffffffffffffffff1673ffffffffffffffffffffffffffffffffffffffff168152602001908152602001600020600082825461294391906141fb565b925050819055506129548382612e46565b6001600082815260200190815260200160002060006101000a81549073ffffffffffffffffffffffffffffffffffffffff02191690555b808273ffffffffffffffffffffffffffffffffffffffff163373ffffffffffffffffffffffffffffffffffffffff167fddf252ad1be2c89b69c2b068fc378daa952ba7f163c4a11628f55a4df523b3ef60405160405180910390a4505050565b600033905090565b60008060009054906101000a900473ffffffffffffffffffffffffffffffffffffffff169050816000806101000a81548173ffffffffffffffffffffffffffffffffffffffff021916908373ffffffffffffffffffffffffffffffffffffffff1602179055508173ffffffffffffffffffffffffffffffffffffffff168173ffffffffffffffffffffffffffffffffffffffff167f8be0079c531659141344cd1fd0a4f28419497f9722a3daafe3b4186f6b6457e060405160405180910390a35050565b60008273ffffffffffffffffffffffffffffffffffffffff16600960009054906101000a900473ffffffffffffffffffffffffffffffffffffffff1673ffffffffffffffffffffffffffffffffffffffff16636352211e846040518263ffffffff1660e01b8152600401612b2b919061403b565b60206040518083038186803b158015612b4357600080fd5b505afa158015612b57573d6000803e3d6000fd5b505050506040513d601f19601f82011682018060405250810190612b7b91906132d8565b73ffffffffffffffffffffffffffffffffffffffff1614905092915050565b612ba58585856127b0565b612bf585858585858080601f016020809104026020016040519081016040528093929190818152602001838380828437600081840152601f19601f8201169050808301925050505050505061308f565b612bfe57600080fd5b5050505050565b6000806305f5e10084612c189190614170565b905060006305f5e10084612c2c9190614355565b90506000816305f5e10084612c4191906141a1565b612c4b919061411a565b905080935050505092915050565b6000806040518060a001604052808581526020014267ffffffffffffffff1681526020018863ffffffff1681526020018763ffffffff1681526020018661ffff16815250905060088190806001815401808255809150506001900390600052602060002090600202016000909190919091506000820151816000015560208201518160010160006101000a81548167ffffffffffffffff021916908367ffffffffffffffff16021790555060408201518160010160086101000a81548163ffffffff021916908363ffffffff160217905550606082015181600101600c6101000a81548163ffffffff021916908363ffffffff16021790555060808201518160010160106101000a81548161ffff021916908361ffff160217905550505060006001600880549050612d8b91906141fb565b90508063ffffffff168114612dd5576040517f08c379a0000000000000000000000000000000000000000000000000000000008152600401612dcc90613fbb565b60405180910390fd5b7f0a5311bd2a6608f08a180df2ee7c5946819a649b204b554bb8e39825b2c50ad58482846040015163ffffffff16856060015163ffffffff168660000151604051612e24959493929190613bb5565b60405180910390a1612e38600085836127b0565b809250505095945050505050565b6000600560008473ffffffffffffffffffffffffffffffffffffffff1673ffffffffffffffffffffffffffffffffffffffff1681526020019081526020016000206001600560008673ffffffffffffffffffffffffffffffffffffffff1673ffffffffffffffffffffffffffffffffffffffff16815260200190815260200160002080549050612ed691906141fb565b81548110612ee757612ee6614413565b5b9060005260206000200154905060005b6001600560008673ffffffffffffffffffffffffffffffffffffffff1673ffffffffffffffffffffffffffffffffffffffff16815260200190815260200160002080549050612f4691906141fb565b8110156130895782600560008673ffffffffffffffffffffffffffffffffffffffff1673ffffffffffffffffffffffffffffffffffffffff1681526020019081526020016000208281548110612f9f57612f9e614413565b5b906000526020600020015414156130765781600560008673ffffffffffffffffffffffffffffffffffffffff1673ffffffffffffffffffffffffffffffffffffffff168152602001908152602001600020828154811061300257613001614413565b5b9060005260206000200181905550600560008573ffffffffffffffffffffffffffffffffffffffff1673ffffffffffffffffffffffffffffffffffffffff16815260200190815260200160002080548061305f5761305e6143e4565b5b600190038181906000526020600020016000905590555b80806130819061430c565b915050612ef7565b50505050565b600061309a846131a9565b6130a757600190506131a1565b60008473ffffffffffffffffffffffffffffffffffffffff1663150b7a02338887876040518563ffffffff1660e01b81526004016130e89493929190613b16565b602060405180830381600087803b15801561310257600080fd5b505af1158015613116573d6000803e3d6000fd5b505050506040513d601f19601f8201168201806040525081019061313a91906134fa565b90507f150b7a023d4804d13e8c85fb27262cb750cf6ba9f9dd3bb30d90f482ceeb4b1f7bffffffffffffffffffffffffffffffffffffffffffffffffffffffff1916817bffffffffffffffffffffffffffffffffffffffffffffffffffffffff1916149150505b949350505050565b600080823b905060008163ffffffff1611915050919050565b6000813590506131d181614ab9565b92915050565b6000815190506131e681614ab9565b92915050565b6000813590506131fb81614ad0565b92915050565b60008151905061321081614ad0565b92915050565b60008135905061322581614ae7565b92915050565b60008151905061323a81614ae7565b92915050565b60008083601f84011261325657613255614476565b5b8235905067ffffffffffffffff81111561327357613272614471565b5b60208301915083600182028301111561328f5761328e61447b565b5b9250929050565b6000813590506132a581614afe565b92915050565b6000602082840312156132c1576132c0614485565b5b60006132cf848285016131c2565b91505092915050565b6000602082840312156132ee576132ed614485565b5b60006132fc848285016131d7565b91505092915050565b6000806040838503121561331c5761331b614485565b5b600061332a858286016131c2565b925050602061333b858286016131c2565b9150509250929050565b60008060006060848603121561335e5761335d614485565b5b600061336c868287016131c2565b935050602061337d868287016131c2565b925050604061338e86828701613296565b9150509250925092565b6000806000806000608086880312156133b4576133b3614485565b5b60006133c2888289016131c2565b95505060206133d3888289016131c2565b94505060406133e488828901613296565b935050606086013567ffffffffffffffff81111561340557613404614480565b5b61341188828901613240565b92509250509295509295909350565b6000806040838503121561343757613436614485565b5b6000613445858286016131c2565b9250506020613456858286016131ec565b9150509250929050565b6000806040838503121561347757613476614485565b5b6000613485858286016131c2565b925050602061349685828601613296565b9150509250929050565b6000602082840312156134b6576134b5614485565b5b60006134c484828501613201565b91505092915050565b6000602082840312156134e3576134e2614485565b5b60006134f184828501613216565b91505092915050565b6000602082840312156135105761350f614485565b5b600061351e8482850161322b565b91505092915050565b60006020828403121561353d5761353c614485565b5b600061354b84828501613296565b91505092915050565b6000806040838503121561356b5761356a614485565b5b600061357985828601613296565b925050602061358a85828601613296565b9150509250929050565b60006135a08383613a7d565b60208301905092915050565b6135b5816142a3565b82525050565b6135c48161422f565b82525050565b60006135d5826140b9565b6135df81856140e7565b93506135ea836140a9565b8060005b8381101561361b5781516136028882613594565b975061360d836140da565b9250506001810190506135ee565b5085935050505092915050565b61363181614241565b82525050565b6000613642826140c4565b61364c81856140f8565b935061365c8185602086016142d9565b6136658161448a565b840191505092915050565b600061367b826140cf565b6136858185614109565b93506136958185602086016142d9565b61369e8161448a565b840191505092915050565b60006136b6602c83614109565b91506136c18261449b565b604082019050919050565b60006136d9601783614109565b91506136e4826144ea565b602082019050919050565b60006136fc602683614109565b915061370782614513565b604082019050919050565b600061371f601c83614109565b915061372a82614562565b602082019050919050565b6000613742602083614109565b915061374d8261458b565b602082019050919050565b6000613765602e83614109565b9150613770826145b4565b604082019050919050565b6000613788602583614109565b915061379382614603565b604082019050919050565b60006137ab602483614109565b91506137b682614652565b604082019050919050565b60006137ce602583614109565b91506137d9826146a1565b604082019050919050565b60006137f1601483614109565b91506137fc826146f0565b602082019050919050565b6000613814602a83614109565b915061381f82614719565b604082019050919050565b6000613837601083614109565b915061384282614768565b602082019050919050565b600061385a602983614109565b915061386582614791565b604082019050919050565b600061387d601483614109565b9150613888826147e0565b602082019050919050565b60006138a0600c83614109565b91506138ab82614809565b602082019050919050565b60006138c3600383614109565b91506138ce82614832565b602082019050919050565b60006138e6602083614109565b91506138f18261485b565b602082019050919050565b6000613909600c83614109565b915061391482614884565b602082019050919050565b600061392c601d83614109565b9150613937826148ad565b602082019050919050565b600061394f602083614109565b915061395a826148d6565b602082019050919050565b6000613972601c83614109565b915061397d826148ff565b602082019050919050565b6000613995601f83614109565b91506139a082614928565b602082019050919050565b60006139b8602483614109565b91506139c382614951565b604082019050919050565b60006139db601383614109565b91506139e6826149a0565b602082019050919050565b60006139fe601283614109565b9150613a09826149c9565b602082019050919050565b6000613a21603f83614109565b9150613a2c826149f2565b604082019050919050565b6000613a44603083614109565b9150613a4f82614a41565b604082019050919050565b6000613a67601783614109565b9150613a7282614a90565b602082019050919050565b613a8681614299565b82525050565b613a9581614299565b82525050565b6000602082019050613ab060008301846135bb565b92915050565b6000606082019050613acb60008301866135ac565b613ad860208301856135bb565b613ae56040830184613a8c565b949350505050565b6000604082019050613b0260008301856135bb565b613b0f60208301846135bb565b9392505050565b6000608082019050613b2b60008301876135bb565b613b3860208301866135bb565b613b456040830185613a8c565b8181036060830152613b578184613637565b905095945050505050565b600060a082019050613b7760008301886135bb565b613b846020830187613a8c565b613b916040830186613a8c565b613b9e6060830185613a8c565b613bab6080830184613628565b9695505050505050565b600060a082019050613bca60008301886135bb565b613bd76020830187613a8c565b613be46040830186613a8c565b613bf16060830185613a8c565b613bfe6080830184613a8c565b9695505050505050565b60006020820190508181036000830152613c2281846135ca565b905092915050565b6000602082019050613c3f6000830184613628565b92915050565b60006020820190508181036000830152613c5f8184613670565b905092915050565b60006020820190508181036000830152613c80816136a9565b9050919050565b60006020820190508181036000830152613ca0816136cc565b9050919050565b60006020820190508181036000830152613cc0816136ef565b9050919050565b60006020820190508181036000830152613ce081613712565b9050919050565b60006020820190508181036000830152613d0081613735565b9050919050565b60006020820190508181036000830152613d2081613758565b9050919050565b60006020820190508181036000830152613d408161377b565b9050919050565b60006020820190508181036000830152613d608161379e565b9050919050565b60006020820190508181036000830152613d80816137c1565b9050919050565b60006020820190508181036000830152613da0816137e4565b9050919050565b60006020820190508181036000830152613dc081613807565b9050919050565b60006020820190508181036000830152613de08161382a565b9050919050565b60006020820190508181036000830152613e008161384d565b9050919050565b60006020820190508181036000830152613e2081613870565b9050919050565b60006060820190508181036000830152613e4081613893565b9050613e4f60208301856135bb565b613e5c6040830184613a8c565b9392505050565b60006060820190508181036000830152613e7c816138b6565b9050613e8b60208301856135bb565b613e986040830184613a8c565b9392505050565b60006020820190508181036000830152613eb8816138d9565b9050919050565b60006060820190508181036000830152613ed8816138fc565b9050613ee760208301856135bb565b613ef46040830184613a8c565b9392505050565b60006020820190508181036000830152613f148161391f565b9050919050565b60006020820190508181036000830152613f3481613942565b9050919050565b60006020820190508181036000830152613f5481613965565b9050919050565b60006020820190508181036000830152613f7481613988565b9050919050565b60006020820190508181036000830152613f94816139ab565b9050919050565b60006020820190508181036000830152613fb4816139ce565b9050919050565b60006020820190508181036000830152613fd4816139f1565b9050919050565b60006020820190508181036000830152613ff481613a14565b9050919050565b6000602082019050818103600083015261401481613a37565b9050919050565b6000602082019050818103600083015261403481613a5a565b9050919050565b60006020820190506140506000830184613a8c565b92915050565b600060a08201905061406b6000830188613a8c565b6140786020830187613a8c565b6140856040830186613a8c565b6140926060830185613a8c565b61409f6080830184613a8c565b9695505050505050565b6000819050602082019050919050565b600081519050919050565b600081519050919050565b600081519050919050565b6000602082019050919050565b600082825260208201905092915050565b600082825260208201905092915050565b600082825260208201905092915050565b600061412582614299565b915061413083614299565b9250827fffffffffffffffffffffffffffffffffffffffffffffffffffffffffffffffff0382111561416557614164614386565b5b828201905092915050565b600061417b82614299565b915061418683614299565b925082614196576141956143b5565b5b828204905092915050565b60006141ac82614299565b91506141b783614299565b9250817fffffffffffffffffffffffffffffffffffffffffffffffffffffffffffffffff04831182151516156141f0576141ef614386565b5b828202905092915050565b600061420682614299565b915061421183614299565b92508282101561422457614223614386565b5b828203905092915050565b600061423a82614279565b9050919050565b60008115159050919050565b60007fffffffff0000000000000000000000000000000000000000000000000000000082169050919050565b600073ffffffffffffffffffffffffffffffffffffffff82169050919050565b6000819050919050565b60006142ae826142b5565b9050919050565b60006142c0826142c7565b9050919050565b60006142d282614279565b9050919050565b60005b838110156142f75780820151818401526020810190506142dc565b83811115614306576000848401525b50505050565b600061431782614299565b91507fffffffffffffffffffffffffffffffffffffffffffffffffffffffffffffffff82141561434a57614349614386565b5b600182019050919050565b600061436082614299565b915061436b83614299565b92508261437b5761437a6143b5565b5b828206905092915050565b7f4e487b7100000000000000000000000000000000000000000000000000000000600052601160045260246000fd5b7f4e487b7100000000000000000000000000000000000000000000000000000000600052601260045260246000fd5b7f4e487b7100000000000000000000000000000000000000000000000000000000600052603160045260246000fd5b7f4e487b7100000000000000000000000000000000000000000000000000000000600052603260045260246000fd5b7f4e487b7100000000000000000000000000000000000000000000000000000000600052604160045260246000fd5b600080fd5b600080fd5b600080fd5b600080fd5b600080fd5b6000601f19601f8301169050919050565b7f436f6e7472616374206e6565647320617070726f76616c20666f72206675747560008201527f7265207472616e73666572730000000000000000000000000000000000000000602082015250565b7f4e6f20616374697665206f726465722070726573656e74000000000000000000600082015250565b7f4f776e61626c653a206e6577206f776e657220697320746865207a65726f206160008201527f6464726573730000000000000000000000000000000000000000000000000000602082015250565b7f7472616e7366657220746f20746865207a65726f206164647265737300000000600082015250565b7f546f2061646472657373206973206e6f742061207a65726f2061646472657373600082015250565b7f47656e20302073686f756c64206265206c657373207468616e2063726561746960008201527f6f6e206c696d69742067656e2030000000000000000000000000000000000000602082015250565b7f4361742070726963652073686f756c642062652067726561746572207468616e60008201527f20302e3031000000000000000000000000000000000000000000000000000000602082015250565b7f4552433732313a207472616e7366657220746f20746865207a65726f2061646460008201527f7265737300000000000000000000000000000000000000000000000000000000602082015250565b7f4e6f7420612076616c6964204e46542c206e6f7420746865206f776e6572206f60008201527f66204e4654000000000000000000000000000000000000000000000000000000602082015250565b7f546f6b656e20646f6573206e6f74206578697374000000000000000000000000600082015250565b7f596f75206d75737420626520746865206f776e6572206f6620626f7468206f6660008201527f20796f7572206361747300000000000000000000000000000000000000000000602082015250565b7f546f6b656e206d75737420657869737400000000000000000000000000000000600082015250565b7f4552433732313a206f776e657220717565727920666f72206e6f6e657869737460008201527f656e7420746f6b656e0000000000000000000000000000000000000000000000602082015250565b7f54686520707269636520697320636f7272656374000000000000000000000000600082015250565b7f437265617465206f666665720000000000000000000000000000000000000000600082015250565b7f4275790000000000000000000000000000000000000000000000000000000000600082015250565b7f4f776e61626c653a2063616c6c6572206973206e6f7420746865206f776e6572600082015250565b7f52656d6f7665206f666665720000000000000000000000000000000000000000600082015250565b7f4d757374207472616e7366657220746f207a65726f2061646472657373000000600082015250565b7f596f7520617265206e6f7420746865206f776e65722074686174206b69747479600082015250565b7f5573657220646f6573206e6f74206f776e207468697320746f6b656e00000000600082015250565b7f546865206361742063616e277420726570726f647563652068696d73656c6600600082015250565b7f596f752063616e27742073656c6c207477696365207468652073616d65206f6660008201527f6665727300000000000000000000000000000000000000000000000000000000602082015250565b7f46726f6d206f776e732074686520746f6b656e00000000000000000000000000600082015250565b7f342042696c6c696f6e2063617473206d61780000000000000000000000000000600082015250565b7f54686973206173736574206d757374206265206f776e6564206279207468652060008201527f73656c6c657220696e206f7264657220746f2072656d6f7665206f6666657200602082015250565b7f4552433732313a20617070726f766520746f2063616c6c65722c20796f75206160008201527f7265206e6f7420746865206f776e657200000000000000000000000000000000602082015250565b7f746865206b6974747920646f65736e2774206578697374000000000000000000600082015250565b614ac28161422f565b8114614acd57600080fd5b50565b614ad981614241565b8114614ae457600080fd5b50565b614af08161424d565b8114614afb57600080fd5b50565b614b0781614299565b8114614b1257600080fd5b5056fea264697066735822122041e9c33f13b79c58b01df46687935d8bc7378a5d439feae5c3ea11989ba5a19764736f6c63430008070033",
  "immutableReferences": {},
  "source": "// SPDX-License-Identifier: MIT\r\npragma solidity ^0.8.0;\r\n\r\n//import \"@openzeppelin/contracts/access/Ownable.sol\";\r\nimport \"./kittiesContract.sol\";\r\n\r\n// Filip has 'is Ownable' instead and Ownable probably inherits myKittiesContract\r\n\r\ncontract KittyMarketPlace is myKittiesContract {\r\n\r\n  myKittiesContract private _kittyContract;\r\n\r\n  struct Offer {\r\n    address payable seller;\r\n    uint256 price;\r\n    uint256 index;\r\n    uint256 tokenId;\r\n    bool active;\r\n  }\r\n\r\n  mapping(uint256 => Offer) tokenIdToOffer;\r\n  mapping(uint256 => uint256) tokenIdToOfferId;\r\n\r\n  event MarketTransaction(string TxType, address owner, uint256 tokenId);\r\n\r\n\r\n  Offer[] offers;\r\n\r\n\r\n  function setKittyContract(address _kittyContractAddress) public onlyOwner() { // External functions read from calldata, directly || Public functions copies array arguments to memory)\r\n    _kittyContract = myKittiesContract(_kittyContractAddress);\r\n\r\n  }\r\n\r\n  constructor(address _kittyContractAddress) {\r\n        setKittyContract(_kittyContractAddress);\r\n    }\r\n  \r\n\r\n   function getOffer(uint256 _tokenId) external view returns (address seller, uint256 price, uint256 index, uint256 tokenId, bool active) {\r\n     Offer storage returnOffers = tokenIdToOffer[_tokenId];\r\n     return (returnOffers.seller, returnOffers.price, returnOffers.index, returnOffers.tokenId, returnOffers.active);\r\n     \r\n   }\r\n\r\n   function getAllTokenOnSale() external view returns(uint256[] memory listOfOffers) {\r\n     // this array lets us loop through the array and find all of the tokens so we can then display them all on a web page\r\n     uint256 totalOffers = offers.length;\r\n\r\n     if (totalOffers == 0) {\r\n       return new uint256[](0); // empty array takes a space in the array such as [0]\r\n     } \r\n     else {\r\n       uint256[] memory resultOfToken = new uint256[](totalOffers);\r\n\r\n       uint256 offerId; \r\n\r\n       // cannot remove inactive orders from arrays so this is the best solution thus far\r\n\r\n       for(offerId = 0; offerId < totalOffers; offerId++) {\r\n         if(offers[offerId].active == true) { // if - offers array, [offer id] -> price is true, then result is resultOfToken [offerId] equals; offers array [offerId] of tokenId\r\n         resultOfToken[offerId] = offers[offerId].tokenId;\r\n         }\r\n       }\r\n       return resultOfToken;\r\n\r\n     }\r\n   }\r\n\r\n  /*\r\n  // my version\r\n   function _ownsKitty(address _address, uint256 _tokenId) internal returns (bool) {\r\n    kittyIndexToOwner[_tokenId] = _address;\r\n    return true;\r\n   }\r\n   */\r\n\r\n  // Filip's version\r\n  function _ownsKitty(address _address, uint256 _tokenId) internal view returns (bool) {\r\n    return (_kittyContract.ownerOf(_tokenId) == _address);\r\n  }\r\n    \r\n   /*\r\n    *   We give the contract the ability to transfer kitties\r\n    *   As the kitties will be in the market place we need to be able to transfer them\r\n    *   We are checking if the user is owning the kitty inside the approve function\r\n    */\r\n    \r\n    /*\r\n    function createKittyGen0(uint256 _genes) public override onlyOwner returns(uint256 kitty) {\r\n      kitty = _createKitty(0, 0, 0, _genes, msg.sender);\r\n      //uint256 tokenId = kitty;\r\n      //setOffer(0.2 ether, tokenId);\r\n    }\r\n    */\r\n\r\n   function setOffer(uint256 _price, uint256 _tokenId) public {\r\n     require(_price > 0.009 ether, \"Cat price should be greater than 0.01\" );\r\n     require(tokenIdToOffer[_tokenId].active == false, \"You can't sell twice the same offers\");\r\n     require (_ownsKitty(msg.sender, _tokenId), \"You are not the owner that kitty\");\r\n     // kitty contract needs to be approved for all\r\n     require(_kittyContract.isApprovedForAll(msg.sender, address(this)), \"Contract needs approval for future transfers\"); // Market Place needs to be approved as the operator\r\n\r\n     //approve(address(this), _tokenId); // from gitHub contract\r\n\r\n     Offer memory _offer = Offer({\r\n       seller: (payable(msg.sender)),\r\n       price: _price,\r\n       index: offers.length,\r\n       tokenId: _tokenId,\r\n       active: true\r\n     });\r\n\r\n    // we add new offer, this specific tokenId, to tokenIdToOffer mapping and it's pushed into the offer's array\r\n     tokenIdToOffer[_tokenId] = _offer;\r\n     offers.push(_offer);\r\n\r\n     // here, Filip created offers.length with the object's index parameter so we don't neet this function any more\r\n     //uint256 index = offers.length -1; \r\n     //tokenIdToOfferId[_tokenId] = index;\r\n\r\n     emit MarketTransaction(\"Create offer\", msg.sender, _tokenId);\r\n\r\n   }\r\n\r\n\r\n   function removeOffer(uint256 _tokenId) public {\r\n     require(_owns(msg.sender, _tokenId), \"User does not own this token\");\r\n\r\n     Offer memory offer = tokenIdToOffer[_tokenId];\r\n\r\n     require(offer.seller == msg.sender, \"This asset must be owned by the seller in order to remove offer\");\r\n\r\n    /* Remove the offer in the mapping*/\r\n     /* we set mapping to false */\r\n     // tutorial functions are different than final contract on github\r\n\r\n     //delete offers[tokenIdToOfferId[_tokenId]]; previous function\r\n     delete tokenIdToOffer[_tokenId]; //we delete tokenIdToOffer, then we set the offer in array to false\r\n     //offers[tokenIdToOfferId[_tokenId]].active == false; // mine, not sure if this works\r\n     //offers[tokenIdToOffer[_tokenId].index].active = false; // filip's functions\r\n     offers[offer.index].active = false; // cleaner from Filip\r\n\r\n     //_deleteApproval(_tokenId); filip did not use this in tutorial\r\n      emit MarketTransaction(\"Remove offer\", msg.sender, _tokenId);\r\n      \r\n   }\r\n\r\n\r\n    function buyKitty(uint256 _tokenId) public payable { // we input the offer, we get back the offer\r\n      Offer memory offer = tokenIdToOffer[_tokenId];\r\n      require(msg.value == offer.price, \"The price is correct\");\r\n      require(tokenIdToOffer[_tokenId].active == true, \"No active order present\");\r\n\r\n      /* Remove the offer in the mapping*/\r\n      \r\n      // Important: delete kitty from mapping BEFORE paying out; to prevent reentry attacks\r\n      delete tokenIdToOffer[_tokenId]; // we can delete from mapping but not from the array since it will alter the index positions\r\n\r\n      /* we set mapping to false */\r\n      offers[offer.index].active = false;\r\n\r\n      // This was in the video but not in final gitHub contract\r\n      // transfer funds to seller\r\n      // TO DO: make this pull logic instead of push\r\n      if(offer.price > 0) { // we send the funds to seller\r\n        offer.seller.transfer(offer.price);\r\n      }\r\n      \r\n      //* TMP REMOVE THIS*/\r\n      //_approve(_tokenId, msg.sender); \r\n\r\n      // transfer owndership of the kitty\r\n      _kittyContract.transferFrom(offer.seller, msg.sender, _tokenId); // we send tokens to buyer: (seller, buyer, token)\r\n\r\n      offer.seller.transfer(msg.value);\r\n      emit MarketTransaction(\"Buy\", msg.sender, _tokenId);\r\n    }\r\n\r\n}\r\n\r\n// MarketPlace Front End\r\n// add tab: Market Place - display only cats which are currently for sale\r\n// Create a place, window, to create offers - maybe a box, sell kitty, how much\r\n\r\n// Approval\r\n// Check if users have given operator approval to the market place contract\r\n// If not, ask user to do that - maybe open a Meta Mask window\r\n// one could use individual approvals per token, alternatively\r\n\r\n// Code\r\n// Two seperate contract instances\r\n// One instance for Kitty contract\r\n// One instance for Market Place contract\r\n// We will need two abis', two contract addresses...with Web3\r\n\r\n// Conclucion\r\n// Interface to Buy and Sell the cats\r\n// Use contract\r\n// Seller needs to give marke place contract operator approval before creating an offer\r\n\r\n\r\n\r\n\r\n\r\n\r\n\r\n",
  "sourcePath": "C:\\Users\\benX\\Documents\\ethereum_course_advanced\\myCryptoKitties_master\\contracts\\KittyMarketPlace.sol",
  "compiler": {
    "name": "solc",
    "version": "0.8.7+commit.e28d00a7.Emscripten.clang"
  },
  "schemaVersion": "3.4.3",
  "updatedAt": "2021-09-02T02:47:38.254Z",
  "networkType": "ethereum",
  "devdoc": {
    "kind": "dev",
    "methods": {
      "owner()": {
        "details": "Returns the address of the current owner."
      },
      "renounceOwnership()": {
        "details": "Leaves the contract without owner. It will not be possible to call `onlyOwner` functions anymore. Can only be called by the current owner. NOTE: Renouncing ownership will leave the contract without an owner, thereby removing any functionality that is only available to the owner."
      },
      "transferOwnership(address)": {
        "details": "Transfers ownership of the contract to a new account (`newOwner`). Can only be called by the current owner."
      }
    },
    "version": 1
  },
  "userdoc": {
    "kind": "user",
    "methods": {},
    "version": 1
  }
}