{
  "contractName": "KittyMarketPlace",
  "abi": [
    {
      "inputs": [
        {
          "internalType": "address",
          "name": "_kittyContractAddress",
          "type": "address"
        }
      ],
      "stateMutability": "nonpayable",
      "type": "constructor"
    },
    {
      "anonymous": false,
      "inputs": [
        {
          "indexed": false,
          "internalType": "string",
          "name": "TxType",
          "type": "string"
        },
        {
          "indexed": false,
          "internalType": "address",
          "name": "owner",
          "type": "address"
        },
        {
          "indexed": false,
          "internalType": "uint256",
          "name": "tokenId",
          "type": "uint256"
        }
      ],
      "name": "MarketTransaction",
      "type": "event"
    },
    {
      "anonymous": false,
      "inputs": [
        {
          "indexed": true,
          "internalType": "address",
          "name": "previousOwner",
          "type": "address"
        },
        {
          "indexed": true,
          "internalType": "address",
          "name": "newOwner",
          "type": "address"
        }
      ],
      "name": "OwnershipTransferred",
      "type": "event"
    },
    {
      "inputs": [],
      "name": "owner",
      "outputs": [
        {
          "internalType": "address",
          "name": "",
          "type": "address"
        }
      ],
      "stateMutability": "view",
      "type": "function",
      "constant": true
    },
    {
      "inputs": [],
      "name": "renounceOwnership",
      "outputs": [],
      "stateMutability": "nonpayable",
      "type": "function"
    },
    {
      "inputs": [
        {
          "internalType": "address",
          "name": "newOwner",
          "type": "address"
        }
      ],
      "name": "transferOwnership",
      "outputs": [],
      "stateMutability": "nonpayable",
      "type": "function"
    },
    {
      "inputs": [
        {
          "internalType": "address",
          "name": "_kittyContractAddress",
          "type": "address"
        }
      ],
      "name": "setKittyContract",
      "outputs": [],
      "stateMutability": "nonpayable",
      "type": "function"
    },
    {
      "inputs": [
        {
          "internalType": "uint256",
          "name": "_tokenId",
          "type": "uint256"
        }
      ],
      "name": "getOffer",
      "outputs": [
        {
          "internalType": "address",
          "name": "seller",
          "type": "address"
        },
        {
          "internalType": "uint256",
          "name": "price",
          "type": "uint256"
        },
        {
          "internalType": "uint256",
          "name": "index",
          "type": "uint256"
        },
        {
          "internalType": "uint256",
          "name": "tokenId",
          "type": "uint256"
        },
        {
          "internalType": "bool",
          "name": "active",
          "type": "bool"
        }
      ],
      "stateMutability": "view",
      "type": "function",
      "constant": true
    },
    {
      "inputs": [],
      "name": "getAllTokenOnSale",
      "outputs": [
        {
          "internalType": "uint256[]",
          "name": "listOfOffers",
          "type": "uint256[]"
        }
      ],
      "stateMutability": "view",
      "type": "function",
      "constant": true
    },
    {
      "inputs": [
        {
          "internalType": "uint256",
          "name": "_price",
          "type": "uint256"
        },
        {
          "internalType": "uint256",
          "name": "_tokenId",
          "type": "uint256"
        }
      ],
      "name": "setOffer",
      "outputs": [],
      "stateMutability": "nonpayable",
      "type": "function"
    },
    {
      "inputs": [
        {
          "internalType": "uint256",
          "name": "_tokenId",
          "type": "uint256"
        }
      ],
      "name": "removeOffer",
      "outputs": [],
      "stateMutability": "nonpayable",
      "type": "function"
    },
    {
      "inputs": [
        {
          "internalType": "uint256",
          "name": "_tokenId",
          "type": "uint256"
        }
      ],
      "name": "buyKitty",
      "outputs": [],
      "stateMutability": "payable",
      "type": "function",
      "payable": true
    }
  ],
  "bytecode": "0x60806040523480156200001157600080fd5b50604051620021173803806200211783398181016040528101906200003791906200024e565b620000576200004b6200006f60201b60201c565b6200007760201b60201c565b62000068816200013b60201b60201c565b5062000356565b600033905090565b60008060009054906101000a900473ffffffffffffffffffffffffffffffffffffffff169050816000806101000a81548173ffffffffffffffffffffffffffffffffffffffff021916908373ffffffffffffffffffffffffffffffffffffffff1602179055508173ffffffffffffffffffffffffffffffffffffffff168173ffffffffffffffffffffffffffffffffffffffff167f8be0079c531659141344cd1fd0a4f28419497f9722a3daafe3b4186f6b6457e060405160405180910390a35050565b6200014b6200006f60201b60201c565b73ffffffffffffffffffffffffffffffffffffffff16620001716200020e60201b60201c565b73ffffffffffffffffffffffffffffffffffffffff1614620001ca576040517f08c379a0000000000000000000000000000000000000000000000000000000008152600401620001c190620002a7565b60405180910390fd5b80600160006101000a81548173ffffffffffffffffffffffffffffffffffffffff021916908373ffffffffffffffffffffffffffffffffffffffff16021790555050565b60008060009054906101000a900473ffffffffffffffffffffffffffffffffffffffff16905090565b60008151905062000248816200033c565b92915050565b6000602082840312156200026757620002666200030e565b5b6000620002778482850162000237565b91505092915050565b60006200028f602083620002c9565b91506200029c8262000313565b602082019050919050565b60006020820190508181036000830152620002c28162000280565b9050919050565b600082825260208201905092915050565b6000620002e782620002ee565b9050919050565b600073ffffffffffffffffffffffffffffffffffffffff82169050919050565b600080fd5b7f4f776e61626c653a2063616c6c6572206973206e6f7420746865206f776e6572600082015250565b6200034781620002da565b81146200035357600080fd5b50565b611db180620003666000396000f3fe6080604052600436106100865760003560e01c80638da5cb5b116100595780638da5cb5b14610137578063941b055b1461016257806395a0f9c71461018b578063ae5310f6146101b4578063f2fde38b146101d057610086565b80634579268a1461008b57806349b3709f146100cc57806362b7f94e146100f7578063715018a614610120575b600080fd5b34801561009757600080fd5b506100b260048036038101906100ad91906112a3565b6101f9565b6040516100c395949392919061163c565b60405180910390f35b3480156100d857600080fd5b506100e1610271565b6040516100ee919061168f565b60405180910390f35b34801561010357600080fd5b5061011e6004803603810190610119919061121c565b6103d2565b005b34801561012c57600080fd5b50610135610492565b005b34801561014357600080fd5b5061014c61051a565b6040516101599190611598565b60405180910390f35b34801561016e57600080fd5b50610189600480360381019061018491906112d0565b610543565b005b34801561019757600080fd5b506101b260048036038101906101ad91906112a3565b610901565b005b6101ce60048036038101906101c991906112a3565b610bf8565b005b3480156101dc57600080fd5b506101f760048036038101906101f2919061121c565b610f21565b005b6000806000806000806002600088815260200190815260200160002090508060000160009054906101000a900473ffffffffffffffffffffffffffffffffffffffff168160010154826002015483600301548460040160009054906101000a900460ff16955095509550955095505091939590929450565b60606000600480549050905060008114156102d857600067ffffffffffffffff8111156102a1576102a0611a2f565b5b6040519080825280602002602001820160405280156102cf5781602001602082028036833780820191505090505b509150506103cf565b60008167ffffffffffffffff8111156102f4576102f3611a2f565b5b6040519080825280602002602001820160405280156103225781602001602082028036833780820191505090505b50905060005b828110156103c857600115156004828154811061034857610347611a00565b5b906000526020600020906005020160040160009054906101000a900460ff16151514156103b5576004818154811061038357610382611a00565b5b9060005260206000209060050201600301548282815181106103a8576103a7611a00565b5b6020026020010181815250505b80806103c090611988565b915050610328565b8193505050505b90565b6103da611019565b73ffffffffffffffffffffffffffffffffffffffff166103f861051a565b73ffffffffffffffffffffffffffffffffffffffff161461044e576040517f08c379a0000000000000000000000000000000000000000000000000000000008152600401610445906117a9565b60405180910390fd5b80600160006101000a81548173ffffffffffffffffffffffffffffffffffffffff021916908373ffffffffffffffffffffffffffffffffffffffff16021790555050565b61049a611019565b73ffffffffffffffffffffffffffffffffffffffff166104b861051a565b73ffffffffffffffffffffffffffffffffffffffff161461050e576040517f08c379a0000000000000000000000000000000000000000000000000000000008152600401610505906117a9565b60405180910390fd5b6105186000611021565b565b60008060009054906101000a900473ffffffffffffffffffffffffffffffffffffffff16905090565b661ff973cafa8000821161058c576040517f08c379a000000000000000000000000000000000000000000000000000000000815260040161058390611711565b60405180910390fd5b600015156002600083815260200190815260200160002060040160009054906101000a900460ff161515146105f6576040517f08c379a00000000000000000000000000000000000000000000000000000000081526004016105ed90611865565b60405180910390fd5b61060033826110e5565b61063f576040517f08c379a000000000000000000000000000000000000000000000000000000000815260040161063690611805565b60405180910390fd5b600160009054906101000a900473ffffffffffffffffffffffffffffffffffffffff1673ffffffffffffffffffffffffffffffffffffffff1663e985e9c533306040518363ffffffff1660e01b815260040161069c9291906115ea565b60206040518083038186803b1580156106b457600080fd5b505afa1580156106c8573d6000803e3d6000fd5b505050506040513d601f19601f820116820180604052508101906106ec9190611276565b61072b576040517f08c379a0000000000000000000000000000000000000000000000000000000008152600401610722906116b1565b60405180910390fd5b60006040518060a001604052803373ffffffffffffffffffffffffffffffffffffffff1681526020018481526020016004805490508152602001838152602001600115158152509050806002600084815260200190815260200160002060008201518160000160006101000a81548173ffffffffffffffffffffffffffffffffffffffff021916908373ffffffffffffffffffffffffffffffffffffffff16021790555060208201518160010155604082015181600201556060820151816003015560808201518160040160006101000a81548160ff021916908315150217905550905050600481908060018154018082558091505060019003906000526020600020906005020160009091909190915060008201518160000160006101000a81548173ffffffffffffffffffffffffffffffffffffffff021916908373ffffffffffffffffffffffffffffffffffffffff16021790555060208201518160010155604082015181600201556060820151816003015560808201518160040160006101000a81548160ff02191690831515021790555050507fd99e4fad9ad6313b1feb588fa8e605e3a9873172f2024330c35dd2b4041a438633836040516108f4929190611731565b60405180910390a1505050565b600160009054906101000a900473ffffffffffffffffffffffffffffffffffffffff1673ffffffffffffffffffffffffffffffffffffffff1663e21fd9fc33836040518363ffffffff1660e01b815260040161095e929190611613565b60206040518083038186803b15801561097657600080fd5b505afa15801561098a573d6000803e3d6000fd5b505050506040513d601f19601f820116820180604052508101906109ae9190611276565b6109ed576040517f08c379a00000000000000000000000000000000000000000000000000000000081526004016109e490611825565b60405180910390fd5b6000600260008381526020019081526020016000206040518060a00160405290816000820160009054906101000a900473ffffffffffffffffffffffffffffffffffffffff1673ffffffffffffffffffffffffffffffffffffffff1673ffffffffffffffffffffffffffffffffffffffff1681526020016001820154815260200160028201548152602001600382015481526020016004820160009054906101000a900460ff16151515158152505090503373ffffffffffffffffffffffffffffffffffffffff16816000015173ffffffffffffffffffffffffffffffffffffffff1614610b10576040517f08c379a0000000000000000000000000000000000000000000000000000000008152600401610b0790611885565b60405180910390fd5b60026000838152602001908152602001600020600080820160006101000a81549073ffffffffffffffffffffffffffffffffffffffff02191690556001820160009055600282016000905560038201600090556004820160006101000a81549060ff0219169055505060006004826040015181548110610b9357610b92611a00565b5b906000526020600020906005020160040160006101000a81548160ff0219169083151502179055507fd99e4fad9ad6313b1feb588fa8e605e3a9873172f2024330c35dd2b4041a43863383604051610bec9291906117c9565b60405180910390a15050565b6000600260008381526020019081526020016000206040518060a00160405290816000820160009054906101000a900473ffffffffffffffffffffffffffffffffffffffff1673ffffffffffffffffffffffffffffffffffffffff1673ffffffffffffffffffffffffffffffffffffffff1681526020016001820154815260200160028201548152602001600382015481526020016004820160009054906101000a900460ff161515151581525050905080602001513414610cef576040517f08c379a0000000000000000000000000000000000000000000000000000000008152600401610ce690611845565b60405180910390fd5b600115156002600084815260200190815260200160002060040160009054906101000a900460ff16151514610d59576040517f08c379a0000000000000000000000000000000000000000000000000000000008152600401610d50906116d1565b60405180910390fd5b60026000838152602001908152602001600020600080820160006101000a81549073ffffffffffffffffffffffffffffffffffffffff02191690556001820160009055600282016000905560038201600090556004820160006101000a81549060ff0219169055505060006004826040015181548110610ddc57610ddb611a00565b5b906000526020600020906005020160040160006101000a81548160ff021916908315150217905550600160009054906101000a900473ffffffffffffffffffffffffffffffffffffffff1673ffffffffffffffffffffffffffffffffffffffff166323b872dd826000015133856040518463ffffffff1660e01b8152600401610e67939291906115b3565b600060405180830381600087803b158015610e8157600080fd5b505af1158015610e95573d6000803e3d6000fd5b50505050806000015173ffffffffffffffffffffffffffffffffffffffff166108fc349081150290604051600060405180830381858888f19350505050158015610ee3573d6000803e3d6000fd5b507fd99e4fad9ad6313b1feb588fa8e605e3a9873172f2024330c35dd2b4041a43863383604051610f1592919061176d565b60405180910390a15050565b610f29611019565b73ffffffffffffffffffffffffffffffffffffffff16610f4761051a565b73ffffffffffffffffffffffffffffffffffffffff1614610f9d576040517f08c379a0000000000000000000000000000000000000000000000000000000008152600401610f94906117a9565b60405180910390fd5b600073ffffffffffffffffffffffffffffffffffffffff168173ffffffffffffffffffffffffffffffffffffffff16141561100d576040517f08c379a0000000000000000000000000000000000000000000000000000000008152600401611004906116f1565b60405180910390fd5b61101681611021565b50565b600033905090565b60008060009054906101000a900473ffffffffffffffffffffffffffffffffffffffff169050816000806101000a81548173ffffffffffffffffffffffffffffffffffffffff021916908373ffffffffffffffffffffffffffffffffffffffff1602179055508173ffffffffffffffffffffffffffffffffffffffff168173ffffffffffffffffffffffffffffffffffffffff167f8be0079c531659141344cd1fd0a4f28419497f9722a3daafe3b4186f6b6457e060405160405180910390a35050565b60008273ffffffffffffffffffffffffffffffffffffffff16600160009054906101000a900473ffffffffffffffffffffffffffffffffffffffff1673ffffffffffffffffffffffffffffffffffffffff16636352211e846040518263ffffffff1660e01b815260040161115991906118a5565b60206040518083038186803b15801561117157600080fd5b505afa158015611185573d6000803e3d6000fd5b505050506040513d601f19601f820116820180604052508101906111a99190611249565b73ffffffffffffffffffffffffffffffffffffffff1614905092915050565b6000813590506111d781611d36565b92915050565b6000815190506111ec81611d36565b92915050565b60008151905061120181611d4d565b92915050565b60008135905061121681611d64565b92915050565b60006020828403121561123257611231611a5e565b5b6000611240848285016111c8565b91505092915050565b60006020828403121561125f5761125e611a5e565b5b600061126d848285016111dd565b91505092915050565b60006020828403121561128c5761128b611a5e565b5b600061129a848285016111f2565b91505092915050565b6000602082840312156112b9576112b8611a5e565b5b60006112c784828501611207565b91505092915050565b600080604083850312156112e7576112e6611a5e565b5b60006112f585828601611207565b925050602061130685828601611207565b9150509250929050565b600061131c838361157a565b60208301905092915050565b61133181611952565b82525050565b6113408161190a565b82525050565b6000611351826118d0565b61135b81856118e8565b9350611366836118c0565b8060005b8381101561139757815161137e8882611310565b9750611389836118db565b92505060018101905061136a565b5085935050505092915050565b6113ad8161191c565b82525050565b60006113c0602c836118f9565b91506113cb82611a63565b604082019050919050565b60006113e36017836118f9565b91506113ee82611ab2565b602082019050919050565b60006114066026836118f9565b915061141182611adb565b604082019050919050565b60006114296025836118f9565b915061143482611b2a565b604082019050919050565b600061144c600c836118f9565b915061145782611b79565b602082019050919050565b600061146f6003836118f9565b915061147a82611ba2565b602082019050919050565b60006114926020836118f9565b915061149d82611bcb565b602082019050919050565b60006114b5600c836118f9565b91506114c082611bf4565b602082019050919050565b60006114d86020836118f9565b91506114e382611c1d565b602082019050919050565b60006114fb601c836118f9565b915061150682611c46565b602082019050919050565b600061151e6018836118f9565b915061152982611c6f565b602082019050919050565b60006115416024836118f9565b915061154c82611c98565b604082019050919050565b6000611564603f836118f9565b915061156f82611ce7565b604082019050919050565b61158381611948565b82525050565b61159281611948565b82525050565b60006020820190506115ad6000830184611337565b92915050565b60006060820190506115c86000830186611328565b6115d56020830185611337565b6115e26040830184611589565b949350505050565b60006040820190506115ff6000830185611337565b61160c6020830184611337565b9392505050565b60006040820190506116286000830185611337565b6116356020830184611589565b9392505050565b600060a0820190506116516000830188611337565b61165e6020830187611589565b61166b6040830186611589565b6116786060830185611589565b61168560808301846113a4565b9695505050505050565b600060208201905081810360008301526116a98184611346565b905092915050565b600060208201905081810360008301526116ca816113b3565b9050919050565b600060208201905081810360008301526116ea816113d6565b9050919050565b6000602082019050818103600083015261170a816113f9565b9050919050565b6000602082019050818103600083015261172a8161141c565b9050919050565b6000606082019050818103600083015261174a8161143f565b90506117596020830185611337565b6117666040830184611589565b9392505050565b6000606082019050818103600083015261178681611462565b90506117956020830185611337565b6117a26040830184611589565b9392505050565b600060208201905081810360008301526117c281611485565b9050919050565b600060608201905081810360008301526117e2816114a8565b90506117f16020830185611337565b6117fe6040830184611589565b9392505050565b6000602082019050818103600083015261181e816114cb565b9050919050565b6000602082019050818103600083015261183e816114ee565b9050919050565b6000602082019050818103600083015261185e81611511565b9050919050565b6000602082019050818103600083015261187e81611534565b9050919050565b6000602082019050818103600083015261189e81611557565b9050919050565b60006020820190506118ba6000830184611589565b92915050565b6000819050602082019050919050565b600081519050919050565b6000602082019050919050565b600082825260208201905092915050565b600082825260208201905092915050565b600061191582611928565b9050919050565b60008115159050919050565b600073ffffffffffffffffffffffffffffffffffffffff82169050919050565b6000819050919050565b600061195d82611964565b9050919050565b600061196f82611976565b9050919050565b600061198182611928565b9050919050565b600061199382611948565b91507fffffffffffffffffffffffffffffffffffffffffffffffffffffffffffffffff8214156119c6576119c56119d1565b5b600182019050919050565b7f4e487b7100000000000000000000000000000000000000000000000000000000600052601160045260246000fd5b7f4e487b7100000000000000000000000000000000000000000000000000000000600052603260045260246000fd5b7f4e487b7100000000000000000000000000000000000000000000000000000000600052604160045260246000fd5b600080fd5b7f436f6e7472616374206e6565647320617070726f76616c20666f72206675747560008201527f7265207472616e73666572730000000000000000000000000000000000000000602082015250565b7f4e6f20616374697665206f726465722070726573656e74000000000000000000600082015250565b7f4f776e61626c653a206e6577206f776e657220697320746865207a65726f206160008201527f6464726573730000000000000000000000000000000000000000000000000000602082015250565b7f4361742070726963652073686f756c642062652067726561746572207468616e60008201527f20302e3031000000000000000000000000000000000000000000000000000000602082015250565b7f437265617465206f666665720000000000000000000000000000000000000000600082015250565b7f4275790000000000000000000000000000000000000000000000000000000000600082015250565b7f4f776e61626c653a2063616c6c6572206973206e6f7420746865206f776e6572600082015250565b7f52656d6f7665206f666665720000000000000000000000000000000000000000600082015250565b7f596f7520617265206e6f7420746865206f776e65722074686174206b69747479600082015250565b7f5573657220646f6573206e6f74206f776e207468697320746f6b656e00000000600082015250565b7f546865207072696365206973206e6f7420636f72726563740000000000000000600082015250565b7f596f752063616e27742073656c6c207477696365207468652073616d65206f6660008201527f6665727300000000000000000000000000000000000000000000000000000000602082015250565b7f54686973206173736574206d757374206265206f776e6564206279207468652060008201527f73656c6c657220696e206f7264657220746f2072656d6f7665206f6666657200602082015250565b611d3f8161190a565b8114611d4a57600080fd5b50565b611d568161191c565b8114611d6157600080fd5b50565b611d6d81611948565b8114611d7857600080fd5b5056fea2646970667358221220bf7eea32421afb2be0e4c304ab101cdf8635fcdb7205d80fc2ea0e587041385564736f6c63430008070033",
  "immutableReferences": {},
  "source": "// SPDX-License-Identifier: MIT\r\npragma solidity ^0.8.0;\r\n\r\nimport \"@openzeppelin/contracts/access/Ownable.sol\";\r\nimport \"./kittiesContract.sol\";\r\n\r\n// Filip has 'is Ownable' instead and Ownable probably inherits myKittiesContract\r\n\r\ncontract KittyMarketPlace is Ownable {\r\n    myKittiesContract private _kittyContract;\r\n\r\n    struct Offer {\r\n        address payable seller;\r\n        uint256 price;\r\n        uint256 index;\r\n        uint256 tokenId;\r\n        bool active;\r\n    }\r\n\r\n    mapping(uint256 => Offer) tokenIdToOffer;\r\n    mapping(uint256 => uint256) tokenIdToOfferId;\r\n\r\n    event MarketTransaction(string TxType, address owner, uint256 tokenId);\r\n\r\n    Offer[] offers;\r\n\r\n    function setKittyContract(address _kittyContractAddress) public onlyOwner {\r\n        // External functions read from calldata, directly || Public functions copies array arguments to memory)\r\n        //this below sets myKittiesContract as _kittyContract so that original contract is first initialized, then called by the MarketPlace contract.\r\n        _kittyContract = myKittiesContract(_kittyContractAddress);\r\n    }\r\n\r\n    constructor(address _kittyContractAddress) {\r\n        // constructor sets the address and calls the setKittyContract function to initialize it when the Market Place contract is deployed.\r\n        setKittyContract(_kittyContractAddress);\r\n    }\r\n\r\n    function getOffer(uint256 _tokenId)\r\n        external\r\n        view\r\n        returns (\r\n            address seller,\r\n            uint256 price,\r\n            uint256 index,\r\n            uint256 tokenId,\r\n            bool active\r\n        )\r\n    {\r\n        Offer storage returnOffers = tokenIdToOffer[_tokenId];\r\n        return (\r\n            returnOffers.seller,\r\n            returnOffers.price,\r\n            returnOffers.index,\r\n            returnOffers.tokenId,\r\n            returnOffers.active\r\n        );\r\n        //we get the token from the mapping, then we return it's variables from Offer struct\r\n    }\r\n\r\n    /*\r\n   function createCat() public override {\r\n     createKittyGen0();\r\n      //Gen0 have no owners they are own by the contract\r\n      uint256 tokenId = _createKitty(0, 0, 0, _genes, msg.sender);\r\n      setOffer(0.2 ether, tokenId);\r\n   }\r\n   */\r\n\r\n    function getAllTokenOnSale()\r\n        public\r\n        view\r\n        returns (uint256[] memory listOfOffers)\r\n    {\r\n        // this array lets us loop through the array and find all of the tokens so we can then display them all on a web page (returns token ids from array)\r\n        uint256 totalOffers = offers.length;\r\n\r\n        if (totalOffers == 0) {\r\n            return new uint256[](0); // empty array takes a space in the array such as [0]\r\n        } else {\r\n            uint256[] memory resultOfToken = new uint256[](totalOffers);\r\n\r\n            uint256 offerId;\r\n\r\n            // cannot remove inactive orders from arrays so this is the best solution thus far\r\n\r\n            for (offerId = 0; offerId < totalOffers; offerId++) {\r\n                if (offers[offerId].active == true) {\r\n                    // if - offers array, [offer id] -> price is true, then result is resultOfToken [offerId] equals; offers array [offerId] of tokenId\r\n                    resultOfToken[offerId] = offers[offerId].tokenId;\r\n                }\r\n            }\r\n            return resultOfToken;\r\n        }\r\n    }\r\n\r\n    /*\r\n  // my version\r\n   function _ownsKitty(address _address, uint256 _tokenId) internal returns (bool) {\r\n    kittyIndexToOwner[_tokenId] = _address;\r\n    return true;\r\n   }\r\n   */\r\n\r\n    // Filip's version\r\n    function _ownsKitty(address _address, uint256 _tokenId)\r\n        internal\r\n        view\r\n        returns (bool)\r\n    {\r\n        return (_kittyContract.ownerOf(_tokenId) == _address);\r\n    }\r\n\r\n    /*\r\n     *   We give the contract the ability to transfer kitties\r\n     *   As the kitties will be in the market place we need to be able to transfer them\r\n     *   We are checking if the user is owning the kitty inside the approve function\r\n     */\r\n\r\n    /*\r\n    function createKittyGen0(uint256 _genes) public override onlyOwner returns(uint256 kitty) {\r\n      kitty = _createKitty(0, 0, 0, _genes, msg.sender);\r\n      //uint256 tokenId = kitty;\r\n      //setOffer(0.2 ether, tokenId);\r\n    }\r\n    */\r\n\r\n    function setOffer(uint256 _price, uint256 _tokenId) public {\r\n        require(_price > 0.009 ether, \"Cat price should be greater than 0.01\");\r\n        require(\r\n            tokenIdToOffer[_tokenId].active == false,\r\n            \"You can't sell twice the same offers\"\r\n        );\r\n        require(\r\n            _ownsKitty(msg.sender, _tokenId),\r\n            \"You are not the owner that kitty\"\r\n        );\r\n        // kitty contract needs to be approved for all\r\n        require(\r\n            _kittyContract.isApprovedForAll(msg.sender, address(this)),\r\n            \"Contract needs approval for future transfers\"\r\n        ); // Market Place needs to be approved as the operator\r\n\r\n        //_kittyContract.approve(address(this), _tokenId); // from gitHub contract\r\n\r\n        Offer memory _offer = Offer({\r\n            seller: (payable(msg.sender)),\r\n            price: _price,\r\n            index: offers.length,\r\n            tokenId: _tokenId,\r\n            active: true\r\n        });\r\n\r\n        // we add new offer, this specific tokenId, to tokenIdToOffer mapping and it's pushed into the offer's array\r\n        tokenIdToOffer[_tokenId] = _offer;\r\n        offers.push(_offer);\r\n\r\n        // here, Filip created offers.length with the object's index parameter so we don't need this function any more\r\n        //uint256 index = offers.length -1;\r\n        //tokenIdToOfferId[_tokenId] = index;\r\n\r\n        emit MarketTransaction(\"Create offer\", msg.sender, _tokenId);\r\n    }\r\n\r\n\r\n    function removeOffer(uint256 _tokenId) public {\r\n        require(\r\n            _kittyContract._owns(msg.sender, _tokenId),\r\n            \"User does not own this token\"\r\n        );\r\n\r\n        Offer memory offer = tokenIdToOffer[_tokenId];\r\n\r\n        require(\r\n            offer.seller == msg.sender,\r\n            \"This asset must be owned by the seller in order to remove offer\"\r\n        );\r\n\r\n        /* Remove the offer in the mapping*/\r\n        /* we set mapping to false */\r\n        // tutorial functions are different than final contract on github\r\n\r\n        //delete offers[tokenIdToOfferId[_tokenId]]; previous function\r\n        delete tokenIdToOffer[_tokenId]; //we delete tokenIdToOffer, then we set the offer in array to false\r\n        //offers[tokenIdToOfferId[_tokenId]].active == false; // mine, not sure if this works\r\n        //offers[tokenIdToOffer[_tokenId].index].active = false; // filip's functions\r\n        offers[offer.index].active = false; // cleaner from Filip\r\n\r\n        //_deleteApproval(_tokenId); filip did not use this in tutorial\r\n        emit MarketTransaction(\"Remove offer\", msg.sender, _tokenId);\r\n    }\r\n\r\n\r\n    function buyKitty(uint256 _tokenId) public payable {\r\n        // we input the offer, we get back the offer\r\n        Offer memory offer = tokenIdToOffer[_tokenId];\r\n        require(msg.value == offer.price, \"The price is not correct\");\r\n        require(\r\n            tokenIdToOffer[_tokenId].active == true,\r\n            \"No active order present\"\r\n        );\r\n\r\n        /* Remove the offer in the mapping*/\r\n\r\n        // Important: delete kitty from mapping BEFORE paying out; to prevent reentry attacks\r\n        delete tokenIdToOffer[_tokenId]; // we delete the offer from mapping but not from the array since it will alter the index positions\r\n\r\n        //here we set the index in the array to false since we cannot or should not delete it, for it will shift the indexes and cause problems.\r\n        offers[offer.index].active = false;\r\n\r\n\r\n        // This conditional functin below was in the video but not in final gitHub contract and it makes the contract fail as there is another script below to send value.\r\n        // transfer funds to seller\r\n        // TO DO: make this pull logic instead of push\r\n        /*\r\n        if (offer.price > 0) {\r\n            // we send the funds to seller\r\n            offer.seller.transfer(offer.price);\r\n        }\r\n        */\r\n\r\n        // transfer ownership of the kitty\r\n        _kittyContract.transferFrom(offer.seller, msg.sender, _tokenId); // we send tokens to buyer: (seller, buyer, token)\r\n\r\n        offer.seller.transfer(msg.value);\r\n        emit MarketTransaction(\"Buy\", msg.sender, _tokenId);\r\n    }\r\n}\r\n\r\n// MarketPlace Front End\r\n// add tab: Market Place - display only cats which are currently for sale\r\n// Create a place, window, to create offers - maybe a box, sell kitty, how much\r\n\r\n// Approval\r\n// Check if users have given operator approval to the market place contract\r\n// If not, ask user to do that - maybe open a Meta Mask window\r\n// one could use individual approvals per token, alternatively\r\n\r\n// Code\r\n// Two seperate contract instances\r\n// One instance for Kitty contract\r\n// One instance for Market Place contract\r\n// We will need two abis', two contract addresses...with Web3\r\n\r\n// Conclucion\r\n// Interface to Buy and Sell the cats\r\n// Use contract\r\n// Seller needs to give market place contract operator approval before creating an offer\r\n",
  "sourcePath": "C:\\Users\\benX\\Documents\\ethereum_course_advanced\\myCryptoKitties_master\\contracts\\KittyMarketPlace.sol",
  "compiler": {
    "name": "solc",
    "version": "0.8.7+commit.e28d00a7.Emscripten.clang"
  },
  "schemaVersion": "3.4.3",
  "updatedAt": "2021-09-13T21:40:40.943Z",
  "networkType": "ethereum",
  "devdoc": {
    "kind": "dev",
    "methods": {
      "owner()": {
        "details": "Returns the address of the current owner."
      },
      "renounceOwnership()": {
        "details": "Leaves the contract without owner. It will not be possible to call `onlyOwner` functions anymore. Can only be called by the current owner. NOTE: Renouncing ownership will leave the contract without an owner, thereby removing any functionality that is only available to the owner."
      },
      "transferOwnership(address)": {
        "details": "Transfers ownership of the contract to a new account (`newOwner`). Can only be called by the current owner."
      }
    },
    "version": 1
  },
  "userdoc": {
    "kind": "user",
    "methods": {},
    "version": 1
  }
}