{
  "contractName": "KittyMarketPlace",
  "abi": [
    {
      "inputs": [
        {
          "internalType": "address",
          "name": "_kittyContractAddress",
          "type": "address"
        }
      ],
      "stateMutability": "nonpayable",
      "type": "constructor"
    },
    {
      "anonymous": false,
      "inputs": [
        {
          "indexed": true,
          "internalType": "address",
          "name": "owner",
          "type": "address"
        },
        {
          "indexed": true,
          "internalType": "address",
          "name": "approved",
          "type": "address"
        },
        {
          "indexed": true,
          "internalType": "uint256",
          "name": "tokenId",
          "type": "uint256"
        }
      ],
      "name": "Approval",
      "type": "event"
    },
    {
      "anonymous": false,
      "inputs": [
        {
          "indexed": true,
          "internalType": "address",
          "name": "owner",
          "type": "address"
        },
        {
          "indexed": true,
          "internalType": "address",
          "name": "operator",
          "type": "address"
        },
        {
          "indexed": false,
          "internalType": "bool",
          "name": "approved",
          "type": "bool"
        }
      ],
      "name": "ApprovalForAll",
      "type": "event"
    },
    {
      "anonymous": false,
      "inputs": [
        {
          "indexed": false,
          "internalType": "address",
          "name": "owner",
          "type": "address"
        },
        {
          "indexed": false,
          "internalType": "uint256",
          "name": "newKittenId",
          "type": "uint256"
        },
        {
          "indexed": false,
          "internalType": "uint256",
          "name": "mumId",
          "type": "uint256"
        },
        {
          "indexed": false,
          "internalType": "uint256",
          "name": "dadId",
          "type": "uint256"
        },
        {
          "indexed": false,
          "internalType": "uint256",
          "name": "genes",
          "type": "uint256"
        }
      ],
      "name": "Birth",
      "type": "event"
    },
    {
      "anonymous": false,
      "inputs": [
        {
          "indexed": false,
          "internalType": "string",
          "name": "TxType",
          "type": "string"
        },
        {
          "indexed": false,
          "internalType": "address",
          "name": "owner",
          "type": "address"
        },
        {
          "indexed": false,
          "internalType": "uint256",
          "name": "tokenId",
          "type": "uint256"
        }
      ],
      "name": "MarketTransaction",
      "type": "event"
    },
    {
      "anonymous": false,
      "inputs": [
        {
          "indexed": true,
          "internalType": "address",
          "name": "previousOwner",
          "type": "address"
        },
        {
          "indexed": true,
          "internalType": "address",
          "name": "newOwner",
          "type": "address"
        }
      ],
      "name": "OwnershipTransferred",
      "type": "event"
    },
    {
      "anonymous": false,
      "inputs": [
        {
          "indexed": true,
          "internalType": "address",
          "name": "from",
          "type": "address"
        },
        {
          "indexed": true,
          "internalType": "address",
          "name": "to",
          "type": "address"
        },
        {
          "indexed": true,
          "internalType": "uint256",
          "name": "tokenId",
          "type": "uint256"
        }
      ],
      "name": "Transfer",
      "type": "event"
    },
    {
      "inputs": [
        {
          "internalType": "uint256",
          "name": "_dadId",
          "type": "uint256"
        },
        {
          "internalType": "uint256",
          "name": "_mumId",
          "type": "uint256"
        }
      ],
      "name": "Breeding",
      "outputs": [
        {
          "internalType": "uint256",
          "name": "",
          "type": "uint256"
        }
      ],
      "stateMutability": "nonpayable",
      "type": "function"
    },
    {
      "inputs": [],
      "name": "CREATION_LIMIT_GEN0",
      "outputs": [
        {
          "internalType": "uint256",
          "name": "",
          "type": "uint256"
        }
      ],
      "stateMutability": "view",
      "type": "function",
      "constant": true
    },
    {
      "inputs": [
        {
          "internalType": "address",
          "name": "_approved",
          "type": "address"
        },
        {
          "internalType": "uint256",
          "name": "_tokenId",
          "type": "uint256"
        }
      ],
      "name": "approve",
      "outputs": [],
      "stateMutability": "nonpayable",
      "type": "function"
    },
    {
      "inputs": [
        {
          "internalType": "address",
          "name": "owner",
          "type": "address"
        }
      ],
      "name": "balanceOf",
      "outputs": [
        {
          "internalType": "uint256",
          "name": "balance",
          "type": "uint256"
        }
      ],
      "stateMutability": "view",
      "type": "function",
      "constant": true
    },
    {
      "inputs": [],
      "name": "gen0Counter",
      "outputs": [
        {
          "internalType": "uint256",
          "name": "",
          "type": "uint256"
        }
      ],
      "stateMutability": "view",
      "type": "function",
      "constant": true
    },
    {
      "inputs": [
        {
          "internalType": "address",
          "name": "owner",
          "type": "address"
        }
      ],
      "name": "getAllCatsFor",
      "outputs": [
        {
          "internalType": "uint256[]",
          "name": "",
          "type": "uint256[]"
        }
      ],
      "stateMutability": "view",
      "type": "function",
      "constant": true
    },
    {
      "inputs": [
        {
          "internalType": "address",
          "name": "user",
          "type": "address"
        }
      ],
      "name": "getAllTokensForUser",
      "outputs": [
        {
          "internalType": "uint256[]",
          "name": "",
          "type": "uint256[]"
        }
      ],
      "stateMutability": "view",
      "type": "function",
      "constant": true
    },
    {
      "inputs": [
        {
          "internalType": "uint256",
          "name": "_tokenId",
          "type": "uint256"
        }
      ],
      "name": "getApproved",
      "outputs": [
        {
          "internalType": "address",
          "name": "",
          "type": "address"
        }
      ],
      "stateMutability": "view",
      "type": "function",
      "constant": true
    },
    {
      "inputs": [
        {
          "internalType": "uint256",
          "name": "_id",
          "type": "uint256"
        }
      ],
      "name": "getKitty",
      "outputs": [
        {
          "internalType": "uint256",
          "name": "genes",
          "type": "uint256"
        },
        {
          "internalType": "uint256",
          "name": "birthTime",
          "type": "uint256"
        },
        {
          "internalType": "uint256",
          "name": "mumId",
          "type": "uint256"
        },
        {
          "internalType": "uint256",
          "name": "dadId",
          "type": "uint256"
        },
        {
          "internalType": "uint256",
          "name": "generation",
          "type": "uint256"
        }
      ],
      "stateMutability": "view",
      "type": "function",
      "constant": true
    },
    {
      "inputs": [
        {
          "internalType": "address",
          "name": "_owner",
          "type": "address"
        },
        {
          "internalType": "address",
          "name": "_operator",
          "type": "address"
        }
      ],
      "name": "isApprovedForAll",
      "outputs": [
        {
          "internalType": "bool",
          "name": "",
          "type": "bool"
        }
      ],
      "stateMutability": "view",
      "type": "function",
      "constant": true
    },
    {
      "inputs": [
        {
          "internalType": "uint256",
          "name": "",
          "type": "uint256"
        }
      ],
      "name": "kittyIndexToApproved",
      "outputs": [
        {
          "internalType": "address",
          "name": "",
          "type": "address"
        }
      ],
      "stateMutability": "view",
      "type": "function",
      "constant": true
    },
    {
      "inputs": [
        {
          "internalType": "uint256",
          "name": "",
          "type": "uint256"
        }
      ],
      "name": "kittyIndexToOwner",
      "outputs": [
        {
          "internalType": "address",
          "name": "",
          "type": "address"
        }
      ],
      "stateMutability": "view",
      "type": "function",
      "constant": true
    },
    {
      "inputs": [
        {
          "internalType": "uint256",
          "name": "tokenId",
          "type": "uint256"
        }
      ],
      "name": "myGetKitty",
      "outputs": [
        {
          "internalType": "uint256",
          "name": "birthTime",
          "type": "uint256"
        },
        {
          "internalType": "uint256",
          "name": "mumId",
          "type": "uint256"
        },
        {
          "internalType": "uint256",
          "name": "dadId",
          "type": "uint256"
        },
        {
          "internalType": "uint256",
          "name": "generation",
          "type": "uint256"
        },
        {
          "internalType": "uint256",
          "name": "genes",
          "type": "uint256"
        }
      ],
      "stateMutability": "view",
      "type": "function",
      "constant": true
    },
    {
      "inputs": [],
      "name": "name",
      "outputs": [
        {
          "internalType": "string",
          "name": "tokenName",
          "type": "string"
        }
      ],
      "stateMutability": "pure",
      "type": "function",
      "constant": true
    },
    {
      "inputs": [],
      "name": "owner",
      "outputs": [
        {
          "internalType": "address",
          "name": "",
          "type": "address"
        }
      ],
      "stateMutability": "view",
      "type": "function",
      "constant": true
    },
    {
      "inputs": [
        {
          "internalType": "uint256",
          "name": "tokenId",
          "type": "uint256"
        }
      ],
      "name": "ownerOf",
      "outputs": [
        {
          "internalType": "address",
          "name": "owner",
          "type": "address"
        }
      ],
      "stateMutability": "view",
      "type": "function",
      "constant": true
    },
    {
      "inputs": [],
      "name": "renounceOwnership",
      "outputs": [],
      "stateMutability": "nonpayable",
      "type": "function"
    },
    {
      "inputs": [
        {
          "internalType": "address",
          "name": "_from",
          "type": "address"
        },
        {
          "internalType": "address",
          "name": "_to",
          "type": "address"
        },
        {
          "internalType": "uint256",
          "name": "_tokenId",
          "type": "uint256"
        }
      ],
      "name": "safeTransferFrom",
      "outputs": [],
      "stateMutability": "nonpayable",
      "type": "function"
    },
    {
      "inputs": [
        {
          "internalType": "address",
          "name": "_from",
          "type": "address"
        },
        {
          "internalType": "address",
          "name": "_to",
          "type": "address"
        },
        {
          "internalType": "uint256",
          "name": "_tokenId",
          "type": "uint256"
        },
        {
          "internalType": "bytes",
          "name": "data",
          "type": "bytes"
        }
      ],
      "name": "safeTransferFrom",
      "outputs": [],
      "stateMutability": "nonpayable",
      "type": "function"
    },
    {
      "inputs": [
        {
          "internalType": "address",
          "name": "_operator",
          "type": "address"
        },
        {
          "internalType": "bool",
          "name": "_approved",
          "type": "bool"
        }
      ],
      "name": "setApprovalForAll",
      "outputs": [],
      "stateMutability": "nonpayable",
      "type": "function"
    },
    {
      "inputs": [
        {
          "internalType": "bytes4",
          "name": "_interfaceId",
          "type": "bytes4"
        }
      ],
      "name": "supportsInterface",
      "outputs": [
        {
          "internalType": "bool",
          "name": "",
          "type": "bool"
        }
      ],
      "stateMutability": "pure",
      "type": "function",
      "constant": true
    },
    {
      "inputs": [],
      "name": "symbol",
      "outputs": [
        {
          "internalType": "string",
          "name": "tokenSymbol",
          "type": "string"
        }
      ],
      "stateMutability": "pure",
      "type": "function",
      "constant": true
    },
    {
      "inputs": [
        {
          "internalType": "address",
          "name": "_owner",
          "type": "address"
        }
      ],
      "name": "tokensOfOwner",
      "outputs": [
        {
          "internalType": "uint256[]",
          "name": "ownerTokens",
          "type": "uint256[]"
        }
      ],
      "stateMutability": "view",
      "type": "function",
      "constant": true
    },
    {
      "inputs": [],
      "name": "totalSupply",
      "outputs": [
        {
          "internalType": "uint256",
          "name": "total",
          "type": "uint256"
        }
      ],
      "stateMutability": "view",
      "type": "function",
      "constant": true
    },
    {
      "inputs": [
        {
          "internalType": "address",
          "name": "to",
          "type": "address"
        },
        {
          "internalType": "uint256",
          "name": "tokenId",
          "type": "uint256"
        }
      ],
      "name": "transfer",
      "outputs": [],
      "stateMutability": "nonpayable",
      "type": "function"
    },
    {
      "inputs": [
        {
          "internalType": "address",
          "name": "_from",
          "type": "address"
        },
        {
          "internalType": "address",
          "name": "_to",
          "type": "address"
        },
        {
          "internalType": "uint256",
          "name": "_tokenId",
          "type": "uint256"
        }
      ],
      "name": "transferFrom",
      "outputs": [],
      "stateMutability": "nonpayable",
      "type": "function"
    },
    {
      "inputs": [
        {
          "internalType": "address",
          "name": "newOwner",
          "type": "address"
        }
      ],
      "name": "transferOwnership",
      "outputs": [],
      "stateMutability": "nonpayable",
      "type": "function"
    },
    {
      "inputs": [
        {
          "internalType": "address",
          "name": "_kittyContractAddress",
          "type": "address"
        }
      ],
      "name": "setKittyContract",
      "outputs": [],
      "stateMutability": "nonpayable",
      "type": "function"
    },
    {
      "inputs": [
        {
          "internalType": "uint256",
          "name": "_tokenId",
          "type": "uint256"
        }
      ],
      "name": "getOffer",
      "outputs": [
        {
          "internalType": "address",
          "name": "seller",
          "type": "address"
        },
        {
          "internalType": "uint256",
          "name": "price",
          "type": "uint256"
        },
        {
          "internalType": "uint256",
          "name": "index",
          "type": "uint256"
        },
        {
          "internalType": "uint256",
          "name": "tokenId",
          "type": "uint256"
        },
        {
          "internalType": "bool",
          "name": "active",
          "type": "bool"
        }
      ],
      "stateMutability": "view",
      "type": "function",
      "constant": true
    },
    {
      "inputs": [],
      "name": "getAllTokenOnSale",
      "outputs": [
        {
          "internalType": "uint256[]",
          "name": "listOfOffers",
          "type": "uint256[]"
        }
      ],
      "stateMutability": "view",
      "type": "function",
      "constant": true
    },
    {
      "inputs": [
        {
          "internalType": "uint256",
          "name": "_genes",
          "type": "uint256"
        }
      ],
      "name": "createKittyGen0",
      "outputs": [
        {
          "internalType": "uint256",
          "name": "",
          "type": "uint256"
        }
      ],
      "stateMutability": "nonpayable",
      "type": "function"
    },
    {
      "inputs": [
        {
          "internalType": "uint256",
          "name": "_price",
          "type": "uint256"
        },
        {
          "internalType": "uint256",
          "name": "_tokenId",
          "type": "uint256"
        }
      ],
      "name": "setOffer",
      "outputs": [],
      "stateMutability": "nonpayable",
      "type": "function"
    },
    {
      "inputs": [
        {
          "internalType": "uint256",
          "name": "_tokenId",
          "type": "uint256"
        }
      ],
      "name": "removeOffer",
      "outputs": [],
      "stateMutability": "nonpayable",
      "type": "function"
    },
    {
      "inputs": [
        {
          "internalType": "uint256",
          "name": "_tokenId",
          "type": "uint256"
        }
      ],
      "name": "buyKitty",
      "outputs": [],
      "stateMutability": "payable",
      "type": "function",
      "payable": true
    }
  ],
  "bytecode": "0x608060405260006007553480156200001657600080fd5b506040516200505b3803806200505b83398181016040528101906200003c919062000253565b6200005c620000506200007460201b60201c565b6200007c60201b60201c565b6200006d816200014060201b60201c565b506200035b565b600033905090565b60008060009054906101000a900473ffffffffffffffffffffffffffffffffffffffff169050816000806101000a81548173ffffffffffffffffffffffffffffffffffffffff021916908373ffffffffffffffffffffffffffffffffffffffff1602179055508173ffffffffffffffffffffffffffffffffffffffff168173ffffffffffffffffffffffffffffffffffffffff167f8be0079c531659141344cd1fd0a4f28419497f9722a3daafe3b4186f6b6457e060405160405180910390a35050565b620001506200007460201b60201c565b73ffffffffffffffffffffffffffffffffffffffff16620001766200021360201b60201c565b73ffffffffffffffffffffffffffffffffffffffff1614620001cf576040517f08c379a0000000000000000000000000000000000000000000000000000000008152600401620001c690620002ac565b60405180910390fd5b80600960006101000a81548173ffffffffffffffffffffffffffffffffffffffff021916908373ffffffffffffffffffffffffffffffffffffffff16021790555050565b60008060009054906101000a900473ffffffffffffffffffffffffffffffffffffffff16905090565b6000815190506200024d8162000341565b92915050565b6000602082840312156200026c576200026b62000313565b5b60006200027c848285016200023c565b91505092915050565b600062000294602083620002ce565b9150620002a18262000318565b602082019050919050565b60006020820190508181036000830152620002c78162000285565b9050919050565b600082825260208201905092915050565b6000620002ec82620002f3565b9050919050565b600073ffffffffffffffffffffffffffffffffffffffff82169050919050565b600080fd5b7f4f776e61626c653a2063616c6c6572206973206e6f7420746865206f776e6572600082015250565b6200034c81620002df565b81146200035857600080fd5b50565b614cf0806200036b6000396000f3fe6080604052600436106101f95760003560e01c80638da5cb5b1161010d578063ae5310f6116100a0578063d5a776ca1161006f578063d5a776ca14610788578063e985e9c5146107c5578063e98b7f4d14610802578063ef5e94aa14610843578063f2fde38b1461086e576101f9565b8063ae5310f6146106db578063b4834330146106f7578063b88d4fde14610722578063b921a4001461074b576101f9565b8063a090cb77116100dc578063a090cb771461060b578063a22cb4651461064c578063a45f4bfc14610675578063a9059cbb146106b2576101f9565b80638da5cb5b14610563578063941b055b1461058e57806395a0f9c7146105b757806395d89b41146105e0576101f9565b8063481af3d3116101905780636352211e1161015f5780636352211e1461045857806370a0823114610495578063715018a6146104d257806382de8fe9146104e95780638462151c14610526576101f9565b8063481af3d31461038a57806349b3709f146103c75780635a64aafa146103f257806362b7f94e1461042f576101f9565b806318160ddd116101cc57806318160ddd146102cc57806323b872dd146102f757806342842e0e146103205780634579268a14610349576101f9565b806301ffc9a7146101fe57806306fdde031461023b578063081812fc14610266578063095ea7b3146102a3575b600080fd5b34801561020a57600080fd5b50610225600480360381019061022091906136c6565b610897565b6040516102329190613e00565b60405180910390f35b34801561024757600080fd5b50610250610937565b60405161025d9190613e1b565b60405180910390f35b34801561027257600080fd5b5061028d60048036038101906102889190613720565b610974565b60405161029a9190613c71565b60405180910390f35b3480156102af57600080fd5b506102ca60048036038101906102c59190613659565b6109f8565b005b3480156102d857600080fd5b506102e1610a74565b6040516102ee91906141f1565b60405180910390f35b34801561030357600080fd5b5061031e6004803603810190610319919061353e565b610a81565b005b34801561032c57600080fd5b506103476004803603810190610342919061353e565b610beb565b005b34801561035557600080fd5b50610370600480360381019061036b9190613720565b610bfb565b604051610381959493929190613d38565b60405180910390f35b34801561039657600080fd5b506103b160048036038101906103ac9190613720565b610c73565b6040516103be9190613c71565b60405180910390f35b3480156103d357600080fd5b506103dc610ca6565b6040516103e99190613dde565b60405180910390f35b3480156103fe57600080fd5b50610419600480360381019061041491906134a4565b610e07565b6040516104269190613dde565b60405180910390f35b34801561043b57600080fd5b50610456600480360381019061045191906134a4565b610e9e565b005b34801561046457600080fd5b5061047f600480360381019061047a9190613720565b610f5e565b60405161048c9190613c71565b60405180910390f35b3480156104a157600080fd5b506104bc60048036038101906104b791906134a4565b611010565b6040516104c991906141f1565b60405180910390f35b3480156104de57600080fd5b506104e7611059565b005b3480156104f557600080fd5b50610510600480360381019061050b91906134a4565b6110e1565b60405161051d9190613dde565b60405180910390f35b34801561053257600080fd5b5061054d600480360381019061054891906134a4565b61123b565b60405161055a9190613dde565b60405180910390f35b34801561056f57600080fd5b506105786113c4565b6040516105859190613c71565b60405180910390f35b34801561059a57600080fd5b506105b560048036038101906105b0919061374d565b6113ed565b005b3480156105c357600080fd5b506105de60048036038101906105d99190613720565b6117ab565b005b3480156105ec57600080fd5b506105f56119ff565b6040516106029190613e1b565b60405180910390f35b34801561061757600080fd5b50610632600480360381019061062d9190613720565b611a3c565b60405161064395949392919061420c565b60405180910390f35b34801561065857600080fd5b50610673600480360381019061066e9190613619565b611af2565b005b34801561068157600080fd5b5061069c60048036038101906106979190613720565b611c5e565b6040516106a99190613c71565b60405180910390f35b3480156106be57600080fd5b506106d960048036038101906106d49190613659565b611c91565b005b6106f560048036038101906106f09190613720565b611d92565b005b34801561070357600080fd5b5061070c612118565b60405161071991906141f1565b60405180910390f35b34801561072e57600080fd5b5061074960048036038101906107449190613591565b61211d565b005b34801561075757600080fd5b50610772600480360381019061076d919061374d565b61228b565b60405161077f91906141f1565b60405180910390f35b34801561079457600080fd5b506107af60048036038101906107aa9190613720565b612556565b6040516107bc91906141f1565b60405180910390f35b3480156107d157600080fd5b506107ec60048036038101906107e791906134fe565b6125ff565b6040516107f99190613e00565b60405180910390f35b34801561080e57600080fd5b5061082960048036038101906108249190613720565b612693565b60405161083a95949392919061420c565b60405180910390f35b34801561084f57600080fd5b506108586127ae565b60405161086591906141f1565b60405180910390f35b34801561087a57600080fd5b50610895600480360381019061089091906134a4565b6127b4565b005b60006380ac58cd60e01b7bffffffffffffffffffffffffffffffffffffffffffffffffffffffff1916827bffffffffffffffffffffffffffffffffffffffffffffffffffffffff1916148061093057506301ffc9a760e01b7bffffffffffffffffffffffffffffffffffffffffffffffffffffffff1916827bffffffffffffffffffffffffffffffffffffffffffffffffffffffff1916145b9050919050565b60606040518060400160405280600e81526020017f4d792043727970746f2043617473000000000000000000000000000000000000815250905090565b600060088054905082106109bd576040517f08c379a00000000000000000000000000000000000000000000000000000000081526004016109b490613f7d565b60405180910390fd5b6003600083815260200190815260200160002060009054906101000a900473ffffffffffffffffffffffffffffffffffffffff169050919050565b610a0233826128ac565b610a0b57600080fd5b610a158183612918565b808273ffffffffffffffffffffffffffffffffffffffff163373ffffffffffffffffffffffffffffffffffffffff167f8c5be1e5ebec7d5bd14f71427d1e84f3dd0314c0f7b2291e5b200ac8c7c3b92560405160405180910390a45050565b6000600880549050905090565b600073ffffffffffffffffffffffffffffffffffffffff168273ffffffffffffffffffffffffffffffffffffffff161415610af1576040517f08c379a0000000000000000000000000000000000000000000000000000000008152600401610ae890613ebd565b60405180910390fd5b6008805490508110610b38576040517f08c379a0000000000000000000000000000000000000000000000000000000008152600401610b2f90613f7d565b60405180910390fd5b610b4283826128ac565b610b81576040517f08c379a0000000000000000000000000000000000000000000000000000000008152600401610b7890614151565b60405180910390fd5b8273ffffffffffffffffffffffffffffffffffffffff163373ffffffffffffffffffffffffffffffffffffffff161480610bc15750610bc083336125ff565b5b80610bd25750610bd1338261296e565b5b610bdb57600080fd5b610be68383836129da565b505050565b610bf6838383610beb565b505050565b600080600080600080600a600088815260200190815260200160002090508060000160009054906101000a900473ffffffffffffffffffffffffffffffffffffffff168160010154826002015483600301548460040160009054906101000a900460ff16955095509550955095505091939590929450565b60036020528060005260406000206000915054906101000a900473ffffffffffffffffffffffffffffffffffffffff1681565b60606000600c8054905090506000811415610d0d57600067ffffffffffffffff811115610cd657610cd5614636565b5b604051908082528060200260200182016040528015610d045781602001602082028036833780820191505090505b50915050610e04565b60008167ffffffffffffffff811115610d2957610d28614636565b5b604051908082528060200260200182016040528015610d575781602001602082028036833780820191505090505b50905060005b82811015610dfd5760011515600c8281548110610d7d57610d7c614607565b5b906000526020600020906005020160040160009054906101000a900460ff1615151415610dea57600c8181548110610db857610db7614607565b5b906000526020600020906005020160030154828281518110610ddd57610ddc614607565b5b6020026020010181815250505b8080610df5906144cf565b915050610d5d565b8193505050505b90565b6060600560008373ffffffffffffffffffffffffffffffffffffffff1673ffffffffffffffffffffffffffffffffffffffff168152602001908152602001600020805480602002602001604051908101604052809291908181526020018280548015610e9257602002820191906000526020600020905b815481526020019060010190808311610e7e575b50505050509050919050565b610ea6612c15565b73ffffffffffffffffffffffffffffffffffffffff16610ec46113c4565b73ffffffffffffffffffffffffffffffffffffffff1614610f1a576040517f08c379a0000000000000000000000000000000000000000000000000000000008152600401610f1190614055565b60405180910390fd5b80600960006101000a81548173ffffffffffffffffffffffffffffffffffffffff021916908373ffffffffffffffffffffffffffffffffffffffff16021790555050565b6000806001600084815260200190815260200160002060009054906101000a900473ffffffffffffffffffffffffffffffffffffffff169050600073ffffffffffffffffffffffffffffffffffffffff168173ffffffffffffffffffffffffffffffffffffffff161415611007576040517f08c379a0000000000000000000000000000000000000000000000000000000008152600401610ffe90613f9d565b60405180910390fd5b80915050919050565b6000600260008373ffffffffffffffffffffffffffffffffffffffff1673ffffffffffffffffffffffffffffffffffffffff168152602001908152602001600020549050919050565b611061612c15565b73ffffffffffffffffffffffffffffffffffffffff1661107f6113c4565b73ffffffffffffffffffffffffffffffffffffffff16146110d5576040517f08c379a00000000000000000000000000000000000000000000000000000000081526004016110cc90614055565b60405180910390fd5b6110df6000612c1d565b565b606060006110ee83611010565b9050600081141561114b57600067ffffffffffffffff81111561111457611113614636565b5b6040519080825280602002602001820160405280156111425781602001602082028036833780820191505090505b50915050611236565b60008167ffffffffffffffff81111561116757611166614636565b5b6040519080825280602002602001820160405280156111955781602001602082028036833780820191505090505b50905060006007549050600080600090505b8281101561122d578673ffffffffffffffffffffffffffffffffffffffff166111cf82610f5e565b73ffffffffffffffffffffffffffffffffffffffff16141561121a57808483815181106111ff576111fe614607565b5b6020026020010181815250508180611216906144cf565b9250505b8080611225906144cf565b9150506111a7565b83955050505050505b919050565b6060600061124883611010565b905060008114156112a557600067ffffffffffffffff81111561126e5761126d614636565b5b60405190808252806020026020018201604052801561129c5781602001602082028036833780820191505090505b509150506113bf565b60008167ffffffffffffffff8111156112c1576112c0614636565b5b6040519080825280602002602001820160405280156112ef5781602001602082028036833780820191505090505b50905060006112fc610a74565b9050600080600190505b8281116113b6578673ffffffffffffffffffffffffffffffffffffffff166001600083815260200190815260200160002060009054906101000a900473ffffffffffffffffffffffffffffffffffffffff1673ffffffffffffffffffffffffffffffffffffffff1614156113a3578084838151811061138857611387614607565b5b602002602001018181525050818061139f906144cf565b9250505b80806113ae906144cf565b915050611306565b83955050505050505b919050565b60008060009054906101000a900473ffffffffffffffffffffffffffffffffffffffff16905090565b661ff973cafa80008211611436576040517f08c379a000000000000000000000000000000000000000000000000000000000815260040161142d90613edd565b60405180910390fd5b60001515600a600083815260200190815260200160002060040160009054906101000a900460ff161515146114a0576040517f08c379a000000000000000000000000000000000000000000000000000000000815260040161149790614131565b60405180910390fd5b6114aa3382612ce1565b6114e9576040517f08c379a00000000000000000000000000000000000000000000000000000000081526004016114e0906140d1565b60405180910390fd5b600960009054906101000a900473ffffffffffffffffffffffffffffffffffffffff1673ffffffffffffffffffffffffffffffffffffffff1663e985e9c533306040518363ffffffff1660e01b8152600401611546929190613cc3565b60206040518083038186803b15801561155e57600080fd5b505afa158015611572573d6000803e3d6000fd5b505050506040513d601f19601f820116820180604052508101906115969190613699565b6115d5576040517f08c379a00000000000000000000000000000000000000000000000000000000081526004016115cc90613e3d565b60405180910390fd5b60006040518060a001604052803373ffffffffffffffffffffffffffffffffffffffff168152602001848152602001600c80549050815260200183815260200160011515815250905080600a600084815260200190815260200160002060008201518160000160006101000a81548173ffffffffffffffffffffffffffffffffffffffff021916908373ffffffffffffffffffffffffffffffffffffffff16021790555060208201518160010155604082015181600201556060820151816003015560808201518160040160006101000a81548160ff021916908315150217905550905050600c81908060018154018082558091505060019003906000526020600020906005020160009091909190915060008201518160000160006101000a81548173ffffffffffffffffffffffffffffffffffffffff021916908373ffffffffffffffffffffffffffffffffffffffff16021790555060208201518160010155604082015181600201556060820151816003015560808201518160040160006101000a81548160ff02191690831515021790555050507fd99e4fad9ad6313b1feb588fa8e605e3a9873172f2024330c35dd2b4041a4386338360405161179e929190613fdd565b60405180910390a1505050565b6117b533826128ac565b6117f4576040517f08c379a00000000000000000000000000000000000000000000000000000000081526004016117eb906140f1565b60405180910390fd5b6000600a60008381526020019081526020016000206040518060a00160405290816000820160009054906101000a900473ffffffffffffffffffffffffffffffffffffffff1673ffffffffffffffffffffffffffffffffffffffff1673ffffffffffffffffffffffffffffffffffffffff1681526020016001820154815260200160028201548152602001600382015481526020016004820160009054906101000a900460ff16151515158152505090503373ffffffffffffffffffffffffffffffffffffffff16816000015173ffffffffffffffffffffffffffffffffffffffff1614611917576040517f08c379a000000000000000000000000000000000000000000000000000000000815260040161190e90614191565b60405180910390fd5b600a6000838152602001908152602001600020600080820160006101000a81549073ffffffffffffffffffffffffffffffffffffffff02191690556001820160009055600282016000905560038201600090556004820160006101000a81549060ff021916905550506000600c82604001518154811061199a57611999614607565b5b906000526020600020906005020160040160006101000a81548160ff0219169083151502179055507fd99e4fad9ad6313b1feb588fa8e605e3a9873172f2024330c35dd2b4041a438633836040516119f3929190614075565b60405180910390a15050565b60606040518060400160405280600481526020017f4d43524300000000000000000000000000000000000000000000000000000000815250905090565b60008060008060008060088781548110611a5957611a58614607565b5b906000526020600020906002020190508060010160009054906101000a900467ffffffffffffffff1667ffffffffffffffff168160010160089054906101000a900463ffffffff1663ffffffff1682600101600c9054906101000a900463ffffffff1663ffffffff168360010160109054906101000a900461ffff1661ffff168460000154955095509550955095505091939590929450565b3373ffffffffffffffffffffffffffffffffffffffff168273ffffffffffffffffffffffffffffffffffffffff161415611b61576040517f08c379a0000000000000000000000000000000000000000000000000000000008152600401611b58906141b1565b60405180910390fd5b80600460003373ffffffffffffffffffffffffffffffffffffffff1673ffffffffffffffffffffffffffffffffffffffff16815260200190815260200160002060008473ffffffffffffffffffffffffffffffffffffffff1673ffffffffffffffffffffffffffffffffffffffff16815260200190815260200160002060006101000a81548160ff0219169083151502179055508173ffffffffffffffffffffffffffffffffffffffff163373ffffffffffffffffffffffffffffffffffffffff167f17307eab39ab6107e8899845ad3d59bd9653f200f220920489ca2b5937696c3183604051611c529190613e00565b60405180910390a35050565b60016020528060005260406000206000915054906101000a900473ffffffffffffffffffffffffffffffffffffffff1681565b600073ffffffffffffffffffffffffffffffffffffffff168273ffffffffffffffffffffffffffffffffffffffff161415611d01576040517f08c379a0000000000000000000000000000000000000000000000000000000008152600401611cf890613efd565b60405180910390fd5b3073ffffffffffffffffffffffffffffffffffffffff168273ffffffffffffffffffffffffffffffffffffffff161415611d70576040517f08c379a0000000000000000000000000000000000000000000000000000000008152600401611d6790613e9d565b60405180910390fd5b611d7a33826128ac565b611d8357600080fd5b611d8e3383836129da565b5050565b6000600a60008381526020019081526020016000206040518060a00160405290816000820160009054906101000a900473ffffffffffffffffffffffffffffffffffffffff1673ffffffffffffffffffffffffffffffffffffffff1673ffffffffffffffffffffffffffffffffffffffff1681526020016001820154815260200160028201548152602001600382015481526020016004820160009054906101000a900460ff161515151581525050905080602001513414611e89576040517f08c379a0000000000000000000000000000000000000000000000000000000008152600401611e8090613fbd565b60405180910390fd5b60011515600a600084815260200190815260200160002060040160009054906101000a900460ff16151514611ef3576040517f08c379a0000000000000000000000000000000000000000000000000000000008152600401611eea90613e5d565b60405180910390fd5b600a6000838152602001908152602001600020600080820160006101000a81549073ffffffffffffffffffffffffffffffffffffffff02191690556001820160009055600282016000905560038201600090556004820160006101000a81549060ff021916905550506000600c826040015181548110611f7657611f75614607565b5b906000526020600020906005020160040160006101000a81548160ff021916908315150217905550600081602001511115611ffb57806000015173ffffffffffffffffffffffffffffffffffffffff166108fc82602001519081150290604051600060405180830381858888f19350505050158015611ff9573d6000803e3d6000fd5b505b600960009054906101000a900473ffffffffffffffffffffffffffffffffffffffff1673ffffffffffffffffffffffffffffffffffffffff166323b872dd826000015133856040518463ffffffff1660e01b815260040161205e93929190613c8c565b600060405180830381600087803b15801561207857600080fd5b505af115801561208c573d6000803e3d6000fd5b50505050806000015173ffffffffffffffffffffffffffffffffffffffff166108fc349081150290604051600060405180830381858888f193505050501580156120da573d6000803e3d6000fd5b507fd99e4fad9ad6313b1feb588fa8e605e3a9873172f2024330c35dd2b4041a4386338360405161210c929190614019565b60405180910390a15050565b600a81565b600073ffffffffffffffffffffffffffffffffffffffff168473ffffffffffffffffffffffffffffffffffffffff16141561218d576040517f08c379a0000000000000000000000000000000000000000000000000000000008152600401612184906140b1565b60405180910390fd5b60088054905083106121d4576040517f08c379a00000000000000000000000000000000000000000000000000000000081526004016121cb90613f3d565b60405180910390fd5b6121de85846128ac565b61221d576040517f08c379a000000000000000000000000000000000000000000000000000000000815260040161221490613f1d565b60405180910390fd5b8473ffffffffffffffffffffffffffffffffffffffff163373ffffffffffffffffffffffffffffffffffffffff16148061225d575061225c85856125ff565b5b8061226e575061226d338461296e565b5b61227757600080fd5b6122848585858585612dc4565b5050505050565b600061229733846128ac565b80156122a957506122a833836128ac565b5b6122e8576040517f08c379a00000000000000000000000000000000000000000000000000000000081526004016122df90613f5d565b60405180910390fd5b8282141561232b576040517f08c379a000000000000000000000000000000000000000000000000000000000815260040161232290614111565b60405180910390fd5b60008061233785612693565b9450505050915060008061234a86612693565b94505050509150600061235b613398565b600060079050600060ff426123709190614518565b90506000600190505b6080811161242d576000818360ff1616146123bf5760648761239b9190614518565b60ff168484600881106123b1576123b0614607565b5b6020020181815250506123ec565b6064896123cc9190614518565b60ff168484600881106123e2576123e1614607565b5b6020020181815250505b6064876123f99190614326565b96506064896124089190614326565b985060018361241791906143b1565b92506002816124269190614357565b9050612379565b600060078361243c9190614549565b905060638361244b9190614549565b60ff16858260ff166008811061246457612463614607565b5b602002018181525050600091505b60088210156124cb5784826008811061248e5761248d614607565b5b60200201518661249e91906142d0565b9550600782146124b8576064866124b59190614357565b95505b81806124c3906144cf565b925050612472565b6000878a10156124f8576001886124e291906142d0565b90506002816124f19190614326565b9050612534565b878a11156125235760018a61250d91906142d0565b905060028161251c9190614326565b9050612533565b60018a61253091906142d0565b90505b5b6125418d8f838a33612e2f565b50809b50505050505050505050505092915050565b6000612560612c15565b73ffffffffffffffffffffffffffffffffffffffff1661257e6113c4565b73ffffffffffffffffffffffffffffffffffffffff16146125d4576040517f08c379a00000000000000000000000000000000000000000000000000000000081526004016125cb90614055565b60405180910390fd5b60006125e560008060008633612e2f565b90506125f96702c68af0bb140000826113ed565b50919050565b6000600460008473ffffffffffffffffffffffffffffffffffffffff1673ffffffffffffffffffffffffffffffffffffffff16815260200190815260200160002060008373ffffffffffffffffffffffffffffffffffffffff1673ffffffffffffffffffffffffffffffffffffffff16815260200190815260200160002060009054906101000a900460ff16905092915050565b600080600080600080600887815481106126b0576126af614607565b5b9060005260206000209060020201905060008160010160009054906101000a900467ffffffffffffffff1667ffffffffffffffff1611612725576040517f08c379a000000000000000000000000000000000000000000000000000000000815260040161271c906141d1565b60405180910390fd5b8060010160009054906101000a900467ffffffffffffffff1667ffffffffffffffff1694508060010160089054906101000a900463ffffffff1663ffffffff16935080600101600c9054906101000a900463ffffffff1663ffffffff1692508060010160109054906101000a900461ffff1661ffff169150806000015495505091939590929450565b60065481565b6127bc612c15565b73ffffffffffffffffffffffffffffffffffffffff166127da6113c4565b73ffffffffffffffffffffffffffffffffffffffff1614612830576040517f08c379a000000000000000000000000000000000000000000000000000000000815260040161282790614055565b60405180910390fd5b600073ffffffffffffffffffffffffffffffffffffffff168173ffffffffffffffffffffffffffffffffffffffff1614156128a0576040517f08c379a000000000000000000000000000000000000000000000000000000000815260040161289790613e7d565b60405180910390fd5b6128a981612c1d565b50565b60008273ffffffffffffffffffffffffffffffffffffffff166001600084815260200190815260200160002060009054906101000a900473ffffffffffffffffffffffffffffffffffffffff1673ffffffffffffffffffffffffffffffffffffffff1614905092915050565b806003600084815260200190815260200160002060006101000a81548173ffffffffffffffffffffffffffffffffffffffff021916908373ffffffffffffffffffffffffffffffffffffffff1602179055505050565b60008273ffffffffffffffffffffffffffffffffffffffff166003600084815260200190815260200160002060009054906101000a900473ffffffffffffffffffffffffffffffffffffffff1673ffffffffffffffffffffffffffffffffffffffff1614905092915050565b6001600260008473ffffffffffffffffffffffffffffffffffffffff1673ffffffffffffffffffffffffffffffffffffffff1681526020019081526020016000206000828254612a2a91906142d0565b92505081905550816001600083815260200190815260200160002060006101000a81548173ffffffffffffffffffffffffffffffffffffffff021916908373ffffffffffffffffffffffffffffffffffffffff160217905550600560008373ffffffffffffffffffffffffffffffffffffffff1673ffffffffffffffffffffffffffffffffffffffff168152602001908152602001600020819080600181540180825580915050600190039060005260206000200160009091909190915055600073ffffffffffffffffffffffffffffffffffffffff168373ffffffffffffffffffffffffffffffffffffffff1614612bb5576001600260008573ffffffffffffffffffffffffffffffffffffffff1673ffffffffffffffffffffffffffffffffffffffff1681526020019081526020016000206000828254612b6d91906143b1565b92505081905550612b7e838261301c565b6001600082815260200190815260200160002060006101000a81549073ffffffffffffffffffffffffffffffffffffffff02191690555b808273ffffffffffffffffffffffffffffffffffffffff163373ffffffffffffffffffffffffffffffffffffffff167fddf252ad1be2c89b69c2b068fc378daa952ba7f163c4a11628f55a4df523b3ef60405160405180910390a4505050565b600033905090565b60008060009054906101000a900473ffffffffffffffffffffffffffffffffffffffff169050816000806101000a81548173ffffffffffffffffffffffffffffffffffffffff021916908373ffffffffffffffffffffffffffffffffffffffff1602179055508173ffffffffffffffffffffffffffffffffffffffff168173ffffffffffffffffffffffffffffffffffffffff167f8be0079c531659141344cd1fd0a4f28419497f9722a3daafe3b4186f6b6457e060405160405180910390a35050565b60008273ffffffffffffffffffffffffffffffffffffffff16600960009054906101000a900473ffffffffffffffffffffffffffffffffffffffff1673ffffffffffffffffffffffffffffffffffffffff16636352211e846040518263ffffffff1660e01b8152600401612d5591906141f1565b60206040518083038186803b158015612d6d57600080fd5b505afa158015612d81573d6000803e3d6000fd5b505050506040513d601f19601f82011682018060405250810190612da591906134d1565b73ffffffffffffffffffffffffffffffffffffffff1614905092915050565b612dcf8585856129da565b612e1f85858585858080601f016020809104026020016040519081016040528093929190818152602001838380828437600081840152601f19601f82011690508083019250505050505050613265565b612e2857600080fd5b5050505050565b6000806040518060a001604052808581526020014267ffffffffffffffff1681526020018863ffffffff1681526020018763ffffffff1681526020018661ffff16815250905060088190806001815401808255809150506001900390600052602060002090600202016000909190919091506000820151816000015560208201518160010160006101000a81548167ffffffffffffffff021916908367ffffffffffffffff16021790555060408201518160010160086101000a81548163ffffffff021916908363ffffffff160217905550606082015181600101600c6101000a81548163ffffffff021916908363ffffffff16021790555060808201518160010160106101000a81548161ffff021916908361ffff160217905550505060006001600880549050612f6191906143b1565b90508063ffffffff168114612fab576040517f08c379a0000000000000000000000000000000000000000000000000000000008152600401612fa290614171565b60405180910390fd5b7f0a5311bd2a6608f08a180df2ee7c5946819a649b204b554bb8e39825b2c50ad58482846040015163ffffffff16856060015163ffffffff168660000151604051612ffa959493929190613d8b565b60405180910390a161300e600085836129da565b809250505095945050505050565b6000600560008473ffffffffffffffffffffffffffffffffffffffff1673ffffffffffffffffffffffffffffffffffffffff1681526020019081526020016000206001600560008673ffffffffffffffffffffffffffffffffffffffff1673ffffffffffffffffffffffffffffffffffffffff168152602001908152602001600020805490506130ac91906143b1565b815481106130bd576130bc614607565b5b9060005260206000200154905060005b6001600560008673ffffffffffffffffffffffffffffffffffffffff1673ffffffffffffffffffffffffffffffffffffffff1681526020019081526020016000208054905061311c91906143b1565b81101561325f5782600560008673ffffffffffffffffffffffffffffffffffffffff1673ffffffffffffffffffffffffffffffffffffffff168152602001908152602001600020828154811061317557613174614607565b5b9060005260206000200154141561324c5781600560008673ffffffffffffffffffffffffffffffffffffffff1673ffffffffffffffffffffffffffffffffffffffff16815260200190815260200160002082815481106131d8576131d7614607565b5b9060005260206000200181905550600560008573ffffffffffffffffffffffffffffffffffffffff1673ffffffffffffffffffffffffffffffffffffffff168152602001908152602001600020805480613235576132346145d8565b5b600190038181906000526020600020016000905590555b8080613257906144cf565b9150506130cd565b50505050565b60006132708461337f565b61327d5760019050613377565b60008473ffffffffffffffffffffffffffffffffffffffff1663150b7a02338887876040518563ffffffff1660e01b81526004016132be9493929190613cec565b602060405180830381600087803b1580156132d857600080fd5b505af11580156132ec573d6000803e3d6000fd5b505050506040513d601f19601f8201168201806040525081019061331091906136f3565b90507f150b7a023d4804d13e8c85fb27262cb750cf6ba9f9dd3bb30d90f482ceeb4b1f7bffffffffffffffffffffffffffffffffffffffffffffffffffffffff1916817bffffffffffffffffffffffffffffffffffffffffffffffffffffffff1916149150505b949350505050565b600080823b905060008163ffffffff1611915050919050565b604051806101000160405280600890602082028036833780820191505090505090565b6000813590506133ca81614c5e565b92915050565b6000815190506133df81614c5e565b92915050565b6000813590506133f481614c75565b92915050565b60008151905061340981614c75565b92915050565b60008135905061341e81614c8c565b92915050565b60008151905061343381614c8c565b92915050565b60008083601f84011261344f5761344e61466a565b5b8235905067ffffffffffffffff81111561346c5761346b614665565b5b6020830191508360018202830111156134885761348761466f565b5b9250929050565b60008135905061349e81614ca3565b92915050565b6000602082840312156134ba576134b9614679565b5b60006134c8848285016133bb565b91505092915050565b6000602082840312156134e7576134e6614679565b5b60006134f5848285016133d0565b91505092915050565b6000806040838503121561351557613514614679565b5b6000613523858286016133bb565b9250506020613534858286016133bb565b9150509250929050565b60008060006060848603121561355757613556614679565b5b6000613565868287016133bb565b9350506020613576868287016133bb565b92505060406135878682870161348f565b9150509250925092565b6000806000806000608086880312156135ad576135ac614679565b5b60006135bb888289016133bb565b95505060206135cc888289016133bb565b94505060406135dd8882890161348f565b935050606086013567ffffffffffffffff8111156135fe576135fd614674565b5b61360a88828901613439565b92509250509295509295909350565b600080604083850312156136305761362f614679565b5b600061363e858286016133bb565b925050602061364f858286016133e5565b9150509250929050565b600080604083850312156136705761366f614679565b5b600061367e858286016133bb565b925050602061368f8582860161348f565b9150509250929050565b6000602082840312156136af576136ae614679565b5b60006136bd848285016133fa565b91505092915050565b6000602082840312156136dc576136db614679565b5b60006136ea8482850161340f565b91505092915050565b60006020828403121561370957613708614679565b5b600061371784828501613424565b91505092915050565b60006020828403121561373657613735614679565b5b60006137448482850161348f565b91505092915050565b6000806040838503121561376457613763614679565b5b60006137728582860161348f565b92505060206137838582860161348f565b9150509250929050565b60006137998383613c53565b60208301905092915050565b6137ae81614466565b82525050565b6137bd816143e5565b82525050565b60006137ce8261426f565b6137d8818561429d565b93506137e38361425f565b8060005b838110156138145781516137fb888261378d565b975061380683614290565b9250506001810190506137e7565b5085935050505092915050565b61382a816143f7565b82525050565b600061383b8261427a565b61384581856142ae565b935061385581856020860161449c565b61385e8161467e565b840191505092915050565b600061387482614285565b61387e81856142bf565b935061388e81856020860161449c565b6138978161467e565b840191505092915050565b60006138af602c836142bf565b91506138ba8261468f565b604082019050919050565b60006138d26017836142bf565b91506138dd826146de565b602082019050919050565b60006138f56026836142bf565b915061390082614707565b604082019050919050565b6000613918601c836142bf565b915061392382614756565b602082019050919050565b600061393b6020836142bf565b91506139468261477f565b602082019050919050565b600061395e6025836142bf565b9150613969826147a8565b604082019050919050565b60006139816024836142bf565b915061398c826147f7565b604082019050919050565b60006139a46025836142bf565b91506139af82614846565b604082019050919050565b60006139c76014836142bf565b91506139d282614895565b602082019050919050565b60006139ea602a836142bf565b91506139f5826148be565b604082019050919050565b6000613a0d6010836142bf565b9150613a188261490d565b602082019050919050565b6000613a306029836142bf565b9150613a3b82614936565b604082019050919050565b6000613a536014836142bf565b9150613a5e82614985565b602082019050919050565b6000613a76600c836142bf565b9150613a81826149ae565b602082019050919050565b6000613a996003836142bf565b9150613aa4826149d7565b602082019050919050565b6000613abc6020836142bf565b9150613ac782614a00565b602082019050919050565b6000613adf600c836142bf565b9150613aea82614a29565b602082019050919050565b6000613b02601d836142bf565b9150613b0d82614a52565b602082019050919050565b6000613b256020836142bf565b9150613b3082614a7b565b602082019050919050565b6000613b48601c836142bf565b9150613b5382614aa4565b602082019050919050565b6000613b6b601f836142bf565b9150613b7682614acd565b602082019050919050565b6000613b8e6024836142bf565b9150613b9982614af6565b604082019050919050565b6000613bb16013836142bf565b9150613bbc82614b45565b602082019050919050565b6000613bd46012836142bf565b9150613bdf82614b6e565b602082019050919050565b6000613bf7603f836142bf565b9150613c0282614b97565b604082019050919050565b6000613c1a6030836142bf565b9150613c2582614be6565b604082019050919050565b6000613c3d6017836142bf565b9150613c4882614c35565b602082019050919050565b613c5c8161444f565b82525050565b613c6b8161444f565b82525050565b6000602082019050613c8660008301846137b4565b92915050565b6000606082019050613ca160008301866137a5565b613cae60208301856137b4565b613cbb6040830184613c62565b949350505050565b6000604082019050613cd860008301856137b4565b613ce560208301846137b4565b9392505050565b6000608082019050613d0160008301876137b4565b613d0e60208301866137b4565b613d1b6040830185613c62565b8181036060830152613d2d8184613830565b905095945050505050565b600060a082019050613d4d60008301886137b4565b613d5a6020830187613c62565b613d676040830186613c62565b613d746060830185613c62565b613d816080830184613821565b9695505050505050565b600060a082019050613da060008301886137b4565b613dad6020830187613c62565b613dba6040830186613c62565b613dc76060830185613c62565b613dd46080830184613c62565b9695505050505050565b60006020820190508181036000830152613df881846137c3565b905092915050565b6000602082019050613e156000830184613821565b92915050565b60006020820190508181036000830152613e358184613869565b905092915050565b60006020820190508181036000830152613e56816138a2565b9050919050565b60006020820190508181036000830152613e76816138c5565b9050919050565b60006020820190508181036000830152613e96816138e8565b9050919050565b60006020820190508181036000830152613eb68161390b565b9050919050565b60006020820190508181036000830152613ed68161392e565b9050919050565b60006020820190508181036000830152613ef681613951565b9050919050565b60006020820190508181036000830152613f1681613974565b9050919050565b60006020820190508181036000830152613f3681613997565b9050919050565b60006020820190508181036000830152613f56816139ba565b9050919050565b60006020820190508181036000830152613f76816139dd565b9050919050565b60006020820190508181036000830152613f9681613a00565b9050919050565b60006020820190508181036000830152613fb681613a23565b9050919050565b60006020820190508181036000830152613fd681613a46565b9050919050565b60006060820190508181036000830152613ff681613a69565b905061400560208301856137b4565b6140126040830184613c62565b9392505050565b6000606082019050818103600083015261403281613a8c565b905061404160208301856137b4565b61404e6040830184613c62565b9392505050565b6000602082019050818103600083015261406e81613aaf565b9050919050565b6000606082019050818103600083015261408e81613ad2565b905061409d60208301856137b4565b6140aa6040830184613c62565b9392505050565b600060208201905081810360008301526140ca81613af5565b9050919050565b600060208201905081810360008301526140ea81613b18565b9050919050565b6000602082019050818103600083015261410a81613b3b565b9050919050565b6000602082019050818103600083015261412a81613b5e565b9050919050565b6000602082019050818103600083015261414a81613b81565b9050919050565b6000602082019050818103600083015261416a81613ba4565b9050919050565b6000602082019050818103600083015261418a81613bc7565b9050919050565b600060208201905081810360008301526141aa81613bea565b9050919050565b600060208201905081810360008301526141ca81613c0d565b9050919050565b600060208201905081810360008301526141ea81613c30565b9050919050565b60006020820190506142066000830184613c62565b92915050565b600060a0820190506142216000830188613c62565b61422e6020830187613c62565b61423b6040830186613c62565b6142486060830185613c62565b6142556080830184613c62565b9695505050505050565b6000819050602082019050919050565b600081519050919050565b600081519050919050565b600081519050919050565b6000602082019050919050565b600082825260208201905092915050565b600082825260208201905092915050565b600082825260208201905092915050565b60006142db8261444f565b91506142e68361444f565b9250827fffffffffffffffffffffffffffffffffffffffffffffffffffffffffffffffff0382111561431b5761431a61457a565b5b828201905092915050565b60006143318261444f565b915061433c8361444f565b92508261434c5761434b6145a9565b5b828204905092915050565b60006143628261444f565b915061436d8361444f565b9250817fffffffffffffffffffffffffffffffffffffffffffffffffffffffffffffffff04831182151516156143a6576143a561457a565b5b828202905092915050565b60006143bc8261444f565b91506143c78361444f565b9250828210156143da576143d961457a565b5b828203905092915050565b60006143f08261442f565b9050919050565b60008115159050919050565b60007fffffffff0000000000000000000000000000000000000000000000000000000082169050919050565b600073ffffffffffffffffffffffffffffffffffffffff82169050919050565b6000819050919050565b600060ff82169050919050565b600061447182614478565b9050919050565b60006144838261448a565b9050919050565b60006144958261442f565b9050919050565b60005b838110156144ba57808201518184015260208101905061449f565b838111156144c9576000848401525b50505050565b60006144da8261444f565b91507fffffffffffffffffffffffffffffffffffffffffffffffffffffffffffffffff82141561450d5761450c61457a565b5b600182019050919050565b60006145238261444f565b915061452e8361444f565b92508261453e5761453d6145a9565b5b828206905092915050565b600061455482614459565b915061455f83614459565b92508261456f5761456e6145a9565b5b828206905092915050565b7f4e487b7100000000000000000000000000000000000000000000000000000000600052601160045260246000fd5b7f4e487b7100000000000000000000000000000000000000000000000000000000600052601260045260246000fd5b7f4e487b7100000000000000000000000000000000000000000000000000000000600052603160045260246000fd5b7f4e487b7100000000000000000000000000000000000000000000000000000000600052603260045260246000fd5b7f4e487b7100000000000000000000000000000000000000000000000000000000600052604160045260246000fd5b600080fd5b600080fd5b600080fd5b600080fd5b600080fd5b6000601f19601f8301169050919050565b7f436f6e7472616374206e6565647320617070726f76616c20666f72206675747560008201527f7265207472616e73666572730000000000000000000000000000000000000000602082015250565b7f4e6f20616374697665206f726465722070726573656e74000000000000000000600082015250565b7f4f776e61626c653a206e6577206f776e657220697320746865207a65726f206160008201527f6464726573730000000000000000000000000000000000000000000000000000602082015250565b7f7472616e7366657220746f20746865207a65726f206164647265737300000000600082015250565b7f546f2061646472657373206973206e6f742061207a65726f2061646472657373600082015250565b7f4361742070726963652073686f756c642062652067726561746572207468616e60008201527f20302e3031000000000000000000000000000000000000000000000000000000602082015250565b7f4552433732313a207472616e7366657220746f20746865207a65726f2061646460008201527f7265737300000000000000000000000000000000000000000000000000000000602082015250565b7f4e6f7420612076616c6964204e46542c206e6f7420746865206f776e6572206f60008201527f66204e4654000000000000000000000000000000000000000000000000000000602082015250565b7f546f6b656e20646f6573206e6f74206578697374000000000000000000000000600082015250565b7f596f75206d75737420626520746865206f776e6572206f6620626f7468206f6660008201527f20796f7572206361747300000000000000000000000000000000000000000000602082015250565b7f546f6b656e206d75737420657869737400000000000000000000000000000000600082015250565b7f4552433732313a206f776e657220717565727920666f72206e6f6e657869737460008201527f656e7420746f6b656e0000000000000000000000000000000000000000000000602082015250565b7f54686520707269636520697320636f7272656374000000000000000000000000600082015250565b7f437265617465206f666665720000000000000000000000000000000000000000600082015250565b7f4275790000000000000000000000000000000000000000000000000000000000600082015250565b7f4f776e61626c653a2063616c6c6572206973206e6f7420746865206f776e6572600082015250565b7f52656d6f7665206f666665720000000000000000000000000000000000000000600082015250565b7f4d757374207472616e7366657220746f207a65726f2061646472657373000000600082015250565b7f596f7520617265206e6f7420746865206f776e65722074686174206b69747479600082015250565b7f5573657220646f6573206e6f74206f776e207468697320746f6b656e00000000600082015250565b7f546865206361742063616e277420726570726f647563652068696d73656c6600600082015250565b7f596f752063616e27742073656c6c207477696365207468652073616d65206f6660008201527f6665727300000000000000000000000000000000000000000000000000000000602082015250565b7f46726f6d206f776e732074686520746f6b656e00000000000000000000000000600082015250565b7f342042696c6c696f6e2063617473206d61780000000000000000000000000000600082015250565b7f54686973206173736574206d757374206265206f776e6564206279207468652060008201527f73656c6c657220696e206f7264657220746f2072656d6f7665206f6666657200602082015250565b7f4552433732313a20617070726f766520746f2063616c6c65722c20796f75206160008201527f7265206e6f7420746865206f776e657200000000000000000000000000000000602082015250565b7f746865206b6974747920646f65736e2774206578697374000000000000000000600082015250565b614c67816143e5565b8114614c7257600080fd5b50565b614c7e816143f7565b8114614c8957600080fd5b50565b614c9581614403565b8114614ca057600080fd5b50565b614cac8161444f565b8114614cb757600080fd5b5056fea2646970667358221220bd0b5fd89580aaa8e9ad2b8540e8ff8de13b44060f9506a5738fafb0b156f31064736f6c63430008070033",
  "immutableReferences": {},
  "source": "// SPDX-License-Identifier: MIT\r\npragma solidity ^0.8.0;\r\n\r\n//import \"@openzeppelin/contracts/access/Ownable.sol\";\r\nimport \"./kittiesContract.sol\";\r\n\r\ncontract KittyMarketPlace is myKittiesContract {\r\n\r\n  myKittiesContract private _kittyContract;\r\n\r\n  struct Offer {\r\n    address payable seller;\r\n    uint256 price;\r\n    uint256 index;\r\n    uint256 tokenId;\r\n    bool active;\r\n  }\r\n\r\n  mapping(uint256 => Offer) tokenIdToOffer;\r\n  mapping(uint256 => uint256) tokenIdToOfferId;\r\n\r\n  event MarketTransaction(string TxType, address owner, uint256 tokenId);\r\n\r\n\r\n  Offer[] offers;\r\n\r\n\r\n  function setKittyContract(address _kittyContractAddress) public onlyOwner() { // External functions read from calldata, directly || Public functions copies array arguments to memory)\r\n    _kittyContract = myKittiesContract(_kittyContractAddress);\r\n\r\n  }\r\n\r\n  constructor(address _kittyContractAddress) {\r\n        setKittyContract(_kittyContractAddress);\r\n    }\r\n  \r\n\r\n   function getOffer(uint256 _tokenId) external view returns (address seller, uint256 price, uint256 index, uint256 tokenId, bool active) {\r\n     Offer storage returnOffers = tokenIdToOffer[_tokenId];\r\n     return (returnOffers.seller, returnOffers.price, returnOffers.index, returnOffers.tokenId, returnOffers.active);\r\n     \r\n   }\r\n\r\n   function getAllTokenOnSale() external view returns(uint256[] memory listOfOffers) {\r\n     // this array lets us loop through the array and find all of the tokens so we can then display them all on a web page\r\n     uint256 totalOffers = offers.length;\r\n\r\n     if (totalOffers == 0) {\r\n       return new uint256[](0);\r\n     } \r\n     else {\r\n       uint256[] memory resultOfToken = new uint256[](totalOffers);\r\n\r\n       uint256 offerId; \r\n\r\n       // cannot remove inactive orders from arrays so this is the best solution thus far\r\n\r\n       for(offerId = 0; offerId < totalOffers; offerId++) {\r\n         if(offers[offerId].active == true) { // if - offers array, [offer id] -> price is true, then result is resultOfToken [offerId] equals; offers array [offerId] of tokenId\r\n         resultOfToken[offerId] = offers[offerId].tokenId;\r\n         }\r\n       }\r\n       return resultOfToken;\r\n\r\n     }\r\n   }\r\n\r\n  /*\r\n  // my version\r\n   function _ownsKitty(address _address, uint256 _tokenId) internal returns (bool) {\r\n    kittyIndexToOwner[_tokenId] = _address;\r\n    return true;\r\n   }\r\n   */\r\n\r\n  // Filip's version\r\n  function _ownsKitty(address _address, uint256 _tokenId) internal view returns (bool) {\r\n    return (_kittyContract.ownerOf(_tokenId) == _address);\r\n  }\r\n    \r\n   /*\r\n    *   We give the contract the ability to transfer kitties\r\n    *   As the kitties will be in the market place we need to be able to transfert them\r\n    *   We are checking if the user is owning the kitty inside the approve function\r\n    */\r\n    \r\n    function createKittyGen0(uint256 _genes) public override onlyOwner returns(uint256) {\r\n      uint256 tokenId = _createKitty(0, 0, 0, _genes, msg.sender);\r\n      setOffer(0.2 ether, tokenId);\r\n    }\r\n\r\n   function setOffer(uint256 _price, uint256 _tokenId) public {\r\n     require(_price > 0.009 ether, \"Cat price should be greater than 0.01\" );\r\n     require(tokenIdToOffer[_tokenId].active == false, \"You can't sell twice the same offers\");\r\n     require (_ownsKitty(msg.sender, _tokenId), \"You are not the owner that kitty\");\r\n     // kitty contract needs to be approved for all\r\n     require(_kittyContract.isApprovedForAll(msg.sender, address(this)), \"Contract needs approval for future transfers\"); // Market Place needs to be approved as the operator\r\n\r\n     //approve(address(this), _tokenId); // from gitHub contract\r\n\r\n     Offer memory _offer = Offer({\r\n       seller: (payable(msg.sender)),\r\n       price: _price,\r\n       index: offers.length,\r\n       tokenId: _tokenId,\r\n       active: true\r\n     });\r\n\r\n    // we add new offer, this specific tokenId, to tokenIdToOffer mapping and it's pushed into the offer's array\r\n     tokenIdToOffer[_tokenId] = _offer;\r\n     offers.push(_offer);\r\n\r\n     // here, Filip created offers.length with the object's index parameter so we don't neet this function any more\r\n     //uint256 index = offers.length -1; \r\n     //tokenIdToOfferId[_tokenId] = index;\r\n\r\n     emit MarketTransaction(\"Create offer\", msg.sender, _tokenId);\r\n\r\n   }\r\n\r\n\r\n   function removeOffer(uint256 _tokenId) external {\r\n     require(_owns(msg.sender, _tokenId), \"User does not own this token\");\r\n\r\n     Offer memory offer = tokenIdToOffer[_tokenId];\r\n\r\n     require(offer.seller == msg.sender, \"This asset must be owned by the seller in order to remove offer\");\r\n\r\n    /* Remove the offer in the mapping*/\r\n     /* we set mapping to false */\r\n     // tutorial functions are different than final contract on github\r\n\r\n     //delete offers[tokenIdToOfferId[_tokenId]]; previous function\r\n     delete tokenIdToOffer[_tokenId]; //we delete tokenIdToOffer, then we set the offer in array to false\r\n     //offers[tokenIdToOfferId[_tokenId]].active == false; // mine, not sure if this works\r\n     //offers[tokenIdToOffer[_tokenId].index].active = false; // filip's functions\r\n     offers[offer.index].active = false; // cleaner from Filip\r\n\r\n     //_deleteApproval(_tokenId); filip did not use this in tutorial\r\n      emit MarketTransaction(\"Remove offer\", msg.sender, _tokenId);\r\n      \r\n   }\r\n\r\n\r\n    function buyKitty(uint256 _tokenId) public payable { // we input the offer, we get back the offer\r\n      Offer memory offer = tokenIdToOffer[_tokenId];\r\n      require(msg.value == offer.price, \"The price is correct\");\r\n      require(tokenIdToOffer[_tokenId].active == true, \"No active order present\");\r\n\r\n      /* Remove the offer in the mapping*/\r\n      \r\n      // Important: delete kitty from mapping BEFORE paying out; to prevent reentry attacks\r\n      delete tokenIdToOffer[_tokenId]; // we can delete from mapping but not from the array since it will alter the index positions\r\n\r\n      /* we set mapping to false */\r\n      offers[offer.index].active = false;\r\n\r\n      // This was in the video but not in final gitHub contract\r\n      // transfer funds to seller\r\n      // TO DO: make this pull logic instead of push\r\n      if(offer.price > 0) { // we send the funds to seller\r\n        offer.seller.transfer(offer.price);\r\n      }\r\n      \r\n      //* TMP REMOVE THIS*/\r\n      //_approve(_tokenId, msg.sender); \r\n\r\n      _kittyContract.transferFrom(offer.seller, msg.sender, _tokenId); // we send tokens to buyer: (seller, buyer, token)\r\n\r\n      offer.seller.transfer(msg.value);\r\n      emit MarketTransaction(\"Buy\", msg.sender, _tokenId);\r\n    }\r\n\r\n}",
  "sourcePath": "C:\\Users\\benX\\Documents\\ethereum_course_advanced\\myCryptoKitties_master\\contracts\\KittyMarketPlace.sol",
  "compiler": {
    "name": "solc",
    "version": "0.8.7+commit.e28d00a7.Emscripten.clang"
  },
  "schemaVersion": "3.4.3",
  "updatedAt": "2021-08-31T02:28:29.649Z",
  "networkType": "ethereum",
  "devdoc": {
    "kind": "dev",
    "methods": {
      "owner()": {
        "details": "Returns the address of the current owner."
      },
      "renounceOwnership()": {
        "details": "Leaves the contract without owner. It will not be possible to call `onlyOwner` functions anymore. Can only be called by the current owner. NOTE: Renouncing ownership will leave the contract without an owner, thereby removing any functionality that is only available to the owner."
      },
      "transferOwnership(address)": {
        "details": "Transfers ownership of the contract to a new account (`newOwner`). Can only be called by the current owner."
      }
    },
    "version": 1
  },
  "userdoc": {
    "kind": "user",
    "methods": {},
    "version": 1
  }
}