{
  "contractName": "myKittiesContract",
  "abi": [
    {
      "anonymous": false,
      "inputs": [
        {
          "indexed": true,
          "internalType": "address",
          "name": "owner",
          "type": "address"
        },
        {
          "indexed": true,
          "internalType": "address",
          "name": "approved",
          "type": "address"
        },
        {
          "indexed": true,
          "internalType": "uint256",
          "name": "tokenId",
          "type": "uint256"
        }
      ],
      "name": "Approval",
      "type": "event"
    },
    {
      "anonymous": false,
      "inputs": [
        {
          "indexed": true,
          "internalType": "address",
          "name": "owner",
          "type": "address"
        },
        {
          "indexed": true,
          "internalType": "address",
          "name": "operator",
          "type": "address"
        },
        {
          "indexed": false,
          "internalType": "bool",
          "name": "approved",
          "type": "bool"
        }
      ],
      "name": "ApprovalForAll",
      "type": "event"
    },
    {
      "anonymous": false,
      "inputs": [
        {
          "indexed": false,
          "internalType": "address",
          "name": "owner",
          "type": "address"
        },
        {
          "indexed": false,
          "internalType": "uint256",
          "name": "newKittenId",
          "type": "uint256"
        },
        {
          "indexed": false,
          "internalType": "uint256",
          "name": "mumId",
          "type": "uint256"
        },
        {
          "indexed": false,
          "internalType": "uint256",
          "name": "dadId",
          "type": "uint256"
        },
        {
          "indexed": false,
          "internalType": "uint256",
          "name": "genes",
          "type": "uint256"
        }
      ],
      "name": "Birth",
      "type": "event"
    },
    {
      "anonymous": false,
      "inputs": [
        {
          "indexed": true,
          "internalType": "address",
          "name": "previousOwner",
          "type": "address"
        },
        {
          "indexed": true,
          "internalType": "address",
          "name": "newOwner",
          "type": "address"
        }
      ],
      "name": "OwnershipTransferred",
      "type": "event"
    },
    {
      "anonymous": false,
      "inputs": [
        {
          "indexed": true,
          "internalType": "address",
          "name": "from",
          "type": "address"
        },
        {
          "indexed": true,
          "internalType": "address",
          "name": "to",
          "type": "address"
        },
        {
          "indexed": true,
          "internalType": "uint256",
          "name": "tokenId",
          "type": "uint256"
        }
      ],
      "name": "Transfer",
      "type": "event"
    },
    {
      "inputs": [],
      "name": "CREATION_LIMIT_GEN0",
      "outputs": [
        {
          "internalType": "uint256",
          "name": "",
          "type": "uint256"
        }
      ],
      "stateMutability": "view",
      "type": "function"
    },
    {
      "inputs": [],
      "name": "gen0Counter",
      "outputs": [
        {
          "internalType": "uint256",
          "name": "",
          "type": "uint256"
        }
      ],
      "stateMutability": "view",
      "type": "function"
    },
    {
      "inputs": [
        {
          "internalType": "uint256",
          "name": "",
          "type": "uint256"
        }
      ],
      "name": "kittyIndexToApproved",
      "outputs": [
        {
          "internalType": "address",
          "name": "",
          "type": "address"
        }
      ],
      "stateMutability": "view",
      "type": "function"
    },
    {
      "inputs": [
        {
          "internalType": "uint256",
          "name": "",
          "type": "uint256"
        }
      ],
      "name": "kittyIndexToOwner",
      "outputs": [
        {
          "internalType": "address",
          "name": "",
          "type": "address"
        }
      ],
      "stateMutability": "view",
      "type": "function"
    },
    {
      "inputs": [],
      "name": "owner",
      "outputs": [
        {
          "internalType": "address",
          "name": "",
          "type": "address"
        }
      ],
      "stateMutability": "view",
      "type": "function"
    },
    {
      "inputs": [],
      "name": "renounceOwnership",
      "outputs": [],
      "stateMutability": "nonpayable",
      "type": "function"
    },
    {
      "inputs": [
        {
          "internalType": "address",
          "name": "newOwner",
          "type": "address"
        }
      ],
      "name": "transferOwnership",
      "outputs": [],
      "stateMutability": "nonpayable",
      "type": "function"
    },
    {
      "inputs": [
        {
          "internalType": "uint256",
          "name": "_genes",
          "type": "uint256"
        }
      ],
      "name": "createKittyGen0",
      "outputs": [
        {
          "internalType": "uint256",
          "name": "",
          "type": "uint256"
        }
      ],
      "stateMutability": "nonpayable",
      "type": "function"
    },
    {
      "inputs": [
        {
          "internalType": "uint256",
          "name": "_mumId",
          "type": "uint256"
        },
        {
          "internalType": "uint256",
          "name": "_dadId",
          "type": "uint256"
        },
        {
          "internalType": "uint256",
          "name": "_generation",
          "type": "uint256"
        },
        {
          "internalType": "uint256",
          "name": "_genes",
          "type": "uint256"
        },
        {
          "internalType": "address",
          "name": "owner",
          "type": "address"
        }
      ],
      "name": "_createKitty",
      "outputs": [
        {
          "internalType": "uint256",
          "name": "",
          "type": "uint256"
        }
      ],
      "stateMutability": "nonpayable",
      "type": "function"
    },
    {
      "inputs": [
        {
          "internalType": "uint256",
          "name": "tokenId",
          "type": "uint256"
        }
      ],
      "name": "myGetKitty",
      "outputs": [
        {
          "internalType": "uint256",
          "name": "birthTime",
          "type": "uint256"
        },
        {
          "internalType": "uint256",
          "name": "mumId",
          "type": "uint256"
        },
        {
          "internalType": "uint256",
          "name": "dadId",
          "type": "uint256"
        },
        {
          "internalType": "uint256",
          "name": "generation",
          "type": "uint256"
        },
        {
          "internalType": "uint256",
          "name": "genes",
          "type": "uint256"
        }
      ],
      "stateMutability": "view",
      "type": "function"
    },
    {
      "inputs": [
        {
          "internalType": "uint256",
          "name": "_id",
          "type": "uint256"
        }
      ],
      "name": "getKittyFilip",
      "outputs": [
        {
          "internalType": "uint256",
          "name": "birthTime",
          "type": "uint256"
        },
        {
          "internalType": "uint256",
          "name": "mumId",
          "type": "uint256"
        },
        {
          "internalType": "uint256",
          "name": "dadId",
          "type": "uint256"
        },
        {
          "internalType": "uint256",
          "name": "generation",
          "type": "uint256"
        },
        {
          "internalType": "uint256",
          "name": "genes",
          "type": "uint256"
        }
      ],
      "stateMutability": "view",
      "type": "function"
    },
    {
      "inputs": [
        {
          "internalType": "address",
          "name": "owner",
          "type": "address"
        }
      ],
      "name": "getAllCatsFor",
      "outputs": [
        {
          "internalType": "uint256[]",
          "name": "",
          "type": "uint256[]"
        }
      ],
      "stateMutability": "view",
      "type": "function"
    },
    {
      "inputs": [
        {
          "internalType": "address",
          "name": "owner",
          "type": "address"
        }
      ],
      "name": "balanceOf",
      "outputs": [
        {
          "internalType": "uint256",
          "name": "balance",
          "type": "uint256"
        }
      ],
      "stateMutability": "view",
      "type": "function"
    },
    {
      "inputs": [],
      "name": "totalSupply",
      "outputs": [
        {
          "internalType": "uint256",
          "name": "total",
          "type": "uint256"
        }
      ],
      "stateMutability": "view",
      "type": "function"
    },
    {
      "inputs": [],
      "name": "name",
      "outputs": [
        {
          "internalType": "string",
          "name": "tokenName",
          "type": "string"
        }
      ],
      "stateMutability": "pure",
      "type": "function"
    },
    {
      "inputs": [],
      "name": "symbol",
      "outputs": [
        {
          "internalType": "string",
          "name": "tokenSymbol",
          "type": "string"
        }
      ],
      "stateMutability": "pure",
      "type": "function"
    },
    {
      "inputs": [
        {
          "internalType": "uint256",
          "name": "tokenId",
          "type": "uint256"
        }
      ],
      "name": "ownerOf",
      "outputs": [
        {
          "internalType": "address",
          "name": "owner",
          "type": "address"
        }
      ],
      "stateMutability": "view",
      "type": "function"
    },
    {
      "inputs": [
        {
          "internalType": "address",
          "name": "to",
          "type": "address"
        },
        {
          "internalType": "uint256",
          "name": "tokenId",
          "type": "uint256"
        }
      ],
      "name": "transfer",
      "outputs": [],
      "stateMutability": "nonpayable",
      "type": "function"
    },
    {
      "inputs": [
        {
          "internalType": "address",
          "name": "_approved",
          "type": "address"
        },
        {
          "internalType": "uint256",
          "name": "_tokenId",
          "type": "uint256"
        }
      ],
      "name": "approve",
      "outputs": [],
      "stateMutability": "nonpayable",
      "type": "function"
    },
    {
      "inputs": [
        {
          "internalType": "address",
          "name": "_operator",
          "type": "address"
        },
        {
          "internalType": "bool",
          "name": "_approved",
          "type": "bool"
        }
      ],
      "name": "setApprovalForAll",
      "outputs": [],
      "stateMutability": "nonpayable",
      "type": "function"
    },
    {
      "inputs": [
        {
          "internalType": "uint256",
          "name": "_tokenId",
          "type": "uint256"
        }
      ],
      "name": "getApproved",
      "outputs": [
        {
          "internalType": "address",
          "name": "",
          "type": "address"
        }
      ],
      "stateMutability": "view",
      "type": "function"
    },
    {
      "inputs": [
        {
          "internalType": "address",
          "name": "_owner",
          "type": "address"
        },
        {
          "internalType": "address",
          "name": "_operator",
          "type": "address"
        }
      ],
      "name": "isApprovedForAll",
      "outputs": [
        {
          "internalType": "bool",
          "name": "",
          "type": "bool"
        }
      ],
      "stateMutability": "view",
      "type": "function"
    },
    {
      "inputs": [
        {
          "internalType": "address",
          "name": "_from",
          "type": "address"
        },
        {
          "internalType": "address",
          "name": "_to",
          "type": "address"
        },
        {
          "internalType": "uint256",
          "name": "_tokenId",
          "type": "uint256"
        }
      ],
      "name": "transferFrom",
      "outputs": [],
      "stateMutability": "nonpayable",
      "type": "function"
    }
  ],
  "bytecode": "0x60806040523480156200001157600080fd5b5062000032620000266200003860201b60201c565b6200004060201b60201c565b62000104565b600033905090565b60008060009054906101000a900473ffffffffffffffffffffffffffffffffffffffff169050816000806101000a81548173ffffffffffffffffffffffffffffffffffffffff021916908373ffffffffffffffffffffffffffffffffffffffff1602179055508173ffffffffffffffffffffffffffffffffffffffff168173ffffffffffffffffffffffffffffffffffffffff167f8be0079c531659141344cd1fd0a4f28419497f9722a3daafe3b4186f6b6457e060405160405180910390a35050565b6124af80620001146000396000f3fe608060405234801561001057600080fd5b506004361061014d5760003560e01c8063715018a6116100c3578063a9059cbb1161007c578063a9059cbb146103e0578063b4834330146103fc578063d5a776ca1461041a578063e985e9c51461044a578063ef5e94aa1461047a578063f2fde38b146104985761014d565b8063715018a61461031a5780638da5cb5b1461032457806395d89b4114610342578063a090cb7714610360578063a22cb46514610394578063a45f4bfc146103b05761014d565b806323b872dd1161011557806323b872dd1461020e578063338a63a41461022a578063481af3d31461025a5780635a64aafa1461028a5780636352211e146102ba57806370a08231146102ea5761014d565b806306fdde0314610152578063081812fc14610170578063095ea7b3146101a05780630dd1c2e8146101bc57806318160ddd146101f0575b600080fd5b61015a6104b4565b6040516101679190611da0565b60405180910390f35b61018a60048036038101906101859190611a04565b6104f1565b6040516101979190611cf5565b60405180910390f35b6101ba60048036038101906101b591906119c4565b610575565b005b6101d660048036038101906101d19190611a04565b6105f1565b6040516101e7959493929190611f1d565b60405180910390f35b6101f86106a7565b6040516102059190611f02565b60405180910390f35b61022860048036038101906102239190611931565b6106b4565b005b610244600480360381019061023f9190611a31565b6107e8565b6040516102519190611f02565b60405180910390f35b610274600480360381019061026f9190611a04565b610975565b6040516102819190611cf5565b60405180910390f35b6102a4600480360381019061029f91906118c4565b6109a8565b6040516102b19190611d63565b60405180910390f35b6102d460048036038101906102cf9190611a04565b610a3f565b6040516102e19190611cf5565b60405180910390f35b61030460048036038101906102ff91906118c4565b610af1565b6040516103119190611f02565b60405180910390f35b610322610b3a565b005b61032c610bc2565b6040516103399190611cf5565b60405180910390f35b61034a610beb565b6040516103579190611da0565b60405180910390f35b61037a60048036038101906103759190611a04565b610c28565b60405161038b959493929190611f1d565b60405180910390f35b6103ae60048036038101906103a99190611984565b610cde565b005b6103ca60048036038101906103c59190611a04565b610e4a565b6040516103d79190611cf5565b60405180910390f35b6103fa60048036038101906103f591906119c4565b610e7d565b005b610404610f7e565b6040516104119190611f02565b60405180910390f35b610434600480360381019061042f9190611a04565b610f83565b6040516104419190611f02565b60405180910390f35b610464600480360381019061045f91906118f1565b611075565b6040516104719190611d85565b60405180910390f35b610482611109565b60405161048f9190611f02565b60405180910390f35b6104b260048036038101906104ad91906118c4565b61110f565b005b60606040518060400160405280600e81526020017f4d792043727970746f2043617473000000000000000000000000000000000000815250905090565b6000600780549050821061053a576040517f08c379a000000000000000000000000000000000000000000000000000000000815260040161053190611e82565b60405180910390fd5b6003600083815260200190815260200160002060009054906101000a900473ffffffffffffffffffffffffffffffffffffffff169050919050565b61057f3382611207565b61058857600080fd5b6105928183611273565b808273ffffffffffffffffffffffffffffffffffffffff163373ffffffffffffffffffffffffffffffffffffffff167f8c5be1e5ebec7d5bd14f71427d1e84f3dd0314c0f7b2291e5b200ac8c7c3b92560405160405180910390a45050565b6000806000806000806007878154811061060e5761060d612171565b5b906000526020600020906002020190508060000160009054906101000a900467ffffffffffffffff1667ffffffffffffffff1695508060000160089054906101000a900463ffffffff1663ffffffff16945080600001600c9054906101000a900463ffffffff1663ffffffff1693508060000160109054906101000a900461ffff1661ffff169250806001015491505091939590929450565b6000600780549050905090565b600073ffffffffffffffffffffffffffffffffffffffff168273ffffffffffffffffffffffffffffffffffffffff161415610724576040517f08c379a000000000000000000000000000000000000000000000000000000000815260040161071b90611de2565b60405180910390fd5b600780549050811061076b576040517f08c379a000000000000000000000000000000000000000000000000000000000815260040161076290611e62565b60405180910390fd5b6107758382611207565b61077e57600080fd5b8273ffffffffffffffffffffffffffffffffffffffff163373ffffffffffffffffffffffffffffffffffffffff1614806107be57506107bd8333611075565b5b806107cf57506107ce33826112c9565b5b6107d857600080fd5b6107e3838383611335565b505050565b6000806040518060a001604052804267ffffffffffffffff1681526020018863ffffffff1681526020018763ffffffff1681526020018661ffff168152602001858152509050600781908060018154018082558091505060019003906000526020600020906002020160009091909190915060008201518160000160006101000a81548167ffffffffffffffff021916908367ffffffffffffffff16021790555060208201518160000160086101000a81548163ffffffff021916908363ffffffff160217905550604082015181600001600c6101000a81548163ffffffff021916908363ffffffff16021790555060608201518160000160106101000a81548161ffff021916908361ffff1602179055506080820151816001015550506000600160078054905061091a919061201b565b90507f0a5311bd2a6608f08a180df2ee7c5946819a649b204b554bb8e39825b2c50ad584828a8a89604051610953959493929190611d10565b60405180910390a161096760008583611335565b809250505095945050505050565b60036020528060005260406000206000915054906101000a900473ffffffffffffffffffffffffffffffffffffffff1681565b6060600560008373ffffffffffffffffffffffffffffffffffffffff1673ffffffffffffffffffffffffffffffffffffffff168152602001908152602001600020805480602002602001604051908101604052809291908181526020018280548015610a3357602002820191906000526020600020905b815481526020019060010190808311610a1f575b50505050509050919050565b6000806001600084815260200190815260200160002060009054906101000a900473ffffffffffffffffffffffffffffffffffffffff169050600073ffffffffffffffffffffffffffffffffffffffff168173ffffffffffffffffffffffffffffffffffffffff161415610ae8576040517f08c379a0000000000000000000000000000000000000000000000000000000008152600401610adf90611ea2565b60405180910390fd5b80915050919050565b6000600260008373ffffffffffffffffffffffffffffffffffffffff1673ffffffffffffffffffffffffffffffffffffffff168152602001908152602001600020549050919050565b610b42611570565b73ffffffffffffffffffffffffffffffffffffffff16610b60610bc2565b73ffffffffffffffffffffffffffffffffffffffff1614610bb6576040517f08c379a0000000000000000000000000000000000000000000000000000000008152600401610bad90611ec2565b60405180910390fd5b610bc06000611578565b565b60008060009054906101000a900473ffffffffffffffffffffffffffffffffffffffff16905090565b60606040518060400160405280600481526020017f4d43524300000000000000000000000000000000000000000000000000000000815250905090565b60008060008060008060078781548110610c4557610c44612171565b5b906000526020600020906002020190508060000160009054906101000a900467ffffffffffffffff1667ffffffffffffffff168160000160089054906101000a900463ffffffff1663ffffffff1682600001600c9054906101000a900463ffffffff1663ffffffff168360000160109054906101000a900461ffff1661ffff168460010154955095509550955095505091939590929450565b3373ffffffffffffffffffffffffffffffffffffffff168273ffffffffffffffffffffffffffffffffffffffff161415610d4d576040517f08c379a0000000000000000000000000000000000000000000000000000000008152600401610d4490611ee2565b60405180910390fd5b80600460003373ffffffffffffffffffffffffffffffffffffffff1673ffffffffffffffffffffffffffffffffffffffff16815260200190815260200160002060008473ffffffffffffffffffffffffffffffffffffffff1673ffffffffffffffffffffffffffffffffffffffff16815260200190815260200160002060006101000a81548160ff0219169083151502179055508173ffffffffffffffffffffffffffffffffffffffff163373ffffffffffffffffffffffffffffffffffffffff167f17307eab39ab6107e8899845ad3d59bd9653f200f220920489ca2b5937696c3183604051610e3e9190611d85565b60405180910390a35050565b60016020528060005260406000206000915054906101000a900473ffffffffffffffffffffffffffffffffffffffff1681565b600073ffffffffffffffffffffffffffffffffffffffff168273ffffffffffffffffffffffffffffffffffffffff161415610eed576040517f08c379a0000000000000000000000000000000000000000000000000000000008152600401610ee490611e42565b60405180910390fd5b3073ffffffffffffffffffffffffffffffffffffffff168273ffffffffffffffffffffffffffffffffffffffff161415610f5c576040517f08c379a0000000000000000000000000000000000000000000000000000000008152600401610f5390611e02565b60405180910390fd5b610f663382611207565b610f6f57600080fd5b610f7a338383611335565b5050565b600a81565b6000610f8d611570565b73ffffffffffffffffffffffffffffffffffffffff16610fab610bc2565b73ffffffffffffffffffffffffffffffffffffffff1614611001576040517f08c379a0000000000000000000000000000000000000000000000000000000008152600401610ff890611ec2565b60405180910390fd5b600a6006541115611047576040517f08c379a000000000000000000000000000000000000000000000000000000000815260040161103e90611e22565b60405180910390fd5b6006600081548092919061105a906120ca565b919050555061106e600080600085336107e8565b9050919050565b6000600460008473ffffffffffffffffffffffffffffffffffffffff1673ffffffffffffffffffffffffffffffffffffffff16815260200190815260200160002060008373ffffffffffffffffffffffffffffffffffffffff1673ffffffffffffffffffffffffffffffffffffffff16815260200190815260200160002060009054906101000a900460ff16905092915050565b60065481565b611117611570565b73ffffffffffffffffffffffffffffffffffffffff16611135610bc2565b73ffffffffffffffffffffffffffffffffffffffff161461118b576040517f08c379a000000000000000000000000000000000000000000000000000000000815260040161118290611ec2565b60405180910390fd5b600073ffffffffffffffffffffffffffffffffffffffff168173ffffffffffffffffffffffffffffffffffffffff1614156111fb576040517f08c379a00000000000000000000000000000000000000000000000000000000081526004016111f290611dc2565b60405180910390fd5b61120481611578565b50565b60008273ffffffffffffffffffffffffffffffffffffffff166001600084815260200190815260200160002060009054906101000a900473ffffffffffffffffffffffffffffffffffffffff1673ffffffffffffffffffffffffffffffffffffffff1614905092915050565b806003600084815260200190815260200160002060006101000a81548173ffffffffffffffffffffffffffffffffffffffff021916908373ffffffffffffffffffffffffffffffffffffffff1602179055505050565b60008273ffffffffffffffffffffffffffffffffffffffff166003600084815260200190815260200160002060009054906101000a900473ffffffffffffffffffffffffffffffffffffffff1673ffffffffffffffffffffffffffffffffffffffff1614905092915050565b6001600260008473ffffffffffffffffffffffffffffffffffffffff1673ffffffffffffffffffffffffffffffffffffffff16815260200190815260200160002060008282546113859190611fc5565b92505081905550816001600083815260200190815260200160002060006101000a81548173ffffffffffffffffffffffffffffffffffffffff021916908373ffffffffffffffffffffffffffffffffffffffff160217905550600560008373ffffffffffffffffffffffffffffffffffffffff1673ffffffffffffffffffffffffffffffffffffffff168152602001908152602001600020819080600181540180825580915050600190039060005260206000200160009091909190915055600073ffffffffffffffffffffffffffffffffffffffff168373ffffffffffffffffffffffffffffffffffffffff1614611510576001600260008573ffffffffffffffffffffffffffffffffffffffff1673ffffffffffffffffffffffffffffffffffffffff16815260200190815260200160002060008282546114c8919061201b565b925050819055506114d9838261163c565b6001600082815260200190815260200160002060006101000a81549073ffffffffffffffffffffffffffffffffffffffff02191690555b808273ffffffffffffffffffffffffffffffffffffffff163373ffffffffffffffffffffffffffffffffffffffff167fddf252ad1be2c89b69c2b068fc378daa952ba7f163c4a11628f55a4df523b3ef60405160405180910390a4505050565b600033905090565b60008060009054906101000a900473ffffffffffffffffffffffffffffffffffffffff169050816000806101000a81548173ffffffffffffffffffffffffffffffffffffffff021916908373ffffffffffffffffffffffffffffffffffffffff1602179055508173ffffffffffffffffffffffffffffffffffffffff168173ffffffffffffffffffffffffffffffffffffffff167f8be0079c531659141344cd1fd0a4f28419497f9722a3daafe3b4186f6b6457e060405160405180910390a35050565b6000600560008473ffffffffffffffffffffffffffffffffffffffff1673ffffffffffffffffffffffffffffffffffffffff1681526020019081526020016000206001600560008673ffffffffffffffffffffffffffffffffffffffff1673ffffffffffffffffffffffffffffffffffffffff168152602001908152602001600020805490506116cc919061201b565b815481106116dd576116dc612171565b5b9060005260206000200154905060005b6001600560008673ffffffffffffffffffffffffffffffffffffffff1673ffffffffffffffffffffffffffffffffffffffff1681526020019081526020016000208054905061173c919061201b565b81101561187f5782600560008673ffffffffffffffffffffffffffffffffffffffff1673ffffffffffffffffffffffffffffffffffffffff168152602001908152602001600020828154811061179557611794612171565b5b9060005260206000200154141561186c5781600560008673ffffffffffffffffffffffffffffffffffffffff1673ffffffffffffffffffffffffffffffffffffffff16815260200190815260200160002082815481106117f8576117f7612171565b5b9060005260206000200181905550600560008573ffffffffffffffffffffffffffffffffffffffff1673ffffffffffffffffffffffffffffffffffffffff16815260200190815260200160002080548061185557611854612142565b5b600190038181906000526020600020016000905590555b8080611877906120ca565b9150506116ed565b50505050565b60008135905061189481612434565b92915050565b6000813590506118a98161244b565b92915050565b6000813590506118be81612462565b92915050565b6000602082840312156118da576118d96121a0565b5b60006118e884828501611885565b91505092915050565b60008060408385031215611908576119076121a0565b5b600061191685828601611885565b925050602061192785828601611885565b9150509250929050565b60008060006060848603121561194a576119496121a0565b5b600061195886828701611885565b935050602061196986828701611885565b925050604061197a868287016118af565b9150509250925092565b6000806040838503121561199b5761199a6121a0565b5b60006119a985828601611885565b92505060206119ba8582860161189a565b9150509250929050565b600080604083850312156119db576119da6121a0565b5b60006119e985828601611885565b92505060206119fa858286016118af565b9150509250929050565b600060208284031215611a1a57611a196121a0565b5b6000611a28848285016118af565b91505092915050565b600080600080600060a08688031215611a4d57611a4c6121a0565b5b6000611a5b888289016118af565b9550506020611a6c888289016118af565b9450506040611a7d888289016118af565b9350506060611a8e888289016118af565b9250506080611a9f88828901611885565b9150509295509295909350565b6000611ab88383611cd7565b60208301905092915050565b611acd8161204f565b82525050565b6000611ade82611f80565b611ae88185611fa3565b9350611af383611f70565b8060005b83811015611b24578151611b0b8882611aac565b9750611b1683611f96565b925050600181019050611af7565b5085935050505092915050565b611b3a81612061565b82525050565b6000611b4b82611f8b565b611b558185611fb4565b9350611b65818560208601612097565b611b6e816121a5565b840191505092915050565b6000611b86602683611fb4565b9150611b91826121b6565b604082019050919050565b6000611ba9602183611fb4565b9150611bb482612205565b604082019050919050565b6000611bcc601c83611fb4565b9150611bd782612254565b602082019050919050565b6000611bef602e83611fb4565b9150611bfa8261227d565b604082019050919050565b6000611c12602483611fb4565b9150611c1d826122cc565b604082019050919050565b6000611c35600f83611fb4565b9150611c408261231b565b602082019050919050565b6000611c58601083611fb4565b9150611c6382612344565b602082019050919050565b6000611c7b602983611fb4565b9150611c868261236d565b604082019050919050565b6000611c9e602083611fb4565b9150611ca9826123bc565b602082019050919050565b6000611cc1603083611fb4565b9150611ccc826123e5565b604082019050919050565b611ce08161208d565b82525050565b611cef8161208d565b82525050565b6000602082019050611d0a6000830184611ac4565b92915050565b600060a082019050611d256000830188611ac4565b611d326020830187611ce6565b611d3f6040830186611ce6565b611d4c6060830185611ce6565b611d596080830184611ce6565b9695505050505050565b60006020820190508181036000830152611d7d8184611ad3565b905092915050565b6000602082019050611d9a6000830184611b31565b92915050565b60006020820190508181036000830152611dba8184611b40565b905092915050565b60006020820190508181036000830152611ddb81611b79565b9050919050565b60006020820190508181036000830152611dfb81611b9c565b9050919050565b60006020820190508181036000830152611e1b81611bbf565b9050919050565b60006020820190508181036000830152611e3b81611be2565b9050919050565b60006020820190508181036000830152611e5b81611c05565b9050919050565b60006020820190508181036000830152611e7b81611c28565b9050919050565b60006020820190508181036000830152611e9b81611c4b565b9050919050565b60006020820190508181036000830152611ebb81611c6e565b9050919050565b60006020820190508181036000830152611edb81611c91565b9050919050565b60006020820190508181036000830152611efb81611cb4565b9050919050565b6000602082019050611f176000830184611ce6565b92915050565b600060a082019050611f326000830188611ce6565b611f3f6020830187611ce6565b611f4c6040830186611ce6565b611f596060830185611ce6565b611f666080830184611ce6565b9695505050505050565b6000819050602082019050919050565b600081519050919050565b600081519050919050565b6000602082019050919050565b600082825260208201905092915050565b600082825260208201905092915050565b6000611fd08261208d565b9150611fdb8361208d565b9250827fffffffffffffffffffffffffffffffffffffffffffffffffffffffffffffffff038211156120105761200f612113565b5b828201905092915050565b60006120268261208d565b91506120318361208d565b92508282101561204457612043612113565b5b828203905092915050565b600061205a8261206d565b9050919050565b60008115159050919050565b600073ffffffffffffffffffffffffffffffffffffffff82169050919050565b6000819050919050565b60005b838110156120b557808201518184015260208101905061209a565b838111156120c4576000848401525b50505050565b60006120d58261208d565b91507fffffffffffffffffffffffffffffffffffffffffffffffffffffffffffffffff82141561210857612107612113565b5b600182019050919050565b7f4e487b7100000000000000000000000000000000000000000000000000000000600052601160045260246000fd5b7f4e487b7100000000000000000000000000000000000000000000000000000000600052603160045260246000fd5b7f4e487b7100000000000000000000000000000000000000000000000000000000600052603260045260246000fd5b600080fd5b6000601f19601f8301169050919050565b7f4f776e61626c653a206e6577206f776e657220697320746865207a65726f206160008201527f6464726573730000000000000000000000000000000000000000000000000000602082015250565b7f4d757374207472616e7366657220746f206e6f6e2d7a65726f2061646472657360008201527f7300000000000000000000000000000000000000000000000000000000000000602082015250565b7f7472616e7366657220746f20746865207a65726f206164647265737300000000600082015250565b7f47656e20302073686f756c64206265206c657373207468616e2063726561746960008201527f6f6e206c696d69742067656e2030000000000000000000000000000000000000602082015250565b7f4552433732313a207472616e7366657220746f20746865207a65726f2061646460008201527f7265737300000000000000000000000000000000000000000000000000000000602082015250565b7f4e6f7420612076616c6964204e46540000000000000000000000000000000000600082015250565b7f546f6b656e206d75737420657869737400000000000000000000000000000000600082015250565b7f4552433732313a206f776e657220717565727920666f72206e6f6e657869737460008201527f656e7420746f6b656e0000000000000000000000000000000000000000000000602082015250565b7f4f776e61626c653a2063616c6c6572206973206e6f7420746865206f776e6572600082015250565b7f4552433732313a20617070726f766520746f2063616c6c65722c20796f75206160008201527f7265206e6f7420746865206f776e657200000000000000000000000000000000602082015250565b61243d8161204f565b811461244857600080fd5b50565b61245481612061565b811461245f57600080fd5b50565b61246b8161208d565b811461247657600080fd5b5056fea2646970667358221220909890d0a864c6e033edd6f2b8ce36e1ae74aa29bc7bc3e467f91c8e05efca0d64736f6c63430008060033",
  "immutableReferences": {},
  "source": "// SPDX-License-Identifier: MIT\r\npragma solidity ^0.8.0;\r\n\r\n//import \"./IERC721.sol\";\r\nimport \"@openzeppelin/contracts/access/Ownable.sol\";\r\nimport \"@openzeppelin/contracts/token/ERC721/IERC721Receiver.sol\";\r\n\r\n\r\ncontract myKittiesContract is Ownable {\r\n\r\n  // Mapping from token ID to owner address\r\n  mapping(uint256 => address) public kittyIndexToOwner; //owners Of TokenId\r\n\r\n  // Mapping owner address to token count\r\n  mapping(address => uint256) ownershipTokenCount;\r\n\r\n  // Mapping from token ID to approved address\r\n  mapping(uint256 => address) public kittyIndexToApproved;\r\n\r\n  // MYADDR => OPERATOR => TRUE/FALSE\r\n  // _operatorApprovals[MYADDR][OPERATORADDR] = true or false;\r\n  // _operatorApprovals[MYADDR][BOBS_ADDR] = true;\r\n  // _operatorApprovals[MYADDR][ALICE_ADDR] = false;\r\n  // _operatorApprovals[MYADDR][LISA_ADDR] = true;\r\n\r\n  // Mapping from owner to operator approvals\r\n  mapping(address => mapping(address => bool)) private _operatorApprovals;\r\n\r\n  //an address to a number of cats in an array\r\n  mapping(address => uint256[]) ownerToCats;\r\n\r\n\r\n  event Transfer(address indexed from, address indexed to, uint256 indexed tokenId);\r\n  event ApprovalForAll(address indexed owner, address indexed operator, bool approved);\r\n  event Approval(address indexed owner, address indexed approved, uint256 indexed tokenId);\r\n  event Birth(address owner, uint256 newKittenId, uint256 mumId, uint256 dadId, uint256 genes);\r\n  \r\n\r\n  string constant _name = \"My Crypto Cats\";\r\n  string constant _symbol = \"MCRC\";\r\n  uint256 public constant CREATION_LIMIT_GEN0 = 10;\r\n  uint256 public gen0Counter;\r\n\r\n  bytes4 internal constant MAGIC_ERC721_RECEIVED = bytes4(keccak256(\"onERC721Received(address,address,uint256,bytes)\"));\r\n\r\n  struct Kitty{\r\n    uint64 birthTime;\r\n    uint32 mumId;\r\n    uint32 dadId;\r\n    uint16 generation;\r\n    uint256 genes;\r\n  }\r\n\r\n  Kitty[] kitties;\r\n\r\n  function createKittyGen0(uint256 _genes) public onlyOwner returns (uint256)\r\n  {\r\n    require(gen0Counter <= CREATION_LIMIT_GEN0, \"Gen 0 should be less than creation limit gen 0\");\r\n    \r\n    gen0Counter ++;\r\n\r\n    // mum, dad and generation is 0\r\n    // Gen0 have no owners; they are owned by the contract\r\n    \r\n    return _createKitty(0,0,0, _genes, msg.sender); // msg.sender could also be -- address(this) - we are giving cats to owner\r\n  }\r\n\r\n  // create cats by generation and by breeding\r\n  // returns cat id\r\n  function _createKitty(\r\n    uint256 _mumId,\r\n    uint256 _dadId,\r\n    uint256 _generation, //1,2,3..etc\r\n    uint256 _genes, // recipient\r\n    address owner\r\n  ) public returns(uint256) {\r\n    Kitty memory newKitties = Kitty ({\r\n      genes: _genes,\r\n      birthTime: uint64(block.timestamp),\r\n      mumId: uint32(_mumId),\r\n      dadId: uint32(_dadId),\r\n      generation: uint16(_generation)\r\n    });\r\n\r\n    kitties.push(newKitties); // returns the size of array - 1 for the first cat\r\n\r\n    uint256 newKittenId = kitties.length -1; // 0-1\r\n\r\n    emit Birth(owner, newKittenId, _mumId, _dadId, _genes);\r\n\r\n    _transfer(address(0), owner, newKittenId);\r\n\r\n    return newKittenId; //returns 256 bit integer\r\n\r\n  }\r\n\r\n  function myGetKitty(uint256 tokenId) public view returns (\r\n    uint256 birthTime,\r\n    uint256 mumId,\r\n    uint256 dadId,\r\n    uint256 generation,\r\n    uint256 genes\r\n  ) {\r\n\r\n    Kitty storage returnKitty = kitties[tokenId];\r\n    return (uint256(returnKitty.birthTime), uint256(returnKitty.mumId), uint256(returnKitty.dadId), uint256(returnKitty.generation), uint256(returnKitty.genes));\r\n  }\r\n\r\n  function getKittyFilip(uint256 _id) public view returns (\r\n    uint256 birthTime,\r\n    uint256 mumId,\r\n    uint256 dadId,\r\n    uint256 generation,\r\n    uint256 genes\r\n  ) {\r\n\r\n    Kitty storage kitty = kitties[_id];\r\n    birthTime = uint256(kitty.birthTime);\r\n    mumId = uint256(kitty.mumId);\r\n    dadId = uint256(kitty.dadId);\r\n    generation = uint256(kitty.generation);\r\n    genes = uint256(kitty.genes);\r\n  }\r\n\r\n  //-------------------------------\r\n\r\n  function getAllCatsFor(address owner) public view returns (uint[] memory) {\r\n    return ownerToCats[owner];\r\n  }\r\n  \r\n\r\n  function balanceOf(address owner) public view returns (uint256 balance) {\r\n    return ownershipTokenCount[owner];\r\n  }\r\n\r\n\r\n  function totalSupply() public view returns (uint256 total) {\r\n    return kitties.length;\r\n  }\r\n\r\n\r\n  function name() external pure returns (string memory tokenName) {\r\n    return _name;\r\n  }\r\n\r\n\r\n  function symbol() external pure returns (string memory tokenSymbol) {\r\n    return _symbol;\r\n  }\r\n\r\n  // private functions are cheaper but public allows to execute function from within this contract\r\n  function ownerOf(uint256 tokenId) public view returns (address owner) {\r\n    address _owner = kittyIndexToOwner[tokenId]; // local variable \r\n    require(_owner != address(0), \"ERC721: owner query for nonexistent token\");\r\n\r\n    return _owner;\r\n\r\n  }\r\n\r\n\r\n  function transfer(address to, uint256 tokenId) external {\r\n    require(to != address(0), \"ERC721: transfer to the zero address\");\r\n    require(to != address(this), \"transfer to the zero address\");\r\n    // `tokenId` token must be owned by `msg.sender`.\r\n    require(_owns(msg.sender, tokenId));\r\n\r\n    _transfer(msg.sender, to, tokenId);\r\n\r\n  }\r\n\r\n\r\n  function approve(address _approved, uint256 _tokenId) public {\r\n    ///  Throws unless `msg.sender` is the current NFT owner, or an authorized\r\n    ///  operator of the current owner.\r\n    require(_owns(msg.sender, _tokenId));\r\n\r\n    _approve(_tokenId, _approved);\r\n    emit Approval(msg.sender, _approved, _tokenId);\r\n\r\n  }\r\n\r\n\r\n  function setApprovalForAll(address _operator, bool _approved) public {\r\n    require(_operator != msg.sender, \"ERC721: approve to caller, you are not the owner\");\r\n\r\n    _operatorApprovals[msg.sender][_operator] = _approved; \r\n    emit ApprovalForAll(msg.sender, _operator, _approved);\r\n\r\n  }\r\n\r\n\r\n  function getApproved(uint256 _tokenId) public view returns (address) {\r\n    require(_tokenId < kitties.length, \"Token must exist\"); // getter function\r\n\r\n    return kittyIndexToApproved[_tokenId];\r\n  }\r\n\r\n\r\n  function isApprovedForAll(address _owner, address _operator) public view returns (bool) {\r\n    return _operatorApprovals[_owner][_operator];\r\n  }\r\n\r\n  function transferFrom(address _from, address _to, uint256 _tokenId) external {\r\n    /// Throws if `_to` is the zero address. \r\n    /// Throws if `_tokenId` is not a valid NFT.\r\n\r\n    /// @dev Throws unless `msg.sender` is the current owner, an authorized\r\n    ///  operator, or the approved address for this NFT.\r\n     \r\n    require(_to != address(0), \"Must transfer to non-zero address\");\r\n    require(_tokenId < kitties.length, \"Not a valid NFT\");\r\n    require(_owns(_from, _tokenId));\r\n    require(msg.sender == _from || isApprovedForAll(_from, msg.sender) || _approvedFor(msg.sender, _tokenId));\r\n\r\n    _transfer(_from, _to, _tokenId);\r\n  }\r\n\r\n  function _safeTransfer(address _from, address _to, uint256 _tokenId, bytes calldata _data) internal {\r\n    _transfer(_from, _to, _tokenId);\r\n    require(_checkERC721Support(_from, _to, _tokenId, _data));\r\n  }\r\n\r\n  //Smart Contract Programmer(youTuber) ...\r\n  //transferFrom - how it is used:\r\n  //trader calls approve(dexAddress, amount)\r\n  //dex calls transferFrom(traderAddress, dexAddress, amount)\r\n\r\n  // must transfer from address 0\r\n  function _transfer(address from, address to, uint256 tokenId) internal {\r\n    //_approve(address(0), tokenId);\r\n\r\n    ownershipTokenCount[to] += 1; // increase count of recipient\r\n\r\n    kittyIndexToOwner[tokenId] = to;\r\n\r\n     // SEMD tokenId # => an address to a number of cats in an array\r\n     ownerToCats[to].push(tokenId);\r\n\r\n     // decrease token count from person A to person B\r\n     if (from != address(0)) { // if from is not address(0), is okay to remove token\r\n       ownershipTokenCount[from] -= 1;\r\n       _removeTokenIdFromOwner(from, tokenId);\r\n       delete kittyIndexToOwner[tokenId];\r\n     }\r\n\r\n     emit Transfer(msg.sender, to, tokenId);\r\n\r\n  }\r\n\r\n  function  _removeTokenIdFromOwner(address owner, uint256 tokenId) internal {\r\n    uint256 lastId = ownerToCats[owner][ownerToCats[owner].length -1];\r\n    for (uint256 i = 0; i < ownerToCats[owner].length -1; i++) {\r\n      if (ownerToCats[owner][i] == tokenId) {\r\n        ownerToCats[owner][i] = lastId;\r\n        ownerToCats[owner].pop();\r\n      }\r\n    }\r\n  }\r\n\r\n\r\n  function _owns(address _claimant, uint256 tokenId ) internal view returns(bool) {\r\n    return kittyIndexToOwner[tokenId] == _claimant;\r\n  }\r\n\r\n\r\n   function _approve(uint256 _tokenId, address _approved) internal {\r\n    kittyIndexToApproved[_tokenId] = _approved;\r\n  }\r\n\r\n\r\n  function _approvedFor(address _claimant, uint256 tokenId) internal view returns(bool) {\r\n    return kittyIndexToApproved[tokenId] == _claimant;\r\n  }\r\n\r\n\r\n  function _checkERC721Support(address _from, address _to, uint256 _tokenId, bytes memory _data) internal returns (bool) {\r\n    if(!isContract(_to)) { //checks if `_to` is a smart contract (code size > 0)\r\n      return true;\r\n    }\r\n    //example: Contract(_to)....\r\n    //If there is an operator, where _from is not equal to msg.sender, we use msg.sender.\r\n    bytes4 returnData = IERC721Receiver(_to).onERC721Received(msg.sender, _from, _tokenId, _data);\r\n    return returnData == MAGIC_ERC721_RECEIVED;\r\n    //Call onERC721Received in the _to contract\r\n    //Check return value\r\n  } \r\n\r\n  function isContract(address _to) internal view returns(bool) {\r\n    //It is a smart contract (code size > 0)\r\n    //If it is a wallet, code size = 0\r\n    uint32 size;\r\n    assembly{\r\n      size := extcodesize(_to)\r\n    }\r\n    return size > 0;\r\n\r\n  }\r\n\r\n\r\n}",
  "sourcePath": "C:/Users/benX/Documents/ethereum_course_advanced/myCryptoKitties_master/contracts/kittiesContract.sol",
  "compiler": {
    "name": "solc",
    "version": "0.8.6+commit.11564f7e.Emscripten.clang"
  },
  "schemaVersion": "3.4.1",
  "updatedAt": "2021-07-16T01:09:55.456Z",
  "devdoc": {
    "kind": "dev",
    "methods": {
      "owner()": {
        "details": "Returns the address of the current owner."
      },
      "renounceOwnership()": {
        "details": "Leaves the contract without owner. It will not be possible to call `onlyOwner` functions anymore. Can only be called by the current owner. NOTE: Renouncing ownership will leave the contract without an owner, thereby removing any functionality that is only available to the owner."
      },
      "transferOwnership(address)": {
        "details": "Transfers ownership of the contract to a new account (`newOwner`). Can only be called by the current owner."
      }
    },
    "version": 1
  },
  "userdoc": {
    "kind": "user",
    "methods": {},
    "version": 1
  }
}