{
  "contractName": "myKittiesContract",
  "abi": [
    {
      "anonymous": false,
      "inputs": [
        {
          "indexed": true,
          "internalType": "address",
          "name": "owner",
          "type": "address"
        },
        {
          "indexed": true,
          "internalType": "address",
          "name": "approved",
          "type": "address"
        },
        {
          "indexed": true,
          "internalType": "uint256",
          "name": "tokenId",
          "type": "uint256"
        }
      ],
      "name": "Approval",
      "type": "event"
    },
    {
      "anonymous": false,
      "inputs": [
        {
          "indexed": true,
          "internalType": "address",
          "name": "owner",
          "type": "address"
        },
        {
          "indexed": true,
          "internalType": "address",
          "name": "operator",
          "type": "address"
        },
        {
          "indexed": false,
          "internalType": "bool",
          "name": "approved",
          "type": "bool"
        }
      ],
      "name": "ApprovalForAll",
      "type": "event"
    },
    {
      "anonymous": false,
      "inputs": [
        {
          "indexed": false,
          "internalType": "address",
          "name": "owner",
          "type": "address"
        },
        {
          "indexed": false,
          "internalType": "uint256",
          "name": "newKittenId",
          "type": "uint256"
        },
        {
          "indexed": false,
          "internalType": "uint256",
          "name": "mumId",
          "type": "uint256"
        },
        {
          "indexed": false,
          "internalType": "uint256",
          "name": "dadId",
          "type": "uint256"
        },
        {
          "indexed": false,
          "internalType": "uint256",
          "name": "genes",
          "type": "uint256"
        }
      ],
      "name": "Birth",
      "type": "event"
    },
    {
      "anonymous": false,
      "inputs": [
        {
          "indexed": true,
          "internalType": "address",
          "name": "previousOwner",
          "type": "address"
        },
        {
          "indexed": true,
          "internalType": "address",
          "name": "newOwner",
          "type": "address"
        }
      ],
      "name": "OwnershipTransferred",
      "type": "event"
    },
    {
      "anonymous": false,
      "inputs": [
        {
          "indexed": true,
          "internalType": "address",
          "name": "from",
          "type": "address"
        },
        {
          "indexed": true,
          "internalType": "address",
          "name": "to",
          "type": "address"
        },
        {
          "indexed": true,
          "internalType": "uint256",
          "name": "tokenId",
          "type": "uint256"
        }
      ],
      "name": "Transfer",
      "type": "event"
    },
    {
      "inputs": [],
      "name": "CREATION_LIMIT_GEN0",
      "outputs": [
        {
          "internalType": "uint256",
          "name": "",
          "type": "uint256"
        }
      ],
      "stateMutability": "view",
      "type": "function",
      "constant": true
    },
    {
      "inputs": [],
      "name": "gen0Counter",
      "outputs": [
        {
          "internalType": "uint256",
          "name": "",
          "type": "uint256"
        }
      ],
      "stateMutability": "view",
      "type": "function",
      "constant": true
    },
    {
      "inputs": [
        {
          "internalType": "uint256",
          "name": "",
          "type": "uint256"
        }
      ],
      "name": "kittyIndexToApproved",
      "outputs": [
        {
          "internalType": "address",
          "name": "",
          "type": "address"
        }
      ],
      "stateMutability": "view",
      "type": "function",
      "constant": true
    },
    {
      "inputs": [
        {
          "internalType": "uint256",
          "name": "",
          "type": "uint256"
        }
      ],
      "name": "kittyIndexToOwner",
      "outputs": [
        {
          "internalType": "address",
          "name": "",
          "type": "address"
        }
      ],
      "stateMutability": "view",
      "type": "function",
      "constant": true
    },
    {
      "inputs": [],
      "name": "owner",
      "outputs": [
        {
          "internalType": "address",
          "name": "",
          "type": "address"
        }
      ],
      "stateMutability": "view",
      "type": "function",
      "constant": true
    },
    {
      "inputs": [],
      "name": "renounceOwnership",
      "outputs": [],
      "stateMutability": "nonpayable",
      "type": "function"
    },
    {
      "inputs": [
        {
          "internalType": "address",
          "name": "newOwner",
          "type": "address"
        }
      ],
      "name": "transferOwnership",
      "outputs": [],
      "stateMutability": "nonpayable",
      "type": "function"
    },
    {
      "inputs": [
        {
          "internalType": "uint256",
          "name": "_dadId",
          "type": "uint256"
        },
        {
          "internalType": "uint256",
          "name": "_mumId",
          "type": "uint256"
        }
      ],
      "name": "breed",
      "outputs": [
        {
          "internalType": "uint256",
          "name": "",
          "type": "uint256"
        }
      ],
      "stateMutability": "nonpayable",
      "type": "function"
    },
    {
      "inputs": [
        {
          "internalType": "bytes4",
          "name": "_interfaceId",
          "type": "bytes4"
        }
      ],
      "name": "supportsInterface",
      "outputs": [
        {
          "internalType": "bool",
          "name": "",
          "type": "bool"
        }
      ],
      "stateMutability": "pure",
      "type": "function",
      "constant": true
    },
    {
      "inputs": [
        {
          "internalType": "uint256",
          "name": "_genes",
          "type": "uint256"
        }
      ],
      "name": "createKittyGen0",
      "outputs": [
        {
          "internalType": "uint256",
          "name": "",
          "type": "uint256"
        }
      ],
      "stateMutability": "nonpayable",
      "type": "function"
    },
    {
      "inputs": [
        {
          "internalType": "uint256",
          "name": "_mumId",
          "type": "uint256"
        },
        {
          "internalType": "uint256",
          "name": "_dadId",
          "type": "uint256"
        },
        {
          "internalType": "uint256",
          "name": "_generation",
          "type": "uint256"
        },
        {
          "internalType": "uint256",
          "name": "_genes",
          "type": "uint256"
        },
        {
          "internalType": "address",
          "name": "owner",
          "type": "address"
        }
      ],
      "name": "_createKitty",
      "outputs": [
        {
          "internalType": "uint256",
          "name": "",
          "type": "uint256"
        }
      ],
      "stateMutability": "nonpayable",
      "type": "function"
    },
    {
      "inputs": [
        {
          "internalType": "uint256",
          "name": "tokenId",
          "type": "uint256"
        }
      ],
      "name": "myGetKitty",
      "outputs": [
        {
          "internalType": "uint256",
          "name": "birthTime",
          "type": "uint256"
        },
        {
          "internalType": "uint256",
          "name": "mumId",
          "type": "uint256"
        },
        {
          "internalType": "uint256",
          "name": "dadId",
          "type": "uint256"
        },
        {
          "internalType": "uint256",
          "name": "generation",
          "type": "uint256"
        },
        {
          "internalType": "uint256",
          "name": "genes",
          "type": "uint256"
        }
      ],
      "stateMutability": "view",
      "type": "function",
      "constant": true
    },
    {
      "inputs": [
        {
          "internalType": "uint256",
          "name": "_id",
          "type": "uint256"
        }
      ],
      "name": "getKittyFilip",
      "outputs": [
        {
          "internalType": "uint256",
          "name": "birthTime",
          "type": "uint256"
        },
        {
          "internalType": "uint256",
          "name": "mumId",
          "type": "uint256"
        },
        {
          "internalType": "uint256",
          "name": "dadId",
          "type": "uint256"
        },
        {
          "internalType": "uint256",
          "name": "generation",
          "type": "uint256"
        },
        {
          "internalType": "uint256",
          "name": "genes",
          "type": "uint256"
        }
      ],
      "stateMutability": "view",
      "type": "function",
      "constant": true
    },
    {
      "inputs": [
        {
          "internalType": "address",
          "name": "owner",
          "type": "address"
        }
      ],
      "name": "getAllCatsFor",
      "outputs": [
        {
          "internalType": "uint256[]",
          "name": "",
          "type": "uint256[]"
        }
      ],
      "stateMutability": "view",
      "type": "function",
      "constant": true
    },
    {
      "inputs": [
        {
          "internalType": "address",
          "name": "owner",
          "type": "address"
        }
      ],
      "name": "balanceOf",
      "outputs": [
        {
          "internalType": "uint256",
          "name": "balance",
          "type": "uint256"
        }
      ],
      "stateMutability": "view",
      "type": "function",
      "constant": true
    },
    {
      "inputs": [],
      "name": "totalSupply",
      "outputs": [
        {
          "internalType": "uint256",
          "name": "total",
          "type": "uint256"
        }
      ],
      "stateMutability": "view",
      "type": "function",
      "constant": true
    },
    {
      "inputs": [],
      "name": "name",
      "outputs": [
        {
          "internalType": "string",
          "name": "tokenName",
          "type": "string"
        }
      ],
      "stateMutability": "pure",
      "type": "function",
      "constant": true
    },
    {
      "inputs": [],
      "name": "symbol",
      "outputs": [
        {
          "internalType": "string",
          "name": "tokenSymbol",
          "type": "string"
        }
      ],
      "stateMutability": "pure",
      "type": "function",
      "constant": true
    },
    {
      "inputs": [
        {
          "internalType": "uint256",
          "name": "tokenId",
          "type": "uint256"
        }
      ],
      "name": "ownerOf",
      "outputs": [
        {
          "internalType": "address",
          "name": "owner",
          "type": "address"
        }
      ],
      "stateMutability": "view",
      "type": "function",
      "constant": true
    },
    {
      "inputs": [
        {
          "internalType": "address",
          "name": "to",
          "type": "address"
        },
        {
          "internalType": "uint256",
          "name": "tokenId",
          "type": "uint256"
        }
      ],
      "name": "transfer",
      "outputs": [],
      "stateMutability": "nonpayable",
      "type": "function"
    },
    {
      "inputs": [
        {
          "internalType": "address",
          "name": "_approved",
          "type": "address"
        },
        {
          "internalType": "uint256",
          "name": "_tokenId",
          "type": "uint256"
        }
      ],
      "name": "approve",
      "outputs": [],
      "stateMutability": "nonpayable",
      "type": "function"
    },
    {
      "inputs": [
        {
          "internalType": "address",
          "name": "_operator",
          "type": "address"
        },
        {
          "internalType": "bool",
          "name": "_approved",
          "type": "bool"
        }
      ],
      "name": "setApprovalForAll",
      "outputs": [],
      "stateMutability": "nonpayable",
      "type": "function"
    },
    {
      "inputs": [
        {
          "internalType": "uint256",
          "name": "_tokenId",
          "type": "uint256"
        }
      ],
      "name": "getApproved",
      "outputs": [
        {
          "internalType": "address",
          "name": "",
          "type": "address"
        }
      ],
      "stateMutability": "view",
      "type": "function",
      "constant": true
    },
    {
      "inputs": [
        {
          "internalType": "address",
          "name": "_owner",
          "type": "address"
        },
        {
          "internalType": "address",
          "name": "_operator",
          "type": "address"
        }
      ],
      "name": "isApprovedForAll",
      "outputs": [
        {
          "internalType": "bool",
          "name": "",
          "type": "bool"
        }
      ],
      "stateMutability": "view",
      "type": "function",
      "constant": true
    },
    {
      "inputs": [
        {
          "internalType": "address",
          "name": "_from",
          "type": "address"
        },
        {
          "internalType": "address",
          "name": "_to",
          "type": "address"
        },
        {
          "internalType": "uint256",
          "name": "_tokenId",
          "type": "uint256"
        }
      ],
      "name": "safeTransferFrom",
      "outputs": [],
      "stateMutability": "nonpayable",
      "type": "function"
    },
    {
      "inputs": [
        {
          "internalType": "address",
          "name": "_from",
          "type": "address"
        },
        {
          "internalType": "address",
          "name": "_to",
          "type": "address"
        },
        {
          "internalType": "uint256",
          "name": "_tokenId",
          "type": "uint256"
        },
        {
          "internalType": "bytes",
          "name": "data",
          "type": "bytes"
        }
      ],
      "name": "safeTransferFrom",
      "outputs": [],
      "stateMutability": "nonpayable",
      "type": "function"
    },
    {
      "inputs": [
        {
          "internalType": "address",
          "name": "_from",
          "type": "address"
        },
        {
          "internalType": "address",
          "name": "_to",
          "type": "address"
        },
        {
          "internalType": "uint256",
          "name": "_tokenId",
          "type": "uint256"
        }
      ],
      "name": "transferFrom",
      "outputs": [],
      "stateMutability": "nonpayable",
      "type": "function"
    }
  ],
  "bytecode": "0x60806040523480156200001157600080fd5b5062000032620000266200003860201b60201c565b6200004060201b60201c565b62000104565b600033905090565b60008060009054906101000a900473ffffffffffffffffffffffffffffffffffffffff169050816000806101000a81548173ffffffffffffffffffffffffffffffffffffffff021916908373ffffffffffffffffffffffffffffffffffffffff1602179055508173ffffffffffffffffffffffffffffffffffffffff168173ffffffffffffffffffffffffffffffffffffffff167f8be0079c531659141344cd1fd0a4f28419497f9722a3daafe3b4186f6b6457e060405160405180910390a35050565b61306380620001146000396000f3fe608060405234801561001057600080fd5b50600436106101a95760003560e01c8063715018a6116100f9578063b483433011610097578063d9ecad7b11610071578063d9ecad7b1461050e578063e985e9c51461053e578063ef5e94aa1461056e578063f2fde38b1461058c576101a9565b8063b4834330146104a4578063b88d4fde146104c2578063d5a776ca146104de576101a9565b8063a090cb77116100d3578063a090cb7714610408578063a22cb4651461043c578063a45f4bfc14610458578063a9059cbb14610488576101a9565b8063715018a6146103c25780638da5cb5b146103cc57806395d89b41146103ea576101a9565b806323b872dd11610166578063481af3d311610140578063481af3d3146103025780635a64aafa146103325780636352211e1461036257806370a0823114610392576101a9565b806323b872dd1461029a578063338a63a4146102b657806342842e0e146102e6576101a9565b806301ffc9a7146101ae57806306fdde03146101de578063081812fc146101fc578063095ea7b31461022c5780630dd1c2e81461024857806318160ddd1461027c575b600080fd5b6101c860048036038101906101c39190612165565b6105a8565b6040516101d59190612691565b60405180910390f35b6101e6610648565b6040516101f391906126ac565b60405180910390f35b610216600480360381019061021191906121bf565b610685565b60405161022391906125b5565b60405180910390f35b61024660048036038101906102419190612125565b610709565b005b610262600480360381019061025d91906121bf565b610785565b6040516102739594939291906128a9565b60405180910390f35b61028461083b565b604051610291919061288e565b60405180910390f35b6102b460048036038101906102af919061200a565b610848565b005b6102d060048036038101906102cb919061222c565b6109b2565b6040516102dd919061288e565b60405180910390f35b61030060048036038101906102fb919061200a565b610b3f565b005b61031c600480360381019061031791906121bf565b610b4f565b60405161032991906125b5565b60405180910390f35b61034c60048036038101906103479190611f9d565b610b82565b604051610359919061266f565b60405180910390f35b61037c600480360381019061037791906121bf565b610c19565b60405161038991906125b5565b60405180910390f35b6103ac60048036038101906103a79190611f9d565b610ccb565b6040516103b9919061288e565b60405180910390f35b6103ca610d14565b005b6103d4610d9c565b6040516103e191906125b5565b60405180910390f35b6103f2610dc5565b6040516103ff91906126ac565b60405180910390f35b610422600480360381019061041d91906121bf565b610e02565b6040516104339594939291906128a9565b60405180910390f35b610456600480360381019061045191906120e5565b610eb8565b005b610472600480360381019061046d91906121bf565b611024565b60405161047f91906125b5565b60405180910390f35b6104a2600480360381019061049d9190612125565b611057565b005b6104ac611158565b6040516104b9919061288e565b60405180910390f35b6104dc60048036038101906104d7919061205d565b61115d565b005b6104f860048036038101906104f391906121bf565b6112cb565b604051610505919061288e565b60405180910390f35b610528600480360381019061052391906121ec565b6113bd565b604051610535919061288e565b60405180910390f35b61055860048036038101906105539190611fca565b6114d9565b6040516105659190612691565b60405180910390f35b61057661156d565b604051610583919061288e565b60405180910390f35b6105a660048036038101906105a19190611f9d565b611573565b005b60006380ac58cd60e01b7bffffffffffffffffffffffffffffffffffffffffffffffffffffffff1916827bffffffffffffffffffffffffffffffffffffffffffffffffffffffff1916148061064157506301ffc9a760e01b7bffffffffffffffffffffffffffffffffffffffffffffffffffffffff1916827bffffffffffffffffffffffffffffffffffffffffffffffffffffffff1916145b9050919050565b60606040518060400160405280600e81526020017f4d792043727970746f2043617473000000000000000000000000000000000000815250905090565b600060088054905082106106ce576040517f08c379a00000000000000000000000000000000000000000000000000000000081526004016106c5906127ce565b60405180910390fd5b6003600083815260200190815260200160002060009054906101000a900473ffffffffffffffffffffffffffffffffffffffff169050919050565b610713338261166b565b61071c57600080fd5b61072681836116d7565b808273ffffffffffffffffffffffffffffffffffffffff163373ffffffffffffffffffffffffffffffffffffffff167f8c5be1e5ebec7d5bd14f71427d1e84f3dd0314c0f7b2291e5b200ac8c7c3b92560405160405180910390a45050565b600080600080600080600887815481106107a2576107a1612c30565b5b906000526020600020906002020190508060000160009054906101000a900467ffffffffffffffff1667ffffffffffffffff1695508060000160089054906101000a900463ffffffff1663ffffffff16945080600001600c9054906101000a900463ffffffff1663ffffffff1693508060000160109054906101000a900461ffff1661ffff169250806001015491505091939590929450565b6000600880549050905090565b600073ffffffffffffffffffffffffffffffffffffffff168273ffffffffffffffffffffffffffffffffffffffff1614156108b8576040517f08c379a00000000000000000000000000000000000000000000000000000000081526004016108af9061270e565b60405180910390fd5b60088054905081106108ff576040517f08c379a00000000000000000000000000000000000000000000000000000000081526004016108f6906127ce565b60405180910390fd5b610909838261166b565b610948576040517f08c379a000000000000000000000000000000000000000000000000000000000815260040161093f9061284e565b60405180910390fd5b8273ffffffffffffffffffffffffffffffffffffffff163373ffffffffffffffffffffffffffffffffffffffff161480610988575061098783336114d9565b5b806109995750610998338261172d565b5b6109a257600080fd5b6109ad838383611799565b505050565b6000806040518060a001604052804267ffffffffffffffff1681526020018863ffffffff1681526020018763ffffffff1681526020018661ffff168152602001858152509050600881908060018154018082558091505060019003906000526020600020906002020160009091909190915060008201518160000160006101000a81548167ffffffffffffffff021916908367ffffffffffffffff16021790555060208201518160000160086101000a81548163ffffffff021916908363ffffffff160217905550604082015181600001600c6101000a81548163ffffffff021916908363ffffffff16021790555060608201518160000160106101000a81548161ffff021916908361ffff16021790555060808201518160010155505060006001600880549050610ae49190612a4e565b90507f0a5311bd2a6608f08a180df2ee7c5946819a649b204b554bb8e39825b2c50ad584828a8a89604051610b1d95949392919061261c565b60405180910390a1610b3160008583611799565b809250505095945050505050565b610b4a838383610b3f565b505050565b60036020528060005260406000206000915054906101000a900473ffffffffffffffffffffffffffffffffffffffff1681565b6060600560008373ffffffffffffffffffffffffffffffffffffffff1673ffffffffffffffffffffffffffffffffffffffff168152602001908152602001600020805480602002602001604051908101604052809291908181526020018280548015610c0d57602002820191906000526020600020905b815481526020019060010190808311610bf9575b50505050509050919050565b6000806001600084815260200190815260200160002060009054906101000a900473ffffffffffffffffffffffffffffffffffffffff169050600073ffffffffffffffffffffffffffffffffffffffff168173ffffffffffffffffffffffffffffffffffffffff161415610cc2576040517f08c379a0000000000000000000000000000000000000000000000000000000008152600401610cb9906127ee565b60405180910390fd5b80915050919050565b6000600260008373ffffffffffffffffffffffffffffffffffffffff1673ffffffffffffffffffffffffffffffffffffffff168152602001908152602001600020549050919050565b610d1c6119d4565b73ffffffffffffffffffffffffffffffffffffffff16610d3a610d9c565b73ffffffffffffffffffffffffffffffffffffffff1614610d90576040517f08c379a0000000000000000000000000000000000000000000000000000000008152600401610d879061280e565b60405180910390fd5b610d9a60006119dc565b565b60008060009054906101000a900473ffffffffffffffffffffffffffffffffffffffff16905090565b60606040518060400160405280600481526020017f4d43524300000000000000000000000000000000000000000000000000000000815250905090565b60008060008060008060088781548110610e1f57610e1e612c30565b5b906000526020600020906002020190508060000160009054906101000a900467ffffffffffffffff1667ffffffffffffffff168160000160089054906101000a900463ffffffff1663ffffffff1682600001600c9054906101000a900463ffffffff1663ffffffff168360000160109054906101000a900461ffff1661ffff168460010154955095509550955095505091939590929450565b3373ffffffffffffffffffffffffffffffffffffffff168273ffffffffffffffffffffffffffffffffffffffff161415610f27576040517f08c379a0000000000000000000000000000000000000000000000000000000008152600401610f1e9061286e565b60405180910390fd5b80600460003373ffffffffffffffffffffffffffffffffffffffff1673ffffffffffffffffffffffffffffffffffffffff16815260200190815260200160002060008473ffffffffffffffffffffffffffffffffffffffff1673ffffffffffffffffffffffffffffffffffffffff16815260200190815260200160002060006101000a81548160ff0219169083151502179055508173ffffffffffffffffffffffffffffffffffffffff163373ffffffffffffffffffffffffffffffffffffffff167f17307eab39ab6107e8899845ad3d59bd9653f200f220920489ca2b5937696c31836040516110189190612691565b60405180910390a35050565b60016020528060005260406000206000915054906101000a900473ffffffffffffffffffffffffffffffffffffffff1681565b600073ffffffffffffffffffffffffffffffffffffffff168273ffffffffffffffffffffffffffffffffffffffff1614156110c7576040517f08c379a00000000000000000000000000000000000000000000000000000000081526004016110be9061274e565b60405180910390fd5b3073ffffffffffffffffffffffffffffffffffffffff168273ffffffffffffffffffffffffffffffffffffffff161415611136576040517f08c379a000000000000000000000000000000000000000000000000000000000815260040161112d906126ee565b60405180910390fd5b611140338261166b565b61114957600080fd5b611154338383611799565b5050565b600a81565b600073ffffffffffffffffffffffffffffffffffffffff168473ffffffffffffffffffffffffffffffffffffffff1614156111cd576040517f08c379a00000000000000000000000000000000000000000000000000000000081526004016111c49061282e565b60405180910390fd5b6008805490508310611214576040517f08c379a000000000000000000000000000000000000000000000000000000000815260040161120b9061278e565b60405180910390fd5b61121e858461166b565b61125d576040517f08c379a00000000000000000000000000000000000000000000000000000000081526004016112549061276e565b60405180910390fd5b8473ffffffffffffffffffffffffffffffffffffffff163373ffffffffffffffffffffffffffffffffffffffff16148061129d575061129c85856114d9565b5b806112ae57506112ad338461172d565b5b6112b757600080fd5b6112c48585858585611aa0565b5050505050565b60006112d56119d4565b73ffffffffffffffffffffffffffffffffffffffff166112f3610d9c565b73ffffffffffffffffffffffffffffffffffffffff1614611349576040517f08c379a00000000000000000000000000000000000000000000000000000000081526004016113409061280e565b60405180910390fd5b600a600654111561138f576040517f08c379a00000000000000000000000000000000000000000000000000000000081526004016113869061272e565b60405180910390fd5b600660008154809291906113a290612b29565b91905055506113b6600080600085336109b2565b9050919050565b60006113c9338461166b565b80156113db57506113da338361166b565b5b61141a576040517f08c379a0000000000000000000000000000000000000000000000000000000008152600401611411906127ae565b60405180910390fd5b60008061142685610e02565b9450505050915060008061143986610e02565b9450505050915061144a8483611b0b565b60078190555060008184101561147d57600182611467919061296d565b905060028161147691906129c3565b90506114b9565b818411156114a857600184611492919061296d565b90506002816114a191906129c3565b90506114b8565b6001846114b5919061296d565b90505b5b6114c8878983600754336109b2565b506007549550505050505092915050565b6000600460008473ffffffffffffffffffffffffffffffffffffffff1673ffffffffffffffffffffffffffffffffffffffff16815260200190815260200160002060008373ffffffffffffffffffffffffffffffffffffffff1673ffffffffffffffffffffffffffffffffffffffff16815260200190815260200160002060009054906101000a900460ff16905092915050565b60065481565b61157b6119d4565b73ffffffffffffffffffffffffffffffffffffffff16611599610d9c565b73ffffffffffffffffffffffffffffffffffffffff16146115ef576040517f08c379a00000000000000000000000000000000000000000000000000000000081526004016115e69061280e565b60405180910390fd5b600073ffffffffffffffffffffffffffffffffffffffff168173ffffffffffffffffffffffffffffffffffffffff16141561165f576040517f08c379a0000000000000000000000000000000000000000000000000000000008152600401611656906126ce565b60405180910390fd5b611668816119dc565b50565b60008273ffffffffffffffffffffffffffffffffffffffff166001600084815260200190815260200160002060009054906101000a900473ffffffffffffffffffffffffffffffffffffffff1673ffffffffffffffffffffffffffffffffffffffff1614905092915050565b806003600084815260200190815260200160002060006101000a81548173ffffffffffffffffffffffffffffffffffffffff021916908373ffffffffffffffffffffffffffffffffffffffff1602179055505050565b60008273ffffffffffffffffffffffffffffffffffffffff166003600084815260200190815260200160002060009054906101000a900473ffffffffffffffffffffffffffffffffffffffff1673ffffffffffffffffffffffffffffffffffffffff1614905092915050565b6001600260008473ffffffffffffffffffffffffffffffffffffffff1673ffffffffffffffffffffffffffffffffffffffff16815260200190815260200160002060008282546117e9919061296d565b92505081905550816001600083815260200190815260200160002060006101000a81548173ffffffffffffffffffffffffffffffffffffffff021916908373ffffffffffffffffffffffffffffffffffffffff160217905550600560008373ffffffffffffffffffffffffffffffffffffffff1673ffffffffffffffffffffffffffffffffffffffff168152602001908152602001600020819080600181540180825580915050600190039060005260206000200160009091909190915055600073ffffffffffffffffffffffffffffffffffffffff168373ffffffffffffffffffffffffffffffffffffffff1614611974576001600260008573ffffffffffffffffffffffffffffffffffffffff1673ffffffffffffffffffffffffffffffffffffffff168152602001908152602001600020600082825461192c9190612a4e565b9250508190555061193d8382611b62565b6001600082815260200190815260200160002060006101000a81549073ffffffffffffffffffffffffffffffffffffffff02191690555b808273ffffffffffffffffffffffffffffffffffffffff163373ffffffffffffffffffffffffffffffffffffffff167fddf252ad1be2c89b69c2b068fc378daa952ba7f163c4a11628f55a4df523b3ef60405160405180910390a4505050565b600033905090565b60008060009054906101000a900473ffffffffffffffffffffffffffffffffffffffff169050816000806101000a81548173ffffffffffffffffffffffffffffffffffffffff021916908373ffffffffffffffffffffffffffffffffffffffff1602179055508173ffffffffffffffffffffffffffffffffffffffff168173ffffffffffffffffffffffffffffffffffffffff167f8be0079c531659141344cd1fd0a4f28419497f9722a3daafe3b4186f6b6457e060405160405180910390a35050565b611aab858585611799565b611afb85858585858080601f016020809104026020016040519081016040528093929190818152602001838380828437600081840152601f19601f82011690508083019250505050505050611dab565b611b0457600080fd5b5050505050565b6000806305f5e10084611b1e91906129c3565b905060006305f5e10084611b329190612b72565b9050806305f5e10083611b4591906129f4565b611b4f919061296d565b6007819055506007549250505092915050565b6000600560008473ffffffffffffffffffffffffffffffffffffffff1673ffffffffffffffffffffffffffffffffffffffff1681526020019081526020016000206001600560008673ffffffffffffffffffffffffffffffffffffffff1673ffffffffffffffffffffffffffffffffffffffff16815260200190815260200160002080549050611bf29190612a4e565b81548110611c0357611c02612c30565b5b9060005260206000200154905060005b6001600560008673ffffffffffffffffffffffffffffffffffffffff1673ffffffffffffffffffffffffffffffffffffffff16815260200190815260200160002080549050611c629190612a4e565b811015611da55782600560008673ffffffffffffffffffffffffffffffffffffffff1673ffffffffffffffffffffffffffffffffffffffff1681526020019081526020016000208281548110611cbb57611cba612c30565b5b90600052602060002001541415611d925781600560008673ffffffffffffffffffffffffffffffffffffffff1673ffffffffffffffffffffffffffffffffffffffff1681526020019081526020016000208281548110611d1e57611d1d612c30565b5b9060005260206000200181905550600560008573ffffffffffffffffffffffffffffffffffffffff1673ffffffffffffffffffffffffffffffffffffffff168152602001908152602001600020805480611d7b57611d7a612c01565b5b600190038181906000526020600020016000905590555b8080611d9d90612b29565b915050611c13565b50505050565b6000611db684611ec5565b611dc35760019050611ebd565b60008473ffffffffffffffffffffffffffffffffffffffff1663150b7a02338887876040518563ffffffff1660e01b8152600401611e0494939291906125d0565b602060405180830381600087803b158015611e1e57600080fd5b505af1158015611e32573d6000803e3d6000fd5b505050506040513d601f19601f82011682018060405250810190611e569190612192565b90507f150b7a023d4804d13e8c85fb27262cb750cf6ba9f9dd3bb30d90f482ceeb4b1f7bffffffffffffffffffffffffffffffffffffffffffffffffffffffff1916817bffffffffffffffffffffffffffffffffffffffffffffffffffffffff1916149150505b949350505050565b600080823b905060008163ffffffff1611915050919050565b600081359050611eed81612fd1565b92915050565b600081359050611f0281612fe8565b92915050565b600081359050611f1781612fff565b92915050565b600081519050611f2c81612fff565b92915050565b60008083601f840112611f4857611f47612c64565b5b8235905067ffffffffffffffff811115611f6557611f64612c5f565b5b602083019150836001820283011115611f8157611f80612c69565b5b9250929050565b600081359050611f9781613016565b92915050565b600060208284031215611fb357611fb2612c73565b5b6000611fc184828501611ede565b91505092915050565b60008060408385031215611fe157611fe0612c73565b5b6000611fef85828601611ede565b925050602061200085828601611ede565b9150509250929050565b60008060006060848603121561202357612022612c73565b5b600061203186828701611ede565b935050602061204286828701611ede565b925050604061205386828701611f88565b9150509250925092565b60008060008060006080868803121561207957612078612c73565b5b600061208788828901611ede565b955050602061209888828901611ede565b94505060406120a988828901611f88565b935050606086013567ffffffffffffffff8111156120ca576120c9612c6e565b5b6120d688828901611f32565b92509250509295509295909350565b600080604083850312156120fc576120fb612c73565b5b600061210a85828601611ede565b925050602061211b85828601611ef3565b9150509250929050565b6000806040838503121561213c5761213b612c73565b5b600061214a85828601611ede565b925050602061215b85828601611f88565b9150509250929050565b60006020828403121561217b5761217a612c73565b5b600061218984828501611f08565b91505092915050565b6000602082840312156121a8576121a7612c73565b5b60006121b684828501611f1d565b91505092915050565b6000602082840312156121d5576121d4612c73565b5b60006121e384828501611f88565b91505092915050565b6000806040838503121561220357612202612c73565b5b600061221185828601611f88565b925050602061222285828601611f88565b9150509250929050565b600080600080600060a0868803121561224857612247612c73565b5b600061225688828901611f88565b955050602061226788828901611f88565b945050604061227888828901611f88565b935050606061228988828901611f88565b925050608061229a88828901611ede565b9150509295509295909350565b60006122b38383612597565b60208301905092915050565b6122c881612a82565b82525050565b60006122d98261290c565b6122e3818561293a565b93506122ee836128fc565b8060005b8381101561231f57815161230688826122a7565b97506123118361292d565b9250506001810190506122f2565b5085935050505092915050565b61233581612a94565b82525050565b600061234682612917565b612350818561294b565b9350612360818560208601612af6565b61236981612c78565b840191505092915050565b600061237f82612922565b612389818561295c565b9350612399818560208601612af6565b6123a281612c78565b840191505092915050565b60006123ba60268361295c565b91506123c582612c89565b604082019050919050565b60006123dd601c8361295c565b91506123e882612cd8565b602082019050919050565b600061240060208361295c565b915061240b82612d01565b602082019050919050565b6000612423602e8361295c565b915061242e82612d2a565b604082019050919050565b600061244660248361295c565b915061245182612d79565b604082019050919050565b600061246960258361295c565b915061247482612dc8565b604082019050919050565b600061248c60148361295c565b915061249782612e17565b602082019050919050565b60006124af602a8361295c565b91506124ba82612e40565b604082019050919050565b60006124d260108361295c565b91506124dd82612e8f565b602082019050919050565b60006124f560298361295c565b915061250082612eb8565b604082019050919050565b600061251860208361295c565b915061252382612f07565b602082019050919050565b600061253b601d8361295c565b915061254682612f30565b602082019050919050565b600061255e60138361295c565b915061256982612f59565b602082019050919050565b600061258160308361295c565b915061258c82612f82565b604082019050919050565b6125a081612aec565b82525050565b6125af81612aec565b82525050565b60006020820190506125ca60008301846122bf565b92915050565b60006080820190506125e560008301876122bf565b6125f260208301866122bf565b6125ff60408301856125a6565b8181036060830152612611818461233b565b905095945050505050565b600060a08201905061263160008301886122bf565b61263e60208301876125a6565b61264b60408301866125a6565b61265860608301856125a6565b61266560808301846125a6565b9695505050505050565b6000602082019050818103600083015261268981846122ce565b905092915050565b60006020820190506126a6600083018461232c565b92915050565b600060208201905081810360008301526126c68184612374565b905092915050565b600060208201905081810360008301526126e7816123ad565b9050919050565b60006020820190508181036000830152612707816123d0565b9050919050565b60006020820190508181036000830152612727816123f3565b9050919050565b6000602082019050818103600083015261274781612416565b9050919050565b6000602082019050818103600083015261276781612439565b9050919050565b600060208201905081810360008301526127878161245c565b9050919050565b600060208201905081810360008301526127a78161247f565b9050919050565b600060208201905081810360008301526127c7816124a2565b9050919050565b600060208201905081810360008301526127e7816124c5565b9050919050565b60006020820190508181036000830152612807816124e8565b9050919050565b600060208201905081810360008301526128278161250b565b9050919050565b600060208201905081810360008301526128478161252e565b9050919050565b6000602082019050818103600083015261286781612551565b9050919050565b6000602082019050818103600083015261288781612574565b9050919050565b60006020820190506128a360008301846125a6565b92915050565b600060a0820190506128be60008301886125a6565b6128cb60208301876125a6565b6128d860408301866125a6565b6128e560608301856125a6565b6128f260808301846125a6565b9695505050505050565b6000819050602082019050919050565b600081519050919050565b600081519050919050565b600081519050919050565b6000602082019050919050565b600082825260208201905092915050565b600082825260208201905092915050565b600082825260208201905092915050565b600061297882612aec565b915061298383612aec565b9250827fffffffffffffffffffffffffffffffffffffffffffffffffffffffffffffffff038211156129b8576129b7612ba3565b5b828201905092915050565b60006129ce82612aec565b91506129d983612aec565b9250826129e9576129e8612bd2565b5b828204905092915050565b60006129ff82612aec565b9150612a0a83612aec565b9250817fffffffffffffffffffffffffffffffffffffffffffffffffffffffffffffffff0483118215151615612a4357612a42612ba3565b5b828202905092915050565b6000612a5982612aec565b9150612a6483612aec565b925082821015612a7757612a76612ba3565b5b828203905092915050565b6000612a8d82612acc565b9050919050565b60008115159050919050565b60007fffffffff0000000000000000000000000000000000000000000000000000000082169050919050565b600073ffffffffffffffffffffffffffffffffffffffff82169050919050565b6000819050919050565b60005b83811015612b14578082015181840152602081019050612af9565b83811115612b23576000848401525b50505050565b6000612b3482612aec565b91507fffffffffffffffffffffffffffffffffffffffffffffffffffffffffffffffff821415612b6757612b66612ba3565b5b600182019050919050565b6000612b7d82612aec565b9150612b8883612aec565b925082612b9857612b97612bd2565b5b828206905092915050565b7f4e487b7100000000000000000000000000000000000000000000000000000000600052601160045260246000fd5b7f4e487b7100000000000000000000000000000000000000000000000000000000600052601260045260246000fd5b7f4e487b7100000000000000000000000000000000000000000000000000000000600052603160045260246000fd5b7f4e487b7100000000000000000000000000000000000000000000000000000000600052603260045260246000fd5b600080fd5b600080fd5b600080fd5b600080fd5b600080fd5b6000601f19601f8301169050919050565b7f4f776e61626c653a206e6577206f776e657220697320746865207a65726f206160008201527f6464726573730000000000000000000000000000000000000000000000000000602082015250565b7f7472616e7366657220746f20746865207a65726f206164647265737300000000600082015250565b7f546f2061646472657373206973206e6f742061207a65726f2061646472657373600082015250565b7f47656e20302073686f756c64206265206c657373207468616e2063726561746960008201527f6f6e206c696d69742067656e2030000000000000000000000000000000000000602082015250565b7f4552433732313a207472616e7366657220746f20746865207a65726f2061646460008201527f7265737300000000000000000000000000000000000000000000000000000000602082015250565b7f4e6f7420612076616c6964204e46542c206e6f7420746865206f776e6572206f60008201527f66204e4654000000000000000000000000000000000000000000000000000000602082015250565b7f546f6b656e20646f6573206e6f74206578697374000000000000000000000000600082015250565b7f596f75206d75737420626520746865206f776e6572206f6620626f7468206f6660008201527f20796f7572206361747300000000000000000000000000000000000000000000602082015250565b7f546f6b656e206d75737420657869737400000000000000000000000000000000600082015250565b7f4552433732313a206f776e657220717565727920666f72206e6f6e657869737460008201527f656e7420746f6b656e0000000000000000000000000000000000000000000000602082015250565b7f4f776e61626c653a2063616c6c6572206973206e6f7420746865206f776e6572600082015250565b7f4d757374207472616e7366657220746f207a65726f2061646472657373000000600082015250565b7f46726f6d206f776e732074686520746f6b656e00000000000000000000000000600082015250565b7f4552433732313a20617070726f766520746f2063616c6c65722c20796f75206160008201527f7265206e6f7420746865206f776e657200000000000000000000000000000000602082015250565b612fda81612a82565b8114612fe557600080fd5b50565b612ff181612a94565b8114612ffc57600080fd5b50565b61300881612aa0565b811461301357600080fd5b50565b61301f81612aec565b811461302a57600080fd5b5056fea264697066735822122035b1e4060341d2b851c68b38cbc61bde1b794bf1a79fdbb639addb76813a00fa64736f6c63430008060033",
  "immutableReferences": {},
  "source": "// SPDX-License-Identifier: MIT\r\npragma solidity ^0.8.0;\r\n\r\n//import \"./IERC721.sol\";\r\nimport \"@openzeppelin/contracts/access/Ownable.sol\";\r\nimport \"@openzeppelin/contracts/token/ERC721/IERC721Receiver.sol\";\r\n\r\n\r\ncontract myKittiesContract is Ownable {\r\n\r\n  // Mapping from token ID to owner address\r\n  mapping(uint256 => address) public kittyIndexToOwner; //owners Of TokenId\r\n\r\n  // Mapping owner address to token count\r\n  mapping(address => uint256) ownershipTokenCount;\r\n\r\n  // Mapping from token ID to approved address\r\n  mapping(uint256 => address) public kittyIndexToApproved;\r\n\r\n  // MYADDR => OPERATOR => TRUE/FALSE\r\n  // _operatorApprovals[MYADDR][OPERATORADDR] = true or false;\r\n  // _operatorApprovals[MYADDR][BOBS_ADDR] = true;\r\n  // _operatorApprovals[MYADDR][ALICE_ADDR] = false;\r\n  // _operatorApprovals[MYADDR][LISA_ADDR] = true;\r\n\r\n  // Mapping from owner to operator approvals\r\n  mapping(address => mapping(address => bool)) private _operatorApprovals;\r\n\r\n  //an address to a number of cats in an array\r\n  mapping(address => uint256[]) ownerToCats;\r\n\r\n  bytes4 private constant _INTERFACE_TO_ERC721 = 0x80ac58cd;\r\n  bytes4 private constant _INTERFACE_TO_ERC165 = 0x01ffc9a7;\r\n\r\n  event Transfer(address indexed from, address indexed to, uint256 indexed tokenId);\r\n  event ApprovalForAll(address indexed owner, address indexed operator, bool approved);\r\n  event Approval(address indexed owner, address indexed approved, uint256 indexed tokenId);\r\n  event Birth(address owner, uint256 newKittenId, uint256 mumId, uint256 dadId, uint256 genes);\r\n\r\n  string constant _name = \"My Crypto Cats\";\r\n  string constant _symbol = \"MCRC\";\r\n  uint256 public constant CREATION_LIMIT_GEN0 = 10;\r\n  uint256 public gen0Counter;\r\n  uint256 newDna;\r\n  //uint256 public dadDna;\r\n  //uint256 public mumDna;\r\n\r\n  // 11 22 33 44 | 44 33 22 1 1\r\n\r\n  function breed(uint256 _dadId, uint256 _mumId) public returns (uint256) {\r\n    //Check ownership\r\n    //Use new DNA\r\n    //Figure out the Generation\r\n    //Create new cat with new properties, give it to msg.sender\r\n    require(_owns(msg.sender, _dadId) && _owns(msg.sender, _mumId), \"You must be the owner of both of your cats\");\r\n\r\n    (uint256 dadDna,,,,uint256 DadGeneration) = myGetKitty(_dadId);\r\n    (uint256 mumDna,,,,uint256 MumGeneration) = myGetKitty(_mumId);\r\n\r\n    newDna = _mixDna(dadDna, mumDna);\r\n\r\n    uint256 kittenGen = 0;\r\n    if (DadGeneration < MumGeneration) {\r\n      kittenGen = MumGeneration + 1;\r\n      kittenGen /= 2;\r\n    } else if (DadGeneration > MumGeneration) {\r\n      kittenGen = DadGeneration + 1;\r\n      kittenGen /= 2;\r\n    } else {\r\n      kittenGen = DadGeneration + 1;\r\n    }\r\n\r\n    _createKitty(_mumId, _dadId, kittenGen, newDna, msg.sender);\r\n\r\n    return newDna;\r\n   \r\n  }\r\n\r\n\r\n  function supportsInterface(bytes4 _interfaceId) external pure returns (bool) {\r\n    return(_interfaceId == _INTERFACE_TO_ERC721 || _interfaceId == _INTERFACE_TO_ERC165);\r\n  }\r\n\r\n\r\n  bytes4 internal constant MAGIC_ERC721_RECEIVED = bytes4(keccak256(\"onERC721Received(address,address,uint256,bytes)\"));\r\n\r\n  struct Kitty{\r\n    uint64 birthTime;\r\n    uint32 mumId;\r\n    uint32 dadId;\r\n    uint16 generation;\r\n    uint256 genes;\r\n  }\r\n\r\n\r\n  Kitty[] kitties;\r\n\r\n\r\n  function createKittyGen0(uint256 _genes) public onlyOwner returns (uint256){\r\n    require(gen0Counter <= CREATION_LIMIT_GEN0, \"Gen 0 should be less than creation limit gen 0\");\r\n    \r\n    gen0Counter ++;\r\n\r\n    // mum, dad and generation is 0\r\n    // Gen0 have no owners; they are owned by the contract\r\n    \r\n    return _createKitty(0,0,0, _genes, msg.sender); // msg.sender could also be -- address(this) - we are giving cats to owner\r\n  }\r\n\r\n\r\n  // create cats by generation and by breeding\r\n  // returns cat id\r\n  function _createKitty(\r\n    uint256 _mumId,\r\n    uint256 _dadId,\r\n    uint256 _generation, //1,2,3..etc\r\n    uint256 _genes, // recipient\r\n    address owner\r\n  ) public returns(uint256) {\r\n    Kitty memory newKitties = Kitty ({\r\n      genes: _genes,\r\n      birthTime: uint64(block.timestamp),\r\n      mumId: uint32(_mumId),\r\n      dadId: uint32(_dadId),\r\n      generation: uint16(_generation)\r\n    });\r\n\r\n    kitties.push(newKitties); // returns the size of array - 1 for the first cat\r\n\r\n    uint256 newKittenId = kitties.length -1; // 0-1\r\n\r\n    emit Birth(owner, newKittenId, _mumId, _dadId, _genes);\r\n\r\n    _transfer(address(0), owner, newKittenId);\r\n\r\n    return newKittenId; //returns 256 bit integer\r\n\r\n  }\r\n\r\n\r\n  function myGetKitty(uint256 tokenId) public view returns (\r\n    uint256 birthTime,\r\n    uint256 mumId,\r\n    uint256 dadId,\r\n    uint256 generation,\r\n    uint256 genes\r\n  ) {\r\n\r\n    Kitty storage returnKitty = kitties[tokenId];\r\n    return (uint256(returnKitty.birthTime), uint256(returnKitty.mumId), uint256(returnKitty.dadId), uint256(returnKitty.generation), uint256(returnKitty.genes));\r\n  }\r\n\r\n\r\n  function getKittyFilip(uint256 _id) public view returns (\r\n    uint256 birthTime,\r\n    uint256 mumId,\r\n    uint256 dadId,\r\n    uint256 generation,\r\n    uint256 genes\r\n  ) {\r\n\r\n    Kitty storage kitty = kitties[_id];\r\n    birthTime = uint256(kitty.birthTime);\r\n    mumId = uint256(kitty.mumId);\r\n    dadId = uint256(kitty.dadId);\r\n    generation = uint256(kitty.generation);\r\n    genes = uint256(kitty.genes);\r\n  }\r\n\r\n  //-------------------------------\r\n\r\n  function getAllCatsFor(address owner) public view returns (uint[] memory) {\r\n    return ownerToCats[owner];\r\n  }\r\n  \r\n\r\n  function balanceOf(address owner) public view returns (uint256 balance) {\r\n    return ownershipTokenCount[owner];\r\n  }\r\n\r\n\r\n  function totalSupply() public view returns (uint256 total) {\r\n    return kitties.length;\r\n  }\r\n\r\n\r\n  function name() external pure returns (string memory tokenName) {\r\n    return _name;\r\n  }\r\n\r\n\r\n  function symbol() external pure returns (string memory tokenSymbol) {\r\n    return _symbol;\r\n  }\r\n\r\n  // private functions are cheaper but public allows to execute function from within this contract\r\n  function ownerOf(uint256 tokenId) public view returns (address owner) {\r\n    address _owner = kittyIndexToOwner[tokenId]; // local variable \r\n    require(_owner != address(0), \"ERC721: owner query for nonexistent token\");\r\n\r\n    return _owner;\r\n  }\r\n\r\n\r\n  // this transfer function is not used -- the mint function might be better suited for minting NFTs\r\n  function transfer(address to, uint256 tokenId) external {\r\n    require(to != address(0), \"ERC721: transfer to the zero address\");\r\n    require(to != address(this), \"transfer to the zero address\");\r\n    // `tokenId` token must be owned by `msg.sender`.\r\n    require(_owns(msg.sender, tokenId));\r\n\r\n    _transfer(msg.sender, to, tokenId);\r\n\r\n  }\r\n\r\n\r\n  function approve(address _approved, uint256 _tokenId) public {\r\n    ///  Throws unless `msg.sender` is the current NFT owner, or an authorized\r\n    ///  operator of the current owner.\r\n    require(_owns(msg.sender, _tokenId));\r\n\r\n    _approve(_tokenId, _approved);\r\n    emit Approval(msg.sender, _approved, _tokenId);\r\n\r\n  }\r\n\r\n\r\n  function setApprovalForAll(address _operator, bool _approved) public {\r\n    require(_operator != msg.sender, \"ERC721: approve to caller, you are not the owner\");\r\n\r\n    _operatorApprovals[msg.sender][_operator] = _approved; \r\n    emit ApprovalForAll(msg.sender, _operator, _approved);\r\n\r\n  }\r\n\r\n\r\n  function getApproved(uint256 _tokenId) public view returns (address) {\r\n    require(_tokenId < kitties.length, \"Token must exist\"); // getter function\r\n\r\n    return kittyIndexToApproved[_tokenId];\r\n  }\r\n\r\n\r\n  function isApprovedForAll(address _owner, address _operator) public view returns (bool) {\r\n    return _operatorApprovals[_owner][_operator];\r\n  }\r\n\r\n\r\n  function safeTransferFrom(address _from, address _to, uint256 _tokenId) public {\r\n    safeTransferFrom(_from, _to, _tokenId);\r\n  }\r\n\r\n\r\n  function safeTransferFrom(address _from, address _to, uint256 _tokenId, bytes calldata data) external {\r\n    require(_to != address(0), \"Must transfer to zero address\");\r\n    require(_tokenId < kitties.length, \"Token does not exist\");\r\n    require(_owns(_from, _tokenId), \"Not a valid NFT, not the owner of NFT\");\r\n\r\n     //spender is _from (DEX) or spender is approved for tokenId or spender is operator for _from\r\n    require(msg.sender == _from || isApprovedForAll(_from, _to) || _approvedFor(msg.sender, _tokenId));\r\n\r\n    _safeTransfer(_from, _to, _tokenId, data);\r\n\r\n  }\r\n\r\n\r\n  function _safeTransfer(address _from, address _to, uint256 _tokenId, bytes calldata _data) internal {\r\n    _transfer(_from, _to, _tokenId);\r\n    require(_checkERC721Support(_from, _to, _tokenId, _data));\r\n  }\r\n\r\n\r\n  function transferFrom(address _from, address _to, uint256 _tokenId) external {\r\n    /// Throws if `_to` is the zero address. \r\n    /// Throws if `_tokenId` is not a valid NFT.\r\n\r\n    /// @dev Throws unless `msg.sender` is the current owner, an authorized\r\n    ///  operator, or the approved address for this NFT.\r\n     \r\n    require(_to != address(0), \"To address is not a zero address\");\r\n    require(_tokenId < kitties.length, \"Token must exist\");\r\n    require(_owns(_from, _tokenId), \"From owns the token\");\r\n    require(msg.sender == _from || isApprovedForAll(_from, msg.sender) || _approvedFor(msg.sender, _tokenId));\r\n\r\n    _transfer(_from, _to, _tokenId);\r\n  }\r\n\r\n  //Smart Contract Programmer(youTuber) ...\r\n  //transferFrom - how it is used:\r\n  //trader calls approve(dexAddress, amount)\r\n  //dex calls transferFrom(traderAddress, dexAddress, amount)\r\n\r\n  // must transfer from address 0\r\n  function _transfer(address from, address to, uint256 tokenId) internal {\r\n    //_approve(address(0), tokenId);\r\n\r\n    ownershipTokenCount[to] += 1; // increase count of recipient\r\n\r\n    kittyIndexToOwner[tokenId] = to;\r\n\r\n     // SEMD tokenId # => an address to a number of cats in an array\r\n     ownerToCats[to].push(tokenId);\r\n\r\n     // decrease token count from person A to person B\r\n     if (from != address(0)) { // if from is not address(0), is okay to remove token\r\n       ownershipTokenCount[from] -= 1;\r\n       _removeTokenIdFromOwner(from, tokenId);\r\n       delete kittyIndexToOwner[tokenId];\r\n     }\r\n\r\n     emit Transfer(msg.sender, to, tokenId);\r\n\r\n  }\r\n\r\n\r\n  function  _removeTokenIdFromOwner(address owner, uint256 tokenId) internal {\r\n    uint256 lastId = ownerToCats[owner][ownerToCats[owner].length -1];\r\n    for (uint256 i = 0; i < ownerToCats[owner].length -1; i++) {\r\n      if (ownerToCats[owner][i] == tokenId) {\r\n        ownerToCats[owner][i] = lastId;\r\n        ownerToCats[owner].pop();\r\n      }\r\n    }\r\n  }\r\n\r\n\r\n  function _owns(address _claimant, uint256 tokenId ) internal view returns(bool) {\r\n    return kittyIndexToOwner[tokenId] == _claimant;\r\n  }\r\n\r\n\r\n   function _approve(uint256 _tokenId, address _approved) internal {\r\n    kittyIndexToApproved[_tokenId] = _approved;\r\n  }\r\n\r\n\r\n  function _approvedFor(address _claimant, uint256 tokenId) internal view returns(bool) {\r\n    return kittyIndexToApproved[tokenId] == _claimant;\r\n  }\r\n\r\n\r\n  function _checkERC721Support(address _from, address _to, uint256 _tokenId, bytes memory _data) internal returns (bool) {\r\n    if(!isContract(_to)) { //checks if `_to` is a smart contract (code size > 0)\r\n      return true;\r\n    }\r\n    //example: Contract(_to)....\r\n    //If there is an operator, where _from is not equal to msg.sender, we use msg.sender.\r\n    bytes4 returnData = IERC721Receiver(_to).onERC721Received(msg.sender, _from, _tokenId, _data);\r\n    return returnData == MAGIC_ERC721_RECEIVED;\r\n    //Call onERC721Received in the _to contract\r\n    //Check return value\r\n  } \r\n\r\n\r\n  function isContract(address _to) internal view returns(bool) {\r\n    //It is a smart contract (code size > 0)\r\n    //If it is a wallet, code size = 0\r\n    uint32 size;\r\n    assembly{\r\n      size := extcodesize(_to)\r\n    }\r\n    return size > 0;\r\n  }\r\n\r\n  function _mixDna(uint256 _dadDna, uint256 _mumDna) private returns (uint256) {\r\n    //dadDna: 11 22 33 44 55 66 77 88 (in remix: remove spances => 1122334455667788)\r\n    //mumDna: 88 77 66 55 44 33 22 11 (8877665544332211)\r\n    uint256 firstHalf =  _dadDna / 100000000; // 11 22 33 44\r\n    uint256 secondHalf =  _mumDna % 100000000; // 44 33 22 11\r\n    \r\n    //uint256 newDna = firstHalf * 100000000;\r\n    //newDna = newDna + secondHalf;\r\n    // 10 and 20 concat\r\n    // 10 x 100 = 1000\r\n    // 1000 + 20 = 1020\r\n    \r\n    // my verion\r\n    newDna = ((firstHalf * 100000000) + secondHalf);\r\n  \r\n    return newDna;\r\n    // 11 22 33 44 | 44 33 22 1 1\r\n\r\n  }\r\n\r\n\r\n\r\n\r\n}",
  "sourcePath": "C:/Users/benX/Documents/ethereum_course_advanced/myCryptoKitties_master/contracts/kittiesContract.sol",
  "compiler": {
    "name": "solc",
    "version": "0.8.6+commit.11564f7e.Emscripten.clang"
  },
  "schemaVersion": "3.4.1",
  "updatedAt": "2021-07-18T23:34:59.945Z",
  "networkType": "ethereum",
  "devdoc": {
    "kind": "dev",
    "methods": {
      "owner()": {
        "details": "Returns the address of the current owner."
      },
      "renounceOwnership()": {
        "details": "Leaves the contract without owner. It will not be possible to call `onlyOwner` functions anymore. Can only be called by the current owner. NOTE: Renouncing ownership will leave the contract without an owner, thereby removing any functionality that is only available to the owner."
      },
      "transferOwnership(address)": {
        "details": "Transfers ownership of the contract to a new account (`newOwner`). Can only be called by the current owner."
      }
    },
    "version": 1
  },
  "userdoc": {
    "kind": "user",
    "methods": {},
    "version": 1
  }
}