{
  "contractName": "myKittiesContract",
  "abi": [
    {
      "anonymous": false,
      "inputs": [
        {
          "indexed": true,
          "internalType": "address",
          "name": "owner",
          "type": "address"
        },
        {
          "indexed": true,
          "internalType": "address",
          "name": "approved",
          "type": "address"
        },
        {
          "indexed": true,
          "internalType": "uint256",
          "name": "tokenId",
          "type": "uint256"
        }
      ],
      "name": "Approval",
      "type": "event"
    },
    {
      "anonymous": false,
      "inputs": [
        {
          "indexed": true,
          "internalType": "address",
          "name": "owner",
          "type": "address"
        },
        {
          "indexed": true,
          "internalType": "address",
          "name": "operator",
          "type": "address"
        },
        {
          "indexed": false,
          "internalType": "bool",
          "name": "approved",
          "type": "bool"
        }
      ],
      "name": "ApprovalForAll",
      "type": "event"
    },
    {
      "anonymous": false,
      "inputs": [
        {
          "indexed": false,
          "internalType": "address",
          "name": "owner",
          "type": "address"
        },
        {
          "indexed": false,
          "internalType": "uint256",
          "name": "newKittenId",
          "type": "uint256"
        },
        {
          "indexed": false,
          "internalType": "uint256",
          "name": "mumId",
          "type": "uint256"
        },
        {
          "indexed": false,
          "internalType": "uint256",
          "name": "dadId",
          "type": "uint256"
        },
        {
          "indexed": false,
          "internalType": "uint256",
          "name": "genes",
          "type": "uint256"
        }
      ],
      "name": "Birth",
      "type": "event"
    },
    {
      "anonymous": false,
      "inputs": [
        {
          "indexed": true,
          "internalType": "address",
          "name": "previousOwner",
          "type": "address"
        },
        {
          "indexed": true,
          "internalType": "address",
          "name": "newOwner",
          "type": "address"
        }
      ],
      "name": "OwnershipTransferred",
      "type": "event"
    },
    {
      "anonymous": false,
      "inputs": [
        {
          "indexed": true,
          "internalType": "address",
          "name": "from",
          "type": "address"
        },
        {
          "indexed": true,
          "internalType": "address",
          "name": "to",
          "type": "address"
        },
        {
          "indexed": true,
          "internalType": "uint256",
          "name": "tokenId",
          "type": "uint256"
        }
      ],
      "name": "Transfer",
      "type": "event"
    },
    {
      "inputs": [],
      "name": "CREATION_LIMIT_GEN0",
      "outputs": [
        {
          "internalType": "uint256",
          "name": "",
          "type": "uint256"
        }
      ],
      "stateMutability": "view",
      "type": "function",
      "constant": true
    },
    {
      "inputs": [],
      "name": "gen0Counter",
      "outputs": [
        {
          "internalType": "uint256",
          "name": "",
          "type": "uint256"
        }
      ],
      "stateMutability": "view",
      "type": "function",
      "constant": true
    },
    {
      "inputs": [
        {
          "internalType": "uint256",
          "name": "",
          "type": "uint256"
        }
      ],
      "name": "kittyIndexToApproved",
      "outputs": [
        {
          "internalType": "address",
          "name": "",
          "type": "address"
        }
      ],
      "stateMutability": "view",
      "type": "function",
      "constant": true
    },
    {
      "inputs": [
        {
          "internalType": "uint256",
          "name": "",
          "type": "uint256"
        }
      ],
      "name": "kittyIndexToOwner",
      "outputs": [
        {
          "internalType": "address",
          "name": "",
          "type": "address"
        }
      ],
      "stateMutability": "view",
      "type": "function",
      "constant": true
    },
    {
      "inputs": [],
      "name": "owner",
      "outputs": [
        {
          "internalType": "address",
          "name": "",
          "type": "address"
        }
      ],
      "stateMutability": "view",
      "type": "function",
      "constant": true
    },
    {
      "inputs": [],
      "name": "renounceOwnership",
      "outputs": [],
      "stateMutability": "nonpayable",
      "type": "function"
    },
    {
      "inputs": [
        {
          "internalType": "address",
          "name": "newOwner",
          "type": "address"
        }
      ],
      "name": "transferOwnership",
      "outputs": [],
      "stateMutability": "nonpayable",
      "type": "function"
    },
    {
      "inputs": [
        {
          "internalType": "uint256",
          "name": "_dadId",
          "type": "uint256"
        },
        {
          "internalType": "uint256",
          "name": "_mumId",
          "type": "uint256"
        }
      ],
      "name": "Breeding",
      "outputs": [],
      "stateMutability": "nonpayable",
      "type": "function"
    },
    {
      "inputs": [
        {
          "internalType": "bytes4",
          "name": "_interfaceId",
          "type": "bytes4"
        }
      ],
      "name": "supportsInterface",
      "outputs": [
        {
          "internalType": "bool",
          "name": "",
          "type": "bool"
        }
      ],
      "stateMutability": "pure",
      "type": "function",
      "constant": true
    },
    {
      "inputs": [
        {
          "internalType": "uint256",
          "name": "_genes",
          "type": "uint256"
        }
      ],
      "name": "createKittyGen0",
      "outputs": [
        {
          "internalType": "uint256",
          "name": "",
          "type": "uint256"
        }
      ],
      "stateMutability": "nonpayable",
      "type": "function"
    },
    {
      "inputs": [
        {
          "internalType": "uint256",
          "name": "tokenId",
          "type": "uint256"
        }
      ],
      "name": "myGetKitty",
      "outputs": [
        {
          "internalType": "uint256",
          "name": "birthTime",
          "type": "uint256"
        },
        {
          "internalType": "uint256",
          "name": "mumId",
          "type": "uint256"
        },
        {
          "internalType": "uint256",
          "name": "dadId",
          "type": "uint256"
        },
        {
          "internalType": "uint256",
          "name": "generation",
          "type": "uint256"
        },
        {
          "internalType": "uint256",
          "name": "genes",
          "type": "uint256"
        }
      ],
      "stateMutability": "view",
      "type": "function",
      "constant": true
    },
    {
      "inputs": [
        {
          "internalType": "uint256",
          "name": "_id",
          "type": "uint256"
        }
      ],
      "name": "getKitty",
      "outputs": [
        {
          "internalType": "uint256",
          "name": "genes",
          "type": "uint256"
        },
        {
          "internalType": "uint256",
          "name": "birthTime",
          "type": "uint256"
        },
        {
          "internalType": "uint256",
          "name": "mumId",
          "type": "uint256"
        },
        {
          "internalType": "uint256",
          "name": "dadId",
          "type": "uint256"
        },
        {
          "internalType": "uint256",
          "name": "generation",
          "type": "uint256"
        }
      ],
      "stateMutability": "view",
      "type": "function",
      "constant": true
    },
    {
      "inputs": [
        {
          "internalType": "address",
          "name": "owner",
          "type": "address"
        }
      ],
      "name": "getAllCatsFor",
      "outputs": [
        {
          "internalType": "uint256[]",
          "name": "",
          "type": "uint256[]"
        }
      ],
      "stateMutability": "view",
      "type": "function",
      "constant": true
    },
    {
      "inputs": [
        {
          "internalType": "address",
          "name": "owner",
          "type": "address"
        }
      ],
      "name": "balanceOf",
      "outputs": [
        {
          "internalType": "uint256",
          "name": "balance",
          "type": "uint256"
        }
      ],
      "stateMutability": "view",
      "type": "function",
      "constant": true
    },
    {
      "inputs": [],
      "name": "totalSupply",
      "outputs": [
        {
          "internalType": "uint256",
          "name": "total",
          "type": "uint256"
        }
      ],
      "stateMutability": "view",
      "type": "function",
      "constant": true
    },
    {
      "inputs": [],
      "name": "name",
      "outputs": [
        {
          "internalType": "string",
          "name": "tokenName",
          "type": "string"
        }
      ],
      "stateMutability": "pure",
      "type": "function",
      "constant": true
    },
    {
      "inputs": [],
      "name": "symbol",
      "outputs": [
        {
          "internalType": "string",
          "name": "tokenSymbol",
          "type": "string"
        }
      ],
      "stateMutability": "pure",
      "type": "function",
      "constant": true
    },
    {
      "inputs": [
        {
          "internalType": "uint256",
          "name": "tokenId",
          "type": "uint256"
        }
      ],
      "name": "ownerOf",
      "outputs": [
        {
          "internalType": "address",
          "name": "owner",
          "type": "address"
        }
      ],
      "stateMutability": "view",
      "type": "function",
      "constant": true
    },
    {
      "inputs": [
        {
          "internalType": "address",
          "name": "to",
          "type": "address"
        },
        {
          "internalType": "uint256",
          "name": "tokenId",
          "type": "uint256"
        }
      ],
      "name": "transfer",
      "outputs": [],
      "stateMutability": "nonpayable",
      "type": "function"
    },
    {
      "inputs": [
        {
          "internalType": "address",
          "name": "_approved",
          "type": "address"
        },
        {
          "internalType": "uint256",
          "name": "_tokenId",
          "type": "uint256"
        }
      ],
      "name": "approve",
      "outputs": [],
      "stateMutability": "nonpayable",
      "type": "function"
    },
    {
      "inputs": [
        {
          "internalType": "address",
          "name": "_operator",
          "type": "address"
        },
        {
          "internalType": "bool",
          "name": "_approved",
          "type": "bool"
        }
      ],
      "name": "setApprovalForAll",
      "outputs": [],
      "stateMutability": "nonpayable",
      "type": "function"
    },
    {
      "inputs": [
        {
          "internalType": "uint256",
          "name": "_tokenId",
          "type": "uint256"
        }
      ],
      "name": "getApproved",
      "outputs": [
        {
          "internalType": "address",
          "name": "",
          "type": "address"
        }
      ],
      "stateMutability": "view",
      "type": "function",
      "constant": true
    },
    {
      "inputs": [
        {
          "internalType": "address",
          "name": "_owner",
          "type": "address"
        },
        {
          "internalType": "address",
          "name": "_operator",
          "type": "address"
        }
      ],
      "name": "isApprovedForAll",
      "outputs": [
        {
          "internalType": "bool",
          "name": "",
          "type": "bool"
        }
      ],
      "stateMutability": "view",
      "type": "function",
      "constant": true
    },
    {
      "inputs": [
        {
          "internalType": "address",
          "name": "_from",
          "type": "address"
        },
        {
          "internalType": "address",
          "name": "_to",
          "type": "address"
        },
        {
          "internalType": "uint256",
          "name": "_tokenId",
          "type": "uint256"
        }
      ],
      "name": "safeTransferFrom",
      "outputs": [],
      "stateMutability": "nonpayable",
      "type": "function"
    },
    {
      "inputs": [
        {
          "internalType": "address",
          "name": "_from",
          "type": "address"
        },
        {
          "internalType": "address",
          "name": "_to",
          "type": "address"
        },
        {
          "internalType": "uint256",
          "name": "_tokenId",
          "type": "uint256"
        },
        {
          "internalType": "bytes",
          "name": "data",
          "type": "bytes"
        }
      ],
      "name": "safeTransferFrom",
      "outputs": [],
      "stateMutability": "nonpayable",
      "type": "function"
    },
    {
      "inputs": [
        {
          "internalType": "address",
          "name": "user",
          "type": "address"
        }
      ],
      "name": "getAllTokensForUser",
      "outputs": [
        {
          "internalType": "uint256[]",
          "name": "",
          "type": "uint256[]"
        }
      ],
      "stateMutability": "view",
      "type": "function",
      "constant": true
    },
    {
      "inputs": [
        {
          "internalType": "address",
          "name": "_owner",
          "type": "address"
        }
      ],
      "name": "tokensOfOwner",
      "outputs": [
        {
          "internalType": "uint256[]",
          "name": "ownerTokens",
          "type": "uint256[]"
        }
      ],
      "stateMutability": "view",
      "type": "function",
      "constant": true
    },
    {
      "inputs": [
        {
          "internalType": "address",
          "name": "_from",
          "type": "address"
        },
        {
          "internalType": "address",
          "name": "_to",
          "type": "address"
        },
        {
          "internalType": "uint256",
          "name": "_tokenId",
          "type": "uint256"
        }
      ],
      "name": "transferFrom",
      "outputs": [],
      "stateMutability": "nonpayable",
      "type": "function"
    }
  ],
  "bytecode": "0x608060405260006007553480156200001657600080fd5b50620000376200002b6200003d60201b60201c565b6200004560201b60201c565b62000109565b600033905090565b60008060009054906101000a900473ffffffffffffffffffffffffffffffffffffffff169050816000806101000a81548173ffffffffffffffffffffffffffffffffffffffff021916908373ffffffffffffffffffffffffffffffffffffffff1602179055508173ffffffffffffffffffffffffffffffffffffffff168173ffffffffffffffffffffffffffffffffffffffff167f8be0079c531659141344cd1fd0a4f28419497f9722a3daafe3b4186f6b6457e060405160405180910390a35050565b61363880620001196000396000f3fe608060405234801561001057600080fd5b50600436106101c45760003560e01c80638da5cb5b116100f9578063b88d4fde11610097578063e985e9c511610071578063e985e9c514610541578063e98b7f4d14610571578063ef5e94aa146105a5578063f2fde38b146105c3576101c4565b8063b88d4fde146104d9578063b921a400146104f5578063d5a776ca14610511576101c4565b8063a22cb465116100d3578063a22cb46514610453578063a45f4bfc1461046f578063a9059cbb1461049f578063b4834330146104bb576101c4565b80638da5cb5b146103e357806395d89b4114610401578063a090cb771461041f576101c4565b8063481af3d31161016657806370a082311161014057806370a0823114610349578063715018a61461037957806382de8fe9146103835780638462151c146103b3576101c4565b8063481af3d3146102b95780635a64aafa146102e95780636352211e14610319576101c4565b8063095ea7b3116101a2578063095ea7b31461024757806318160ddd1461026357806323b872dd1461028157806342842e0e1461029d576101c4565b806301ffc9a7146101c957806306fdde03146101f9578063081812fc14610217575b600080fd5b6101e360048036038101906101de9190612670565b6105df565b6040516101f09190612b67565b60405180910390f35b61020161067f565b60405161020e9190612b82565b60405180910390f35b610231600480360381019061022c91906126ca565b6106bc565b60405161023e9190612a8b565b60405180910390f35b610261600480360381019061025c9190612630565b610740565b005b61026b6107bc565b6040516102789190612da4565b60405180910390f35b61029b60048036038101906102969190612515565b6107c9565b005b6102b760048036038101906102b29190612515565b610933565b005b6102d360048036038101906102ce91906126ca565b610943565b6040516102e09190612a8b565b60405180910390f35b61030360048036038101906102fe91906124a8565b610976565b6040516103109190612b45565b60405180910390f35b610333600480360381019061032e91906126ca565b610a0d565b6040516103409190612a8b565b60405180910390f35b610363600480360381019061035e91906124a8565b610abf565b6040516103709190612da4565b60405180910390f35b610381610b08565b005b61039d600480360381019061039891906124a8565b610b90565b6040516103aa9190612b45565b60405180910390f35b6103cd60048036038101906103c891906124a8565b610cea565b6040516103da9190612b45565b60405180910390f35b6103eb610e73565b6040516103f89190612a8b565b60405180910390f35b610409610e9c565b6040516104169190612b82565b60405180910390f35b610439600480360381019061043491906126ca565b610ed9565b60405161044a959493929190612dbf565b60405180910390f35b61046d600480360381019061046891906125f0565b610f8f565b005b610489600480360381019061048491906126ca565b6110fb565b6040516104969190612a8b565b60405180910390f35b6104b960048036038101906104b49190612630565b61112e565b005b6104c361122f565b6040516104d09190612da4565b60405180910390f35b6104f360048036038101906104ee9190612568565b611234565b005b61050f600480360381019061050a91906126f7565b6113a2565b005b61052b600480360381019061052691906126ca565b611666565b6040516105389190612da4565b60405180910390f35b61055b600480360381019061055691906124d5565b611758565b6040516105689190612b67565b60405180910390f35b61058b600480360381019061058691906126ca565b6117ec565b60405161059c959493929190612dbf565b60405180910390f35b6105ad611907565b6040516105ba9190612da4565b60405180910390f35b6105dd60048036038101906105d891906124a8565b61190d565b005b60006380ac58cd60e01b7bffffffffffffffffffffffffffffffffffffffffffffffffffffffff1916827bffffffffffffffffffffffffffffffffffffffffffffffffffffffff1916148061067857506301ffc9a760e01b7bffffffffffffffffffffffffffffffffffffffffffffffffffffffff1916827bffffffffffffffffffffffffffffffffffffffffffffffffffffffff1916145b9050919050565b60606040518060400160405280600e81526020017f4d792043727970746f2043617473000000000000000000000000000000000000815250905090565b60006008805490508210610705576040517f08c379a00000000000000000000000000000000000000000000000000000000081526004016106fc90612ca4565b60405180910390fd5b6003600083815260200190815260200160002060009054906101000a900473ffffffffffffffffffffffffffffffffffffffff169050919050565b61074a3382611a05565b61075357600080fd5b61075d8183611a71565b808273ffffffffffffffffffffffffffffffffffffffff163373ffffffffffffffffffffffffffffffffffffffff167f8c5be1e5ebec7d5bd14f71427d1e84f3dd0314c0f7b2291e5b200ac8c7c3b92560405160405180910390a45050565b6000600880549050905090565b600073ffffffffffffffffffffffffffffffffffffffff168273ffffffffffffffffffffffffffffffffffffffff161415610839576040517f08c379a000000000000000000000000000000000000000000000000000000000815260040161083090612be4565b60405180910390fd5b6008805490508110610880576040517f08c379a000000000000000000000000000000000000000000000000000000000815260040161087790612ca4565b60405180910390fd5b61088a8382611a05565b6108c9576040517f08c379a00000000000000000000000000000000000000000000000000000000081526004016108c090612d44565b60405180910390fd5b8273ffffffffffffffffffffffffffffffffffffffff163373ffffffffffffffffffffffffffffffffffffffff16148061090957506109088333611758565b5b8061091a57506109193382611ac7565b5b61092357600080fd5b61092e838383611b33565b505050565b61093e838383610933565b505050565b60036020528060005260406000206000915054906101000a900473ffffffffffffffffffffffffffffffffffffffff1681565b6060600560008373ffffffffffffffffffffffffffffffffffffffff1673ffffffffffffffffffffffffffffffffffffffff168152602001908152602001600020805480602002602001604051908101604052809291908181526020018280548015610a0157602002820191906000526020600020905b8154815260200190600101908083116109ed575b50505050509050919050565b6000806001600084815260200190815260200160002060009054906101000a900473ffffffffffffffffffffffffffffffffffffffff169050600073ffffffffffffffffffffffffffffffffffffffff168173ffffffffffffffffffffffffffffffffffffffff161415610ab6576040517f08c379a0000000000000000000000000000000000000000000000000000000008152600401610aad90612cc4565b60405180910390fd5b80915050919050565b6000600260008373ffffffffffffffffffffffffffffffffffffffff1673ffffffffffffffffffffffffffffffffffffffff168152602001908152602001600020549050919050565b610b10611d6e565b73ffffffffffffffffffffffffffffffffffffffff16610b2e610e73565b73ffffffffffffffffffffffffffffffffffffffff1614610b84576040517f08c379a0000000000000000000000000000000000000000000000000000000008152600401610b7b90612ce4565b60405180910390fd5b610b8e6000611d76565b565b60606000610b9d83610abf565b90506000811415610bfa57600067ffffffffffffffff811115610bc357610bc26131b3565b5b604051908082528060200260200182016040528015610bf15781602001602082028036833780820191505090505b50915050610ce5565b60008167ffffffffffffffff811115610c1657610c156131b3565b5b604051908082528060200260200182016040528015610c445781602001602082028036833780820191505090505b50905060006007549050600080600090505b82811015610cdc578673ffffffffffffffffffffffffffffffffffffffff16610c7e82610a0d565b73ffffffffffffffffffffffffffffffffffffffff161415610cc95780848381518110610cae57610cad613184565b5b6020026020010181815250508180610cc59061304c565b9250505b8080610cd49061304c565b915050610c56565b83955050505050505b919050565b60606000610cf783610abf565b90506000811415610d5457600067ffffffffffffffff811115610d1d57610d1c6131b3565b5b604051908082528060200260200182016040528015610d4b5781602001602082028036833780820191505090505b50915050610e6e565b60008167ffffffffffffffff811115610d7057610d6f6131b3565b5b604051908082528060200260200182016040528015610d9e5781602001602082028036833780820191505090505b5090506000610dab6107bc565b9050600080600190505b828111610e65578673ffffffffffffffffffffffffffffffffffffffff166001600083815260200190815260200160002060009054906101000a900473ffffffffffffffffffffffffffffffffffffffff1673ffffffffffffffffffffffffffffffffffffffff161415610e525780848381518110610e3757610e36613184565b5b6020026020010181815250508180610e4e9061304c565b9250505b8080610e5d9061304c565b915050610db5565b83955050505050505b919050565b60008060009054906101000a900473ffffffffffffffffffffffffffffffffffffffff16905090565b60606040518060400160405280600481526020017f4d43524300000000000000000000000000000000000000000000000000000000815250905090565b60008060008060008060088781548110610ef657610ef5613184565b5b906000526020600020906002020190508060010160009054906101000a900467ffffffffffffffff1667ffffffffffffffff168160010160089054906101000a900463ffffffff1663ffffffff1682600101600c9054906101000a900463ffffffff1663ffffffff168360010160109054906101000a900461ffff1661ffff168460000154955095509550955095505091939590929450565b3373ffffffffffffffffffffffffffffffffffffffff168273ffffffffffffffffffffffffffffffffffffffff161415610ffe576040517f08c379a0000000000000000000000000000000000000000000000000000000008152600401610ff590612d64565b60405180910390fd5b80600460003373ffffffffffffffffffffffffffffffffffffffff1673ffffffffffffffffffffffffffffffffffffffff16815260200190815260200160002060008473ffffffffffffffffffffffffffffffffffffffff1673ffffffffffffffffffffffffffffffffffffffff16815260200190815260200160002060006101000a81548160ff0219169083151502179055508173ffffffffffffffffffffffffffffffffffffffff163373ffffffffffffffffffffffffffffffffffffffff167f17307eab39ab6107e8899845ad3d59bd9653f200f220920489ca2b5937696c31836040516110ef9190612b67565b60405180910390a35050565b60016020528060005260406000206000915054906101000a900473ffffffffffffffffffffffffffffffffffffffff1681565b600073ffffffffffffffffffffffffffffffffffffffff168273ffffffffffffffffffffffffffffffffffffffff16141561119e576040517f08c379a000000000000000000000000000000000000000000000000000000000815260040161119590612c24565b60405180910390fd5b3073ffffffffffffffffffffffffffffffffffffffff168273ffffffffffffffffffffffffffffffffffffffff16141561120d576040517f08c379a000000000000000000000000000000000000000000000000000000000815260040161120490612bc4565b60405180910390fd5b6112173382611a05565b61122057600080fd5b61122b338383611b33565b5050565b600a81565b600073ffffffffffffffffffffffffffffffffffffffff168473ffffffffffffffffffffffffffffffffffffffff1614156112a4576040517f08c379a000000000000000000000000000000000000000000000000000000000815260040161129b90612d04565b60405180910390fd5b60088054905083106112eb576040517f08c379a00000000000000000000000000000000000000000000000000000000081526004016112e290612c64565b60405180910390fd5b6112f58584611a05565b611334576040517f08c379a000000000000000000000000000000000000000000000000000000000815260040161132b90612c44565b60405180910390fd5b8473ffffffffffffffffffffffffffffffffffffffff163373ffffffffffffffffffffffffffffffffffffffff16148061137457506113738585611758565b5b8061138557506113843384611ac7565b5b61138e57600080fd5b61139b8585858585611e3a565b5050505050565b6113ac3383611a05565b80156113be57506113bd3382611a05565b5b6113fd576040517f08c379a00000000000000000000000000000000000000000000000000000000081526004016113f490612c84565b60405180910390fd5b81811415611440576040517f08c379a000000000000000000000000000000000000000000000000000000000815260040161143790612d24565b60405180910390fd5b60008061144c846117ec565b9450505050915060008061145f856117ec565b9450505050915060006114706123c6565b600060079050600060ff426114859190613095565b90506000600190505b60808111611542576000818360ff1616146114d4576064876114b09190613095565b60ff168484600881106114c6576114c5613184565b5b602002018181525050611501565b6064896114e19190613095565b60ff168484600881106114f7576114f6613184565b5b6020020181815250505b60648761150e9190612ed9565b965060648961151d9190612ed9565b985060018361152c9190612f64565b925060028161153b9190612f0a565b905061148e565b600060078361155191906130c6565b905060638361156091906130c6565b60ff16858260ff166008811061157957611578613184565b5b602002018181525050600091505b60088210156115e0578482600881106115a3576115a2613184565b5b6020020151866115b39190612e83565b9550600782146115cd576064866115ca9190612f0a565b95505b81806115d89061304c565b925050611587565b6000878a101561160d576001886115f79190612e83565b90506002816116069190612ed9565b9050611649565b878a11156116385760018a6116229190612e83565b90506002816116319190612ed9565b9050611648565b6001886116459190612e83565b90505b5b6116568c8e838a33611ea5565b5050505050505050505050505050565b6000611670611d6e565b73ffffffffffffffffffffffffffffffffffffffff1661168e610e73565b73ffffffffffffffffffffffffffffffffffffffff16146116e4576040517f08c379a00000000000000000000000000000000000000000000000000000000081526004016116db90612ce4565b60405180910390fd5b600a600654111561172a576040517f08c379a000000000000000000000000000000000000000000000000000000000815260040161172190612c04565b60405180910390fd5b6006600081548092919061173d9061304c565b919050555061175160008060008533611ea5565b9050919050565b6000600460008473ffffffffffffffffffffffffffffffffffffffff1673ffffffffffffffffffffffffffffffffffffffff16815260200190815260200160002060008373ffffffffffffffffffffffffffffffffffffffff1673ffffffffffffffffffffffffffffffffffffffff16815260200190815260200160002060009054906101000a900460ff16905092915050565b6000806000806000806008878154811061180957611808613184565b5b9060005260206000209060020201905060008160010160009054906101000a900467ffffffffffffffff1667ffffffffffffffff161161187e576040517f08c379a000000000000000000000000000000000000000000000000000000000815260040161187590612d84565b60405180910390fd5b8060010160009054906101000a900467ffffffffffffffff1667ffffffffffffffff1694508060010160089054906101000a900463ffffffff1663ffffffff16935080600101600c9054906101000a900463ffffffff1663ffffffff1692508060010160109054906101000a900461ffff1661ffff169150806000015495505091939590929450565b60065481565b611915611d6e565b73ffffffffffffffffffffffffffffffffffffffff16611933610e73565b73ffffffffffffffffffffffffffffffffffffffff1614611989576040517f08c379a000000000000000000000000000000000000000000000000000000000815260040161198090612ce4565b60405180910390fd5b600073ffffffffffffffffffffffffffffffffffffffff168173ffffffffffffffffffffffffffffffffffffffff1614156119f9576040517f08c379a00000000000000000000000000000000000000000000000000000000081526004016119f090612ba4565b60405180910390fd5b611a0281611d76565b50565b60008273ffffffffffffffffffffffffffffffffffffffff166001600084815260200190815260200160002060009054906101000a900473ffffffffffffffffffffffffffffffffffffffff1673ffffffffffffffffffffffffffffffffffffffff1614905092915050565b806003600084815260200190815260200160002060006101000a81548173ffffffffffffffffffffffffffffffffffffffff021916908373ffffffffffffffffffffffffffffffffffffffff1602179055505050565b60008273ffffffffffffffffffffffffffffffffffffffff166003600084815260200190815260200160002060009054906101000a900473ffffffffffffffffffffffffffffffffffffffff1673ffffffffffffffffffffffffffffffffffffffff1614905092915050565b6001600260008473ffffffffffffffffffffffffffffffffffffffff1673ffffffffffffffffffffffffffffffffffffffff1681526020019081526020016000206000828254611b839190612e83565b92505081905550816001600083815260200190815260200160002060006101000a81548173ffffffffffffffffffffffffffffffffffffffff021916908373ffffffffffffffffffffffffffffffffffffffff160217905550600560008373ffffffffffffffffffffffffffffffffffffffff1673ffffffffffffffffffffffffffffffffffffffff168152602001908152602001600020819080600181540180825580915050600190039060005260206000200160009091909190915055600073ffffffffffffffffffffffffffffffffffffffff168373ffffffffffffffffffffffffffffffffffffffff1614611d0e576001600260008573ffffffffffffffffffffffffffffffffffffffff1673ffffffffffffffffffffffffffffffffffffffff1681526020019081526020016000206000828254611cc69190612f64565b92505081905550611cd7838261204a565b6001600082815260200190815260200160002060006101000a81549073ffffffffffffffffffffffffffffffffffffffff02191690555b808273ffffffffffffffffffffffffffffffffffffffff163373ffffffffffffffffffffffffffffffffffffffff167fddf252ad1be2c89b69c2b068fc378daa952ba7f163c4a11628f55a4df523b3ef60405160405180910390a4505050565b600033905090565b60008060009054906101000a900473ffffffffffffffffffffffffffffffffffffffff169050816000806101000a81548173ffffffffffffffffffffffffffffffffffffffff021916908373ffffffffffffffffffffffffffffffffffffffff1602179055508173ffffffffffffffffffffffffffffffffffffffff168173ffffffffffffffffffffffffffffffffffffffff167f8be0079c531659141344cd1fd0a4f28419497f9722a3daafe3b4186f6b6457e060405160405180910390a35050565b611e45858585611b33565b611e9585858585858080601f016020809104026020016040519081016040528093929190818152602001838380828437600081840152601f19601f82011690508083019250505050505050612293565b611e9e57600080fd5b5050505050565b6000806040518060a001604052808581526020014267ffffffffffffffff1681526020018863ffffffff1681526020018763ffffffff1681526020018661ffff16815250905060088190806001815401808255809150506001900390600052602060002090600202016000909190919091506000820151816000015560208201518160010160006101000a81548167ffffffffffffffff021916908367ffffffffffffffff16021790555060408201518160010160086101000a81548163ffffffff021916908363ffffffff160217905550606082015181600101600c6101000a81548163ffffffff021916908363ffffffff16021790555060808201518160010160106101000a81548161ffff021916908361ffff160217905550505060006001600880549050611fd79190612f64565b90507f0a5311bd2a6608f08a180df2ee7c5946819a649b204b554bb8e39825b2c50ad58482846040015163ffffffff16856060015163ffffffff168660000151604051612028959493929190612af2565b60405180910390a161203c60008583611b33565b809250505095945050505050565b6000600560008473ffffffffffffffffffffffffffffffffffffffff1673ffffffffffffffffffffffffffffffffffffffff1681526020019081526020016000206001600560008673ffffffffffffffffffffffffffffffffffffffff1673ffffffffffffffffffffffffffffffffffffffff168152602001908152602001600020805490506120da9190612f64565b815481106120eb576120ea613184565b5b9060005260206000200154905060005b6001600560008673ffffffffffffffffffffffffffffffffffffffff1673ffffffffffffffffffffffffffffffffffffffff1681526020019081526020016000208054905061214a9190612f64565b81101561228d5782600560008673ffffffffffffffffffffffffffffffffffffffff1673ffffffffffffffffffffffffffffffffffffffff16815260200190815260200160002082815481106121a3576121a2613184565b5b9060005260206000200154141561227a5781600560008673ffffffffffffffffffffffffffffffffffffffff1673ffffffffffffffffffffffffffffffffffffffff168152602001908152602001600020828154811061220657612205613184565b5b9060005260206000200181905550600560008573ffffffffffffffffffffffffffffffffffffffff1673ffffffffffffffffffffffffffffffffffffffff16815260200190815260200160002080548061226357612262613155565b5b600190038181906000526020600020016000905590555b80806122859061304c565b9150506120fb565b50505050565b600061229e846123ad565b6122ab57600190506123a5565b60008473ffffffffffffffffffffffffffffffffffffffff1663150b7a02338887876040518563ffffffff1660e01b81526004016122ec9493929190612aa6565b602060405180830381600087803b15801561230657600080fd5b505af115801561231a573d6000803e3d6000fd5b505050506040513d601f19601f8201168201806040525081019061233e919061269d565b90507f150b7a023d4804d13e8c85fb27262cb750cf6ba9f9dd3bb30d90f482ceeb4b1f7bffffffffffffffffffffffffffffffffffffffffffffffffffffffff1916817bffffffffffffffffffffffffffffffffffffffffffffffffffffffff1916149150505b949350505050565b600080823b905060008163ffffffff1611915050919050565b604051806101000160405280600890602082028036833780820191505090505090565b6000813590506123f8816135a6565b92915050565b60008135905061240d816135bd565b92915050565b600081359050612422816135d4565b92915050565b600081519050612437816135d4565b92915050565b60008083601f840112612453576124526131e7565b5b8235905067ffffffffffffffff8111156124705761246f6131e2565b5b60208301915083600182028301111561248c5761248b6131ec565b5b9250929050565b6000813590506124a2816135eb565b92915050565b6000602082840312156124be576124bd6131f6565b5b60006124cc848285016123e9565b91505092915050565b600080604083850312156124ec576124eb6131f6565b5b60006124fa858286016123e9565b925050602061250b858286016123e9565b9150509250929050565b60008060006060848603121561252e5761252d6131f6565b5b600061253c868287016123e9565b935050602061254d868287016123e9565b925050604061255e86828701612493565b9150509250925092565b600080600080600060808688031215612584576125836131f6565b5b6000612592888289016123e9565b95505060206125a3888289016123e9565b94505060406125b488828901612493565b935050606086013567ffffffffffffffff8111156125d5576125d46131f1565b5b6125e18882890161243d565b92509250509295509295909350565b60008060408385031215612607576126066131f6565b5b6000612615858286016123e9565b9250506020612626858286016123fe565b9150509250929050565b60008060408385031215612647576126466131f6565b5b6000612655858286016123e9565b925050602061266685828601612493565b9150509250929050565b600060208284031215612686576126856131f6565b5b600061269484828501612413565b91505092915050565b6000602082840312156126b3576126b26131f6565b5b60006126c184828501612428565b91505092915050565b6000602082840312156126e0576126df6131f6565b5b60006126ee84828501612493565b91505092915050565b6000806040838503121561270e5761270d6131f6565b5b600061271c85828601612493565b925050602061272d85828601612493565b9150509250929050565b60006127438383612a6d565b60208301905092915050565b61275881612f98565b82525050565b600061276982612e22565b6127738185612e50565b935061277e83612e12565b8060005b838110156127af5781516127968882612737565b97506127a183612e43565b925050600181019050612782565b5085935050505092915050565b6127c581612faa565b82525050565b60006127d682612e2d565b6127e08185612e61565b93506127f0818560208601613019565b6127f9816131fb565b840191505092915050565b600061280f82612e38565b6128198185612e72565b9350612829818560208601613019565b612832816131fb565b840191505092915050565b600061284a602683612e72565b91506128558261320c565b604082019050919050565b600061286d601c83612e72565b91506128788261325b565b602082019050919050565b6000612890602083612e72565b915061289b82613284565b602082019050919050565b60006128b3602e83612e72565b91506128be826132ad565b604082019050919050565b60006128d6602483612e72565b91506128e1826132fc565b604082019050919050565b60006128f9602583612e72565b91506129048261334b565b604082019050919050565b600061291c601483612e72565b91506129278261339a565b602082019050919050565b600061293f602a83612e72565b915061294a826133c3565b604082019050919050565b6000612962601083612e72565b915061296d82613412565b602082019050919050565b6000612985602983612e72565b91506129908261343b565b604082019050919050565b60006129a8602083612e72565b91506129b38261348a565b602082019050919050565b60006129cb601d83612e72565b91506129d6826134b3565b602082019050919050565b60006129ee601f83612e72565b91506129f9826134dc565b602082019050919050565b6000612a11601383612e72565b9150612a1c82613505565b602082019050919050565b6000612a34603083612e72565b9150612a3f8261352e565b604082019050919050565b6000612a57601783612e72565b9150612a628261357d565b602082019050919050565b612a7681613002565b82525050565b612a8581613002565b82525050565b6000602082019050612aa0600083018461274f565b92915050565b6000608082019050612abb600083018761274f565b612ac8602083018661274f565b612ad56040830185612a7c565b8181036060830152612ae781846127cb565b905095945050505050565b600060a082019050612b07600083018861274f565b612b146020830187612a7c565b612b216040830186612a7c565b612b2e6060830185612a7c565b612b3b6080830184612a7c565b9695505050505050565b60006020820190508181036000830152612b5f818461275e565b905092915050565b6000602082019050612b7c60008301846127bc565b92915050565b60006020820190508181036000830152612b9c8184612804565b905092915050565b60006020820190508181036000830152612bbd8161283d565b9050919050565b60006020820190508181036000830152612bdd81612860565b9050919050565b60006020820190508181036000830152612bfd81612883565b9050919050565b60006020820190508181036000830152612c1d816128a6565b9050919050565b60006020820190508181036000830152612c3d816128c9565b9050919050565b60006020820190508181036000830152612c5d816128ec565b9050919050565b60006020820190508181036000830152612c7d8161290f565b9050919050565b60006020820190508181036000830152612c9d81612932565b9050919050565b60006020820190508181036000830152612cbd81612955565b9050919050565b60006020820190508181036000830152612cdd81612978565b9050919050565b60006020820190508181036000830152612cfd8161299b565b9050919050565b60006020820190508181036000830152612d1d816129be565b9050919050565b60006020820190508181036000830152612d3d816129e1565b9050919050565b60006020820190508181036000830152612d5d81612a04565b9050919050565b60006020820190508181036000830152612d7d81612a27565b9050919050565b60006020820190508181036000830152612d9d81612a4a565b9050919050565b6000602082019050612db96000830184612a7c565b92915050565b600060a082019050612dd46000830188612a7c565b612de16020830187612a7c565b612dee6040830186612a7c565b612dfb6060830185612a7c565b612e086080830184612a7c565b9695505050505050565b6000819050602082019050919050565b600081519050919050565b600081519050919050565b600081519050919050565b6000602082019050919050565b600082825260208201905092915050565b600082825260208201905092915050565b600082825260208201905092915050565b6000612e8e82613002565b9150612e9983613002565b9250827fffffffffffffffffffffffffffffffffffffffffffffffffffffffffffffffff03821115612ece57612ecd6130f7565b5b828201905092915050565b6000612ee482613002565b9150612eef83613002565b925082612eff57612efe613126565b5b828204905092915050565b6000612f1582613002565b9150612f2083613002565b9250817fffffffffffffffffffffffffffffffffffffffffffffffffffffffffffffffff0483118215151615612f5957612f586130f7565b5b828202905092915050565b6000612f6f82613002565b9150612f7a83613002565b925082821015612f8d57612f8c6130f7565b5b828203905092915050565b6000612fa382612fe2565b9050919050565b60008115159050919050565b60007fffffffff0000000000000000000000000000000000000000000000000000000082169050919050565b600073ffffffffffffffffffffffffffffffffffffffff82169050919050565b6000819050919050565b600060ff82169050919050565b60005b8381101561303757808201518184015260208101905061301c565b83811115613046576000848401525b50505050565b600061305782613002565b91507fffffffffffffffffffffffffffffffffffffffffffffffffffffffffffffffff82141561308a576130896130f7565b5b600182019050919050565b60006130a082613002565b91506130ab83613002565b9250826130bb576130ba613126565b5b828206905092915050565b60006130d18261300c565b91506130dc8361300c565b9250826130ec576130eb613126565b5b828206905092915050565b7f4e487b7100000000000000000000000000000000000000000000000000000000600052601160045260246000fd5b7f4e487b7100000000000000000000000000000000000000000000000000000000600052601260045260246000fd5b7f4e487b7100000000000000000000000000000000000000000000000000000000600052603160045260246000fd5b7f4e487b7100000000000000000000000000000000000000000000000000000000600052603260045260246000fd5b7f4e487b7100000000000000000000000000000000000000000000000000000000600052604160045260246000fd5b600080fd5b600080fd5b600080fd5b600080fd5b600080fd5b6000601f19601f8301169050919050565b7f4f776e61626c653a206e6577206f776e657220697320746865207a65726f206160008201527f6464726573730000000000000000000000000000000000000000000000000000602082015250565b7f7472616e7366657220746f20746865207a65726f206164647265737300000000600082015250565b7f546f2061646472657373206973206e6f742061207a65726f2061646472657373600082015250565b7f47656e20302073686f756c64206265206c657373207468616e2063726561746960008201527f6f6e206c696d69742067656e2030000000000000000000000000000000000000602082015250565b7f4552433732313a207472616e7366657220746f20746865207a65726f2061646460008201527f7265737300000000000000000000000000000000000000000000000000000000602082015250565b7f4e6f7420612076616c6964204e46542c206e6f7420746865206f776e6572206f60008201527f66204e4654000000000000000000000000000000000000000000000000000000602082015250565b7f546f6b656e20646f6573206e6f74206578697374000000000000000000000000600082015250565b7f596f75206d75737420626520746865206f776e6572206f6620626f7468206f6660008201527f20796f7572206361747300000000000000000000000000000000000000000000602082015250565b7f546f6b656e206d75737420657869737400000000000000000000000000000000600082015250565b7f4552433732313a206f776e657220717565727920666f72206e6f6e657869737460008201527f656e7420746f6b656e0000000000000000000000000000000000000000000000602082015250565b7f4f776e61626c653a2063616c6c6572206973206e6f7420746865206f776e6572600082015250565b7f4d757374207472616e7366657220746f207a65726f2061646472657373000000600082015250565b7f546865206361742063616e277420726570726f647563652068696d73656c6600600082015250565b7f46726f6d206f776e732074686520746f6b656e00000000000000000000000000600082015250565b7f4552433732313a20617070726f766520746f2063616c6c65722c20796f75206160008201527f7265206e6f7420746865206f776e657200000000000000000000000000000000602082015250565b7f746865206b6974747920646f65736e2774206578697374000000000000000000600082015250565b6135af81612f98565b81146135ba57600080fd5b50565b6135c681612faa565b81146135d157600080fd5b50565b6135dd81612fb6565b81146135e857600080fd5b50565b6135f481613002565b81146135ff57600080fd5b5056fea264697066735822122046cffecbae1eef4e310b1d6c076df1342f309a6be5c11dc0d6e998237398523364736f6c63430008070033",
  "immutableReferences": {},
  "source": "// SPDX-License-Identifier: MIT\r\npragma solidity ^0.8.0;\r\n\r\n//import \"./IERC721.sol\";\r\nimport \"@openzeppelin/contracts/access/Ownable.sol\";\r\nimport \"@openzeppelin/contracts/token/ERC721/IERC721Receiver.sol\";\r\n\r\n\r\ncontract myKittiesContract is Ownable  {\r\n\r\n  // Mapping from token ID to owner address\r\n  mapping(uint256 => address) public kittyIndexToOwner; //owners Of TokenId\r\n\r\n  // Mapping owner address to token count\r\n  mapping(address => uint256) ownershipTokenCount;\r\n\r\n  // Mapping from token ID to approved address\r\n  mapping(uint256 => address) public kittyIndexToApproved;\r\n\r\n  // MYADDR => OPERATOR => TRUE/FALSE\r\n  // _operatorApprovals[MYADDR][OPERATORADDR] = true or false;\r\n  // _operatorApprovals[MYADDR][BOBS_ADDR] = true;\r\n  // _operatorApprovals[MYADDR][ALICE_ADDR] = false;\r\n  // _operatorApprovals[MYADDR][LISA_ADDR] = true;\r\n\r\n  // Mapping from owner to operator approvals\r\n  mapping(address => mapping(address => bool)) private _operatorApprovals;\r\n\r\n  //an address to a number of cats in an array\r\n  mapping(address => uint256[]) ownerToCats;\r\n\r\n  bytes4 private constant _INTERFACE_TO_ERC721 = 0x80ac58cd;\r\n  bytes4 private constant _INTERFACE_TO_ERC165 = 0x01ffc9a7;\r\n\r\n  event Transfer(address indexed from, address indexed to, uint256 indexed tokenId);\r\n  event ApprovalForAll(address indexed owner, address indexed operator, bool approved);\r\n  event Approval(address indexed owner, address indexed approved, uint256 indexed tokenId);\r\n  event Birth(address owner, uint256 newKittenId, uint256 mumId, uint256 dadId, uint256 genes);\r\n\r\n  string constant _name = \"My Crypto Cats\";\r\n  string constant _symbol = \"MCRC\";\r\n  uint256 public constant CREATION_LIMIT_GEN0 = 10;\r\n  uint256 public gen0Counter;\r\n  //uint256 newGene; // prev: newDna\r\n  //uint256 newRandGene;\r\n  uint256 nextId = 0;\r\n\r\n  // 11 22 33 44 | 44 33 22 1 1\r\n\r\n  // this cat will just take up space, cannot be transacted in any way\r\n  // prevents buyKitty function require statement resulting to an empty array; being true\r\n  //constructor() {\r\n    // We are creating the first kitty at index 0\r\n   // _createKitty(0, 0, 0, uint256(0), address(0));\r\n    // (mumId, dadId, gen, genes, owner)\r\n // }\r\n\r\n  function Breeding(uint256 _dadId, uint256 _mumId) public {\r\n    //Check ownership\r\n    //Use new DNA\r\n    //Figure out the Generation\r\n    //Create new cat with new properties, give it to msg.sender\r\n    require(_owns(msg.sender, _dadId) && _owns(msg.sender, _mumId), \"You must be the owner of both of your cats\");\r\n    require(_mumId != _dadId, \"The cat can't reproduce himself\");\r\n\r\n    (uint256 Dadgenes,,,,uint256 DadGeneration) = getKitty(_dadId);\r\n    (uint256 Mumgenes,,,,uint256 MumGeneration) = getKitty(_mumId);\r\n\r\n    //newGene = _mixDnaMoreRand(Dadgenes, Mumgenes - old);\r\n      uint256 geneKid;\r\n      uint256 [8] memory geneArray;\r\n      uint256 index = 7;\r\n      uint8 random = uint8(block.timestamp % 255);\r\n      uint256 i = 0;\r\n      \r\n      for(i = 1; i <= 128; i=i*2){\r\n\r\n          /* We are */\r\n          if(random & i != 0){\r\n              geneArray[index] = uint8(Mumgenes % 100);\r\n          } else {\r\n              geneArray[index] = uint8(Dadgenes % 100);\r\n          }\r\n          Mumgenes /= 100;\r\n          Dadgenes /= 100;\r\n        index -= 1;\r\n      }\r\n\r\n      /* Add a random parameter in a random place */\r\n      uint8 newGeneIndex =  random % 7;\r\n      geneArray[newGeneIndex] = random % 99;\r\n\r\n      /* We reverse the DNa in the right order */\r\n      for (i = 0 ; i < 8; i++ ){\r\n        geneKid += geneArray[i];\r\n        if(i != 7){\r\n            geneKid *= 100;\r\n        }\r\n      }\r\n\r\n\r\n    uint256 kidGen = 0;\r\n    if (DadGeneration < MumGeneration) {\r\n      kidGen = MumGeneration + 1;\r\n      kidGen /= 2;\r\n    } else if (DadGeneration > MumGeneration) {\r\n      kidGen = DadGeneration + 1;\r\n      kidGen /= 2;\r\n    } else {\r\n      kidGen = MumGeneration + 1;\r\n    }\r\n\r\n    _createKitty(_mumId, _dadId, kidGen, geneKid, msg.sender);\r\n\r\n    //return kidGen;\r\n   \r\n  }\r\n\r\n\r\n  function supportsInterface(bytes4 _interfaceId) external pure returns (bool) {\r\n    return(_interfaceId == _INTERFACE_TO_ERC721 || _interfaceId == _INTERFACE_TO_ERC165);\r\n  }\r\n\r\n\r\n  bytes4 internal constant MAGIC_ERC721_RECEIVED = bytes4(keccak256(\"onERC721Received(address,address,uint256,bytes)\"));\r\n\r\n  struct Kitty {\r\n\r\n      uint256 genes;\r\n      uint64 birthTime;\r\n      uint32 mumId;\r\n      uint32 dadId;\r\n      uint16 generation;\r\n  }\r\n\r\n\r\n  Kitty[] kitties;\r\n\r\n\r\n  function createKittyGen0(uint256 _genes) external virtual onlyOwner returns(uint256) {\r\n    require(gen0Counter <= CREATION_LIMIT_GEN0, \"Gen 0 should be less than creation limit gen 0\");\r\n    \r\n    gen0Counter ++;\r\n\r\n    // mum, dad and generation is 0\r\n    // Gen0 have no owners; they are owned by the contract\r\n    \r\n    return _createKitty(0,0,0, _genes, msg.sender); // msg.sender could also be -- address(this) - we are giving cats to owner\r\n\r\n    // Gen0 have no owners they are own by the contract\r\n    //uint256 tokenId = _createKitty(0, 0, 0, _genes, msg.sender);\r\n    //setOffer(0.2 ether, tokenId);\r\n  }\r\n\r\n\r\n  // create cats by generation and by breeding\r\n  // returns cat id\r\n  function _createKitty(\r\n    uint256 _mumId,\r\n    uint256 _dadId,\r\n    uint256 _generation, //1,2,3..etc\r\n    uint256 _genes, // recipient\r\n    address owner\r\n  ) internal returns(uint256) {\r\n    Kitty memory _kitty = Kitty ({\r\n      genes: _genes,\r\n      birthTime: uint64(block.timestamp),\r\n      mumId: uint32(_mumId),\r\n      dadId: uint32(_dadId),\r\n      generation: uint16(_generation)\r\n    });\r\n\r\n    kitties.push(_kitty); // returns the size of array - 1 for the first cat (old)\r\n\r\n    uint256 newKittenId = kitties.length -1; // 0-1\r\n\r\n\r\n    // It's probably never going to happen, 4 billion cats is A LOT, but\r\n    // let's just be 100% sure we never let this happen.\r\n    //require(newKittenId == uint256(uint32(newKittenId)), \"4 Billion cats max\");\r\n\r\n    emit Birth(owner, newKittenId, uint256(_kitty.mumId), uint256(_kitty.dadId), _kitty.genes);\r\n\r\n\r\n    // This will assign ownership, and also emit the Transfer event as\r\n    // per ERC721 draft\r\n    _transfer(address(0), owner, newKittenId);\r\n\r\n    return newKittenId; //returns 256 bit integer\r\n\r\n  }\r\n\r\n\r\n  function myGetKitty(uint256 tokenId) public view returns (\r\n    uint256 birthTime,\r\n    uint256 mumId,\r\n    uint256 dadId,\r\n    uint256 generation,\r\n    uint256 genes\r\n  ) {\r\n\r\n    Kitty storage returnKitty = kitties[tokenId];\r\n    return (uint256(returnKitty.birthTime), uint256(returnKitty.mumId), uint256(returnKitty.dadId), uint256(returnKitty.generation), uint256(returnKitty.genes));\r\n  }\r\n\r\n\r\n  function getKitty(uint256 _id)\r\n    public\r\n    view\r\n    returns (\r\n    uint256 genes,\r\n    uint256 birthTime,\r\n    uint256 mumId,\r\n    uint256 dadId,\r\n    uint256 generation\r\n  ) {\r\n    Kitty storage kitty = kitties[_id];\r\n\r\n    require(kitty.birthTime > 0, \"the kitty doesn't exist\");\r\n\r\n    birthTime = uint256(kitty.birthTime);\r\n    mumId = uint256(kitty.mumId);\r\n    dadId = uint256(kitty.dadId);\r\n    generation = uint256(kitty.generation);\r\n    genes = kitty.genes;\r\n  }\r\n\r\n\r\n  function getAllCatsFor(address owner) public view returns (uint[] memory) {\r\n    return ownerToCats[owner];\r\n  }\r\n  \r\n\r\n  function balanceOf(address owner) public view returns (uint256 balance) {\r\n    return ownershipTokenCount[owner];\r\n  }\r\n\r\n\r\n  function totalSupply() public view returns (uint256 total) {\r\n    return kitties.length;\r\n  }\r\n\r\n\r\n  function name() external pure returns (string memory tokenName) {\r\n    return _name;\r\n  }\r\n\r\n\r\n  function symbol() external pure returns (string memory tokenSymbol) {\r\n    return _symbol;\r\n  }\r\n\r\n  // private functions are cheaper but public allows to execute function from within this contract\r\n  function ownerOf(uint256 tokenId) public view returns (address owner) {\r\n    address _owner = kittyIndexToOwner[tokenId]; // local variable \r\n    require(_owner != address(0), \"ERC721: owner query for nonexistent token\");\r\n\r\n    return _owner;\r\n  }\r\n\r\n\r\n  // this transfer function is not used -- the mint function might be better suited for minting NFTs\r\n  function transfer(address to, uint256 tokenId) external {\r\n    require(to != address(0), \"ERC721: transfer to the zero address\");\r\n    require(to != address(this), \"transfer to the zero address\");\r\n    // `tokenId` token must be owned by `msg.sender`.\r\n    require(_owns(msg.sender, tokenId));\r\n\r\n    _transfer(msg.sender, to, tokenId);\r\n\r\n  }\r\n\r\n\r\n  function approve(address _approved, uint256 _tokenId) public {\r\n    ///  Throws unless `msg.sender` is the current NFT owner, or an authorized\r\n    ///  operator of the current owner.\r\n    require(_owns(msg.sender, _tokenId));\r\n\r\n    _approve(_tokenId, _approved);\r\n    emit Approval(msg.sender, _approved, _tokenId);\r\n\r\n  }\r\n\r\n\r\n  function setApprovalForAll(address _operator, bool _approved) public {\r\n    require(_operator != msg.sender, \"ERC721: approve to caller, you are not the owner\");\r\n\r\n    _operatorApprovals[msg.sender][_operator] = _approved; \r\n    emit ApprovalForAll(msg.sender, _operator, _approved);\r\n\r\n  }\r\n\r\n\r\n  function getApproved(uint256 _tokenId) public view returns (address) {\r\n    require(_tokenId < kitties.length, \"Token must exist\"); // getter function\r\n\r\n    return kittyIndexToApproved[_tokenId];\r\n  }\r\n\r\n\r\n  function isApprovedForAll(address _owner, address _operator) public view returns (bool) {\r\n    return _operatorApprovals[_owner][_operator];\r\n  }\r\n\r\n\r\n  function safeTransferFrom(address _from, address _to, uint256 _tokenId) public {\r\n    safeTransferFrom(_from, _to, _tokenId);\r\n  }\r\n\r\n\r\n  function safeTransferFrom(address _from, address _to, uint256 _tokenId, bytes calldata data) external {\r\n    require(_to != address(0), \"Must transfer to zero address\");\r\n    require(_tokenId < kitties.length, \"Token does not exist\");\r\n    require(_owns(_from, _tokenId), \"Not a valid NFT, not the owner of NFT\");\r\n\r\n     //spender is _from (DEX) or spender is approved for tokenId or spender is operator for _from\r\n    require(msg.sender == _from || isApprovedForAll(_from, _to) || _approvedFor(msg.sender, _tokenId));\r\n\r\n    _safeTransfer(_from, _to, _tokenId, data);\r\n\r\n  }\r\n\r\n\r\n  function getAllTokensForUser(address user) public view returns(uint256[] memory) {\r\n    uint256 tokenCount = balanceOf(user);\r\n    if(tokenCount == 0) {\r\n      return new uint256[](0);\r\n    } else {\r\n      //how many tokens in total?\r\n      uint256[] memory result = new uint256[](tokenCount);\r\n      uint256 totalCats = nextId;\r\n      uint256 resultIndex;\r\n      uint256 i;\r\n      for(i = 0; i < totalCats; i++) {\r\n        //check\r\n        if(ownerOf(i) == user) {\r\n          result[resultIndex] = i;\r\n          resultIndex++;\r\n        }\r\n      }\r\n      return result;\r\n    }  \r\n  }\r\n  \r\n\r\n  function tokensOfOwner(address _owner) public view returns(uint256[] memory ownerTokens) {\r\n    uint256 tokenCount = balanceOf(_owner);\r\n\r\n    if (tokenCount == 0) {\r\n      return new uint256[](0);\r\n    } else {\r\n      uint256[] memory result = new uint256[](tokenCount);\r\n      uint256 totalCats = totalSupply();\r\n      uint256 resultIndex = 0;\r\n\r\n      uint256 catId;\r\n\r\n      for (catId = 1; catId <= totalCats; catId++) {\r\n        if (kittyIndexToOwner[catId] == _owner) {\r\n          result[resultIndex] = catId;\r\n          resultIndex++;\r\n        }\r\n      }\r\n\r\n      return result;\r\n    }   \r\n  }\r\n\r\n\r\n  //Smart Contract Programmer(youTuber) ...\r\n  //transferFrom - how it is used:\r\n  //trader calls approve(dexAddress, amount)\r\n  //dex calls transferFrom(traderAddress, dexAddress, amount)\r\n\r\n  function transferFrom(address _from, address _to, uint256 _tokenId) public {\r\n    /// Throws if `_to` is the zero address. \r\n    /// Throws if `_tokenId` is not a valid NFT.\r\n\r\n    /// @dev Throws unless `msg.sender` is the current owner, an authorized\r\n    ///  operator, or the approved address for this NFT.\r\n     \r\n    require(_to != address(0), \"To address is not a zero address\");\r\n    require(_tokenId < kitties.length, \"Token must exist\");\r\n    require(_owns(_from, _tokenId), \"From owns the token\");\r\n    require(msg.sender == _from || isApprovedForAll(_from, msg.sender) || _approvedFor(msg.sender, _tokenId));\r\n\r\n    _transfer(_from, _to, _tokenId);\r\n  }\r\n\r\n\r\n  // must transfer from address 0\r\n  function _transfer(address from, address to, uint256 tokenId) internal {\r\n    //_approve(address(0), tokenId);\r\n\r\n    ownershipTokenCount[to] += 1; // increase count of recipient\r\n\r\n    kittyIndexToOwner[tokenId] = to;\r\n\r\n     // SEMD tokenId # => an address to a number of cats in an array\r\n     ownerToCats[to].push(tokenId);\r\n\r\n     // decrease token count from person A to person B\r\n     if (from != address(0)) { // if from is not address(0), is okay to remove token\r\n       ownershipTokenCount[from] -= 1;\r\n       _removeTokenIdFromOwner(from, tokenId);\r\n       delete kittyIndexToOwner[tokenId];\r\n     }\r\n\r\n     emit Transfer(msg.sender, to, tokenId);\r\n\r\n  }\r\n\r\n\r\n  function _safeTransfer(address _from, address _to, uint256 _tokenId, bytes calldata _data) internal {\r\n    _transfer(_from, _to, _tokenId);\r\n    require(_checkERC721Support(_from, _to, _tokenId, _data));\r\n  }\r\n\r\n\r\n  function  _removeTokenIdFromOwner(address owner, uint256 tokenId) internal {\r\n    uint256 lastId = ownerToCats[owner][ownerToCats[owner].length -1];\r\n    for (uint256 i = 0; i < ownerToCats[owner].length -1; i++) {\r\n      if (ownerToCats[owner][i] == tokenId) {\r\n        ownerToCats[owner][i] = lastId;\r\n        ownerToCats[owner].pop();\r\n      }\r\n    }\r\n  }\r\n\r\n\r\n  function _owns(address _claimant, uint256 tokenId ) internal view returns(bool) {\r\n    return kittyIndexToOwner[tokenId] == _claimant;\r\n  }\r\n\r\n\r\n  function _deleteApproval(uint256 _tokenId) internal {\r\n      require(_owns(msg.sender, _tokenId));\r\n      delete kittyIndexToApproved[_tokenId];\r\n  }\r\n\r\n\r\n   function _approve(uint256 _tokenId, address _approved) internal {\r\n    kittyIndexToApproved[_tokenId] = _approved;\r\n  }\r\n\r\n\r\n  function _approvedFor(address _claimant, uint256 tokenId) internal view returns(bool) {\r\n    return kittyIndexToApproved[tokenId] == _claimant;\r\n  }\r\n\r\n\r\n  function _checkERC721Support(address _from, address _to, uint256 _tokenId, bytes memory _data) internal returns (bool) {\r\n    if(!isContract(_to)) { //checks if `_to` is a smart contract (code size > 0)\r\n      return true;\r\n    }\r\n    //example: Contract(_to)....\r\n    //If there is an operator, where _from is not equal to msg.sender, we use msg.sender.\r\n    bytes4 returnData = IERC721Receiver(_to).onERC721Received(msg.sender, _from, _tokenId, _data);\r\n    return returnData == MAGIC_ERC721_RECEIVED;\r\n    //Call onERC721Received in the _to contract\r\n    //Check return value\r\n  } \r\n\r\n\r\n  function isContract(address _to) internal view returns(bool) {\r\n    //It is a smart contract (code size > 0)\r\n    //If it is a wallet, code size = 0\r\n    uint32 size;\r\n    assembly{\r\n      size := extcodesize(_to)\r\n    }\r\n    return size > 0;\r\n  }\r\n}\r\n\r\n\r\n",
  "sourcePath": "C:\\Users\\benX\\Documents\\ethereum_course_advanced\\myCryptoKitties_master\\contracts\\kittiesContract.sol",
  "compiler": {
    "name": "solc",
    "version": "0.8.7+commit.e28d00a7.Emscripten.clang"
  },
  "schemaVersion": "3.4.3",
  "updatedAt": "2021-08-31T04:31:23.537Z",
  "networkType": "ethereum",
  "devdoc": {
    "kind": "dev",
    "methods": {
      "owner()": {
        "details": "Returns the address of the current owner."
      },
      "renounceOwnership()": {
        "details": "Leaves the contract without owner. It will not be possible to call `onlyOwner` functions anymore. Can only be called by the current owner. NOTE: Renouncing ownership will leave the contract without an owner, thereby removing any functionality that is only available to the owner."
      },
      "transferOwnership(address)": {
        "details": "Transfers ownership of the contract to a new account (`newOwner`). Can only be called by the current owner."
      }
    },
    "version": 1
  },
  "userdoc": {
    "kind": "user",
    "methods": {},
    "version": 1
  }
}