{
  "contractName": "myKittiesContract",
  "abi": [
    {
      "anonymous": false,
      "inputs": [
        {
          "indexed": false,
          "internalType": "address",
          "name": "owner",
          "type": "address"
        },
        {
          "indexed": false,
          "internalType": "uint256",
          "name": "newKittenId",
          "type": "uint256"
        },
        {
          "indexed": false,
          "internalType": "uint256",
          "name": "mumId",
          "type": "uint256"
        },
        {
          "indexed": false,
          "internalType": "uint256",
          "name": "dadId",
          "type": "uint256"
        },
        {
          "indexed": false,
          "internalType": "uint256",
          "name": "genes",
          "type": "uint256"
        }
      ],
      "name": "Birth",
      "type": "event"
    },
    {
      "inputs": [],
      "name": "CREATION_LIMIT_GEN0",
      "outputs": [
        {
          "internalType": "uint256",
          "name": "",
          "type": "uint256"
        }
      ],
      "stateMutability": "view",
      "type": "function",
      "constant": true
    },
    {
      "inputs": [],
      "name": "gen0Counter",
      "outputs": [
        {
          "internalType": "uint256",
          "name": "",
          "type": "uint256"
        }
      ],
      "stateMutability": "view",
      "type": "function",
      "constant": true
    },
    {
      "inputs": [
        {
          "internalType": "uint256",
          "name": "",
          "type": "uint256"
        }
      ],
      "name": "kittyIndexToOwner",
      "outputs": [
        {
          "internalType": "address",
          "name": "",
          "type": "address"
        }
      ],
      "stateMutability": "view",
      "type": "function",
      "constant": true
    },
    {
      "inputs": [
        {
          "internalType": "uint256",
          "name": "_genes",
          "type": "uint256"
        }
      ],
      "name": "createKittyGen0",
      "outputs": [
        {
          "internalType": "uint256",
          "name": "",
          "type": "uint256"
        }
      ],
      "stateMutability": "nonpayable",
      "type": "function"
    },
    {
      "inputs": [
        {
          "internalType": "uint256",
          "name": "_mumId",
          "type": "uint256"
        },
        {
          "internalType": "uint256",
          "name": "_dadId",
          "type": "uint256"
        },
        {
          "internalType": "uint256",
          "name": "_generation",
          "type": "uint256"
        },
        {
          "internalType": "uint256",
          "name": "_genes",
          "type": "uint256"
        },
        {
          "internalType": "address",
          "name": "owner",
          "type": "address"
        }
      ],
      "name": "_createKitty",
      "outputs": [
        {
          "internalType": "uint256",
          "name": "",
          "type": "uint256"
        }
      ],
      "stateMutability": "nonpayable",
      "type": "function"
    },
    {
      "inputs": [
        {
          "internalType": "uint256",
          "name": "tokenId",
          "type": "uint256"
        }
      ],
      "name": "myGetKitty",
      "outputs": [
        {
          "internalType": "uint256",
          "name": "birthTime",
          "type": "uint256"
        },
        {
          "internalType": "uint256",
          "name": "mumId",
          "type": "uint256"
        },
        {
          "internalType": "uint256",
          "name": "dadId",
          "type": "uint256"
        },
        {
          "internalType": "uint256",
          "name": "generation",
          "type": "uint256"
        },
        {
          "internalType": "uint256",
          "name": "genes",
          "type": "uint256"
        }
      ],
      "stateMutability": "view",
      "type": "function",
      "constant": true
    },
    {
      "inputs": [
        {
          "internalType": "uint256",
          "name": "_id",
          "type": "uint256"
        }
      ],
      "name": "getKittyFilip",
      "outputs": [
        {
          "internalType": "uint256",
          "name": "birthTime",
          "type": "uint256"
        },
        {
          "internalType": "uint256",
          "name": "mumId",
          "type": "uint256"
        },
        {
          "internalType": "uint256",
          "name": "dadId",
          "type": "uint256"
        },
        {
          "internalType": "uint256",
          "name": "generation",
          "type": "uint256"
        },
        {
          "internalType": "uint256",
          "name": "genes",
          "type": "uint256"
        }
      ],
      "stateMutability": "view",
      "type": "function",
      "constant": true
    },
    {
      "inputs": [
        {
          "internalType": "address",
          "name": "owner",
          "type": "address"
        }
      ],
      "name": "getAllCatsFor",
      "outputs": [
        {
          "internalType": "uint256[]",
          "name": "",
          "type": "uint256[]"
        }
      ],
      "stateMutability": "view",
      "type": "function",
      "constant": true
    },
    {
      "inputs": [
        {
          "internalType": "address",
          "name": "owner",
          "type": "address"
        }
      ],
      "name": "balanceOf",
      "outputs": [
        {
          "internalType": "uint256",
          "name": "balance",
          "type": "uint256"
        }
      ],
      "stateMutability": "view",
      "type": "function",
      "constant": true
    },
    {
      "inputs": [],
      "name": "totalSupply",
      "outputs": [
        {
          "internalType": "uint256",
          "name": "total",
          "type": "uint256"
        }
      ],
      "stateMutability": "view",
      "type": "function",
      "constant": true
    },
    {
      "inputs": [],
      "name": "name",
      "outputs": [
        {
          "internalType": "string",
          "name": "tokenName",
          "type": "string"
        }
      ],
      "stateMutability": "pure",
      "type": "function",
      "constant": true
    },
    {
      "inputs": [],
      "name": "symbol",
      "outputs": [
        {
          "internalType": "string",
          "name": "tokenSymbol",
          "type": "string"
        }
      ],
      "stateMutability": "pure",
      "type": "function",
      "constant": true
    },
    {
      "inputs": [
        {
          "internalType": "uint256",
          "name": "tokenId",
          "type": "uint256"
        }
      ],
      "name": "ownerOf",
      "outputs": [
        {
          "internalType": "address",
          "name": "owner",
          "type": "address"
        }
      ],
      "stateMutability": "view",
      "type": "function",
      "constant": true
    },
    {
      "inputs": [
        {
          "internalType": "address",
          "name": "to",
          "type": "address"
        },
        {
          "internalType": "uint256",
          "name": "tokenId",
          "type": "uint256"
        }
      ],
      "name": "transfer",
      "outputs": [],
      "stateMutability": "nonpayable",
      "type": "function"
    }
  ],
  "bytecode": "0x608060405234801561001057600080fd5b506116a0806100206000396000f3fe608060405234801561001057600080fd5b50600436106100ea5760003560e01c806395d89b411161008c578063a9059cbb11610066578063a9059cbb146102a1578063b4834330146102bd578063d5a776ca146102db578063ef5e94aa1461030b576100ea565b806395d89b411461021f578063a090cb771461023d578063a45f4bfc14610271576100ea565b8063338a63a4116100c8578063338a63a41461015f5780635a64aafa1461018f5780636352211e146101bf57806370a08231146101ef576100ea565b806306fdde03146100ef5780630dd1c2e81461010d57806318160ddd14610141575b600080fd5b6100f7610329565b60405161010491906111b6565b60405180910390f35b61012760048036038101906101229190610f16565b610366565b604051610138959493929190611273565b60405180910390f35b61014961041c565b6040516101569190611258565b60405180910390f35b61017960048036038101906101749190610f43565b610429565b6040516101869190611258565b60405180910390f35b6101a960048036038101906101a49190610ea9565b6105b6565b6040516101b69190611194565b60405180910390f35b6101d960048036038101906101d49190610f16565b61064d565b6040516101e69190611126565b60405180910390f35b61020960048036038101906102049190610ea9565b6106fe565b6040516102169190611258565b60405180910390f35b610227610747565b60405161023491906111b6565b60405180910390f35b61025760048036038101906102529190610f16565b610784565b604051610268959493929190611273565b60405180910390f35b61028b60048036038101906102869190610f16565b61083a565b6040516102989190611126565b60405180910390f35b6102bb60048036038101906102b69190610ed6565b61086d565b005b6102c561096e565b6040516102d29190611258565b60405180910390f35b6102f560048036038101906102f09190610f16565b610973565b6040516103029190611258565b60405180910390f35b6103136109e9565b6040516103209190611258565b60405180910390f35b60606040518060400160405280600e81526020017f4d792043727970746f2043617473000000000000000000000000000000000000815250905090565b60008060008060008060048781548110610383576103826114bb565b5b906000526020600020906002020190508060000160009054906101000a900467ffffffffffffffff1667ffffffffffffffff1695508060000160089054906101000a900463ffffffff1663ffffffff16945080600001600c9054906101000a900463ffffffff1663ffffffff1693508060000160109054906101000a900461ffff1661ffff169250806001015491505091939590929450565b6000600480549050905090565b6000806040518060a001604052804267ffffffffffffffff1681526020018863ffffffff1681526020018763ffffffff1681526020018661ffff168152602001858152509050600481908060018154018082558091505060019003906000526020600020906002020160009091909190915060008201518160000160006101000a81548167ffffffffffffffff021916908367ffffffffffffffff16021790555060208201518160000160086101000a81548163ffffffff021916908363ffffffff160217905550604082015181600001600c6101000a81548163ffffffff021916908363ffffffff16021790555060608201518160000160106101000a81548161ffff021916908361ffff1602179055506080820151816001015550506000600160048054905061055b9190611371565b90507f0a5311bd2a6608f08a180df2ee7c5946819a649b204b554bb8e39825b2c50ad584828a8a89604051610594959493929190611141565b60405180910390a16105a8600085836109ef565b809250505095945050505050565b6060600260008373ffffffffffffffffffffffffffffffffffffffff1673ffffffffffffffffffffffffffffffffffffffff16815260200190815260200160002080548060200260200160405190810160405280929190818152602001828054801561064157602002820191906000526020600020905b81548152602001906001019080831161062d575b50505050509050919050565b60008060008084815260200190815260200160002060009054906101000a900473ffffffffffffffffffffffffffffffffffffffff169050600073ffffffffffffffffffffffffffffffffffffffff168173ffffffffffffffffffffffffffffffffffffffff1614156106f5576040517f08c379a00000000000000000000000000000000000000000000000000000000081526004016106ec90611218565b60405180910390fd5b80915050919050565b6000600160008373ffffffffffffffffffffffffffffffffffffffff1673ffffffffffffffffffffffffffffffffffffffff168152602001908152602001600020549050919050565b60606040518060400160405280600481526020017f4d43524300000000000000000000000000000000000000000000000000000000815250905090565b600080600080600080600487815481106107a1576107a06114bb565b5b906000526020600020906002020190508060000160009054906101000a900467ffffffffffffffff1667ffffffffffffffff168160000160089054906101000a900463ffffffff1663ffffffff1682600001600c9054906101000a900463ffffffff1663ffffffff168360000160109054906101000a900461ffff1661ffff168460010154955095509550955095505091939590929450565b60006020528060005260406000206000915054906101000a900473ffffffffffffffffffffffffffffffffffffffff1681565b600073ffffffffffffffffffffffffffffffffffffffff168273ffffffffffffffffffffffffffffffffffffffff1614156108dd576040517f08c379a00000000000000000000000000000000000000000000000000000000081526004016108d4906111f8565b60405180910390fd5b3073ffffffffffffffffffffffffffffffffffffffff168273ffffffffffffffffffffffffffffffffffffffff16141561094c576040517f08c379a000000000000000000000000000000000000000000000000000000000815260040161094390611238565b60405180910390fd5b6109563382610bcb565b61095f57600080fd5b61096a3383836109ef565b5050565b600a81565b6000600a60035411156109bb576040517f08c379a00000000000000000000000000000000000000000000000000000000081526004016109b2906111d8565b60405180910390fd5b600360008154809291906109ce90611414565b91905055506109e260008060008533610429565b9050919050565b60035481565b60018060008473ffffffffffffffffffffffffffffffffffffffff1673ffffffffffffffffffffffffffffffffffffffff1681526020019081526020016000206000828254610a3e919061131b565b925050819055508160008083815260200190815260200160002060006101000a81548173ffffffffffffffffffffffffffffffffffffffff021916908373ffffffffffffffffffffffffffffffffffffffff160217905550600260008373ffffffffffffffffffffffffffffffffffffffff1673ffffffffffffffffffffffffffffffffffffffff168152602001908152602001600020819080600181540180825580915050600190039060005260206000200160009091909190915055600073ffffffffffffffffffffffffffffffffffffffff168373ffffffffffffffffffffffffffffffffffffffff1614610bc65760018060008573ffffffffffffffffffffffffffffffffffffffff1673ffffffffffffffffffffffffffffffffffffffff1681526020019081526020016000206000828254610b7f9190611371565b92505081905550610b908382610c36565b60008082815260200190815260200160002060006101000a81549073ffffffffffffffffffffffffffffffffffffffff02191690555b505050565b60008273ffffffffffffffffffffffffffffffffffffffff1660008084815260200190815260200160002060009054906101000a900473ffffffffffffffffffffffffffffffffffffffff1673ffffffffffffffffffffffffffffffffffffffff1614905092915050565b6000600260008473ffffffffffffffffffffffffffffffffffffffff1673ffffffffffffffffffffffffffffffffffffffff1681526020019081526020016000206001600260008673ffffffffffffffffffffffffffffffffffffffff1673ffffffffffffffffffffffffffffffffffffffff16815260200190815260200160002080549050610cc69190611371565b81548110610cd757610cd66114bb565b5b9060005260206000200154905060005b6001600260008673ffffffffffffffffffffffffffffffffffffffff1673ffffffffffffffffffffffffffffffffffffffff16815260200190815260200160002080549050610d369190611371565b811015610e795782600260008673ffffffffffffffffffffffffffffffffffffffff1673ffffffffffffffffffffffffffffffffffffffff1681526020019081526020016000208281548110610d8f57610d8e6114bb565b5b90600052602060002001541415610e665781600260008673ffffffffffffffffffffffffffffffffffffffff1673ffffffffffffffffffffffffffffffffffffffff1681526020019081526020016000208281548110610df257610df16114bb565b5b9060005260206000200181905550600260008573ffffffffffffffffffffffffffffffffffffffff1673ffffffffffffffffffffffffffffffffffffffff168152602001908152602001600020805480610e4f57610e4e61148c565b5b600190038181906000526020600020016000905590555b8080610e7190611414565b915050610ce7565b50505050565b600081359050610e8e8161163c565b92915050565b600081359050610ea381611653565b92915050565b600060208284031215610ebf57610ebe6114ea565b5b6000610ecd84828501610e7f565b91505092915050565b60008060408385031215610eed57610eec6114ea565b5b6000610efb85828601610e7f565b9250506020610f0c85828601610e94565b9150509250929050565b600060208284031215610f2c57610f2b6114ea565b5b6000610f3a84828501610e94565b91505092915050565b600080600080600060a08688031215610f5f57610f5e6114ea565b5b6000610f6d88828901610e94565b9550506020610f7e88828901610e94565b9450506040610f8f88828901610e94565b9350506060610fa088828901610e94565b9250506080610fb188828901610e7f565b9150509295509295909350565b6000610fca8383611108565b60208301905092915050565b610fdf816113a5565b82525050565b6000610ff0826112d6565b610ffa81856112f9565b9350611005836112c6565b8060005b8381101561103657815161101d8882610fbe565b9750611028836112ec565b925050600181019050611009565b5085935050505092915050565b600061104e826112e1565b611058818561130a565b93506110688185602086016113e1565b611071816114ef565b840191505092915050565b6000611089602e8361130a565b915061109482611500565b604082019050919050565b60006110ac60248361130a565b91506110b78261154f565b604082019050919050565b60006110cf60298361130a565b91506110da8261159e565b604082019050919050565b60006110f260218361130a565b91506110fd826115ed565b604082019050919050565b611111816113d7565b82525050565b611120816113d7565b82525050565b600060208201905061113b6000830184610fd6565b92915050565b600060a0820190506111566000830188610fd6565b6111636020830187611117565b6111706040830186611117565b61117d6060830185611117565b61118a6080830184611117565b9695505050505050565b600060208201905081810360008301526111ae8184610fe5565b905092915050565b600060208201905081810360008301526111d08184611043565b905092915050565b600060208201905081810360008301526111f18161107c565b9050919050565b600060208201905081810360008301526112118161109f565b9050919050565b60006020820190508181036000830152611231816110c2565b9050919050565b60006020820190508181036000830152611251816110e5565b9050919050565b600060208201905061126d6000830184611117565b92915050565b600060a0820190506112886000830188611117565b6112956020830187611117565b6112a26040830186611117565b6112af6060830185611117565b6112bc6080830184611117565b9695505050505050565b6000819050602082019050919050565b600081519050919050565b600081519050919050565b6000602082019050919050565b600082825260208201905092915050565b600082825260208201905092915050565b6000611326826113d7565b9150611331836113d7565b9250827fffffffffffffffffffffffffffffffffffffffffffffffffffffffffffffffff038211156113665761136561145d565b5b828201905092915050565b600061137c826113d7565b9150611387836113d7565b92508282101561139a5761139961145d565b5b828203905092915050565b60006113b0826113b7565b9050919050565b600073ffffffffffffffffffffffffffffffffffffffff82169050919050565b6000819050919050565b60005b838110156113ff5780820151818401526020810190506113e4565b8381111561140e576000848401525b50505050565b600061141f826113d7565b91507fffffffffffffffffffffffffffffffffffffffffffffffffffffffffffffffff8214156114525761145161145d565b5b600182019050919050565b7f4e487b7100000000000000000000000000000000000000000000000000000000600052601160045260246000fd5b7f4e487b7100000000000000000000000000000000000000000000000000000000600052603160045260246000fd5b7f4e487b7100000000000000000000000000000000000000000000000000000000600052603260045260246000fd5b600080fd5b6000601f19601f8301169050919050565b7f47656e20302073686f756c64206265206c657373207468616e2063726561746960008201527f6f6e206c696d69742067656e2030000000000000000000000000000000000000602082015250565b7f4552433732313a207472616e7366657220746f20746865207a65726f2061646460008201527f7265737300000000000000000000000000000000000000000000000000000000602082015250565b7f4552433732313a206f776e657220717565727920666f72206e6f6e657869737460008201527f656e7420746f6b656e0000000000000000000000000000000000000000000000602082015250565b7f746f2063616e6e6f742062652074686520636f6e74726163742061646472657360008201527f7300000000000000000000000000000000000000000000000000000000000000602082015250565b611645816113a5565b811461165057600080fd5b50565b61165c816113d7565b811461166757600080fd5b5056fea26469706673582212208fc89126108569638bfed1b47383572c9cee20bc3d785482e788ad6ae9cd37cc64736f6c63430008060033",
  "immutableReferences": {},
  "source": "// SPDX-License-Identifier: MIT\r\npragma solidity ^0.8.0;\r\n\r\n//import \"./IERC721.sol\";\r\n//import \"./myOwnable.sol\";\r\n\r\n\r\ncontract myKittiesContract {\r\n\r\n  // Mapping from token ID to owner address\r\n  mapping(uint256 => address) public kittyIndexToOwner; //owners Of TokenId\r\n\r\n  // Mapping owner address to token count\r\n  mapping(address => uint256) ownershipTokenCount;\r\n\r\n  //an address to a number of cats in an array\r\n  mapping(address => uint256[]) ownerToCats;\r\n\r\n  event Birth(address owner, uint256 newKittenId, uint256 mumId, uint256 dadId, uint256 genes);\r\n  \r\n\r\n  string constant _name = \"My Crypto Cats\";\r\n  string constant _symbol = \"MCRC\";\r\n\r\n  uint256 public constant CREATION_LIMIT_GEN0 = 10;\r\n\r\n  uint256 public gen0Counter;\r\n\r\n  struct Kitty{\r\n    uint64 birthTime;\r\n    uint32 mumId;\r\n    uint32 dadId;\r\n    uint16 generation;\r\n    uint256 genes;\r\n  }\r\n\r\n  Kitty[] kitties;\r\n\r\n  function createKittyGen0(uint256 _genes) public returns (uint256)\r\n  {\r\n    require(gen0Counter <= CREATION_LIMIT_GEN0, \"Gen 0 should be less than creation limit gen 0\");\r\n    \r\n    gen0Counter ++;\r\n\r\n    // mum, dad and generation is 0\r\n    // Gen0 have no owners; they are owned by the contract\r\n    \r\n    return _createKitty(0,0,0, _genes, msg.sender); // msg.sender could also be -- address(this) - we are giving cats to owner\r\n  }\r\n\r\n  // create cats by generation and by breeding\r\n  // returns cat id\r\n  function _createKitty(\r\n    uint256 _mumId,\r\n    uint256 _dadId,\r\n    uint256 _generation, //1,2,3..etc\r\n    uint256 _genes, // recipient\r\n    address owner\r\n  ) public returns(uint256) {\r\n    Kitty memory newKitties = Kitty ({\r\n      genes: _genes,\r\n      birthTime: uint64(block.timestamp),\r\n      mumId: uint32(_mumId),\r\n      dadId: uint32(_dadId),\r\n      generation: uint16(_generation)\r\n    });\r\n\r\n    kitties.push(newKitties); // returns the size of array - 1 for the first cat\r\n\r\n    uint256 newKittenId = kitties.length -1; // 0-1\r\n\r\n    emit Birth(owner, newKittenId, _mumId, _dadId, _genes);\r\n\r\n    _transfer(address(0), owner, newKittenId);\r\n\r\n    return newKittenId; //returns 256 bit integer\r\n\r\n  }\r\n\r\n  function myGetKitty(uint256 tokenId) public view returns (\r\n    uint256 birthTime,\r\n    uint256 mumId,\r\n    uint256 dadId,\r\n    uint256 generation,\r\n    uint256 genes\r\n  ) {\r\n\r\n    Kitty storage returnKitty = kitties[tokenId];\r\n    return (uint256(returnKitty.birthTime), uint256(returnKitty.mumId), uint256(returnKitty.dadId), uint256(returnKitty.generation), uint256(returnKitty.genes));\r\n  }\r\n\r\n  function getKittyFilip(uint256 _id) public view returns (\r\n    uint256 birthTime,\r\n    uint256 mumId,\r\n    uint256 dadId,\r\n    uint256 generation,\r\n    uint256 genes\r\n  ) {\r\n\r\n    Kitty storage kitty = kitties[_id];\r\n    birthTime = uint256(kitty.birthTime);\r\n    mumId = uint256(kitty.mumId);\r\n    dadId = uint256(kitty.dadId);\r\n    generation = uint256(kitty.generation);\r\n    genes = uint256(kitty.genes);\r\n  }\r\n\r\n  function getAllCatsFor(address owner) public view returns (uint[] memory) {\r\n    return ownerToCats[owner];\r\n  }\r\n\r\n\r\n//-------------------------------\r\n  function balanceOf(address owner) public view returns (uint256 balance) {\r\n    return ownershipTokenCount[owner];\r\n  }\r\n\r\n  function totalSupply() public view returns (uint256 total) {\r\n    return kitties.length;\r\n  }\r\n\r\n  function name() external pure returns (string memory tokenName) {\r\n    return _name;\r\n  }\r\n\r\n  function symbol() external pure returns (string memory tokenSymbol) {\r\n    return _symbol;\r\n  }\r\n\r\n  // private functions are cheaper but public allows to execute function from within this contract\r\n  function ownerOf(uint256 tokenId) public view returns (address owner) {\r\n    address _owner = kittyIndexToOwner[tokenId]; // local variable \r\n    require(_owner != address(0), \"ERC721: owner query for nonexistent token\");\r\n\r\n    return _owner;\r\n\r\n  }\r\n\r\n  function transfer(address to, uint256 tokenId) external {\r\n    require(to != address(0), \"ERC721: transfer to the zero address\");\r\n    require(to != address(this), \"to cannot be the contract address\");\r\n    // `tokenId` token must be owned by `msg.sender`.\r\n    require(_owns(msg.sender, tokenId));\r\n\r\n    _transfer(msg.sender, to, tokenId);\r\n\r\n  }\r\n\r\n  function _transfer(address from, address to, uint256 tokenId) internal {\r\n\r\n    ownershipTokenCount[to] += 1; // increase count of recipient\r\n\r\n    kittyIndexToOwner[tokenId] = to;\r\n\r\n     // SEMD tokenId # => an address to a number of cats in an array\r\n     ownerToCats[to].push(tokenId);\r\n\r\n     // decrease token count from person A to person B\r\n     if (from != address(0)) { // if from is not address(0), is okay to remove token\r\n       ownershipTokenCount[from] -= 1;\r\n       _removeTokenIdFromOwner(from, tokenId);\r\n       delete kittyIndexToOwner[tokenId];\r\n     }\r\n\r\n     //emit Transfer(msg.sender, to, tokenId);\r\n\r\n  }\r\n\r\n  function  _removeTokenIdFromOwner(address owner, uint256 tokenId) internal {\r\n    uint256 lastId = ownerToCats[owner][ownerToCats[owner].length -1];\r\n    for (uint256 i = 0; i < ownerToCats[owner].length -1; i++) {\r\n      if (ownerToCats[owner][i] == tokenId) {\r\n        ownerToCats[owner][i] = lastId;\r\n        ownerToCats[owner].pop();\r\n      }\r\n    }\r\n  }\r\n\r\n\r\n\r\n  function _owns(address _claimant, uint256 tokenId ) internal view returns(bool) {\r\n    return kittyIndexToOwner[tokenId] == _claimant;\r\n  }\r\n\r\n\r\n\r\n}",
  "sourcePath": "C:/Users/benX/Documents/ethereum_course_advanced/myCryptoKitties_master/contracts/kittiesContract.sol",
  "compiler": {
    "name": "solc",
    "version": "0.8.6+commit.11564f7e.Emscripten.clang"
  },
  "schemaVersion": "3.4.1",
  "updatedAt": "2021-07-11T03:55:03.359Z",
  "networkType": "ethereum",
  "devdoc": {
    "kind": "dev",
    "methods": {},
    "version": 1
  },
  "userdoc": {
    "kind": "user",
    "methods": {},
    "version": 1
  }
}