{
  "contractName": "myKittiesContract",
  "abi": [
    {
      "inputs": [],
      "stateMutability": "nonpayable",
      "type": "constructor"
    },
    {
      "anonymous": false,
      "inputs": [
        {
          "indexed": true,
          "internalType": "address",
          "name": "owner",
          "type": "address"
        },
        {
          "indexed": true,
          "internalType": "address",
          "name": "approved",
          "type": "address"
        },
        {
          "indexed": true,
          "internalType": "uint256",
          "name": "tokenId",
          "type": "uint256"
        }
      ],
      "name": "Approval",
      "type": "event"
    },
    {
      "anonymous": false,
      "inputs": [
        {
          "indexed": true,
          "internalType": "address",
          "name": "owner",
          "type": "address"
        },
        {
          "indexed": true,
          "internalType": "address",
          "name": "operator",
          "type": "address"
        },
        {
          "indexed": false,
          "internalType": "bool",
          "name": "approved",
          "type": "bool"
        }
      ],
      "name": "ApprovalForAll",
      "type": "event"
    },
    {
      "anonymous": false,
      "inputs": [
        {
          "indexed": false,
          "internalType": "address",
          "name": "owner",
          "type": "address"
        },
        {
          "indexed": false,
          "internalType": "uint256",
          "name": "newKittenId",
          "type": "uint256"
        },
        {
          "indexed": false,
          "internalType": "uint256",
          "name": "mumId",
          "type": "uint256"
        },
        {
          "indexed": false,
          "internalType": "uint256",
          "name": "dadId",
          "type": "uint256"
        },
        {
          "indexed": false,
          "internalType": "uint256",
          "name": "genes",
          "type": "uint256"
        }
      ],
      "name": "Birth",
      "type": "event"
    },
    {
      "anonymous": false,
      "inputs": [
        {
          "indexed": true,
          "internalType": "address",
          "name": "from",
          "type": "address"
        },
        {
          "indexed": true,
          "internalType": "address",
          "name": "to",
          "type": "address"
        },
        {
          "indexed": true,
          "internalType": "uint256",
          "name": "tokenId",
          "type": "uint256"
        }
      ],
      "name": "Transfer",
      "type": "event"
    },
    {
      "inputs": [],
      "name": "CREATION_LIMIT_GEN0",
      "outputs": [
        {
          "internalType": "uint256",
          "name": "",
          "type": "uint256"
        }
      ],
      "stateMutability": "view",
      "type": "function",
      "constant": true
    },
    {
      "inputs": [],
      "name": "gen0Counter",
      "outputs": [
        {
          "internalType": "uint256",
          "name": "",
          "type": "uint256"
        }
      ],
      "stateMutability": "view",
      "type": "function",
      "constant": true
    },
    {
      "inputs": [
        {
          "internalType": "uint256",
          "name": "",
          "type": "uint256"
        }
      ],
      "name": "kittyIndexToApproved",
      "outputs": [
        {
          "internalType": "address",
          "name": "",
          "type": "address"
        }
      ],
      "stateMutability": "view",
      "type": "function",
      "constant": true
    },
    {
      "inputs": [
        {
          "internalType": "uint256",
          "name": "",
          "type": "uint256"
        }
      ],
      "name": "kittyIndexToOwner",
      "outputs": [
        {
          "internalType": "address",
          "name": "",
          "type": "address"
        }
      ],
      "stateMutability": "view",
      "type": "function",
      "constant": true
    },
    {
      "inputs": [
        {
          "internalType": "uint256",
          "name": "_dadId",
          "type": "uint256"
        },
        {
          "internalType": "uint256",
          "name": "_mumId",
          "type": "uint256"
        }
      ],
      "name": "Breeding",
      "outputs": [
        {
          "internalType": "uint256",
          "name": "",
          "type": "uint256"
        }
      ],
      "stateMutability": "nonpayable",
      "type": "function"
    },
    {
      "inputs": [
        {
          "internalType": "bytes4",
          "name": "_interfaceId",
          "type": "bytes4"
        }
      ],
      "name": "supportsInterface",
      "outputs": [
        {
          "internalType": "bool",
          "name": "",
          "type": "bool"
        }
      ],
      "stateMutability": "pure",
      "type": "function",
      "constant": true
    },
    {
      "inputs": [
        {
          "internalType": "uint256",
          "name": "_genes",
          "type": "uint256"
        }
      ],
      "name": "createKittyGen0",
      "outputs": [
        {
          "internalType": "uint256",
          "name": "",
          "type": "uint256"
        }
      ],
      "stateMutability": "nonpayable",
      "type": "function"
    },
    {
      "inputs": [
        {
          "internalType": "uint256",
          "name": "_id",
          "type": "uint256"
        }
      ],
      "name": "getKitty",
      "outputs": [
        {
          "internalType": "uint256",
          "name": "genes",
          "type": "uint256"
        },
        {
          "internalType": "uint256",
          "name": "birthTime",
          "type": "uint256"
        },
        {
          "internalType": "uint256",
          "name": "mumId",
          "type": "uint256"
        },
        {
          "internalType": "uint256",
          "name": "dadId",
          "type": "uint256"
        },
        {
          "internalType": "uint256",
          "name": "generation",
          "type": "uint256"
        }
      ],
      "stateMutability": "view",
      "type": "function",
      "constant": true
    },
    {
      "inputs": [
        {
          "internalType": "address",
          "name": "owner",
          "type": "address"
        }
      ],
      "name": "getAllCatsFor",
      "outputs": [
        {
          "internalType": "uint256[]",
          "name": "",
          "type": "uint256[]"
        }
      ],
      "stateMutability": "view",
      "type": "function",
      "constant": true
    },
    {
      "inputs": [
        {
          "internalType": "address",
          "name": "owner",
          "type": "address"
        }
      ],
      "name": "balanceOf",
      "outputs": [
        {
          "internalType": "uint256",
          "name": "balance",
          "type": "uint256"
        }
      ],
      "stateMutability": "view",
      "type": "function",
      "constant": true
    },
    {
      "inputs": [],
      "name": "totalSupply",
      "outputs": [
        {
          "internalType": "uint256",
          "name": "total",
          "type": "uint256"
        }
      ],
      "stateMutability": "view",
      "type": "function",
      "constant": true
    },
    {
      "inputs": [],
      "name": "name",
      "outputs": [
        {
          "internalType": "string",
          "name": "tokenName",
          "type": "string"
        }
      ],
      "stateMutability": "pure",
      "type": "function",
      "constant": true
    },
    {
      "inputs": [],
      "name": "symbol",
      "outputs": [
        {
          "internalType": "string",
          "name": "tokenSymbol",
          "type": "string"
        }
      ],
      "stateMutability": "pure",
      "type": "function",
      "constant": true
    },
    {
      "inputs": [
        {
          "internalType": "uint256",
          "name": "tokenId",
          "type": "uint256"
        }
      ],
      "name": "ownerOf",
      "outputs": [
        {
          "internalType": "address",
          "name": "owner",
          "type": "address"
        }
      ],
      "stateMutability": "view",
      "type": "function",
      "constant": true
    },
    {
      "inputs": [
        {
          "internalType": "address",
          "name": "to",
          "type": "address"
        },
        {
          "internalType": "uint256",
          "name": "tokenId",
          "type": "uint256"
        }
      ],
      "name": "transfer",
      "outputs": [],
      "stateMutability": "nonpayable",
      "type": "function"
    },
    {
      "inputs": [
        {
          "internalType": "address",
          "name": "_approved",
          "type": "address"
        },
        {
          "internalType": "uint256",
          "name": "_tokenId",
          "type": "uint256"
        }
      ],
      "name": "approve",
      "outputs": [],
      "stateMutability": "nonpayable",
      "type": "function"
    },
    {
      "inputs": [
        {
          "internalType": "address",
          "name": "_operator",
          "type": "address"
        },
        {
          "internalType": "bool",
          "name": "_approved",
          "type": "bool"
        }
      ],
      "name": "setApprovalForAll",
      "outputs": [],
      "stateMutability": "nonpayable",
      "type": "function"
    },
    {
      "inputs": [
        {
          "internalType": "uint256",
          "name": "_tokenId",
          "type": "uint256"
        }
      ],
      "name": "getApproved",
      "outputs": [
        {
          "internalType": "address",
          "name": "",
          "type": "address"
        }
      ],
      "stateMutability": "view",
      "type": "function",
      "constant": true
    },
    {
      "inputs": [
        {
          "internalType": "address",
          "name": "_owner",
          "type": "address"
        },
        {
          "internalType": "address",
          "name": "_operator",
          "type": "address"
        }
      ],
      "name": "isApprovedForAll",
      "outputs": [
        {
          "internalType": "bool",
          "name": "",
          "type": "bool"
        }
      ],
      "stateMutability": "view",
      "type": "function",
      "constant": true
    },
    {
      "inputs": [
        {
          "internalType": "address",
          "name": "_from",
          "type": "address"
        },
        {
          "internalType": "address",
          "name": "_to",
          "type": "address"
        },
        {
          "internalType": "uint256",
          "name": "_tokenId",
          "type": "uint256"
        }
      ],
      "name": "safeTransferFrom",
      "outputs": [],
      "stateMutability": "nonpayable",
      "type": "function"
    },
    {
      "inputs": [
        {
          "internalType": "address",
          "name": "_from",
          "type": "address"
        },
        {
          "internalType": "address",
          "name": "_to",
          "type": "address"
        },
        {
          "internalType": "uint256",
          "name": "_tokenId",
          "type": "uint256"
        },
        {
          "internalType": "bytes",
          "name": "data",
          "type": "bytes"
        }
      ],
      "name": "safeTransferFrom",
      "outputs": [],
      "stateMutability": "nonpayable",
      "type": "function"
    },
    {
      "inputs": [
        {
          "internalType": "address",
          "name": "user",
          "type": "address"
        }
      ],
      "name": "getAllTokensForUser",
      "outputs": [
        {
          "internalType": "uint256[]",
          "name": "",
          "type": "uint256[]"
        }
      ],
      "stateMutability": "view",
      "type": "function",
      "constant": true
    },
    {
      "inputs": [
        {
          "internalType": "address",
          "name": "_owner",
          "type": "address"
        }
      ],
      "name": "tokensOfOwner",
      "outputs": [
        {
          "internalType": "uint256[]",
          "name": "ownerTokens",
          "type": "uint256[]"
        }
      ],
      "stateMutability": "view",
      "type": "function",
      "constant": true
    },
    {
      "inputs": [
        {
          "internalType": "address",
          "name": "_from",
          "type": "address"
        },
        {
          "internalType": "address",
          "name": "_to",
          "type": "address"
        },
        {
          "internalType": "uint256",
          "name": "_tokenId",
          "type": "uint256"
        }
      ],
      "name": "transferFrom",
      "outputs": [],
      "stateMutability": "nonpayable",
      "type": "function"
    },
    {
      "inputs": [
        {
          "internalType": "address",
          "name": "_claimant",
          "type": "address"
        },
        {
          "internalType": "uint256",
          "name": "tokenId",
          "type": "uint256"
        }
      ],
      "name": "_owns",
      "outputs": [
        {
          "internalType": "bool",
          "name": "",
          "type": "bool"
        }
      ],
      "stateMutability": "view",
      "type": "function",
      "constant": true
    }
  ],
  "bytecode": "0x608060405260006006553480156200001657600080fd5b506200002f60008060008060006200003660201b60201c565b5062000987565b6000806040518060a001604052808581526020014267ffffffffffffffff1681526020018863ffffffff1681526020018763ffffffff1681526020018661ffff16815250905060078190806001815401808255809150506001900390600052602060002090600202016000909190919091506000820151816000015560208201518160010160006101000a81548167ffffffffffffffff021916908367ffffffffffffffff16021790555060408201518160010160086101000a81548163ffffffff021916908363ffffffff160217905550606082015181600101600c6101000a81548163ffffffff021916908363ffffffff16021790555060808201518160010160106101000a81548161ffff021916908361ffff1602179055505050600060016007805490506200016a91906200080a565b90508063ffffffff168114620001b7576040517f08c379a0000000000000000000000000000000000000000000000000000000008152600401620001ae906200077a565b60405180910390fd5b7f0a5311bd2a6608f08a180df2ee7c5946819a649b204b554bb8e39825b2c50ad58482846040015163ffffffff16856060015163ffffffff168660000151604051620002089594939291906200071d565b60405180910390a162000224600085836200023260201b60201c565b809250505095945050505050565b60018060008473ffffffffffffffffffffffffffffffffffffffff1673ffffffffffffffffffffffffffffffffffffffff1681526020019081526020016000206000828254620002839190620007ad565b925050819055508160008083815260200190815260200160002060006101000a81548173ffffffffffffffffffffffffffffffffffffffff021916908373ffffffffffffffffffffffffffffffffffffffff160217905550600460008373ffffffffffffffffffffffffffffffffffffffff1673ffffffffffffffffffffffffffffffffffffffff168152602001908152602001600020819080600181540180825580915050600190039060005260206000200160009091909190915055600073ffffffffffffffffffffffffffffffffffffffff168373ffffffffffffffffffffffffffffffffffffffff1614620004165760018060008573ffffffffffffffffffffffffffffffffffffffff1673ffffffffffffffffffffffffffffffffffffffff1681526020019081526020016000206000828254620003c791906200080a565b92505081905550620003e083826200047660201b60201c565b60008082815260200190815260200160002060006101000a81549073ffffffffffffffffffffffffffffffffffffffff02191690555b808273ffffffffffffffffffffffffffffffffffffffff163373ffffffffffffffffffffffffffffffffffffffff167fddf252ad1be2c89b69c2b068fc378daa952ba7f163c4a11628f55a4df523b3ef60405160405180910390a4505050565b6000600460008473ffffffffffffffffffffffffffffffffffffffff1673ffffffffffffffffffffffffffffffffffffffff1681526020019081526020016000206001600460008673ffffffffffffffffffffffffffffffffffffffff1673ffffffffffffffffffffffffffffffffffffffff168152602001908152602001600020805490506200050891906200080a565b815481106200051c576200051b6200092f565b5b9060005260206000200154905060005b6001600460008673ffffffffffffffffffffffffffffffffffffffff1673ffffffffffffffffffffffffffffffffffffffff168152602001908152602001600020805490506200057d91906200080a565b811015620006ce5782600460008673ffffffffffffffffffffffffffffffffffffffff1673ffffffffffffffffffffffffffffffffffffffff1681526020019081526020016000208281548110620005da57620005d96200092f565b5b90600052602060002001541415620006b85781600460008673ffffffffffffffffffffffffffffffffffffffff1673ffffffffffffffffffffffffffffffffffffffff16815260200190815260200160002082815481106200064157620006406200092f565b5b9060005260206000200181905550600460008573ffffffffffffffffffffffffffffffffffffffff1673ffffffffffffffffffffffffffffffffffffffff168152602001908152602001600020805480620006a157620006a062000900565b5b600190038181906000526020600020016000905590555b8080620006c59062000883565b9150506200052c565b50505050565b620006df8162000845565b82525050565b6000620006f46012836200079c565b915062000701826200095e565b602082019050919050565b620007178162000879565b82525050565b600060a082019050620007346000830188620006d4565b6200074360208301876200070c565b6200075260408301866200070c565b6200076160608301856200070c565b6200077060808301846200070c565b9695505050505050565b600060208201905081810360008301526200079581620006e5565b9050919050565b600082825260208201905092915050565b6000620007ba8262000879565b9150620007c78362000879565b9250827fffffffffffffffffffffffffffffffffffffffffffffffffffffffffffffffff03821115620007ff57620007fe620008d1565b5b828201905092915050565b6000620008178262000879565b9150620008248362000879565b9250828210156200083a5762000839620008d1565b5b828203905092915050565b6000620008528262000859565b9050919050565b600073ffffffffffffffffffffffffffffffffffffffff82169050919050565b6000819050919050565b6000620008908262000879565b91507fffffffffffffffffffffffffffffffffffffffffffffffffffffffffffffffff821415620008c657620008c5620008d1565b5b600182019050919050565b7f4e487b7100000000000000000000000000000000000000000000000000000000600052601160045260246000fd5b7f4e487b7100000000000000000000000000000000000000000000000000000000600052603160045260246000fd5b7f4e487b7100000000000000000000000000000000000000000000000000000000600052603260045260246000fd5b7f342042696c6c696f6e2063617473206d61780000000000000000000000000000600082015250565b61304480620009976000396000f3fe608060405234801561001057600080fd5b50600436106101735760003560e01c80638462151c116100de578063b88d4fde11610097578063e21fd9fc11610071578063e21fd9fc146104a8578063e985e9c5146104d8578063e98b7f4d14610508578063ef5e94aa1461053c57610173565b8063b88d4fde1461042c578063b921a40014610448578063d5a776ca1461047857610173565b80638462151c1461035857806395d89b4114610388578063a22cb465146103a6578063a45f4bfc146103c2578063a9059cbb146103f2578063b48343301461040e57610173565b806342842e0e1161013057806342842e0e1461024c578063481af3d3146102685780635a64aafa146102985780636352211e146102c857806370a08231146102f857806382de8fe91461032857610173565b806301ffc9a71461017857806306fdde03146101a8578063081812fc146101c6578063095ea7b3146101f657806318160ddd1461021257806323b872dd14610230575b600080fd5b610192600480360381019061018d919061214c565b61055a565b60405161019f9190612620565b60405180910390f35b6101b06105fa565b6040516101bd919061263b565b60405180910390f35b6101e060048036038101906101db91906121a6565b610637565b6040516101ed9190612544565b60405180910390f35b610210600480360381019061020b919061210c565b6106bb565b005b61021a610737565b604051610227919061283d565b60405180910390f35b61024a60048036038101906102459190611ff1565b610744565b005b61026660048036038101906102619190611ff1565b6108ae565b005b610282600480360381019061027d91906121a6565b6108be565b60405161028f9190612544565b60405180910390f35b6102b260048036038101906102ad9190611f84565b6108f1565b6040516102bf91906125fe565b60405180910390f35b6102e260048036038101906102dd91906121a6565b610988565b6040516102ef9190612544565b60405180910390f35b610312600480360381019061030d9190611f84565b610a39565b60405161031f919061283d565b60405180910390f35b610342600480360381019061033d9190611f84565b610a82565b60405161034f91906125fe565b60405180910390f35b610372600480360381019061036d9190611f84565b610bdc565b60405161037f91906125fe565b60405180910390f35b610390610d64565b60405161039d919061263b565b60405180910390f35b6103c060048036038101906103bb91906120cc565b610da1565b005b6103dc60048036038101906103d791906121a6565b610f0d565b6040516103e99190612544565b60405180910390f35b61040c6004803603810190610407919061210c565b610f40565b005b610416611041565b604051610423919061283d565b60405180910390f35b61044660048036038101906104419190612044565b611046565b005b610462600480360381019061045d91906121d3565b6111b4565b60405161046f919061283d565b60405180910390f35b610492600480360381019061048d91906121a6565b61130e565b60405161049f919061283d565b60405180910390f35b6104c260048036038101906104bd919061210c565b611384565b6040516104cf9190612620565b60405180910390f35b6104f260048036038101906104ed9190611fb1565b6113ef565b6040516104ff9190612620565b60405180910390f35b610522600480360381019061051d91906121a6565b611483565b604051610533959493929190612858565b60405180910390f35b61054461159e565b604051610551919061283d565b60405180910390f35b60006380ac58cd60e01b7bffffffffffffffffffffffffffffffffffffffffffffffffffffffff1916827bffffffffffffffffffffffffffffffffffffffffffffffffffffffff191614806105f357506301ffc9a760e01b7bffffffffffffffffffffffffffffffffffffffffffffffffffffffff1916827bffffffffffffffffffffffffffffffffffffffffffffffffffffffff1916145b9050919050565b60606040518060400160405280600e81526020017f4d792043727970746f2043617473000000000000000000000000000000000000815250905090565b60006007805490508210610680576040517f08c379a00000000000000000000000000000000000000000000000000000000081526004016106779061273d565b60405180910390fd5b6002600083815260200190815260200160002060009054906101000a900473ffffffffffffffffffffffffffffffffffffffff169050919050565b6106c53382611384565b6106ce57600080fd5b6106d881836115a4565b808273ffffffffffffffffffffffffffffffffffffffff163373ffffffffffffffffffffffffffffffffffffffff167f8c5be1e5ebec7d5bd14f71427d1e84f3dd0314c0f7b2291e5b200ac8c7c3b92560405160405180910390a45050565b6000600780549050905090565b600073ffffffffffffffffffffffffffffffffffffffff168273ffffffffffffffffffffffffffffffffffffffff1614156107b4576040517f08c379a00000000000000000000000000000000000000000000000000000000081526004016107ab9061267d565b60405180910390fd5b60078054905081106107fb576040517f08c379a00000000000000000000000000000000000000000000000000000000081526004016107f29061273d565b60405180910390fd5b6108058382611384565b610844576040517f08c379a000000000000000000000000000000000000000000000000000000000815260040161083b906127bd565b60405180910390fd5b8273ffffffffffffffffffffffffffffffffffffffff163373ffffffffffffffffffffffffffffffffffffffff161480610884575061088383336113ef565b5b80610895575061089433826115fa565b5b61089e57600080fd5b6108a9838383611666565b505050565b6108b98383836108ae565b505050565b60026020528060005260406000206000915054906101000a900473ffffffffffffffffffffffffffffffffffffffff1681565b6060600460008373ffffffffffffffffffffffffffffffffffffffff1673ffffffffffffffffffffffffffffffffffffffff16815260200190815260200160002080548060200260200160405190810160405280929190818152602001828054801561097c57602002820191906000526020600020905b815481526020019060010190808311610968575b50505050509050919050565b60008060008084815260200190815260200160002060009054906101000a900473ffffffffffffffffffffffffffffffffffffffff169050600073ffffffffffffffffffffffffffffffffffffffff168173ffffffffffffffffffffffffffffffffffffffff161415610a30576040517f08c379a0000000000000000000000000000000000000000000000000000000008152600401610a279061275d565b60405180910390fd5b80915050919050565b6000600160008373ffffffffffffffffffffffffffffffffffffffff1673ffffffffffffffffffffffffffffffffffffffff168152602001908152602001600020549050919050565b60606000610a8f83610a39565b90506000811415610aec57600067ffffffffffffffff811115610ab557610ab4612c0e565b5b604051908082528060200260200182016040528015610ae35781602001602082028036833780820191505090505b50915050610bd7565b60008167ffffffffffffffff811115610b0857610b07612c0e565b5b604051908082528060200260200182016040528015610b365781602001602082028036833780820191505090505b50905060006006549050600080600090505b82811015610bce578673ffffffffffffffffffffffffffffffffffffffff16610b7082610988565b73ffffffffffffffffffffffffffffffffffffffff161415610bbb5780848381518110610ba057610b9f612bdf565b5b6020026020010181815250508180610bb790612ad8565b9250505b8080610bc690612ad8565b915050610b48565b83955050505050505b919050565b60606000610be983610a39565b90506000811415610c4657600067ffffffffffffffff811115610c0f57610c0e612c0e565b5b604051908082528060200260200182016040528015610c3d5781602001602082028036833780820191505090505b50915050610d5f565b60008167ffffffffffffffff811115610c6257610c61612c0e565b5b604051908082528060200260200182016040528015610c905781602001602082028036833780820191505090505b5090506000610c9d610737565b9050600080600190505b828111610d56578673ffffffffffffffffffffffffffffffffffffffff1660008083815260200190815260200160002060009054906101000a900473ffffffffffffffffffffffffffffffffffffffff1673ffffffffffffffffffffffffffffffffffffffff161415610d435780848381518110610d2857610d27612bdf565b5b6020026020010181815250508180610d3f90612ad8565b9250505b8080610d4e90612ad8565b915050610ca7565b83955050505050505b919050565b60606040518060400160405280600481526020017f4d43524300000000000000000000000000000000000000000000000000000000815250905090565b3373ffffffffffffffffffffffffffffffffffffffff168273ffffffffffffffffffffffffffffffffffffffff161415610e10576040517f08c379a0000000000000000000000000000000000000000000000000000000008152600401610e07906127fd565b60405180910390fd5b80600360003373ffffffffffffffffffffffffffffffffffffffff1673ffffffffffffffffffffffffffffffffffffffff16815260200190815260200160002060008473ffffffffffffffffffffffffffffffffffffffff1673ffffffffffffffffffffffffffffffffffffffff16815260200190815260200160002060006101000a81548160ff0219169083151502179055508173ffffffffffffffffffffffffffffffffffffffff163373ffffffffffffffffffffffffffffffffffffffff167f17307eab39ab6107e8899845ad3d59bd9653f200f220920489ca2b5937696c3183604051610f019190612620565b60405180910390a35050565b60006020528060005260406000206000915054906101000a900473ffffffffffffffffffffffffffffffffffffffff1681565b600073ffffffffffffffffffffffffffffffffffffffff168273ffffffffffffffffffffffffffffffffffffffff161415610fb0576040517f08c379a0000000000000000000000000000000000000000000000000000000008152600401610fa7906126bd565b60405180910390fd5b3073ffffffffffffffffffffffffffffffffffffffff168273ffffffffffffffffffffffffffffffffffffffff16141561101f576040517f08c379a00000000000000000000000000000000000000000000000000000000081526004016110169061265d565b60405180910390fd5b6110293382611384565b61103257600080fd5b61103d338383611666565b5050565b600a81565b600073ffffffffffffffffffffffffffffffffffffffff168473ffffffffffffffffffffffffffffffffffffffff1614156110b6576040517f08c379a00000000000000000000000000000000000000000000000000000000081526004016110ad9061277d565b60405180910390fd5b60078054905083106110fd576040517f08c379a00000000000000000000000000000000000000000000000000000000081526004016110f4906126fd565b60405180910390fd5b6111078584611384565b611146576040517f08c379a000000000000000000000000000000000000000000000000000000000815260040161113d906126dd565b60405180910390fd5b8473ffffffffffffffffffffffffffffffffffffffff163373ffffffffffffffffffffffffffffffffffffffff161480611186575061118585856113ef565b5b80611197575061119633846115fa565b5b6111a057600080fd5b6111ad858585858561189d565b5050505050565b60006111c03384611384565b80156111d257506111d13383611384565b5b611211576040517f08c379a00000000000000000000000000000000000000000000000000000000081526004016112089061271d565b60405180910390fd5b82821415611254576040517f08c379a000000000000000000000000000000000000000000000000000000000815260040161124b9061279d565b60405180910390fd5b60008061126085611483565b9450505050915060008061127386611483565b9450505050915060006112868584611908565b90506000828510156112b55760018361129f919061291c565b90506002816112ae9190612972565b90506112f1565b828511156112e0576001856112ca919061291c565b90506002816112d99190612972565b90506112f0565b6001836112ed919061291c565b90505b5b6112fe888a83853361195c565b5080965050505050505092915050565b6000600a6005541115611356576040517f08c379a000000000000000000000000000000000000000000000000000000000815260040161134d9061269d565b60405180910390fd5b6005600081548092919061136990612ad8565b919050555061137d6000806000853361195c565b9050919050565b60008273ffffffffffffffffffffffffffffffffffffffff1660008084815260200190815260200160002060009054906101000a900473ffffffffffffffffffffffffffffffffffffffff1673ffffffffffffffffffffffffffffffffffffffff1614905092915050565b6000600360008473ffffffffffffffffffffffffffffffffffffffff1673ffffffffffffffffffffffffffffffffffffffff16815260200190815260200160002060008373ffffffffffffffffffffffffffffffffffffffff1673ffffffffffffffffffffffffffffffffffffffff16815260200190815260200160002060009054906101000a900460ff16905092915050565b600080600080600080600787815481106114a05761149f612bdf565b5b9060005260206000209060020201905060008160010160009054906101000a900467ffffffffffffffff1667ffffffffffffffff1611611515576040517f08c379a000000000000000000000000000000000000000000000000000000000815260040161150c9061281d565b60405180910390fd5b8060010160009054906101000a900467ffffffffffffffff1667ffffffffffffffff1694508060010160089054906101000a900463ffffffff1663ffffffff16935080600101600c9054906101000a900463ffffffff1663ffffffff1692508060010160109054906101000a900461ffff1661ffff169150806000015495505091939590929450565b60055481565b806002600084815260200190815260200160002060006101000a81548173ffffffffffffffffffffffffffffffffffffffff021916908373ffffffffffffffffffffffffffffffffffffffff1602179055505050565b60008273ffffffffffffffffffffffffffffffffffffffff166002600084815260200190815260200160002060009054906101000a900473ffffffffffffffffffffffffffffffffffffffff1673ffffffffffffffffffffffffffffffffffffffff1614905092915050565b60018060008473ffffffffffffffffffffffffffffffffffffffff1673ffffffffffffffffffffffffffffffffffffffff16815260200190815260200160002060008282546116b5919061291c565b925050819055508160008083815260200190815260200160002060006101000a81548173ffffffffffffffffffffffffffffffffffffffff021916908373ffffffffffffffffffffffffffffffffffffffff160217905550600460008373ffffffffffffffffffffffffffffffffffffffff1673ffffffffffffffffffffffffffffffffffffffff168152602001908152602001600020819080600181540180825580915050600190039060005260206000200160009091909190915055600073ffffffffffffffffffffffffffffffffffffffff168373ffffffffffffffffffffffffffffffffffffffff161461183d5760018060008573ffffffffffffffffffffffffffffffffffffffff1673ffffffffffffffffffffffffffffffffffffffff16815260200190815260200160002060008282546117f691906129fd565b925050819055506118078382611b49565b60008082815260200190815260200160002060006101000a81549073ffffffffffffffffffffffffffffffffffffffff02191690555b808273ffffffffffffffffffffffffffffffffffffffff163373ffffffffffffffffffffffffffffffffffffffff167fddf252ad1be2c89b69c2b068fc378daa952ba7f163c4a11628f55a4df523b3ef60405160405180910390a4505050565b6118a8858585611666565b6118f885858585858080601f016020809104026020016040519081016040528093929190818152602001838380828437600081840152601f19601f82011690508083019250505050505050611d92565b61190157600080fd5b5050505050565b6000806305f5e1008461191b9190612972565b905060006305f5e1008461192f9190612b21565b90506000816305f5e1008461194491906129a3565b61194e919061291c565b905080935050505092915050565b6000806040518060a001604052808581526020014267ffffffffffffffff1681526020018863ffffffff1681526020018763ffffffff1681526020018661ffff16815250905060078190806001815401808255809150506001900390600052602060002090600202016000909190919091506000820151816000015560208201518160010160006101000a81548167ffffffffffffffff021916908367ffffffffffffffff16021790555060408201518160010160086101000a81548163ffffffff021916908363ffffffff160217905550606082015181600101600c6101000a81548163ffffffff021916908363ffffffff16021790555060808201518160010160106101000a81548161ffff021916908361ffff160217905550505060006001600780549050611a8e91906129fd565b90508063ffffffff168114611ad8576040517f08c379a0000000000000000000000000000000000000000000000000000000008152600401611acf906127dd565b60405180910390fd5b7f0a5311bd2a6608f08a180df2ee7c5946819a649b204b554bb8e39825b2c50ad58482846040015163ffffffff16856060015163ffffffff168660000151604051611b279594939291906125ab565b60405180910390a1611b3b60008583611666565b809250505095945050505050565b6000600460008473ffffffffffffffffffffffffffffffffffffffff1673ffffffffffffffffffffffffffffffffffffffff1681526020019081526020016000206001600460008673ffffffffffffffffffffffffffffffffffffffff1673ffffffffffffffffffffffffffffffffffffffff16815260200190815260200160002080549050611bd991906129fd565b81548110611bea57611be9612bdf565b5b9060005260206000200154905060005b6001600460008673ffffffffffffffffffffffffffffffffffffffff1673ffffffffffffffffffffffffffffffffffffffff16815260200190815260200160002080549050611c4991906129fd565b811015611d8c5782600460008673ffffffffffffffffffffffffffffffffffffffff1673ffffffffffffffffffffffffffffffffffffffff1681526020019081526020016000208281548110611ca257611ca1612bdf565b5b90600052602060002001541415611d795781600460008673ffffffffffffffffffffffffffffffffffffffff1673ffffffffffffffffffffffffffffffffffffffff1681526020019081526020016000208281548110611d0557611d04612bdf565b5b9060005260206000200181905550600460008573ffffffffffffffffffffffffffffffffffffffff1673ffffffffffffffffffffffffffffffffffffffff168152602001908152602001600020805480611d6257611d61612bb0565b5b600190038181906000526020600020016000905590555b8080611d8490612ad8565b915050611bfa565b50505050565b6000611d9d84611eac565b611daa5760019050611ea4565b60008473ffffffffffffffffffffffffffffffffffffffff1663150b7a02338887876040518563ffffffff1660e01b8152600401611deb949392919061255f565b602060405180830381600087803b158015611e0557600080fd5b505af1158015611e19573d6000803e3d6000fd5b505050506040513d601f19601f82011682018060405250810190611e3d9190612179565b90507f150b7a023d4804d13e8c85fb27262cb750cf6ba9f9dd3bb30d90f482ceeb4b1f7bffffffffffffffffffffffffffffffffffffffffffffffffffffffff1916817bffffffffffffffffffffffffffffffffffffffffffffffffffffffff1916149150505b949350505050565b600080823b905060008163ffffffff1611915050919050565b600081359050611ed481612fb2565b92915050565b600081359050611ee981612fc9565b92915050565b600081359050611efe81612fe0565b92915050565b600081519050611f1381612fe0565b92915050565b60008083601f840112611f2f57611f2e612c42565b5b8235905067ffffffffffffffff811115611f4c57611f4b612c3d565b5b602083019150836001820283011115611f6857611f67612c47565b5b9250929050565b600081359050611f7e81612ff7565b92915050565b600060208284031215611f9a57611f99612c51565b5b6000611fa884828501611ec5565b91505092915050565b60008060408385031215611fc857611fc7612c51565b5b6000611fd685828601611ec5565b9250506020611fe785828601611ec5565b9150509250929050565b60008060006060848603121561200a57612009612c51565b5b600061201886828701611ec5565b935050602061202986828701611ec5565b925050604061203a86828701611f6f565b9150509250925092565b6000806000806000608086880312156120605761205f612c51565b5b600061206e88828901611ec5565b955050602061207f88828901611ec5565b945050604061209088828901611f6f565b935050606086013567ffffffffffffffff8111156120b1576120b0612c4c565b5b6120bd88828901611f19565b92509250509295509295909350565b600080604083850312156120e3576120e2612c51565b5b60006120f185828601611ec5565b925050602061210285828601611eda565b9150509250929050565b6000806040838503121561212357612122612c51565b5b600061213185828601611ec5565b925050602061214285828601611f6f565b9150509250929050565b60006020828403121561216257612161612c51565b5b600061217084828501611eef565b91505092915050565b60006020828403121561218f5761218e612c51565b5b600061219d84828501611f04565b91505092915050565b6000602082840312156121bc576121bb612c51565b5b60006121ca84828501611f6f565b91505092915050565b600080604083850312156121ea576121e9612c51565b5b60006121f885828601611f6f565b925050602061220985828601611f6f565b9150509250929050565b600061221f8383612526565b60208301905092915050565b61223481612a31565b82525050565b6000612245826128bb565b61224f81856128e9565b935061225a836128ab565b8060005b8381101561228b5781516122728882612213565b975061227d836128dc565b92505060018101905061225e565b5085935050505092915050565b6122a181612a43565b82525050565b60006122b2826128c6565b6122bc81856128fa565b93506122cc818560208601612aa5565b6122d581612c56565b840191505092915050565b60006122eb826128d1565b6122f5818561290b565b9350612305818560208601612aa5565b61230e81612c56565b840191505092915050565b6000612326601c8361290b565b915061233182612c67565b602082019050919050565b600061234960208361290b565b915061235482612c90565b602082019050919050565b600061236c602e8361290b565b915061237782612cb9565b604082019050919050565b600061238f60248361290b565b915061239a82612d08565b604082019050919050565b60006123b260258361290b565b91506123bd82612d57565b604082019050919050565b60006123d560148361290b565b91506123e082612da6565b602082019050919050565b60006123f8602a8361290b565b915061240382612dcf565b604082019050919050565b600061241b60108361290b565b915061242682612e1e565b602082019050919050565b600061243e60298361290b565b915061244982612e47565b604082019050919050565b6000612461601d8361290b565b915061246c82612e96565b602082019050919050565b6000612484601f8361290b565b915061248f82612ebf565b602082019050919050565b60006124a760138361290b565b91506124b282612ee8565b602082019050919050565b60006124ca60128361290b565b91506124d582612f11565b602082019050919050565b60006124ed60308361290b565b91506124f882612f3a565b604082019050919050565b600061251060178361290b565b915061251b82612f89565b602082019050919050565b61252f81612a9b565b82525050565b61253e81612a9b565b82525050565b6000602082019050612559600083018461222b565b92915050565b6000608082019050612574600083018761222b565b612581602083018661222b565b61258e6040830185612535565b81810360608301526125a081846122a7565b905095945050505050565b600060a0820190506125c0600083018861222b565b6125cd6020830187612535565b6125da6040830186612535565b6125e76060830185612535565b6125f46080830184612535565b9695505050505050565b60006020820190508181036000830152612618818461223a565b905092915050565b60006020820190506126356000830184612298565b92915050565b6000602082019050818103600083015261265581846122e0565b905092915050565b6000602082019050818103600083015261267681612319565b9050919050565b600060208201905081810360008301526126968161233c565b9050919050565b600060208201905081810360008301526126b68161235f565b9050919050565b600060208201905081810360008301526126d681612382565b9050919050565b600060208201905081810360008301526126f6816123a5565b9050919050565b60006020820190508181036000830152612716816123c8565b9050919050565b60006020820190508181036000830152612736816123eb565b9050919050565b600060208201905081810360008301526127568161240e565b9050919050565b6000602082019050818103600083015261277681612431565b9050919050565b6000602082019050818103600083015261279681612454565b9050919050565b600060208201905081810360008301526127b681612477565b9050919050565b600060208201905081810360008301526127d68161249a565b9050919050565b600060208201905081810360008301526127f6816124bd565b9050919050565b60006020820190508181036000830152612816816124e0565b9050919050565b6000602082019050818103600083015261283681612503565b9050919050565b60006020820190506128526000830184612535565b92915050565b600060a08201905061286d6000830188612535565b61287a6020830187612535565b6128876040830186612535565b6128946060830185612535565b6128a16080830184612535565b9695505050505050565b6000819050602082019050919050565b600081519050919050565b600081519050919050565b600081519050919050565b6000602082019050919050565b600082825260208201905092915050565b600082825260208201905092915050565b600082825260208201905092915050565b600061292782612a9b565b915061293283612a9b565b9250827fffffffffffffffffffffffffffffffffffffffffffffffffffffffffffffffff0382111561296757612966612b52565b5b828201905092915050565b600061297d82612a9b565b915061298883612a9b565b92508261299857612997612b81565b5b828204905092915050565b60006129ae82612a9b565b91506129b983612a9b565b9250817fffffffffffffffffffffffffffffffffffffffffffffffffffffffffffffffff04831182151516156129f2576129f1612b52565b5b828202905092915050565b6000612a0882612a9b565b9150612a1383612a9b565b925082821015612a2657612a25612b52565b5b828203905092915050565b6000612a3c82612a7b565b9050919050565b60008115159050919050565b60007fffffffff0000000000000000000000000000000000000000000000000000000082169050919050565b600073ffffffffffffffffffffffffffffffffffffffff82169050919050565b6000819050919050565b60005b83811015612ac3578082015181840152602081019050612aa8565b83811115612ad2576000848401525b50505050565b6000612ae382612a9b565b91507fffffffffffffffffffffffffffffffffffffffffffffffffffffffffffffffff821415612b1657612b15612b52565b5b600182019050919050565b6000612b2c82612a9b565b9150612b3783612a9b565b925082612b4757612b46612b81565b5b828206905092915050565b7f4e487b7100000000000000000000000000000000000000000000000000000000600052601160045260246000fd5b7f4e487b7100000000000000000000000000000000000000000000000000000000600052601260045260246000fd5b7f4e487b7100000000000000000000000000000000000000000000000000000000600052603160045260246000fd5b7f4e487b7100000000000000000000000000000000000000000000000000000000600052603260045260246000fd5b7f4e487b7100000000000000000000000000000000000000000000000000000000600052604160045260246000fd5b600080fd5b600080fd5b600080fd5b600080fd5b600080fd5b6000601f19601f8301169050919050565b7f7472616e7366657220746f20746865207a65726f206164647265737300000000600082015250565b7f546f2061646472657373206973206e6f742061207a65726f2061646472657373600082015250565b7f47656e20302073686f756c64206265206c657373207468616e2063726561746960008201527f6f6e206c696d69742067656e2030000000000000000000000000000000000000602082015250565b7f4552433732313a207472616e7366657220746f20746865207a65726f2061646460008201527f7265737300000000000000000000000000000000000000000000000000000000602082015250565b7f4e6f7420612076616c6964204e46542c206e6f7420746865206f776e6572206f60008201527f66204e4654000000000000000000000000000000000000000000000000000000602082015250565b7f546f6b656e20646f6573206e6f74206578697374000000000000000000000000600082015250565b7f596f75206d75737420626520746865206f776e6572206f6620626f7468206f6660008201527f20796f7572206361747300000000000000000000000000000000000000000000602082015250565b7f546f6b656e206d75737420657869737400000000000000000000000000000000600082015250565b7f4552433732313a206f776e657220717565727920666f72206e6f6e657869737460008201527f656e7420746f6b656e0000000000000000000000000000000000000000000000602082015250565b7f4d757374207472616e7366657220746f207a65726f2061646472657373000000600082015250565b7f546865206361742063616e277420726570726f647563652068696d73656c6600600082015250565b7f46726f6d206f776e732074686520746f6b656e00000000000000000000000000600082015250565b7f342042696c6c696f6e2063617473206d61780000000000000000000000000000600082015250565b7f4552433732313a20617070726f766520746f2063616c6c65722c20796f75206160008201527f7265206e6f7420746865206f776e657200000000000000000000000000000000602082015250565b7f746865206b6974747920646f65736e2774206578697374000000000000000000600082015250565b612fbb81612a31565b8114612fc657600080fd5b50565b612fd281612a43565b8114612fdd57600080fd5b50565b612fe981612a4f565b8114612ff457600080fd5b50565b61300081612a9b565b811461300b57600080fd5b5056fea26469706673582212202d9730b52877014bb4e1ce038cd453809cf3d2302339854249e1810de243dc5364736f6c63430008070033",
  "immutableReferences": {},
  "source": "// SPDX-License-Identifier: MIT\r\npragma solidity ^0.8.0;\r\n\r\n//import \"./IERC721.sol\";\r\n\r\nimport \"@openzeppelin/contracts/token/ERC721/IERC721Receiver.sol\";\r\n//import \"./KittyMarketPlace.sol\";\r\n\r\n\r\ncontract myKittiesContract {\r\n\r\n  // Mapping from token ID to owner address\r\n  mapping(uint256 => address) public kittyIndexToOwner; //owners Of TokenId\r\n\r\n  // Mapping owner address to token count\r\n  mapping(address => uint256) ownershipTokenCount;\r\n\r\n  // Mapping from token ID to approved address\r\n  mapping(uint256 => address) public kittyIndexToApproved;\r\n\r\n  // MYADDR => OPERATOR => TRUE/FALSE\r\n  // _operatorApprovals[MYADDR][OPERATORADDR] = true or false;\r\n  // _operatorApprovals[MYADDR][BOBS_ADDR] = true;\r\n  // _operatorApprovals[MYADDR][ALICE_ADDR] = false;\r\n  // _operatorApprovals[MYADDR][LISA_ADDR] = true;\r\n\r\n  // Mapping from owner to operator approvals\r\n  mapping(address => mapping(address => bool)) private _operatorApprovals;\r\n\r\n  //an address to a number of cats in an array\r\n  mapping(address => uint256[]) ownerToCats;\r\n\r\n  bytes4 private constant _INTERFACE_TO_ERC721 = 0x80ac58cd;\r\n  bytes4 private constant _INTERFACE_TO_ERC165 = 0x01ffc9a7;\r\n\r\n  event Transfer(address indexed from, address indexed to, uint256 indexed tokenId);\r\n  event ApprovalForAll(address indexed owner, address indexed operator, bool approved);\r\n  event Approval(address indexed owner, address indexed approved, uint256 indexed tokenId);\r\n  event Birth(address owner, uint256 newKittenId, uint256 mumId, uint256 dadId, uint256 genes);\r\n\r\n  string constant _name = \"My Crypto Cats\";\r\n  string constant _symbol = \"MCRC\";\r\n  uint256 public constant CREATION_LIMIT_GEN0 = 10;\r\n  uint256 public gen0Counter;\r\n  uint256 nextId = 0;\r\n\r\n  // 11 22 33 44 | 44 33 22 1 1\r\n\r\n  // this cat will just take up space, cannot be transacted in any way\r\n  // prevents buyKitty function require statement resulting to an empty array; being true\r\n  constructor() {\r\n    // We are creating the first kitty at index 0 since an empty array, does take up space such as integer[0]\r\n    _createKitty(0, 0, 0, uint256(0), address(0)); // Filip uint256(-1) but it fails\r\n    // mumId is 0, dadId is 0, generation is 0, genes should be -1 but it errored, address 0 is owner but it's burned\r\n  }\r\n\r\n  function Breeding(uint256 _dadId, uint256 _mumId) public returns (uint256) {\r\n    //Check ownership\r\n    //Use new DNA\r\n    //Figure out the Generation\r\n    //Create new cat with new properties, give it to msg.sender\r\n    require(_owns(msg.sender, _dadId) && _owns(msg.sender, _mumId), \"You must be the owner of both of your cats\");\r\n    require(_mumId != _dadId, \"The cat can't reproduce himself\");\r\n\r\n    // reduce memory so use commas\r\n    // getKitty = genes, birthTime, mumId, dadId, generation\r\n    ( uint256 dadDna, , , ,uint256 DadGeneration ) = getKitty(_dadId);\r\n\r\n    ( uint256 mumDna, , , ,uint256 MumGeneration ) = getKitty(_mumId);\r\n\r\n    uint256 newDna = _mixDna(dadDna, mumDna);\r\n\r\n    uint kidGen = 0;\r\n\r\n    if (DadGeneration < MumGeneration ) {\r\n        kidGen = MumGeneration + 1;\r\n        kidGen /= 2;\r\n    }\r\n    else if (DadGeneration > MumGeneration ) {\r\n        kidGen = DadGeneration + 1;\r\n        kidGen /= 2;\r\n    } else { // if both generations are the same, we add plus one\r\n      kidGen = MumGeneration + 1;\r\n\r\n    }\r\n  \r\n    _createKitty(_mumId, _dadId, kidGen, newDna, msg.sender);\r\n\r\n    return kidGen;\r\n \r\n   \r\n  }\r\n\r\n\r\n  function supportsInterface(bytes4 _interfaceId) external pure returns (bool) {\r\n    return(_interfaceId == _INTERFACE_TO_ERC721 || _interfaceId == _INTERFACE_TO_ERC165);\r\n  }\r\n\r\n\r\n  bytes4 internal constant MAGIC_ERC721_RECEIVED = bytes4(keccak256(\"onERC721Received(address,address,uint256,bytes)\"));\r\n\r\n  struct Kitty {\r\n\r\n      uint256 genes;\r\n      uint64 birthTime;\r\n      uint32 mumId;\r\n      uint32 dadId;\r\n      uint16 generation;\r\n  }\r\n\r\n\r\n  Kitty[] kitties;\r\n\r\n\r\n  function createKittyGen0(uint256 _genes) public returns(uint256) {\r\n    require(gen0Counter <= CREATION_LIMIT_GEN0, \"Gen 0 should be less than creation limit gen 0\");\r\n    \r\n    gen0Counter ++;\r\n\r\n    // mum, dad and generation is 0\r\n    // Gen0 have no owners; they are owned by the contract\r\n    \r\n    return _createKitty(0,0,0, _genes, msg.sender); // msg.sender could also be -- address(this) - we are giving cats to owner\r\n\r\n    // Gen0 have no owners they are own by the contract\r\n    //uint256 tokenId = _createKitty(0, 0, 0, _genes, msg.sender);\r\n    //setOffer(0.2 ether, tokenId);\r\n  }\r\n\r\n\r\n  // create cats by generation and by breeding\r\n  // returns cat id\r\n  function _createKitty(\r\n    uint256 _mumId,\r\n    uint256 _dadId,\r\n    uint256 _generation, //1,2,3..etc\r\n    uint256 _genes, // recipient\r\n    address owner\r\n  ) internal returns(uint256) {\r\n    Kitty memory _kitty = Kitty ({\r\n      genes: _genes,\r\n      birthTime: uint64(block.timestamp),\r\n      mumId: uint32(_mumId),\r\n      dadId: uint32(_dadId),\r\n      generation: uint16(_generation)\r\n    });\r\n\r\n    kitties.push(_kitty); // returns the size of array - 1 for the first cat (old)\r\n\r\n    uint256 newKittenId = kitties.length -1; // 0-1\r\n\r\n\r\n    // It's probably never going to happen, 4 billion cats is A LOT, but\r\n    // let's just be 100% sure we never let this happen.\r\n    require(newKittenId == uint256(uint32(newKittenId)), \"4 Billion cats max\");\r\n\r\n    emit Birth(owner, newKittenId, uint256(_kitty.mumId), uint256(_kitty.dadId), _kitty.genes);\r\n\r\n\r\n    // This will assign ownership, and also emit the Transfer event as\r\n    // per ERC721 draft\r\n    _transfer(address(0), owner, newKittenId);\r\n\r\n    return newKittenId; //returns 256 bit integer\r\n\r\n  }\r\n\r\n\r\n/*\r\n  function myGetKitty(uint256 tokenId) public view returns (\r\n    uint256 birthTime, // re-order like Filips if I want to use it\r\n    uint256 mumId,\r\n    uint256 dadId,\r\n    uint256 generation,\r\n    uint256 genes\r\n  ) {\r\n\r\n    Kitty storage returnKitty = kitties[tokenId];\r\n    return (uint256(returnKitty.birthTime), uint256(returnKitty.mumId), uint256(returnKitty.dadId), uint256(returnKitty.generation), uint256(returnKitty.genes));\r\n  }\r\n*/\r\n\r\n  function getKitty(uint256 _id)\r\n    public\r\n    view\r\n    returns (\r\n    uint256 genes,\r\n    uint256 birthTime,\r\n    uint256 mumId,\r\n    uint256 dadId,\r\n    uint256 generation\r\n  ) {\r\n    Kitty storage kitty = kitties[_id];\r\n\r\n    require(kitty.birthTime > 0, \"the kitty doesn't exist\");\r\n\r\n    birthTime = uint256(kitty.birthTime);\r\n    mumId = uint256(kitty.mumId);\r\n    dadId = uint256(kitty.dadId);\r\n    generation = uint256(kitty.generation);\r\n    genes = kitty.genes;\r\n  }\r\n\r\n\r\n  function getAllCatsFor(address owner) public view returns (uint[] memory) {\r\n    return ownerToCats[owner];\r\n  }\r\n  \r\n\r\n  function balanceOf(address owner) public view returns (uint256 balance) {\r\n    return ownershipTokenCount[owner];\r\n  }\r\n\r\n\r\n  function totalSupply() public view returns (uint256 total) {\r\n    return kitties.length;\r\n  }\r\n\r\n\r\n  function name() external pure returns (string memory tokenName) {\r\n    return _name;\r\n  }\r\n\r\n\r\n  function symbol() external pure returns (string memory tokenSymbol) {\r\n    return _symbol;\r\n  }\r\n\r\n  // private functions are cheaper but public allows to execute function from within this contract\r\n  function ownerOf(uint256 tokenId) public view returns (address owner) {\r\n    address _owner = kittyIndexToOwner[tokenId]; // local variable \r\n    require(_owner != address(0), \"ERC721: owner query for nonexistent token\");\r\n\r\n    return _owner;\r\n  }\r\n\r\n\r\n  // this transfer function is not used -- the mint function might be better suited for minting NFTs\r\n  function transfer(address to, uint256 tokenId) external {\r\n    require(to != address(0), \"ERC721: transfer to the zero address\");\r\n    require(to != address(this), \"transfer to the zero address\");\r\n    // `tokenId` token must be owned by `msg.sender`.\r\n    require(_owns(msg.sender, tokenId));\r\n\r\n    _transfer(msg.sender, to, tokenId);\r\n\r\n  }\r\n\r\n\r\n  function approve(address _approved, uint256 _tokenId) public {\r\n    ///  Throws unless `msg.sender` is the current NFT owner, or an authorized\r\n    ///  operator of the current owner.\r\n    require(_owns(msg.sender, _tokenId));\r\n\r\n    _approve(_tokenId, _approved);\r\n    emit Approval(msg.sender, _approved, _tokenId);\r\n\r\n  }\r\n\r\n\r\n  function setApprovalForAll(address _operator, bool _approved) public {\r\n    require(_operator != msg.sender, \"ERC721: approve to caller, you are not the owner\");\r\n\r\n    _operatorApprovals[msg.sender][_operator] = _approved; \r\n    emit ApprovalForAll(msg.sender, _operator, _approved);\r\n\r\n  }\r\n\r\n\r\n  function getApproved(uint256 _tokenId) public view returns (address) {\r\n    require(_tokenId < kitties.length, \"Token must exist\"); // getter function\r\n\r\n    return kittyIndexToApproved[_tokenId];\r\n  }\r\n\r\n\r\n  function isApprovedForAll(address _owner, address _operator) public view returns (bool) {\r\n    return _operatorApprovals[_owner][_operator];\r\n  }\r\n\r\n\r\n  function safeTransferFrom(address _from, address _to, uint256 _tokenId) public {\r\n    safeTransferFrom(_from, _to, _tokenId);\r\n  }\r\n\r\n\r\n  function safeTransferFrom(address _from, address _to, uint256 _tokenId, bytes calldata data) external {\r\n    require(_to != address(0), \"Must transfer to zero address\");\r\n    require(_tokenId < kitties.length, \"Token does not exist\");\r\n    require(_owns(_from, _tokenId), \"Not a valid NFT, not the owner of NFT\");\r\n\r\n     //spender is _from (DEX) or spender is approved for tokenId or spender is operator for _from\r\n    require(msg.sender == _from || isApprovedForAll(_from, _to) || _approvedFor(msg.sender, _tokenId));\r\n\r\n    _safeTransfer(_from, _to, _tokenId, data);\r\n\r\n  }\r\n\r\n\r\n  function getAllTokensForUser(address user) public view returns(uint256[] memory) {\r\n    uint256 tokenCount = balanceOf(user);\r\n    if(tokenCount == 0) {\r\n      return new uint256[](0);\r\n    } else {\r\n      //how many tokens in total?\r\n      uint256[] memory result = new uint256[](tokenCount);\r\n      uint256 totalCats = nextId;\r\n      uint256 resultIndex;\r\n      uint256 i;\r\n      for(i = 0; i < totalCats; i++) {\r\n        //check\r\n        if(ownerOf(i) == user) {\r\n          result[resultIndex] = i;\r\n          resultIndex++;\r\n        }\r\n      }\r\n      return result;\r\n    }  \r\n  }\r\n  \r\n\r\n  function tokensOfOwner(address _owner) public view returns(uint256[] memory ownerTokens) {\r\n    uint256 tokenCount = balanceOf(_owner);\r\n\r\n    if (tokenCount == 0) {\r\n      return new uint256[](0);\r\n    } else {\r\n      uint256[] memory result = new uint256[](tokenCount);\r\n      uint256 totalCats = totalSupply();\r\n      uint256 resultIndex = 0;\r\n\r\n      uint256 catId;\r\n\r\n      for (catId = 1; catId <= totalCats; catId++) {\r\n        if (kittyIndexToOwner[catId] == _owner) {\r\n          result[resultIndex] = catId;\r\n          resultIndex++;\r\n        }\r\n      }\r\n\r\n      return result;\r\n    }   \r\n  }\r\n\r\n\r\n  //Smart Contract Programmer(youTuber) ...\r\n  //transferFrom - how it is used:\r\n  //trader calls approve(dexAddress, amount)\r\n  //dex calls transferFrom(traderAddress, dexAddress, amount)\r\n\r\n  function transferFrom(address _from, address _to, uint256 _tokenId) public {\r\n    /// Throws if `_to` is the zero address. \r\n    /// Throws if `_tokenId` is not a valid NFT.\r\n\r\n    /// @dev Throws unless `msg.sender` is the current owner, an authorized\r\n    ///  operator, or the approved address for this NFT.\r\n     \r\n    require(_to != address(0), \"To address is not a zero address\");\r\n    require(_tokenId < kitties.length, \"Token must exist\");\r\n    require(_owns(_from, _tokenId), \"From owns the token\");\r\n    require(msg.sender == _from || isApprovedForAll(_from, msg.sender) || _approvedFor(msg.sender, _tokenId));\r\n\r\n    _transfer(_from, _to, _tokenId);\r\n  }\r\n\r\n\r\n  // must transfer from address 0\r\n  function _transfer(address from, address to, uint256 tokenId) internal {\r\n    //_approve(address(0), tokenId);\r\n\r\n    ownershipTokenCount[to] += 1; // increase count of recipient\r\n\r\n    kittyIndexToOwner[tokenId] = to;\r\n\r\n     // SEMD tokenId # => an address to a number of cats in an array\r\n     ownerToCats[to].push(tokenId);\r\n\r\n     // decrease token count from person A to person B\r\n     if (from != address(0)) { // if from is not address(0), is okay to remove token\r\n       ownershipTokenCount[from] -= 1;\r\n       _removeTokenIdFromOwner(from, tokenId);\r\n       delete kittyIndexToOwner[tokenId];\r\n     }\r\n\r\n     emit Transfer(msg.sender, to, tokenId);\r\n\r\n  }\r\n\r\n\r\n  function _safeTransfer(address _from, address _to, uint256 _tokenId, bytes calldata _data) internal {\r\n    _transfer(_from, _to, _tokenId);\r\n    require(_checkERC721Support(_from, _to, _tokenId, _data));\r\n  }\r\n\r\n\r\n  function  _removeTokenIdFromOwner(address owner, uint256 tokenId) internal {\r\n    uint256 lastId = ownerToCats[owner][ownerToCats[owner].length -1];\r\n    for (uint256 i = 0; i < ownerToCats[owner].length -1; i++) {\r\n      if (ownerToCats[owner][i] == tokenId) {\r\n        ownerToCats[owner][i] = lastId;\r\n        ownerToCats[owner].pop();\r\n      }\r\n    }\r\n  }\r\n\r\n\r\n  function _owns(address _claimant, uint256 tokenId ) public view returns(bool) {\r\n    return kittyIndexToOwner[tokenId] == _claimant;\r\n  }\r\n\r\n\r\n  function _deleteApproval(uint256 _tokenId) internal {\r\n      require(_owns(msg.sender, _tokenId));\r\n      delete kittyIndexToApproved[_tokenId];\r\n  }\r\n\r\n\r\n   function _approve(uint256 _tokenId, address _approved) internal {\r\n    kittyIndexToApproved[_tokenId] = _approved;\r\n  }\r\n\r\n\r\n  function _approvedFor(address _claimant, uint256 tokenId) internal view returns(bool) {\r\n    return kittyIndexToApproved[tokenId] == _claimant;\r\n  }\r\n\r\n\r\n  function _checkERC721Support(address _from, address _to, uint256 _tokenId, bytes memory _data) internal returns (bool) {\r\n    if(!isContract(_to)) { //checks if `_to` is a smart contract (code size > 0)\r\n      return true;\r\n    }\r\n    //example: Contract(_to)....\r\n    //If there is an operator, where _from is not equal to msg.sender, we use msg.sender.\r\n    bytes4 returnData = IERC721Receiver(_to).onERC721Received(msg.sender, _from, _tokenId, _data);\r\n    return returnData == MAGIC_ERC721_RECEIVED;\r\n    //Call onERC721Received in the _to contract\r\n    //Check return value\r\n  } \r\n\r\n\r\n  function isContract(address _to) internal view returns(bool) {\r\n    //It is a smart contract (code size > 0)\r\n    //If it is a wallet, code size = 0\r\n    uint32 size;\r\n    assembly{\r\n      size := extcodesize(_to)\r\n    }\r\n    return size > 0;\r\n  }\r\n\r\n\r\n  function _mixDna(uint256 _dadDna, uint256 _mumDna) internal pure returns (uint256) {\r\n    // dadDna: 11 22 33 44 55 66 77 88\r\n    // mumDna: 88 77 66 55 44 33 22 11\r\n\r\n    //10 * 100 = 1000\r\n    //10 + 20 = 1020\r\n\r\n    uint256 DadGenes = _dadDna / 100000000; // 11 22 33 44\r\n    uint256 MumGenes = _mumDna % 100000000; // 44 33 22 11 \r\n    // 11 22 33 44 x 100000000 + 44 33 22 11 = 11 22 33 44 44 33 22 11\r\n\r\n    uint256 newDna = ((DadGenes * 100000000) + MumGenes);\r\n    return newDna;\r\n    \r\n  }\r\n\r\n  \r\n}\r\n\r\n",
  "sourcePath": "C:\\Users\\benX\\Documents\\ethereum_course_advanced\\myCryptoKitties_master\\contracts\\kittiesContract.sol",
  "compiler": {
    "name": "solc",
    "version": "0.8.7+commit.e28d00a7.Emscripten.clang"
  },
  "schemaVersion": "3.4.3",
  "updatedAt": "2021-09-03T02:37:26.330Z",
  "networkType": "ethereum",
  "devdoc": {
    "kind": "dev",
    "methods": {},
    "version": 1
  },
  "userdoc": {
    "kind": "user",
    "methods": {},
    "version": 1
  }
}