{
  "contractName": "myKittiesContract",
  "abi": [
    {
      "inputs": [],
      "stateMutability": "nonpayable",
      "type": "constructor"
    },
    {
      "anonymous": false,
      "inputs": [
        {
          "indexed": true,
          "internalType": "address",
          "name": "owner",
          "type": "address"
        },
        {
          "indexed": true,
          "internalType": "address",
          "name": "approved",
          "type": "address"
        },
        {
          "indexed": true,
          "internalType": "uint256",
          "name": "tokenId",
          "type": "uint256"
        }
      ],
      "name": "Approval",
      "type": "event"
    },
    {
      "anonymous": false,
      "inputs": [
        {
          "indexed": true,
          "internalType": "address",
          "name": "owner",
          "type": "address"
        },
        {
          "indexed": true,
          "internalType": "address",
          "name": "operator",
          "type": "address"
        },
        {
          "indexed": false,
          "internalType": "bool",
          "name": "approved",
          "type": "bool"
        }
      ],
      "name": "ApprovalForAll",
      "type": "event"
    },
    {
      "anonymous": false,
      "inputs": [
        {
          "indexed": false,
          "internalType": "address",
          "name": "owner",
          "type": "address"
        },
        {
          "indexed": false,
          "internalType": "uint256",
          "name": "newKittenId",
          "type": "uint256"
        },
        {
          "indexed": false,
          "internalType": "uint256",
          "name": "mumId",
          "type": "uint256"
        },
        {
          "indexed": false,
          "internalType": "uint256",
          "name": "dadId",
          "type": "uint256"
        },
        {
          "indexed": false,
          "internalType": "uint256",
          "name": "genes",
          "type": "uint256"
        }
      ],
      "name": "Birth",
      "type": "event"
    },
    {
      "anonymous": false,
      "inputs": [
        {
          "indexed": true,
          "internalType": "address",
          "name": "previousOwner",
          "type": "address"
        },
        {
          "indexed": true,
          "internalType": "address",
          "name": "newOwner",
          "type": "address"
        }
      ],
      "name": "OwnershipTransferred",
      "type": "event"
    },
    {
      "anonymous": false,
      "inputs": [
        {
          "indexed": true,
          "internalType": "address",
          "name": "from",
          "type": "address"
        },
        {
          "indexed": true,
          "internalType": "address",
          "name": "to",
          "type": "address"
        },
        {
          "indexed": true,
          "internalType": "uint256",
          "name": "tokenId",
          "type": "uint256"
        }
      ],
      "name": "Transfer",
      "type": "event"
    },
    {
      "inputs": [],
      "name": "CREATION_LIMIT_GEN0",
      "outputs": [
        {
          "internalType": "uint256",
          "name": "",
          "type": "uint256"
        }
      ],
      "stateMutability": "view",
      "type": "function",
      "constant": true
    },
    {
      "inputs": [],
      "name": "gen0Counter",
      "outputs": [
        {
          "internalType": "uint256",
          "name": "",
          "type": "uint256"
        }
      ],
      "stateMutability": "view",
      "type": "function",
      "constant": true
    },
    {
      "inputs": [
        {
          "internalType": "uint256",
          "name": "",
          "type": "uint256"
        }
      ],
      "name": "kittyIndexToApproved",
      "outputs": [
        {
          "internalType": "address",
          "name": "",
          "type": "address"
        }
      ],
      "stateMutability": "view",
      "type": "function",
      "constant": true
    },
    {
      "inputs": [
        {
          "internalType": "uint256",
          "name": "",
          "type": "uint256"
        }
      ],
      "name": "kittyIndexToOwner",
      "outputs": [
        {
          "internalType": "address",
          "name": "",
          "type": "address"
        }
      ],
      "stateMutability": "view",
      "type": "function",
      "constant": true
    },
    {
      "inputs": [],
      "name": "owner",
      "outputs": [
        {
          "internalType": "address",
          "name": "",
          "type": "address"
        }
      ],
      "stateMutability": "view",
      "type": "function",
      "constant": true
    },
    {
      "inputs": [],
      "name": "renounceOwnership",
      "outputs": [],
      "stateMutability": "nonpayable",
      "type": "function"
    },
    {
      "inputs": [
        {
          "internalType": "address",
          "name": "newOwner",
          "type": "address"
        }
      ],
      "name": "transferOwnership",
      "outputs": [],
      "stateMutability": "nonpayable",
      "type": "function"
    },
    {
      "inputs": [
        {
          "internalType": "uint256",
          "name": "_dadId",
          "type": "uint256"
        },
        {
          "internalType": "uint256",
          "name": "_mumId",
          "type": "uint256"
        }
      ],
      "name": "breed",
      "outputs": [
        {
          "internalType": "uint256",
          "name": "",
          "type": "uint256"
        }
      ],
      "stateMutability": "nonpayable",
      "type": "function"
    },
    {
      "inputs": [
        {
          "internalType": "bytes4",
          "name": "_interfaceId",
          "type": "bytes4"
        }
      ],
      "name": "supportsInterface",
      "outputs": [
        {
          "internalType": "bool",
          "name": "",
          "type": "bool"
        }
      ],
      "stateMutability": "pure",
      "type": "function",
      "constant": true
    },
    {
      "inputs": [
        {
          "internalType": "uint256",
          "name": "_genes",
          "type": "uint256"
        }
      ],
      "name": "createKittyGen0",
      "outputs": [
        {
          "internalType": "uint256",
          "name": "",
          "type": "uint256"
        }
      ],
      "stateMutability": "nonpayable",
      "type": "function"
    },
    {
      "inputs": [
        {
          "internalType": "uint256",
          "name": "_mumId",
          "type": "uint256"
        },
        {
          "internalType": "uint256",
          "name": "_dadId",
          "type": "uint256"
        },
        {
          "internalType": "uint256",
          "name": "_generation",
          "type": "uint256"
        },
        {
          "internalType": "uint256",
          "name": "_genes",
          "type": "uint256"
        },
        {
          "internalType": "address",
          "name": "owner",
          "type": "address"
        }
      ],
      "name": "_createKitty",
      "outputs": [
        {
          "internalType": "uint256",
          "name": "",
          "type": "uint256"
        }
      ],
      "stateMutability": "nonpayable",
      "type": "function"
    },
    {
      "inputs": [
        {
          "internalType": "uint256",
          "name": "tokenId",
          "type": "uint256"
        }
      ],
      "name": "myGetKitty",
      "outputs": [
        {
          "internalType": "uint256",
          "name": "birthTime",
          "type": "uint256"
        },
        {
          "internalType": "uint256",
          "name": "mumId",
          "type": "uint256"
        },
        {
          "internalType": "uint256",
          "name": "dadId",
          "type": "uint256"
        },
        {
          "internalType": "uint256",
          "name": "generation",
          "type": "uint256"
        },
        {
          "internalType": "uint256",
          "name": "genes",
          "type": "uint256"
        }
      ],
      "stateMutability": "view",
      "type": "function",
      "constant": true
    },
    {
      "inputs": [
        {
          "internalType": "uint256",
          "name": "_id",
          "type": "uint256"
        }
      ],
      "name": "getKittyFilip",
      "outputs": [
        {
          "internalType": "uint256",
          "name": "birthTime",
          "type": "uint256"
        },
        {
          "internalType": "uint256",
          "name": "mumId",
          "type": "uint256"
        },
        {
          "internalType": "uint256",
          "name": "dadId",
          "type": "uint256"
        },
        {
          "internalType": "uint256",
          "name": "generation",
          "type": "uint256"
        },
        {
          "internalType": "uint256",
          "name": "genes",
          "type": "uint256"
        }
      ],
      "stateMutability": "view",
      "type": "function",
      "constant": true
    },
    {
      "inputs": [
        {
          "internalType": "address",
          "name": "owner",
          "type": "address"
        }
      ],
      "name": "getAllCatsFor",
      "outputs": [
        {
          "internalType": "uint256[]",
          "name": "",
          "type": "uint256[]"
        }
      ],
      "stateMutability": "view",
      "type": "function",
      "constant": true
    },
    {
      "inputs": [
        {
          "internalType": "address",
          "name": "owner",
          "type": "address"
        }
      ],
      "name": "balanceOf",
      "outputs": [
        {
          "internalType": "uint256",
          "name": "balance",
          "type": "uint256"
        }
      ],
      "stateMutability": "view",
      "type": "function",
      "constant": true
    },
    {
      "inputs": [],
      "name": "totalSupply",
      "outputs": [
        {
          "internalType": "uint256",
          "name": "total",
          "type": "uint256"
        }
      ],
      "stateMutability": "view",
      "type": "function",
      "constant": true
    },
    {
      "inputs": [],
      "name": "name",
      "outputs": [
        {
          "internalType": "string",
          "name": "tokenName",
          "type": "string"
        }
      ],
      "stateMutability": "pure",
      "type": "function",
      "constant": true
    },
    {
      "inputs": [],
      "name": "symbol",
      "outputs": [
        {
          "internalType": "string",
          "name": "tokenSymbol",
          "type": "string"
        }
      ],
      "stateMutability": "pure",
      "type": "function",
      "constant": true
    },
    {
      "inputs": [
        {
          "internalType": "uint256",
          "name": "tokenId",
          "type": "uint256"
        }
      ],
      "name": "ownerOf",
      "outputs": [
        {
          "internalType": "address",
          "name": "owner",
          "type": "address"
        }
      ],
      "stateMutability": "view",
      "type": "function",
      "constant": true
    },
    {
      "inputs": [
        {
          "internalType": "address",
          "name": "to",
          "type": "address"
        },
        {
          "internalType": "uint256",
          "name": "tokenId",
          "type": "uint256"
        }
      ],
      "name": "transfer",
      "outputs": [],
      "stateMutability": "nonpayable",
      "type": "function"
    },
    {
      "inputs": [
        {
          "internalType": "address",
          "name": "_approved",
          "type": "address"
        },
        {
          "internalType": "uint256",
          "name": "_tokenId",
          "type": "uint256"
        }
      ],
      "name": "approve",
      "outputs": [],
      "stateMutability": "nonpayable",
      "type": "function"
    },
    {
      "inputs": [
        {
          "internalType": "address",
          "name": "_operator",
          "type": "address"
        },
        {
          "internalType": "bool",
          "name": "_approved",
          "type": "bool"
        }
      ],
      "name": "setApprovalForAll",
      "outputs": [],
      "stateMutability": "nonpayable",
      "type": "function"
    },
    {
      "inputs": [
        {
          "internalType": "uint256",
          "name": "_tokenId",
          "type": "uint256"
        }
      ],
      "name": "getApproved",
      "outputs": [
        {
          "internalType": "address",
          "name": "",
          "type": "address"
        }
      ],
      "stateMutability": "view",
      "type": "function",
      "constant": true
    },
    {
      "inputs": [
        {
          "internalType": "address",
          "name": "_owner",
          "type": "address"
        },
        {
          "internalType": "address",
          "name": "_operator",
          "type": "address"
        }
      ],
      "name": "isApprovedForAll",
      "outputs": [
        {
          "internalType": "bool",
          "name": "",
          "type": "bool"
        }
      ],
      "stateMutability": "view",
      "type": "function",
      "constant": true
    },
    {
      "inputs": [
        {
          "internalType": "address",
          "name": "_from",
          "type": "address"
        },
        {
          "internalType": "address",
          "name": "_to",
          "type": "address"
        },
        {
          "internalType": "uint256",
          "name": "_tokenId",
          "type": "uint256"
        }
      ],
      "name": "safeTransferFrom",
      "outputs": [],
      "stateMutability": "nonpayable",
      "type": "function"
    },
    {
      "inputs": [
        {
          "internalType": "address",
          "name": "_from",
          "type": "address"
        },
        {
          "internalType": "address",
          "name": "_to",
          "type": "address"
        },
        {
          "internalType": "uint256",
          "name": "_tokenId",
          "type": "uint256"
        },
        {
          "internalType": "bytes",
          "name": "data",
          "type": "bytes"
        }
      ],
      "name": "safeTransferFrom",
      "outputs": [],
      "stateMutability": "nonpayable",
      "type": "function"
    },
    {
      "inputs": [
        {
          "internalType": "address",
          "name": "user",
          "type": "address"
        }
      ],
      "name": "getAllTokensForUser",
      "outputs": [
        {
          "internalType": "uint256[]",
          "name": "",
          "type": "uint256[]"
        }
      ],
      "stateMutability": "view",
      "type": "function",
      "constant": true
    },
    {
      "inputs": [
        {
          "internalType": "address",
          "name": "_owner",
          "type": "address"
        }
      ],
      "name": "tokensOfOwner",
      "outputs": [
        {
          "internalType": "uint256[]",
          "name": "ownerTokens",
          "type": "uint256[]"
        }
      ],
      "stateMutability": "view",
      "type": "function",
      "constant": true
    },
    {
      "inputs": [
        {
          "internalType": "address",
          "name": "_from",
          "type": "address"
        },
        {
          "internalType": "address",
          "name": "_to",
          "type": "address"
        },
        {
          "internalType": "uint256",
          "name": "_tokenId",
          "type": "uint256"
        }
      ],
      "name": "transferFrom",
      "outputs": [],
      "stateMutability": "nonpayable",
      "type": "function"
    }
  ],
  "bytecode": "0x608060405260006009553480156200001657600080fd5b50620000376200002b6200005660201b60201c565b6200005e60201b60201c565b6200004f60008060008060006200012260201b60201c565b5062000991565b600033905090565b60008060009054906101000a900473ffffffffffffffffffffffffffffffffffffffff169050816000806101000a81548173ffffffffffffffffffffffffffffffffffffffff021916908373ffffffffffffffffffffffffffffffffffffffff1602179055508173ffffffffffffffffffffffffffffffffffffffff168173ffffffffffffffffffffffffffffffffffffffff167f8be0079c531659141344cd1fd0a4f28419497f9722a3daafe3b4186f6b6457e060405160405180910390a35050565b6000806040518060a001604052804267ffffffffffffffff1681526020018863ffffffff1681526020018763ffffffff1681526020018661ffff168152602001858152509050600a81908060018154018082558091505060019003906000526020600020906002020160009091909190915060008201518160000160006101000a81548167ffffffffffffffff021916908367ffffffffffffffff16021790555060208201518160000160086101000a81548163ffffffff021916908363ffffffff160217905550604082015181600001600c6101000a81548163ffffffff021916908363ffffffff16021790555060608201518160000160106101000a81548161ffff021916908361ffff16021790555060808201518160010155505060006001600a805490506200025691906200083d565b90507f0a5311bd2a6608f08a180df2ee7c5946819a649b204b554bb8e39825b2c50ad584828a8a896040516200029195949392919062000783565b60405180910390a1620002ad60008583620002bb60201b60201c565b809250505095945050505050565b6001600260008473ffffffffffffffffffffffffffffffffffffffff1673ffffffffffffffffffffffffffffffffffffffff16815260200190815260200160002060008282546200030d9190620007e0565b92505081905550816001600083815260200190815260200160002060006101000a81548173ffffffffffffffffffffffffffffffffffffffff021916908373ffffffffffffffffffffffffffffffffffffffff160217905550600560008373ffffffffffffffffffffffffffffffffffffffff1673ffffffffffffffffffffffffffffffffffffffff168152602001908152602001600020819080600181540180825580915050600190039060005260206000200160009091909190915055600073ffffffffffffffffffffffffffffffffffffffff168373ffffffffffffffffffffffffffffffffffffffff1614620004a3576001600260008573ffffffffffffffffffffffffffffffffffffffff1673ffffffffffffffffffffffffffffffffffffffff16815260200190815260200160002060008282546200045391906200083d565b925050819055506200046c83826200050360201b60201c565b6001600082815260200190815260200160002060006101000a81549073ffffffffffffffffffffffffffffffffffffffff02191690555b808273ffffffffffffffffffffffffffffffffffffffff163373ffffffffffffffffffffffffffffffffffffffff167fddf252ad1be2c89b69c2b068fc378daa952ba7f163c4a11628f55a4df523b3ef60405160405180910390a4505050565b6000600560008473ffffffffffffffffffffffffffffffffffffffff1673ffffffffffffffffffffffffffffffffffffffff1681526020019081526020016000206001600560008673ffffffffffffffffffffffffffffffffffffffff1673ffffffffffffffffffffffffffffffffffffffff168152602001908152602001600020805490506200059591906200083d565b81548110620005a957620005a862000962565b5b9060005260206000200154905060005b6001600560008673ffffffffffffffffffffffffffffffffffffffff1673ffffffffffffffffffffffffffffffffffffffff168152602001908152602001600020805490506200060a91906200083d565b8110156200075b5782600560008673ffffffffffffffffffffffffffffffffffffffff1673ffffffffffffffffffffffffffffffffffffffff168152602001908152602001600020828154811062000667576200066662000962565b5b90600052602060002001541415620007455781600560008673ffffffffffffffffffffffffffffffffffffffff1673ffffffffffffffffffffffffffffffffffffffff1681526020019081526020016000208281548110620006ce57620006cd62000962565b5b9060005260206000200181905550600560008573ffffffffffffffffffffffffffffffffffffffff1673ffffffffffffffffffffffffffffffffffffffff1681526020019081526020016000208054806200072e576200072d62000933565b5b600190038181906000526020600020016000905590555b80806200075290620008b6565b915050620005b9565b50505050565b6200076c8162000878565b82525050565b6200077d81620008ac565b82525050565b600060a0820190506200079a600083018862000761565b620007a9602083018762000772565b620007b8604083018662000772565b620007c7606083018562000772565b620007d6608083018462000772565b9695505050505050565b6000620007ed82620008ac565b9150620007fa83620008ac565b9250827fffffffffffffffffffffffffffffffffffffffffffffffffffffffffffffffff0382111562000832576200083162000904565b5b828201905092915050565b60006200084a82620008ac565b91506200085783620008ac565b9250828210156200086d576200086c62000904565b5b828203905092915050565b600062000885826200088c565b9050919050565b600073ffffffffffffffffffffffffffffffffffffffff82169050919050565b6000819050919050565b6000620008c382620008ac565b91507fffffffffffffffffffffffffffffffffffffffffffffffffffffffffffffffff821415620008f957620008f862000904565b5b600182019050919050565b7f4e487b7100000000000000000000000000000000000000000000000000000000600052601160045260246000fd5b7f4e487b7100000000000000000000000000000000000000000000000000000000600052603160045260246000fd5b7f4e487b7100000000000000000000000000000000000000000000000000000000600052603260045260246000fd5b6135a880620009a16000396000f3fe608060405234801561001057600080fd5b50600436106101cf5760003560e01c806382de8fe911610104578063a9059cbb116100a2578063d9ecad7b11610071578063d9ecad7b14610594578063e985e9c5146105c4578063ef5e94aa146105f4578063f2fde38b14610612576101cf565b8063a9059cbb1461050e578063b48343301461052a578063b88d4fde14610548578063d5a776ca14610564576101cf565b806395d89b41116100de57806395d89b4114610470578063a090cb771461048e578063a22cb465146104c2578063a45f4bfc146104de576101cf565b806382de8fe9146103f25780638462151c146104225780638da5cb5b14610452576101cf565b8063338a63a4116101715780635a64aafa1161014b5780635a64aafa146103585780636352211e1461038857806370a08231146103b8578063715018a6146103e8576101cf565b8063338a63a4146102dc57806342842e0e1461030c578063481af3d314610328576101cf565b8063095ea7b3116101ad578063095ea7b3146102525780630dd1c2e81461026e57806318160ddd146102a257806323b872dd146102c0576101cf565b806301ffc9a7146101d457806306fdde0314610204578063081812fc14610222575b600080fd5b6101ee60048036038101906101e9919061263d565b61062e565b6040516101fb9190612b69565b60405180910390f35b61020c6106ce565b6040516102199190612b84565b60405180910390f35b61023c60048036038101906102379190612697565b61070b565b6040516102499190612a8d565b60405180910390f35b61026c600480360381019061026791906125fd565b61078f565b005b61028860048036038101906102839190612697565b61080b565b604051610299959493929190612d81565b60405180910390f35b6102aa6108c1565b6040516102b79190612d66565b60405180910390f35b6102da60048036038101906102d591906124e2565b6108ce565b005b6102f660048036038101906102f19190612704565b610a38565b6040516103039190612d66565b60405180910390f35b610326600480360381019061032191906124e2565b610bc5565b005b610342600480360381019061033d9190612697565b610bd5565b60405161034f9190612a8d565b60405180910390f35b610372600480360381019061036d9190612475565b610c08565b60405161037f9190612b47565b60405180910390f35b6103a2600480360381019061039d9190612697565b610c9f565b6040516103af9190612a8d565b60405180910390f35b6103d260048036038101906103cd9190612475565b610d51565b6040516103df9190612d66565b60405180910390f35b6103f0610d9a565b005b61040c60048036038101906104079190612475565b610e22565b6040516104199190612b47565b60405180910390f35b61043c60048036038101906104379190612475565b610f7c565b6040516104499190612b47565b60405180910390f35b61045a611105565b6040516104679190612a8d565b60405180910390f35b61047861112e565b6040516104859190612b84565b60405180910390f35b6104a860048036038101906104a39190612697565b61116b565b6040516104b9959493929190612d81565b60405180910390f35b6104dc60048036038101906104d791906125bd565b611221565b005b6104f860048036038101906104f39190612697565b61138d565b6040516105059190612a8d565b60405180910390f35b610528600480360381019061052391906125fd565b6113c0565b005b6105326114c1565b60405161053f9190612d66565b60405180910390f35b610562600480360381019061055d9190612535565b6114c6565b005b61057e60048036038101906105799190612697565b611634565b60405161058b9190612d66565b60405180910390f35b6105ae60048036038101906105a991906126c4565b611726565b6040516105bb9190612d66565b60405180910390f35b6105de60048036038101906105d991906124a2565b611842565b6040516105eb9190612b69565b60405180910390f35b6105fc6118d6565b6040516106099190612d66565b60405180910390f35b61062c60048036038101906106279190612475565b6118dc565b005b60006380ac58cd60e01b7bffffffffffffffffffffffffffffffffffffffffffffffffffffffff1916827bffffffffffffffffffffffffffffffffffffffffffffffffffffffff191614806106c757506301ffc9a760e01b7bffffffffffffffffffffffffffffffffffffffffffffffffffffffff1916827bffffffffffffffffffffffffffffffffffffffffffffffffffffffff1916145b9050919050565b60606040518060400160405280600e81526020017f4d792043727970746f2043617473000000000000000000000000000000000000815250905090565b6000600a805490508210610754576040517f08c379a000000000000000000000000000000000000000000000000000000000815260040161074b90612ca6565b60405180910390fd5b6003600083815260200190815260200160002060009054906101000a900473ffffffffffffffffffffffffffffffffffffffff169050919050565b61079933826119d4565b6107a257600080fd5b6107ac8183611a40565b808273ffffffffffffffffffffffffffffffffffffffff163373ffffffffffffffffffffffffffffffffffffffff167f8c5be1e5ebec7d5bd14f71427d1e84f3dd0314c0f7b2291e5b200ac8c7c3b92560405160405180910390a45050565b600080600080600080600a878154811061082857610827613146565b5b906000526020600020906002020190508060000160009054906101000a900467ffffffffffffffff1667ffffffffffffffff1695508060000160089054906101000a900463ffffffff1663ffffffff16945080600001600c9054906101000a900463ffffffff1663ffffffff1693508060000160109054906101000a900461ffff1661ffff169250806001015491505091939590929450565b6000600a80549050905090565b600073ffffffffffffffffffffffffffffffffffffffff168273ffffffffffffffffffffffffffffffffffffffff16141561093e576040517f08c379a000000000000000000000000000000000000000000000000000000000815260040161093590612be6565b60405180910390fd5b600a805490508110610985576040517f08c379a000000000000000000000000000000000000000000000000000000000815260040161097c90612ca6565b60405180910390fd5b61098f83826119d4565b6109ce576040517f08c379a00000000000000000000000000000000000000000000000000000000081526004016109c590612d26565b60405180910390fd5b8273ffffffffffffffffffffffffffffffffffffffff163373ffffffffffffffffffffffffffffffffffffffff161480610a0e5750610a0d8333611842565b5b80610a1f5750610a1e3382611a96565b5b610a2857600080fd5b610a33838383611b02565b505050565b6000806040518060a001604052804267ffffffffffffffff1681526020018863ffffffff1681526020018763ffffffff1681526020018661ffff168152602001858152509050600a81908060018154018082558091505060019003906000526020600020906002020160009091909190915060008201518160000160006101000a81548167ffffffffffffffff021916908367ffffffffffffffff16021790555060208201518160000160086101000a81548163ffffffff021916908363ffffffff160217905550604082015181600001600c6101000a81548163ffffffff021916908363ffffffff16021790555060608201518160000160106101000a81548161ffff021916908361ffff16021790555060808201518160010155505060006001600a80549050610b6a9190612f26565b90507f0a5311bd2a6608f08a180df2ee7c5946819a649b204b554bb8e39825b2c50ad584828a8a89604051610ba3959493929190612af4565b60405180910390a1610bb760008583611b02565b809250505095945050505050565b610bd0838383610bc5565b505050565b60036020528060005260406000206000915054906101000a900473ffffffffffffffffffffffffffffffffffffffff1681565b6060600560008373ffffffffffffffffffffffffffffffffffffffff1673ffffffffffffffffffffffffffffffffffffffff168152602001908152602001600020805480602002602001604051908101604052809291908181526020018280548015610c9357602002820191906000526020600020905b815481526020019060010190808311610c7f575b50505050509050919050565b6000806001600084815260200190815260200160002060009054906101000a900473ffffffffffffffffffffffffffffffffffffffff169050600073ffffffffffffffffffffffffffffffffffffffff168173ffffffffffffffffffffffffffffffffffffffff161415610d48576040517f08c379a0000000000000000000000000000000000000000000000000000000008152600401610d3f90612cc6565b60405180910390fd5b80915050919050565b6000600260008373ffffffffffffffffffffffffffffffffffffffff1673ffffffffffffffffffffffffffffffffffffffff168152602001908152602001600020549050919050565b610da2611d3d565b73ffffffffffffffffffffffffffffffffffffffff16610dc0611105565b73ffffffffffffffffffffffffffffffffffffffff1614610e16576040517f08c379a0000000000000000000000000000000000000000000000000000000008152600401610e0d90612ce6565b60405180910390fd5b610e206000611d45565b565b60606000610e2f83610d51565b90506000811415610e8c57600067ffffffffffffffff811115610e5557610e54613175565b5b604051908082528060200260200182016040528015610e835781602001602082028036833780820191505090505b50915050610f77565b60008167ffffffffffffffff811115610ea857610ea7613175565b5b604051908082528060200260200182016040528015610ed65781602001602082028036833780820191505090505b50905060006009549050600080600090505b82811015610f6e578673ffffffffffffffffffffffffffffffffffffffff16610f1082610c9f565b73ffffffffffffffffffffffffffffffffffffffff161415610f5b5780848381518110610f4057610f3f613146565b5b6020026020010181815250508180610f579061300e565b9250505b8080610f669061300e565b915050610ee8565b83955050505050505b919050565b60606000610f8983610d51565b90506000811415610fe657600067ffffffffffffffff811115610faf57610fae613175565b5b604051908082528060200260200182016040528015610fdd5781602001602082028036833780820191505090505b50915050611100565b60008167ffffffffffffffff81111561100257611001613175565b5b6040519080825280602002602001820160405280156110305781602001602082028036833780820191505090505b509050600061103d6108c1565b9050600080600190505b8281116110f7578673ffffffffffffffffffffffffffffffffffffffff166001600083815260200190815260200160002060009054906101000a900473ffffffffffffffffffffffffffffffffffffffff1673ffffffffffffffffffffffffffffffffffffffff1614156110e457808483815181106110c9576110c8613146565b5b60200260200101818152505081806110e09061300e565b9250505b80806110ef9061300e565b915050611047565b83955050505050505b919050565b60008060009054906101000a900473ffffffffffffffffffffffffffffffffffffffff16905090565b60606040518060400160405280600481526020017f4d43524300000000000000000000000000000000000000000000000000000000815250905090565b600080600080600080600a878154811061118857611187613146565b5b906000526020600020906002020190508060000160009054906101000a900467ffffffffffffffff1667ffffffffffffffff168160000160089054906101000a900463ffffffff1663ffffffff1682600001600c9054906101000a900463ffffffff1663ffffffff168360000160109054906101000a900461ffff1661ffff168460010154955095509550955095505091939590929450565b3373ffffffffffffffffffffffffffffffffffffffff168273ffffffffffffffffffffffffffffffffffffffff161415611290576040517f08c379a000000000000000000000000000000000000000000000000000000000815260040161128790612d46565b60405180910390fd5b80600460003373ffffffffffffffffffffffffffffffffffffffff1673ffffffffffffffffffffffffffffffffffffffff16815260200190815260200160002060008473ffffffffffffffffffffffffffffffffffffffff1673ffffffffffffffffffffffffffffffffffffffff16815260200190815260200160002060006101000a81548160ff0219169083151502179055508173ffffffffffffffffffffffffffffffffffffffff163373ffffffffffffffffffffffffffffffffffffffff167f17307eab39ab6107e8899845ad3d59bd9653f200f220920489ca2b5937696c31836040516113819190612b69565b60405180910390a35050565b60016020528060005260406000206000915054906101000a900473ffffffffffffffffffffffffffffffffffffffff1681565b600073ffffffffffffffffffffffffffffffffffffffff168273ffffffffffffffffffffffffffffffffffffffff161415611430576040517f08c379a000000000000000000000000000000000000000000000000000000000815260040161142790612c26565b60405180910390fd5b3073ffffffffffffffffffffffffffffffffffffffff168273ffffffffffffffffffffffffffffffffffffffff16141561149f576040517f08c379a000000000000000000000000000000000000000000000000000000000815260040161149690612bc6565b60405180910390fd5b6114a933826119d4565b6114b257600080fd5b6114bd338383611b02565b5050565b600a81565b600073ffffffffffffffffffffffffffffffffffffffff168473ffffffffffffffffffffffffffffffffffffffff161415611536576040517f08c379a000000000000000000000000000000000000000000000000000000000815260040161152d90612d06565b60405180910390fd5b600a80549050831061157d576040517f08c379a000000000000000000000000000000000000000000000000000000000815260040161157490612c66565b60405180910390fd5b61158785846119d4565b6115c6576040517f08c379a00000000000000000000000000000000000000000000000000000000081526004016115bd90612c46565b60405180910390fd5b8473ffffffffffffffffffffffffffffffffffffffff163373ffffffffffffffffffffffffffffffffffffffff16148061160657506116058585611842565b5b8061161757506116163384611a96565b5b61162057600080fd5b61162d8585858585611e09565b5050505050565b600061163e611d3d565b73ffffffffffffffffffffffffffffffffffffffff1661165c611105565b73ffffffffffffffffffffffffffffffffffffffff16146116b2576040517f08c379a00000000000000000000000000000000000000000000000000000000081526004016116a990612ce6565b60405180910390fd5b600a60065411156116f8576040517f08c379a00000000000000000000000000000000000000000000000000000000081526004016116ef90612c06565b60405180910390fd5b6006600081548092919061170b9061300e565b919050555061171f60008060008533610a38565b9050919050565b600061173233846119d4565b8015611744575061174333836119d4565b5b611783576040517f08c379a000000000000000000000000000000000000000000000000000000000815260040161177a90612c86565b60405180910390fd5b60008061178f8561116b565b945050505091506000806117a28661116b565b945050505091506117b38483611e74565b6007819055506000818410156117e6576001826117d09190612e45565b90506002816117df9190612e9b565b9050611822565b81841115611811576001846117fb9190612e45565b905060028161180a9190612e9b565b9050611821565b60018461181e9190612e45565b90505b5b61183187898360075433610a38565b506007549550505050505092915050565b6000600460008473ffffffffffffffffffffffffffffffffffffffff1673ffffffffffffffffffffffffffffffffffffffff16815260200190815260200160002060008373ffffffffffffffffffffffffffffffffffffffff1673ffffffffffffffffffffffffffffffffffffffff16815260200190815260200160002060009054906101000a900460ff16905092915050565b60065481565b6118e4611d3d565b73ffffffffffffffffffffffffffffffffffffffff16611902611105565b73ffffffffffffffffffffffffffffffffffffffff1614611958576040517f08c379a000000000000000000000000000000000000000000000000000000000815260040161194f90612ce6565b60405180910390fd5b600073ffffffffffffffffffffffffffffffffffffffff168173ffffffffffffffffffffffffffffffffffffffff1614156119c8576040517f08c379a00000000000000000000000000000000000000000000000000000000081526004016119bf90612ba6565b60405180910390fd5b6119d181611d45565b50565b60008273ffffffffffffffffffffffffffffffffffffffff166001600084815260200190815260200160002060009054906101000a900473ffffffffffffffffffffffffffffffffffffffff1673ffffffffffffffffffffffffffffffffffffffff1614905092915050565b806003600084815260200190815260200160002060006101000a81548173ffffffffffffffffffffffffffffffffffffffff021916908373ffffffffffffffffffffffffffffffffffffffff1602179055505050565b60008273ffffffffffffffffffffffffffffffffffffffff166003600084815260200190815260200160002060009054906101000a900473ffffffffffffffffffffffffffffffffffffffff1673ffffffffffffffffffffffffffffffffffffffff1614905092915050565b6001600260008473ffffffffffffffffffffffffffffffffffffffff1673ffffffffffffffffffffffffffffffffffffffff1681526020019081526020016000206000828254611b529190612e45565b92505081905550816001600083815260200190815260200160002060006101000a81548173ffffffffffffffffffffffffffffffffffffffff021916908373ffffffffffffffffffffffffffffffffffffffff160217905550600560008373ffffffffffffffffffffffffffffffffffffffff1673ffffffffffffffffffffffffffffffffffffffff168152602001908152602001600020819080600181540180825580915050600190039060005260206000200160009091909190915055600073ffffffffffffffffffffffffffffffffffffffff168373ffffffffffffffffffffffffffffffffffffffff1614611cdd576001600260008573ffffffffffffffffffffffffffffffffffffffff1673ffffffffffffffffffffffffffffffffffffffff1681526020019081526020016000206000828254611c959190612f26565b92505081905550611ca68382612017565b6001600082815260200190815260200160002060006101000a81549073ffffffffffffffffffffffffffffffffffffffff02191690555b808273ffffffffffffffffffffffffffffffffffffffff163373ffffffffffffffffffffffffffffffffffffffff167fddf252ad1be2c89b69c2b068fc378daa952ba7f163c4a11628f55a4df523b3ef60405160405180910390a4505050565b600033905090565b60008060009054906101000a900473ffffffffffffffffffffffffffffffffffffffff169050816000806101000a81548173ffffffffffffffffffffffffffffffffffffffff021916908373ffffffffffffffffffffffffffffffffffffffff1602179055508173ffffffffffffffffffffffffffffffffffffffff168173ffffffffffffffffffffffffffffffffffffffff167f8be0079c531659141344cd1fd0a4f28419497f9722a3daafe3b4186f6b6457e060405160405180910390a35050565b611e14858585611b02565b611e6485858585858080601f016020809104026020016040519081016040528093929190818152602001838380828437600081840152601f19601f82011690508083019250505050505050612260565b611e6d57600080fd5b5050505050565b6000611e7e612393565b600060ff42611e8d9190613057565b9050600060019050600060079050600191505b60808211611f5d576000828460ff161614611ee657606486611ec29190613057565b60ff16848260088110611ed857611ed7613146565b5b602002018181525050611f13565b606487611ef39190613057565b60ff16848260088110611f0957611f08613146565b5b6020020181815250505b606486611f209190612e9b565b9550606487611f2f9190612e9b565b965060808214611f4957600181611f469190612f26565b90505b600282611f569190612ecc565b9150611ea0565b6000600784611f6c9190613088565b9050606384611f7b9190613088565b60ff16858260ff1660088110611f9457611f93613146565b5b602002018181525050600092505b600883101561200757848360088110611fbe57611fbd613146565b5b6020020151600854611fd09190612e45565b60088190555060078314611ff4576064600854611fed9190612ecc565b6008819055505b8280611fff9061300e565b935050611fa2565b6008549550505050505092915050565b6000600560008473ffffffffffffffffffffffffffffffffffffffff1673ffffffffffffffffffffffffffffffffffffffff1681526020019081526020016000206001600560008673ffffffffffffffffffffffffffffffffffffffff1673ffffffffffffffffffffffffffffffffffffffff168152602001908152602001600020805490506120a79190612f26565b815481106120b8576120b7613146565b5b9060005260206000200154905060005b6001600560008673ffffffffffffffffffffffffffffffffffffffff1673ffffffffffffffffffffffffffffffffffffffff168152602001908152602001600020805490506121179190612f26565b81101561225a5782600560008673ffffffffffffffffffffffffffffffffffffffff1673ffffffffffffffffffffffffffffffffffffffff16815260200190815260200160002082815481106121705761216f613146565b5b906000526020600020015414156122475781600560008673ffffffffffffffffffffffffffffffffffffffff1673ffffffffffffffffffffffffffffffffffffffff16815260200190815260200160002082815481106121d3576121d2613146565b5b9060005260206000200181905550600560008573ffffffffffffffffffffffffffffffffffffffff1673ffffffffffffffffffffffffffffffffffffffff1681526020019081526020016000208054806122305761222f613117565b5b600190038181906000526020600020016000905590555b80806122529061300e565b9150506120c8565b50505050565b600061226b8461237a565b6122785760019050612372565b60008473ffffffffffffffffffffffffffffffffffffffff1663150b7a02338887876040518563ffffffff1660e01b81526004016122b99493929190612aa8565b602060405180830381600087803b1580156122d357600080fd5b505af11580156122e7573d6000803e3d6000fd5b505050506040513d601f19601f8201168201806040525081019061230b919061266a565b90507f150b7a023d4804d13e8c85fb27262cb750cf6ba9f9dd3bb30d90f482ceeb4b1f7bffffffffffffffffffffffffffffffffffffffffffffffffffffffff1916817bffffffffffffffffffffffffffffffffffffffffffffffffffffffff1916149150505b949350505050565b600080823b905060008163ffffffff1611915050919050565b604051806101000160405280600890602082028036833780820191505090505090565b6000813590506123c581613516565b92915050565b6000813590506123da8161352d565b92915050565b6000813590506123ef81613544565b92915050565b60008151905061240481613544565b92915050565b60008083601f8401126124205761241f6131a9565b5b8235905067ffffffffffffffff81111561243d5761243c6131a4565b5b602083019150836001820283011115612459576124586131ae565b5b9250929050565b60008135905061246f8161355b565b92915050565b60006020828403121561248b5761248a6131b8565b5b6000612499848285016123b6565b91505092915050565b600080604083850312156124b9576124b86131b8565b5b60006124c7858286016123b6565b92505060206124d8858286016123b6565b9150509250929050565b6000806000606084860312156124fb576124fa6131b8565b5b6000612509868287016123b6565b935050602061251a868287016123b6565b925050604061252b86828701612460565b9150509250925092565b600080600080600060808688031215612551576125506131b8565b5b600061255f888289016123b6565b9550506020612570888289016123b6565b945050604061258188828901612460565b935050606086013567ffffffffffffffff8111156125a2576125a16131b3565b5b6125ae8882890161240a565b92509250509295509295909350565b600080604083850312156125d4576125d36131b8565b5b60006125e2858286016123b6565b92505060206125f3858286016123cb565b9150509250929050565b60008060408385031215612614576126136131b8565b5b6000612622858286016123b6565b925050602061263385828601612460565b9150509250929050565b600060208284031215612653576126526131b8565b5b6000612661848285016123e0565b91505092915050565b6000602082840312156126805761267f6131b8565b5b600061268e848285016123f5565b91505092915050565b6000602082840312156126ad576126ac6131b8565b5b60006126bb84828501612460565b91505092915050565b600080604083850312156126db576126da6131b8565b5b60006126e985828601612460565b92505060206126fa85828601612460565b9150509250929050565b600080600080600060a086880312156127205761271f6131b8565b5b600061272e88828901612460565b955050602061273f88828901612460565b945050604061275088828901612460565b935050606061276188828901612460565b9250506080612772888289016123b6565b9150509295509295909350565b600061278b8383612a6f565b60208301905092915050565b6127a081612f5a565b82525050565b60006127b182612de4565b6127bb8185612e12565b93506127c683612dd4565b8060005b838110156127f75781516127de888261277f565b97506127e983612e05565b9250506001810190506127ca565b5085935050505092915050565b61280d81612f6c565b82525050565b600061281e82612def565b6128288185612e23565b9350612838818560208601612fdb565b612841816131bd565b840191505092915050565b600061285782612dfa565b6128618185612e34565b9350612871818560208601612fdb565b61287a816131bd565b840191505092915050565b6000612892602683612e34565b915061289d826131ce565b604082019050919050565b60006128b5601c83612e34565b91506128c08261321d565b602082019050919050565b60006128d8602083612e34565b91506128e382613246565b602082019050919050565b60006128fb602e83612e34565b91506129068261326f565b604082019050919050565b600061291e602483612e34565b9150612929826132be565b604082019050919050565b6000612941602583612e34565b915061294c8261330d565b604082019050919050565b6000612964601483612e34565b915061296f8261335c565b602082019050919050565b6000612987602a83612e34565b915061299282613385565b604082019050919050565b60006129aa601083612e34565b91506129b5826133d4565b602082019050919050565b60006129cd602983612e34565b91506129d8826133fd565b604082019050919050565b60006129f0602083612e34565b91506129fb8261344c565b602082019050919050565b6000612a13601d83612e34565b9150612a1e82613475565b602082019050919050565b6000612a36601383612e34565b9150612a418261349e565b602082019050919050565b6000612a59603083612e34565b9150612a64826134c7565b604082019050919050565b612a7881612fc4565b82525050565b612a8781612fc4565b82525050565b6000602082019050612aa26000830184612797565b92915050565b6000608082019050612abd6000830187612797565b612aca6020830186612797565b612ad76040830185612a7e565b8181036060830152612ae98184612813565b905095945050505050565b600060a082019050612b096000830188612797565b612b166020830187612a7e565b612b236040830186612a7e565b612b306060830185612a7e565b612b3d6080830184612a7e565b9695505050505050565b60006020820190508181036000830152612b6181846127a6565b905092915050565b6000602082019050612b7e6000830184612804565b92915050565b60006020820190508181036000830152612b9e818461284c565b905092915050565b60006020820190508181036000830152612bbf81612885565b9050919050565b60006020820190508181036000830152612bdf816128a8565b9050919050565b60006020820190508181036000830152612bff816128cb565b9050919050565b60006020820190508181036000830152612c1f816128ee565b9050919050565b60006020820190508181036000830152612c3f81612911565b9050919050565b60006020820190508181036000830152612c5f81612934565b9050919050565b60006020820190508181036000830152612c7f81612957565b9050919050565b60006020820190508181036000830152612c9f8161297a565b9050919050565b60006020820190508181036000830152612cbf8161299d565b9050919050565b60006020820190508181036000830152612cdf816129c0565b9050919050565b60006020820190508181036000830152612cff816129e3565b9050919050565b60006020820190508181036000830152612d1f81612a06565b9050919050565b60006020820190508181036000830152612d3f81612a29565b9050919050565b60006020820190508181036000830152612d5f81612a4c565b9050919050565b6000602082019050612d7b6000830184612a7e565b92915050565b600060a082019050612d966000830188612a7e565b612da36020830187612a7e565b612db06040830186612a7e565b612dbd6060830185612a7e565b612dca6080830184612a7e565b9695505050505050565b6000819050602082019050919050565b600081519050919050565b600081519050919050565b600081519050919050565b6000602082019050919050565b600082825260208201905092915050565b600082825260208201905092915050565b600082825260208201905092915050565b6000612e5082612fc4565b9150612e5b83612fc4565b9250827fffffffffffffffffffffffffffffffffffffffffffffffffffffffffffffffff03821115612e9057612e8f6130b9565b5b828201905092915050565b6000612ea682612fc4565b9150612eb183612fc4565b925082612ec157612ec06130e8565b5b828204905092915050565b6000612ed782612fc4565b9150612ee283612fc4565b9250817fffffffffffffffffffffffffffffffffffffffffffffffffffffffffffffffff0483118215151615612f1b57612f1a6130b9565b5b828202905092915050565b6000612f3182612fc4565b9150612f3c83612fc4565b925082821015612f4f57612f4e6130b9565b5b828203905092915050565b6000612f6582612fa4565b9050919050565b60008115159050919050565b60007fffffffff0000000000000000000000000000000000000000000000000000000082169050919050565b600073ffffffffffffffffffffffffffffffffffffffff82169050919050565b6000819050919050565b600060ff82169050919050565b60005b83811015612ff9578082015181840152602081019050612fde565b83811115613008576000848401525b50505050565b600061301982612fc4565b91507fffffffffffffffffffffffffffffffffffffffffffffffffffffffffffffffff82141561304c5761304b6130b9565b5b600182019050919050565b600061306282612fc4565b915061306d83612fc4565b92508261307d5761307c6130e8565b5b828206905092915050565b600061309382612fce565b915061309e83612fce565b9250826130ae576130ad6130e8565b5b828206905092915050565b7f4e487b7100000000000000000000000000000000000000000000000000000000600052601160045260246000fd5b7f4e487b7100000000000000000000000000000000000000000000000000000000600052601260045260246000fd5b7f4e487b7100000000000000000000000000000000000000000000000000000000600052603160045260246000fd5b7f4e487b7100000000000000000000000000000000000000000000000000000000600052603260045260246000fd5b7f4e487b7100000000000000000000000000000000000000000000000000000000600052604160045260246000fd5b600080fd5b600080fd5b600080fd5b600080fd5b600080fd5b6000601f19601f8301169050919050565b7f4f776e61626c653a206e6577206f776e657220697320746865207a65726f206160008201527f6464726573730000000000000000000000000000000000000000000000000000602082015250565b7f7472616e7366657220746f20746865207a65726f206164647265737300000000600082015250565b7f546f2061646472657373206973206e6f742061207a65726f2061646472657373600082015250565b7f47656e20302073686f756c64206265206c657373207468616e2063726561746960008201527f6f6e206c696d69742067656e2030000000000000000000000000000000000000602082015250565b7f4552433732313a207472616e7366657220746f20746865207a65726f2061646460008201527f7265737300000000000000000000000000000000000000000000000000000000602082015250565b7f4e6f7420612076616c6964204e46542c206e6f7420746865206f776e6572206f60008201527f66204e4654000000000000000000000000000000000000000000000000000000602082015250565b7f546f6b656e20646f6573206e6f74206578697374000000000000000000000000600082015250565b7f596f75206d75737420626520746865206f776e6572206f6620626f7468206f6660008201527f20796f7572206361747300000000000000000000000000000000000000000000602082015250565b7f546f6b656e206d75737420657869737400000000000000000000000000000000600082015250565b7f4552433732313a206f776e657220717565727920666f72206e6f6e657869737460008201527f656e7420746f6b656e0000000000000000000000000000000000000000000000602082015250565b7f4f776e61626c653a2063616c6c6572206973206e6f7420746865206f776e6572600082015250565b7f4d757374207472616e7366657220746f207a65726f2061646472657373000000600082015250565b7f46726f6d206f776e732074686520746f6b656e00000000000000000000000000600082015250565b7f4552433732313a20617070726f766520746f2063616c6c65722c20796f75206160008201527f7265206e6f7420746865206f776e657200000000000000000000000000000000602082015250565b61351f81612f5a565b811461352a57600080fd5b50565b61353681612f6c565b811461354157600080fd5b50565b61354d81612f78565b811461355857600080fd5b50565b61356481612fc4565b811461356f57600080fd5b5056fea2646970667358221220c9c03898f2faef64fc008dccd90397bbd30e8dc8ea32cdbcb8352f85def34b4664736f6c63430008070033",
  "immutableReferences": {},
  "source": "// SPDX-License-Identifier: MIT\r\npragma solidity ^0.8.0;\r\n\r\n//import \"./IERC721.sol\";\r\nimport \"@openzeppelin/contracts/access/Ownable.sol\";\r\nimport \"@openzeppelin/contracts/token/ERC721/IERC721Receiver.sol\";\r\n\r\n\r\ncontract myKittiesContract is Ownable {\r\n\r\n  // Mapping from token ID to owner address\r\n  mapping(uint256 => address) public kittyIndexToOwner; //owners Of TokenId\r\n\r\n  // Mapping owner address to token count\r\n  mapping(address => uint256) ownershipTokenCount;\r\n\r\n  // Mapping from token ID to approved address\r\n  mapping(uint256 => address) public kittyIndexToApproved;\r\n\r\n  // MYADDR => OPERATOR => TRUE/FALSE\r\n  // _operatorApprovals[MYADDR][OPERATORADDR] = true or false;\r\n  // _operatorApprovals[MYADDR][BOBS_ADDR] = true;\r\n  // _operatorApprovals[MYADDR][ALICE_ADDR] = false;\r\n  // _operatorApprovals[MYADDR][LISA_ADDR] = true;\r\n\r\n  // Mapping from owner to operator approvals\r\n  mapping(address => mapping(address => bool)) private _operatorApprovals;\r\n\r\n  //an address to a number of cats in an array\r\n  mapping(address => uint256[]) ownerToCats;\r\n\r\n  bytes4 private constant _INTERFACE_TO_ERC721 = 0x80ac58cd;\r\n  bytes4 private constant _INTERFACE_TO_ERC165 = 0x01ffc9a7;\r\n\r\n  event Transfer(address indexed from, address indexed to, uint256 indexed tokenId);\r\n  event ApprovalForAll(address indexed owner, address indexed operator, bool approved);\r\n  event Approval(address indexed owner, address indexed approved, uint256 indexed tokenId);\r\n  event Birth(address owner, uint256 newKittenId, uint256 mumId, uint256 dadId, uint256 genes);\r\n\r\n  string constant _name = \"My Crypto Cats\";\r\n  string constant _symbol = \"MCRC\";\r\n  uint256 public constant CREATION_LIMIT_GEN0 = 10;\r\n  uint256 public gen0Counter;\r\n  uint256 newGene; // prev: newDna\r\n  uint256 newRandGene;\r\n  uint256 nextId = 0;\r\n\r\n  // 11 22 33 44 | 44 33 22 1 1\r\n\r\n  // this cat will just take up space, cannot be transacted in any way\r\n  // prevents buyKitty function require statement resulting to an empty array; being true\r\n  constructor() {\r\n    // We are creating the first kitty at index 0\r\n    _createKitty(0, 0, 0, uint256(0), address(0));\r\n    // (mumId, dadId, gen, genes, owner)\r\n  }\r\n\r\n  function breed(uint256 _dadId, uint256 _mumId) public returns (uint256) {\r\n    //Check ownership\r\n    //Use new DNA\r\n    //Figure out the Generation\r\n    //Create new cat with new properties, give it to msg.sender\r\n    require(_owns(msg.sender, _dadId) && _owns(msg.sender, _mumId), \"You must be the owner of both of your cats\");\r\n\r\n    (uint256 dadDna,,,,uint256 DadGeneration) = myGetKitty(_dadId);\r\n    (uint256 mumDna,,,,uint256 MumGeneration) = myGetKitty(_mumId);\r\n\r\n    newGene = _mixDnaMoreRand(dadDna, mumDna);\r\n\r\n    uint256 kittenGen = 0;\r\n    if (DadGeneration < MumGeneration) {\r\n      kittenGen = MumGeneration + 1;\r\n      kittenGen /= 2;\r\n    } else if (DadGeneration > MumGeneration) {\r\n      kittenGen = DadGeneration + 1;\r\n      kittenGen /= 2;\r\n    } else {\r\n      kittenGen = DadGeneration + 1;\r\n    }\r\n\r\n    _createKitty(_mumId, _dadId, kittenGen, newGene, msg.sender);\r\n\r\n    return newGene;\r\n   \r\n  }\r\n\r\n\r\n  function supportsInterface(bytes4 _interfaceId) external pure returns (bool) {\r\n    return(_interfaceId == _INTERFACE_TO_ERC721 || _interfaceId == _INTERFACE_TO_ERC165);\r\n  }\r\n\r\n\r\n  bytes4 internal constant MAGIC_ERC721_RECEIVED = bytes4(keccak256(\"onERC721Received(address,address,uint256,bytes)\"));\r\n\r\n  struct Kitty{\r\n    uint64 birthTime;\r\n    uint32 mumId;\r\n    uint32 dadId;\r\n    uint16 generation;\r\n    uint256 genes;\r\n  }\r\n\r\n\r\n  Kitty[] kitties;\r\n\r\n\r\n  function createKittyGen0(uint256 _genes) public onlyOwner returns (uint256){\r\n    require(gen0Counter <= CREATION_LIMIT_GEN0, \"Gen 0 should be less than creation limit gen 0\");\r\n    \r\n    gen0Counter ++;\r\n\r\n    // mum, dad and generation is 0\r\n    // Gen0 have no owners; they are owned by the contract\r\n    \r\n    return _createKitty(0,0,0, _genes, msg.sender); // msg.sender could also be -- address(this) - we are giving cats to owner\r\n  }\r\n\r\n\r\n  // create cats by generation and by breeding\r\n  // returns cat id\r\n  function _createKitty(\r\n    uint256 _mumId,\r\n    uint256 _dadId,\r\n    uint256 _generation, //1,2,3..etc\r\n    uint256 _genes, // recipient\r\n    address owner\r\n  ) public returns(uint256) {\r\n    Kitty memory newKitties = Kitty ({\r\n      genes: _genes,\r\n      birthTime: uint64(block.timestamp),\r\n      mumId: uint32(_mumId),\r\n      dadId: uint32(_dadId),\r\n      generation: uint16(_generation)\r\n    });\r\n\r\n    kitties.push(newKitties); // returns the size of array - 1 for the first cat\r\n\r\n    uint256 newKittenId = kitties.length -1; // 0-1\r\n\r\n    emit Birth(owner, newKittenId, _mumId, _dadId, _genes);\r\n\r\n    _transfer(address(0), owner, newKittenId);\r\n\r\n    return newKittenId; //returns 256 bit integer\r\n\r\n  }\r\n\r\n\r\n  function myGetKitty(uint256 tokenId) public view returns (\r\n    uint256 birthTime,\r\n    uint256 mumId,\r\n    uint256 dadId,\r\n    uint256 generation,\r\n    uint256 genes\r\n  ) {\r\n\r\n    Kitty storage returnKitty = kitties[tokenId];\r\n    return (uint256(returnKitty.birthTime), uint256(returnKitty.mumId), uint256(returnKitty.dadId), uint256(returnKitty.generation), uint256(returnKitty.genes));\r\n  }\r\n\r\n\r\n  function getKittyFilip(uint256 _id) public view returns (\r\n    uint256 birthTime,\r\n    uint256 mumId,\r\n    uint256 dadId,\r\n    uint256 generation,\r\n    uint256 genes\r\n  ) {\r\n\r\n    Kitty storage kitty = kitties[_id];\r\n    birthTime = uint256(kitty.birthTime);\r\n    mumId = uint256(kitty.mumId);\r\n    dadId = uint256(kitty.dadId);\r\n    generation = uint256(kitty.generation);\r\n    genes = uint256(kitty.genes);\r\n  }\r\n\r\n  //-------------------------------\r\n\r\n  function getAllCatsFor(address owner) public view returns (uint[] memory) {\r\n    return ownerToCats[owner];\r\n  }\r\n  \r\n\r\n  function balanceOf(address owner) public view returns (uint256 balance) {\r\n    return ownershipTokenCount[owner];\r\n  }\r\n\r\n\r\n  function totalSupply() public view returns (uint256 total) {\r\n    return kitties.length;\r\n  }\r\n\r\n\r\n  function name() external pure returns (string memory tokenName) {\r\n    return _name;\r\n  }\r\n\r\n\r\n  function symbol() external pure returns (string memory tokenSymbol) {\r\n    return _symbol;\r\n  }\r\n\r\n  // private functions are cheaper but public allows to execute function from within this contract\r\n  function ownerOf(uint256 tokenId) public view returns (address owner) {\r\n    address _owner = kittyIndexToOwner[tokenId]; // local variable \r\n    require(_owner != address(0), \"ERC721: owner query for nonexistent token\");\r\n\r\n    return _owner;\r\n  }\r\n\r\n\r\n  // this transfer function is not used -- the mint function might be better suited for minting NFTs\r\n  function transfer(address to, uint256 tokenId) external {\r\n    require(to != address(0), \"ERC721: transfer to the zero address\");\r\n    require(to != address(this), \"transfer to the zero address\");\r\n    // `tokenId` token must be owned by `msg.sender`.\r\n    require(_owns(msg.sender, tokenId));\r\n\r\n    _transfer(msg.sender, to, tokenId);\r\n\r\n  }\r\n\r\n\r\n  function approve(address _approved, uint256 _tokenId) public {\r\n    ///  Throws unless `msg.sender` is the current NFT owner, or an authorized\r\n    ///  operator of the current owner.\r\n    require(_owns(msg.sender, _tokenId));\r\n\r\n    _approve(_tokenId, _approved);\r\n    emit Approval(msg.sender, _approved, _tokenId);\r\n\r\n  }\r\n\r\n\r\n  function setApprovalForAll(address _operator, bool _approved) public {\r\n    require(_operator != msg.sender, \"ERC721: approve to caller, you are not the owner\");\r\n\r\n    _operatorApprovals[msg.sender][_operator] = _approved; \r\n    emit ApprovalForAll(msg.sender, _operator, _approved);\r\n\r\n  }\r\n\r\n\r\n  function getApproved(uint256 _tokenId) public view returns (address) {\r\n    require(_tokenId < kitties.length, \"Token must exist\"); // getter function\r\n\r\n    return kittyIndexToApproved[_tokenId];\r\n  }\r\n\r\n\r\n  function isApprovedForAll(address _owner, address _operator) public view returns (bool) {\r\n    return _operatorApprovals[_owner][_operator];\r\n  }\r\n\r\n\r\n  function safeTransferFrom(address _from, address _to, uint256 _tokenId) public {\r\n    safeTransferFrom(_from, _to, _tokenId);\r\n  }\r\n\r\n\r\n  function safeTransferFrom(address _from, address _to, uint256 _tokenId, bytes calldata data) external {\r\n    require(_to != address(0), \"Must transfer to zero address\");\r\n    require(_tokenId < kitties.length, \"Token does not exist\");\r\n    require(_owns(_from, _tokenId), \"Not a valid NFT, not the owner of NFT\");\r\n\r\n     //spender is _from (DEX) or spender is approved for tokenId or spender is operator for _from\r\n    require(msg.sender == _from || isApprovedForAll(_from, _to) || _approvedFor(msg.sender, _tokenId));\r\n\r\n    _safeTransfer(_from, _to, _tokenId, data);\r\n\r\n  }\r\n\r\n\r\n  function getAllTokensForUser(address user) public view returns(uint256[] memory) {\r\n    uint256 tokenCount = balanceOf(user);\r\n    if(tokenCount == 0) {\r\n      return new uint256[](0);\r\n    } else {\r\n      //how many tokens in total?\r\n      uint256[] memory result = new uint256[](tokenCount);\r\n      uint256 totalCats = nextId;\r\n      uint256 resultIndex;\r\n      uint256 i;\r\n      for(i = 0; i < totalCats; i++) {\r\n        //check\r\n        if(ownerOf(i) == user) {\r\n          result[resultIndex] = i;\r\n          resultIndex++;\r\n        }\r\n      }\r\n      return result;\r\n    }  \r\n  }\r\n  \r\n\r\n  function tokensOfOwner(address _owner) public view returns(uint256[] memory ownerTokens) {\r\n    uint256 tokenCount = balanceOf(_owner);\r\n\r\n    if (tokenCount == 0) {\r\n      return new uint256[](0);\r\n    } else {\r\n      uint256[] memory result = new uint256[](tokenCount);\r\n      uint256 totalCats = totalSupply();\r\n      uint256 resultIndex = 0;\r\n\r\n      uint256 catId;\r\n\r\n      for (catId = 1; catId <= totalCats; catId++) {\r\n        if (kittyIndexToOwner[catId] == _owner) {\r\n          result[resultIndex] = catId;\r\n          resultIndex++;\r\n        }\r\n      }\r\n\r\n      return result;\r\n    }   \r\n  }\r\n\r\n\r\n  //Smart Contract Programmer(youTuber) ...\r\n  //transferFrom - how it is used:\r\n  //trader calls approve(dexAddress, amount)\r\n  //dex calls transferFrom(traderAddress, dexAddress, amount)\r\n\r\n  function transferFrom(address _from, address _to, uint256 _tokenId) public {\r\n    /// Throws if `_to` is the zero address. \r\n    /// Throws if `_tokenId` is not a valid NFT.\r\n\r\n    /// @dev Throws unless `msg.sender` is the current owner, an authorized\r\n    ///  operator, or the approved address for this NFT.\r\n     \r\n    require(_to != address(0), \"To address is not a zero address\");\r\n    require(_tokenId < kitties.length, \"Token must exist\");\r\n    require(_owns(_from, _tokenId), \"From owns the token\");\r\n    require(msg.sender == _from || isApprovedForAll(_from, msg.sender) || _approvedFor(msg.sender, _tokenId));\r\n\r\n    _transfer(_from, _to, _tokenId);\r\n  }\r\n\r\n\r\n  // must transfer from address 0\r\n  function _transfer(address from, address to, uint256 tokenId) internal {\r\n    //_approve(address(0), tokenId);\r\n\r\n    ownershipTokenCount[to] += 1; // increase count of recipient\r\n\r\n    kittyIndexToOwner[tokenId] = to;\r\n\r\n     // SEMD tokenId # => an address to a number of cats in an array\r\n     ownerToCats[to].push(tokenId);\r\n\r\n     // decrease token count from person A to person B\r\n     if (from != address(0)) { // if from is not address(0), is okay to remove token\r\n       ownershipTokenCount[from] -= 1;\r\n       _removeTokenIdFromOwner(from, tokenId);\r\n       delete kittyIndexToOwner[tokenId];\r\n     }\r\n\r\n     emit Transfer(msg.sender, to, tokenId);\r\n\r\n  }\r\n\r\n\r\n  function _safeTransfer(address _from, address _to, uint256 _tokenId, bytes calldata _data) internal {\r\n    _transfer(_from, _to, _tokenId);\r\n    require(_checkERC721Support(_from, _to, _tokenId, _data));\r\n  }\r\n\r\n\r\n  function  _removeTokenIdFromOwner(address owner, uint256 tokenId) internal {\r\n    uint256 lastId = ownerToCats[owner][ownerToCats[owner].length -1];\r\n    for (uint256 i = 0; i < ownerToCats[owner].length -1; i++) {\r\n      if (ownerToCats[owner][i] == tokenId) {\r\n        ownerToCats[owner][i] = lastId;\r\n        ownerToCats[owner].pop();\r\n      }\r\n    }\r\n  }\r\n\r\n\r\n  function _owns(address _claimant, uint256 tokenId ) internal view returns(bool) {\r\n    return kittyIndexToOwner[tokenId] == _claimant;\r\n  }\r\n\r\n\r\n  function _deleteApproval(uint256 _tokenId) internal {\r\n      require(_owns(msg.sender, _tokenId));\r\n      delete kittyIndexToApproved[_tokenId];\r\n  }\r\n\r\n\r\n   function _approve(uint256 _tokenId, address _approved) internal {\r\n    kittyIndexToApproved[_tokenId] = _approved;\r\n  }\r\n\r\n\r\n  function _approvedFor(address _claimant, uint256 tokenId) internal view returns(bool) {\r\n    return kittyIndexToApproved[tokenId] == _claimant;\r\n  }\r\n\r\n\r\n  function _checkERC721Support(address _from, address _to, uint256 _tokenId, bytes memory _data) internal returns (bool) {\r\n    if(!isContract(_to)) { //checks if `_to` is a smart contract (code size > 0)\r\n      return true;\r\n    }\r\n    //example: Contract(_to)....\r\n    //If there is an operator, where _from is not equal to msg.sender, we use msg.sender.\r\n    bytes4 returnData = IERC721Receiver(_to).onERC721Received(msg.sender, _from, _tokenId, _data);\r\n    return returnData == MAGIC_ERC721_RECEIVED;\r\n    //Call onERC721Received in the _to contract\r\n    //Check return value\r\n  } \r\n\r\n\r\n  function isContract(address _to) internal view returns(bool) {\r\n    //It is a smart contract (code size > 0)\r\n    //If it is a wallet, code size = 0\r\n    uint32 size;\r\n    assembly{\r\n      size := extcodesize(_to)\r\n    }\r\n    return size > 0;\r\n  }\r\n\r\n/*\r\n  function _mixDnaPrev(uint256 _dadDna, uint256 _mumDna) private returns (uint256) {\r\n    //dadDna: 11 22 33 44 55 66 77 88 (in remix: remove spances => 1122334455667788)\r\n    //mumDna: 88 77 66 55 44 33 22 11 (8877665544332211)\r\n    uint256 firstHalf =  _dadDna / 100000000; // 11 22 33 44 (8 zeroes as there are 16 DNA intergers total)\r\n    uint256 secondHalf =  _mumDna % 100000000; // 44 33 22 11 (the remaining 8 zeros')\r\n    //uint256 newDna = firstHalf * 100000000;\r\n    //newDna = newDna + secondHalf;\r\n    // 10 and 20 concat\r\n    // 10 x 100 = 1000\r\n    // 1000 + 20 = 1020\r\n    \r\n    // my verion\r\n    newDna = ((firstHalf * 100000000) + secondHalf);\r\n  \r\n    return newDna;\r\n    // 11 22 33 44 | 44 33 22 1 1\r\n\r\n  }\r\n  */\r\n\r\n/*\r\nfunction before more randomness is added\r\n  function _mixDna(uint256 _dadDna, uint256 _mumDna) private returns(uint256) {\r\n    uint256[8] memory geneArray;\r\n    uint8 random = uint8( block.timestamp % 255 ); // 0-255 max random numbers | binary between 00000000-11111111 (example rand num: 11001011)\r\n    uint256 i = 1;\r\n    uint256 index = 7;\r\n\r\n    bitwise operator\r\n      ==============================\r\n      00000001 = 1     ==> 1 bit\r\n      00000010 = 2     ==> 1 bit\r\n      00000100 = 4     ==> 1 bit\r\n      00001000 = 8     ==> 1 bit\r\n      00010000 = 16    ==> 1 bit\r\n      00100000 = 32    ==> 1 bit\r\n      01000000 = 64    ==> 1 bit\r\n      10000000 = 128   ==> 1 bit\r\n      -----------------------------\r\n      8 bits\r\n      -----------------------------\r\n      =============================\r\n\r\n      We use the && and || or operators to compare the 8 bit random number we got from the timestamp % 255, to the 8 bits of integers which range from 1-128\r\n\r\n      if (true && false) = false (1, 0) = 0\r\n      if we compare something to both true and false, is false because it cannot be both true and false\r\n      if (true || false) = true -- we compare something to true or false, is true; it could be either true or false (1, 0) = 1\r\n      if ( true && true) = true (1, 1) = 1\r\n      if ( false || false) = false (0, 0) = 0 .... one needs to be true\r\n      if ( false && false) = false (0, 0) = 0 .... one needs to be true\r\n      if ( true XOR true) = false) exactly only one can be true \"Exlusive OR\"\r\n\r\n\r\n      BIT WISE AND OPERATOR & AND COMPARE\r\n      11001011 (random number from block.timestamp is compared to the loop of integers 1 < 128 => [1,2,4,8,16,32,64,128])     \r\n      &&&&&&&&        | resulted number | assignment - after comparison, number sequnce is assigned either mumId or dadId\r\n      00000001        1 true              = mum\r\n      00000010        1 true              = mum\r\n      00000100        0 false             = dad\r\n      00001000        1 true              = mum\r\n      00010010        0 false             = dad\r\n      00100010        0 false             = dad\r\n      01000010        1 true              = mum\r\n      10000010        1 true              = mum  reminder compare 1 && 0 is false: a true and a false cannot be both true, thus is false\r\n\r\n      integers < 128 is the 8 bit operator\r\n      if(1) use mum gene\r\n      if(0) use dad gene\r\n\r\n      from the resulted sequnce 11010010; 1's were assigned to mumId and 0's to dadId\r\n      mumDNA\r\n      11 22 33 44 55 66 77 88\r\n      dadDNA\r\n      10 20 30 40 50 60 70 80 \r\n      result DNA\r\n      mum mum dad mum dad dad mum dad\r\n      \r\n      DNA from both parents: geneArray [11, 22, 30, 44, 50 60 77 (80)] //we remove the last pair by deviding by 100; the function below will perform this operation\r\n  \r\n    \r\n\r\n    for ( i = 1; i <= 128; i=i*2) { \r\n      if(random & i !=0) {\r\n        geneArray[index] =  uint8( _mumDna % 100); // we set the index pos in array at #7; then / by 100 and move the index back by 1 to get rid of the last two digits\r\n      }\r\n      else {\r\n        geneArray[index] =  uint8( _dadDna % 100);\r\n      }\r\n\r\n      // divide by 100 to loop backwards in the array and choose mum or dad gene\r\n      //11 22 33 44 55 66 77\r\n      //11 22 33 44 55 66\r\n      //11 22 33 44 55\r\n      //11 22 33 44\r\n      //11 22 33\r\n      //11 22\r\n      //11 \r\n\r\n      _mumDna = _mumDna / 100;\r\n      _mumDna = _mumDna / 100;\r\n\r\n      //index = index - 1; // from the 7th pos, we move back in pos of the array[,,,,<==] \r\n      if (i != 128) {index = index -1;}  \r\n\r\n    }\r\n\r\n      \r\n    // Combined DNA from both parents as one string of numbers\r\n    // uint256 newGene variable; (already declared at start of contract)\r\n\r\n    // imaginary string from both parents geneArray - just an example => will be merged into one string of numbers\r\n\r\n    //[12, 23, 34, 45, 56, 67, 78, 98]\r\n\r\n    // we take our first pos and add (+) our new gene\r\n    // [12]\r\n    // we then take our new gene and mult by (100)\r\n    // [1200]\r\n    // we then add from our geneArray[i] then next index num\r\n    // [1223]\r\n    // we then mult by 100 again since it is not index 7 yet\r\n    // [122300]\r\n    // add again from our geneArray[i] the next index\r\n    // [122324]\r\n    // mult again\r\n    // [12233400]... and so on unit it reaches index 7\r\n    \r\n    for(i = 0; i < 8; i++) {\r\n      newGene = newGene + geneArray[i]; // we need to stop before the last index [1,2,3,4,5,6,7, stop]\r\n      if(i != 7) { // if i is not index 7, mult; otherwise stop and return new gene\r\n         newGene = newGene * 100;\r\n      } \r\n  \r\n    }\r\n    return newGene; // 1223344556677898\r\n  }\r\n  */\r\n\r\n  function _mixDnaMoreRand(uint256 _dadDna, uint256 _mumDna) private returns(uint256) {\r\n    uint256[8] memory moreRandGeneArray;\r\n    uint8 rand = uint8(block.timestamp % 255);\r\n    uint256 i = 1;\r\n    uint256 index = 7;\r\n\r\n    /*\r\n    8 bit wise AND operator (&) and XOR\r\n      00000001 = 1     ==> 1 bit\r\n      00000010 = 2     ==> 1 bit\r\n      00000100 = 4     ==> 1 bit\r\n      00001000 = 8     ==> 1 bit\r\n      00010000 = 16    ==> 1 bit\r\n      00100000 = 32    ==> 1 bit\r\n      01000000 = 64    ==> 1 bit\r\n      10000000 = 128   ==> 1 bit\r\n      &\r\n      11001011 8 bit fictional random number from timestamp modulo 255\r\n      ================================================================\r\n      11001011 result from AND & operator\r\n\r\n      if random & != 0: pick mumId = > do more random here - how about compare with XOR operator\r\n      else\r\n      pick dadId\r\n\r\n      00110100 result from XOR ^\r\n\r\n      Take the random number we calculated in the previous video, and use it to select one of the pairs that will get an extra randomness treatment. Then generate a new, 2 digit, random number and set it as that pair. That DNA pair will now be completely random, independent from any parent.\r\n    */\r\n\r\n\r\n    for (i = 1; i <= 128; i=i*2) { // remix error fix #1 -- 64 instead of 128\r\n\r\n      if (rand & i != 0) {\r\n        moreRandGeneArray[index] = uint8(_mumDna % 100);\r\n      }\r\n      else {\r\n         moreRandGeneArray[index] = uint8(_dadDna % 100);\r\n      }\r\n\r\n      _mumDna = _mumDna / 100;\r\n      _dadDna = _dadDna / 100;\r\n\r\n      //index = index -1;\r\n      if(i != 128){index = index-1;} // remix fix #2\r\n\r\n    }\r\n\r\n      //select one of the pairs\r\n      uint8 newPairIndex = rand % 7; // index\r\n      //extra random treatment\r\n      moreRandGeneArray[newPairIndex] = rand % 99;\r\n\r\n\r\n    // convert dna pairs into one string of numbers\r\n    for (i = 0; i < 8; i++) {\r\n      newRandGene = newRandGene + moreRandGeneArray[i];\r\n\r\n      if (i != 7 ) {\r\n        newRandGene = newRandGene * 100;\r\n      }\r\n\r\n    }\r\n    return newRandGene;\r\n  }\r\n\r\n\r\n}",
  "sourcePath": "C:\\Users\\benX\\Documents\\ethereum_course_advanced\\myCryptoKitties_master\\contracts\\kittiesContract.sol",
  "compiler": {
    "name": "solc",
    "version": "0.8.7+commit.e28d00a7.Emscripten.clang"
  },
  "schemaVersion": "3.4.2",
  "updatedAt": "2021-08-25T02:56:52.686Z",
  "networkType": "ethereum",
  "devdoc": {
    "kind": "dev",
    "methods": {
      "owner()": {
        "details": "Returns the address of the current owner."
      },
      "renounceOwnership()": {
        "details": "Leaves the contract without owner. It will not be possible to call `onlyOwner` functions anymore. Can only be called by the current owner. NOTE: Renouncing ownership will leave the contract without an owner, thereby removing any functionality that is only available to the owner."
      },
      "transferOwnership(address)": {
        "details": "Transfers ownership of the contract to a new account (`newOwner`). Can only be called by the current owner."
      }
    },
    "version": 1
  },
  "userdoc": {
    "kind": "user",
    "methods": {},
    "version": 1
  }
}