{
  "contractName": "myKittiesContract",
  "abi": [
    {
      "inputs": [
        {
          "internalType": "string",
          "name": "name_",
          "type": "string"
        },
        {
          "internalType": "string",
          "name": "symbol_",
          "type": "string"
        }
      ],
      "stateMutability": "nonpayable",
      "type": "constructor"
    },
    {
      "anonymous": false,
      "inputs": [
        {
          "indexed": true,
          "internalType": "address",
          "name": "owner",
          "type": "address"
        },
        {
          "indexed": true,
          "internalType": "address",
          "name": "approved",
          "type": "address"
        },
        {
          "indexed": true,
          "internalType": "uint256",
          "name": "tokenId",
          "type": "uint256"
        }
      ],
      "name": "Approval",
      "type": "event"
    },
    {
      "anonymous": false,
      "inputs": [
        {
          "indexed": true,
          "internalType": "address",
          "name": "owner",
          "type": "address"
        },
        {
          "indexed": true,
          "internalType": "address",
          "name": "operator",
          "type": "address"
        },
        {
          "indexed": false,
          "internalType": "bool",
          "name": "approved",
          "type": "bool"
        }
      ],
      "name": "ApprovalForAll",
      "type": "event"
    },
    {
      "anonymous": false,
      "inputs": [
        {
          "indexed": false,
          "internalType": "address",
          "name": "owner",
          "type": "address"
        },
        {
          "indexed": false,
          "internalType": "uint256",
          "name": "newKittenId",
          "type": "uint256"
        },
        {
          "indexed": false,
          "internalType": "uint256",
          "name": "mumId",
          "type": "uint256"
        },
        {
          "indexed": false,
          "internalType": "uint256",
          "name": "dadId",
          "type": "uint256"
        },
        {
          "indexed": false,
          "internalType": "uint256",
          "name": "genes",
          "type": "uint256"
        }
      ],
      "name": "Birth",
      "type": "event"
    },
    {
      "anonymous": false,
      "inputs": [
        {
          "indexed": true,
          "internalType": "address",
          "name": "from",
          "type": "address"
        },
        {
          "indexed": true,
          "internalType": "address",
          "name": "to",
          "type": "address"
        },
        {
          "indexed": true,
          "internalType": "uint256",
          "name": "tokenId",
          "type": "uint256"
        }
      ],
      "name": "Transfer",
      "type": "event"
    },
    {
      "inputs": [],
      "name": "CREATION_LIMIT_GEN0",
      "outputs": [
        {
          "internalType": "uint256",
          "name": "",
          "type": "uint256"
        }
      ],
      "stateMutability": "view",
      "type": "function"
    },
    {
      "inputs": [],
      "name": "gen0Counter",
      "outputs": [
        {
          "internalType": "uint256",
          "name": "",
          "type": "uint256"
        }
      ],
      "stateMutability": "view",
      "type": "function"
    },
    {
      "inputs": [
        {
          "internalType": "uint256",
          "name": "",
          "type": "uint256"
        }
      ],
      "name": "kittyIndexToOwner",
      "outputs": [
        {
          "internalType": "address",
          "name": "",
          "type": "address"
        }
      ],
      "stateMutability": "view",
      "type": "function"
    },
    {
      "inputs": [],
      "name": "owner",
      "outputs": [
        {
          "internalType": "address",
          "name": "",
          "type": "address"
        }
      ],
      "stateMutability": "view",
      "type": "function"
    },
    {
      "inputs": [
        {
          "internalType": "uint256",
          "name": "_genes",
          "type": "uint256"
        }
      ],
      "name": "createKittyGen0",
      "outputs": [
        {
          "internalType": "uint256",
          "name": "",
          "type": "uint256"
        }
      ],
      "stateMutability": "nonpayable",
      "type": "function"
    },
    {
      "inputs": [
        {
          "internalType": "uint256",
          "name": "_mumId",
          "type": "uint256"
        },
        {
          "internalType": "uint256",
          "name": "_dadId",
          "type": "uint256"
        },
        {
          "internalType": "uint256",
          "name": "_generation",
          "type": "uint256"
        },
        {
          "internalType": "uint256",
          "name": "_genes",
          "type": "uint256"
        },
        {
          "internalType": "address",
          "name": "owner",
          "type": "address"
        }
      ],
      "name": "_createKitty",
      "outputs": [
        {
          "internalType": "uint256",
          "name": "",
          "type": "uint256"
        }
      ],
      "stateMutability": "nonpayable",
      "type": "function"
    },
    {
      "inputs": [
        {
          "internalType": "uint256",
          "name": "tokenId",
          "type": "uint256"
        }
      ],
      "name": "myGetKitty",
      "outputs": [
        {
          "internalType": "uint256",
          "name": "birthTime",
          "type": "uint256"
        },
        {
          "internalType": "uint256",
          "name": "mumId",
          "type": "uint256"
        },
        {
          "internalType": "uint256",
          "name": "dadId",
          "type": "uint256"
        },
        {
          "internalType": "uint256",
          "name": "generation",
          "type": "uint256"
        },
        {
          "internalType": "uint256",
          "name": "genes",
          "type": "uint256"
        }
      ],
      "stateMutability": "view",
      "type": "function"
    },
    {
      "inputs": [
        {
          "internalType": "uint256",
          "name": "_id",
          "type": "uint256"
        }
      ],
      "name": "getKittyFilip",
      "outputs": [
        {
          "internalType": "uint256",
          "name": "birthTime",
          "type": "uint256"
        },
        {
          "internalType": "uint256",
          "name": "mumId",
          "type": "uint256"
        },
        {
          "internalType": "uint256",
          "name": "dadId",
          "type": "uint256"
        },
        {
          "internalType": "uint256",
          "name": "generation",
          "type": "uint256"
        },
        {
          "internalType": "uint256",
          "name": "genes",
          "type": "uint256"
        }
      ],
      "stateMutability": "view",
      "type": "function"
    },
    {
      "inputs": [
        {
          "internalType": "address",
          "name": "owner",
          "type": "address"
        }
      ],
      "name": "getAllCatsFor",
      "outputs": [
        {
          "internalType": "uint256[]",
          "name": "",
          "type": "uint256[]"
        }
      ],
      "stateMutability": "view",
      "type": "function"
    },
    {
      "inputs": [
        {
          "internalType": "address",
          "name": "owner",
          "type": "address"
        }
      ],
      "name": "balanceOf",
      "outputs": [
        {
          "internalType": "uint256",
          "name": "balance",
          "type": "uint256"
        }
      ],
      "stateMutability": "view",
      "type": "function"
    },
    {
      "inputs": [],
      "name": "totalSupply",
      "outputs": [
        {
          "internalType": "uint256",
          "name": "total",
          "type": "uint256"
        }
      ],
      "stateMutability": "view",
      "type": "function"
    },
    {
      "inputs": [],
      "name": "name",
      "outputs": [
        {
          "internalType": "string",
          "name": "tokenName",
          "type": "string"
        }
      ],
      "stateMutability": "view",
      "type": "function"
    },
    {
      "inputs": [],
      "name": "symbol",
      "outputs": [
        {
          "internalType": "string",
          "name": "tokenSymbol",
          "type": "string"
        }
      ],
      "stateMutability": "view",
      "type": "function"
    },
    {
      "inputs": [
        {
          "internalType": "uint256",
          "name": "tokenId",
          "type": "uint256"
        }
      ],
      "name": "ownerOf",
      "outputs": [
        {
          "internalType": "address",
          "name": "owner",
          "type": "address"
        }
      ],
      "stateMutability": "view",
      "type": "function"
    },
    {
      "inputs": [
        {
          "internalType": "address",
          "name": "to",
          "type": "address"
        },
        {
          "internalType": "uint256",
          "name": "tokenId",
          "type": "uint256"
        }
      ],
      "name": "transfer",
      "outputs": [],
      "stateMutability": "nonpayable",
      "type": "function"
    }
  ],
  "bytecode": "0x60806040523480156200001157600080fd5b5060405162001d5438038062001d548339818101604052810190620000379190620001e7565b60048054620000469062000301565b80601f0160208091040260200160405190810160405280929190818152602001828054620000749062000301565b8015620000c55780601f106200009957610100808354040283529160200191620000c5565b820191906000526020600020905b815481529060010190602001808311620000a757829003601f168201915b5050505050915060058054620000db9062000301565b80601f0160208091040260200160405190810160405280929190818152602001828054620001099062000301565b80156200015a5780601f106200012e576101008083540402835291602001916200015a565b820191906000526020600020905b8154815290600101906020018083116200013c57829003601f168201915b505050505090505050620003f0565b6000620001806200017a8462000295565b6200026c565b9050828152602081018484840111156200019f576200019e620003d0565b5b620001ac848285620002cb565b509392505050565b600082601f830112620001cc57620001cb620003cb565b5b8151620001de84826020860162000169565b91505092915050565b60008060408385031215620002015762000200620003da565b5b600083015167ffffffffffffffff811115620002225762000221620003d5565b5b6200023085828601620001b4565b925050602083015167ffffffffffffffff811115620002545762000253620003d5565b5b6200026285828601620001b4565b9150509250929050565b6000620002786200028b565b905062000286828262000337565b919050565b6000604051905090565b600067ffffffffffffffff821115620002b357620002b26200039c565b5b620002be82620003df565b9050602081019050919050565b60005b83811015620002eb578082015181840152602081019050620002ce565b83811115620002fb576000848401525b50505050565b600060028204905060018216806200031a57607f821691505b602082108114156200033157620003306200036d565b5b50919050565b6200034282620003df565b810181811067ffffffffffffffff821117156200036457620003636200039c565b5b80604052505050565b7f4e487b7100000000000000000000000000000000000000000000000000000000600052602260045260246000fd5b7f4e487b7100000000000000000000000000000000000000000000000000000000600052604160045260246000fd5b600080fd5b600080fd5b600080fd5b600080fd5b6000601f19601f8301169050919050565b61195480620004006000396000f3fe608060405234801561001057600080fd5b50600436106100f55760003560e01c80638da5cb5b11610097578063a9059cbb11610066578063a9059cbb146102ca578063b4834330146102e6578063d5a776ca14610304578063ef5e94aa14610334576100f5565b80638da5cb5b1461022a57806395d89b4114610248578063a090cb7714610266578063a45f4bfc1461029a576100f5565b8063338a63a4116100d3578063338a63a41461016a5780635a64aafa1461019a5780636352211e146101ca57806370a08231146101fa576100f5565b806306fdde03146100fa5780630dd1c2e81461011857806318160ddd1461014c575b600080fd5b610102610352565b60405161010f91906113c0565b60405180910390f35b610132600480360381019061012d91906110fd565b6103e4565b60405161014395949392919061149d565b60405180910390f35b61015461049a565b6040516101619190611482565b60405180910390f35b610184600480360381019061017f919061112a565b6104a7565b6040516101919190611482565b60405180910390f35b6101b460048036038101906101af9190611090565b610634565b6040516101c1919061139e565b60405180910390f35b6101e460048036038101906101df91906110fd565b6106cb565b6040516101f19190611330565b60405180910390f35b610214600480360381019061020f9190611090565b61077d565b6040516102219190611482565b60405180910390f35b6102326107c6565b60405161023f9190611330565b60405180910390f35b6102506107ea565b60405161025d91906113c0565b60405180910390f35b610280600480360381019061027b91906110fd565b61087c565b60405161029195949392919061149d565b60405180910390f35b6102b460048036038101906102af91906110fd565b610932565b6040516102c19190611330565b60405180910390f35b6102e460048036038101906102df91906110bd565b610965565b005b6102ee610a66565b6040516102fb9190611482565b60405180910390f35b61031e600480360381019061031991906110fd565b610a6b565b60405161032b9190611482565b60405180910390f35b61033c610b70565b6040516103499190611482565b60405180910390f35b6060600480546103619061163e565b80601f016020809104026020016040519081016040528092919081815260200182805461038d9061163e565b80156103da5780601f106103af576101008083540402835291602001916103da565b820191906000526020600020905b8154815290600101906020018083116103bd57829003601f168201915b5050505050905090565b6000806000806000806007878154811061040157610400611746565b5b906000526020600020906002020190508060000160009054906101000a900467ffffffffffffffff1667ffffffffffffffff1695508060000160089054906101000a900463ffffffff1663ffffffff16945080600001600c9054906101000a900463ffffffff1663ffffffff1693508060000160109054906101000a900461ffff1661ffff169250806001015491505091939590929450565b6000600780549050905090565b6000806040518060a001604052804267ffffffffffffffff1681526020018863ffffffff1681526020018763ffffffff1681526020018661ffff168152602001858152509050600781908060018154018082558091505060019003906000526020600020906002020160009091909190915060008201518160000160006101000a81548167ffffffffffffffff021916908367ffffffffffffffff16021790555060208201518160000160086101000a81548163ffffffff021916908363ffffffff160217905550604082015181600001600c6101000a81548163ffffffff021916908363ffffffff16021790555060608201518160000160106101000a81548161ffff021916908361ffff160217905550608082015181600101555050600060016007805490506105d9919061159b565b90507f0a5311bd2a6608f08a180df2ee7c5946819a649b204b554bb8e39825b2c50ad584828a8a8960405161061295949392919061134b565b60405180910390a161062660008583610b76565b809250505095945050505050565b6060600360008373ffffffffffffffffffffffffffffffffffffffff1673ffffffffffffffffffffffffffffffffffffffff1681526020019081526020016000208054806020026020016040519081016040528092919081815260200182805480156106bf57602002820191906000526020600020905b8154815260200190600101908083116106ab575b50505050509050919050565b6000806001600084815260200190815260200160002060009054906101000a900473ffffffffffffffffffffffffffffffffffffffff169050600073ffffffffffffffffffffffffffffffffffffffff168173ffffffffffffffffffffffffffffffffffffffff161415610774576040517f08c379a000000000000000000000000000000000000000000000000000000000815260040161076b90611422565b60405180910390fd5b80915050919050565b6000600260008373ffffffffffffffffffffffffffffffffffffffff1673ffffffffffffffffffffffffffffffffffffffff168152602001908152602001600020549050919050565b60008054906101000a900473ffffffffffffffffffffffffffffffffffffffff1681565b6060600580546107f99061163e565b80601f01602080910402602001604051908101604052809291908181526020018280546108259061163e565b80156108725780601f1061084757610100808354040283529160200191610872565b820191906000526020600020905b81548152906001019060200180831161085557829003601f168201915b5050505050905090565b6000806000806000806007878154811061089957610898611746565b5b906000526020600020906002020190508060000160009054906101000a900467ffffffffffffffff1667ffffffffffffffff168160000160089054906101000a900463ffffffff1663ffffffff1682600001600c9054906101000a900463ffffffff1663ffffffff168360000160109054906101000a900461ffff1661ffff168460010154955095509550955095505091939590929450565b60016020528060005260406000206000915054906101000a900473ffffffffffffffffffffffffffffffffffffffff1681565b600073ffffffffffffffffffffffffffffffffffffffff168273ffffffffffffffffffffffffffffffffffffffff1614156109d5576040517f08c379a00000000000000000000000000000000000000000000000000000000081526004016109cc90611402565b60405180910390fd5b3073ffffffffffffffffffffffffffffffffffffffff168273ffffffffffffffffffffffffffffffffffffffff161415610a44576040517f08c379a0000000000000000000000000000000000000000000000000000000008152600401610a3b90611462565b60405180910390fd5b610a4e3382610db1565b610a5757600080fd5b610a62338383610b76565b5050565b600a81565b60008060009054906101000a900473ffffffffffffffffffffffffffffffffffffffff1673ffffffffffffffffffffffffffffffffffffffff163373ffffffffffffffffffffffffffffffffffffffff1614610afc576040517f08c379a0000000000000000000000000000000000000000000000000000000008152600401610af390611442565b60405180910390fd5b600a6006541115610b42576040517f08c379a0000000000000000000000000000000000000000000000000000000008152600401610b39906113e2565b60405180910390fd5b60066000815480929190610b5590611670565b9190505550610b69600080600085336104a7565b9050919050565b60065481565b6001600260008473ffffffffffffffffffffffffffffffffffffffff1673ffffffffffffffffffffffffffffffffffffffff1681526020019081526020016000206000828254610bc69190611545565b92505081905550816001600083815260200190815260200160002060006101000a81548173ffffffffffffffffffffffffffffffffffffffff021916908373ffffffffffffffffffffffffffffffffffffffff160217905550600360008373ffffffffffffffffffffffffffffffffffffffff1673ffffffffffffffffffffffffffffffffffffffff168152602001908152602001600020819080600181540180825580915050600190039060005260206000200160009091909190915055600073ffffffffffffffffffffffffffffffffffffffff168373ffffffffffffffffffffffffffffffffffffffff1614610d51576001600260008573ffffffffffffffffffffffffffffffffffffffff1673ffffffffffffffffffffffffffffffffffffffff1681526020019081526020016000206000828254610d09919061159b565b92505081905550610d1a8382610e1d565b6001600082815260200190815260200160002060006101000a81549073ffffffffffffffffffffffffffffffffffffffff02191690555b808273ffffffffffffffffffffffffffffffffffffffff163373ffffffffffffffffffffffffffffffffffffffff167fddf252ad1be2c89b69c2b068fc378daa952ba7f163c4a11628f55a4df523b3ef60405160405180910390a4505050565b60008273ffffffffffffffffffffffffffffffffffffffff166001600084815260200190815260200160002060009054906101000a900473ffffffffffffffffffffffffffffffffffffffff1673ffffffffffffffffffffffffffffffffffffffff1614905092915050565b6000600360008473ffffffffffffffffffffffffffffffffffffffff1673ffffffffffffffffffffffffffffffffffffffff1681526020019081526020016000206001600360008673ffffffffffffffffffffffffffffffffffffffff1673ffffffffffffffffffffffffffffffffffffffff16815260200190815260200160002080549050610ead919061159b565b81548110610ebe57610ebd611746565b5b9060005260206000200154905060005b6001600360008673ffffffffffffffffffffffffffffffffffffffff1673ffffffffffffffffffffffffffffffffffffffff16815260200190815260200160002080549050610f1d919061159b565b8110156110605782600360008673ffffffffffffffffffffffffffffffffffffffff1673ffffffffffffffffffffffffffffffffffffffff1681526020019081526020016000208281548110610f7657610f75611746565b5b9060005260206000200154141561104d5781600360008673ffffffffffffffffffffffffffffffffffffffff1673ffffffffffffffffffffffffffffffffffffffff1681526020019081526020016000208281548110610fd957610fd8611746565b5b9060005260206000200181905550600360008573ffffffffffffffffffffffffffffffffffffffff1673ffffffffffffffffffffffffffffffffffffffff16815260200190815260200160002080548061103657611035611717565b5b600190038181906000526020600020016000905590555b808061105890611670565b915050610ece565b50505050565b600081359050611075816118f0565b92915050565b60008135905061108a81611907565b92915050565b6000602082840312156110a6576110a5611775565b5b60006110b484828501611066565b91505092915050565b600080604083850312156110d4576110d3611775565b5b60006110e285828601611066565b92505060206110f38582860161107b565b9150509250929050565b60006020828403121561111357611112611775565b5b60006111218482850161107b565b91505092915050565b600080600080600060a0868803121561114657611145611775565b5b60006111548882890161107b565b95505060206111658882890161107b565b94505060406111768882890161107b565b93505060606111878882890161107b565b925050608061119888828901611066565b9150509295509295909350565b60006111b18383611312565b60208301905092915050565b6111c6816115cf565b82525050565b60006111d782611500565b6111e18185611523565b93506111ec836114f0565b8060005b8381101561121d57815161120488826111a5565b975061120f83611516565b9250506001810190506111f0565b5085935050505092915050565b60006112358261150b565b61123f8185611534565b935061124f81856020860161160b565b6112588161177a565b840191505092915050565b6000611270602e83611534565b915061127b8261178b565b604082019050919050565b6000611293602483611534565b915061129e826117da565b604082019050919050565b60006112b6602983611534565b91506112c182611829565b604082019050919050565b60006112d9602083611534565b91506112e482611878565b602082019050919050565b60006112fc602183611534565b9150611307826118a1565b604082019050919050565b61131b81611601565b82525050565b61132a81611601565b82525050565b600060208201905061134560008301846111bd565b92915050565b600060a08201905061136060008301886111bd565b61136d6020830187611321565b61137a6040830186611321565b6113876060830185611321565b6113946080830184611321565b9695505050505050565b600060208201905081810360008301526113b881846111cc565b905092915050565b600060208201905081810360008301526113da818461122a565b905092915050565b600060208201905081810360008301526113fb81611263565b9050919050565b6000602082019050818103600083015261141b81611286565b9050919050565b6000602082019050818103600083015261143b816112a9565b9050919050565b6000602082019050818103600083015261145b816112cc565b9050919050565b6000602082019050818103600083015261147b816112ef565b9050919050565b60006020820190506114976000830184611321565b92915050565b600060a0820190506114b26000830188611321565b6114bf6020830187611321565b6114cc6040830186611321565b6114d96060830185611321565b6114e66080830184611321565b9695505050505050565b6000819050602082019050919050565b600081519050919050565b600081519050919050565b6000602082019050919050565b600082825260208201905092915050565b600082825260208201905092915050565b600061155082611601565b915061155b83611601565b9250827fffffffffffffffffffffffffffffffffffffffffffffffffffffffffffffffff038211156115905761158f6116b9565b5b828201905092915050565b60006115a682611601565b91506115b183611601565b9250828210156115c4576115c36116b9565b5b828203905092915050565b60006115da826115e1565b9050919050565b600073ffffffffffffffffffffffffffffffffffffffff82169050919050565b6000819050919050565b60005b8381101561162957808201518184015260208101905061160e565b83811115611638576000848401525b50505050565b6000600282049050600182168061165657607f821691505b6020821081141561166a576116696116e8565b5b50919050565b600061167b82611601565b91507fffffffffffffffffffffffffffffffffffffffffffffffffffffffffffffffff8214156116ae576116ad6116b9565b5b600182019050919050565b7f4e487b7100000000000000000000000000000000000000000000000000000000600052601160045260246000fd5b7f4e487b7100000000000000000000000000000000000000000000000000000000600052602260045260246000fd5b7f4e487b7100000000000000000000000000000000000000000000000000000000600052603160045260246000fd5b7f4e487b7100000000000000000000000000000000000000000000000000000000600052603260045260246000fd5b600080fd5b6000601f19601f8301169050919050565b7f47656e20302073686f756c64206265206c657373207468616e2063726561746960008201527f6f6e206c696d69742067656e2030000000000000000000000000000000000000602082015250565b7f4552433732313a207472616e7366657220746f20746865207a65726f2061646460008201527f7265737300000000000000000000000000000000000000000000000000000000602082015250565b7f4552433732313a206f776e657220717565727920666f72206e6f6e657869737460008201527f656e7420746f6b656e0000000000000000000000000000000000000000000000602082015250565b7f4f776e61626c653a2063616c6c6572206973206e6f7420746865206f776e6572600082015250565b7f746f2063616e6e6f742062652074686520636f6e74726163742061646472657360008201527f7300000000000000000000000000000000000000000000000000000000000000602082015250565b6118f9816115cf565b811461190457600080fd5b50565b61191081611601565b811461191b57600080fd5b5056fea264697066735822122036cd8440a8bd83683bd57af3022a4a35e623578446aab67c97f2598f1228b0a364736f6c63430008060033",
  "immutableReferences": {},
  "source": "// SPDX-License-Identifier: MIT\r\npragma solidity ^0.8.0;\r\n\r\nimport \"./IERC721.sol\";\r\nimport \"./myOwnable.sol\";\r\n\r\n\r\ncontract myKittiesContract is IERC721, Ownable {\r\n\r\n  // Mapping from token ID to owner address\r\n  mapping(uint256 => address) public kittyIndexToOwner; //owners Of TokenId\r\n\r\n  // Mapping owner address to token count\r\n  mapping(address => uint256) ownershipTokenCount;\r\n\r\n  //an address to a number of cats in an array\r\n  mapping(address => uint256[]) ownerToCats;\r\n\r\n  event Birth(address owner, uint256 newKittenId, uint256 mumId, uint256 dadId, uint256 genes);\r\n  \r\n\r\n  string private _name;\r\n  string private _symbol;\r\n\r\n  uint256 public constant CREATION_LIMIT_GEN0 = 10;\r\n\r\n  uint256 public gen0Counter;\r\n\r\n  struct Kitty{\r\n    uint64 birthTime;\r\n    uint32 mumId;\r\n    uint32 dadId;\r\n    uint16 generation;\r\n    uint256 genes;\r\n  }\r\n\r\n  Kitty[] kitties;\r\n\r\n  constructor (string memory name_, string memory symbol_) {\r\n    name_ = _name;\r\n    symbol_ = _symbol;\r\n  }\r\n\r\n  function createKittyGen0(uint256 _genes) public onlyOwner returns (uint256)\r\n  {\r\n    require(gen0Counter <= CREATION_LIMIT_GEN0, \"Gen 0 should be less than creation limit gen 0\");\r\n    \r\n    gen0Counter ++;\r\n\r\n    // mum, dad and generation is 0\r\n    // Gen0 have no owners; they are owned by the contract\r\n    \r\n    return _createKitty(0,0,0, _genes, msg.sender); // msg.sender could also be -- address(this) - we are giving cats to owner\r\n  }\r\n\r\n  // create cats by generation and by breeding\r\n  // returns cat id\r\n  function _createKitty(\r\n    uint256 _mumId,\r\n    uint256 _dadId,\r\n    uint256 _generation, //1,2,3..etc\r\n    uint256 _genes, // recipient\r\n    address owner\r\n  ) public returns(uint256) {\r\n    Kitty memory newKitties = Kitty ({\r\n      genes: _genes,\r\n      birthTime: uint64(block.timestamp),\r\n      mumId: uint32(_mumId),\r\n      dadId: uint32(_dadId),\r\n      generation: uint16(_generation)\r\n    });\r\n\r\n    kitties.push(newKitties); // returns the size of array - 1 for the first cat\r\n\r\n    uint256 newKittenId = kitties.length -1; // 0-1\r\n\r\n    emit Birth(owner, newKittenId, _mumId, _dadId, _genes);\r\n\r\n    _transfer(address(0), owner, newKittenId);\r\n\r\n    return newKittenId; //returns 256 bit integer\r\n\r\n  }\r\n\r\n  function myGetKitty(uint256 tokenId) public view returns (\r\n    uint256 birthTime,\r\n    uint256 mumId,\r\n    uint256 dadId,\r\n    uint256 generation,\r\n    uint256 genes\r\n  ) {\r\n\r\n    Kitty storage returnKitty = kitties[tokenId];\r\n    return (uint256(returnKitty.birthTime), uint256(returnKitty.mumId), uint256(returnKitty.dadId), uint256(returnKitty.generation), uint256(returnKitty.genes));\r\n  }\r\n\r\n  function getKittyFilip(uint256 _id) public view returns (\r\n    uint256 birthTime,\r\n    uint256 mumId,\r\n    uint256 dadId,\r\n    uint256 generation,\r\n    uint256 genes\r\n  ) {\r\n\r\n    Kitty storage kitty = kitties[_id];\r\n    birthTime = uint256(kitty.birthTime);\r\n    mumId = uint256(kitty.mumId);\r\n    dadId = uint256(kitty.dadId);\r\n    generation = uint256(kitty.generation);\r\n    genes = uint256(kitty.genes);\r\n  }\r\n\r\n  function getAllCatsFor(address owner) public view returns (uint[] memory) {\r\n    return ownerToCats[owner];\r\n  }\r\n\r\n\r\n\r\n//-------------------------------\r\n  function balanceOf(address owner) public view virtual override returns (uint256 balance) {\r\n    return ownershipTokenCount[owner];\r\n  }\r\n\r\n  function totalSupply() public view virtual override returns (uint256 total) {\r\n    return kitties.length;\r\n  }\r\n\r\n  function name() external view virtual override returns (string memory tokenName) {\r\n    return _name;\r\n  }\r\n\r\n  function symbol() external view virtual override returns (string memory tokenSymbol) {\r\n    return _symbol;\r\n  }\r\n\r\n  // private functions are cheaper but public allows to execute function from within this contract\r\n  function ownerOf(uint256 tokenId) public view virtual override returns (address owner) {\r\n    address _owner = kittyIndexToOwner[tokenId]; // local variable \r\n    require(_owner != address(0), \"ERC721: owner query for nonexistent token\");\r\n\r\n    return _owner;\r\n\r\n  }\r\n\r\n  function transfer(address to, uint256 tokenId) external virtual override {\r\n    require(to != address(0), \"ERC721: transfer to the zero address\");\r\n    require(to != address(this), \"to cannot be the contract address\");\r\n    // `tokenId` token must be owned by `msg.sender`.\r\n    require(_owns(msg.sender, tokenId));\r\n\r\n    _transfer(msg.sender, to, tokenId);\r\n\r\n  }\r\n\r\n  function _transfer(address from, address to, uint256 tokenId) internal {\r\n\r\n    ownershipTokenCount[to] += 1; // increase count of recipient\r\n\r\n    kittyIndexToOwner[tokenId] = to;\r\n\r\n     // SEMD tokenId # => an address to a number of cats in an array\r\n     ownerToCats[to].push(tokenId);\r\n\r\n     // decrease token count from person A to person B\r\n     if (from != address(0)) { // if from is not address(0), is okay to remove token\r\n       ownershipTokenCount[from] -= 1;\r\n       _removeTokenIdFromOwner(from, tokenId);\r\n       delete kittyIndexToOwner[tokenId];\r\n     }\r\n\r\n     emit Transfer(msg.sender, to, tokenId);\r\n\r\n  }\r\n\r\n  function  _removeTokenIdFromOwner(address owner, uint256 tokenId) internal {\r\n    uint256 lastId = ownerToCats[owner][ownerToCats[owner].length -1];\r\n    for (uint256 i = 0; i < ownerToCats[owner].length -1; i++) {\r\n      if (ownerToCats[owner][i] == tokenId) {\r\n        ownerToCats[owner][i] = lastId;\r\n        ownerToCats[owner].pop();\r\n      }\r\n    }\r\n  }\r\n\r\n\r\n\r\n  function _owns(address _claimant, uint256 tokenId ) internal view returns(bool) {\r\n    return kittyIndexToOwner[tokenId] == _claimant;\r\n  }\r\n\r\n\r\n\r\n}",
  "sourcePath": "C:/Users/benX/Documents/ethereum_course_advanced/myCryptoKitties_master/contracts/kittiesContract.sol",
  "compiler": {
    "name": "solc",
    "version": "0.8.6+commit.11564f7e.Emscripten.clang"
  },
  "schemaVersion": "3.4.1",
  "updatedAt": "2021-07-11T03:15:26.353Z",
  "devdoc": {
    "kind": "dev",
    "methods": {
      "balanceOf(address)": {
        "details": "Returns the number of tokens in ``owner``'s account."
      },
      "ownerOf(uint256)": {
        "details": "Returns the owner of the `tokenId` token. Requirements: - `tokenId` must exist."
      }
    },
    "version": 1
  },
  "userdoc": {
    "kind": "user",
    "methods": {},
    "version": 1
  }
}