{
  "contractName": "myKittiesContract",
  "abi": [
    {
      "inputs": [
        {
          "internalType": "string",
          "name": "name_",
          "type": "string"
        },
        {
          "internalType": "string",
          "name": "symbol_",
          "type": "string"
        }
      ],
      "stateMutability": "nonpayable",
      "type": "constructor"
    },
    {
      "anonymous": false,
      "inputs": [
        {
          "indexed": true,
          "internalType": "address",
          "name": "owner",
          "type": "address"
        },
        {
          "indexed": true,
          "internalType": "address",
          "name": "approved",
          "type": "address"
        },
        {
          "indexed": true,
          "internalType": "uint256",
          "name": "tokenId",
          "type": "uint256"
        }
      ],
      "name": "Approval",
      "type": "event"
    },
    {
      "anonymous": false,
      "inputs": [
        {
          "indexed": true,
          "internalType": "address",
          "name": "owner",
          "type": "address"
        },
        {
          "indexed": true,
          "internalType": "address",
          "name": "operator",
          "type": "address"
        },
        {
          "indexed": false,
          "internalType": "bool",
          "name": "approved",
          "type": "bool"
        }
      ],
      "name": "ApprovalForAll",
      "type": "event"
    },
    {
      "anonymous": false,
      "inputs": [
        {
          "indexed": true,
          "internalType": "address",
          "name": "from",
          "type": "address"
        },
        {
          "indexed": true,
          "internalType": "address",
          "name": "to",
          "type": "address"
        },
        {
          "indexed": true,
          "internalType": "uint256",
          "name": "tokenId",
          "type": "uint256"
        }
      ],
      "name": "Transfer",
      "type": "event"
    },
    {
      "inputs": [
        {
          "internalType": "uint256",
          "name": "",
          "type": "uint256"
        }
      ],
      "name": "kittyIndexToOwner",
      "outputs": [
        {
          "internalType": "address",
          "name": "",
          "type": "address"
        }
      ],
      "stateMutability": "view",
      "type": "function"
    },
    {
      "inputs": [
        {
          "internalType": "address",
          "name": "owner",
          "type": "address"
        }
      ],
      "name": "balanceOf",
      "outputs": [
        {
          "internalType": "uint256",
          "name": "balance",
          "type": "uint256"
        }
      ],
      "stateMutability": "view",
      "type": "function"
    },
    {
      "inputs": [],
      "name": "totalSupply",
      "outputs": [
        {
          "internalType": "uint256",
          "name": "total",
          "type": "uint256"
        }
      ],
      "stateMutability": "view",
      "type": "function"
    },
    {
      "inputs": [],
      "name": "name",
      "outputs": [
        {
          "internalType": "string",
          "name": "tokenName",
          "type": "string"
        }
      ],
      "stateMutability": "view",
      "type": "function"
    },
    {
      "inputs": [],
      "name": "symbol",
      "outputs": [
        {
          "internalType": "string",
          "name": "tokenSymbol",
          "type": "string"
        }
      ],
      "stateMutability": "view",
      "type": "function"
    },
    {
      "inputs": [
        {
          "internalType": "uint256",
          "name": "tokenId",
          "type": "uint256"
        }
      ],
      "name": "ownerOf",
      "outputs": [
        {
          "internalType": "address",
          "name": "owner",
          "type": "address"
        }
      ],
      "stateMutability": "view",
      "type": "function"
    },
    {
      "inputs": [
        {
          "internalType": "address",
          "name": "to",
          "type": "address"
        },
        {
          "internalType": "uint256",
          "name": "tokenId",
          "type": "uint256"
        }
      ],
      "name": "transfer",
      "outputs": [],
      "stateMutability": "nonpayable",
      "type": "function"
    }
  ],
  "bytecode": "0x60806040523480156200001157600080fd5b50604051620013c7380380620013c78339818101604052810190620000379190620001e7565b60048054620000469062000301565b80601f0160208091040260200160405190810160405280929190818152602001828054620000749062000301565b8015620000c55780601f106200009957610100808354040283529160200191620000c5565b820191906000526020600020905b815481529060010190602001808311620000a757829003601f168201915b5050505050915060058054620000db9062000301565b80601f0160208091040260200160405190810160405280929190818152602001828054620001099062000301565b80156200015a5780601f106200012e576101008083540402835291602001916200015a565b820191906000526020600020905b8154815290600101906020018083116200013c57829003601f168201915b505050505090505050620003f0565b6000620001806200017a8462000295565b6200026c565b9050828152602081018484840111156200019f576200019e620003d0565b5b620001ac848285620002cb565b509392505050565b600082601f830112620001cc57620001cb620003cb565b5b8151620001de84826020860162000169565b91505092915050565b60008060408385031215620002015762000200620003da565b5b600083015167ffffffffffffffff811115620002225762000221620003d5565b5b6200023085828601620001b4565b925050602083015167ffffffffffffffff811115620002545762000253620003d5565b5b6200026285828601620001b4565b9150509250929050565b6000620002786200028b565b905062000286828262000337565b919050565b6000604051905090565b600067ffffffffffffffff821115620002b357620002b26200039c565b5b620002be82620003df565b9050602081019050919050565b60005b83811015620002eb578082015181840152602081019050620002ce565b83811115620002fb576000848401525b50505050565b600060028204905060018216806200031a57607f821691505b602082108114156200033157620003306200036d565b5b50919050565b6200034282620003df565b810181811067ffffffffffffffff821117156200036457620003636200039c565b5b80604052505050565b7f4e487b7100000000000000000000000000000000000000000000000000000000600052602260045260246000fd5b7f4e487b7100000000000000000000000000000000000000000000000000000000600052604160045260246000fd5b600080fd5b600080fd5b600080fd5b600080fd5b6000601f19601f8301169050919050565b610fc780620004006000396000f3fe608060405234801561001057600080fd5b506004361061007d5760003560e01c806370a082311161005b57806370a08231146100ee57806395d89b411461011e578063a45f4bfc1461013c578063a9059cbb1461016c5761007d565b806306fdde031461008257806318160ddd146100a05780636352211e146100be575b600080fd5b61008a610188565b6040516100979190610b77565b60405180910390f35b6100a861021a565b6040516100b59190610bf9565b60405180910390f35b6100d860048036038101906100d39190610a6f565b610227565b6040516100e59190610b5c565b60405180910390f35b61010860048036038101906101039190610a02565b6102d9565b6040516101159190610bf9565b60405180910390f35b610126610322565b6040516101339190610b77565b60405180910390f35b61015660048036038101906101519190610a6f565b6103b4565b6040516101639190610b5c565b60405180910390f35b61018660048036038101906101819190610a2f565b6103e7565b005b60606004805461019790610d29565b80601f01602080910402602001604051908101604052809291908181526020018280546101c390610d29565b80156102105780601f106101e557610100808354040283529160200191610210565b820191906000526020600020905b8154815290600101906020018083116101f357829003601f168201915b5050505050905090565b6000600680549050905090565b6000806001600084815260200190815260200160002060009054906101000a900473ffffffffffffffffffffffffffffffffffffffff169050600073ffffffffffffffffffffffffffffffffffffffff168173ffffffffffffffffffffffffffffffffffffffff1614156102d0576040517f08c379a00000000000000000000000000000000000000000000000000000000081526004016102c790610bb9565b60405180910390fd5b80915050919050565b6000600260008373ffffffffffffffffffffffffffffffffffffffff1673ffffffffffffffffffffffffffffffffffffffff168152602001908152602001600020549050919050565b60606005805461033190610d29565b80601f016020809104026020016040519081016040528092919081815260200182805461035d90610d29565b80156103aa5780601f1061037f576101008083540402835291602001916103aa565b820191906000526020600020905b81548152906001019060200180831161038d57829003601f168201915b5050505050905090565b60016020528060005260406000206000915054906101000a900473ffffffffffffffffffffffffffffffffffffffff1681565b600073ffffffffffffffffffffffffffffffffffffffff168273ffffffffffffffffffffffffffffffffffffffff161415610457576040517f08c379a000000000000000000000000000000000000000000000000000000000815260040161044e90610b99565b60405180910390fd5b3073ffffffffffffffffffffffffffffffffffffffff168273ffffffffffffffffffffffffffffffffffffffff1614156104c6576040517f08c379a00000000000000000000000000000000000000000000000000000000081526004016104bd90610bd9565b60405180910390fd5b6104d033826104e8565b6104d957600080fd5b6104e4338383610554565b5050565b60008273ffffffffffffffffffffffffffffffffffffffff166001600084815260200190815260200160002060009054906101000a900473ffffffffffffffffffffffffffffffffffffffff1673ffffffffffffffffffffffffffffffffffffffff1614905092915050565b6001600260008473ffffffffffffffffffffffffffffffffffffffff1673ffffffffffffffffffffffffffffffffffffffff16815260200190815260200160002060008282546105a49190610c30565b92505081905550816001600083815260200190815260200160002060006101000a81548173ffffffffffffffffffffffffffffffffffffffff021916908373ffffffffffffffffffffffffffffffffffffffff160217905550600360008373ffffffffffffffffffffffffffffffffffffffff1673ffffffffffffffffffffffffffffffffffffffff168152602001908152602001600020819080600181540180825580915050600190039060005260206000200160009091909190915055600073ffffffffffffffffffffffffffffffffffffffff168373ffffffffffffffffffffffffffffffffffffffff161461072f576001600260008573ffffffffffffffffffffffffffffffffffffffff1673ffffffffffffffffffffffffffffffffffffffff16815260200190815260200160002060008282546106e79190610c86565b925050819055506106f8838261078f565b6001600082815260200190815260200160002060006101000a81549073ffffffffffffffffffffffffffffffffffffffff02191690555b808273ffffffffffffffffffffffffffffffffffffffff163373ffffffffffffffffffffffffffffffffffffffff167fddf252ad1be2c89b69c2b068fc378daa952ba7f163c4a11628f55a4df523b3ef60405160405180910390a4505050565b6000600360008473ffffffffffffffffffffffffffffffffffffffff1673ffffffffffffffffffffffffffffffffffffffff1681526020019081526020016000206001600360008673ffffffffffffffffffffffffffffffffffffffff1673ffffffffffffffffffffffffffffffffffffffff1681526020019081526020016000208054905061081f9190610c86565b815481106108305761082f610e31565b5b9060005260206000200154905060005b6001600360008673ffffffffffffffffffffffffffffffffffffffff1673ffffffffffffffffffffffffffffffffffffffff1681526020019081526020016000208054905061088f9190610c86565b8110156109d25782600360008673ffffffffffffffffffffffffffffffffffffffff1673ffffffffffffffffffffffffffffffffffffffff16815260200190815260200160002082815481106108e8576108e7610e31565b5b906000526020600020015414156109bf5781600360008673ffffffffffffffffffffffffffffffffffffffff1673ffffffffffffffffffffffffffffffffffffffff168152602001908152602001600020828154811061094b5761094a610e31565b5b9060005260206000200181905550600360008573ffffffffffffffffffffffffffffffffffffffff1673ffffffffffffffffffffffffffffffffffffffff1681526020019081526020016000208054806109a8576109a7610e02565b5b600190038181906000526020600020016000905590555b80806109ca90610d5b565b915050610840565b50505050565b6000813590506109e781610f63565b92915050565b6000813590506109fc81610f7a565b92915050565b600060208284031215610a1857610a17610e60565b5b6000610a26848285016109d8565b91505092915050565b60008060408385031215610a4657610a45610e60565b5b6000610a54858286016109d8565b9250506020610a65858286016109ed565b9150509250929050565b600060208284031215610a8557610a84610e60565b5b6000610a93848285016109ed565b91505092915050565b610aa581610cba565b82525050565b6000610ab682610c14565b610ac08185610c1f565b9350610ad0818560208601610cf6565b610ad981610e65565b840191505092915050565b6000610af1602483610c1f565b9150610afc82610e76565b604082019050919050565b6000610b14602983610c1f565b9150610b1f82610ec5565b604082019050919050565b6000610b37602183610c1f565b9150610b4282610f14565b604082019050919050565b610b5681610cec565b82525050565b6000602082019050610b716000830184610a9c565b92915050565b60006020820190508181036000830152610b918184610aab565b905092915050565b60006020820190508181036000830152610bb281610ae4565b9050919050565b60006020820190508181036000830152610bd281610b07565b9050919050565b60006020820190508181036000830152610bf281610b2a565b9050919050565b6000602082019050610c0e6000830184610b4d565b92915050565b600081519050919050565b600082825260208201905092915050565b6000610c3b82610cec565b9150610c4683610cec565b9250827fffffffffffffffffffffffffffffffffffffffffffffffffffffffffffffffff03821115610c7b57610c7a610da4565b5b828201905092915050565b6000610c9182610cec565b9150610c9c83610cec565b925082821015610caf57610cae610da4565b5b828203905092915050565b6000610cc582610ccc565b9050919050565b600073ffffffffffffffffffffffffffffffffffffffff82169050919050565b6000819050919050565b60005b83811015610d14578082015181840152602081019050610cf9565b83811115610d23576000848401525b50505050565b60006002820490506001821680610d4157607f821691505b60208210811415610d5557610d54610dd3565b5b50919050565b6000610d6682610cec565b91507fffffffffffffffffffffffffffffffffffffffffffffffffffffffffffffffff821415610d9957610d98610da4565b5b600182019050919050565b7f4e487b7100000000000000000000000000000000000000000000000000000000600052601160045260246000fd5b7f4e487b7100000000000000000000000000000000000000000000000000000000600052602260045260246000fd5b7f4e487b7100000000000000000000000000000000000000000000000000000000600052603160045260246000fd5b7f4e487b7100000000000000000000000000000000000000000000000000000000600052603260045260246000fd5b600080fd5b6000601f19601f8301169050919050565b7f4552433732313a207472616e7366657220746f20746865207a65726f2061646460008201527f7265737300000000000000000000000000000000000000000000000000000000602082015250565b7f4552433732313a206f776e657220717565727920666f72206e6f6e657869737460008201527f656e7420746f6b656e0000000000000000000000000000000000000000000000602082015250565b7f746f2063616e6e6f742062652074686520636f6e74726163742061646472657360008201527f7300000000000000000000000000000000000000000000000000000000000000602082015250565b610f6c81610cba565b8114610f7757600080fd5b50565b610f8381610cec565b8114610f8e57600080fd5b5056fea264697066735822122091b633406b2a38f0969af132830aeca508aeab55ae1a0fedbab5a517739f90da64736f6c63430008060033",
  "immutableReferences": {},
  "source": "// SPDX-License-Identifier: MIT\r\npragma solidity ^0.8.0;\r\n\r\nimport \"./IERC721.sol\";\r\nimport \"./Ownable.sol\";\r\n\r\n\r\ncontract myKittiesContract is IERC721, Ownable {\r\n\r\n  // Mapping from token ID to owner address\r\n  mapping(uint256 => address) public kittyIndexToOwner; //owners Of TokenId\r\n\r\n  // Mapping owner address to token count\r\n  mapping(address => uint256) ownershipTokenCount;\r\n\r\n  mapping(address => uint256[]) ownerToCats;\r\n  \r\n\r\n  string private _name;\r\n  string private _symbol;\r\n\r\n  struct Kitty{\r\n    uint64 birthTime;\r\n    uint32 mumId;\r\n    uint32 dadId;\r\n    uint16 generation;\r\n    uint256 genes;\r\n  }\r\n\r\n  Kitty[] kitties;\r\n\r\n  constructor (string memory name_, string memory symbol_) {\r\n    name_ = _name;\r\n    symbol_ = _symbol;\r\n  }\r\n\r\n\r\n  function balanceOf(address owner) public view virtual override returns (uint256 balance) {\r\n    return ownershipTokenCount[owner];\r\n  }\r\n\r\n  function totalSupply() public view virtual override returns (uint256 total) {\r\n    return kitties.length;\r\n  }\r\n\r\n  function name() external view virtual override returns (string memory tokenName) {\r\n    return _name;\r\n  }\r\n\r\n  function symbol() external view virtual override returns (string memory tokenSymbol) {\r\n    return _symbol;\r\n  }\r\n\r\n  // private functions are cheaper but public allows to execute function from within this contract\r\n  function ownerOf(uint256 tokenId) public view virtual override returns (address owner) {\r\n    address _owner = kittyIndexToOwner[tokenId]; // local variable \r\n    require(_owner != address(0), \"ERC721: owner query for nonexistent token\");\r\n\r\n    return _owner;\r\n\r\n  }\r\n\r\n  function transfer(address to, uint256 tokenId) external virtual override {\r\n    require(to != address(0), \"ERC721: transfer to the zero address\");\r\n    require(to != address(this), \"to cannot be the contract address\");\r\n    // `tokenId` token must be owned by `msg.sender`.\r\n    require(_owns(msg.sender, tokenId));\r\n\r\n    _transfer(msg.sender, to, tokenId);\r\n\r\n  }\r\n\r\n  function _transfer(address from, address to, uint256 tokenId) internal {\r\n\r\n    ownershipTokenCount[to] += 1; // increase count of recipient\r\n\r\n    kittyIndexToOwner[tokenId] = to;\r\n\r\n     // SEMD tokenId # => an address to a number of cats in an array\r\n     ownerToCats[to].push(tokenId);\r\n\r\n     // decrease token count from person A to person B\r\n     if (from != address(0)) { // if from is not address(0), is okay to remove token\r\n       ownershipTokenCount[from] -= 1;\r\n       _removeTokenIdFromOwner(from, tokenId);\r\n       delete kittyIndexToOwner[tokenId];\r\n     }\r\n\r\n     emit Transfer(msg.sender, to, tokenId);\r\n\r\n  }\r\n\r\n  function  _removeTokenIdFromOwner(address owner, uint256 tokenId) internal {\r\n    uint256 lastId = ownerToCats[owner][ownerToCats[owner].length -1];\r\n    for (uint256 i = 0; i < ownerToCats[owner].length -1; i++) {\r\n      if (ownerToCats[owner][i] == tokenId) {\r\n        ownerToCats[owner][i] = lastId;\r\n        ownerToCats[owner].pop();\r\n      }\r\n    }\r\n  }\r\n\r\n\r\n\r\n  function _owns(address _claimant, uint256 tokenId ) internal view returns(bool) {\r\n    return kittyIndexToOwner[tokenId] == _claimant;\r\n  }\r\n\r\n\r\n\r\n}",
  "sourcePath": "C:/Users/benX/Documents/ethereum_course_advanced/myCryptoKitties_master/contracts/kittiesContract.sol",
  "compiler": {
    "name": "solc",
    "version": "0.8.6+commit.11564f7e.Emscripten.clang"
  },
  "schemaVersion": "3.4.1",
  "updatedAt": "2021-07-11T02:04:01.458Z",
  "devdoc": {
    "kind": "dev",
    "methods": {
      "balanceOf(address)": {
        "details": "Returns the number of tokens in ``owner``'s account."
      },
      "ownerOf(uint256)": {
        "details": "Returns the owner of the `tokenId` token. Requirements: - `tokenId` must exist."
      }
    },
    "version": 1
  },
  "userdoc": {
    "kind": "user",
    "methods": {},
    "version": 1
  }
}