{
  "contractName": "myKittiesContract",
  "abi": [
    {
      "inputs": [],
      "stateMutability": "nonpayable",
      "type": "constructor"
    },
    {
      "anonymous": false,
      "inputs": [
        {
          "indexed": true,
          "internalType": "address",
          "name": "owner",
          "type": "address"
        },
        {
          "indexed": true,
          "internalType": "address",
          "name": "approved",
          "type": "address"
        },
        {
          "indexed": true,
          "internalType": "uint256",
          "name": "tokenId",
          "type": "uint256"
        }
      ],
      "name": "Approval",
      "type": "event"
    },
    {
      "anonymous": false,
      "inputs": [
        {
          "indexed": true,
          "internalType": "address",
          "name": "owner",
          "type": "address"
        },
        {
          "indexed": true,
          "internalType": "address",
          "name": "operator",
          "type": "address"
        },
        {
          "indexed": false,
          "internalType": "bool",
          "name": "approved",
          "type": "bool"
        }
      ],
      "name": "ApprovalForAll",
      "type": "event"
    },
    {
      "anonymous": false,
      "inputs": [
        {
          "indexed": false,
          "internalType": "address",
          "name": "owner",
          "type": "address"
        },
        {
          "indexed": false,
          "internalType": "uint256",
          "name": "newKittenId",
          "type": "uint256"
        },
        {
          "indexed": false,
          "internalType": "uint256",
          "name": "mumId",
          "type": "uint256"
        },
        {
          "indexed": false,
          "internalType": "uint256",
          "name": "dadId",
          "type": "uint256"
        },
        {
          "indexed": false,
          "internalType": "uint256",
          "name": "genes",
          "type": "uint256"
        }
      ],
      "name": "Birth",
      "type": "event"
    },
    {
      "anonymous": false,
      "inputs": [
        {
          "indexed": true,
          "internalType": "address",
          "name": "previousOwner",
          "type": "address"
        },
        {
          "indexed": true,
          "internalType": "address",
          "name": "newOwner",
          "type": "address"
        }
      ],
      "name": "OwnershipTransferred",
      "type": "event"
    },
    {
      "anonymous": false,
      "inputs": [
        {
          "indexed": true,
          "internalType": "address",
          "name": "from",
          "type": "address"
        },
        {
          "indexed": true,
          "internalType": "address",
          "name": "to",
          "type": "address"
        },
        {
          "indexed": true,
          "internalType": "uint256",
          "name": "tokenId",
          "type": "uint256"
        }
      ],
      "name": "Transfer",
      "type": "event"
    },
    {
      "inputs": [],
      "name": "CREATION_LIMIT_GEN0",
      "outputs": [
        {
          "internalType": "uint256",
          "name": "",
          "type": "uint256"
        }
      ],
      "stateMutability": "view",
      "type": "function"
    },
    {
      "inputs": [],
      "name": "gen0Counter",
      "outputs": [
        {
          "internalType": "uint256",
          "name": "",
          "type": "uint256"
        }
      ],
      "stateMutability": "view",
      "type": "function"
    },
    {
      "inputs": [
        {
          "internalType": "uint256",
          "name": "",
          "type": "uint256"
        }
      ],
      "name": "kittyIndexToApproved",
      "outputs": [
        {
          "internalType": "address",
          "name": "",
          "type": "address"
        }
      ],
      "stateMutability": "view",
      "type": "function"
    },
    {
      "inputs": [
        {
          "internalType": "uint256",
          "name": "",
          "type": "uint256"
        }
      ],
      "name": "kittyIndexToOwner",
      "outputs": [
        {
          "internalType": "address",
          "name": "",
          "type": "address"
        }
      ],
      "stateMutability": "view",
      "type": "function"
    },
    {
      "inputs": [],
      "name": "owner",
      "outputs": [
        {
          "internalType": "address",
          "name": "",
          "type": "address"
        }
      ],
      "stateMutability": "view",
      "type": "function"
    },
    {
      "inputs": [],
      "name": "renounceOwnership",
      "outputs": [],
      "stateMutability": "nonpayable",
      "type": "function"
    },
    {
      "inputs": [
        {
          "internalType": "address",
          "name": "newOwner",
          "type": "address"
        }
      ],
      "name": "transferOwnership",
      "outputs": [],
      "stateMutability": "nonpayable",
      "type": "function"
    },
    {
      "inputs": [
        {
          "internalType": "uint256",
          "name": "_dadId",
          "type": "uint256"
        },
        {
          "internalType": "uint256",
          "name": "_mumId",
          "type": "uint256"
        }
      ],
      "name": "breed",
      "outputs": [
        {
          "internalType": "uint256",
          "name": "",
          "type": "uint256"
        }
      ],
      "stateMutability": "nonpayable",
      "type": "function"
    },
    {
      "inputs": [
        {
          "internalType": "bytes4",
          "name": "_interfaceId",
          "type": "bytes4"
        }
      ],
      "name": "supportsInterface",
      "outputs": [
        {
          "internalType": "bool",
          "name": "",
          "type": "bool"
        }
      ],
      "stateMutability": "pure",
      "type": "function"
    },
    {
      "inputs": [
        {
          "internalType": "uint256",
          "name": "_genes",
          "type": "uint256"
        }
      ],
      "name": "createKittyGen0",
      "outputs": [
        {
          "internalType": "uint256",
          "name": "",
          "type": "uint256"
        }
      ],
      "stateMutability": "nonpayable",
      "type": "function"
    },
    {
      "inputs": [
        {
          "internalType": "uint256",
          "name": "_mumId",
          "type": "uint256"
        },
        {
          "internalType": "uint256",
          "name": "_dadId",
          "type": "uint256"
        },
        {
          "internalType": "uint256",
          "name": "_generation",
          "type": "uint256"
        },
        {
          "internalType": "uint256",
          "name": "_genes",
          "type": "uint256"
        },
        {
          "internalType": "address",
          "name": "owner",
          "type": "address"
        }
      ],
      "name": "_createKitty",
      "outputs": [
        {
          "internalType": "uint256",
          "name": "",
          "type": "uint256"
        }
      ],
      "stateMutability": "nonpayable",
      "type": "function"
    },
    {
      "inputs": [
        {
          "internalType": "uint256",
          "name": "tokenId",
          "type": "uint256"
        }
      ],
      "name": "myGetKitty",
      "outputs": [
        {
          "internalType": "uint256",
          "name": "birthTime",
          "type": "uint256"
        },
        {
          "internalType": "uint256",
          "name": "mumId",
          "type": "uint256"
        },
        {
          "internalType": "uint256",
          "name": "dadId",
          "type": "uint256"
        },
        {
          "internalType": "uint256",
          "name": "generation",
          "type": "uint256"
        },
        {
          "internalType": "uint256",
          "name": "genes",
          "type": "uint256"
        }
      ],
      "stateMutability": "view",
      "type": "function"
    },
    {
      "inputs": [
        {
          "internalType": "uint256",
          "name": "_id",
          "type": "uint256"
        }
      ],
      "name": "getKittyFilip",
      "outputs": [
        {
          "internalType": "uint256",
          "name": "birthTime",
          "type": "uint256"
        },
        {
          "internalType": "uint256",
          "name": "mumId",
          "type": "uint256"
        },
        {
          "internalType": "uint256",
          "name": "dadId",
          "type": "uint256"
        },
        {
          "internalType": "uint256",
          "name": "generation",
          "type": "uint256"
        },
        {
          "internalType": "uint256",
          "name": "genes",
          "type": "uint256"
        }
      ],
      "stateMutability": "view",
      "type": "function"
    },
    {
      "inputs": [
        {
          "internalType": "address",
          "name": "owner",
          "type": "address"
        }
      ],
      "name": "getAllCatsFor",
      "outputs": [
        {
          "internalType": "uint256[]",
          "name": "",
          "type": "uint256[]"
        }
      ],
      "stateMutability": "view",
      "type": "function"
    },
    {
      "inputs": [
        {
          "internalType": "address",
          "name": "owner",
          "type": "address"
        }
      ],
      "name": "balanceOf",
      "outputs": [
        {
          "internalType": "uint256",
          "name": "balance",
          "type": "uint256"
        }
      ],
      "stateMutability": "view",
      "type": "function"
    },
    {
      "inputs": [],
      "name": "totalSupply",
      "outputs": [
        {
          "internalType": "uint256",
          "name": "total",
          "type": "uint256"
        }
      ],
      "stateMutability": "view",
      "type": "function"
    },
    {
      "inputs": [],
      "name": "name",
      "outputs": [
        {
          "internalType": "string",
          "name": "tokenName",
          "type": "string"
        }
      ],
      "stateMutability": "pure",
      "type": "function"
    },
    {
      "inputs": [],
      "name": "symbol",
      "outputs": [
        {
          "internalType": "string",
          "name": "tokenSymbol",
          "type": "string"
        }
      ],
      "stateMutability": "pure",
      "type": "function"
    },
    {
      "inputs": [
        {
          "internalType": "uint256",
          "name": "tokenId",
          "type": "uint256"
        }
      ],
      "name": "ownerOf",
      "outputs": [
        {
          "internalType": "address",
          "name": "owner",
          "type": "address"
        }
      ],
      "stateMutability": "view",
      "type": "function"
    },
    {
      "inputs": [
        {
          "internalType": "address",
          "name": "to",
          "type": "address"
        },
        {
          "internalType": "uint256",
          "name": "tokenId",
          "type": "uint256"
        }
      ],
      "name": "transfer",
      "outputs": [],
      "stateMutability": "nonpayable",
      "type": "function"
    },
    {
      "inputs": [
        {
          "internalType": "address",
          "name": "_approved",
          "type": "address"
        },
        {
          "internalType": "uint256",
          "name": "_tokenId",
          "type": "uint256"
        }
      ],
      "name": "approve",
      "outputs": [],
      "stateMutability": "nonpayable",
      "type": "function"
    },
    {
      "inputs": [
        {
          "internalType": "address",
          "name": "_operator",
          "type": "address"
        },
        {
          "internalType": "bool",
          "name": "_approved",
          "type": "bool"
        }
      ],
      "name": "setApprovalForAll",
      "outputs": [],
      "stateMutability": "nonpayable",
      "type": "function"
    },
    {
      "inputs": [
        {
          "internalType": "uint256",
          "name": "_tokenId",
          "type": "uint256"
        }
      ],
      "name": "getApproved",
      "outputs": [
        {
          "internalType": "address",
          "name": "",
          "type": "address"
        }
      ],
      "stateMutability": "view",
      "type": "function"
    },
    {
      "inputs": [
        {
          "internalType": "address",
          "name": "_owner",
          "type": "address"
        },
        {
          "internalType": "address",
          "name": "_operator",
          "type": "address"
        }
      ],
      "name": "isApprovedForAll",
      "outputs": [
        {
          "internalType": "bool",
          "name": "",
          "type": "bool"
        }
      ],
      "stateMutability": "view",
      "type": "function"
    },
    {
      "inputs": [
        {
          "internalType": "address",
          "name": "_from",
          "type": "address"
        },
        {
          "internalType": "address",
          "name": "_to",
          "type": "address"
        },
        {
          "internalType": "uint256",
          "name": "_tokenId",
          "type": "uint256"
        }
      ],
      "name": "safeTransferFrom",
      "outputs": [],
      "stateMutability": "nonpayable",
      "type": "function"
    },
    {
      "inputs": [
        {
          "internalType": "address",
          "name": "_from",
          "type": "address"
        },
        {
          "internalType": "address",
          "name": "_to",
          "type": "address"
        },
        {
          "internalType": "uint256",
          "name": "_tokenId",
          "type": "uint256"
        },
        {
          "internalType": "bytes",
          "name": "data",
          "type": "bytes"
        }
      ],
      "name": "safeTransferFrom",
      "outputs": [],
      "stateMutability": "nonpayable",
      "type": "function"
    },
    {
      "inputs": [
        {
          "internalType": "address",
          "name": "user",
          "type": "address"
        }
      ],
      "name": "getAllTokensForUser",
      "outputs": [
        {
          "internalType": "uint256[]",
          "name": "",
          "type": "uint256[]"
        }
      ],
      "stateMutability": "view",
      "type": "function"
    },
    {
      "inputs": [
        {
          "internalType": "address",
          "name": "_owner",
          "type": "address"
        }
      ],
      "name": "tokensOfOwner",
      "outputs": [
        {
          "internalType": "uint256[]",
          "name": "ownerTokens",
          "type": "uint256[]"
        }
      ],
      "stateMutability": "view",
      "type": "function"
    },
    {
      "inputs": [
        {
          "internalType": "address",
          "name": "_from",
          "type": "address"
        },
        {
          "internalType": "address",
          "name": "_to",
          "type": "address"
        },
        {
          "internalType": "uint256",
          "name": "_tokenId",
          "type": "uint256"
        }
      ],
      "name": "transferFrom",
      "outputs": [],
      "stateMutability": "nonpayable",
      "type": "function"
    }
  ],
  "bytecode": "0x608060405260006008553480156200001657600080fd5b50620000376200002b6200005660201b60201c565b6200005e60201b60201c565b6200004f60008060008060006200012260201b60201c565b5062000991565b600033905090565b60008060009054906101000a900473ffffffffffffffffffffffffffffffffffffffff169050816000806101000a81548173ffffffffffffffffffffffffffffffffffffffff021916908373ffffffffffffffffffffffffffffffffffffffff1602179055508173ffffffffffffffffffffffffffffffffffffffff168173ffffffffffffffffffffffffffffffffffffffff167f8be0079c531659141344cd1fd0a4f28419497f9722a3daafe3b4186f6b6457e060405160405180910390a35050565b6000806040518060a001604052804267ffffffffffffffff1681526020018863ffffffff1681526020018763ffffffff1681526020018661ffff168152602001858152509050600981908060018154018082558091505060019003906000526020600020906002020160009091909190915060008201518160000160006101000a81548167ffffffffffffffff021916908367ffffffffffffffff16021790555060208201518160000160086101000a81548163ffffffff021916908363ffffffff160217905550604082015181600001600c6101000a81548163ffffffff021916908363ffffffff16021790555060608201518160000160106101000a81548161ffff021916908361ffff160217905550608082015181600101555050600060016009805490506200025691906200083d565b90507f0a5311bd2a6608f08a180df2ee7c5946819a649b204b554bb8e39825b2c50ad584828a8a896040516200029195949392919062000783565b60405180910390a1620002ad60008583620002bb60201b60201c565b809250505095945050505050565b6001600260008473ffffffffffffffffffffffffffffffffffffffff1673ffffffffffffffffffffffffffffffffffffffff16815260200190815260200160002060008282546200030d9190620007e0565b92505081905550816001600083815260200190815260200160002060006101000a81548173ffffffffffffffffffffffffffffffffffffffff021916908373ffffffffffffffffffffffffffffffffffffffff160217905550600560008373ffffffffffffffffffffffffffffffffffffffff1673ffffffffffffffffffffffffffffffffffffffff168152602001908152602001600020819080600181540180825580915050600190039060005260206000200160009091909190915055600073ffffffffffffffffffffffffffffffffffffffff168373ffffffffffffffffffffffffffffffffffffffff1614620004a3576001600260008573ffffffffffffffffffffffffffffffffffffffff1673ffffffffffffffffffffffffffffffffffffffff16815260200190815260200160002060008282546200045391906200083d565b925050819055506200046c83826200050360201b60201c565b6001600082815260200190815260200160002060006101000a81549073ffffffffffffffffffffffffffffffffffffffff02191690555b808273ffffffffffffffffffffffffffffffffffffffff163373ffffffffffffffffffffffffffffffffffffffff167fddf252ad1be2c89b69c2b068fc378daa952ba7f163c4a11628f55a4df523b3ef60405160405180910390a4505050565b6000600560008473ffffffffffffffffffffffffffffffffffffffff1673ffffffffffffffffffffffffffffffffffffffff1681526020019081526020016000206001600560008673ffffffffffffffffffffffffffffffffffffffff1673ffffffffffffffffffffffffffffffffffffffff168152602001908152602001600020805490506200059591906200083d565b81548110620005a957620005a862000962565b5b9060005260206000200154905060005b6001600560008673ffffffffffffffffffffffffffffffffffffffff1673ffffffffffffffffffffffffffffffffffffffff168152602001908152602001600020805490506200060a91906200083d565b8110156200075b5782600560008673ffffffffffffffffffffffffffffffffffffffff1673ffffffffffffffffffffffffffffffffffffffff168152602001908152602001600020828154811062000667576200066662000962565b5b90600052602060002001541415620007455781600560008673ffffffffffffffffffffffffffffffffffffffff1673ffffffffffffffffffffffffffffffffffffffff1681526020019081526020016000208281548110620006ce57620006cd62000962565b5b9060005260206000200181905550600560008573ffffffffffffffffffffffffffffffffffffffff1673ffffffffffffffffffffffffffffffffffffffff1681526020019081526020016000208054806200072e576200072d62000933565b5b600190038181906000526020600020016000905590555b80806200075290620008b6565b915050620005b9565b50505050565b6200076c8162000878565b82525050565b6200077d81620008ac565b82525050565b600060a0820190506200079a600083018862000761565b620007a9602083018762000772565b620007b8604083018662000772565b620007c7606083018562000772565b620007d6608083018462000772565b9695505050505050565b6000620007ed82620008ac565b9150620007fa83620008ac565b9250827fffffffffffffffffffffffffffffffffffffffffffffffffffffffffffffffff0382111562000832576200083162000904565b5b828201905092915050565b60006200084a82620008ac565b91506200085783620008ac565b9250828210156200086d576200086c62000904565b5b828203905092915050565b600062000885826200088c565b9050919050565b600073ffffffffffffffffffffffffffffffffffffffff82169050919050565b6000819050919050565b6000620008c382620008ac565b91507fffffffffffffffffffffffffffffffffffffffffffffffffffffffffffffffff821415620008f957620008f862000904565b5b600182019050919050565b7f4e487b7100000000000000000000000000000000000000000000000000000000600052601160045260246000fd5b7f4e487b7100000000000000000000000000000000000000000000000000000000600052603160045260246000fd5b7f4e487b7100000000000000000000000000000000000000000000000000000000600052603260045260246000fd5b61351b80620009a16000396000f3fe608060405234801561001057600080fd5b50600436106101cf5760003560e01c806382de8fe911610104578063a9059cbb116100a2578063d9ecad7b11610071578063d9ecad7b14610594578063e985e9c5146105c4578063ef5e94aa146105f4578063f2fde38b14610612576101cf565b8063a9059cbb1461050e578063b48343301461052a578063b88d4fde14610548578063d5a776ca14610564576101cf565b806395d89b41116100de57806395d89b4114610470578063a090cb771461048e578063a22cb465146104c2578063a45f4bfc146104de576101cf565b806382de8fe9146103f25780638462151c146104225780638da5cb5b14610452576101cf565b8063338a63a4116101715780635a64aafa1161014b5780635a64aafa146103585780636352211e1461038857806370a08231146103b8578063715018a6146103e8576101cf565b8063338a63a4146102dc57806342842e0e1461030c578063481af3d314610328576101cf565b8063095ea7b3116101ad578063095ea7b3146102525780630dd1c2e81461026e57806318160ddd146102a257806323b872dd146102c0576101cf565b806301ffc9a7146101d457806306fdde0314610204578063081812fc14610222575b600080fd5b6101ee60048036038101906101e991906125ee565b61062e565b6040516101fb9190612b1a565b60405180910390f35b61020c6106ce565b6040516102199190612b35565b60405180910390f35b61023c60048036038101906102379190612648565b61070b565b6040516102499190612a3e565b60405180910390f35b61026c600480360381019061026791906125ae565b61078f565b005b61028860048036038101906102839190612648565b61080b565b604051610299959493929190612d32565b60405180910390f35b6102aa6108c1565b6040516102b79190612d17565b60405180910390f35b6102da60048036038101906102d59190612493565b6108ce565b005b6102f660048036038101906102f191906126b5565b610a38565b6040516103039190612d17565b60405180910390f35b61032660048036038101906103219190612493565b610bc5565b005b610342600480360381019061033d9190612648565b610bd5565b60405161034f9190612a3e565b60405180910390f35b610372600480360381019061036d9190612426565b610c08565b60405161037f9190612af8565b60405180910390f35b6103a2600480360381019061039d9190612648565b610c9f565b6040516103af9190612a3e565b60405180910390f35b6103d260048036038101906103cd9190612426565b610d51565b6040516103df9190612d17565b60405180910390f35b6103f0610d9a565b005b61040c60048036038101906104079190612426565b610e22565b6040516104199190612af8565b60405180910390f35b61043c60048036038101906104379190612426565b610f7c565b6040516104499190612af8565b60405180910390f35b61045a611105565b6040516104679190612a3e565b60405180910390f35b61047861112e565b6040516104859190612b35565b60405180910390f35b6104a860048036038101906104a39190612648565b61116b565b6040516104b9959493929190612d32565b60405180910390f35b6104dc60048036038101906104d7919061256e565b611221565b005b6104f860048036038101906104f39190612648565b61138d565b6040516105059190612a3e565b60405180910390f35b610528600480360381019061052391906125ae565b6113c0565b005b6105326114c1565b60405161053f9190612d17565b60405180910390f35b610562600480360381019061055d91906124e6565b6114c6565b005b61057e60048036038101906105799190612648565b611634565b60405161058b9190612d17565b60405180910390f35b6105ae60048036038101906105a99190612675565b611726565b6040516105bb9190612d17565b60405180910390f35b6105de60048036038101906105d99190612453565b611842565b6040516105eb9190612b1a565b60405180910390f35b6105fc6118d6565b6040516106099190612d17565b60405180910390f35b61062c60048036038101906106279190612426565b6118dc565b005b60006380ac58cd60e01b7bffffffffffffffffffffffffffffffffffffffffffffffffffffffff1916827bffffffffffffffffffffffffffffffffffffffffffffffffffffffff191614806106c757506301ffc9a760e01b7bffffffffffffffffffffffffffffffffffffffffffffffffffffffff1916827bffffffffffffffffffffffffffffffffffffffffffffffffffffffff1916145b9050919050565b60606040518060400160405280600e81526020017f4d792043727970746f2043617473000000000000000000000000000000000000815250905090565b60006009805490508210610754576040517f08c379a000000000000000000000000000000000000000000000000000000000815260040161074b90612c57565b60405180910390fd5b6003600083815260200190815260200160002060009054906101000a900473ffffffffffffffffffffffffffffffffffffffff169050919050565b61079933826119d4565b6107a257600080fd5b6107ac8183611a40565b808273ffffffffffffffffffffffffffffffffffffffff163373ffffffffffffffffffffffffffffffffffffffff167f8c5be1e5ebec7d5bd14f71427d1e84f3dd0314c0f7b2291e5b200ac8c7c3b92560405160405180910390a45050565b60008060008060008060098781548110610828576108276130b9565b5b906000526020600020906002020190508060000160009054906101000a900467ffffffffffffffff1667ffffffffffffffff1695508060000160089054906101000a900463ffffffff1663ffffffff16945080600001600c9054906101000a900463ffffffff1663ffffffff1693508060000160109054906101000a900461ffff1661ffff169250806001015491505091939590929450565b6000600980549050905090565b600073ffffffffffffffffffffffffffffffffffffffff168273ffffffffffffffffffffffffffffffffffffffff16141561093e576040517f08c379a000000000000000000000000000000000000000000000000000000000815260040161093590612b97565b60405180910390fd5b6009805490508110610985576040517f08c379a000000000000000000000000000000000000000000000000000000000815260040161097c90612c57565b60405180910390fd5b61098f83826119d4565b6109ce576040517f08c379a00000000000000000000000000000000000000000000000000000000081526004016109c590612cd7565b60405180910390fd5b8273ffffffffffffffffffffffffffffffffffffffff163373ffffffffffffffffffffffffffffffffffffffff161480610a0e5750610a0d8333611842565b5b80610a1f5750610a1e3382611a96565b5b610a2857600080fd5b610a33838383611b02565b505050565b6000806040518060a001604052804267ffffffffffffffff1681526020018863ffffffff1681526020018763ffffffff1681526020018661ffff168152602001858152509050600981908060018154018082558091505060019003906000526020600020906002020160009091909190915060008201518160000160006101000a81548167ffffffffffffffff021916908367ffffffffffffffff16021790555060208201518160000160086101000a81548163ffffffff021916908363ffffffff160217905550604082015181600001600c6101000a81548163ffffffff021916908363ffffffff16021790555060608201518160000160106101000a81548161ffff021916908361ffff16021790555060808201518160010155505060006001600980549050610b6a9190612ed7565b90507f0a5311bd2a6608f08a180df2ee7c5946819a649b204b554bb8e39825b2c50ad584828a8a89604051610ba3959493929190612aa5565b60405180910390a1610bb760008583611b02565b809250505095945050505050565b610bd0838383610bc5565b505050565b60036020528060005260406000206000915054906101000a900473ffffffffffffffffffffffffffffffffffffffff1681565b6060600560008373ffffffffffffffffffffffffffffffffffffffff1673ffffffffffffffffffffffffffffffffffffffff168152602001908152602001600020805480602002602001604051908101604052809291908181526020018280548015610c9357602002820191906000526020600020905b815481526020019060010190808311610c7f575b50505050509050919050565b6000806001600084815260200190815260200160002060009054906101000a900473ffffffffffffffffffffffffffffffffffffffff169050600073ffffffffffffffffffffffffffffffffffffffff168173ffffffffffffffffffffffffffffffffffffffff161415610d48576040517f08c379a0000000000000000000000000000000000000000000000000000000008152600401610d3f90612c77565b60405180910390fd5b80915050919050565b6000600260008373ffffffffffffffffffffffffffffffffffffffff1673ffffffffffffffffffffffffffffffffffffffff168152602001908152602001600020549050919050565b610da2611d3d565b73ffffffffffffffffffffffffffffffffffffffff16610dc0611105565b73ffffffffffffffffffffffffffffffffffffffff1614610e16576040517f08c379a0000000000000000000000000000000000000000000000000000000008152600401610e0d90612c97565b60405180910390fd5b610e206000611d45565b565b60606000610e2f83610d51565b90506000811415610e8c57600067ffffffffffffffff811115610e5557610e546130e8565b5b604051908082528060200260200182016040528015610e835781602001602082028036833780820191505090505b50915050610f77565b60008167ffffffffffffffff811115610ea857610ea76130e8565b5b604051908082528060200260200182016040528015610ed65781602001602082028036833780820191505090505b50905060006008549050600080600090505b82811015610f6e578673ffffffffffffffffffffffffffffffffffffffff16610f1082610c9f565b73ffffffffffffffffffffffffffffffffffffffff161415610f5b5780848381518110610f4057610f3f6130b9565b5b6020026020010181815250508180610f5790612fb2565b9250505b8080610f6690612fb2565b915050610ee8565b83955050505050505b919050565b60606000610f8983610d51565b90506000811415610fe657600067ffffffffffffffff811115610faf57610fae6130e8565b5b604051908082528060200260200182016040528015610fdd5781602001602082028036833780820191505090505b50915050611100565b60008167ffffffffffffffff811115611002576110016130e8565b5b6040519080825280602002602001820160405280156110305781602001602082028036833780820191505090505b509050600061103d6108c1565b9050600080600190505b8281116110f7578673ffffffffffffffffffffffffffffffffffffffff166001600083815260200190815260200160002060009054906101000a900473ffffffffffffffffffffffffffffffffffffffff1673ffffffffffffffffffffffffffffffffffffffff1614156110e457808483815181106110c9576110c86130b9565b5b60200260200101818152505081806110e090612fb2565b9250505b80806110ef90612fb2565b915050611047565b83955050505050505b919050565b60008060009054906101000a900473ffffffffffffffffffffffffffffffffffffffff16905090565b60606040518060400160405280600481526020017f4d43524300000000000000000000000000000000000000000000000000000000815250905090565b60008060008060008060098781548110611188576111876130b9565b5b906000526020600020906002020190508060000160009054906101000a900467ffffffffffffffff1667ffffffffffffffff168160000160089054906101000a900463ffffffff1663ffffffff1682600001600c9054906101000a900463ffffffff1663ffffffff168360000160109054906101000a900461ffff1661ffff168460010154955095509550955095505091939590929450565b3373ffffffffffffffffffffffffffffffffffffffff168273ffffffffffffffffffffffffffffffffffffffff161415611290576040517f08c379a000000000000000000000000000000000000000000000000000000000815260040161128790612cf7565b60405180910390fd5b80600460003373ffffffffffffffffffffffffffffffffffffffff1673ffffffffffffffffffffffffffffffffffffffff16815260200190815260200160002060008473ffffffffffffffffffffffffffffffffffffffff1673ffffffffffffffffffffffffffffffffffffffff16815260200190815260200160002060006101000a81548160ff0219169083151502179055508173ffffffffffffffffffffffffffffffffffffffff163373ffffffffffffffffffffffffffffffffffffffff167f17307eab39ab6107e8899845ad3d59bd9653f200f220920489ca2b5937696c31836040516113819190612b1a565b60405180910390a35050565b60016020528060005260406000206000915054906101000a900473ffffffffffffffffffffffffffffffffffffffff1681565b600073ffffffffffffffffffffffffffffffffffffffff168273ffffffffffffffffffffffffffffffffffffffff161415611430576040517f08c379a000000000000000000000000000000000000000000000000000000000815260040161142790612bd7565b60405180910390fd5b3073ffffffffffffffffffffffffffffffffffffffff168273ffffffffffffffffffffffffffffffffffffffff16141561149f576040517f08c379a000000000000000000000000000000000000000000000000000000000815260040161149690612b77565b60405180910390fd5b6114a933826119d4565b6114b257600080fd5b6114bd338383611b02565b5050565b600a81565b600073ffffffffffffffffffffffffffffffffffffffff168473ffffffffffffffffffffffffffffffffffffffff161415611536576040517f08c379a000000000000000000000000000000000000000000000000000000000815260040161152d90612cb7565b60405180910390fd5b600980549050831061157d576040517f08c379a000000000000000000000000000000000000000000000000000000000815260040161157490612c17565b60405180910390fd5b61158785846119d4565b6115c6576040517f08c379a00000000000000000000000000000000000000000000000000000000081526004016115bd90612bf7565b60405180910390fd5b8473ffffffffffffffffffffffffffffffffffffffff163373ffffffffffffffffffffffffffffffffffffffff16148061160657506116058585611842565b5b8061161757506116163384611a96565b5b61162057600080fd5b61162d8585858585611e09565b5050505050565b600061163e611d3d565b73ffffffffffffffffffffffffffffffffffffffff1661165c611105565b73ffffffffffffffffffffffffffffffffffffffff16146116b2576040517f08c379a00000000000000000000000000000000000000000000000000000000081526004016116a990612c97565b60405180910390fd5b600a60065411156116f8576040517f08c379a00000000000000000000000000000000000000000000000000000000081526004016116ef90612bb7565b60405180910390fd5b6006600081548092919061170b90612fb2565b919050555061171f60008060008533610a38565b9050919050565b600061173233846119d4565b8015611744575061174333836119d4565b5b611783576040517f08c379a000000000000000000000000000000000000000000000000000000000815260040161177a90612c37565b60405180910390fd5b60008061178f8561116b565b945050505091506000806117a28661116b565b945050505091506117b38483611e74565b6007819055506000818410156117e6576001826117d09190612df6565b90506002816117df9190612e4c565b9050611822565b81841115611811576001846117fb9190612df6565b905060028161180a9190612e4c565b9050611821565b60018461181e9190612df6565b90505b5b61183187898360075433610a38565b506007549550505050505092915050565b6000600460008473ffffffffffffffffffffffffffffffffffffffff1673ffffffffffffffffffffffffffffffffffffffff16815260200190815260200160002060008373ffffffffffffffffffffffffffffffffffffffff1673ffffffffffffffffffffffffffffffffffffffff16815260200190815260200160002060009054906101000a900460ff16905092915050565b60065481565b6118e4611d3d565b73ffffffffffffffffffffffffffffffffffffffff16611902611105565b73ffffffffffffffffffffffffffffffffffffffff1614611958576040517f08c379a000000000000000000000000000000000000000000000000000000000815260040161194f90612c97565b60405180910390fd5b600073ffffffffffffffffffffffffffffffffffffffff168173ffffffffffffffffffffffffffffffffffffffff1614156119c8576040517f08c379a00000000000000000000000000000000000000000000000000000000081526004016119bf90612b57565b60405180910390fd5b6119d181611d45565b50565b60008273ffffffffffffffffffffffffffffffffffffffff166001600084815260200190815260200160002060009054906101000a900473ffffffffffffffffffffffffffffffffffffffff1673ffffffffffffffffffffffffffffffffffffffff1614905092915050565b806003600084815260200190815260200160002060006101000a81548173ffffffffffffffffffffffffffffffffffffffff021916908373ffffffffffffffffffffffffffffffffffffffff1602179055505050565b60008273ffffffffffffffffffffffffffffffffffffffff166003600084815260200190815260200160002060009054906101000a900473ffffffffffffffffffffffffffffffffffffffff1673ffffffffffffffffffffffffffffffffffffffff1614905092915050565b6001600260008473ffffffffffffffffffffffffffffffffffffffff1673ffffffffffffffffffffffffffffffffffffffff1681526020019081526020016000206000828254611b529190612df6565b92505081905550816001600083815260200190815260200160002060006101000a81548173ffffffffffffffffffffffffffffffffffffffff021916908373ffffffffffffffffffffffffffffffffffffffff160217905550600560008373ffffffffffffffffffffffffffffffffffffffff1673ffffffffffffffffffffffffffffffffffffffff168152602001908152602001600020819080600181540180825580915050600190039060005260206000200160009091909190915055600073ffffffffffffffffffffffffffffffffffffffff168373ffffffffffffffffffffffffffffffffffffffff1614611cdd576001600260008573ffffffffffffffffffffffffffffffffffffffff1673ffffffffffffffffffffffffffffffffffffffff1681526020019081526020016000206000828254611c959190612ed7565b92505081905550611ca68382611fc8565b6001600082815260200190815260200160002060006101000a81549073ffffffffffffffffffffffffffffffffffffffff02191690555b808273ffffffffffffffffffffffffffffffffffffffff163373ffffffffffffffffffffffffffffffffffffffff167fddf252ad1be2c89b69c2b068fc378daa952ba7f163c4a11628f55a4df523b3ef60405160405180910390a4505050565b600033905090565b60008060009054906101000a900473ffffffffffffffffffffffffffffffffffffffff169050816000806101000a81548173ffffffffffffffffffffffffffffffffffffffff021916908373ffffffffffffffffffffffffffffffffffffffff1602179055508173ffffffffffffffffffffffffffffffffffffffff168173ffffffffffffffffffffffffffffffffffffffff167f8be0079c531659141344cd1fd0a4f28419497f9722a3daafe3b4186f6b6457e060405160405180910390a35050565b611e14858585611b02565b611e6485858585858080601f016020809104026020016040519081016040528093929190818152602001838380828437600081840152601f19601f82011690508083019250505050505050612211565b611e6d57600080fd5b5050505050565b6000611e7e612344565b600060ff42611e8d9190612ffb565b905060008060079050600191505b60808211611f4f576000828460ff161614611ee157606486611ebd9190612ffb565b60ff16848260088110611ed357611ed26130b9565b5b602002018181525050611f0e565b606487611eee9190612ffb565b60ff16848260088110611f0457611f036130b9565b5b6020020181815250505b606486611f1b9190612e4c565b9550606486611f2a9190612e4c565b9550600181611f399190612ed7565b9050600282611f489190612e7d565b9150611e9b565b600091505b6008821015611fb957838260088110611f7057611f6f6130b9565b5b6020020151600754611f829190612df6565b60078190555060078214611fa6576064600754611f9f9190612e7d565b6007819055505b8180611fb190612fb2565b925050611f54565b60075494505050505092915050565b6000600560008473ffffffffffffffffffffffffffffffffffffffff1673ffffffffffffffffffffffffffffffffffffffff1681526020019081526020016000206001600560008673ffffffffffffffffffffffffffffffffffffffff1673ffffffffffffffffffffffffffffffffffffffff168152602001908152602001600020805490506120589190612ed7565b81548110612069576120686130b9565b5b9060005260206000200154905060005b6001600560008673ffffffffffffffffffffffffffffffffffffffff1673ffffffffffffffffffffffffffffffffffffffff168152602001908152602001600020805490506120c89190612ed7565b81101561220b5782600560008673ffffffffffffffffffffffffffffffffffffffff1673ffffffffffffffffffffffffffffffffffffffff1681526020019081526020016000208281548110612121576121206130b9565b5b906000526020600020015414156121f85781600560008673ffffffffffffffffffffffffffffffffffffffff1673ffffffffffffffffffffffffffffffffffffffff1681526020019081526020016000208281548110612184576121836130b9565b5b9060005260206000200181905550600560008573ffffffffffffffffffffffffffffffffffffffff1673ffffffffffffffffffffffffffffffffffffffff1681526020019081526020016000208054806121e1576121e061308a565b5b600190038181906000526020600020016000905590555b808061220390612fb2565b915050612079565b50505050565b600061221c8461232b565b6122295760019050612323565b60008473ffffffffffffffffffffffffffffffffffffffff1663150b7a02338887876040518563ffffffff1660e01b815260040161226a9493929190612a59565b602060405180830381600087803b15801561228457600080fd5b505af1158015612298573d6000803e3d6000fd5b505050506040513d601f19601f820116820180604052508101906122bc919061261b565b90507f150b7a023d4804d13e8c85fb27262cb750cf6ba9f9dd3bb30d90f482ceeb4b1f7bffffffffffffffffffffffffffffffffffffffffffffffffffffffff1916817bffffffffffffffffffffffffffffffffffffffffffffffffffffffff1916149150505b949350505050565b600080823b905060008163ffffffff1611915050919050565b604051806101000160405280600890602082028036833780820191505090505090565b60008135905061237681613489565b92915050565b60008135905061238b816134a0565b92915050565b6000813590506123a0816134b7565b92915050565b6000815190506123b5816134b7565b92915050565b60008083601f8401126123d1576123d061311c565b5b8235905067ffffffffffffffff8111156123ee576123ed613117565b5b60208301915083600182028301111561240a57612409613121565b5b9250929050565b600081359050612420816134ce565b92915050565b60006020828403121561243c5761243b61312b565b5b600061244a84828501612367565b91505092915050565b6000806040838503121561246a5761246961312b565b5b600061247885828601612367565b925050602061248985828601612367565b9150509250929050565b6000806000606084860312156124ac576124ab61312b565b5b60006124ba86828701612367565b93505060206124cb86828701612367565b92505060406124dc86828701612411565b9150509250925092565b6000806000806000608086880312156125025761250161312b565b5b600061251088828901612367565b955050602061252188828901612367565b945050604061253288828901612411565b935050606086013567ffffffffffffffff81111561255357612552613126565b5b61255f888289016123bb565b92509250509295509295909350565b600080604083850312156125855761258461312b565b5b600061259385828601612367565b92505060206125a48582860161237c565b9150509250929050565b600080604083850312156125c5576125c461312b565b5b60006125d385828601612367565b92505060206125e485828601612411565b9150509250929050565b6000602082840312156126045761260361312b565b5b600061261284828501612391565b91505092915050565b6000602082840312156126315761263061312b565b5b600061263f848285016123a6565b91505092915050565b60006020828403121561265e5761265d61312b565b5b600061266c84828501612411565b91505092915050565b6000806040838503121561268c5761268b61312b565b5b600061269a85828601612411565b92505060206126ab85828601612411565b9150509250929050565b600080600080600060a086880312156126d1576126d061312b565b5b60006126df88828901612411565b95505060206126f088828901612411565b945050604061270188828901612411565b935050606061271288828901612411565b925050608061272388828901612367565b9150509295509295909350565b600061273c8383612a20565b60208301905092915050565b61275181612f0b565b82525050565b600061276282612d95565b61276c8185612dc3565b935061277783612d85565b8060005b838110156127a857815161278f8882612730565b975061279a83612db6565b92505060018101905061277b565b5085935050505092915050565b6127be81612f1d565b82525050565b60006127cf82612da0565b6127d98185612dd4565b93506127e9818560208601612f7f565b6127f281613130565b840191505092915050565b600061280882612dab565b6128128185612de5565b9350612822818560208601612f7f565b61282b81613130565b840191505092915050565b6000612843602683612de5565b915061284e82613141565b604082019050919050565b6000612866601c83612de5565b915061287182613190565b602082019050919050565b6000612889602083612de5565b9150612894826131b9565b602082019050919050565b60006128ac602e83612de5565b91506128b7826131e2565b604082019050919050565b60006128cf602483612de5565b91506128da82613231565b604082019050919050565b60006128f2602583612de5565b91506128fd82613280565b604082019050919050565b6000612915601483612de5565b9150612920826132cf565b602082019050919050565b6000612938602a83612de5565b9150612943826132f8565b604082019050919050565b600061295b601083612de5565b915061296682613347565b602082019050919050565b600061297e602983612de5565b915061298982613370565b604082019050919050565b60006129a1602083612de5565b91506129ac826133bf565b602082019050919050565b60006129c4601d83612de5565b91506129cf826133e8565b602082019050919050565b60006129e7601383612de5565b91506129f282613411565b602082019050919050565b6000612a0a603083612de5565b9150612a158261343a565b604082019050919050565b612a2981612f75565b82525050565b612a3881612f75565b82525050565b6000602082019050612a536000830184612748565b92915050565b6000608082019050612a6e6000830187612748565b612a7b6020830186612748565b612a886040830185612a2f565b8181036060830152612a9a81846127c4565b905095945050505050565b600060a082019050612aba6000830188612748565b612ac76020830187612a2f565b612ad46040830186612a2f565b612ae16060830185612a2f565b612aee6080830184612a2f565b9695505050505050565b60006020820190508181036000830152612b128184612757565b905092915050565b6000602082019050612b2f60008301846127b5565b92915050565b60006020820190508181036000830152612b4f81846127fd565b905092915050565b60006020820190508181036000830152612b7081612836565b9050919050565b60006020820190508181036000830152612b9081612859565b9050919050565b60006020820190508181036000830152612bb08161287c565b9050919050565b60006020820190508181036000830152612bd08161289f565b9050919050565b60006020820190508181036000830152612bf0816128c2565b9050919050565b60006020820190508181036000830152612c10816128e5565b9050919050565b60006020820190508181036000830152612c3081612908565b9050919050565b60006020820190508181036000830152612c508161292b565b9050919050565b60006020820190508181036000830152612c708161294e565b9050919050565b60006020820190508181036000830152612c9081612971565b9050919050565b60006020820190508181036000830152612cb081612994565b9050919050565b60006020820190508181036000830152612cd0816129b7565b9050919050565b60006020820190508181036000830152612cf0816129da565b9050919050565b60006020820190508181036000830152612d10816129fd565b9050919050565b6000602082019050612d2c6000830184612a2f565b92915050565b600060a082019050612d476000830188612a2f565b612d546020830187612a2f565b612d616040830186612a2f565b612d6e6060830185612a2f565b612d7b6080830184612a2f565b9695505050505050565b6000819050602082019050919050565b600081519050919050565b600081519050919050565b600081519050919050565b6000602082019050919050565b600082825260208201905092915050565b600082825260208201905092915050565b600082825260208201905092915050565b6000612e0182612f75565b9150612e0c83612f75565b9250827fffffffffffffffffffffffffffffffffffffffffffffffffffffffffffffffff03821115612e4157612e4061302c565b5b828201905092915050565b6000612e5782612f75565b9150612e6283612f75565b925082612e7257612e7161305b565b5b828204905092915050565b6000612e8882612f75565b9150612e9383612f75565b9250817fffffffffffffffffffffffffffffffffffffffffffffffffffffffffffffffff0483118215151615612ecc57612ecb61302c565b5b828202905092915050565b6000612ee282612f75565b9150612eed83612f75565b925082821015612f0057612eff61302c565b5b828203905092915050565b6000612f1682612f55565b9050919050565b60008115159050919050565b60007fffffffff0000000000000000000000000000000000000000000000000000000082169050919050565b600073ffffffffffffffffffffffffffffffffffffffff82169050919050565b6000819050919050565b60005b83811015612f9d578082015181840152602081019050612f82565b83811115612fac576000848401525b50505050565b6000612fbd82612f75565b91507fffffffffffffffffffffffffffffffffffffffffffffffffffffffffffffffff821415612ff057612fef61302c565b5b600182019050919050565b600061300682612f75565b915061301183612f75565b9250826130215761302061305b565b5b828206905092915050565b7f4e487b7100000000000000000000000000000000000000000000000000000000600052601160045260246000fd5b7f4e487b7100000000000000000000000000000000000000000000000000000000600052601260045260246000fd5b7f4e487b7100000000000000000000000000000000000000000000000000000000600052603160045260246000fd5b7f4e487b7100000000000000000000000000000000000000000000000000000000600052603260045260246000fd5b7f4e487b7100000000000000000000000000000000000000000000000000000000600052604160045260246000fd5b600080fd5b600080fd5b600080fd5b600080fd5b600080fd5b6000601f19601f8301169050919050565b7f4f776e61626c653a206e6577206f776e657220697320746865207a65726f206160008201527f6464726573730000000000000000000000000000000000000000000000000000602082015250565b7f7472616e7366657220746f20746865207a65726f206164647265737300000000600082015250565b7f546f2061646472657373206973206e6f742061207a65726f2061646472657373600082015250565b7f47656e20302073686f756c64206265206c657373207468616e2063726561746960008201527f6f6e206c696d69742067656e2030000000000000000000000000000000000000602082015250565b7f4552433732313a207472616e7366657220746f20746865207a65726f2061646460008201527f7265737300000000000000000000000000000000000000000000000000000000602082015250565b7f4e6f7420612076616c6964204e46542c206e6f7420746865206f776e6572206f60008201527f66204e4654000000000000000000000000000000000000000000000000000000602082015250565b7f546f6b656e20646f6573206e6f74206578697374000000000000000000000000600082015250565b7f596f75206d75737420626520746865206f776e6572206f6620626f7468206f6660008201527f20796f7572206361747300000000000000000000000000000000000000000000602082015250565b7f546f6b656e206d75737420657869737400000000000000000000000000000000600082015250565b7f4552433732313a206f776e657220717565727920666f72206e6f6e657869737460008201527f656e7420746f6b656e0000000000000000000000000000000000000000000000602082015250565b7f4f776e61626c653a2063616c6c6572206973206e6f7420746865206f776e6572600082015250565b7f4d757374207472616e7366657220746f207a65726f2061646472657373000000600082015250565b7f46726f6d206f776e732074686520746f6b656e00000000000000000000000000600082015250565b7f4552433732313a20617070726f766520746f2063616c6c65722c20796f75206160008201527f7265206e6f7420746865206f776e657200000000000000000000000000000000602082015250565b61349281612f0b565b811461349d57600080fd5b50565b6134a981612f1d565b81146134b457600080fd5b50565b6134c081612f29565b81146134cb57600080fd5b50565b6134d781612f75565b81146134e257600080fd5b5056fea2646970667358221220dcbd71b1f6dd0ccf7e6c58ab8f9d3198625ab13519c07890d6feb5c9195077a864736f6c63430008070033",
  "immutableReferences": {},
  "source": "// SPDX-License-Identifier: MIT\r\npragma solidity ^0.8.0;\r\n\r\n//import \"./IERC721.sol\";\r\nimport \"@openzeppelin/contracts/access/Ownable.sol\";\r\nimport \"@openzeppelin/contracts/token/ERC721/IERC721Receiver.sol\";\r\n\r\n\r\ncontract myKittiesContract is Ownable {\r\n\r\n  // Mapping from token ID to owner address\r\n  mapping(uint256 => address) public kittyIndexToOwner; //owners Of TokenId\r\n\r\n  // Mapping owner address to token count\r\n  mapping(address => uint256) ownershipTokenCount;\r\n\r\n  // Mapping from token ID to approved address\r\n  mapping(uint256 => address) public kittyIndexToApproved;\r\n\r\n  // MYADDR => OPERATOR => TRUE/FALSE\r\n  // _operatorApprovals[MYADDR][OPERATORADDR] = true or false;\r\n  // _operatorApprovals[MYADDR][BOBS_ADDR] = true;\r\n  // _operatorApprovals[MYADDR][ALICE_ADDR] = false;\r\n  // _operatorApprovals[MYADDR][LISA_ADDR] = true;\r\n\r\n  // Mapping from owner to operator approvals\r\n  mapping(address => mapping(address => bool)) private _operatorApprovals;\r\n\r\n  //an address to a number of cats in an array\r\n  mapping(address => uint256[]) ownerToCats;\r\n\r\n  bytes4 private constant _INTERFACE_TO_ERC721 = 0x80ac58cd;\r\n  bytes4 private constant _INTERFACE_TO_ERC165 = 0x01ffc9a7;\r\n\r\n  event Transfer(address indexed from, address indexed to, uint256 indexed tokenId);\r\n  event ApprovalForAll(address indexed owner, address indexed operator, bool approved);\r\n  event Approval(address indexed owner, address indexed approved, uint256 indexed tokenId);\r\n  event Birth(address owner, uint256 newKittenId, uint256 mumId, uint256 dadId, uint256 genes);\r\n\r\n  string constant _name = \"My Crypto Cats\";\r\n  string constant _symbol = \"MCRC\";\r\n  uint256 public constant CREATION_LIMIT_GEN0 = 10;\r\n  uint256 public gen0Counter;\r\n  uint256 newGene; // prev: newDna\r\n  uint256 nextId = 0;\r\n\r\n  // 11 22 33 44 | 44 33 22 1 1\r\n\r\n  // this cat will just take up space, cannot be transacted in any way\r\n  // prevents buyKitty function require statement resulting to an empty array; being true\r\n  constructor() {\r\n    _createKitty(0, 0, 0, uint256(0), address(0));\r\n    // (mumId, dadId, gen, genes, owner)\r\n  }\r\n\r\n  function breed(uint256 _dadId, uint256 _mumId) public returns (uint256) {\r\n    //Check ownership\r\n    //Use new DNA\r\n    //Figure out the Generation\r\n    //Create new cat with new properties, give it to msg.sender\r\n    require(_owns(msg.sender, _dadId) && _owns(msg.sender, _mumId), \"You must be the owner of both of your cats\");\r\n\r\n    (uint256 dadDna,,,,uint256 DadGeneration) = myGetKitty(_dadId);\r\n    (uint256 mumDna,,,,uint256 MumGeneration) = myGetKitty(_mumId);\r\n\r\n    newGene = _mixDna(dadDna, mumDna);\r\n\r\n    uint256 kittenGen = 0;\r\n    if (DadGeneration < MumGeneration) {\r\n      kittenGen = MumGeneration + 1;\r\n      kittenGen /= 2;\r\n    } else if (DadGeneration > MumGeneration) {\r\n      kittenGen = DadGeneration + 1;\r\n      kittenGen /= 2;\r\n    } else {\r\n      kittenGen = DadGeneration + 1;\r\n    }\r\n\r\n    _createKitty(_mumId, _dadId, kittenGen, newGene, msg.sender);\r\n\r\n    return newGene;\r\n   \r\n  }\r\n\r\n\r\n  function supportsInterface(bytes4 _interfaceId) external pure returns (bool) {\r\n    return(_interfaceId == _INTERFACE_TO_ERC721 || _interfaceId == _INTERFACE_TO_ERC165);\r\n  }\r\n\r\n\r\n  bytes4 internal constant MAGIC_ERC721_RECEIVED = bytes4(keccak256(\"onERC721Received(address,address,uint256,bytes)\"));\r\n\r\n  struct Kitty{\r\n    uint64 birthTime;\r\n    uint32 mumId;\r\n    uint32 dadId;\r\n    uint16 generation;\r\n    uint256 genes;\r\n  }\r\n\r\n\r\n  Kitty[] kitties;\r\n\r\n\r\n  function createKittyGen0(uint256 _genes) public onlyOwner returns (uint256){\r\n    require(gen0Counter <= CREATION_LIMIT_GEN0, \"Gen 0 should be less than creation limit gen 0\");\r\n    \r\n    gen0Counter ++;\r\n\r\n    // mum, dad and generation is 0\r\n    // Gen0 have no owners; they are owned by the contract\r\n    \r\n    return _createKitty(0,0,0, _genes, msg.sender); // msg.sender could also be -- address(this) - we are giving cats to owner\r\n  }\r\n\r\n\r\n  // create cats by generation and by breeding\r\n  // returns cat id\r\n  function _createKitty(\r\n    uint256 _mumId,\r\n    uint256 _dadId,\r\n    uint256 _generation, //1,2,3..etc\r\n    uint256 _genes, // recipient\r\n    address owner\r\n  ) public returns(uint256) {\r\n    Kitty memory newKitties = Kitty ({\r\n      genes: _genes,\r\n      birthTime: uint64(block.timestamp),\r\n      mumId: uint32(_mumId),\r\n      dadId: uint32(_dadId),\r\n      generation: uint16(_generation)\r\n    });\r\n\r\n    kitties.push(newKitties); // returns the size of array - 1 for the first cat\r\n\r\n    uint256 newKittenId = kitties.length -1; // 0-1\r\n\r\n    emit Birth(owner, newKittenId, _mumId, _dadId, _genes);\r\n\r\n    _transfer(address(0), owner, newKittenId);\r\n\r\n    return newKittenId; //returns 256 bit integer\r\n\r\n  }\r\n\r\n\r\n  function myGetKitty(uint256 tokenId) public view returns (\r\n    uint256 birthTime,\r\n    uint256 mumId,\r\n    uint256 dadId,\r\n    uint256 generation,\r\n    uint256 genes\r\n  ) {\r\n\r\n    Kitty storage returnKitty = kitties[tokenId];\r\n    return (uint256(returnKitty.birthTime), uint256(returnKitty.mumId), uint256(returnKitty.dadId), uint256(returnKitty.generation), uint256(returnKitty.genes));\r\n  }\r\n\r\n\r\n  function getKittyFilip(uint256 _id) public view returns (\r\n    uint256 birthTime,\r\n    uint256 mumId,\r\n    uint256 dadId,\r\n    uint256 generation,\r\n    uint256 genes\r\n  ) {\r\n\r\n    Kitty storage kitty = kitties[_id];\r\n    birthTime = uint256(kitty.birthTime);\r\n    mumId = uint256(kitty.mumId);\r\n    dadId = uint256(kitty.dadId);\r\n    generation = uint256(kitty.generation);\r\n    genes = uint256(kitty.genes);\r\n  }\r\n\r\n  //-------------------------------\r\n\r\n  function getAllCatsFor(address owner) public view returns (uint[] memory) {\r\n    return ownerToCats[owner];\r\n  }\r\n  \r\n\r\n  function balanceOf(address owner) public view returns (uint256 balance) {\r\n    return ownershipTokenCount[owner];\r\n  }\r\n\r\n\r\n  function totalSupply() public view returns (uint256 total) {\r\n    return kitties.length;\r\n  }\r\n\r\n\r\n  function name() external pure returns (string memory tokenName) {\r\n    return _name;\r\n  }\r\n\r\n\r\n  function symbol() external pure returns (string memory tokenSymbol) {\r\n    return _symbol;\r\n  }\r\n\r\n  // private functions are cheaper but public allows to execute function from within this contract\r\n  function ownerOf(uint256 tokenId) public view returns (address owner) {\r\n    address _owner = kittyIndexToOwner[tokenId]; // local variable \r\n    require(_owner != address(0), \"ERC721: owner query for nonexistent token\");\r\n\r\n    return _owner;\r\n  }\r\n\r\n\r\n  // this transfer function is not used -- the mint function might be better suited for minting NFTs\r\n  function transfer(address to, uint256 tokenId) external {\r\n    require(to != address(0), \"ERC721: transfer to the zero address\");\r\n    require(to != address(this), \"transfer to the zero address\");\r\n    // `tokenId` token must be owned by `msg.sender`.\r\n    require(_owns(msg.sender, tokenId));\r\n\r\n    _transfer(msg.sender, to, tokenId);\r\n\r\n  }\r\n\r\n\r\n  function approve(address _approved, uint256 _tokenId) public {\r\n    ///  Throws unless `msg.sender` is the current NFT owner, or an authorized\r\n    ///  operator of the current owner.\r\n    require(_owns(msg.sender, _tokenId));\r\n\r\n    _approve(_tokenId, _approved);\r\n    emit Approval(msg.sender, _approved, _tokenId);\r\n\r\n  }\r\n\r\n\r\n  function setApprovalForAll(address _operator, bool _approved) public {\r\n    require(_operator != msg.sender, \"ERC721: approve to caller, you are not the owner\");\r\n\r\n    _operatorApprovals[msg.sender][_operator] = _approved; \r\n    emit ApprovalForAll(msg.sender, _operator, _approved);\r\n\r\n  }\r\n\r\n\r\n  function getApproved(uint256 _tokenId) public view returns (address) {\r\n    require(_tokenId < kitties.length, \"Token must exist\"); // getter function\r\n\r\n    return kittyIndexToApproved[_tokenId];\r\n  }\r\n\r\n\r\n  function isApprovedForAll(address _owner, address _operator) public view returns (bool) {\r\n    return _operatorApprovals[_owner][_operator];\r\n  }\r\n\r\n\r\n  function safeTransferFrom(address _from, address _to, uint256 _tokenId) public {\r\n    safeTransferFrom(_from, _to, _tokenId);\r\n  }\r\n\r\n\r\n  function safeTransferFrom(address _from, address _to, uint256 _tokenId, bytes calldata data) external {\r\n    require(_to != address(0), \"Must transfer to zero address\");\r\n    require(_tokenId < kitties.length, \"Token does not exist\");\r\n    require(_owns(_from, _tokenId), \"Not a valid NFT, not the owner of NFT\");\r\n\r\n     //spender is _from (DEX) or spender is approved for tokenId or spender is operator for _from\r\n    require(msg.sender == _from || isApprovedForAll(_from, _to) || _approvedFor(msg.sender, _tokenId));\r\n\r\n    _safeTransfer(_from, _to, _tokenId, data);\r\n\r\n  }\r\n\r\n\r\n  function getAllTokensForUser(address user) public view returns(uint256[] memory) {\r\n    uint256 tokenCount = balanceOf(user);\r\n    if(tokenCount == 0) {\r\n      return new uint256[](0);\r\n    } else {\r\n      //how many tokens in total?\r\n      uint256[] memory result = new uint256[](tokenCount);\r\n      uint256 totalCats = nextId;\r\n      uint256 resultIndex;\r\n      uint256 i;\r\n      for(i = 0; i < totalCats; i++) {\r\n        //check\r\n        if(ownerOf(i) == user) {\r\n          result[resultIndex] = i;\r\n          resultIndex++;\r\n        }\r\n      }\r\n      return result;\r\n    }  \r\n  }\r\n  \r\n\r\n  function tokensOfOwner(address _owner) public view returns(uint256[] memory ownerTokens) {\r\n    uint256 tokenCount = balanceOf(_owner);\r\n\r\n    if (tokenCount == 0) {\r\n      return new uint256[](0);\r\n    } else {\r\n      uint256[] memory result = new uint256[](tokenCount);\r\n      uint256 totalCats = totalSupply();\r\n      uint256 resultIndex = 0;\r\n\r\n      uint256 catId;\r\n\r\n      for (catId = 1; catId <= totalCats; catId++) {\r\n        if (kittyIndexToOwner[catId] == _owner) {\r\n          result[resultIndex] = catId;\r\n          resultIndex++;\r\n        }\r\n      }\r\n\r\n      return result;\r\n    }   \r\n  }\r\n\r\n\r\n  //Smart Contract Programmer(youTuber) ...\r\n  //transferFrom - how it is used:\r\n  //trader calls approve(dexAddress, amount)\r\n  //dex calls transferFrom(traderAddress, dexAddress, amount)\r\n\r\n  function transferFrom(address _from, address _to, uint256 _tokenId) public {\r\n    /// Throws if `_to` is the zero address. \r\n    /// Throws if `_tokenId` is not a valid NFT.\r\n\r\n    /// @dev Throws unless `msg.sender` is the current owner, an authorized\r\n    ///  operator, or the approved address for this NFT.\r\n     \r\n    require(_to != address(0), \"To address is not a zero address\");\r\n    require(_tokenId < kitties.length, \"Token must exist\");\r\n    require(_owns(_from, _tokenId), \"From owns the token\");\r\n    require(msg.sender == _from || isApprovedForAll(_from, msg.sender) || _approvedFor(msg.sender, _tokenId));\r\n\r\n    _transfer(_from, _to, _tokenId);\r\n  }\r\n\r\n\r\n  // must transfer from address 0\r\n  function _transfer(address from, address to, uint256 tokenId) internal {\r\n    //_approve(address(0), tokenId);\r\n\r\n    ownershipTokenCount[to] += 1; // increase count of recipient\r\n\r\n    kittyIndexToOwner[tokenId] = to;\r\n\r\n     // SEMD tokenId # => an address to a number of cats in an array\r\n     ownerToCats[to].push(tokenId);\r\n\r\n     // decrease token count from person A to person B\r\n     if (from != address(0)) { // if from is not address(0), is okay to remove token\r\n       ownershipTokenCount[from] -= 1;\r\n       _removeTokenIdFromOwner(from, tokenId);\r\n       delete kittyIndexToOwner[tokenId];\r\n     }\r\n\r\n     emit Transfer(msg.sender, to, tokenId);\r\n\r\n  }\r\n\r\n\r\n  function _safeTransfer(address _from, address _to, uint256 _tokenId, bytes calldata _data) internal {\r\n    _transfer(_from, _to, _tokenId);\r\n    require(_checkERC721Support(_from, _to, _tokenId, _data));\r\n  }\r\n\r\n\r\n  function  _removeTokenIdFromOwner(address owner, uint256 tokenId) internal {\r\n    uint256 lastId = ownerToCats[owner][ownerToCats[owner].length -1];\r\n    for (uint256 i = 0; i < ownerToCats[owner].length -1; i++) {\r\n      if (ownerToCats[owner][i] == tokenId) {\r\n        ownerToCats[owner][i] = lastId;\r\n        ownerToCats[owner].pop();\r\n      }\r\n    }\r\n  }\r\n\r\n\r\n  function _owns(address _claimant, uint256 tokenId ) internal view returns(bool) {\r\n    return kittyIndexToOwner[tokenId] == _claimant;\r\n  }\r\n\r\n\r\n  function _deleteApproval(uint256 _tokenId) internal {\r\n      require(_owns(msg.sender, _tokenId));\r\n      delete kittyIndexToApproved[_tokenId];\r\n  }\r\n\r\n\r\n   function _approve(uint256 _tokenId, address _approved) internal {\r\n    kittyIndexToApproved[_tokenId] = _approved;\r\n  }\r\n\r\n\r\n  function _approvedFor(address _claimant, uint256 tokenId) internal view returns(bool) {\r\n    return kittyIndexToApproved[tokenId] == _claimant;\r\n  }\r\n\r\n\r\n  function _checkERC721Support(address _from, address _to, uint256 _tokenId, bytes memory _data) internal returns (bool) {\r\n    if(!isContract(_to)) { //checks if `_to` is a smart contract (code size > 0)\r\n      return true;\r\n    }\r\n    //example: Contract(_to)....\r\n    //If there is an operator, where _from is not equal to msg.sender, we use msg.sender.\r\n    bytes4 returnData = IERC721Receiver(_to).onERC721Received(msg.sender, _from, _tokenId, _data);\r\n    return returnData == MAGIC_ERC721_RECEIVED;\r\n    //Call onERC721Received in the _to contract\r\n    //Check return value\r\n  } \r\n\r\n\r\n  function isContract(address _to) internal view returns(bool) {\r\n    //It is a smart contract (code size > 0)\r\n    //If it is a wallet, code size = 0\r\n    uint32 size;\r\n    assembly{\r\n      size := extcodesize(_to)\r\n    }\r\n    return size > 0;\r\n  }\r\n\r\n/*\r\n  function _mixDnaPrev(uint256 _dadDna, uint256 _mumDna) private returns (uint256) {\r\n    //dadDna: 11 22 33 44 55 66 77 88 (in remix: remove spances => 1122334455667788)\r\n    //mumDna: 88 77 66 55 44 33 22 11 (8877665544332211)\r\n    uint256 firstHalf =  _dadDna / 100000000; // 11 22 33 44 (8 zeroes as there are 16 DNA intergers total)\r\n    uint256 secondHalf =  _mumDna % 100000000; // 44 33 22 11 (the remaining 8 zeros')\r\n    //uint256 newDna = firstHalf * 100000000;\r\n    //newDna = newDna + secondHalf;\r\n    // 10 and 20 concat\r\n    // 10 x 100 = 1000\r\n    // 1000 + 20 = 1020\r\n    \r\n    // my verion\r\n    newDna = ((firstHalf * 100000000) + secondHalf);\r\n  \r\n    return newDna;\r\n    // 11 22 33 44 | 44 33 22 1 1\r\n\r\n  }\r\n  */\r\n\r\n  function _mixDna(uint256 _dadDna, uint256 _mumDna) private returns(uint256) {\r\n    uint256[8] memory geneArray;\r\n    uint8 random = uint8( block.timestamp % 255 ); // 0-255 max random numbers | binary between 00000000-11111111 (example rand num: 11001011)\r\n    uint256 i;\r\n    uint256 index = 7;\r\n\r\n    /* bitwise operator\r\n      00000001 => 1\r\n      00000010 => 2\r\n      00000100 => 4\r\n      00001000 => 8\r\n      00010000 => 16\r\n      00100000 => 32\r\n      01000000 => 64\r\n      10000000 => 128\r\n      if (true && false) = false (1, 0) = 0\r\n      if we compare something to both true and false, is false because it cannot be both true and false\r\n      if (true || false) = true -- we compare something to true or false, is true; it could be either true or false (1, 0) = 1\r\n      if ( true && true) = true (1, 1) = 1\r\n      if ( false || false) = false (0, 0) = 0 .... one needs to be true\r\n      if ( false && false) = false (0, 0) = 0 .... one needs to be true\r\n\r\n      11001011 (random number from block.timestamp)\r\n      &\r\n      integers < 128\r\n      00000001 1 \r\n      00000010 1\r\n      00000100 0\r\n      00001000 1\r\n      00010010 0\r\n      00100010 0\r\n      01000010 1\r\n      10000010 0\r\n\r\n      if(1) use mum gene\r\n      if(0) use dad gene\r\n      */\r\n\r\n    //DNA [11, 22, 33, 44, 55 66 77 (88)] //we remove the last pair by deviding by 100\r\n\r\n    for ( i = 1; i <= 128; i=i*2) { \r\n      if(random & i !=0) {\r\n        geneArray[index] =  uint8( _mumDna % 100); // we set the index pos in array at #7; then / by 100 and move the index back by 1 to get rid of the last two digits\r\n      }\r\n      else {\r\n        geneArray[index] =  uint8( _dadDna % 100);\r\n      }\r\n      _mumDna = _mumDna / 100;\r\n      _mumDna = _mumDna / 100;\r\n\r\n      index = index - 1; // from the 7th pos, we move back in pos of the array[,,,,<==] \r\n\r\n    }\r\n    // Combine DNA from both parents as one string of numbers\r\n    //uint256 newGene; (already delcard at start of contract)\r\n\r\n    // new gene\r\n    //[12, 23, 34, 45, 56, 67, 78, 98]\r\n\r\n    // we take our first pos and add (+) our new gene\r\n    // [12]\r\n    // we then take our new gene and mult by (100)\r\n    // [1200]\r\n    // we then add from our geneArray[i] then next index num\r\n    // [1223]\r\n    // we then mult by 100 again\r\n    // [122300]\r\n    // add again from our geneArray[i] the next index\r\n    // [122324]\r\n    // mult again\r\n    // [12233400]... and so on\r\n    \r\n    for(i = 0; i < 8; i++) {\r\n      newGene = newGene + geneArray[i]; // we need to stop before the last index [1,2,3,4,5,6,7, stop]\r\n      if(i != 7) { // if i is not index 7, mult; otherwise stop and return new gene\r\n         newGene = newGene * 100;\r\n      } \r\n  \r\n    }\r\n    return newGene; // 12 23 34 45 56 67 78 98\r\n  }\r\n\r\n\r\n}",
  "sourcePath": "C:\\Users\\benX\\Documents\\ethereum_course_advanced\\myCryptoKitties_master\\contracts\\kittiesContract.sol",
  "compiler": {
    "name": "solc",
    "version": "0.8.7+commit.e28d00a7.Emscripten.clang"
  },
  "schemaVersion": "3.4.2",
  "updatedAt": "2021-08-19T23:37:51.082Z",
  "devdoc": {
    "kind": "dev",
    "methods": {
      "owner()": {
        "details": "Returns the address of the current owner."
      },
      "renounceOwnership()": {
        "details": "Leaves the contract without owner. It will not be possible to call `onlyOwner` functions anymore. Can only be called by the current owner. NOTE: Renouncing ownership will leave the contract without an owner, thereby removing any functionality that is only available to the owner."
      },
      "transferOwnership(address)": {
        "details": "Transfers ownership of the contract to a new account (`newOwner`). Can only be called by the current owner."
      }
    },
    "version": 1
  },
  "userdoc": {
    "kind": "user",
    "methods": {},
    "version": 1
  }
}