{
  "contractName": "myKittiesContract",
  "abi": [
    {
      "anonymous": false,
      "inputs": [
        {
          "indexed": true,
          "internalType": "address",
          "name": "owner",
          "type": "address"
        },
        {
          "indexed": true,
          "internalType": "address",
          "name": "approved",
          "type": "address"
        },
        {
          "indexed": true,
          "internalType": "uint256",
          "name": "tokenId",
          "type": "uint256"
        }
      ],
      "name": "Approval",
      "type": "event"
    },
    {
      "anonymous": false,
      "inputs": [
        {
          "indexed": true,
          "internalType": "address",
          "name": "owner",
          "type": "address"
        },
        {
          "indexed": true,
          "internalType": "address",
          "name": "operator",
          "type": "address"
        },
        {
          "indexed": false,
          "internalType": "bool",
          "name": "approved",
          "type": "bool"
        }
      ],
      "name": "ApprovalForAll",
      "type": "event"
    },
    {
      "anonymous": false,
      "inputs": [
        {
          "indexed": false,
          "internalType": "address",
          "name": "owner",
          "type": "address"
        },
        {
          "indexed": false,
          "internalType": "uint256",
          "name": "newKittenId",
          "type": "uint256"
        },
        {
          "indexed": false,
          "internalType": "uint256",
          "name": "mumId",
          "type": "uint256"
        },
        {
          "indexed": false,
          "internalType": "uint256",
          "name": "dadId",
          "type": "uint256"
        },
        {
          "indexed": false,
          "internalType": "uint256",
          "name": "genes",
          "type": "uint256"
        }
      ],
      "name": "Birth",
      "type": "event"
    },
    {
      "anonymous": false,
      "inputs": [
        {
          "indexed": true,
          "internalType": "address",
          "name": "previousOwner",
          "type": "address"
        },
        {
          "indexed": true,
          "internalType": "address",
          "name": "newOwner",
          "type": "address"
        }
      ],
      "name": "OwnershipTransferred",
      "type": "event"
    },
    {
      "anonymous": false,
      "inputs": [
        {
          "indexed": true,
          "internalType": "address",
          "name": "from",
          "type": "address"
        },
        {
          "indexed": true,
          "internalType": "address",
          "name": "to",
          "type": "address"
        },
        {
          "indexed": true,
          "internalType": "uint256",
          "name": "tokenId",
          "type": "uint256"
        }
      ],
      "name": "Transfer",
      "type": "event"
    },
    {
      "inputs": [],
      "name": "CREATION_LIMIT_GEN0",
      "outputs": [
        {
          "internalType": "uint256",
          "name": "",
          "type": "uint256"
        }
      ],
      "stateMutability": "view",
      "type": "function"
    },
    {
      "inputs": [],
      "name": "gen0Counter",
      "outputs": [
        {
          "internalType": "uint256",
          "name": "",
          "type": "uint256"
        }
      ],
      "stateMutability": "view",
      "type": "function"
    },
    {
      "inputs": [
        {
          "internalType": "uint256",
          "name": "",
          "type": "uint256"
        }
      ],
      "name": "kittyIndexToApproved",
      "outputs": [
        {
          "internalType": "address",
          "name": "",
          "type": "address"
        }
      ],
      "stateMutability": "view",
      "type": "function"
    },
    {
      "inputs": [
        {
          "internalType": "uint256",
          "name": "",
          "type": "uint256"
        }
      ],
      "name": "kittyIndexToOwner",
      "outputs": [
        {
          "internalType": "address",
          "name": "",
          "type": "address"
        }
      ],
      "stateMutability": "view",
      "type": "function"
    },
    {
      "inputs": [],
      "name": "owner",
      "outputs": [
        {
          "internalType": "address",
          "name": "",
          "type": "address"
        }
      ],
      "stateMutability": "view",
      "type": "function"
    },
    {
      "inputs": [],
      "name": "renounceOwnership",
      "outputs": [],
      "stateMutability": "nonpayable",
      "type": "function"
    },
    {
      "inputs": [
        {
          "internalType": "address",
          "name": "newOwner",
          "type": "address"
        }
      ],
      "name": "transferOwnership",
      "outputs": [],
      "stateMutability": "nonpayable",
      "type": "function"
    },
    {
      "inputs": [
        {
          "internalType": "uint256",
          "name": "_genes",
          "type": "uint256"
        }
      ],
      "name": "createKittyGen0",
      "outputs": [
        {
          "internalType": "uint256",
          "name": "",
          "type": "uint256"
        }
      ],
      "stateMutability": "nonpayable",
      "type": "function"
    },
    {
      "inputs": [
        {
          "internalType": "uint256",
          "name": "_mumId",
          "type": "uint256"
        },
        {
          "internalType": "uint256",
          "name": "_dadId",
          "type": "uint256"
        },
        {
          "internalType": "uint256",
          "name": "_generation",
          "type": "uint256"
        },
        {
          "internalType": "uint256",
          "name": "_genes",
          "type": "uint256"
        },
        {
          "internalType": "address",
          "name": "owner",
          "type": "address"
        }
      ],
      "name": "_createKitty",
      "outputs": [
        {
          "internalType": "uint256",
          "name": "",
          "type": "uint256"
        }
      ],
      "stateMutability": "nonpayable",
      "type": "function"
    },
    {
      "inputs": [
        {
          "internalType": "uint256",
          "name": "tokenId",
          "type": "uint256"
        }
      ],
      "name": "myGetKitty",
      "outputs": [
        {
          "internalType": "uint256",
          "name": "birthTime",
          "type": "uint256"
        },
        {
          "internalType": "uint256",
          "name": "mumId",
          "type": "uint256"
        },
        {
          "internalType": "uint256",
          "name": "dadId",
          "type": "uint256"
        },
        {
          "internalType": "uint256",
          "name": "generation",
          "type": "uint256"
        },
        {
          "internalType": "uint256",
          "name": "genes",
          "type": "uint256"
        }
      ],
      "stateMutability": "view",
      "type": "function"
    },
    {
      "inputs": [
        {
          "internalType": "uint256",
          "name": "_id",
          "type": "uint256"
        }
      ],
      "name": "getKittyFilip",
      "outputs": [
        {
          "internalType": "uint256",
          "name": "birthTime",
          "type": "uint256"
        },
        {
          "internalType": "uint256",
          "name": "mumId",
          "type": "uint256"
        },
        {
          "internalType": "uint256",
          "name": "dadId",
          "type": "uint256"
        },
        {
          "internalType": "uint256",
          "name": "generation",
          "type": "uint256"
        },
        {
          "internalType": "uint256",
          "name": "genes",
          "type": "uint256"
        }
      ],
      "stateMutability": "view",
      "type": "function"
    },
    {
      "inputs": [
        {
          "internalType": "address",
          "name": "owner",
          "type": "address"
        }
      ],
      "name": "getAllCatsFor",
      "outputs": [
        {
          "internalType": "uint256[]",
          "name": "",
          "type": "uint256[]"
        }
      ],
      "stateMutability": "view",
      "type": "function"
    },
    {
      "inputs": [
        {
          "internalType": "address",
          "name": "owner",
          "type": "address"
        }
      ],
      "name": "balanceOf",
      "outputs": [
        {
          "internalType": "uint256",
          "name": "balance",
          "type": "uint256"
        }
      ],
      "stateMutability": "view",
      "type": "function"
    },
    {
      "inputs": [],
      "name": "totalSupply",
      "outputs": [
        {
          "internalType": "uint256",
          "name": "total",
          "type": "uint256"
        }
      ],
      "stateMutability": "view",
      "type": "function"
    },
    {
      "inputs": [],
      "name": "name",
      "outputs": [
        {
          "internalType": "string",
          "name": "tokenName",
          "type": "string"
        }
      ],
      "stateMutability": "pure",
      "type": "function"
    },
    {
      "inputs": [],
      "name": "symbol",
      "outputs": [
        {
          "internalType": "string",
          "name": "tokenSymbol",
          "type": "string"
        }
      ],
      "stateMutability": "pure",
      "type": "function"
    },
    {
      "inputs": [
        {
          "internalType": "uint256",
          "name": "tokenId",
          "type": "uint256"
        }
      ],
      "name": "ownerOf",
      "outputs": [
        {
          "internalType": "address",
          "name": "owner",
          "type": "address"
        }
      ],
      "stateMutability": "view",
      "type": "function"
    },
    {
      "inputs": [
        {
          "internalType": "address",
          "name": "to",
          "type": "address"
        },
        {
          "internalType": "uint256",
          "name": "tokenId",
          "type": "uint256"
        }
      ],
      "name": "transfer",
      "outputs": [],
      "stateMutability": "nonpayable",
      "type": "function"
    },
    {
      "inputs": [
        {
          "internalType": "address",
          "name": "_approved",
          "type": "address"
        },
        {
          "internalType": "uint256",
          "name": "_tokenId",
          "type": "uint256"
        }
      ],
      "name": "approve",
      "outputs": [],
      "stateMutability": "nonpayable",
      "type": "function"
    },
    {
      "inputs": [
        {
          "internalType": "address",
          "name": "_operator",
          "type": "address"
        },
        {
          "internalType": "bool",
          "name": "_approved",
          "type": "bool"
        }
      ],
      "name": "setApprovalForAll",
      "outputs": [],
      "stateMutability": "nonpayable",
      "type": "function"
    },
    {
      "inputs": [
        {
          "internalType": "uint256",
          "name": "_tokenId",
          "type": "uint256"
        }
      ],
      "name": "getApproved",
      "outputs": [
        {
          "internalType": "address",
          "name": "",
          "type": "address"
        }
      ],
      "stateMutability": "view",
      "type": "function"
    },
    {
      "inputs": [
        {
          "internalType": "address",
          "name": "_owner",
          "type": "address"
        },
        {
          "internalType": "address",
          "name": "_operator",
          "type": "address"
        }
      ],
      "name": "isApprovedForAll",
      "outputs": [
        {
          "internalType": "bool",
          "name": "",
          "type": "bool"
        }
      ],
      "stateMutability": "view",
      "type": "function"
    }
  ],
  "bytecode": "0x608060405234801561001057600080fd5b5061002d61002261003260201b60201c565b61003a60201b60201c565b6100fe565b600033905090565b60008060009054906101000a900473ffffffffffffffffffffffffffffffffffffffff169050816000806101000a81548173ffffffffffffffffffffffffffffffffffffffff021916908373ffffffffffffffffffffffffffffffffffffffff1602179055508173ffffffffffffffffffffffffffffffffffffffff168173ffffffffffffffffffffffffffffffffffffffff167f8be0079c531659141344cd1fd0a4f28419497f9722a3daafe3b4186f6b6457e060405160405180910390a35050565b612171806200010e6000396000f3fe608060405234801561001057600080fd5b50600436106101425760003560e01c80638da5cb5b116100b8578063a9059cbb1161007c578063a9059cbb146103b9578063b4834330146103d5578063d5a776ca146103f3578063e985e9c514610423578063ef5e94aa14610453578063f2fde38b1461047157610142565b80638da5cb5b146102fd57806395d89b411461031b578063a090cb7714610339578063a22cb4651461036d578063a45f4bfc1461038957610142565b8063338a63a41161010a578063338a63a414610203578063481af3d3146102335780635a64aafa146102635780636352211e1461029357806370a08231146102c3578063715018a6146102f357610142565b806306fdde0314610147578063081812fc14610165578063095ea7b3146101955780630dd1c2e8146101b157806318160ddd146101e5575b600080fd5b61014f61048d565b60405161015c9190611b40565b60405180910390f35b61017f600480360381019061017a91906117ea565b6104ca565b60405161018c9190611a95565b60405180910390f35b6101af60048036038101906101aa91906117aa565b61054e565b005b6101cb60048036038101906101c691906117ea565b6105ca565b6040516101dc959493929190611c7d565b60405180910390f35b6101ed610680565b6040516101fa9190611c62565b60405180910390f35b61021d60048036038101906102189190611817565b61068d565b60405161022a9190611c62565b60405180910390f35b61024d600480360381019061024891906117ea565b61081a565b60405161025a9190611a95565b60405180910390f35b61027d600480360381019061027891906116fd565b61084d565b60405161028a9190611b03565b60405180910390f35b6102ad60048036038101906102a891906117ea565b6108e4565b6040516102ba9190611a95565b60405180910390f35b6102dd60048036038101906102d891906116fd565b610996565b6040516102ea9190611c62565b60405180910390f35b6102fb6109df565b005b610305610a67565b6040516103129190611a95565b60405180910390f35b610323610a90565b6040516103309190611b40565b60405180910390f35b610353600480360381019061034e91906117ea565b610acd565b604051610364959493929190611c7d565b60405180910390f35b6103876004803603810190610382919061176a565b610b83565b005b6103a3600480360381019061039e91906117ea565b610cef565b6040516103b09190611a95565b60405180910390f35b6103d360048036038101906103ce91906117aa565b610d22565b005b6103dd610e23565b6040516103ea9190611c62565b60405180910390f35b61040d600480360381019061040891906117ea565b610e28565b60405161041a9190611c62565b60405180910390f35b61043d6004803603810190610438919061172a565b610f1a565b60405161044a9190611b25565b60405180910390f35b61045b610fae565b6040516104689190611c62565b60405180910390f35b61048b600480360381019061048691906116fd565b610fb4565b005b60606040518060400160405280600e81526020017f4d792043727970746f2043617473000000000000000000000000000000000000815250905090565b60006007805490508210610513576040517f08c379a000000000000000000000000000000000000000000000000000000000815260040161050a90611c02565b60405180910390fd5b6003600083815260200190815260200160002060009054906101000a900473ffffffffffffffffffffffffffffffffffffffff169050919050565b61055833826110ac565b61056157600080fd5b61056b8183611118565b808273ffffffffffffffffffffffffffffffffffffffff163373ffffffffffffffffffffffffffffffffffffffff167f8c5be1e5ebec7d5bd14f71427d1e84f3dd0314c0f7b2291e5b200ac8c7c3b92560405160405180910390a45050565b600080600080600080600787815481106105e7576105e6611ed1565b5b906000526020600020906002020190508060000160009054906101000a900467ffffffffffffffff1667ffffffffffffffff1695508060000160089054906101000a900463ffffffff1663ffffffff16945080600001600c9054906101000a900463ffffffff1663ffffffff1693508060000160109054906101000a900461ffff1661ffff169250806001015491505091939590929450565b6000600780549050905090565b6000806040518060a001604052804267ffffffffffffffff1681526020018863ffffffff1681526020018763ffffffff1681526020018661ffff168152602001858152509050600781908060018154018082558091505060019003906000526020600020906002020160009091909190915060008201518160000160006101000a81548167ffffffffffffffff021916908367ffffffffffffffff16021790555060208201518160000160086101000a81548163ffffffff021916908363ffffffff160217905550604082015181600001600c6101000a81548163ffffffff021916908363ffffffff16021790555060608201518160000160106101000a81548161ffff021916908361ffff160217905550608082015181600101555050600060016007805490506107bf9190611d7b565b90507f0a5311bd2a6608f08a180df2ee7c5946819a649b204b554bb8e39825b2c50ad584828a8a896040516107f8959493929190611ab0565b60405180910390a161080c6000858361116e565b809250505095945050505050565b60036020528060005260406000206000915054906101000a900473ffffffffffffffffffffffffffffffffffffffff1681565b6060600560008373ffffffffffffffffffffffffffffffffffffffff1673ffffffffffffffffffffffffffffffffffffffff1681526020019081526020016000208054806020026020016040519081016040528092919081815260200182805480156108d857602002820191906000526020600020905b8154815260200190600101908083116108c4575b50505050509050919050565b6000806001600084815260200190815260200160002060009054906101000a900473ffffffffffffffffffffffffffffffffffffffff169050600073ffffffffffffffffffffffffffffffffffffffff168173ffffffffffffffffffffffffffffffffffffffff16141561098d576040517f08c379a000000000000000000000000000000000000000000000000000000000815260040161098490611c22565b60405180910390fd5b80915050919050565b6000600260008373ffffffffffffffffffffffffffffffffffffffff1673ffffffffffffffffffffffffffffffffffffffff168152602001908152602001600020549050919050565b6109e76113a9565b73ffffffffffffffffffffffffffffffffffffffff16610a05610a67565b73ffffffffffffffffffffffffffffffffffffffff1614610a5b576040517f08c379a0000000000000000000000000000000000000000000000000000000008152600401610a5290611c42565b60405180910390fd5b610a6560006113b1565b565b60008060009054906101000a900473ffffffffffffffffffffffffffffffffffffffff16905090565b60606040518060400160405280600481526020017f4d43524300000000000000000000000000000000000000000000000000000000815250905090565b60008060008060008060078781548110610aea57610ae9611ed1565b5b906000526020600020906002020190508060000160009054906101000a900467ffffffffffffffff1667ffffffffffffffff168160000160089054906101000a900463ffffffff1663ffffffff1682600001600c9054906101000a900463ffffffff1663ffffffff168360000160109054906101000a900461ffff1661ffff168460010154955095509550955095505091939590929450565b3373ffffffffffffffffffffffffffffffffffffffff168273ffffffffffffffffffffffffffffffffffffffff161415610bf2576040517f08c379a0000000000000000000000000000000000000000000000000000000008152600401610be990611be2565b60405180910390fd5b80600460003373ffffffffffffffffffffffffffffffffffffffff1673ffffffffffffffffffffffffffffffffffffffff16815260200190815260200160002060008473ffffffffffffffffffffffffffffffffffffffff1673ffffffffffffffffffffffffffffffffffffffff16815260200190815260200160002060006101000a81548160ff0219169083151502179055508173ffffffffffffffffffffffffffffffffffffffff163373ffffffffffffffffffffffffffffffffffffffff167f17307eab39ab6107e8899845ad3d59bd9653f200f220920489ca2b5937696c3183604051610ce39190611b25565b60405180910390a35050565b60016020528060005260406000206000915054906101000a900473ffffffffffffffffffffffffffffffffffffffff1681565b600073ffffffffffffffffffffffffffffffffffffffff168273ffffffffffffffffffffffffffffffffffffffff161415610d92576040517f08c379a0000000000000000000000000000000000000000000000000000000008152600401610d8990611bc2565b60405180910390fd5b3073ffffffffffffffffffffffffffffffffffffffff168273ffffffffffffffffffffffffffffffffffffffff161415610e01576040517f08c379a0000000000000000000000000000000000000000000000000000000008152600401610df890611b82565b60405180910390fd5b610e0b33826110ac565b610e1457600080fd5b610e1f33838361116e565b5050565b600a81565b6000610e326113a9565b73ffffffffffffffffffffffffffffffffffffffff16610e50610a67565b73ffffffffffffffffffffffffffffffffffffffff1614610ea6576040517f08c379a0000000000000000000000000000000000000000000000000000000008152600401610e9d90611c42565b60405180910390fd5b600a6006541115610eec576040517f08c379a0000000000000000000000000000000000000000000000000000000008152600401610ee390611ba2565b60405180910390fd5b60066000815480929190610eff90611e2a565b9190505550610f136000806000853361068d565b9050919050565b6000600460008473ffffffffffffffffffffffffffffffffffffffff1673ffffffffffffffffffffffffffffffffffffffff16815260200190815260200160002060008373ffffffffffffffffffffffffffffffffffffffff1673ffffffffffffffffffffffffffffffffffffffff16815260200190815260200160002060009054906101000a900460ff16905092915050565b60065481565b610fbc6113a9565b73ffffffffffffffffffffffffffffffffffffffff16610fda610a67565b73ffffffffffffffffffffffffffffffffffffffff1614611030576040517f08c379a000000000000000000000000000000000000000000000000000000000815260040161102790611c42565b60405180910390fd5b600073ffffffffffffffffffffffffffffffffffffffff168173ffffffffffffffffffffffffffffffffffffffff1614156110a0576040517f08c379a000000000000000000000000000000000000000000000000000000000815260040161109790611b62565b60405180910390fd5b6110a9816113b1565b50565b60008273ffffffffffffffffffffffffffffffffffffffff166001600084815260200190815260200160002060009054906101000a900473ffffffffffffffffffffffffffffffffffffffff1673ffffffffffffffffffffffffffffffffffffffff1614905092915050565b806003600084815260200190815260200160002060006101000a81548173ffffffffffffffffffffffffffffffffffffffff021916908373ffffffffffffffffffffffffffffffffffffffff1602179055505050565b6001600260008473ffffffffffffffffffffffffffffffffffffffff1673ffffffffffffffffffffffffffffffffffffffff16815260200190815260200160002060008282546111be9190611d25565b92505081905550816001600083815260200190815260200160002060006101000a81548173ffffffffffffffffffffffffffffffffffffffff021916908373ffffffffffffffffffffffffffffffffffffffff160217905550600560008373ffffffffffffffffffffffffffffffffffffffff1673ffffffffffffffffffffffffffffffffffffffff168152602001908152602001600020819080600181540180825580915050600190039060005260206000200160009091909190915055600073ffffffffffffffffffffffffffffffffffffffff168373ffffffffffffffffffffffffffffffffffffffff1614611349576001600260008573ffffffffffffffffffffffffffffffffffffffff1673ffffffffffffffffffffffffffffffffffffffff16815260200190815260200160002060008282546113019190611d7b565b925050819055506113128382611475565b6001600082815260200190815260200160002060006101000a81549073ffffffffffffffffffffffffffffffffffffffff02191690555b808273ffffffffffffffffffffffffffffffffffffffff163373ffffffffffffffffffffffffffffffffffffffff167fddf252ad1be2c89b69c2b068fc378daa952ba7f163c4a11628f55a4df523b3ef60405160405180910390a4505050565b600033905090565b60008060009054906101000a900473ffffffffffffffffffffffffffffffffffffffff169050816000806101000a81548173ffffffffffffffffffffffffffffffffffffffff021916908373ffffffffffffffffffffffffffffffffffffffff1602179055508173ffffffffffffffffffffffffffffffffffffffff168173ffffffffffffffffffffffffffffffffffffffff167f8be0079c531659141344cd1fd0a4f28419497f9722a3daafe3b4186f6b6457e060405160405180910390a35050565b6000600560008473ffffffffffffffffffffffffffffffffffffffff1673ffffffffffffffffffffffffffffffffffffffff1681526020019081526020016000206001600560008673ffffffffffffffffffffffffffffffffffffffff1673ffffffffffffffffffffffffffffffffffffffff168152602001908152602001600020805490506115059190611d7b565b8154811061151657611515611ed1565b5b9060005260206000200154905060005b6001600560008673ffffffffffffffffffffffffffffffffffffffff1673ffffffffffffffffffffffffffffffffffffffff168152602001908152602001600020805490506115759190611d7b565b8110156116b85782600560008673ffffffffffffffffffffffffffffffffffffffff1673ffffffffffffffffffffffffffffffffffffffff16815260200190815260200160002082815481106115ce576115cd611ed1565b5b906000526020600020015414156116a55781600560008673ffffffffffffffffffffffffffffffffffffffff1673ffffffffffffffffffffffffffffffffffffffff168152602001908152602001600020828154811061163157611630611ed1565b5b9060005260206000200181905550600560008573ffffffffffffffffffffffffffffffffffffffff1673ffffffffffffffffffffffffffffffffffffffff16815260200190815260200160002080548061168e5761168d611ea2565b5b600190038181906000526020600020016000905590555b80806116b090611e2a565b915050611526565b50505050565b6000813590506116cd816120f6565b92915050565b6000813590506116e28161210d565b92915050565b6000813590506116f781612124565b92915050565b60006020828403121561171357611712611f00565b5b6000611721848285016116be565b91505092915050565b6000806040838503121561174157611740611f00565b5b600061174f858286016116be565b9250506020611760858286016116be565b9150509250929050565b6000806040838503121561178157611780611f00565b5b600061178f858286016116be565b92505060206117a0858286016116d3565b9150509250929050565b600080604083850312156117c1576117c0611f00565b5b60006117cf858286016116be565b92505060206117e0858286016116e8565b9150509250929050565b600060208284031215611800576117ff611f00565b5b600061180e848285016116e8565b91505092915050565b600080600080600060a0868803121561183357611832611f00565b5b6000611841888289016116e8565b9550506020611852888289016116e8565b9450506040611863888289016116e8565b9350506060611874888289016116e8565b9250506080611885888289016116be565b9150509295509295909350565b600061189e8383611a77565b60208301905092915050565b6118b381611daf565b82525050565b60006118c482611ce0565b6118ce8185611d03565b93506118d983611cd0565b8060005b8381101561190a5781516118f18882611892565b97506118fc83611cf6565b9250506001810190506118dd565b5085935050505092915050565b61192081611dc1565b82525050565b600061193182611ceb565b61193b8185611d14565b935061194b818560208601611df7565b61195481611f05565b840191505092915050565b600061196c602683611d14565b915061197782611f16565b604082019050919050565b600061198f601c83611d14565b915061199a82611f65565b602082019050919050565b60006119b2602e83611d14565b91506119bd82611f8e565b604082019050919050565b60006119d5602483611d14565b91506119e082611fdd565b604082019050919050565b60006119f8601983611d14565b9150611a038261202c565b602082019050919050565b6000611a1b601083611d14565b9150611a2682612055565b602082019050919050565b6000611a3e602983611d14565b9150611a498261207e565b604082019050919050565b6000611a61602083611d14565b9150611a6c826120cd565b602082019050919050565b611a8081611ded565b82525050565b611a8f81611ded565b82525050565b6000602082019050611aaa60008301846118aa565b92915050565b600060a082019050611ac560008301886118aa565b611ad26020830187611a86565b611adf6040830186611a86565b611aec6060830185611a86565b611af96080830184611a86565b9695505050505050565b60006020820190508181036000830152611b1d81846118b9565b905092915050565b6000602082019050611b3a6000830184611917565b92915050565b60006020820190508181036000830152611b5a8184611926565b905092915050565b60006020820190508181036000830152611b7b8161195f565b9050919050565b60006020820190508181036000830152611b9b81611982565b9050919050565b60006020820190508181036000830152611bbb816119a5565b9050919050565b60006020820190508181036000830152611bdb816119c8565b9050919050565b60006020820190508181036000830152611bfb816119eb565b9050919050565b60006020820190508181036000830152611c1b81611a0e565b9050919050565b60006020820190508181036000830152611c3b81611a31565b9050919050565b60006020820190508181036000830152611c5b81611a54565b9050919050565b6000602082019050611c776000830184611a86565b92915050565b600060a082019050611c926000830188611a86565b611c9f6020830187611a86565b611cac6040830186611a86565b611cb96060830185611a86565b611cc66080830184611a86565b9695505050505050565b6000819050602082019050919050565b600081519050919050565b600081519050919050565b6000602082019050919050565b600082825260208201905092915050565b600082825260208201905092915050565b6000611d3082611ded565b9150611d3b83611ded565b9250827fffffffffffffffffffffffffffffffffffffffffffffffffffffffffffffffff03821115611d7057611d6f611e73565b5b828201905092915050565b6000611d8682611ded565b9150611d9183611ded565b925082821015611da457611da3611e73565b5b828203905092915050565b6000611dba82611dcd565b9050919050565b60008115159050919050565b600073ffffffffffffffffffffffffffffffffffffffff82169050919050565b6000819050919050565b60005b83811015611e15578082015181840152602081019050611dfa565b83811115611e24576000848401525b50505050565b6000611e3582611ded565b91507fffffffffffffffffffffffffffffffffffffffffffffffffffffffffffffffff821415611e6857611e67611e73565b5b600182019050919050565b7f4e487b7100000000000000000000000000000000000000000000000000000000600052601160045260246000fd5b7f4e487b7100000000000000000000000000000000000000000000000000000000600052603160045260246000fd5b7f4e487b7100000000000000000000000000000000000000000000000000000000600052603260045260246000fd5b600080fd5b6000601f19601f8301169050919050565b7f4f776e61626c653a206e6577206f776e657220697320746865207a65726f206160008201527f6464726573730000000000000000000000000000000000000000000000000000602082015250565b7f7472616e7366657220746f20746865207a65726f206164647265737300000000600082015250565b7f47656e20302073686f756c64206265206c657373207468616e2063726561746960008201527f6f6e206c696d69742067656e2030000000000000000000000000000000000000602082015250565b7f4552433732313a207472616e7366657220746f20746865207a65726f2061646460008201527f7265737300000000000000000000000000000000000000000000000000000000602082015250565b7f4552433732313a20617070726f766520746f2063616c6c657200000000000000600082015250565b7f546f6b656e206d75737420657869737400000000000000000000000000000000600082015250565b7f4552433732313a206f776e657220717565727920666f72206e6f6e657869737460008201527f656e7420746f6b656e0000000000000000000000000000000000000000000000602082015250565b7f4f776e61626c653a2063616c6c6572206973206e6f7420746865206f776e6572600082015250565b6120ff81611daf565b811461210a57600080fd5b50565b61211681611dc1565b811461212157600080fd5b50565b61212d81611ded565b811461213857600080fd5b5056fea2646970667358221220329e289c31ffd6c95be94670725f5be7ad731c2c121da65cf4bfdd85ca7116a664736f6c63430008060033",
  "immutableReferences": {},
  "source": "// SPDX-License-Identifier: MIT\r\npragma solidity ^0.8.0;\r\n\r\n//import \"./IERC721.sol\";\r\nimport \"@openzeppelin/contracts/access/Ownable.sol\";\r\n\r\n\r\ncontract myKittiesContract is Ownable {\r\n\r\n  // Mapping from token ID to owner address\r\n  mapping(uint256 => address) public kittyIndexToOwner; //owners Of TokenId\r\n\r\n  // Mapping owner address to token count\r\n  mapping(address => uint256) ownershipTokenCount;\r\n\r\n  // Mapping from token ID to approved address\r\n  mapping(uint256 => address) public kittyIndexToApproved;\r\n\r\n  // MYADDR => OPERATOR => TRUE/FALSE\r\n  // _operatorApprovals[MYADDR][OPERATORADDR] = true or false;\r\n  // _operatorApprovals[MYADDR][BOBS_ADDR] = true;\r\n  // _operatorApprovals[MYADDR][ALICE_ADDR] = false;\r\n  // _operatorApprovals[MYADDR][LISA_ADDR] = true;\r\n\r\n  // Mapping from owner to operator approvals\r\n  mapping(address => mapping(address => bool)) private _operatorApprovals;\r\n\r\n  //an address to a number of cats in an array\r\n  mapping(address => uint256[]) ownerToCats;\r\n\r\n\r\n  event Transfer(address indexed from, address indexed to, uint256 indexed tokenId);\r\n  event ApprovalForAll(address indexed owner, address indexed operator, bool approved);\r\n  event Approval(address indexed owner, address indexed approved, uint256 indexed tokenId);\r\n  event Birth(address owner, uint256 newKittenId, uint256 mumId, uint256 dadId, uint256 genes);\r\n  \r\n\r\n  string constant _name = \"My Crypto Cats\";\r\n  string constant _symbol = \"MCRC\";\r\n\r\n  uint256 public constant CREATION_LIMIT_GEN0 = 10;\r\n\r\n  uint256 public gen0Counter;\r\n\r\n  struct Kitty{\r\n    uint64 birthTime;\r\n    uint32 mumId;\r\n    uint32 dadId;\r\n    uint16 generation;\r\n    uint256 genes;\r\n  }\r\n\r\n  Kitty[] kitties;\r\n\r\n  function createKittyGen0(uint256 _genes) public onlyOwner returns (uint256)\r\n  {\r\n    require(gen0Counter <= CREATION_LIMIT_GEN0, \"Gen 0 should be less than creation limit gen 0\");\r\n    \r\n    gen0Counter ++;\r\n\r\n    // mum, dad and generation is 0\r\n    // Gen0 have no owners; they are owned by the contract\r\n    \r\n    return _createKitty(0,0,0, _genes, msg.sender); // msg.sender could also be -- address(this) - we are giving cats to owner\r\n  }\r\n\r\n  // create cats by generation and by breeding\r\n  // returns cat id\r\n  function _createKitty(\r\n    uint256 _mumId,\r\n    uint256 _dadId,\r\n    uint256 _generation, //1,2,3..etc\r\n    uint256 _genes, // recipient\r\n    address owner\r\n  ) public returns(uint256) {\r\n    Kitty memory newKitties = Kitty ({\r\n      genes: _genes,\r\n      birthTime: uint64(block.timestamp),\r\n      mumId: uint32(_mumId),\r\n      dadId: uint32(_dadId),\r\n      generation: uint16(_generation)\r\n    });\r\n\r\n    kitties.push(newKitties); // returns the size of array - 1 for the first cat\r\n\r\n    uint256 newKittenId = kitties.length -1; // 0-1\r\n\r\n    emit Birth(owner, newKittenId, _mumId, _dadId, _genes);\r\n\r\n    _transfer(address(0), owner, newKittenId);\r\n\r\n    return newKittenId; //returns 256 bit integer\r\n\r\n  }\r\n\r\n  function myGetKitty(uint256 tokenId) public view returns (\r\n    uint256 birthTime,\r\n    uint256 mumId,\r\n    uint256 dadId,\r\n    uint256 generation,\r\n    uint256 genes\r\n  ) {\r\n\r\n    Kitty storage returnKitty = kitties[tokenId];\r\n    return (uint256(returnKitty.birthTime), uint256(returnKitty.mumId), uint256(returnKitty.dadId), uint256(returnKitty.generation), uint256(returnKitty.genes));\r\n  }\r\n\r\n  function getKittyFilip(uint256 _id) public view returns (\r\n    uint256 birthTime,\r\n    uint256 mumId,\r\n    uint256 dadId,\r\n    uint256 generation,\r\n    uint256 genes\r\n  ) {\r\n\r\n    Kitty storage kitty = kitties[_id];\r\n    birthTime = uint256(kitty.birthTime);\r\n    mumId = uint256(kitty.mumId);\r\n    dadId = uint256(kitty.dadId);\r\n    generation = uint256(kitty.generation);\r\n    genes = uint256(kitty.genes);\r\n  }\r\n\r\n  //-------------------------------\r\n\r\n  function getAllCatsFor(address owner) public view returns (uint[] memory) {\r\n    return ownerToCats[owner];\r\n  }\r\n  \r\n\r\n  function balanceOf(address owner) public view returns (uint256 balance) {\r\n    return ownershipTokenCount[owner];\r\n  }\r\n\r\n\r\n  function totalSupply() public view returns (uint256 total) {\r\n    return kitties.length;\r\n  }\r\n\r\n\r\n  function name() external pure returns (string memory tokenName) {\r\n    return _name;\r\n  }\r\n\r\n\r\n  function symbol() external pure returns (string memory tokenSymbol) {\r\n    return _symbol;\r\n  }\r\n\r\n  // private functions are cheaper but public allows to execute function from within this contract\r\n  function ownerOf(uint256 tokenId) public view returns (address owner) {\r\n    address _owner = kittyIndexToOwner[tokenId]; // local variable \r\n    require(_owner != address(0), \"ERC721: owner query for nonexistent token\");\r\n\r\n    return _owner;\r\n\r\n  }\r\n\r\n\r\n  function transfer(address to, uint256 tokenId) external {\r\n    require(to != address(0), \"ERC721: transfer to the zero address\");\r\n    require(to != address(this), \"transfer to the zero address\");\r\n    // `tokenId` token must be owned by `msg.sender`.\r\n    require(_owns(msg.sender, tokenId));\r\n\r\n    _transfer(msg.sender, to, tokenId);\r\n\r\n  }\r\n\r\n\r\n  function approve(address _approved, uint256 _tokenId) public {\r\n    require(_owns(msg.sender, _tokenId));\r\n\r\n    _approve(_tokenId, _approved);\r\n    emit Approval(msg.sender, _approved, _tokenId);\r\n\r\n  }\r\n\r\n\r\n  function setApprovalForAll(address _operator, bool _approved) public {\r\n    require(_operator != msg.sender, \"ERC721: approve to caller\");\r\n\r\n    _operatorApprovals[msg.sender][_operator] = _approved; \r\n    emit ApprovalForAll(msg.sender, _operator, _approved);\r\n\r\n  }\r\n\r\n\r\n  function getApproved(uint256 _tokenId) public view returns (address) {\r\n    require(_tokenId < kitties.length, \"Token must exist\"); // getter function\r\n\r\n    return kittyIndexToApproved[_tokenId];\r\n  }\r\n\r\n\r\n  function isApprovedForAll(address _owner, address _operator) public view returns (bool) {\r\n    return _operatorApprovals[_owner][_operator];\r\n  }\r\n\r\n\r\n   function _approve(uint256 _tokenId, address _approved) internal {\r\n    kittyIndexToApproved[_tokenId] = _approved;\r\n  }\r\n\r\n\r\n  //Smart Contract Programmer(youTuber) ...\r\n  //transferFrom - how it is used:\r\n  //trader calls approve(dexAddress, amount)\r\n  //dex calls transferFrom(traderAddress, dexAddress, amount)\r\n\r\n  // must transfer from address 0\r\n  function _transfer(address from, address to, uint256 tokenId) internal {\r\n    //_approve(address(0), tokenId);\r\n\r\n    ownershipTokenCount[to] += 1; // increase count of recipient\r\n\r\n    kittyIndexToOwner[tokenId] = to;\r\n\r\n     // SEMD tokenId # => an address to a number of cats in an array\r\n     ownerToCats[to].push(tokenId);\r\n\r\n     // decrease token count from person A to person B\r\n     if (from != address(0)) { // if from is not address(0), is okay to remove token\r\n       ownershipTokenCount[from] -= 1;\r\n       _removeTokenIdFromOwner(from, tokenId);\r\n       delete kittyIndexToOwner[tokenId];\r\n     }\r\n\r\n     emit Transfer(msg.sender, to, tokenId);\r\n\r\n  }\r\n\r\n  function  _removeTokenIdFromOwner(address owner, uint256 tokenId) internal {\r\n    uint256 lastId = ownerToCats[owner][ownerToCats[owner].length -1];\r\n    for (uint256 i = 0; i < ownerToCats[owner].length -1; i++) {\r\n      if (ownerToCats[owner][i] == tokenId) {\r\n        ownerToCats[owner][i] = lastId;\r\n        ownerToCats[owner].pop();\r\n      }\r\n    }\r\n  }\r\n\r\n\r\n\r\n  function _owns(address _claimant, uint256 tokenId ) internal view returns(bool) {\r\n    return kittyIndexToOwner[tokenId] == _claimant;\r\n  }\r\n\r\n\r\n\r\n}",
  "sourcePath": "C:/Users/benX/Documents/ethereum_course_advanced/myCryptoKitties_master/contracts/kittiesContract.sol",
  "compiler": {
    "name": "solc",
    "version": "0.8.6+commit.11564f7e.Emscripten.clang"
  },
  "schemaVersion": "3.4.1",
  "updatedAt": "2021-07-15T02:28:50.256Z",
  "devdoc": {
    "kind": "dev",
    "methods": {
      "owner()": {
        "details": "Returns the address of the current owner."
      },
      "renounceOwnership()": {
        "details": "Leaves the contract without owner. It will not be possible to call `onlyOwner` functions anymore. Can only be called by the current owner. NOTE: Renouncing ownership will leave the contract without an owner, thereby removing any functionality that is only available to the owner."
      },
      "transferOwnership(address)": {
        "details": "Transfers ownership of the contract to a new account (`newOwner`). Can only be called by the current owner."
      }
    },
    "version": 1
  },
  "userdoc": {
    "kind": "user",
    "methods": {},
    "version": 1
  }
}