{
  "contractName": "myKittiesContract",
  "abi": [
    {
      "inputs": [],
      "stateMutability": "nonpayable",
      "type": "constructor"
    },
    {
      "anonymous": false,
      "inputs": [
        {
          "indexed": true,
          "internalType": "address",
          "name": "owner",
          "type": "address"
        },
        {
          "indexed": true,
          "internalType": "address",
          "name": "approved",
          "type": "address"
        },
        {
          "indexed": true,
          "internalType": "uint256",
          "name": "tokenId",
          "type": "uint256"
        }
      ],
      "name": "Approval",
      "type": "event"
    },
    {
      "anonymous": false,
      "inputs": [
        {
          "indexed": true,
          "internalType": "address",
          "name": "owner",
          "type": "address"
        },
        {
          "indexed": true,
          "internalType": "address",
          "name": "operator",
          "type": "address"
        },
        {
          "indexed": false,
          "internalType": "bool",
          "name": "approved",
          "type": "bool"
        }
      ],
      "name": "ApprovalForAll",
      "type": "event"
    },
    {
      "anonymous": false,
      "inputs": [
        {
          "indexed": false,
          "internalType": "address",
          "name": "owner",
          "type": "address"
        },
        {
          "indexed": false,
          "internalType": "uint256",
          "name": "newKittenId",
          "type": "uint256"
        },
        {
          "indexed": false,
          "internalType": "uint256",
          "name": "mumId",
          "type": "uint256"
        },
        {
          "indexed": false,
          "internalType": "uint256",
          "name": "dadId",
          "type": "uint256"
        },
        {
          "indexed": false,
          "internalType": "uint256",
          "name": "genes",
          "type": "uint256"
        }
      ],
      "name": "Birth",
      "type": "event"
    },
    {
      "anonymous": false,
      "inputs": [
        {
          "indexed": true,
          "internalType": "address",
          "name": "previousOwner",
          "type": "address"
        },
        {
          "indexed": true,
          "internalType": "address",
          "name": "newOwner",
          "type": "address"
        }
      ],
      "name": "OwnershipTransferred",
      "type": "event"
    },
    {
      "anonymous": false,
      "inputs": [
        {
          "indexed": true,
          "internalType": "address",
          "name": "from",
          "type": "address"
        },
        {
          "indexed": true,
          "internalType": "address",
          "name": "to",
          "type": "address"
        },
        {
          "indexed": true,
          "internalType": "uint256",
          "name": "tokenId",
          "type": "uint256"
        }
      ],
      "name": "Transfer",
      "type": "event"
    },
    {
      "inputs": [],
      "name": "CREATION_LIMIT_GEN0",
      "outputs": [
        {
          "internalType": "uint256",
          "name": "",
          "type": "uint256"
        }
      ],
      "stateMutability": "view",
      "type": "function",
      "constant": true
    },
    {
      "inputs": [],
      "name": "gen0Counter",
      "outputs": [
        {
          "internalType": "uint256",
          "name": "",
          "type": "uint256"
        }
      ],
      "stateMutability": "view",
      "type": "function",
      "constant": true
    },
    {
      "inputs": [
        {
          "internalType": "uint256",
          "name": "",
          "type": "uint256"
        }
      ],
      "name": "kittyIndexToApproved",
      "outputs": [
        {
          "internalType": "address",
          "name": "",
          "type": "address"
        }
      ],
      "stateMutability": "view",
      "type": "function",
      "constant": true
    },
    {
      "inputs": [
        {
          "internalType": "uint256",
          "name": "",
          "type": "uint256"
        }
      ],
      "name": "kittyIndexToOwner",
      "outputs": [
        {
          "internalType": "address",
          "name": "",
          "type": "address"
        }
      ],
      "stateMutability": "view",
      "type": "function",
      "constant": true
    },
    {
      "inputs": [],
      "name": "owner",
      "outputs": [
        {
          "internalType": "address",
          "name": "",
          "type": "address"
        }
      ],
      "stateMutability": "view",
      "type": "function",
      "constant": true
    },
    {
      "inputs": [],
      "name": "renounceOwnership",
      "outputs": [],
      "stateMutability": "nonpayable",
      "type": "function"
    },
    {
      "inputs": [
        {
          "internalType": "address",
          "name": "newOwner",
          "type": "address"
        }
      ],
      "name": "transferOwnership",
      "outputs": [],
      "stateMutability": "nonpayable",
      "type": "function"
    },
    {
      "inputs": [
        {
          "internalType": "uint256",
          "name": "_dadId",
          "type": "uint256"
        },
        {
          "internalType": "uint256",
          "name": "_mumId",
          "type": "uint256"
        }
      ],
      "name": "Breeding",
      "outputs": [
        {
          "internalType": "uint256",
          "name": "",
          "type": "uint256"
        }
      ],
      "stateMutability": "nonpayable",
      "type": "function"
    },
    {
      "inputs": [
        {
          "internalType": "bytes4",
          "name": "_interfaceId",
          "type": "bytes4"
        }
      ],
      "name": "supportsInterface",
      "outputs": [
        {
          "internalType": "bool",
          "name": "",
          "type": "bool"
        }
      ],
      "stateMutability": "pure",
      "type": "function",
      "constant": true
    },
    {
      "inputs": [
        {
          "internalType": "uint256",
          "name": "_genes",
          "type": "uint256"
        }
      ],
      "name": "createKittyGen0",
      "outputs": [
        {
          "internalType": "uint256",
          "name": "",
          "type": "uint256"
        }
      ],
      "stateMutability": "nonpayable",
      "type": "function"
    },
    {
      "inputs": [
        {
          "internalType": "uint256",
          "name": "_mumId",
          "type": "uint256"
        },
        {
          "internalType": "uint256",
          "name": "_dadId",
          "type": "uint256"
        },
        {
          "internalType": "uint256",
          "name": "_generation",
          "type": "uint256"
        },
        {
          "internalType": "uint256",
          "name": "_genes",
          "type": "uint256"
        },
        {
          "internalType": "address",
          "name": "owner",
          "type": "address"
        }
      ],
      "name": "_createKitty",
      "outputs": [
        {
          "internalType": "uint256",
          "name": "",
          "type": "uint256"
        }
      ],
      "stateMutability": "nonpayable",
      "type": "function"
    },
    {
      "inputs": [
        {
          "internalType": "uint256",
          "name": "_id",
          "type": "uint256"
        }
      ],
      "name": "getKitty",
      "outputs": [
        {
          "internalType": "uint256",
          "name": "genes",
          "type": "uint256"
        },
        {
          "internalType": "uint256",
          "name": "birthTime",
          "type": "uint256"
        },
        {
          "internalType": "uint256",
          "name": "mumId",
          "type": "uint256"
        },
        {
          "internalType": "uint256",
          "name": "dadId",
          "type": "uint256"
        },
        {
          "internalType": "uint256",
          "name": "generation",
          "type": "uint256"
        }
      ],
      "stateMutability": "view",
      "type": "function",
      "constant": true
    },
    {
      "inputs": [
        {
          "internalType": "address",
          "name": "owner",
          "type": "address"
        }
      ],
      "name": "getAllCatsFor",
      "outputs": [
        {
          "internalType": "uint256[]",
          "name": "",
          "type": "uint256[]"
        }
      ],
      "stateMutability": "view",
      "type": "function",
      "constant": true
    },
    {
      "inputs": [
        {
          "internalType": "address",
          "name": "owner",
          "type": "address"
        }
      ],
      "name": "balanceOf",
      "outputs": [
        {
          "internalType": "uint256",
          "name": "balance",
          "type": "uint256"
        }
      ],
      "stateMutability": "view",
      "type": "function",
      "constant": true
    },
    {
      "inputs": [],
      "name": "totalSupply",
      "outputs": [
        {
          "internalType": "uint256",
          "name": "total",
          "type": "uint256"
        }
      ],
      "stateMutability": "view",
      "type": "function",
      "constant": true
    },
    {
      "inputs": [],
      "name": "name",
      "outputs": [
        {
          "internalType": "string",
          "name": "tokenName",
          "type": "string"
        }
      ],
      "stateMutability": "pure",
      "type": "function",
      "constant": true
    },
    {
      "inputs": [],
      "name": "symbol",
      "outputs": [
        {
          "internalType": "string",
          "name": "tokenSymbol",
          "type": "string"
        }
      ],
      "stateMutability": "pure",
      "type": "function",
      "constant": true
    },
    {
      "inputs": [
        {
          "internalType": "uint256",
          "name": "tokenId",
          "type": "uint256"
        }
      ],
      "name": "ownerOf",
      "outputs": [
        {
          "internalType": "address",
          "name": "owner",
          "type": "address"
        }
      ],
      "stateMutability": "view",
      "type": "function",
      "constant": true
    },
    {
      "inputs": [
        {
          "internalType": "address",
          "name": "to",
          "type": "address"
        },
        {
          "internalType": "uint256",
          "name": "tokenId",
          "type": "uint256"
        }
      ],
      "name": "transfer",
      "outputs": [],
      "stateMutability": "nonpayable",
      "type": "function"
    },
    {
      "inputs": [
        {
          "internalType": "address",
          "name": "_approved",
          "type": "address"
        },
        {
          "internalType": "uint256",
          "name": "_tokenId",
          "type": "uint256"
        }
      ],
      "name": "approve",
      "outputs": [],
      "stateMutability": "nonpayable",
      "type": "function"
    },
    {
      "inputs": [
        {
          "internalType": "address",
          "name": "_operator",
          "type": "address"
        },
        {
          "internalType": "bool",
          "name": "_approved",
          "type": "bool"
        }
      ],
      "name": "setApprovalForAll",
      "outputs": [],
      "stateMutability": "nonpayable",
      "type": "function"
    },
    {
      "inputs": [
        {
          "internalType": "uint256",
          "name": "_tokenId",
          "type": "uint256"
        }
      ],
      "name": "getApproved",
      "outputs": [
        {
          "internalType": "address",
          "name": "",
          "type": "address"
        }
      ],
      "stateMutability": "view",
      "type": "function",
      "constant": true
    },
    {
      "inputs": [
        {
          "internalType": "address",
          "name": "_owner",
          "type": "address"
        },
        {
          "internalType": "address",
          "name": "_operator",
          "type": "address"
        }
      ],
      "name": "isApprovedForAll",
      "outputs": [
        {
          "internalType": "bool",
          "name": "",
          "type": "bool"
        }
      ],
      "stateMutability": "view",
      "type": "function",
      "constant": true
    },
    {
      "inputs": [
        {
          "internalType": "address",
          "name": "_from",
          "type": "address"
        },
        {
          "internalType": "address",
          "name": "_to",
          "type": "address"
        },
        {
          "internalType": "uint256",
          "name": "_tokenId",
          "type": "uint256"
        }
      ],
      "name": "safeTransferFrom",
      "outputs": [],
      "stateMutability": "nonpayable",
      "type": "function"
    },
    {
      "inputs": [
        {
          "internalType": "address",
          "name": "_from",
          "type": "address"
        },
        {
          "internalType": "address",
          "name": "_to",
          "type": "address"
        },
        {
          "internalType": "uint256",
          "name": "_tokenId",
          "type": "uint256"
        },
        {
          "internalType": "bytes",
          "name": "data",
          "type": "bytes"
        }
      ],
      "name": "safeTransferFrom",
      "outputs": [],
      "stateMutability": "nonpayable",
      "type": "function"
    },
    {
      "inputs": [
        {
          "internalType": "address",
          "name": "user",
          "type": "address"
        }
      ],
      "name": "getAllTokensForUser",
      "outputs": [
        {
          "internalType": "uint256[]",
          "name": "",
          "type": "uint256[]"
        }
      ],
      "stateMutability": "view",
      "type": "function",
      "constant": true
    },
    {
      "inputs": [
        {
          "internalType": "address",
          "name": "_owner",
          "type": "address"
        }
      ],
      "name": "tokensOfOwner",
      "outputs": [
        {
          "internalType": "uint256[]",
          "name": "ownerTokens",
          "type": "uint256[]"
        }
      ],
      "stateMutability": "view",
      "type": "function",
      "constant": true
    },
    {
      "inputs": [
        {
          "internalType": "address",
          "name": "_from",
          "type": "address"
        },
        {
          "internalType": "address",
          "name": "_to",
          "type": "address"
        },
        {
          "internalType": "uint256",
          "name": "_tokenId",
          "type": "uint256"
        }
      ],
      "name": "transferFrom",
      "outputs": [],
      "stateMutability": "nonpayable",
      "type": "function"
    },
    {
      "inputs": [
        {
          "internalType": "address",
          "name": "_claimant",
          "type": "address"
        },
        {
          "internalType": "uint256",
          "name": "tokenId",
          "type": "uint256"
        }
      ],
      "name": "_owns",
      "outputs": [
        {
          "internalType": "bool",
          "name": "",
          "type": "bool"
        }
      ],
      "stateMutability": "view",
      "type": "function",
      "constant": true
    }
  ],
  "bytecode": "0x608060405260006007553480156200001657600080fd5b50620000376200002b6200005660201b60201c565b6200005e60201b60201c565b6200004f60008060008060006200012260201b60201c565b5062000a77565b600033905090565b60008060009054906101000a900473ffffffffffffffffffffffffffffffffffffffff169050816000806101000a81548173ffffffffffffffffffffffffffffffffffffffff021916908373ffffffffffffffffffffffffffffffffffffffff1602179055508173ffffffffffffffffffffffffffffffffffffffff168173ffffffffffffffffffffffffffffffffffffffff167f8be0079c531659141344cd1fd0a4f28419497f9722a3daafe3b4186f6b6457e060405160405180910390a35050565b6000806040518060a001604052808581526020014267ffffffffffffffff1681526020018863ffffffff1681526020018763ffffffff1681526020018661ffff16815250905060088190806001815401808255809150506001900390600052602060002090600202016000909190919091506000820151816000015560208201518160010160006101000a81548167ffffffffffffffff021916908367ffffffffffffffff16021790555060408201518160010160086101000a81548163ffffffff021916908363ffffffff160217905550606082015181600101600c6101000a81548163ffffffff021916908363ffffffff16021790555060808201518160010160106101000a81548161ffff021916908361ffff160217905550505060006001600880549050620002569190620008fa565b90508063ffffffff168114620002a3576040517f08c379a00000000000000000000000000000000000000000000000000000000081526004016200029a906200086a565b60405180910390fd5b7f0a5311bd2a6608f08a180df2ee7c5946819a649b204b554bb8e39825b2c50ad58482846040015163ffffffff16856060015163ffffffff168660000151604051620002f49594939291906200080d565b60405180910390a162000310600085836200031e60201b60201c565b809250505095945050505050565b6001600260008473ffffffffffffffffffffffffffffffffffffffff1673ffffffffffffffffffffffffffffffffffffffff16815260200190815260200160002060008282546200037091906200089d565b92505081905550816001600083815260200190815260200160002060006101000a81548173ffffffffffffffffffffffffffffffffffffffff021916908373ffffffffffffffffffffffffffffffffffffffff160217905550600560008373ffffffffffffffffffffffffffffffffffffffff1673ffffffffffffffffffffffffffffffffffffffff168152602001908152602001600020819080600181540180825580915050600190039060005260206000200160009091909190915055600073ffffffffffffffffffffffffffffffffffffffff168373ffffffffffffffffffffffffffffffffffffffff161462000506576001600260008573ffffffffffffffffffffffffffffffffffffffff1673ffffffffffffffffffffffffffffffffffffffff1681526020019081526020016000206000828254620004b69190620008fa565b92505081905550620004cf83826200056660201b60201c565b6001600082815260200190815260200160002060006101000a81549073ffffffffffffffffffffffffffffffffffffffff02191690555b808273ffffffffffffffffffffffffffffffffffffffff163373ffffffffffffffffffffffffffffffffffffffff167fddf252ad1be2c89b69c2b068fc378daa952ba7f163c4a11628f55a4df523b3ef60405160405180910390a4505050565b6000600560008473ffffffffffffffffffffffffffffffffffffffff1673ffffffffffffffffffffffffffffffffffffffff1681526020019081526020016000206001600560008673ffffffffffffffffffffffffffffffffffffffff1673ffffffffffffffffffffffffffffffffffffffff16815260200190815260200160002080549050620005f89190620008fa565b815481106200060c576200060b62000a1f565b5b9060005260206000200154905060005b6001600560008673ffffffffffffffffffffffffffffffffffffffff1673ffffffffffffffffffffffffffffffffffffffff168152602001908152602001600020805490506200066d9190620008fa565b811015620007be5782600560008673ffffffffffffffffffffffffffffffffffffffff1673ffffffffffffffffffffffffffffffffffffffff1681526020019081526020016000208281548110620006ca57620006c962000a1f565b5b90600052602060002001541415620007a85781600560008673ffffffffffffffffffffffffffffffffffffffff1673ffffffffffffffffffffffffffffffffffffffff168152602001908152602001600020828154811062000731576200073062000a1f565b5b9060005260206000200181905550600560008573ffffffffffffffffffffffffffffffffffffffff1673ffffffffffffffffffffffffffffffffffffffff168152602001908152602001600020805480620007915762000790620009f0565b5b600190038181906000526020600020016000905590555b8080620007b59062000973565b9150506200061c565b50505050565b620007cf8162000935565b82525050565b6000620007e46012836200088c565b9150620007f18262000a4e565b602082019050919050565b620008078162000969565b82525050565b600060a082019050620008246000830188620007c4565b620008336020830187620007fc565b620008426040830186620007fc565b620008516060830185620007fc565b620008606080830184620007fc565b9695505050505050565b600060208201905081810360008301526200088581620007d5565b9050919050565b600082825260208201905092915050565b6000620008aa8262000969565b9150620008b78362000969565b9250827fffffffffffffffffffffffffffffffffffffffffffffffffffffffffffffffff03821115620008ef57620008ee620009c1565b5b828201905092915050565b6000620009078262000969565b9150620009148362000969565b9250828210156200092a5762000929620009c1565b5b828203905092915050565b6000620009428262000949565b9050919050565b600073ffffffffffffffffffffffffffffffffffffffff82169050919050565b6000819050919050565b6000620009808262000969565b91507fffffffffffffffffffffffffffffffffffffffffffffffffffffffffffffffff821415620009b657620009b5620009c1565b5b600182019050919050565b7f4e487b7100000000000000000000000000000000000000000000000000000000600052601160045260246000fd5b7f4e487b7100000000000000000000000000000000000000000000000000000000600052603160045260246000fd5b7f4e487b7100000000000000000000000000000000000000000000000000000000600052603260045260246000fd5b7f342042696c6c696f6e2063617473206d61780000000000000000000000000000600082015250565b6138038062000a876000396000f3fe608060405234801561001057600080fd5b50600436106101cf5760003560e01c80638462151c11610104578063b88d4fde116100a2578063e985e9c511610071578063e985e9c51461058c578063e98b7f4d146105bc578063ef5e94aa146105f0578063f2fde38b1461060e576101cf565b8063b88d4fde146104e0578063b921a400146104fc578063d5a776ca1461052c578063e21fd9fc1461055c576101cf565b8063a22cb465116100de578063a22cb4651461045a578063a45f4bfc14610476578063a9059cbb146104a6578063b4834330146104c2576101cf565b80638462151c146103ee5780638da5cb5b1461041e57806395d89b411461043c576101cf565b806342842e0e116101715780636352211e1161014b5780636352211e1461035457806370a0823114610384578063715018a6146103b457806382de8fe9146103be576101cf565b806342842e0e146102d8578063481af3d3146102f45780635a64aafa14610324576101cf565b8063095ea7b3116101ad578063095ea7b31461025257806318160ddd1461026e57806323b872dd1461028c578063338a63a4146102a8576101cf565b806301ffc9a7146101d457806306fdde0314610204578063081812fc14610222575b600080fd5b6101ee60048036038101906101e991906125b6565b61062a565b6040516101fb9190612bb4565b60405180910390f35b61020c6106ca565b6040516102199190612bcf565b60405180910390f35b61023c60048036038101906102379190612610565b610707565b6040516102499190612ad8565b60405180910390f35b61026c60048036038101906102679190612576565b61078b565b005b61027661083d565b6040516102839190612e71565b60405180910390f35b6102a660048036038101906102a1919061245b565b61084a565b005b6102c260048036038101906102bd919061267d565b6109b4565b6040516102cf9190612e71565b60405180910390f35b6102f260048036038101906102ed919061245b565b610ba1565b005b61030e60048036038101906103099190612610565b610bb1565b60405161031b9190612ad8565b60405180910390f35b61033e600480360381019061033991906123ee565b610be4565b60405161034b9190612b92565b60405180910390f35b61036e60048036038101906103699190612610565b610c7b565b60405161037b9190612ad8565b60405180910390f35b61039e600480360381019061039991906123ee565b610d2d565b6040516103ab9190612e71565b60405180910390f35b6103bc610d76565b005b6103d860048036038101906103d391906123ee565b610dfe565b6040516103e59190612b92565b60405180910390f35b610408600480360381019061040391906123ee565b610f58565b6040516104159190612b92565b60405180910390f35b6104266110e1565b6040516104339190612ad8565b60405180910390f35b61044461110a565b6040516104519190612bcf565b60405180910390f35b610474600480360381019061046f9190612536565b611147565b005b610490600480360381019061048b9190612610565b6112b3565b60405161049d9190612ad8565b60405180910390f35b6104c060048036038101906104bb9190612576565b6112e6565b005b6104ca6113e7565b6040516104d79190612e71565b60405180910390f35b6104fa60048036038101906104f591906124ae565b6113ec565b005b6105166004803603810190610511919061263d565b611590565b6040516105239190612e71565b60405180910390f35b61054660048036038101906105419190612610565b6116ea565b6040516105539190612e71565b60405180910390f35b61057660048036038101906105719190612576565b6117dc565b6040516105839190612bb4565b60405180910390f35b6105a660048036038101906105a1919061241b565b611848565b6040516105b39190612bb4565b60405180910390f35b6105d660048036038101906105d19190612610565b6118dc565b6040516105e7959493929190612e8c565b60405180910390f35b6105f86119f7565b6040516106059190612e71565b60405180910390f35b610628600480360381019061062391906123ee565b6119fd565b005b60006380ac58cd60e01b7bffffffffffffffffffffffffffffffffffffffffffffffffffffffff1916827bffffffffffffffffffffffffffffffffffffffffffffffffffffffff191614806106c357506301ffc9a760e01b7bffffffffffffffffffffffffffffffffffffffffffffffffffffffff1916827bffffffffffffffffffffffffffffffffffffffffffffffffffffffff1916145b9050919050565b60606040518060400160405280600e81526020017f4d792043727970746f2043617473000000000000000000000000000000000000815250905090565b60006008805490508210610750576040517f08c379a000000000000000000000000000000000000000000000000000000000815260040161074790612d11565b60405180910390fd5b6003600083815260200190815260200160002060009054906101000a900473ffffffffffffffffffffffffffffffffffffffff169050919050565b61079533826117dc565b6107d4576040517f08c379a00000000000000000000000000000000000000000000000000000000081526004016107cb90612df1565b60405180910390fd5b6107de8183611af5565b808273ffffffffffffffffffffffffffffffffffffffff163373ffffffffffffffffffffffffffffffffffffffff167f8c5be1e5ebec7d5bd14f71427d1e84f3dd0314c0f7b2291e5b200ac8c7c3b92560405160405180910390a45050565b6000600880549050905090565b600073ffffffffffffffffffffffffffffffffffffffff168273ffffffffffffffffffffffffffffffffffffffff1614156108ba576040517f08c379a00000000000000000000000000000000000000000000000000000000081526004016108b190612c51565b60405180910390fd5b6008805490508110610901576040517f08c379a00000000000000000000000000000000000000000000000000000000081526004016108f890612d11565b60405180910390fd5b61090b83826117dc565b61094a576040517f08c379a000000000000000000000000000000000000000000000000000000000815260040161094190612dd1565b60405180910390fd5b8273ffffffffffffffffffffffffffffffffffffffff163373ffffffffffffffffffffffffffffffffffffffff16148061098a57506109898333611848565b5b8061099b575061099a3382611b4b565b5b6109a457600080fd5b6109af838383611bb7565b505050565b6000806040518060a001604052808581526020014267ffffffffffffffff1681526020018863ffffffff1681526020018763ffffffff1681526020018661ffff16815250905060088190806001815401808255809150506001900390600052602060002090600202016000909190919091506000820151816000015560208201518160010160006101000a81548167ffffffffffffffff021916908367ffffffffffffffff16021790555060408201518160010160086101000a81548163ffffffff021916908363ffffffff160217905550606082015181600101600c6101000a81548163ffffffff021916908363ffffffff16021790555060808201518160010160106101000a81548161ffff021916908361ffff160217905550505060006001600880549050610ae69190613031565b90508063ffffffff168114610b30576040517f08c379a0000000000000000000000000000000000000000000000000000000008152600401610b2790612e11565b60405180910390fd5b7f0a5311bd2a6608f08a180df2ee7c5946819a649b204b554bb8e39825b2c50ad58482846040015163ffffffff16856060015163ffffffff168660000151604051610b7f959493929190612b3f565b60405180910390a1610b9360008583611bb7565b809250505095945050505050565b610bac838383610ba1565b505050565b60036020528060005260406000206000915054906101000a900473ffffffffffffffffffffffffffffffffffffffff1681565b6060600560008373ffffffffffffffffffffffffffffffffffffffff1673ffffffffffffffffffffffffffffffffffffffff168152602001908152602001600020805480602002602001604051908101604052809291908181526020018280548015610c6f57602002820191906000526020600020905b815481526020019060010190808311610c5b575b50505050509050919050565b6000806001600084815260200190815260200160002060009054906101000a900473ffffffffffffffffffffffffffffffffffffffff169050600073ffffffffffffffffffffffffffffffffffffffff168173ffffffffffffffffffffffffffffffffffffffff161415610d24576040517f08c379a0000000000000000000000000000000000000000000000000000000008152600401610d1b90612d31565b60405180910390fd5b80915050919050565b6000600260008373ffffffffffffffffffffffffffffffffffffffff1673ffffffffffffffffffffffffffffffffffffffff168152602001908152602001600020549050919050565b610d7e611df2565b73ffffffffffffffffffffffffffffffffffffffff16610d9c6110e1565b73ffffffffffffffffffffffffffffffffffffffff1614610df2576040517f08c379a0000000000000000000000000000000000000000000000000000000008152600401610de990612d51565b60405180910390fd5b610dfc6000611dfa565b565b60606000610e0b83610d2d565b90506000811415610e6857600067ffffffffffffffff811115610e3157610e30613242565b5b604051908082528060200260200182016040528015610e5f5781602001602082028036833780820191505090505b50915050610f53565b60008167ffffffffffffffff811115610e8457610e83613242565b5b604051908082528060200260200182016040528015610eb25781602001602082028036833780820191505090505b50905060006007549050600080600090505b82811015610f4a578673ffffffffffffffffffffffffffffffffffffffff16610eec82610c7b565b73ffffffffffffffffffffffffffffffffffffffff161415610f375780848381518110610f1c57610f1b613213565b5b6020026020010181815250508180610f339061310c565b9250505b8080610f429061310c565b915050610ec4565b83955050505050505b919050565b60606000610f6583610d2d565b90506000811415610fc257600067ffffffffffffffff811115610f8b57610f8a613242565b5b604051908082528060200260200182016040528015610fb95781602001602082028036833780820191505090505b509150506110dc565b60008167ffffffffffffffff811115610fde57610fdd613242565b5b60405190808252806020026020018201604052801561100c5781602001602082028036833780820191505090505b509050600061101961083d565b9050600080600190505b8281116110d3578673ffffffffffffffffffffffffffffffffffffffff166001600083815260200190815260200160002060009054906101000a900473ffffffffffffffffffffffffffffffffffffffff1673ffffffffffffffffffffffffffffffffffffffff1614156110c057808483815181106110a5576110a4613213565b5b60200260200101818152505081806110bc9061310c565b9250505b80806110cb9061310c565b915050611023565b83955050505050505b919050565b60008060009054906101000a900473ffffffffffffffffffffffffffffffffffffffff16905090565b60606040518060400160405280600481526020017f4d43524300000000000000000000000000000000000000000000000000000000815250905090565b3373ffffffffffffffffffffffffffffffffffffffff168273ffffffffffffffffffffffffffffffffffffffff1614156111b6576040517f08c379a00000000000000000000000000000000000000000000000000000000081526004016111ad90612e31565b60405180910390fd5b80600460003373ffffffffffffffffffffffffffffffffffffffff1673ffffffffffffffffffffffffffffffffffffffff16815260200190815260200160002060008473ffffffffffffffffffffffffffffffffffffffff1673ffffffffffffffffffffffffffffffffffffffff16815260200190815260200160002060006101000a81548160ff0219169083151502179055508173ffffffffffffffffffffffffffffffffffffffff163373ffffffffffffffffffffffffffffffffffffffff167f17307eab39ab6107e8899845ad3d59bd9653f200f220920489ca2b5937696c31836040516112a79190612bb4565b60405180910390a35050565b60016020528060005260406000206000915054906101000a900473ffffffffffffffffffffffffffffffffffffffff1681565b600073ffffffffffffffffffffffffffffffffffffffff168273ffffffffffffffffffffffffffffffffffffffff161415611356576040517f08c379a000000000000000000000000000000000000000000000000000000000815260040161134d90612c91565b60405180910390fd5b3073ffffffffffffffffffffffffffffffffffffffff168273ffffffffffffffffffffffffffffffffffffffff1614156113c5576040517f08c379a00000000000000000000000000000000000000000000000000000000081526004016113bc90612c31565b60405180910390fd5b6113cf33826117dc565b6113d857600080fd5b6113e3338383611bb7565b5050565b600a81565b600073ffffffffffffffffffffffffffffffffffffffff168473ffffffffffffffffffffffffffffffffffffffff16141561145c576040517f08c379a000000000000000000000000000000000000000000000000000000000815260040161145390612d91565b60405180910390fd5b60088054905083106114a3576040517f08c379a000000000000000000000000000000000000000000000000000000000815260040161149a90612cd1565b60405180910390fd5b6114ad85846117dc565b6114ec576040517f08c379a00000000000000000000000000000000000000000000000000000000081526004016114e390612cb1565b60405180910390fd5b8473ffffffffffffffffffffffffffffffffffffffff163373ffffffffffffffffffffffffffffffffffffffff16148061152c575061152b8585611848565b5b8061153d575061153c3384611b4b565b5b61157c576040517f08c379a000000000000000000000000000000000000000000000000000000000815260040161157390612d71565b60405180910390fd5b6115898585858585611ebe565b5050505050565b600061159c33846117dc565b80156115ae57506115ad33836117dc565b5b6115ed576040517f08c379a00000000000000000000000000000000000000000000000000000000081526004016115e490612cf1565b60405180910390fd5b82821415611630576040517f08c379a000000000000000000000000000000000000000000000000000000000815260040161162790612db1565b60405180910390fd5b60008061163c856118dc565b9450505050915060008061164f866118dc565b9450505050915060006116628584611f5f565b90506000828510156116915760018361167b9190612f50565b905060028161168a9190612fa6565b90506116cd565b828511156116bc576001856116a69190612f50565b90506002816116b59190612fa6565b90506116cc565b6001836116c99190612f50565b90505b5b6116da888a8385336109b4565b5080965050505050505092915050565b60006116f4611df2565b73ffffffffffffffffffffffffffffffffffffffff166117126110e1565b73ffffffffffffffffffffffffffffffffffffffff1614611768576040517f08c379a000000000000000000000000000000000000000000000000000000000815260040161175f90612d51565b60405180910390fd5b600a60065411156117ae576040517f08c379a00000000000000000000000000000000000000000000000000000000081526004016117a590612c71565b60405180910390fd5b600660008154809291906117c19061310c565b91905055506117d5600080600085336109b4565b9050919050565b60008273ffffffffffffffffffffffffffffffffffffffff166001600084815260200190815260200160002060009054906101000a900473ffffffffffffffffffffffffffffffffffffffff1673ffffffffffffffffffffffffffffffffffffffff1614905092915050565b6000600460008473ffffffffffffffffffffffffffffffffffffffff1673ffffffffffffffffffffffffffffffffffffffff16815260200190815260200160002060008373ffffffffffffffffffffffffffffffffffffffff1673ffffffffffffffffffffffffffffffffffffffff16815260200190815260200160002060009054906101000a900460ff16905092915050565b600080600080600080600887815481106118f9576118f8613213565b5b9060005260206000209060020201905060008160010160009054906101000a900467ffffffffffffffff1667ffffffffffffffff161161196e576040517f08c379a000000000000000000000000000000000000000000000000000000000815260040161196590612e51565b60405180910390fd5b8060010160009054906101000a900467ffffffffffffffff1667ffffffffffffffff1694508060010160089054906101000a900463ffffffff1663ffffffff16935080600101600c9054906101000a900463ffffffff1663ffffffff1692508060010160109054906101000a900461ffff1661ffff169150806000015495505091939590929450565b60065481565b611a05611df2565b73ffffffffffffffffffffffffffffffffffffffff16611a236110e1565b73ffffffffffffffffffffffffffffffffffffffff1614611a79576040517f08c379a0000000000000000000000000000000000000000000000000000000008152600401611a7090612d51565b60405180910390fd5b600073ffffffffffffffffffffffffffffffffffffffff168173ffffffffffffffffffffffffffffffffffffffff161415611ae9576040517f08c379a0000000000000000000000000000000000000000000000000000000008152600401611ae090612c11565b60405180910390fd5b611af281611dfa565b50565b806003600084815260200190815260200160002060006101000a81548173ffffffffffffffffffffffffffffffffffffffff021916908373ffffffffffffffffffffffffffffffffffffffff1602179055505050565b60008273ffffffffffffffffffffffffffffffffffffffff166003600084815260200190815260200160002060009054906101000a900473ffffffffffffffffffffffffffffffffffffffff1673ffffffffffffffffffffffffffffffffffffffff1614905092915050565b6001600260008473ffffffffffffffffffffffffffffffffffffffff1673ffffffffffffffffffffffffffffffffffffffff1681526020019081526020016000206000828254611c079190612f50565b92505081905550816001600083815260200190815260200160002060006101000a81548173ffffffffffffffffffffffffffffffffffffffff021916908373ffffffffffffffffffffffffffffffffffffffff160217905550600560008373ffffffffffffffffffffffffffffffffffffffff1673ffffffffffffffffffffffffffffffffffffffff168152602001908152602001600020819080600181540180825580915050600190039060005260206000200160009091909190915055600073ffffffffffffffffffffffffffffffffffffffff168373ffffffffffffffffffffffffffffffffffffffff1614611d92576001600260008573ffffffffffffffffffffffffffffffffffffffff1673ffffffffffffffffffffffffffffffffffffffff1681526020019081526020016000206000828254611d4a9190613031565b92505081905550611d5b8382611fb3565b6001600082815260200190815260200160002060006101000a81549073ffffffffffffffffffffffffffffffffffffffff02191690555b808273ffffffffffffffffffffffffffffffffffffffff163373ffffffffffffffffffffffffffffffffffffffff167fddf252ad1be2c89b69c2b068fc378daa952ba7f163c4a11628f55a4df523b3ef60405160405180910390a4505050565b600033905090565b60008060009054906101000a900473ffffffffffffffffffffffffffffffffffffffff169050816000806101000a81548173ffffffffffffffffffffffffffffffffffffffff021916908373ffffffffffffffffffffffffffffffffffffffff1602179055508173ffffffffffffffffffffffffffffffffffffffff168173ffffffffffffffffffffffffffffffffffffffff167f8be0079c531659141344cd1fd0a4f28419497f9722a3daafe3b4186f6b6457e060405160405180910390a35050565b611ec9858585611bb7565b611f1985858585858080601f016020809104026020016040519081016040528093929190818152602001838380828437600081840152601f19601f820116905080830192505050505050506121fc565b611f58576040517f08c379a0000000000000000000000000000000000000000000000000000000008152600401611f4f90612bf1565b60405180910390fd5b5050505050565b6000806305f5e10084611f729190612fa6565b905060006305f5e10084611f869190613155565b90506000816305f5e10084611f9b9190612fd7565b611fa59190612f50565b905080935050505092915050565b6000600560008473ffffffffffffffffffffffffffffffffffffffff1673ffffffffffffffffffffffffffffffffffffffff1681526020019081526020016000206001600560008673ffffffffffffffffffffffffffffffffffffffff1673ffffffffffffffffffffffffffffffffffffffff168152602001908152602001600020805490506120439190613031565b8154811061205457612053613213565b5b9060005260206000200154905060005b6001600560008673ffffffffffffffffffffffffffffffffffffffff1673ffffffffffffffffffffffffffffffffffffffff168152602001908152602001600020805490506120b39190613031565b8110156121f65782600560008673ffffffffffffffffffffffffffffffffffffffff1673ffffffffffffffffffffffffffffffffffffffff168152602001908152602001600020828154811061210c5761210b613213565b5b906000526020600020015414156121e35781600560008673ffffffffffffffffffffffffffffffffffffffff1673ffffffffffffffffffffffffffffffffffffffff168152602001908152602001600020828154811061216f5761216e613213565b5b9060005260206000200181905550600560008573ffffffffffffffffffffffffffffffffffffffff1673ffffffffffffffffffffffffffffffffffffffff1681526020019081526020016000208054806121cc576121cb6131e4565b5b600190038181906000526020600020016000905590555b80806121ee9061310c565b915050612064565b50505050565b600061220784612316565b612214576001905061230e565b60008473ffffffffffffffffffffffffffffffffffffffff1663150b7a02338887876040518563ffffffff1660e01b81526004016122559493929190612af3565b602060405180830381600087803b15801561226f57600080fd5b505af1158015612283573d6000803e3d6000fd5b505050506040513d601f19601f820116820180604052508101906122a791906125e3565b90507f150b7a023d4804d13e8c85fb27262cb750cf6ba9f9dd3bb30d90f482ceeb4b1f7bffffffffffffffffffffffffffffffffffffffffffffffffffffffff1916817bffffffffffffffffffffffffffffffffffffffffffffffffffffffff1916149150505b949350505050565b600080823b905060008163ffffffff1611915050919050565b60008135905061233e81613771565b92915050565b60008135905061235381613788565b92915050565b6000813590506123688161379f565b92915050565b60008151905061237d8161379f565b92915050565b60008083601f84011261239957612398613276565b5b8235905067ffffffffffffffff8111156123b6576123b5613271565b5b6020830191508360018202830111156123d2576123d161327b565b5b9250929050565b6000813590506123e8816137b6565b92915050565b60006020828403121561240457612403613285565b5b60006124128482850161232f565b91505092915050565b6000806040838503121561243257612431613285565b5b60006124408582860161232f565b92505060206124518582860161232f565b9150509250929050565b60008060006060848603121561247457612473613285565b5b60006124828682870161232f565b93505060206124938682870161232f565b92505060406124a4868287016123d9565b9150509250925092565b6000806000806000608086880312156124ca576124c9613285565b5b60006124d88882890161232f565b95505060206124e98882890161232f565b94505060406124fa888289016123d9565b935050606086013567ffffffffffffffff81111561251b5761251a613280565b5b61252788828901612383565b92509250509295509295909350565b6000806040838503121561254d5761254c613285565b5b600061255b8582860161232f565b925050602061256c85828601612344565b9150509250929050565b6000806040838503121561258d5761258c613285565b5b600061259b8582860161232f565b92505060206125ac858286016123d9565b9150509250929050565b6000602082840312156125cc576125cb613285565b5b60006125da84828501612359565b91505092915050565b6000602082840312156125f9576125f8613285565b5b60006126078482850161236e565b91505092915050565b60006020828403121561262657612625613285565b5b6000612634848285016123d9565b91505092915050565b6000806040838503121561265457612653613285565b5b6000612662858286016123d9565b9250506020612673858286016123d9565b9150509250929050565b600080600080600060a0868803121561269957612698613285565b5b60006126a7888289016123d9565b95505060206126b8888289016123d9565b94505060406126c9888289016123d9565b93505060606126da888289016123d9565b92505060806126eb8882890161232f565b9150509295509295909350565b60006127048383612aba565b60208301905092915050565b61271981613065565b82525050565b600061272a82612eef565b6127348185612f1d565b935061273f83612edf565b8060005b8381101561277057815161275788826126f8565b975061276283612f10565b925050600181019050612743565b5085935050505092915050565b61278681613077565b82525050565b600061279782612efa565b6127a18185612f2e565b93506127b18185602086016130d9565b6127ba8161328a565b840191505092915050565b60006127d082612f05565b6127da8185612f3f565b93506127ea8185602086016130d9565b6127f38161328a565b840191505092915050565b600061280b602183612f3f565b91506128168261329b565b604082019050919050565b600061282e602683612f3f565b9150612839826132ea565b604082019050919050565b6000612851601c83612f3f565b915061285c82613339565b602082019050919050565b6000612874602083612f3f565b915061287f82613362565b602082019050919050565b6000612897602e83612f3f565b91506128a28261338b565b604082019050919050565b60006128ba602483612f3f565b91506128c5826133da565b604082019050919050565b60006128dd602583612f3f565b91506128e882613429565b604082019050919050565b6000612900601483612f3f565b915061290b82613478565b602082019050919050565b6000612923602a83612f3f565b915061292e826134a1565b604082019050919050565b6000612946601083612f3f565b9150612951826134f0565b602082019050919050565b6000612969602983612f3f565b915061297482613519565b604082019050919050565b600061298c602083612f3f565b915061299782613568565b602082019050919050565b60006129af606683612f3f565b91506129ba82613591565b608082019050919050565b60006129d2601d83612f3f565b91506129dd8261362c565b602082019050919050565b60006129f5601f83612f3f565b9150612a0082613655565b602082019050919050565b6000612a18601383612f3f565b9150612a238261367e565b602082019050919050565b6000612a3b601683612f3f565b9150612a46826136a7565b602082019050919050565b6000612a5e601283612f3f565b9150612a69826136d0565b602082019050919050565b6000612a81603083612f3f565b9150612a8c826136f9565b604082019050919050565b6000612aa4601783612f3f565b9150612aaf82613748565b602082019050919050565b612ac3816130cf565b82525050565b612ad2816130cf565b82525050565b6000602082019050612aed6000830184612710565b92915050565b6000608082019050612b086000830187612710565b612b156020830186612710565b612b226040830185612ac9565b8181036060830152612b34818461278c565b905095945050505050565b600060a082019050612b546000830188612710565b612b616020830187612ac9565b612b6e6040830186612ac9565b612b7b6060830185612ac9565b612b886080830184612ac9565b9695505050505050565b60006020820190508181036000830152612bac818461271f565b905092915050565b6000602082019050612bc9600083018461277d565b92915050565b60006020820190508181036000830152612be981846127c5565b905092915050565b60006020820190508181036000830152612c0a816127fe565b9050919050565b60006020820190508181036000830152612c2a81612821565b9050919050565b60006020820190508181036000830152612c4a81612844565b9050919050565b60006020820190508181036000830152612c6a81612867565b9050919050565b60006020820190508181036000830152612c8a8161288a565b9050919050565b60006020820190508181036000830152612caa816128ad565b9050919050565b60006020820190508181036000830152612cca816128d0565b9050919050565b60006020820190508181036000830152612cea816128f3565b9050919050565b60006020820190508181036000830152612d0a81612916565b9050919050565b60006020820190508181036000830152612d2a81612939565b9050919050565b60006020820190508181036000830152612d4a8161295c565b9050919050565b60006020820190508181036000830152612d6a8161297f565b9050919050565b60006020820190508181036000830152612d8a816129a2565b9050919050565b60006020820190508181036000830152612daa816129c5565b9050919050565b60006020820190508181036000830152612dca816129e8565b9050919050565b60006020820190508181036000830152612dea81612a0b565b9050919050565b60006020820190508181036000830152612e0a81612a2e565b9050919050565b60006020820190508181036000830152612e2a81612a51565b9050919050565b60006020820190508181036000830152612e4a81612a74565b9050919050565b60006020820190508181036000830152612e6a81612a97565b9050919050565b6000602082019050612e866000830184612ac9565b92915050565b600060a082019050612ea16000830188612ac9565b612eae6020830187612ac9565b612ebb6040830186612ac9565b612ec86060830185612ac9565b612ed56080830184612ac9565b9695505050505050565b6000819050602082019050919050565b600081519050919050565b600081519050919050565b600081519050919050565b6000602082019050919050565b600082825260208201905092915050565b600082825260208201905092915050565b600082825260208201905092915050565b6000612f5b826130cf565b9150612f66836130cf565b9250827fffffffffffffffffffffffffffffffffffffffffffffffffffffffffffffffff03821115612f9b57612f9a613186565b5b828201905092915050565b6000612fb1826130cf565b9150612fbc836130cf565b925082612fcc57612fcb6131b5565b5b828204905092915050565b6000612fe2826130cf565b9150612fed836130cf565b9250817fffffffffffffffffffffffffffffffffffffffffffffffffffffffffffffffff048311821515161561302657613025613186565b5b828202905092915050565b600061303c826130cf565b9150613047836130cf565b92508282101561305a57613059613186565b5b828203905092915050565b6000613070826130af565b9050919050565b60008115159050919050565b60007fffffffff0000000000000000000000000000000000000000000000000000000082169050919050565b600073ffffffffffffffffffffffffffffffffffffffff82169050919050565b6000819050919050565b60005b838110156130f75780820151818401526020810190506130dc565b83811115613106576000848401525b50505050565b6000613117826130cf565b91507fffffffffffffffffffffffffffffffffffffffffffffffffffffffffffffffff82141561314a57613149613186565b5b600182019050919050565b6000613160826130cf565b915061316b836130cf565b92508261317b5761317a6131b5565b5b828206905092915050565b7f4e487b7100000000000000000000000000000000000000000000000000000000600052601160045260246000fd5b7f4e487b7100000000000000000000000000000000000000000000000000000000600052601260045260246000fd5b7f4e487b7100000000000000000000000000000000000000000000000000000000600052603160045260246000fd5b7f4e487b7100000000000000000000000000000000000000000000000000000000600052603260045260246000fd5b7f4e487b7100000000000000000000000000000000000000000000000000000000600052604160045260246000fd5b600080fd5b600080fd5b600080fd5b600080fd5b600080fd5b6000601f19601f8301169050919050565b7f5f736166655472616e7366657220636865636b20737570706f7274206572726f60008201527f7200000000000000000000000000000000000000000000000000000000000000602082015250565b7f4f776e61626c653a206e6577206f776e657220697320746865207a65726f206160008201527f6464726573730000000000000000000000000000000000000000000000000000602082015250565b7f7472616e7366657220746f20746865207a65726f206164647265737300000000600082015250565b7f546f2061646472657373206973206e6f742061207a65726f2061646472657373600082015250565b7f47656e20302073686f756c64206265206c657373207468616e2063726561746960008201527f6f6e206c696d69742067656e2030000000000000000000000000000000000000602082015250565b7f4552433732313a207472616e7366657220746f20746865207a65726f2061646460008201527f7265737300000000000000000000000000000000000000000000000000000000602082015250565b7f4e6f7420612076616c6964204e46542c206e6f7420746865206f776e6572206f60008201527f66204e4654000000000000000000000000000000000000000000000000000000602082015250565b7f546f6b656e20646f6573206e6f74206578697374000000000000000000000000600082015250565b7f596f75206d75737420626520746865206f776e6572206f6620626f7468206f6660008201527f20796f7572206361747300000000000000000000000000000000000000000000602082015250565b7f546f6b656e206d75737420657869737400000000000000000000000000000000600082015250565b7f4552433732313a206f776e657220717565727920666f72206e6f6e657869737460008201527f656e7420746f6b656e0000000000000000000000000000000000000000000000602082015250565b7f4f776e61626c653a2063616c6c6572206973206e6f7420746865206f776e6572600082015250565b7f5370656e646572206973206e6f742066726f6d20444558206f72207370656e6460008201527f6572206973206e6f7420617070726f766564206f7220746f6b656e4964206f7260208201527f207370656e646572206973206e6f7420746865206f70657261746f7220666f7260408201527f205f66726f6d0000000000000000000000000000000000000000000000000000606082015250565b7f4d757374207472616e7366657220746f207a65726f2061646472657373000000600082015250565b7f546865206361742063616e277420726570726f647563652068696d73656c6600600082015250565b7f46726f6d206f776e732074686520746f6b656e00000000000000000000000000600082015250565b7f4e6f742063757272656e74204e4654206f776e64657200000000000000000000600082015250565b7f342042696c6c696f6e2063617473206d61780000000000000000000000000000600082015250565b7f4552433732313a20617070726f766520746f2063616c6c65722c20796f75206160008201527f7265206e6f7420746865206f776e657200000000000000000000000000000000602082015250565b7f746865206b6974747920646f65736e2774206578697374000000000000000000600082015250565b61377a81613065565b811461378557600080fd5b50565b61379181613077565b811461379c57600080fd5b50565b6137a881613083565b81146137b357600080fd5b50565b6137bf816130cf565b81146137ca57600080fd5b5056fea26469706673582212200a5db66196d81b0aa66c22fe53ddfa62e27ffe9614d3061f62307997134dc0e564736f6c63430008070033",
  "immutableReferences": {},
  "source": "// SPDX-License-Identifier: MIT\r\npragma solidity ^0.8.0;\r\n\r\n//import \"./IERC721.sol\";\r\nimport \"@openzeppelin/contracts/access/Ownable.sol\";\r\nimport \"@openzeppelin/contracts/token/ERC721/IERC721Receiver.sol\";\r\n//import \"./KittyMarketPlace.sol\";\r\n\r\n\r\ncontract myKittiesContract is Ownable {\r\n\r\n  // Mapping from token ID to owner address\r\n  mapping(uint256 => address) public kittyIndexToOwner; //owners Of TokenId\r\n\r\n  // Mapping owner address to token count\r\n  mapping(address => uint256) ownershipTokenCount;\r\n\r\n  // Mapping from token ID to approved address\r\n  mapping(uint256 => address) public kittyIndexToApproved;\r\n\r\n  // MYADDR => OPERATOR => TRUE/FALSE\r\n  // _operatorApprovals[MYADDR][OPERATORADDR] = true or false;\r\n  // _operatorApprovals[MYADDR][BOBS_ADDR] = true;\r\n  // _operatorApprovals[MYADDR][ALICE_ADDR] = false;\r\n  // _operatorApprovals[MYADDR][LISA_ADDR] = true;\r\n\r\n  // Mapping from owner to operator approvals\r\n  mapping(address => mapping(address => bool)) private _operatorApprovals;\r\n\r\n  //an address to a number of cats in an array\r\n  mapping(address => uint256[]) ownerToCats;\r\n\r\n  bytes4 private constant _INTERFACE_TO_ERC721 = 0x80ac58cd;\r\n  bytes4 private constant _INTERFACE_TO_ERC165 = 0x01ffc9a7;\r\n\r\n  event Transfer(address indexed from, address indexed to, uint256 indexed tokenId);\r\n  event ApprovalForAll(address indexed owner, address indexed operator, bool approved);\r\n  event Approval(address indexed owner, address indexed approved, uint256 indexed tokenId);\r\n  event Birth(address owner, uint256 newKittenId, uint256 mumId, uint256 dadId, uint256 genes);\r\n\r\n  string constant _name = \"My Crypto Cats\";\r\n  string constant _symbol = \"MCRC\";\r\n  uint256 public constant CREATION_LIMIT_GEN0 = 10;\r\n  uint256 public gen0Counter;\r\n  uint256 nextId = 0;\r\n\r\n  // 11 22 33 44 | 44 33 22 1 1\r\n\r\n  // this cat will just take up space, cannot be transacted in any way\r\n  // prevents buyKitty function require statement resulting to an empty array; being true\r\n  constructor() {\r\n    // We are creating the first kitty at index 0 since an empty array, does take up space such as integer[0]\r\n    _createKitty(0, 0, 0, uint256(0), address(0)); // Filip uint256(-1) but it fails\r\n    // mumId is 0, dadId is 0, generation is 0, genes should be -1 but it errored, address 0 is owner but it's burned\r\n  }\r\n\r\n  function Breeding(uint256 _dadId, uint256 _mumId) public returns (uint256) {\r\n    //Check ownership\r\n    //Use new DNA\r\n    //Figure out the Generation\r\n    //Create new cat with new properties, give it to msg.sender\r\n    require(_owns(msg.sender, _dadId) && _owns(msg.sender, _mumId), \"You must be the owner of both of your cats\");\r\n    require(_mumId != _dadId, \"The cat can't reproduce himself\");\r\n\r\n    // reduce memory so use commas\r\n    // getKitty = genes, birthTime, mumId, dadId, generation\r\n    ( uint256 dadDna, , , ,uint256 DadGeneration ) = getKitty(_dadId);\r\n\r\n    ( uint256 mumDna, , , ,uint256 MumGeneration ) = getKitty(_mumId);\r\n\r\n    uint256 newDna = _mixDna(dadDna, mumDna);\r\n\r\n    uint kidGen = 0;\r\n\r\n    if (DadGeneration < MumGeneration ) {\r\n        kidGen = MumGeneration + 1;\r\n        kidGen /= 2;\r\n    }\r\n    else if (DadGeneration > MumGeneration ) {\r\n        kidGen = DadGeneration + 1;\r\n        kidGen /= 2;\r\n    } else { // if both generations are the same, we add plus one\r\n      kidGen = MumGeneration + 1;\r\n\r\n    }\r\n  \r\n    _createKitty(_mumId, _dadId, kidGen, newDna, msg.sender);\r\n\r\n    return kidGen;\r\n \r\n   \r\n  }\r\n\r\n\r\n  function supportsInterface(bytes4 _interfaceId) external pure returns (bool) {\r\n    return(_interfaceId == _INTERFACE_TO_ERC721 || _interfaceId == _INTERFACE_TO_ERC165);\r\n  }\r\n\r\n\r\n  bytes4 internal constant MAGIC_ERC721_RECEIVED = bytes4(keccak256(\"onERC721Received(address,address,uint256,bytes)\"));\r\n\r\n  struct Kitty {\r\n\r\n      uint256 genes;\r\n      uint64 birthTime;\r\n      uint32 mumId;\r\n      uint32 dadId;\r\n      uint16 generation;\r\n  }\r\n\r\n\r\n  Kitty[] kitties;\r\n\r\n\r\n  function createKittyGen0(uint256 _genes) public onlyOwner returns(uint256) {\r\n    require(gen0Counter <= CREATION_LIMIT_GEN0, \"Gen 0 should be less than creation limit gen 0\");\r\n    \r\n    gen0Counter ++;\r\n\r\n    // mum, dad and generation is 0\r\n    // Gen0 have no owners; they are owned by the contract\r\n    \r\n    return _createKitty(0,0,0, _genes, msg.sender); // msg.sender could also be -- address(this) - we are giving cats to owner\r\n\r\n    // Gen0 have no owners they are own by the contract\r\n    //uint256 tokenId = _createKitty(0, 0, 0, _genes, msg.sender);\r\n    //setOffer(0.2 ether, tokenId);\r\n  }\r\n\r\n\r\n  // create cats by generation and by breeding\r\n  // returns cat id\r\n  function _createKitty(\r\n    uint256 _mumId,\r\n    uint256 _dadId,\r\n    uint256 _generation, //1,2,3..etc\r\n    uint256 _genes, // recipient\r\n    address owner\r\n  ) public returns(uint256) {\r\n    Kitty memory _kitty = Kitty ({\r\n      genes: _genes,\r\n      birthTime: uint64(block.timestamp),\r\n      mumId: uint32(_mumId),\r\n      dadId: uint32(_dadId),\r\n      generation: uint16(_generation)\r\n    });\r\n\r\n    kitties.push(_kitty); // returns the size of array - 1 for the first cat (old)\r\n\r\n    uint256 newKittenId = kitties.length -1; // 0-1\r\n\r\n\r\n    // It's probably never going to happen, 4 billion cats is A LOT, but\r\n    // let's just be 100% sure we never let this happen.\r\n    require(newKittenId == uint256(uint32(newKittenId)), \"4 Billion cats max\");\r\n\r\n    emit Birth(owner, newKittenId, uint256(_kitty.mumId), uint256(_kitty.dadId), _kitty.genes);\r\n\r\n\r\n    // This will assign ownership, and also emit the Transfer event as\r\n    // per ERC721 draft\r\n    _transfer(address(0), owner, newKittenId);\r\n\r\n    return newKittenId; //returns 256 bit integer\r\n\r\n  }\r\n\r\n\r\n/*\r\n  function myGetKitty(uint256 tokenId) public view returns (\r\n    uint256 birthTime, // re-order like Filips if I want to use it\r\n    uint256 mumId,\r\n    uint256 dadId,\r\n    uint256 generation,\r\n    uint256 genes\r\n  ) {\r\n\r\n    Kitty storage returnKitty = kitties[tokenId];\r\n    return (uint256(returnKitty.birthTime), uint256(returnKitty.mumId), uint256(returnKitty.dadId), uint256(returnKitty.generation), uint256(returnKitty.genes));\r\n  }\r\n*/\r\n\r\n  function getKitty(uint256 _id)\r\n    public\r\n    view\r\n    returns (\r\n    uint256 genes,\r\n    uint256 birthTime,\r\n    uint256 mumId,\r\n    uint256 dadId,\r\n    uint256 generation\r\n  ) {\r\n    Kitty storage kitty = kitties[_id];\r\n\r\n    require(kitty.birthTime > 0, \"the kitty doesn't exist\");\r\n\r\n    birthTime = uint256(kitty.birthTime);\r\n    mumId = uint256(kitty.mumId);\r\n    dadId = uint256(kitty.dadId);\r\n    generation = uint256(kitty.generation);\r\n    genes = kitty.genes;\r\n  }\r\n\r\n\r\n  function getAllCatsFor(address owner) public view returns (uint[] memory) {\r\n    return ownerToCats[owner];\r\n  }\r\n  \r\n\r\n  function balanceOf(address owner) public view returns (uint256 balance) {\r\n    return ownershipTokenCount[owner];\r\n  }\r\n\r\n\r\n  function totalSupply() public view returns (uint256 total) {\r\n    return kitties.length;\r\n  }\r\n\r\n\r\n  function name() external pure returns (string memory tokenName) {\r\n    return _name;\r\n  }\r\n\r\n\r\n  function symbol() external pure returns (string memory tokenSymbol) {\r\n    return _symbol;\r\n  }\r\n\r\n  // private functions are cheaper but public allows to execute function from within this contract\r\n  function ownerOf(uint256 tokenId) public view returns (address owner) {\r\n    address _owner = kittyIndexToOwner[tokenId]; // local variable \r\n    require(_owner != address(0), \"ERC721: owner query for nonexistent token\");\r\n\r\n    return _owner;\r\n  }\r\n\r\n\r\n  // this transfer function is not used -- the mint function might be better suited for minting NFTs\r\n  function transfer(address to, uint256 tokenId) external {\r\n    require(to != address(0), \"ERC721: transfer to the zero address\");\r\n    require(to != address(this), \"transfer to the zero address\");\r\n    // `tokenId` token must be owned by `msg.sender`.\r\n    require(_owns(msg.sender, tokenId));\r\n\r\n    _transfer(msg.sender, to, tokenId);\r\n\r\n  }\r\n\r\n\r\n  function approve(address _approved, uint256 _tokenId) public {\r\n    ///  Throws unless `msg.sender` is the current NFT owner, or an authorized\r\n    ///  operator of the current owner.\r\n    require(_owns(msg.sender, _tokenId), \"Not current NFT ownder\");\r\n\r\n    _approve(_tokenId, _approved);\r\n    emit Approval(msg.sender, _approved, _tokenId);\r\n\r\n  }\r\n\r\n  //owner / true\r\n  function setApprovalForAll(address _operator, bool _approved) public {\r\n    require(_operator != msg.sender, \"ERC721: approve to caller, you are not the owner\");\r\n\r\n    _operatorApprovals[msg.sender][_operator] = _approved; \r\n    emit ApprovalForAll(msg.sender, _operator, _approved);\r\n\r\n  }\r\n\r\n\r\n  function getApproved(uint256 _tokenId) public view returns (address) {\r\n    require(_tokenId < kitties.length, \"Token must exist\"); // getter function\r\n\r\n    return kittyIndexToApproved[_tokenId];\r\n  }\r\n\r\n  // owner / marketplace\r\n  function isApprovedForAll(address _owner, address _operator) public view returns (bool) {\r\n    return _operatorApprovals[_owner][_operator];\r\n  }\r\n\r\n\r\n  function safeTransferFrom(address _from, address _to, uint256 _tokenId) public {\r\n    safeTransferFrom(_from, _to, _tokenId);\r\n  }\r\n\r\n\r\n  function safeTransferFrom(address _from, address _to, uint256 _tokenId, bytes calldata data) external {\r\n    require(_to != address(0), \"Must transfer to zero address\");\r\n    require(_tokenId < kitties.length, \"Token does not exist\");\r\n    require(_owns(_from, _tokenId), \"Not a valid NFT, not the owner of NFT\");\r\n\r\n     //spender is _from (DEX) or spender is approved for tokenId or spender is operator for _from\r\n    require(msg.sender == _from || isApprovedForAll(_from, _to) || _approvedFor(msg.sender, _tokenId), \"Spender is not from DEX or spender is not approved or tokenId or spender is not the operator for _from\");\r\n\r\n    _safeTransfer(_from, _to, _tokenId, data);\r\n\r\n  }\r\n\r\n\r\n  function getAllTokensForUser(address user) public view returns(uint256[] memory) {\r\n    uint256 tokenCount = balanceOf(user);\r\n    if(tokenCount == 0) {\r\n      return new uint256[](0);\r\n    } else {\r\n      //how many tokens in total?\r\n      uint256[] memory result = new uint256[](tokenCount);\r\n      uint256 totalCats = nextId;\r\n      uint256 resultIndex;\r\n      uint256 i;\r\n      for(i = 0; i < totalCats; i++) {\r\n        //check\r\n        if(ownerOf(i) == user) {\r\n          result[resultIndex] = i;\r\n          resultIndex++;\r\n        }\r\n      }\r\n      return result;\r\n    }  \r\n  }\r\n  \r\n\r\n  function tokensOfOwner(address _owner) public view returns(uint256[] memory ownerTokens) {\r\n    uint256 tokenCount = balanceOf(_owner);\r\n\r\n    if (tokenCount == 0) {\r\n      return new uint256[](0);\r\n    } else {\r\n      uint256[] memory result = new uint256[](tokenCount);\r\n      uint256 totalCats = totalSupply();\r\n      uint256 resultIndex = 0;\r\n\r\n      uint256 catId;\r\n\r\n      for (catId = 1; catId <= totalCats; catId++) {\r\n        if (kittyIndexToOwner[catId] == _owner) {\r\n          result[resultIndex] = catId;\r\n          resultIndex++;\r\n        }\r\n      }\r\n\r\n      return result;\r\n    }   \r\n  }\r\n\r\n\r\n  //Smart Contract Programmer(youTuber) ...\r\n  //transferFrom - how it is used:\r\n  //trader calls approve(dexAddress, amount)\r\n  //dex calls transferFrom(traderAddress, dexAddress, amount)\r\n\r\n  function transferFrom(address _from, address _to, uint256 _tokenId) public {\r\n    /// Throws if `_to` is the zero address. \r\n    /// Throws if `_tokenId` is not a valid NFT.\r\n\r\n    /// @dev Throws unless `msg.sender` is the current owner, an authorized\r\n    ///  operator, or the approved address for this NFT.\r\n     \r\n    require(_to != address(0), \"To address is not a zero address\");\r\n    require(_tokenId < kitties.length, \"Token must exist\");\r\n    require(_owns(_from, _tokenId), \"From owns the token\");\r\n    require(msg.sender == _from || isApprovedForAll(_from, msg.sender) || _approvedFor(msg.sender, _tokenId));\r\n\r\n    _transfer(_from, _to, _tokenId);\r\n  }\r\n\r\n\r\n  // must transfer from address 0\r\n  function _transfer(address from, address to, uint256 tokenId) internal {\r\n    //_approve(address(0), tokenId);\r\n\r\n    ownershipTokenCount[to] += 1; // increase count of recipient\r\n\r\n    kittyIndexToOwner[tokenId] = to;\r\n\r\n     // SEMD tokenId # => an address to a number of cats in an array\r\n     ownerToCats[to].push(tokenId);\r\n\r\n     // decrease token count from person A to person B\r\n     if (from != address(0)) { // if from is not address(0), is okay to remove token\r\n       ownershipTokenCount[from] -= 1;\r\n       _removeTokenIdFromOwner(from, tokenId);\r\n       delete kittyIndexToOwner[tokenId];\r\n     }\r\n\r\n     emit Transfer(msg.sender, to, tokenId);\r\n\r\n  }\r\n\r\n\r\n  function _safeTransfer(address _from, address _to, uint256 _tokenId, bytes calldata _data) internal {\r\n    _transfer(_from, _to, _tokenId);\r\n    require(_checkERC721Support(_from, _to, _tokenId, _data), \"_safeTransfer check support error\");\r\n  }\r\n\r\n\r\n  function  _removeTokenIdFromOwner(address owner, uint256 tokenId) internal {\r\n    uint256 lastId = ownerToCats[owner][ownerToCats[owner].length -1];\r\n    for (uint256 i = 0; i < ownerToCats[owner].length -1; i++) {\r\n      if (ownerToCats[owner][i] == tokenId) {\r\n        ownerToCats[owner][i] = lastId;\r\n        ownerToCats[owner].pop();\r\n      }\r\n    }\r\n  }\r\n\r\n\r\n  function _owns(address _claimant, uint256 tokenId ) public view returns(bool) {\r\n    return kittyIndexToOwner[tokenId] == _claimant;\r\n  }\r\n\r\n\r\n  function _deleteApproval(uint256 _tokenId) internal {\r\n      require(_owns(msg.sender, _tokenId), \"_deleteApproval error\");\r\n      delete kittyIndexToApproved[_tokenId];\r\n  }\r\n\r\n\r\n   function _approve(uint256 _tokenId, address _approved) internal {\r\n    kittyIndexToApproved[_tokenId] = _approved;\r\n  }\r\n\r\n\r\n  function _approvedFor(address _claimant, uint256 tokenId) internal view returns(bool) {\r\n    return kittyIndexToApproved[tokenId] == _claimant;\r\n  }\r\n\r\n\r\n  function _checkERC721Support(address _from, address _to, uint256 _tokenId, bytes memory _data) internal returns (bool) {\r\n    if(!isContract(_to)) { //checks if `_to` is a smart contract (code size > 0)\r\n      return true;\r\n    }\r\n    //example: Contract(_to)....\r\n    //If there is an operator, where _from is not equal to msg.sender, we use msg.sender.\r\n    bytes4 returnData = IERC721Receiver(_to).onERC721Received(msg.sender, _from, _tokenId, _data);\r\n    return returnData == MAGIC_ERC721_RECEIVED;\r\n    //Call onERC721Received in the _to contract\r\n    //Check return value\r\n  } \r\n\r\n\r\n  function isContract(address _to) internal view returns(bool) {\r\n    //It is a smart contract (code size > 0)\r\n    //If it is a wallet, code size = 0\r\n    uint32 size;\r\n    assembly{\r\n      size := extcodesize(_to)\r\n    }\r\n    return size > 0;\r\n  }\r\n\r\n\r\n  function _mixDna(uint256 _dadDna, uint256 _mumDna) internal pure returns (uint256) {\r\n    // dadDna: 11 22 33 44 55 66 77 88\r\n    // mumDna: 88 77 66 55 44 33 22 11\r\n\r\n    //10 * 100 = 1000\r\n    //10 + 20 = 1020\r\n\r\n    uint256 DadGenes = _dadDna / 100000000; // 11 22 33 44\r\n    uint256 MumGenes = _mumDna % 100000000; // 44 33 22 11 \r\n    // 11 22 33 44 x 100000000 + 44 33 22 11 = 11 22 33 44 44 33 22 11\r\n\r\n    uint256 newDna = ((DadGenes * 100000000) + MumGenes);\r\n    return newDna;\r\n    \r\n  }\r\n\r\n  \r\n}\r\n\r\n",
  "sourcePath": "C:\\Users\\benX\\Documents\\ethereum_course_advanced\\myCryptoKitties_master\\contracts\\kittiesContract.sol",
  "compiler": {
    "name": "solc",
    "version": "0.8.7+commit.e28d00a7.Emscripten.clang"
  },
  "schemaVersion": "3.4.3",
  "updatedAt": "2021-09-10T20:05:52.937Z",
  "networkType": "ethereum",
  "devdoc": {
    "kind": "dev",
    "methods": {
      "owner()": {
        "details": "Returns the address of the current owner."
      },
      "renounceOwnership()": {
        "details": "Leaves the contract without owner. It will not be possible to call `onlyOwner` functions anymore. Can only be called by the current owner. NOTE: Renouncing ownership will leave the contract without an owner, thereby removing any functionality that is only available to the owner."
      },
      "transferOwnership(address)": {
        "details": "Transfers ownership of the contract to a new account (`newOwner`). Can only be called by the current owner."
      }
    },
    "version": 1
  },
  "userdoc": {
    "kind": "user",
    "methods": {},
    "version": 1
  }
}