{
  "contractName": "myKittiesContract",
  "abi": [
    {
      "inputs": [],
      "stateMutability": "nonpayable",
      "type": "constructor"
    },
    {
      "anonymous": false,
      "inputs": [
        {
          "indexed": true,
          "internalType": "address",
          "name": "owner",
          "type": "address"
        },
        {
          "indexed": true,
          "internalType": "address",
          "name": "approved",
          "type": "address"
        },
        {
          "indexed": true,
          "internalType": "uint256",
          "name": "tokenId",
          "type": "uint256"
        }
      ],
      "name": "Approval",
      "type": "event"
    },
    {
      "anonymous": false,
      "inputs": [
        {
          "indexed": true,
          "internalType": "address",
          "name": "owner",
          "type": "address"
        },
        {
          "indexed": true,
          "internalType": "address",
          "name": "operator",
          "type": "address"
        },
        {
          "indexed": false,
          "internalType": "bool",
          "name": "approved",
          "type": "bool"
        }
      ],
      "name": "ApprovalForAll",
      "type": "event"
    },
    {
      "anonymous": false,
      "inputs": [
        {
          "indexed": false,
          "internalType": "address",
          "name": "owner",
          "type": "address"
        },
        {
          "indexed": false,
          "internalType": "uint256",
          "name": "newKittenId",
          "type": "uint256"
        },
        {
          "indexed": false,
          "internalType": "uint256",
          "name": "mumId",
          "type": "uint256"
        },
        {
          "indexed": false,
          "internalType": "uint256",
          "name": "dadId",
          "type": "uint256"
        },
        {
          "indexed": false,
          "internalType": "uint256",
          "name": "genes",
          "type": "uint256"
        }
      ],
      "name": "Birth",
      "type": "event"
    },
    {
      "anonymous": false,
      "inputs": [
        {
          "indexed": true,
          "internalType": "address",
          "name": "previousOwner",
          "type": "address"
        },
        {
          "indexed": true,
          "internalType": "address",
          "name": "newOwner",
          "type": "address"
        }
      ],
      "name": "OwnershipTransferred",
      "type": "event"
    },
    {
      "anonymous": false,
      "inputs": [
        {
          "indexed": true,
          "internalType": "address",
          "name": "from",
          "type": "address"
        },
        {
          "indexed": true,
          "internalType": "address",
          "name": "to",
          "type": "address"
        },
        {
          "indexed": true,
          "internalType": "uint256",
          "name": "tokenId",
          "type": "uint256"
        }
      ],
      "name": "Transfer",
      "type": "event"
    },
    {
      "inputs": [],
      "name": "CREATION_LIMIT_GEN0",
      "outputs": [
        {
          "internalType": "uint256",
          "name": "",
          "type": "uint256"
        }
      ],
      "stateMutability": "view",
      "type": "function",
      "constant": true
    },
    {
      "inputs": [],
      "name": "gen0Counter",
      "outputs": [
        {
          "internalType": "uint256",
          "name": "",
          "type": "uint256"
        }
      ],
      "stateMutability": "view",
      "type": "function",
      "constant": true
    },
    {
      "inputs": [
        {
          "internalType": "uint256",
          "name": "",
          "type": "uint256"
        }
      ],
      "name": "kittyIndexToApproved",
      "outputs": [
        {
          "internalType": "address",
          "name": "",
          "type": "address"
        }
      ],
      "stateMutability": "view",
      "type": "function",
      "constant": true
    },
    {
      "inputs": [
        {
          "internalType": "uint256",
          "name": "",
          "type": "uint256"
        }
      ],
      "name": "kittyIndexToOwner",
      "outputs": [
        {
          "internalType": "address",
          "name": "",
          "type": "address"
        }
      ],
      "stateMutability": "view",
      "type": "function",
      "constant": true
    },
    {
      "inputs": [],
      "name": "owner",
      "outputs": [
        {
          "internalType": "address",
          "name": "",
          "type": "address"
        }
      ],
      "stateMutability": "view",
      "type": "function",
      "constant": true
    },
    {
      "inputs": [],
      "name": "renounceOwnership",
      "outputs": [],
      "stateMutability": "nonpayable",
      "type": "function"
    },
    {
      "inputs": [
        {
          "internalType": "address",
          "name": "newOwner",
          "type": "address"
        }
      ],
      "name": "transferOwnership",
      "outputs": [],
      "stateMutability": "nonpayable",
      "type": "function"
    },
    {
      "inputs": [
        {
          "internalType": "uint256",
          "name": "_dadId",
          "type": "uint256"
        },
        {
          "internalType": "uint256",
          "name": "_mumId",
          "type": "uint256"
        }
      ],
      "name": "Breeding",
      "outputs": [
        {
          "internalType": "uint256",
          "name": "",
          "type": "uint256"
        }
      ],
      "stateMutability": "nonpayable",
      "type": "function"
    },
    {
      "inputs": [
        {
          "internalType": "bytes4",
          "name": "_interfaceId",
          "type": "bytes4"
        }
      ],
      "name": "supportsInterface",
      "outputs": [
        {
          "internalType": "bool",
          "name": "",
          "type": "bool"
        }
      ],
      "stateMutability": "pure",
      "type": "function",
      "constant": true
    },
    {
      "inputs": [
        {
          "internalType": "uint256",
          "name": "_genes",
          "type": "uint256"
        }
      ],
      "name": "createKittyGen0",
      "outputs": [
        {
          "internalType": "uint256",
          "name": "",
          "type": "uint256"
        }
      ],
      "stateMutability": "nonpayable",
      "type": "function"
    },
    {
      "inputs": [
        {
          "internalType": "uint256",
          "name": "_id",
          "type": "uint256"
        }
      ],
      "name": "getKitty",
      "outputs": [
        {
          "internalType": "uint256",
          "name": "genes",
          "type": "uint256"
        },
        {
          "internalType": "uint256",
          "name": "birthTime",
          "type": "uint256"
        },
        {
          "internalType": "uint256",
          "name": "mumId",
          "type": "uint256"
        },
        {
          "internalType": "uint256",
          "name": "dadId",
          "type": "uint256"
        },
        {
          "internalType": "uint256",
          "name": "generation",
          "type": "uint256"
        }
      ],
      "stateMutability": "view",
      "type": "function",
      "constant": true
    },
    {
      "inputs": [
        {
          "internalType": "address",
          "name": "owner",
          "type": "address"
        }
      ],
      "name": "getAllCatsFor",
      "outputs": [
        {
          "internalType": "uint256[]",
          "name": "",
          "type": "uint256[]"
        }
      ],
      "stateMutability": "view",
      "type": "function",
      "constant": true
    },
    {
      "inputs": [
        {
          "internalType": "address",
          "name": "owner",
          "type": "address"
        }
      ],
      "name": "balanceOf",
      "outputs": [
        {
          "internalType": "uint256",
          "name": "balance",
          "type": "uint256"
        }
      ],
      "stateMutability": "view",
      "type": "function",
      "constant": true
    },
    {
      "inputs": [],
      "name": "totalSupply",
      "outputs": [
        {
          "internalType": "uint256",
          "name": "total",
          "type": "uint256"
        }
      ],
      "stateMutability": "view",
      "type": "function",
      "constant": true
    },
    {
      "inputs": [],
      "name": "name",
      "outputs": [
        {
          "internalType": "string",
          "name": "tokenName",
          "type": "string"
        }
      ],
      "stateMutability": "pure",
      "type": "function",
      "constant": true
    },
    {
      "inputs": [],
      "name": "symbol",
      "outputs": [
        {
          "internalType": "string",
          "name": "tokenSymbol",
          "type": "string"
        }
      ],
      "stateMutability": "pure",
      "type": "function",
      "constant": true
    },
    {
      "inputs": [
        {
          "internalType": "uint256",
          "name": "tokenId",
          "type": "uint256"
        }
      ],
      "name": "ownerOf",
      "outputs": [
        {
          "internalType": "address",
          "name": "owner",
          "type": "address"
        }
      ],
      "stateMutability": "view",
      "type": "function",
      "constant": true
    },
    {
      "inputs": [
        {
          "internalType": "address",
          "name": "to",
          "type": "address"
        },
        {
          "internalType": "uint256",
          "name": "tokenId",
          "type": "uint256"
        }
      ],
      "name": "transfer",
      "outputs": [],
      "stateMutability": "nonpayable",
      "type": "function"
    },
    {
      "inputs": [
        {
          "internalType": "address",
          "name": "_approved",
          "type": "address"
        },
        {
          "internalType": "uint256",
          "name": "_tokenId",
          "type": "uint256"
        }
      ],
      "name": "approve",
      "outputs": [],
      "stateMutability": "nonpayable",
      "type": "function"
    },
    {
      "inputs": [
        {
          "internalType": "address",
          "name": "_operator",
          "type": "address"
        },
        {
          "internalType": "bool",
          "name": "_approved",
          "type": "bool"
        }
      ],
      "name": "setApprovalForAll",
      "outputs": [],
      "stateMutability": "nonpayable",
      "type": "function"
    },
    {
      "inputs": [
        {
          "internalType": "uint256",
          "name": "_tokenId",
          "type": "uint256"
        }
      ],
      "name": "getApproved",
      "outputs": [
        {
          "internalType": "address",
          "name": "",
          "type": "address"
        }
      ],
      "stateMutability": "view",
      "type": "function",
      "constant": true
    },
    {
      "inputs": [
        {
          "internalType": "address",
          "name": "_owner",
          "type": "address"
        },
        {
          "internalType": "address",
          "name": "_operator",
          "type": "address"
        }
      ],
      "name": "isApprovedForAll",
      "outputs": [
        {
          "internalType": "bool",
          "name": "",
          "type": "bool"
        }
      ],
      "stateMutability": "view",
      "type": "function",
      "constant": true
    },
    {
      "inputs": [
        {
          "internalType": "address",
          "name": "_from",
          "type": "address"
        },
        {
          "internalType": "address",
          "name": "_to",
          "type": "address"
        },
        {
          "internalType": "uint256",
          "name": "_tokenId",
          "type": "uint256"
        }
      ],
      "name": "safeTransferFrom",
      "outputs": [],
      "stateMutability": "nonpayable",
      "type": "function"
    },
    {
      "inputs": [
        {
          "internalType": "address",
          "name": "_from",
          "type": "address"
        },
        {
          "internalType": "address",
          "name": "_to",
          "type": "address"
        },
        {
          "internalType": "uint256",
          "name": "_tokenId",
          "type": "uint256"
        },
        {
          "internalType": "bytes",
          "name": "data",
          "type": "bytes"
        }
      ],
      "name": "safeTransferFrom",
      "outputs": [],
      "stateMutability": "nonpayable",
      "type": "function"
    },
    {
      "inputs": [
        {
          "internalType": "address",
          "name": "_owner",
          "type": "address"
        }
      ],
      "name": "tokensOfOwner",
      "outputs": [
        {
          "internalType": "uint256[]",
          "name": "ownerTokens",
          "type": "uint256[]"
        }
      ],
      "stateMutability": "view",
      "type": "function",
      "constant": true
    },
    {
      "inputs": [
        {
          "internalType": "address",
          "name": "_from",
          "type": "address"
        },
        {
          "internalType": "address",
          "name": "_to",
          "type": "address"
        },
        {
          "internalType": "uint256",
          "name": "_tokenId",
          "type": "uint256"
        }
      ],
      "name": "transferFrom",
      "outputs": [],
      "stateMutability": "nonpayable",
      "type": "function"
    },
    {
      "inputs": [
        {
          "internalType": "address",
          "name": "_claimant",
          "type": "address"
        },
        {
          "internalType": "uint256",
          "name": "tokenId",
          "type": "uint256"
        }
      ],
      "name": "_owns",
      "outputs": [
        {
          "internalType": "bool",
          "name": "",
          "type": "bool"
        }
      ],
      "stateMutability": "view",
      "type": "function",
      "constant": true
    }
  ],
  "bytecode": "0x608060405260006007553480156200001657600080fd5b50620000376200002b6200005c60201b60201c565b6200006460201b60201c565b6200005560008060006603fcc1da8c9c4c336200012860201b60201c565b5062000717565b600033905090565b60008060009054906101000a900473ffffffffffffffffffffffffffffffffffffffff169050816000806101000a81548173ffffffffffffffffffffffffffffffffffffffff021916908373ffffffffffffffffffffffffffffffffffffffff1602179055508173ffffffffffffffffffffffffffffffffffffffff168173ffffffffffffffffffffffffffffffffffffffff167f8be0079c531659141344cd1fd0a4f28419497f9722a3daafe3b4186f6b6457e060405160405180910390a35050565b6000806040518060a001604052808581526020014267ffffffffffffffff1681526020018863ffffffff1681526020018763ffffffff1681526020018661ffff16815250905060088190806001815401808255809150506001900390600052602060002090600202016000909190919091506000820151816000015560208201518160010160006101000a81548167ffffffffffffffff021916908367ffffffffffffffff16021790555060408201518160010160086101000a81548163ffffffff021916908363ffffffff160217905550606082015181600101600c6101000a81548163ffffffff021916908363ffffffff16021790555060808201518160010160106101000a81548161ffff021916908361ffff1602179055505050600060016008805490506200025c919062000529565b90508063ffffffff168114620002a9576040517f08c379a0000000000000000000000000000000000000000000000000000000008152600401620002a090620005c5565b60405180910390fd5b7f0a5311bd2a6608f08a180df2ee7c5946819a649b204b554bb8e39825b2c50ad58482846040015163ffffffff16856060015163ffffffff168660000151604051620002fa9594939291906200063d565b60405180910390a162000316600085836200032460201b60201c565b809250505095945050505050565b600260008373ffffffffffffffffffffffffffffffffffffffff1673ffffffffffffffffffffffffffffffffffffffff168152602001908152602001600020600081548092919062000376906200069a565b9190505550816001600083815260200190815260200160002060006101000a81548173ffffffffffffffffffffffffffffffffffffffff021916908373ffffffffffffffffffffffffffffffffffffffff160217905550600073ffffffffffffffffffffffffffffffffffffffff168373ffffffffffffffffffffffffffffffffffffffff16146200049057600260008473ffffffffffffffffffffffffffffffffffffffff1673ffffffffffffffffffffffffffffffffffffffff16815260200190815260200160002060008154809291906200045490620006e8565b91905055506003600082815260200190815260200160002060006101000a81549073ffffffffffffffffffffffffffffffffffffffff02191690555b808273ffffffffffffffffffffffffffffffffffffffff168473ffffffffffffffffffffffffffffffffffffffff167fddf252ad1be2c89b69c2b068fc378daa952ba7f163c4a11628f55a4df523b3ef60405160405180910390a4505050565b6000819050919050565b7f4e487b7100000000000000000000000000000000000000000000000000000000600052601160045260246000fd5b60006200053682620004f0565b91506200054383620004f0565b925082821015620005595762000558620004fa565b5b828203905092915050565b600082825260208201905092915050565b7f342042696c6c696f6e2063617473206d61780000000000000000000000000000600082015250565b6000620005ad60128362000564565b9150620005ba8262000575565b602082019050919050565b60006020820190508181036000830152620005e0816200059e565b9050919050565b600073ffffffffffffffffffffffffffffffffffffffff82169050919050565b60006200061482620005e7565b9050919050565b620006268162000607565b82525050565b6200063781620004f0565b82525050565b600060a0820190506200065460008301886200061b565b6200066360208301876200062c565b6200067260408301866200062c565b6200068160608301856200062c565b6200069060808301846200062c565b9695505050505050565b6000620006a782620004f0565b91507fffffffffffffffffffffffffffffffffffffffffffffffffffffffffffffffff821415620006dd57620006dc620004fa565b5b600182019050919050565b6000620006f582620004f0565b915060008214156200070c576200070b620004fa565b5b600182039050919050565b6132d380620007276000396000f3fe608060405234801561001057600080fd5b50600436106101a95760003560e01c80638da5cb5b116100f9578063b921a40011610097578063e985e9c511610071578063e985e9c514610506578063e98b7f4d14610536578063ef5e94aa1461056a578063f2fde38b14610588576101a9565b8063b921a40014610476578063d5a776ca146104a6578063e21fd9fc146104d6576101a9565b8063a45f4bfc116100d3578063a45f4bfc146103f0578063a9059cbb14610420578063b48343301461043c578063b88d4fde1461045a576101a9565b80638da5cb5b1461039857806395d89b41146103b6578063a22cb465146103d4576101a9565b806342842e0e116101665780636352211e116101405780636352211e146102fe57806370a082311461032e578063715018a61461035e5780638462151c14610368576101a9565b806342842e0e14610282578063481af3d31461029e5780635a64aafa146102ce576101a9565b806301ffc9a7146101ae57806306fdde03146101de578063081812fc146101fc578063095ea7b31461022c57806318160ddd1461024857806323b872dd14610266575b600080fd5b6101c860048036038101906101c39190611ee1565b6105a4565b6040516101d59190611f29565b60405180910390f35b6101e6610644565b6040516101f39190611fdd565b60405180910390f35b61021660048036038101906102119190612035565b610681565b60405161022391906120a3565b60405180910390f35b610246600480360381019061024191906120ea565b610705565b005b6102506107b7565b60405161025d9190612139565b60405180910390f35b610280600480360381019061027b9190612154565b6107c4565b005b61029c60048036038101906102979190612154565b61092e565b005b6102b860048036038101906102b39190612035565b61093e565b6040516102c591906120a3565b60405180910390f35b6102e860048036038101906102e391906121a7565b610971565b6040516102f59190612292565b60405180910390f35b61031860048036038101906103139190612035565b610a08565b60405161032591906120a3565b60405180910390f35b610348600480360381019061034391906121a7565b610aba565b6040516103559190612139565b60405180910390f35b610366610b03565b005b610382600480360381019061037d91906121a7565b610b8b565b60405161038f9190612292565b60405180910390f35b6103a0610d10565b6040516103ad91906120a3565b60405180910390f35b6103be610d39565b6040516103cb9190611fdd565b60405180910390f35b6103ee60048036038101906103e991906122e0565b610d76565b005b61040a60048036038101906104059190612035565b610ee2565b60405161041791906120a3565b60405180910390f35b61043a600480360381019061043591906120ea565b610f15565b005b610444611016565b6040516104519190612139565b60405180910390f35b610474600480360381019061046f9190612385565b61101b565b005b610490600480360381019061048b919061240d565b6111bf565b60405161049d9190612139565b60405180910390f35b6104c060048036038101906104bb9190612035565b611319565b6040516104cd9190612139565b60405180910390f35b6104f060048036038101906104eb91906120ea565b61140b565b6040516104fd9190611f29565b60405180910390f35b610520600480360381019061051b919061244d565b611477565b60405161052d9190611f29565b60405180910390f35b610550600480360381019061054b9190612035565b61150b565b60405161056195949392919061248d565b60405180910390f35b610572611626565b60405161057f9190612139565b60405180910390f35b6105a2600480360381019061059d91906121a7565b61162c565b005b60006380ac58cd60e01b7bffffffffffffffffffffffffffffffffffffffffffffffffffffffff1916827bffffffffffffffffffffffffffffffffffffffffffffffffffffffff1916148061063d57506301ffc9a760e01b7bffffffffffffffffffffffffffffffffffffffffffffffffffffffff1916827bffffffffffffffffffffffffffffffffffffffffffffffffffffffff1916145b9050919050565b60606040518060400160405280600e81526020017f4d792043727970746f2043617473000000000000000000000000000000000000815250905090565b600060088054905082106106ca576040517f08c379a00000000000000000000000000000000000000000000000000000000081526004016106c19061252c565b60405180910390fd5b6003600083815260200190815260200160002060009054906101000a900473ffffffffffffffffffffffffffffffffffffffff169050919050565b61070f338261140b565b61074e576040517f08c379a000000000000000000000000000000000000000000000000000000000815260040161074590612598565b60405180910390fd5b6107588183611724565b808273ffffffffffffffffffffffffffffffffffffffff163373ffffffffffffffffffffffffffffffffffffffff167f8c5be1e5ebec7d5bd14f71427d1e84f3dd0314c0f7b2291e5b200ac8c7c3b92560405160405180910390a45050565b6000600880549050905090565b600073ffffffffffffffffffffffffffffffffffffffff168273ffffffffffffffffffffffffffffffffffffffff161415610834576040517f08c379a000000000000000000000000000000000000000000000000000000000815260040161082b90612604565b60405180910390fd5b600880549050811061087b576040517f08c379a00000000000000000000000000000000000000000000000000000000081526004016108729061252c565b60405180910390fd5b610885838261140b565b6108c4576040517f08c379a00000000000000000000000000000000000000000000000000000000081526004016108bb90612670565b60405180910390fd5b8273ffffffffffffffffffffffffffffffffffffffff163373ffffffffffffffffffffffffffffffffffffffff16148061090457506109038333611477565b5b806109155750610914338261177a565b5b61091e57600080fd5b6109298383836117e6565b505050565b61093983838361092e565b505050565b60036020528060005260406000206000915054906101000a900473ffffffffffffffffffffffffffffffffffffffff1681565b6060600560008373ffffffffffffffffffffffffffffffffffffffff1673ffffffffffffffffffffffffffffffffffffffff1681526020019081526020016000208054806020026020016040519081016040528092919081815260200182805480156109fc57602002820191906000526020600020905b8154815260200190600101908083116109e8575b50505050509050919050565b6000806001600084815260200190815260200160002060009054906101000a900473ffffffffffffffffffffffffffffffffffffffff169050600073ffffffffffffffffffffffffffffffffffffffff168173ffffffffffffffffffffffffffffffffffffffff161415610ab1576040517f08c379a0000000000000000000000000000000000000000000000000000000008152600401610aa890612702565b60405180910390fd5b80915050919050565b6000600260008373ffffffffffffffffffffffffffffffffffffffff1673ffffffffffffffffffffffffffffffffffffffff168152602001908152602001600020549050919050565b610b0b6119ad565b73ffffffffffffffffffffffffffffffffffffffff16610b29610d10565b73ffffffffffffffffffffffffffffffffffffffff1614610b7f576040517f08c379a0000000000000000000000000000000000000000000000000000000008152600401610b769061276e565b60405180910390fd5b610b8960006119b5565b565b60606000610b9883610aba565b90506000811415610bf557600067ffffffffffffffff811115610bbe57610bbd61278e565b5b604051908082528060200260200182016040528015610bec5781602001602082028036833780820191505090505b50915050610d0b565b60008167ffffffffffffffff811115610c1157610c1061278e565b5b604051908082528060200260200182016040528015610c3f5781602001602082028036833780820191505090505b5090506000610c4c6107b7565b90506000805b828111610d02578673ffffffffffffffffffffffffffffffffffffffff166001600083815260200190815260200160002060009054906101000a900473ffffffffffffffffffffffffffffffffffffffff1673ffffffffffffffffffffffffffffffffffffffff161415610cef5780848381518110610cd457610cd36127bd565b5b6020026020010181815250508180610ceb9061281b565b9250505b8080610cfa9061281b565b915050610c52565b83955050505050505b919050565b60008060009054906101000a900473ffffffffffffffffffffffffffffffffffffffff16905090565b60606040518060400160405280600481526020017f4d43524300000000000000000000000000000000000000000000000000000000815250905090565b3373ffffffffffffffffffffffffffffffffffffffff168273ffffffffffffffffffffffffffffffffffffffff161415610de5576040517f08c379a0000000000000000000000000000000000000000000000000000000008152600401610ddc906128d6565b60405180910390fd5b80600460003373ffffffffffffffffffffffffffffffffffffffff1673ffffffffffffffffffffffffffffffffffffffff16815260200190815260200160002060008473ffffffffffffffffffffffffffffffffffffffff1673ffffffffffffffffffffffffffffffffffffffff16815260200190815260200160002060006101000a81548160ff0219169083151502179055508173ffffffffffffffffffffffffffffffffffffffff163373ffffffffffffffffffffffffffffffffffffffff167f17307eab39ab6107e8899845ad3d59bd9653f200f220920489ca2b5937696c3183604051610ed69190611f29565b60405180910390a35050565b60016020528060005260406000206000915054906101000a900473ffffffffffffffffffffffffffffffffffffffff1681565b600073ffffffffffffffffffffffffffffffffffffffff168273ffffffffffffffffffffffffffffffffffffffff161415610f85576040517f08c379a0000000000000000000000000000000000000000000000000000000008152600401610f7c90612968565b60405180910390fd5b3073ffffffffffffffffffffffffffffffffffffffff168273ffffffffffffffffffffffffffffffffffffffff161415610ff4576040517f08c379a0000000000000000000000000000000000000000000000000000000008152600401610feb906129d4565b60405180910390fd5b610ffe338261140b565b61100757600080fd5b6110123383836117e6565b5050565b600a81565b600073ffffffffffffffffffffffffffffffffffffffff168473ffffffffffffffffffffffffffffffffffffffff16141561108b576040517f08c379a000000000000000000000000000000000000000000000000000000000815260040161108290612a40565b60405180910390fd5b60088054905083106110d2576040517f08c379a00000000000000000000000000000000000000000000000000000000081526004016110c990612aac565b60405180910390fd5b6110dc858461140b565b61111b576040517f08c379a000000000000000000000000000000000000000000000000000000000815260040161111290612b3e565b60405180910390fd5b8473ffffffffffffffffffffffffffffffffffffffff163373ffffffffffffffffffffffffffffffffffffffff16148061115b575061115a8585611477565b5b8061116c575061116b338461177a565b5b6111ab576040517f08c379a00000000000000000000000000000000000000000000000000000000081526004016111a290612c1c565b60405180910390fd5b6111b88585858585611a79565b5050505050565b60006111cb338461140b565b80156111dd57506111dc338361140b565b5b61121c576040517f08c379a000000000000000000000000000000000000000000000000000000000815260040161121390612cae565b60405180910390fd5b8282141561125f576040517f08c379a000000000000000000000000000000000000000000000000000000000815260040161125690612d1a565b60405180910390fd5b60008061126b8561150b565b9450505050915060008061127e8661150b565b9450505050915060006112918584611b1a565b90506000828510156112c0576001836112aa9190612d3a565b90506002816112b99190612dbf565b90506112fc565b828511156112eb576001856112d59190612d3a565b90506002816112e49190612dbf565b90506112fb565b6001836112f89190612d3a565b90505b5b611309888a838533611b6e565b5080965050505050505092915050565b60006113236119ad565b73ffffffffffffffffffffffffffffffffffffffff16611341610d10565b73ffffffffffffffffffffffffffffffffffffffff1614611397576040517f08c379a000000000000000000000000000000000000000000000000000000000815260040161138e9061276e565b60405180910390fd5b600a60065411156113dd576040517f08c379a00000000000000000000000000000000000000000000000000000000081526004016113d490612e62565b60405180910390fd5b600660008154809291906113f09061281b565b919050555061140460008060008533611b6e565b9050919050565b60008273ffffffffffffffffffffffffffffffffffffffff166001600084815260200190815260200160002060009054906101000a900473ffffffffffffffffffffffffffffffffffffffff1673ffffffffffffffffffffffffffffffffffffffff1614905092915050565b6000600460008473ffffffffffffffffffffffffffffffffffffffff1673ffffffffffffffffffffffffffffffffffffffff16815260200190815260200160002060008373ffffffffffffffffffffffffffffffffffffffff1673ffffffffffffffffffffffffffffffffffffffff16815260200190815260200160002060009054906101000a900460ff16905092915050565b60008060008060008060088781548110611528576115276127bd565b5b9060005260206000209060020201905060008160010160009054906101000a900467ffffffffffffffff1667ffffffffffffffff161161159d576040517f08c379a000000000000000000000000000000000000000000000000000000000815260040161159490612ece565b60405180910390fd5b8060010160009054906101000a900467ffffffffffffffff1667ffffffffffffffff1694508060010160089054906101000a900463ffffffff1663ffffffff16935080600101600c9054906101000a900463ffffffff1663ffffffff1692508060010160109054906101000a900461ffff1661ffff169150806000015495505091939590929450565b60065481565b6116346119ad565b73ffffffffffffffffffffffffffffffffffffffff16611652610d10565b73ffffffffffffffffffffffffffffffffffffffff16146116a8576040517f08c379a000000000000000000000000000000000000000000000000000000000815260040161169f9061276e565b60405180910390fd5b600073ffffffffffffffffffffffffffffffffffffffff168173ffffffffffffffffffffffffffffffffffffffff161415611718576040517f08c379a000000000000000000000000000000000000000000000000000000000815260040161170f90612f60565b60405180910390fd5b611721816119b5565b50565b806003600084815260200190815260200160002060006101000a81548173ffffffffffffffffffffffffffffffffffffffff021916908373ffffffffffffffffffffffffffffffffffffffff1602179055505050565b60008273ffffffffffffffffffffffffffffffffffffffff166003600084815260200190815260200160002060009054906101000a900473ffffffffffffffffffffffffffffffffffffffff1673ffffffffffffffffffffffffffffffffffffffff1614905092915050565b600260008373ffffffffffffffffffffffffffffffffffffffff1673ffffffffffffffffffffffffffffffffffffffff16815260200190815260200160002060008154809291906118369061281b565b9190505550816001600083815260200190815260200160002060006101000a81548173ffffffffffffffffffffffffffffffffffffffff021916908373ffffffffffffffffffffffffffffffffffffffff160217905550600073ffffffffffffffffffffffffffffffffffffffff168373ffffffffffffffffffffffffffffffffffffffff161461194d57600260008473ffffffffffffffffffffffffffffffffffffffff1673ffffffffffffffffffffffffffffffffffffffff168152602001908152602001600020600081548092919061191190612f80565b91905055506003600082815260200190815260200160002060006101000a81549073ffffffffffffffffffffffffffffffffffffffff02191690555b808273ffffffffffffffffffffffffffffffffffffffff168473ffffffffffffffffffffffffffffffffffffffff167fddf252ad1be2c89b69c2b068fc378daa952ba7f163c4a11628f55a4df523b3ef60405160405180910390a4505050565b600033905090565b60008060009054906101000a900473ffffffffffffffffffffffffffffffffffffffff169050816000806101000a81548173ffffffffffffffffffffffffffffffffffffffff021916908373ffffffffffffffffffffffffffffffffffffffff1602179055508173ffffffffffffffffffffffffffffffffffffffff168173ffffffffffffffffffffffffffffffffffffffff167f8be0079c531659141344cd1fd0a4f28419497f9722a3daafe3b4186f6b6457e060405160405180910390a35050565b611a848585856117e6565b611ad485858585858080601f016020809104026020016040519081016040528093929190818152602001838380828437600081840152601f19601f82011690508083019250505050505050611d5b565b611b13576040517f08c379a0000000000000000000000000000000000000000000000000000000008152600401611b0a9061301c565b60405180910390fd5b5050505050565b6000806305f5e10084611b2d9190612dbf565b905060006305f5e10084611b41919061303c565b90506000816305f5e10084611b56919061306d565b611b609190612d3a565b905080935050505092915050565b6000806040518060a001604052808581526020014267ffffffffffffffff1681526020018863ffffffff1681526020018763ffffffff1681526020018661ffff16815250905060088190806001815401808255809150506001900390600052602060002090600202016000909190919091506000820151816000015560208201518160010160006101000a81548167ffffffffffffffff021916908367ffffffffffffffff16021790555060408201518160010160086101000a81548163ffffffff021916908363ffffffff160217905550606082015181600101600c6101000a81548163ffffffff021916908363ffffffff16021790555060808201518160010160106101000a81548161ffff021916908361ffff160217905550505060006001600880549050611ca091906130c7565b90508063ffffffff168114611cea576040517f08c379a0000000000000000000000000000000000000000000000000000000008152600401611ce190613147565b60405180910390fd5b7f0a5311bd2a6608f08a180df2ee7c5946819a649b204b554bb8e39825b2c50ad58482846040015163ffffffff16856060015163ffffffff168660000151604051611d39959493929190613167565b60405180910390a1611d4d600085836117e6565b809250505095945050505050565b6000611d6684611e66565b611d735760019050611e5e565b60008473ffffffffffffffffffffffffffffffffffffffff1663150b7a02338887876040518563ffffffff1660e01b8152600401611db4949392919061320f565b6020604051808303816000875af1158015611dd3573d6000803e3d6000fd5b505050506040513d601f19601f82011682018060405250810190611df79190613270565b90507f150b7a023d4804d13e8c85fb27262cb750cf6ba9f9dd3bb30d90f482ceeb4b1f7bffffffffffffffffffffffffffffffffffffffffffffffffffffffff1916817bffffffffffffffffffffffffffffffffffffffffffffffffffffffff1916149150505b949350505050565b600080823b905060008163ffffffff1611915050919050565b600080fd5b600080fd5b60007fffffffff0000000000000000000000000000000000000000000000000000000082169050919050565b611ebe81611e89565b8114611ec957600080fd5b50565b600081359050611edb81611eb5565b92915050565b600060208284031215611ef757611ef6611e7f565b5b6000611f0584828501611ecc565b91505092915050565b60008115159050919050565b611f2381611f0e565b82525050565b6000602082019050611f3e6000830184611f1a565b92915050565b600081519050919050565b600082825260208201905092915050565b60005b83811015611f7e578082015181840152602081019050611f63565b83811115611f8d576000848401525b50505050565b6000601f19601f8301169050919050565b6000611faf82611f44565b611fb98185611f4f565b9350611fc9818560208601611f60565b611fd281611f93565b840191505092915050565b60006020820190508181036000830152611ff78184611fa4565b905092915050565b6000819050919050565b61201281611fff565b811461201d57600080fd5b50565b60008135905061202f81612009565b92915050565b60006020828403121561204b5761204a611e7f565b5b600061205984828501612020565b91505092915050565b600073ffffffffffffffffffffffffffffffffffffffff82169050919050565b600061208d82612062565b9050919050565b61209d81612082565b82525050565b60006020820190506120b86000830184612094565b92915050565b6120c781612082565b81146120d257600080fd5b50565b6000813590506120e4816120be565b92915050565b6000806040838503121561210157612100611e7f565b5b600061210f858286016120d5565b925050602061212085828601612020565b9150509250929050565b61213381611fff565b82525050565b600060208201905061214e600083018461212a565b92915050565b60008060006060848603121561216d5761216c611e7f565b5b600061217b868287016120d5565b935050602061218c868287016120d5565b925050604061219d86828701612020565b9150509250925092565b6000602082840312156121bd576121bc611e7f565b5b60006121cb848285016120d5565b91505092915050565b600081519050919050565b600082825260208201905092915050565b6000819050602082019050919050565b61220981611fff565b82525050565b600061221b8383612200565b60208301905092915050565b6000602082019050919050565b600061223f826121d4565b61224981856121df565b9350612254836121f0565b8060005b8381101561228557815161226c888261220f565b975061227783612227565b925050600181019050612258565b5085935050505092915050565b600060208201905081810360008301526122ac8184612234565b905092915050565b6122bd81611f0e565b81146122c857600080fd5b50565b6000813590506122da816122b4565b92915050565b600080604083850312156122f7576122f6611e7f565b5b6000612305858286016120d5565b9250506020612316858286016122cb565b9150509250929050565b600080fd5b600080fd5b600080fd5b60008083601f84011261234557612344612320565b5b8235905067ffffffffffffffff81111561236257612361612325565b5b60208301915083600182028301111561237e5761237d61232a565b5b9250929050565b6000806000806000608086880312156123a1576123a0611e7f565b5b60006123af888289016120d5565b95505060206123c0888289016120d5565b94505060406123d188828901612020565b935050606086013567ffffffffffffffff8111156123f2576123f1611e84565b5b6123fe8882890161232f565b92509250509295509295909350565b6000806040838503121561242457612423611e7f565b5b600061243285828601612020565b925050602061244385828601612020565b9150509250929050565b6000806040838503121561246457612463611e7f565b5b6000612472858286016120d5565b9250506020612483858286016120d5565b9150509250929050565b600060a0820190506124a2600083018861212a565b6124af602083018761212a565b6124bc604083018661212a565b6124c9606083018561212a565b6124d6608083018461212a565b9695505050505050565b7f546f6b656e206d75737420657869737400000000000000000000000000000000600082015250565b6000612516601083611f4f565b9150612521826124e0565b602082019050919050565b6000602082019050818103600083015261254581612509565b9050919050565b7f4e6f742063757272656e74204e4654206f776e64657200000000000000000000600082015250565b6000612582601683611f4f565b915061258d8261254c565b602082019050919050565b600060208201905081810360008301526125b181612575565b9050919050565b7f546f2061646472657373206973206e6f742061207a65726f2061646472657373600082015250565b60006125ee602083611f4f565b91506125f9826125b8565b602082019050919050565b6000602082019050818103600083015261261d816125e1565b9050919050565b7f46726f6d206f776e732074686520746f6b656e00000000000000000000000000600082015250565b600061265a601383611f4f565b915061266582612624565b602082019050919050565b600060208201905081810360008301526126898161264d565b9050919050565b7f4552433732313a206f776e657220717565727920666f72206e6f6e657869737460008201527f656e7420746f6b656e0000000000000000000000000000000000000000000000602082015250565b60006126ec602983611f4f565b91506126f782612690565b604082019050919050565b6000602082019050818103600083015261271b816126df565b9050919050565b7f4f776e61626c653a2063616c6c6572206973206e6f7420746865206f776e6572600082015250565b6000612758602083611f4f565b915061276382612722565b602082019050919050565b600060208201905081810360008301526127878161274b565b9050919050565b7f4e487b7100000000000000000000000000000000000000000000000000000000600052604160045260246000fd5b7f4e487b7100000000000000000000000000000000000000000000000000000000600052603260045260246000fd5b7f4e487b7100000000000000000000000000000000000000000000000000000000600052601160045260246000fd5b600061282682611fff565b91507fffffffffffffffffffffffffffffffffffffffffffffffffffffffffffffffff821415612859576128586127ec565b5b600182019050919050565b7f4552433732313a20617070726f766520746f2063616c6c65722c20796f75206160008201527f7265206e6f7420746865206f776e657200000000000000000000000000000000602082015250565b60006128c0603083611f4f565b91506128cb82612864565b604082019050919050565b600060208201905081810360008301526128ef816128b3565b9050919050565b7f4552433732313a207472616e7366657220746f20746865207a65726f2061646460008201527f7265737300000000000000000000000000000000000000000000000000000000602082015250565b6000612952602483611f4f565b915061295d826128f6565b604082019050919050565b6000602082019050818103600083015261298181612945565b9050919050565b7f7472616e7366657220746f20746865207a65726f206164647265737300000000600082015250565b60006129be601c83611f4f565b91506129c982612988565b602082019050919050565b600060208201905081810360008301526129ed816129b1565b9050919050565b7f4d757374207472616e7366657220746f207a65726f2061646472657373000000600082015250565b6000612a2a601d83611f4f565b9150612a35826129f4565b602082019050919050565b60006020820190508181036000830152612a5981612a1d565b9050919050565b7f546f6b656e20646f6573206e6f74206578697374000000000000000000000000600082015250565b6000612a96601483611f4f565b9150612aa182612a60565b602082019050919050565b60006020820190508181036000830152612ac581612a89565b9050919050565b7f4e6f7420612076616c6964204e46542c206e6f7420746865206f776e6572206f60008201527f66204e4654000000000000000000000000000000000000000000000000000000602082015250565b6000612b28602583611f4f565b9150612b3382612acc565b604082019050919050565b60006020820190508181036000830152612b5781612b1b565b9050919050565b7f5370656e646572206973206e6f742066726f6d20444558206f72207370656e6460008201527f6572206973206e6f7420617070726f766564206f7220746f6b656e4964206f7260208201527f207370656e646572206973206e6f7420746865206f70657261746f7220666f7260408201527f205f66726f6d0000000000000000000000000000000000000000000000000000606082015250565b6000612c06606683611f4f565b9150612c1182612b5e565b608082019050919050565b60006020820190508181036000830152612c3581612bf9565b9050919050565b7f596f75206d75737420626520746865206f776e6572206f6620626f7468206f6660008201527f20796f7572206361747300000000000000000000000000000000000000000000602082015250565b6000612c98602a83611f4f565b9150612ca382612c3c565b604082019050919050565b60006020820190508181036000830152612cc781612c8b565b9050919050565b7f546865206361742063616e277420726570726f647563652068696d73656c6600600082015250565b6000612d04601f83611f4f565b9150612d0f82612cce565b602082019050919050565b60006020820190508181036000830152612d3381612cf7565b9050919050565b6000612d4582611fff565b9150612d5083611fff565b9250827fffffffffffffffffffffffffffffffffffffffffffffffffffffffffffffffff03821115612d8557612d846127ec565b5b828201905092915050565b7f4e487b7100000000000000000000000000000000000000000000000000000000600052601260045260246000fd5b6000612dca82611fff565b9150612dd583611fff565b925082612de557612de4612d90565b5b828204905092915050565b7f47656e20302073686f756c64206265206c657373207468616e2063726561746960008201527f6f6e206c696d69742067656e2030000000000000000000000000000000000000602082015250565b6000612e4c602e83611f4f565b9150612e5782612df0565b604082019050919050565b60006020820190508181036000830152612e7b81612e3f565b9050919050565b7f746865206b6974747920646f65736e2774206578697374000000000000000000600082015250565b6000612eb8601783611f4f565b9150612ec382612e82565b602082019050919050565b60006020820190508181036000830152612ee781612eab565b9050919050565b7f4f776e61626c653a206e6577206f776e657220697320746865207a65726f206160008201527f6464726573730000000000000000000000000000000000000000000000000000602082015250565b6000612f4a602683611f4f565b9150612f5582612eee565b604082019050919050565b60006020820190508181036000830152612f7981612f3d565b9050919050565b6000612f8b82611fff565b91506000821415612f9f57612f9e6127ec565b5b600182039050919050565b7f5f736166655472616e7366657220636865636b20737570706f7274206572726f60008201527f7200000000000000000000000000000000000000000000000000000000000000602082015250565b6000613006602183611f4f565b915061301182612faa565b604082019050919050565b6000602082019050818103600083015261303581612ff9565b9050919050565b600061304782611fff565b915061305283611fff565b92508261306257613061612d90565b5b828206905092915050565b600061307882611fff565b915061308383611fff565b9250817fffffffffffffffffffffffffffffffffffffffffffffffffffffffffffffffff04831182151516156130bc576130bb6127ec565b5b828202905092915050565b60006130d282611fff565b91506130dd83611fff565b9250828210156130f0576130ef6127ec565b5b828203905092915050565b7f342042696c6c696f6e2063617473206d61780000000000000000000000000000600082015250565b6000613131601283611f4f565b915061313c826130fb565b602082019050919050565b6000602082019050818103600083015261316081613124565b9050919050565b600060a08201905061317c6000830188612094565b613189602083018761212a565b613196604083018661212a565b6131a3606083018561212a565b6131b0608083018461212a565b9695505050505050565b600081519050919050565b600082825260208201905092915050565b60006131e1826131ba565b6131eb81856131c5565b93506131fb818560208601611f60565b61320481611f93565b840191505092915050565b60006080820190506132246000830187612094565b6132316020830186612094565b61323e604083018561212a565b818103606083015261325081846131d6565b905095945050505050565b60008151905061326a81611eb5565b92915050565b60006020828403121561328657613285611e7f565b5b60006132948482850161325b565b9150509291505056fea264697066735822122039caa4ac01369485c1e93a986c700bb8a8ad4166c3e44015a2c13d3ce3819c1564736f6c634300080b0033",
  "immutableReferences": {},
  "source": "// SPDX-License-Identifier: MIT\r\npragma solidity ^0.8.0;\r\n\r\n//import \"./IERC721.sol\";\r\nimport \"@openzeppelin/contracts/access/Ownable.sol\";\r\nimport \"@openzeppelin/contracts/token/ERC721/IERC721Receiver.sol\";\r\n//import \"./KittyMarketPlace.sol\";\r\n\r\n\r\ncontract myKittiesContract is Ownable {\r\n\r\n  // Mapping from token ID to owner address\r\n  mapping(uint256 => address) public kittyIndexToOwner; //owners Of TokenId\r\n\r\n  // Mapping owner address to token count\r\n  mapping(address => uint256) ownershipTokenCount;\r\n\r\n  // Mapping from token ID to approved address\r\n  mapping(uint256 => address) public kittyIndexToApproved;\r\n\r\n  // MYADDR => OPERATOR => TRUE/FALSE\r\n  // _operatorApprovals[MYADDR][OPERATORADDR] = true or false;\r\n  // _operatorApprovals[MYADDR][BOBS_ADDR] = true;\r\n  // _operatorApprovals[MYADDR][ALICE_ADDR] = false;\r\n  // _operatorApprovals[MYADDR][LISA_ADDR] = true;\r\n\r\n  // Mapping from owner to operator approvals\r\n  mapping(address => mapping(address => bool)) private _operatorApprovals;\r\n\r\n  //an address to a number of cats in an array\r\n  mapping(address => uint256[]) ownerToCats;\r\n\r\n  bytes4 private constant _INTERFACE_TO_ERC721 = 0x80ac58cd;\r\n  bytes4 private constant _INTERFACE_TO_ERC165 = 0x01ffc9a7;\r\n\r\n  event Transfer(address indexed from, address indexed to, uint256 indexed tokenId);\r\n  event ApprovalForAll(address indexed owner, address indexed operator, bool approved);\r\n  event Approval(address indexed owner, address indexed approved, uint256 indexed tokenId);\r\n  event Birth(address owner, uint256 newKittenId, uint256 mumId, uint256 dadId, uint256 genes);\r\n\r\n  string constant _name = \"My Crypto Cats\";\r\n  string constant _symbol = \"MCRC\";\r\n  uint256 public constant CREATION_LIMIT_GEN0 = 10;\r\n  uint256 public gen0Counter;\r\n  uint256 nextId = 0;\r\n\r\n  // 11 22 33 44 | 44 33 22 1 1\r\n\r\n  // this cat will just take up space, cannot be transacted in any way\r\n  // prevents buyKitty function require statement resulting to an empty array; being true\r\n  constructor() {\r\n    // We are creating the first kitty at index 0 since an empty array, does take up space such as integer[0]\r\n    //In VSC says the following:\r\n    \r\n    //Use type(uint256).max instead of uint256(-1)\r\n    _createKitty(0, 0, 0, 1122334455667788, msg.sender); // Filip uint256(-1) but it fails\r\n    // mumId is 0, dadId is 0, generation is now 12345..., genes should be -1 but it errored, address 0 is owner but it's burned\r\n  }\r\n\r\n  function Breeding(uint256 _dadId, uint256 _mumId) public returns (uint256) {\r\n    //Check ownership\r\n    //Use new DNA\r\n    //Figure out the Generation\r\n    //Create new cat with new properties, give it to msg.sender\r\n    require(_owns(msg.sender, _dadId) && _owns(msg.sender, _mumId), \"You must be the owner of both of your cats\");\r\n    require(_mumId != _dadId, \"The cat can't reproduce himself\");\r\n\r\n    // reduce memory so use commas\r\n    // getKitty = genes, birthTime, mumId, dadId, generation\r\n    ( uint256 dadDna, , , ,uint256 DadGeneration ) = getKitty(_dadId);\r\n\r\n    ( uint256 mumDna, , , ,uint256 MumGeneration ) = getKitty(_mumId);\r\n\r\n    uint256 newDna = _mixDna(dadDna, mumDna);\r\n\r\n    uint kidGen = 0;\r\n\r\n    if (DadGeneration < MumGeneration ) {\r\n        kidGen = MumGeneration + 1;\r\n        kidGen /= 2;\r\n    }\r\n    else if (DadGeneration > MumGeneration ) {\r\n        kidGen = DadGeneration + 1;\r\n        kidGen /= 2;\r\n    } else { // if both generations are the same, we add plus one\r\n      kidGen = MumGeneration + 1;\r\n\r\n    }\r\n  \r\n    _createKitty(_mumId, _dadId, kidGen, newDna, msg.sender);\r\n\r\n    return kidGen;\r\n \r\n   \r\n  }\r\n\r\n\r\n  function supportsInterface(bytes4 _interfaceId) external pure returns (bool) {\r\n    return(_interfaceId == _INTERFACE_TO_ERC721 || _interfaceId == _INTERFACE_TO_ERC165);\r\n  }\r\n\r\n\r\n  bytes4 internal constant MAGIC_ERC721_RECEIVED = bytes4(keccak256(\"onERC721Received(address,address,uint256,bytes)\"));\r\n\r\n  struct Kitty {\r\n\r\n      uint256 genes;\r\n      uint64 birthTime;\r\n      uint32 mumId;\r\n      uint32 dadId;\r\n      uint16 generation;\r\n  }\r\n\r\n\r\n  Kitty[] kitties;\r\n\r\n\r\n  function createKittyGen0(uint256 _genes) public onlyOwner returns(uint256) {\r\n    require(gen0Counter <= CREATION_LIMIT_GEN0, \"Gen 0 should be less than creation limit gen 0\");\r\n    \r\n    gen0Counter ++;\r\n\r\n    // mum, dad and generation is 0\r\n    // Gen0 have no owners; they are owned by the contract\r\n    \r\n    return _createKitty(0,0,0, _genes, msg.sender); // msg.sender could also be -- address(this) - we are giving cats to owner\r\n\r\n    // Gen0 have no owners they are own by the contract\r\n    //uint256 tokenId = _createKitty(0, 0, 0, _genes, msg.sender);\r\n    //setOffer(0.2 ether, tokenId);\r\n  }\r\n\r\n\r\n  // create cats by generation and by breeding\r\n  // returns cat id\r\n  function _createKitty(\r\n    uint256 _mumId,\r\n    uint256 _dadId,\r\n    uint256 _generation, //1,2,3..etc\r\n    uint256 _genes, // recipient\r\n    address owner\r\n  ) private returns(uint256) {\r\n    Kitty memory _kitty = Kitty ({\r\n      genes: _genes,\r\n      birthTime: uint64(block.timestamp),\r\n      mumId: uint32(_mumId),\r\n      dadId: uint32(_dadId),\r\n      generation: uint16(_generation)\r\n    });\r\n\r\n    kitties.push(_kitty); // returns the size of array - 1 for the first cat (old)\r\n\r\n    uint256 newKittenId = kitties.length -1; // 0-1\r\n\r\n\r\n    // It's probably never going to happen, 4 billion cats is A LOT, but\r\n    // let's just be 100% sure we never let this happen.\r\n    require(newKittenId == uint256(uint32(newKittenId)), \"4 Billion cats max\");\r\n\r\n    emit Birth(owner, newKittenId, uint256(_kitty.mumId), uint256(_kitty.dadId), _kitty.genes);\r\n\r\n\r\n    // This will assign ownership, and also emit the Transfer event as\r\n    // per ERC721 draft\r\n    _transfer(address(0), owner, newKittenId);\r\n\r\n    return newKittenId; //returns 256 bit integer\r\n\r\n  }\r\n\r\n\r\n/*\r\n  function myGetKitty(uint256 tokenId) public view returns (\r\n    uint256 birthTime, // re-order like Filips if I want to use it\r\n    uint256 mumId,\r\n    uint256 dadId,\r\n    uint256 generation,\r\n    uint256 genes\r\n  ) {\r\n\r\n    Kitty storage returnKitty = kitties[tokenId];\r\n    return (uint256(returnKitty.birthTime), uint256(returnKitty.mumId), uint256(returnKitty.dadId), uint256(returnKitty.generation), uint256(returnKitty.genes));\r\n  }\r\n*/\r\n\r\n  function getKitty(uint256 _id)\r\n    public\r\n    view\r\n    returns (\r\n    uint256 genes,\r\n    uint256 birthTime,\r\n    uint256 mumId,\r\n    uint256 dadId,\r\n    uint256 generation\r\n  ) {\r\n    Kitty storage kitty = kitties[_id];\r\n\r\n    require(kitty.birthTime > 0, \"the kitty doesn't exist\");\r\n\r\n    birthTime = uint256(kitty.birthTime);\r\n    mumId = uint256(kitty.mumId);\r\n    dadId = uint256(kitty.dadId);\r\n    generation = uint256(kitty.generation);\r\n    genes = kitty.genes;\r\n  }\r\n\r\n\r\n  function getAllCatsFor(address owner) public view returns (uint[] memory) {\r\n    return ownerToCats[owner];\r\n  }\r\n  \r\n\r\n  function balanceOf(address owner) public view returns (uint256 balance) {\r\n    return ownershipTokenCount[owner];\r\n  }\r\n\r\n\r\n  function totalSupply() public view returns (uint256 total) {\r\n    return kitties.length;\r\n  }\r\n\r\n\r\n  function name() external pure returns (string memory tokenName) {\r\n    return _name;\r\n  }\r\n\r\n\r\n  function symbol() external pure returns (string memory tokenSymbol) {\r\n    return _symbol;\r\n  }\r\n\r\n  // private functions are cheaper but public allows to execute function from within this contract\r\n  function ownerOf(uint256 tokenId) public view returns (address owner) {\r\n    address _owner = kittyIndexToOwner[tokenId]; // local variable \r\n    require(_owner != address(0), \"ERC721: owner query for nonexistent token\");\r\n\r\n    return _owner;\r\n  }\r\n\r\n\r\n  // this transfer function is not used -- the mint function might be better suited for minting NFTs\r\n  function transfer(address to, uint256 tokenId) external {\r\n    require(to != address(0), \"ERC721: transfer to the zero address\");\r\n    require(to != address(this), \"transfer to the zero address\");\r\n    // `tokenId` token must be owned by `msg.sender`.\r\n    require(_owns(msg.sender, tokenId));\r\n\r\n    _transfer(msg.sender, to, tokenId);\r\n\r\n  }\r\n\r\n\r\n  function approve(address _approved, uint256 _tokenId) public {\r\n    ///  Throws unless `msg.sender` is the current NFT owner, or an authorized\r\n    ///  operator of the current owner.\r\n    require(_owns(msg.sender, _tokenId), \"Not current NFT ownder\");\r\n\r\n    _approve(_tokenId, _approved);\r\n    emit Approval(msg.sender, _approved, _tokenId);\r\n\r\n  }\r\n\r\n  //owner / true\r\n  function setApprovalForAll(address _operator, bool _approved) public {\r\n    require(_operator != msg.sender, \"ERC721: approve to caller, you are not the owner\");\r\n\r\n    _operatorApprovals[msg.sender][_operator] = _approved; \r\n    emit ApprovalForAll(msg.sender, _operator, _approved);\r\n\r\n  }\r\n\r\n\r\n  function getApproved(uint256 _tokenId) public view returns (address) {\r\n    require(_tokenId < kitties.length, \"Token must exist\"); // getter function\r\n\r\n    return kittyIndexToApproved[_tokenId];\r\n  }\r\n\r\n  // owner / marketplace\r\n  function isApprovedForAll(address _owner, address _operator) public view returns (bool) {\r\n    return _operatorApprovals[_owner][_operator];\r\n  }\r\n\r\n\r\n  function safeTransferFrom(address _from, address _to, uint256 _tokenId) public {\r\n    safeTransferFrom(_from, _to, _tokenId);\r\n  }\r\n\r\n\r\n  function safeTransferFrom(address _from, address _to, uint256 _tokenId, bytes calldata data) external {\r\n    require(_to != address(0), \"Must transfer to zero address\");\r\n    require(_tokenId < kitties.length, \"Token does not exist\");\r\n    require(_owns(_from, _tokenId), \"Not a valid NFT, not the owner of NFT\");\r\n\r\n     //spender is _from (DEX) or spender is approved for tokenId or spender is operator for _from\r\n    require(msg.sender == _from || isApprovedForAll(_from, _to) || _approvedFor(msg.sender, _tokenId), \"Spender is not from DEX or spender is not approved or tokenId or spender is not the operator for _from\");\r\n\r\n    _safeTransfer(_from, _to, _tokenId, data);\r\n\r\n  }\r\n\r\n\r\n  function tokensOfOwner(address _owner) public view returns(uint256[] memory ownerTokens) {\r\n    uint256 tokenCount = balanceOf(_owner);\r\n\r\n    if (tokenCount == 0) {\r\n      return new uint256[](0);\r\n    } else {\r\n      uint256[] memory result = new uint256[](tokenCount);\r\n      uint256 totalCats = totalSupply();\r\n      uint256 resultIndex = 0;\r\n\r\n      uint256 catId;\r\n\r\n      for (catId = 0; catId <= totalCats; catId++) { // catId = 1 was 0 before\r\n        if (kittyIndexToOwner[catId] == _owner) {\r\n          result[resultIndex] = catId;\r\n          resultIndex++;\r\n        }\r\n      }\r\n\r\n      return result;\r\n    }   \r\n  }\r\n\r\n\r\n  //Smart Contract Programmer(youTuber) ...\r\n  //transferFrom - how it is used:\r\n  //trader calls approve(dexAddress, amount)\r\n  //dex calls transferFrom(traderAddress, dexAddress, amount)\r\n\r\n  function transferFrom(address _from, address _to, uint256 _tokenId) public {\r\n    /// Throws if `_to` is the zero address. \r\n    /// Throws if `_tokenId` is not a valid NFT.\r\n\r\n    /// @dev Throws unless `msg.sender` is the current owner, an authorized\r\n    ///  operator, or the approved address for this NFT.\r\n     \r\n    require(_to != address(0), \"To address is not a zero address\");\r\n    require(_tokenId < kitties.length, \"Token must exist\");\r\n    require(_owns(_from, _tokenId), \"From owns the token\");\r\n    require(msg.sender == _from || isApprovedForAll(_from, msg.sender) || _approvedFor(msg.sender, _tokenId));\r\n\r\n    _transfer(_from, _to, _tokenId);\r\n  }\r\n\r\n\r\n  // must transfer from address 0\r\n  function _transfer(address from, address to, uint256 tokenId) internal {\r\n    //_approve(address(0), tokenId);\r\n\r\n    ownershipTokenCount[to] ++; // increase count of recipient\r\n\r\n    kittyIndexToOwner[tokenId] = to;\r\n\r\n     // SEMD tokenId # => an address to a number of cats in an array\r\n     //ownerToCats[to].push(tokenId);\r\n\r\n     // decrease token count from person A to person B\r\n     if (from != address(0)) { // if from is not address(0), is okay to remove token\r\n       ownershipTokenCount[from] --;\r\n\r\n       //_removeTokenIdFromOwner(from, tokenId);\r\n      //delete kittyIndexToOwner[tokenId];\r\n      delete kittyIndexToApproved[tokenId];\r\n\r\n     }\r\n\r\n     emit Transfer(from, to, tokenId);\r\n\r\n  }\r\n\r\n\r\n  function _safeTransfer(address _from, address _to, uint256 _tokenId, bytes calldata _data) internal {\r\n    _transfer(_from, _to, _tokenId);\r\n    require(_checkERC721Support(_from, _to, _tokenId, _data), \"_safeTransfer check support error\");\r\n  }\r\n\r\n\r\n  function  _removeTokenIdFromOwner(address owner, uint256 tokenId) internal {\r\n    uint256 lastId = ownerToCats[owner][ownerToCats[owner].length -1]; \r\n    // lastId = ownerToCats's owner address, ownerToCat's owner address' length - 1\r\n    // example:\r\n    // tokenId is 3, lets say...\r\n    // [1, 2, 3] length = 3 - 1; is 2 \r\n    // which is index pos [0, 1, 2] = tokenId 3\r\n\r\n    for (uint256 i = 0; i < ownerToCats[owner].length -1; i++) { \r\n      //counter i = 0; ownerToCat's owner address' counter count < length of array(3 - 1 = 2); increment count by 1;  i = i + 1\r\n\r\n      if (ownerToCats[owner][i] == tokenId) { //if ownerToCat's owner address index is comparable to tokenId (lastId 3 == tokenId 3)\r\n        ownerToCats[owner][i] = lastId; // then ownerToCats owner address' index = lastId (3)\r\n        ownerToCats[owner].pop(); // now delete it\r\n        // 0, 1 , 2 // index pos\r\n        // [1, 2, (3), 4...] \r\n        // [1, 2, pop, 4...] \r\n        // [1, 2, delete, 4...] \r\n        // [1, 2, 4...] \r\n      }\r\n    }\r\n  }\r\n\r\n\r\n  function _owns(address _claimant, uint256 tokenId ) public view returns(bool) {\r\n    return kittyIndexToOwner[tokenId] == _claimant;\r\n  }\r\n\r\n\r\n  function _deleteApproval(uint256 _tokenId) internal {\r\n      require(_owns(msg.sender, _tokenId), \"_deleteApproval error\");\r\n      delete kittyIndexToApproved[_tokenId];\r\n  }\r\n\r\n\r\n   function _approve(uint256 _tokenId, address _approved) internal {\r\n    kittyIndexToApproved[_tokenId] = _approved;\r\n  }\r\n\r\n\r\n  function _approvedFor(address _claimant, uint256 tokenId) internal view returns(bool) {\r\n    return kittyIndexToApproved[tokenId] == _claimant;\r\n  }\r\n\r\n\r\n  function _checkERC721Support(address _from, address _to, uint256 _tokenId, bytes memory _data) internal returns (bool) {\r\n    if(!isContract(_to)) { //checks if `_to` is a smart contract (code size > 0)\r\n      return true;\r\n    }\r\n    //example: Contract(_to)....\r\n    //If there is an operator, where _from is not equal to msg.sender, we use msg.sender.\r\n    bytes4 returnData = IERC721Receiver(_to).onERC721Received(msg.sender, _from, _tokenId, _data);\r\n    return returnData == MAGIC_ERC721_RECEIVED;\r\n    //Call onERC721Received in the _to contract\r\n    //Check return value\r\n  } \r\n\r\n\r\n  function isContract(address _to) internal view returns(bool) {\r\n    //It is a smart contract (code size > 0)\r\n    //If it is a wallet, code size = 0\r\n    uint32 size;\r\n    assembly{\r\n      size := extcodesize(_to)\r\n    }\r\n    return size > 0;\r\n  }\r\n\r\n\r\n  function _mixDna(uint256 _dadDna, uint256 _mumDna) internal pure returns (uint256) {\r\n    // dadDna: 11 22 33 44 55 66 77 88\r\n    // mumDna: 88 77 66 55 44 33 22 11\r\n\r\n    //10 * 100 = 1000\r\n    //10 + 20 = 1020\r\n\r\n    uint256 DadGenes = _dadDna / 100000000; // 11 22 33 44\r\n    uint256 MumGenes = _mumDna % 100000000; // 44 33 22 11 \r\n    // 11 22 33 44 x 100000000 + 44 33 22 11 = 11 22 33 44 44 33 22 11\r\n\r\n    uint256 newDna = ((DadGenes * 100000000) + MumGenes);\r\n    return newDna;\r\n    \r\n  }\r\n\r\n  \r\n}\r\n\r\n",
  "sourcePath": "C:\\Users\\benX\\Documents\\ethereum_course_advanced\\myCryptoKitties_master\\contracts\\kittiesContract.sol",
  "compiler": {
    "name": "solc",
    "version": "0.8.11+commit.d7f03943.Emscripten.clang"
  },
  "schemaVersion": "3.4.3",
  "updatedAt": "2022-01-02T01:04:16.401Z",
  "networkType": "ethereum",
  "devdoc": {
    "kind": "dev",
    "methods": {
      "owner()": {
        "details": "Returns the address of the current owner."
      },
      "renounceOwnership()": {
        "details": "Leaves the contract without owner. It will not be possible to call `onlyOwner` functions anymore. Can only be called by the current owner. NOTE: Renouncing ownership will leave the contract without an owner, thereby removing any functionality that is only available to the owner."
      },
      "transferOwnership(address)": {
        "details": "Transfers ownership of the contract to a new account (`newOwner`). Can only be called by the current owner."
      }
    },
    "version": 1
  },
  "userdoc": {
    "kind": "user",
    "methods": {},
    "version": 1
  }
}